:100000000C9474000C949C000C949C000C940004C0
:100010000C9400040C9400040C949C000C949C0020
:100020000C949C000C949C000C949C000C949C00E0
:100030000C949C000C949C000C949C000C949C00D0
:100040000C94AF030C949C000C94B2020C948C02A0
:100050000C949C000C949C000C949C000C949C00B0
:100060000C949C000C949C00360C020C800C060C2A
:10007000090C0C0C100C130C170C1A0C1D0C200C7A
:10008000230C270C2B0C2F0C320C0000000024003A
:1000900027002A00000000080002010000030407F6
:1000A0000000000000000000000000002300260007
:1000B00029000102040810204080010204081020D9
:1000C00001020408102000000000250028002B0079
:1000D00004040404040404040202020202020303EE
:1000E00003030303B912F90D11241FBECFEFD8E0AB
:1000F000DEBFCDBF12E0A0E0B1E0EAEEFBE202C05D
:1001000005900D92AE30B107D9F723E0AEE0B2E032
:1001100001C01D92A339B207E1F710E0C3E7D0E0B8
:1001200004C02197FE010E944A14C237D107C9F7C3
:100130000E94130E0C94E8150C940000FC01918DA4
:10014000828D981761F0828DDF01A80FB11D5D9639
:100150008C91928D9F5F9F73928F90E008958FEFA7
:100160009FEF0895FC01918D828D981731F0828D5B
:10017000E80FF11D858D90E008958FEF9FEF0895B2
:10018000FC01918D228D892F90E0805C9F4F821B16
:1001900091098F739927089584E992E00E94C00025
:1001A00021E0892B09F420E0822F0895FC01848D41
:1001B000DF01A80FB11DA35ABF4F2C91848D90E091
:1001C00001968F739927848FA689B7892C93A0896C
:1001D000B1898C9180648C93938D848D981306C023
:1001E0000288F389E02D80818F7D80830895EF92CE
:1001F000FF920F931F93CF93DF93EC0181E0888FE1
:100200009B8D8C8D981305C0E889F989808185FDC7
:1002100024C0F62E0B8D10E00F5F1F4F0F731127B8
:10022000E02E8C8DE8120CC00FB607FCFACFE889DF
:10023000F989808185FFF5CFCE010E94D600F1CFEC
:100240008B8DFE01E80FF11DE35AFF4FF0820B8FFB
:10025000EA89FB898081806207C0EE89FF8960831B
:10026000E889F98980818064808381E090E0DF9172
:10027000CF911F910F91FF90EF900895CF93DF934F
:10028000EC01888D8823C9F0EA89FB89808185FD8E
:1002900005C0A889B9898C9186FD0FC00FB607FCEF
:1002A000F5CF808185FFF2CFA889B9898C9185FF30
:1002B000EDCFCE010E94D600E7CFDF91CF91089518
:1002C00080E090E0892B29F00E94CC0081110C94F1
:1002D00000000895833081F028F4813099F0823055
:1002E000A1F008958730A9F08830B9F08430D1F4B6
:1002F000809180008F7D03C0809180008F778093F4
:100300008000089584B58F7702C084B58F7D84BD49
:1003100008958091B0008F7703C08091B0008F7DE9
:100320008093B000089520916302309164022817F1
:10033000390771F49091610280916202981741F03F
:10034000E0916102F0E0E85EFD4F808190E0089569
:100350008FEF9FEF089508951F93CF93DF93DC01F4
:100360005C962D913C915D972115310539F481E022
:1003700090E013969C938E9312973DC05196ED9109
:10038000FC91529750969C915097892F80951FB75A
:100390005E964C915E9741FB772770F941FD609521
:1003A000F8944081772311F0492B01C04823408302
:1003B000E9012197F1F748E0508160FF02C0592B15
:1003C00001C058235083E9012197F1F76695415008
:1003D00099F7772321F090818923808303C080815E
:1003E000982B90831FBF5C968D919C915D97019790
:1003F000F1F721E030E0C901DF91CF911F9108951D
:1004000020916302309164022817390771F48091BA
:1004100062022091610290E0805C9F4F821B9109F3
:1004200060E470E00E941414089580E090E0089564
:10043000209163023091640228173907B9F4909132
:10044000610280916202981789F0E0916102F0E008
:10045000E85EFD4F80812091610230E02F5F3F4FC9
:100460002F7333272093610290E008958FEF9FEF61
:1004700008950F931F9300917503109176032091B7
:100480007703309178036017710782079307B1F102
:1004900000917103109172032091730330917403E2
:1004A000601771078207930759F100916503109156
:1004B0006603209167033091680360177107820714
:1004C000930701F100916D0310916E0320916F036A
:1004D000309170036017710782079307A9F00091AC
:1004E000690310916A0320916B0330916C036017CC
:1004F00071078207930751F080E009C081E007C0CF
:1005000082E005C083E003C084E001C085E01F9164
:100510000F9108950E9491151F920F920FB60F929E
:1005200011242F933F934F935F936F937F938F93F8
:100530009F93AF93BF93EF93FF9384E992E00E9460
:10054000D600FF91EF91BF91AF919F918F917F91D5
:100550006F915F914F913F912F910F900FBE0F9030
:100560001F9018951F920F920FB60F9211242F9380
:100570008F939F93EF93FF93E091A402F091A502D4
:100580008081E091AA02F091AB0282FD12C09081BD
:100590008091AD028F5F8F732091AE02821751F070
:1005A000E091AD02F0E0EC56FD4F958F8093AD02E7
:1005B00001C08081FF91EF919F918F912F910F90BA
:1005C0000FBE0F901F9018951F93CF93DF93282F86
:1005D00030E0F901EC56FF4F8491F901EE54FF4FE2
:1005E000D491F901E053FF4FC491CC23C9F0162FE9
:1005F00081110E946A01EC2FF0E0EE0FFF1FEA5319
:10060000FF4FA591B4918FB7F894111105C09C913B
:10061000ED2FE095E92302C0EC91ED2BEC938FBF19
:10062000DF91CF911F910895CF93DF9390E0FC016C
:10063000EE54FF4F2491FC01E053FF4F8491882337
:1006400061F190E0880F991FFC01E657FF4FC591BB
:10065000D491FC01EA53FF4FA591B491611109C0F7
:100660009FB7F8948881209582238883EC912E236C
:100670000BC0623061F49FB7F8943881822F809567
:1006800083238883EC912E2B2C939FBF06C08FB7BA
:10069000F894E8812E2B28838FBFDF91CF910895A6
:1006A0003FB7F89480915D0290915E02A0915F0245
:1006B000B091600226B5A89B05C02F3F19F00196A6
:1006C000A11DB11D3FBFBA2FA92F982F8827820FD8
:1006D000911DA11DB11DBC01CD0142E0660F771F28
:1006E000881F991F4A95D1F708958F929F92AF92D4
:1006F000BF92CF92DF92EF92FF926B017C010E943A
:1007000050034B015C01C114D104E104F104F1F088
:100710000E945003DC01CB0188199909AA09BB0981
:10072000883E9340A105B10570F321E0C21AD108BB
:10073000E108F10888EE880E83E0981EA11CB11C28
:10074000C114D104E104F10419F7DDCFFF90EF905B
:10075000DF90CF90BF90AF909F908F9008951F92A1
:100760000F920FB60F9211242F933F938F939F9365
:10077000AF93BF938091590290915A02A0915B026E
:10078000B0915C023091580223E0230F2D3720F402
:100790000196A11DB11D05C026E8230F0296A11DDB
:1007A000B11D209358028093590290935A02A0934E
:1007B0005B02B0935C0280915D0290915E02A09119
:1007C0005F02B09160020196A11DB11D80935D0290
:1007D00090935E02A0935F02B0936002BF91AF91CD
:1007E0009F918F913F912F910F900FBE0F901F906F
:1007F00018958EBD00000DB407FEFDCF8EB508958F
:100800001F920F920FB60F9211242F933F934F9385
:100810005F936F937F938F939F93AF93BF93EF9368
:10082000FF93E0916302F0916402309709F451C0A4
:10083000968DA685B785858591FF04C09C918923F7
:1008400029F447C09C91892309F043C0A389B48946
:100850009C918589809589238C93868997890197B6
:10086000F1F7608D718DA685B785558538E020E05C
:10087000CB010197F1F7822F90E095958795282F6E
:100880004C91452309F02068315091F7868D81FD08
:1008900020958091620290E001968F7399273091A4
:1008A0006102381749F0A0916202B0E0A85EBD4F26
:1008B0002C938093620203C0868D8160868F828D27
:1008C000938D0197F1F7A389B4899C918589892B30
:1008D0008C93FF91EF91BF91AF919F918F917F91F9
:1008E0006F915F914F913F912F910F900FBE0F909D
:1008F0001F901895E0916302F0916402E817F907E0
:1009000069F4A389B4899C918589809589238C9306
:10091000109264021092630281E0089580E00895CD
:10092000CF93CFB7F89480911702811127C0EAEDD9
:10093000F0E08491ECEBF0E09491E82FF0E0EE0F22
:10094000FF1FE657FF4FA591B491EC91E92321F4E5
:1009500061E08AE00E94E40261E08AE00E94140300
:100960008CB580618CBD8CB580648CBD61E08DE000
:100970000E94140361E08BE00E941403809117022F
:100980008F5F80931702CFBFCF910895FF920F938F
:100990001F93CF93DF93D82F082F10E0F801EF5E5D
:1009A000FE4F208130E0F901EC56FF4F8491F901B0
:1009B000EE54FF4FF490F901E053FF4FC491CC2364
:1009C00079F081110E946A01EC2FF0E0EE0FFF1F19
:1009D000E855FF4FA591B491EC91EF2191E009F416
:1009E00090E0F801EF5EFD4F80818917F1F04091B2
:1009F0000401913061F4908321E030E001C0220FC6
:100A0000DA95EAF7242B2093040181E010C01082CC
:100A100021E030E0C90101C0880FDA95EAF780953E
:100A200084238093040180E002C0892F8170DF91CC
:100A3000CF911F910F91FF9008950F931F93CF9324
:100A400001E111E0C0E0F80181918F01833619F0D6
:100A50008C2F0E94C604CF5FC630A9F7CF911F919B
:100A60000F910895EF92FF920F931F93CF93DF930F
:100A700000D000D0CDB7DEB7882351F049835A8328
:100A80006B837C830E941D057C816B815A81498127
:100A9000453151056105710509F452C010925003AA
:100AA000406A526040935103509352036093530342
:100AB0007093540388E08093550310925E03E0E046
:100AC000F1E0A6E5B3E081918D9381E0E830F8078D
:100AD000D1F700E010E080E50E940D0A982F987091
:100AE00083FD03C081E5F82E02C0F12C92E00F5F78
:100AF0001F4F923021F40233110569F752C00233BF
:100B0000110509F44EC08F2D0E94950AEE24EA9437
:100B1000EF0C48E068E08E2D0E942A0A02E310E004
:100B20008E2D0E940D0AF82E61E070E080E090E0CA
:100B30000E947503F3FE35C00150110989F731C0D9
:100B40002AE04FE150E060E070E084E992E00E942A
:100B50005A0D87E491E00E94080A00E011E0F1E0FC
:100B600008301F0781F0F80141918F0150E060E0EB
:100B700070E02AE084E992E00E945A0D87E491E057
:100B80000E94080AECCF84E992E00F900F900F903A
:100B90000F90DF91CF911F910F91FF90EF900C94E8
:100BA000A30D0F900F900F900F90DF91CF911F9199
:100BB0000F91FF90EF9008958F929F92AF92BF9206
:100BC000EF92FF920F931F93CF93DF934B015C0142
:100BD000142FC22F0E9439028093010181E080937B
:100BE0000201111101C01AE0D0E0E02EF12CCE1567
:100BF000DF0570F480917A0390917B03C817D907C1
:100C000028F4B501A401CE010E947A0B2196EFCF02
:100C10000E94BC0A612F70E080E090E0DF91CF91EC
:100C20001F910F91FF90EF90BF90AF909F908F908A
:100C30000C9475035F926F927F928F929F92AF9206
:100C4000BF92CF92DF92EF92FF920F931F93CF93B9
:100C5000DF931F92CDB7DEB74B015C01522E7E2C85
:100C600049830E9439028093010184E0809302014C
:100C70004981411101C044E1511002C055245394EF
:100C800010E0C42ED12CE12CF12C81E08515F0F47C
:100C9000602E1AC04091610350916203609163031A
:100CA00070916403862D90E020917A0330917B034C
:100CB0008217930710F40E947A0B0E94BC0AC701A6
:100CC000B6010E9475036394671420F3602E14C06C
:100CD000862D90E020917A0330917B038217930751
:100CE00020F4B501A4010E947A0B0E94BC0AC7013E
:100CF000B6010E9475036394671450F31F5F1511CA
:100D0000C4CF0F90DF91CF911F910F91FF90EF9083
:100D1000DF90CF90BF90AF909F908F907F906F901B
:100D20005F9008950F93E0E0F1E086E0818385E035
:100D300082836091690370916A0380916B03909143
:100D40006C0300E220E044EF0E94DC0564E670E002
:100D500080E090E00E9475036091750370917603C6
:100D6000809177039091780320E044EF0E94DC05A6
:100D700064E670E080E090E00E947503609171038A
:100D800070917203809173039091740320E044EF9B
:100D90000E94DC0564E670E080E090E00E9475034C
:100DA0006091650370916603809167039091680379
:100DB00020E044EF0E94DC0564E670E080E090E013
:100DC0000E94750360916D0370916E0380916F03B3
:100DD0009091700320E044EF0E94DC0564E670E02F
:100DE00080E090E00E94750360916103709162035E
:100DF000809163039091640320E044EF0E94DC053E
:100E00000F9108951F93CF93DF93809169028432ED
:100E100039F010926802E9E6F2E080E18E0F35C009
:100E200067E471E089E692E00E94B41567E471E03E
:100E300080E090E00E94B4150E949615092E000CE7
:100E4000AA0BBB0B8093810290938202A093830232
:100E5000B093840267E471E080E090E00E94B415F2
:100E6000C9E7D2E01C2F185F009751F00E94961539
:100E7000888367E471E080E090E00E94B41501C0CF
:100E8000188221961C13F0CFC4CF11928E13FDCF80
:100E9000DF91CF911F9108957F928F929F92AF9291
:100EA000BF92CF92DF92EF92FF920F931F93CF9357
:100EB000DF938091850281112CC040918102509175
:100EC000820260918302709184024531510561056F
:100ED000710579F040915103509152036091530391
:100EE0007091540385E076956795579547958A9557
:100EF000D1F781E0DF91CF911F910F91FF90EF909B
:100F0000DF90CF90BF90AF909F908F907F900C9488
:100F10003205813009F0E8C080918602813049F4C1
:100F2000C0917503F090760310917703D091780308
:100F300034C0823049F4C0917103F0907203109173
:100F40007303D091740329C0833049F4C0916503C1
:100F5000F090660310916703D09168031EC084303F
:100F600049F4C0916D03F0906E0310916F03D0911E
:100F7000700313C0853049F4C0916903F0906A038F
:100F800010916B03D0916C0308C0C0916103F09085
:100F9000620310916303D091640370908702A09064
:100FA0008902D0908A02E0908802EE2049F08E2DCE
:100FB000880F880F880F08EFC02EC80EE82E03C0D8
:100FC000B0E2EB2EC12C711003C000E220E005C09E
:100FD00081E078120AC00E2D2C2D4D2D6C2F7F2D07
:100FE000812F9D2F0E94DC057AC082E0781231C0EB
:100FF0006C2F7F2D812F9D2F0E943902809301013C
:1010000070920201D11002C0AEE5DA2EA11002C02A
:10101000AA24A394812C912CB12C0E2D2C2D4D2D76
:101020006C2F7F2D812F9D2F8A149B04DCF60E944C
:10103000DC0560916103709162038091630390917C
:1010400064032C2D4D2D0E94DC058FEF881A980A21
:10105000E4CF83E0781231C06C2F7F2D812F9D2F3C
:101060000E9439028093010170920201D11002C0E6
:10107000FEE5DF2EA11002C0AA24A394812C912C9E
:10108000B12C8A149B045CF50E2D2C2D4D2D6C2F4C
:101090007F2D812F9D2F0E94DC056091610370914F
:1010A000620380916303909164032C2D4D2D0E9467
:1010B000DC058FEF881A980AE4CF84E078120AC022
:1010C0000C2D2A2D4D2D6C2F7F2D812F9D2F0E94B1
:1010D0001A0605C085E0781202C00E949206C093ED
:1010E00001017092020100C1823051F480918602A8
:1010F0008093090191E09093080180930301F4C06B
:10110000833031F580918602811102C060E003C016
:101110008130A9F461E085E00E94E40260E086E0AD
:10112000DF91CF911F910F91FF90EF90DF90CF90C3
:10113000BF90AF909F908F907F900C94E40282308C
:1011400009F0D2C061E085E00E94E40261E0E7CFEF
:10115000843009F4C9C0853009F04AC04091810249
:101160005091820260918302709184024531510551
:101170006105710579F040915103509152036091DE
:10118000530370915403E5E076956795579547951D
:10119000EA95D1F72AE084E992E00E945A0D87E4AB
:1011A00091E00E94080AC5E8D2E082E0CD38D80775
:1011B00071F0499150E060E070E02AE084E992E04B
:1011C0000E945A0D87E491E00E94080AEECF84E95C
:1011D00092E0DF91CF911F910F91FF90EF90DF9000
:1011E000CF90BF90AF909F908F907F900C94A30D65
:1011F000863009F044C08091860280936702C091D6
:101200008702C093660290918802992319F0909307
:10121000100202C010921002863049F589E491E074
:101220000E94080A0E9490048C2F0E94D40B811106
:1012300045C0609171037091720380917303909126
:10124000740338E1E32E00E120E040E00E941A063A
:101250004C2F50E060E070E02AE084E992E00E94C8
:101260005A0D6BE571E084E992E00E94A70D809130
:101270006702893009F085E08093000135C087302E
:1012800099F5C0918602C130B1F4C0936502C09354
:101290000F026091650370916603809167039091DE
:1012A000680340E2E42E00E121E040E00E941A06DB
:1012B000C0930E0219C01092650216C061E671E07B
:1012C00084E992E00E94A70D609165037091660326
:1012D000809167039091680328E1E22E00E120E00D
:1012E00040E00E941A06C3CFDF91CF911F910F916A
:1012F000FF90EF90DF90CF90BF90AF909F908F9036
:101300007F900895CF92DF92FF920F931F93CF9318
:10131000DF931F92CDB7DEB7F82E162F042F60E0B3
:101320008091600379830E94E40282E00E94F903C5
:101330008F2D0E94F903F12EC12E7981D72E8C2D8D
:101340008F19801730F4F60181916F010E94F90323
:10135000F6CF61E0809160030F90DF91CF911F91F4
:101360000F91FF90DF90CF900C94E4020F931F93A6
:10137000CF93DF93082F162FC0E5D3E060E0888974
:101380000E94E40282E00E94F903802F0E94F90388
:10139000812F0E94F90361E08889DF91CF911F912D
:1013A0000F910C94E402EF92FF920F931F93CF934F
:1013B000DF931F92CDB7DEB7182FF62EE42E60E034
:1013C0008091600379830E94E40283E00E94F90324
:1013D000812F0E94F9030F2D7981172FF12CFE1414
:1013E00059F0F8E0FF1641F080E00E94F903F8019F
:1013F00081938F01F394F3CF61E0809160030F90AC
:10140000DF91CF911F910F91FF90EF900C94E40228
:10141000BC0184E992E00C94E40D1F93CF93DF9319
:10142000182FC0E5D3E060E088890E94E40283E0E1
:101430000E94F903812F0E94F90380E00E94F903C2
:10144000182F61E088890E94E402812FDF91CF91FB
:101450001F910895EF92FF920F931F93CF93DF9305
:101460001F92CDB7DEB7082F162F80E5E82E83E058
:10147000F82E60E0F701808949830E94E40285E04C
:101480000E94F903802F0E94F903812F0E94F90323
:101490004981842F0E94F90361E0F70180890F9050
:1014A000DF91CF911F910F91FF90EF900C94E40288
:1014B0000F931F93CF93DF9300D000D0CDB7DEB74B
:1014C0006130B9F42C833B838A0122273327602FB4
:1014D0006C71902F937048E0649F900D1124986078
:1014E0009A83980175E0369527957A95E1F72983D7
:1014F0000DC0B90193E0769567959A95E1F76983F8
:101500002295220F207E2A831C821B8244E0BE018A
:101510006F5F7F4F0E9482090F900F900F900F9086
:10152000DF91CF911F910F910895CF93C82F4091D4
:10153000550366E573E085E08C0F0E948209809177
:101540005E03813029F480915503806480935503B4
:101550006091550384E08C0F0E94B60920915103DD
:1015600030915203409153035091540360915003C2
:101570008C2FCF910C94580A0F931F93CF93DF9326
:10158000CDB7DEB729970FB6F894DEBF0FBECDBF3B
:101590008091810390918203892B09F4A0C00E945D
:1015A00050030091860310918703209188033091A6
:1015B0008903DC01CB01801B910BA20BB30BC297FB
:1015C000A105B10560F3F89480917C0390917D03AF
:1015D0009A838983E0918103F0918203DF01119660
:1015E0008081898790917F03E0918A03F0918B033A
:1015F00080918C0391FF2EC09081982B98879081C9
:10160000809589238F838F818C8388E08B83588595
:101610006F8149853B812C8189819A81508347FD67
:10162000252F3A952083262F39F0441F00C0000053
:101630006083000000C0F2CF38E04D91608300006D
:10164000019761F7F0938B03E0938A0349873B830B
:101650002C8338C09081982B98879081809589231E
:101660008F838F818E8388E08D8358856F81498534
:101670003D812E8189819A81508347FD252F00C0AD
:1016800000C0208300C000C000C000C000C0608354
:101690000000262F3A9541F0441F000000C000C012
:1016A00000C000C000C0E8CF38E04D9100C06083AA
:1016B00000C0019709F7F0938B03E0938A034987F1
:1016C0003D832E839A83898378940E94500360938C
:1016D00086037093870380938803909389032996E8
:1016E0000FB6F894DEBF0FBECDBFDF91CF911F9133
:1016F0000F9108958F929F92AF92BF92CF92DF92F7
:10170000EF92FF924B01AA24BB24F82DC52ED62EB2
:10171000E72EFF24EC2D342F20918003222361F04B
:10172000829E40011124F92DC29E60011124ED2DED
:10173000429FA0011124352FAC01440F551F840F87
:10174000951F4091810350918203840F951F209132
:101750008303DC01A20FB11DFC9320918403DC0103
:10176000A20FB11DEC9320918503FC01E20FF11D46
:101770003083FF90EF90DF90CF90BF90AF909F901D
:101780008F900895CF93C82F482F60EE8FE00E946E
:101790002A0A8FE00E940D0A807E91E08C1301C01E
:1017A00090E0892FCF910895CF93DF93C82F60E009
:1017B000809160030E94E40280EC0E94F90361E0E2
:1017C000809160030E94E4026AE070E080E090E0B3
:1017D0000E94750380E80E94C20BD82F6AE070E077
:1017E00080E090E0D11186C00E9475034C2F50E03C
:1017F000FA013197E131F10508F078C0EC5CFF4F58
:101800000C944A14C7E8DFEF6FE133C0C7E0DAEBAE
:1018100079C0C5E8D1EF76C0C7E0DEEB69E029C04A
:10182000C7E8DFEF02C0C7E8DAEF67E022C0C7E829
:10183000DFEF0BC0C7E0DEEB08C0C7E0DDEA05C0A4
:10184000C7E8DAEF02C0C6E8D0EF63E012C0C7E82D
:10185000DAEF61E00EC0C5E8D1EF61E40AC0C6E886
:10186000D0EF02C0C2E8D0ED60E003C0C7E8DFEF10
:101870006FE38AE20E94B6096D2F89E20E94B609E1
:101880006C2F88E20E94B6096AE070E080E090E088
:101890000E947503C0E360E08C2F0E94B60960E0EF
:1018A00080E18C0F0E94B60960E080E28C0F0E94FC
:1018B000B609CF5FCE3379F760E080E60E94B609C3
:1018C00060E080E70E94B60963E08BE20E94B609FF
:1018D00044E064E680E60E942A0A40E060E680E791
:1018E0000E942A0A80E00E94C20BD82F6AE070E0B2
:1018F00080E090E00E9475038D2FDF91CF910895D5
:10190000C7E8DFEF6FE0B5CFCF93DF93D82F6AE062
:1019100070E080E090E00E94750380E80E94C20BB6
:10192000C82F882329F06AE070E080E090E01DC0B5
:10193000D11107C02FE130E040E050E060E080E2EC
:1019400008C0D13041F42FE130E040E050E060E0E9
:1019500084E20E94580A80E00E94C20BC82F6AE00D
:1019600070E080E090E0CC2321F00E9475038C2F82
:1019700003C00E94750380E0DF91CF9108951F930B
:10198000CF93DF93C0E5D3E060E088890E94E40252
:1019900080EA0E94F90380E00E94F903182F61E0B9
:1019A00088890E94E402812FDF91CF911F910895D1
:1019B0000F931F93CF93DF9300D000D0CDB7DEB746
:1019C000182F10925003109251031092520310924C
:1019D00053031092540344E0BE016F5F7F4F0E9497
:1019E000D3098A819981482F50E065E05595479544
:1019F0006A95E1F728E0929F400D511D1124052EB4
:101A0000000C660B770B4093510350935203609385
:101A100053037093540383FF29C092E0440F551F72
:101A2000661F771F9A95D1F78370480F511D611D6E
:101A3000711D762F652F542F44278B81480F511D20
:101A4000611D711D762F652F542F44278C81480FFF
:101A5000511D611D711D40935103509352036093BA
:101A600053037093540381E0809350038FEF810FF1
:101A70000E940D0A082F84E0810F0E940D0A482F52
:101A800003FF04C081E080935E0302C010925E03F6
:101A90004F704093550366E573E085E0810F0E9427
:101AA000D3090F900F900F900F90DF91CF911F915E
:101AB0000F9108954F925F926F927F92EF92FF92F3
:101AC0000F931F93CF93DF93CDB7DEB7A1970FB6D8
:101AD000F894DEBF0FBECDBF7C01FA01CB0119A285
:101AE000223008F42AE08E010F5D1F4F422E512C48
:101AF000612C712CBF01A30192010E942814F901ED
:101B0000CA01015011096A3014F4605D01C0695CBA
:101B1000D8016C93232B242B252B61F7B801C70127
:101B20000E94E40DA1960FB6F894DEBF0FBECDBFA4
:101B3000DF91CF911F910F91FF90EF907F906F9069
:101B40005F904F9008956BE072E00C94E40D0F935A
:101B50001F93CF93DF93EC010E94E40D8C01CE0123
:101B60000E94A30D800F911FDF91CF911F910F91C4
:101B70000895CF92DF92EF92FF920F931F93CF932E
:101B8000DF936C017A018B01C0E0D0E0CE15DF0558
:101B900089F0D8016D918D01D601ED91FC910190F4
:101BA000F081E02DC6010995892B11F47E0102C058
:101BB0002196ECCFC701DF91CF911F910F91FF903C
:101BC000EF90DF90CF9008956115710579F0FB01DA
:101BD00001900020E9F73197AF01461B570BDC015C
:101BE000ED91FC910280F381E02D099480E090E07A
:101BF000089583E391E0909332038093310381E36E
:101C000093E00E947A04809181039091820300976F
:101C100011F00E94F91480917E0387FD03C060E0FB
:101C20000C9414030895CF93DF9300D01F92CDB787
:101C3000DEB7789484B5826084BD84B5816084BD4C
:101C400085B5826085BD85B5816085BD80916E005A
:101C5000816080936E00109281008091810082608B
:101C600080938100809181008160809381008091C8
:101C700080008160809380008091B10084608093B7
:101C8000B1008091B00081608093B00080917A00B3
:101C9000846080937A0080917A00826080937A00D9
:101CA00080917A00816080937A0080917A008068C8
:101CB00080937A001092C100E091A402F091A502F5
:101CC00082E08083E091A002F091A1021082E09175
:101CD000A202F091A30280E180831092AC02E09115
:101CE000A802F091A90286E08083E091A602F0911B
:101CF000A702808180618083E091A602F091A70213
:101D0000808188608083E091A602F091A7028081A3
:101D100080688083E091A602F091A70280818F7D88
:101D2000808310924C0310924B0310924A0310923E
:101D3000490310924803109247038DE991E0909374
:101D40004E0380934D0390913D03963108F057C0A8
:101D50002DEB30E030934803209347032BE931E02B
:101D600030934A03209349032CE231E030934C0333
:101D700020934B0320916800983050F031E09E3062
:101D800008F430E081E001C0880F3A95EAF701C01D
:101D900084E0822B80936800983038F09E3040F0C9
:101DA000963148F020E030E008C02DE630E005C074
:101DB0002BE630E002C02CE630E030934503209360
:101DC0004403983030F481E001C0880F9A95EAF717
:101DD0000EC0292F30E09E3018F42850310902C07F
:101DE0002E50310981E001C0880F2A95EAF78093CF
:101DF000460380914D0390914E030197F1F7809136
:101E00004B0390914C03892B21F1809163029091B7
:101E1000640223E081339207E1F0009711F00E9401
:101E20007A0480914F038E7F80934F031092620259
:101E30001092610281E393E09093640280936302C5
:101E4000E0914403F0914503908180914603892BF2
:101E500080838BE891E00E94080A2AE045E150E087
:101E600060E070E084E992E00E945A0D84E992E01B
:101E70000E94A30D61E08DE00E94140361E08DE0FB
:101E80000E94E40265E971E084E992E00E94A70DF6
:101E900080917E0387FD08C061E00E94140360E02A
:101EA00080917E030E94E40281E0809379030E9486
:101EB000BC0A0E949206609175037091760380912E
:101EC00077039091780300E220E040E00E94DC0577
:101ED00063EA71E084E992E00E94A70DF1E1CF2E60
:101EE000F1E0DF2E10E0F6018081833609F453C063
:101EF00062E00E94140383EB91E00E94080AF6015D
:101F0000408150E060E070E02AE084E992E00E94C5
:101F10005A0D88EB91E00E94080A812F0E94C604A6
:101F2000482F50E060E070E02AE084E992E00E94EF
:101F30005A0D812F0E94C604811112C06091710355
:101F4000709172038091730390917403E8E0EE2E18
:101F500000E020E040E00E941A066BE571E011C04D
:101F600060916503709166038091670390916803A7
:101F700058E0E52E00E020E040E00E941A066CEBFD
:101F800071E084E992E00E94A70D6AEF70E080E0C2
:101F900090E00E947503FFEFCF1ADF0A1F5F163033
:101FA00009F0A1CF67EC71E084E992E00E94A70DEF
:101FB00089E491E00E94080A0E94900488E00E944F
:101FC000D40B8823B1F061E671E084E992E00E94CD
:101FD000A70D6091650370916603809167039091EE
:101FE000680330E1E32E08E020E040E00E941A069A
:101FF000DFCF6091710370917203809173039091B0
:10200000740320E1E22E08E020E040E00E941A067E
:102010006EE571E084E992E00E94A70D80E00E94E5
:10202000840C81E00E94840C6AE070E080E090E023
:102030000E94750380E80E94C20B882391F06AE039
:1020400070E080E090E00E9475036AE070E080E05C
:1020500090E00E94750380E80E94C20B882369F01B
:1020600017C025E130E040E050E060E080E00E94F1
:10207000580A80E00E94C20BE2CF25E130E040E048
:1020800050E060E088E00E94580A80E00E94C20BA5
:102090006AE070E080E090E00E94750368ED71E016
:1020A00084E992E00E94A70D6CEF71E084E992E070
:1020B0000E94A70D6DE072E081E393E00E94A70DFE
:1020C00060ED77E080E090E00E947503609161032D
:1020D00070916203809163039091640300E220E0B9
:1020E00040E00E94DC0538E0F32ECE0101966C0141
:1020F00043E0B42EB80E89E792E018E0180F0DC047
:102100001092930280919102909192020196909385
:102110009202809391020E944C070E94BF0C837030
:1021200031F10E94BF0C80FF06C081E60E94D80CEE
:1021300040E061E007C081FFE3CF81E70E94D80C57
:1021400040E062E08CE20E942A0A8091550380936D
:102150009302A6E5B3E0E5E8F2E090E09F012558A0
:1021600032402817390774F62D912193F7CF8091CB
:1021700090028823C9F01092900280918102909180
:102180008202A0918302B091840285319105A1055C
:10219000B10571F4A5E8B2E0E9E7F2E081918D9331
:1021A0001E13FCCF0E944C0724E2922E01E08AC04D
:1021B00084319105A105B105B0F099E7892E92E02F
:1021C000992EF40141914F0150E060E070E02AE067
:1021D00081E393E00E945A0D1811F3CF81E393E05D
:1021E0000E94A30DE1CF20918E0230918F022F5FCC
:1021F0003F4F30938F0220938E0210925003806ADB
:1022000092608093510390935203A0935303B09331
:102210005403F092550310925E03E9E7F2E0A6E55D
:10222000B3E081918D9322E0E138F207D1F7812C60
:10223000912CB0E3EB2E00E4A02E80E5582EE9822D
:10224000AA825B823601F30101913F01802F0E9437
:102250000D0A982F987083FD02C00F5F04C0B6105E
:10226000F2CF00E092E0FFEF8F1A9F0A923029F43C
:1022700022E38216910419F797CF82E3881691041E
:1022800009F492CF802F0E94950A015048E068E03F
:10229000802F0E942A0AA2E38A2E912C802F0E946E
:1022A0000D0A83FF81CF91E0891A9108B9F77CCF9D
:1022B00084E992E00E949E00843259F4809369027E
:1022C0000093680284E992E00E94C000892B81F7A4
:1022D00018C0909269028A3029F40E940207009384
:1022E0009002F0CFE0916802AE2FB0E0A759BD4F49
:1022F0008C93EF5FE0936802F0E0E759FD4F1082A6
:10230000E1CFF4E29F2E01E081E393E00E9400021E
:10231000892B19F184E992E00E949E00843229F40D
:102320008093690200936802EFCF909269028A302D
:1023300029F40E94020700939002E6CFE091680220
:10234000AE2FB0E0A759BD4F8C93EF5FE0936802CA
:10235000F0E0E759FD4F1082D7CF809167028930B6
:1023600009F0B1C080916602853079F5809109014C
:10237000909108018130D9F4992309F4F7C0609154
:102380007503709176038091770390917803E0E272
:10239000EE2E00E021E040E00E941A066091690301
:1023A00070916A0380916B0390916C0362C08230DC
:1023B000C1F4992309F4DAC01092080110928D0239
:1023C00080918E0290918F026BC0863009F0CEC052
:1023D0008091090190910801813089F1823009F4DE
:1023E00051C08730D1F480910801882309F4BEC020
:1023F0004FE150E060E070E080E00E9432056091C3
:10240000610370916203809163039091640300E221
:1024100020E040E00E94DC05A7C0809108018823ED
:1024200009F4A4C0109292021092910210928F02AD
:1024300010928E02109207011092060184C0992317
:1024400009F494C0609175037091760380917703CD
:102450009091780350E2E52E00E021E040E00E94F8
:102460001A066091650370916603809167039091ED
:10247000680321E040E00E941A06109208011092C1
:102480008D0274C0992321F01092080110928D02E0
:1024900080918E0290918F028F3F91050CF066C063
:1024A000019690938F0280938E0280930701809112
:1024B0009102809306014FE150E060E070E080E01F
:1024C0000E94320553C0909109018FEF890F873028
:1024D00008F44CC080910801983059F5882309F41C
:1024E00045C060916D0370916E0380916F03909170
:1024F000700340E2E42E00E021E040E00E941A0672
:102500006091650370916603809167039091680301
:1025100021E040E00E941A0660916103709162031D
:10252000809163039091640321E040E00E941A06C9
:102530001BC08823D9F0109292021092910210923F
:102540008F0210928E0260916103709162038091FC
:1025500063039091640300E220E040E00E94DC0508
:10256000109265020E941D05109208010E946001F0
:10257000D4CDCF93109297021092960288EE93E0FA
:10258000A0E0B0E08093980290939902A0939A0201
:10259000B0939B0283E291E0909395028093940222
:1025A00085EC90E09093A1028093A00284EC90E0EF
:1025B0009093A3028093A20280EC90E09093A502F6
:1025C0008093A40281EC90E09093A7028093A602EE
:1025D00082EC90E09093A9028093A80286EC90E0B0
:1025E0009093AB028093AA021092AD021092AE02B9
:1025F0001092AF021092B0021092790310928003F1
:102600001092860310928703109288031092890318
:1026100080E690E090937D0380937C030E94641495
:102620009093820380938103009761F020E6FC0180
:1026300011922A95E9F780E290E090937B038093D2
:102640007A0308C010927D0310927C0310927B03E2
:1026500010927A0388E080937E0380917903882327
:1026600041F061E088E00E94140360E088E00E948D
:10267000E402E8EDF0E0E491F0E0EE0FFF1FEA5332
:10268000FF4F8591949190938B0380938A03EAEB9B
:10269000F0E0E491E0938C0383E080937F03C1E05A
:1026A000C09383031092840382E08093850380E0CB
:1026B00090E0A9E1B0E08093750390937603A09336
:1026C0007703B093780380E099E1A0E0B0E08093D5
:1026D000710390937203A0937303B093740389E121
:1026E00090E0A0E0B0E080936D0390936E03A09320
:1026F0006F03B093700389E199E1A9E1B0E08093A1
:10270000690390936A03A0936B03B0936C0380E01A
:1027100099E1A9E1B0E08093650390936603A093EB
:102720006703B093680310926103109262031092E2
:1027300063031092640389E08093600361E00E9468
:10274000140361E0809160030E94E402109234035C
:102750001092330388EE93E0A0E0B0E0809335035D
:1027600090933603A0933703B093380383E391E04B
:1027700090933203809331031092480310924703E1
:1027800010924A031092490310924C0310924B038B
:1027900010924E0310924D0380914F038E7F8D7FD8
:1027A00080934F0386958170682F6C2783E00E9489
:1027B000E40261E083E00E941403E5EBF0E0E491C1
:1027C000E0934103E3EDF0E0E491F0E0EE0FFF1F52
:1027D000EA53FF4F85919491909343038093420372
:1027E00060E082E00E94140380914F0381FD04C0E9
:1027F00061E082E00E94E40282E080933D03E4EB2A
:10280000F0E0E491E0933E03E2EDF0E0E491F0E0EB
:10281000EE0FFF1FE855FF4F859194919093400371
:1028200080933F03CF91089597FB072E16F40094F1
:1028300007D077FD09D00E94501407FC05D03EF464
:10284000909581959F4F0895709561957F4F08955C
:10285000A1E21A2EAA1BBB1BFD010DC0AA1FBB1FA4
:10286000EE1FFF1FA217B307E407F50720F0A21B16
:10287000B30BE40BF50B661F771F881F991F1A9483
:1028800069F760957095809590959B01AC01BD01AD
:10289000CF010895EE0FFF1F0590F491E02D0994EC
:1028A000AA1BBB1B51E107C0AA1FBB1FA617B70776
:1028B00010F0A61BB70B881F991F5A95A9F7809592
:1028C0009095BC01CD010895CF93DF93823091059F
:1028D00010F482E090E0E0919103F091920320E007
:1028E00030E0C0E0D0E0309711F1408151814817CD
:1028F0005907C0F04817590761F4828193812097E6
:1029000019F09B838A832BC0909392038093910349
:1029100026C02115310519F04217530718F49A0102
:10292000BE01DF01EF010280F381E02DDCCF211534
:10293000310509F1281B390B2430310590F412962A
:102940008D919C9113976115710521F0FB01938383
:10295000828304C09093920380939103FD01329689
:1029600044C0FD01E20FF31F81939193225031097E
:102970002D933C933AC020918F0330919003232BE9
:1029800041F420910C0130910D013093900320937C
:102990008F0320910A0130910B012115310541F47B
:1029A0002DB73EB740910E0150910F01241B350BFE
:1029B000E0918F03F0919003E217F307A0F42E1B30
:1029C0003F0B2817390778F0AC014E5F5F4F241793
:1029D000350748F04E0F5F1F5093900340938F03CD
:1029E0008193919302C0E0E0F0E0CF01DF91CF91BD
:1029F00008950F931F93CF93DF93009709F48CC032
:102A0000FC0132971382128200919103109192037C
:102A10000115110581F420813181820F931F2091CE
:102A20008F03309190032817390779F5F0939003BD
:102A3000E0938F0371C0D80140E050E0AE17BF07AC
:102A400050F412962D913C911397AD01211531054B
:102A500009F1D901F3CF9D01DA013383228360812B
:102A60007181860F971F8217930769F4EC01288103
:102A70003981260F371F2E5F3F4F318320838A8194
:102A80009B8193838283452B29F4F0939203E093F7
:102A9000910342C01396FC93EE931297ED01499176
:102AA00059919E01240F351FE217F30771F48081BD
:102AB0009181840F951F029611969C938E9382812B
:102AC000938113969C938E931297E0E0F0E0D801E7
:102AD00012968D919C911397009719F0F8018C0133
:102AE000F6CF8D919C9198012E5F3F4F820F931FDF
:102AF00020918F03309190032817390769F430979C
:102B000029F4109292031092910302C01382128250
:102B10001093900300938F03DF91CF911F910F913A
:102B2000089581E090E0F8940C94E815FC01882762
:102B30009927E89421912032E9F3293010F02E30C2
:102B4000C8F32B3241F02D3239F4689404C00E944E
:102B5000E015820F911D219120532A30C0F31EF4FD
:102B6000909581959F4F08954DE853E00E94B915C7
:102B70000895FA01A191B081009719F41097E1F03E
:102B8000CD01DC01CD010D90002011F4C00113C076
:102B9000FB012191222319F02015D9F7F3CFFB0176
:102BA0002191201519F41E92119606C02223C1F717
:102BB0000D900020A1F7D001FA01A193B0830895F0
:102BC0007AE0979F902D879F802D910D1124089575
:102BD00010E0C3E7D0E004C0FE010E944A14219631
:0A2BE000C437D107C9F7F894FFCFFE
:102BEA0005000000000000000108000093038000B7
:102BFA00086363636363631F00000015000000003D
:102C0A00000000F700B90DC0009E00B2003E0100AE
:102C1A00000000AC01B90D000218029301AB0102D9
:102C2A00000300091920082C0043414E2D42555338
:102C3A0020537461727475703A2000202D204F4B16
:102C4A00004E6F7420476F6F642C20636865636B56
:102C5A0020796F75722070696E2320616E6420631B
:102C6A006F6E6E656374696F6E73004E6F64652074
:102C7A0049443A20004E656F706978656C20546546
:102C8A007374002D2D2D2D2D496E707574732D2D95
:102C9A002D2D0050696E2300203D2000202D20504C
:102CAA00524553534544002D2D2D2D2D43616E2041
:102CBA004275732D2D2D2D0043414E2D4255532023
:102CCA00436F6D6D756E69636174696F6E3A204307
:102CDA006F6D6D616E64204E6F6465002D2D2D2D14
:0E2CEA002D584265652D2D2D2D2D000D0A0053
:00000001FF
