:100000000C9406010C9455160C947C160C94A316B3
:100010000C94CA160C942E010C942E010C94F1161B
:100020000C942E010C942E010C94D51E0C94671D7B
:100030000C942E010C942E010C942E010C942E0184
:100040000C942E010C942E010C942E010C942E0174
:100050000C942E010C942E010C942E010C94181764
:100060000C942E010C942E010C942E010C942E0154
:100070000C942E010C942E010C942E010C942E0144
:100080000C942E010C942E010C942E010C942E0134
:100090000C942E010C942E010C942E010C942E0124
:1000A0000C942E010C942E010C942E0180048404D7
:1000B0004A044D045004540458045B045F04620471
:1000C000650468046B046F04730477047A044C18A5
:1000D0004F183E18421848187018701870185318A6
:1000E00057185B186118651870186B180706050417
:1000F0000100080A0B0C0D090000000200090F00A6
:1001000000030401000C00000000000000000000DB
:1001100000000000000000040802011040804010B0
:10012000204080408008020401804020100201101D
:10013000801020404020040404040403040502024B
:100140000202040302020202060606060606040470
:100150000202020404000000002300260029002CF3
:10016000002F0000000000250028002B002E003189
:100170000000000000240027002A002D00300008A5
:100180000B0002020201000904000001020200004B
:1001900005240010010524010101042402060524A0
:1001A0000600010705810310004009040100020A4E
:1001B000000000070502024000000705830240001E
:1001C0000012010002EF02014041233680000101CC
:1001D00002030112010002000000404123368000AA
:1001E000010102030141726475696E6F204C4C433A
:1001F0000041726475696E6F204C656F6E61726448
:100200006F00040309047E15F019001611241FBEA7
:10021000CFEFDAE0DEBFCDBF12E0A0E0B1E0E0EB6F
:10022000F4E402C005900D92AC33B107D9F723E096
:10023000ACE3B2E001C01D92AA31B207E1F712E0CF
:10024000CAE0D2E004C02297FE010E949220C6308C
:10025000D107C9F70E940E1A0C944B220C9400008F
:10026000CF93DF93EC0188859985009711F00E9468
:1002700048218D8187FD05C060E0DF91CF910C940E
:100280007118DF91CF910895CF93DF93EC018D81A9
:1002900087FD07C061E00E94711860E08D810E94B7
:1002A000AA1881E08883DF91CF910895EF92FF92A1
:1002B0000F931F93CF93DF93EC017B018885998582
:1002C000009711F00E9448218701000F111F0E0DA9
:1002D0001F1D1C830B83C8010E94B020998788874B
:1002E000009741F0A80160E070E00E943422FA8299
:1002F000E98204C01C821B821A821982DF91CF918D
:100300001F910F91FF90EF900895FC01668360FFAD
:1003100004C081E08287138611C062FF06C081E0BD
:10032000828782E0838714860895128663FF04C063
:1003300082E0838781E003C081E0838782E0848755
:100340000895CF92DF92EF92FF920F931F93CF9376
:10035000DF93CDB7DEB729970FB6F894DEBF0FBE97
:10036000CDBF8C01DC0118968D919C911997892B3A
:1003700009F49BC00E946217F801C584D684E78403
:10038000F0886C197D098E099F096233710581051A
:10039000910580F3F894838194819A838983A08561
:1003A000B1857D01EFEFEE1AFE0A8C918987D801A5
:1003B00016969C91169751960D90BC91A02DF80120
:1003C000838991FF2EC09C91982B98879C91809552
:1003D00089238F838F818E8388E08D8358856F81F9
:1003E00049853D812E8189819A81F7015C9347FD82
:1003F000252F3A952C93262F39F0441F00C000007A
:100400006C93000000C0F2CF38E041916C93000083
:10041000019761F7F801B28BA18B49873D832E8349
:1004200038C09C91982B98879C91809589238F83C5
:100430008F818C8388E08B8358856F8149853B81D0
:100440002C8189819A81F7015C9347FD252F00C09B
:1004500000C02C9300C000C000C000C000C06C935E
:100460000000262F3A9541F0441F000000C000C054
:1004700000C000C000C0E8CF38E0419100C06C93DC
:1004800000C0019709F7F801B28BA18B49873B8324
:100490002C839A83898378940E946217D8011D96D1
:1004A0006D937D938D939C93509729960FB6F894F6
:1004B000DEBF0FBECDBFDF91CF911F910F91FF9097
:1004C000EF90DF90CF9008951F93CF93DF93EC01CF
:1004D000162F8881882331F08D8187FD03C060E06D
:1004E0000E9471181D838881882341F061E0812F6B
:1004F0000E94711860E0812F0E94AA18812F90E05D
:10050000FC01EA5CFE4FE491F0E0EE0FFF1FED59B5
:10051000FE4F259134913A8B298BFC01E95EFE4F09
:1005200084918B8BDF91CF911F9108950F931F932F
:10053000CF93DF9300D0CDB7DEB78C01FC011082E2
:10054000178211861086158616861786108A2A83CA
:1005500049830E9456014981642FC8010E946402A8
:100560002A81622FC8010F900F90DF91CF911F91C8
:100570000F910C948501CF92DF92EF92FF920F932F
:100580001F93CF93DF93FC018181928168177907D4
:1005900088F5CA01AA27BB27082FC32ED42EE52E23
:1005A000FF241C2DD22FC781CC2361F08C9FC0016A
:1005B0001124092FCC9E600111241D2D2C9F900128
:1005C0001124D32F9B01220F331F260F371F808545
:1005D0009185820F931F2285DC01A20FB11D0C9320
:1005E0002385DC01A20FB11D1C932485FC01E20FC1
:1005F000F11DD083DF91CF911F910F91FF90EF906C
:10060000DF90CF900895962F50E060E070E0592B76
:10061000682BCB01BA0108958EBD00000DB407FE12
:10062000FDCF8EB50895CF93DF93EC0160E088890C
:100630000E94AA1880EC0E940C0361E088890E9445
:10064000AA186AE070E080E090E0DF91CF910C940E
:1006500085171F93CF93DF93EC01162F60E08889F5
:100660000E94AA1883E00E940C03812F0E940C03B1
:1006700080E00E940C03182F61E088890E94AA186C
:10068000812FDF91CF911F910895CF92DF92EF924A
:10069000FF920F931F93CF93DF9300D0CDB7DEB7B8
:1006A0008C01F62EE22E60E0FC01808949835A839A
:1006B0000E94AA1883E00E940C038F2D0E940C0355
:1006C0004981C42E5A81D52EF12CFE1459F0F8E040
:1006D000FF1641F080E00E940C03F60181936F0148
:1006E000F394F3CF61E0F80180890F900F90DF91D0
:1006F000CF911F910F91FF90EF90DF90CF900C94CE
:10070000AA18EF92FF921F93CF93DF931F92CDB75A
:10071000DEB77C01162F60E0FC01808949830E94CE
:10072000AA1882E00E940C03812F0E940C034981C9
:10073000842F0E940C0361E0F70180890F90DF9104
:10074000CF911F91FF90EF900C94AA18CF92DF9257
:10075000EF92FF920F931F93CF93DF9300D0CDB70B
:10076000DEB78C01E62EF22E60E0FC018089498321
:100770005A830E94AA1882E00E940C038E2D0E94C8
:100780000C034981E42EC42E5A81D52E8C2D8E194E
:100790008F1530F4F60181916F010E940C03F6CFA2
:1007A00061E0F80180890F900F90DF91CF911F9148
:1007B0000F91FF90EF90DF90CF900C94AA18EF92DA
:1007C000FF921F93CF93DF9300D0CDB7DEB77C01AC
:1007D000162F60E0FC0180892A8349830E94AA18B1
:1007E00085E00E940C03812F0E940C034981842F15
:1007F0000E940C032A81822F0E940C0361E0F70102
:1008000080890F900F90DF91CF911F91FF90EF9013
:100810000C94AA181F93CF93DF93EC0160E08889B2
:100820000E94AA1880EA0E940C0380E00E940C0338
:10083000182F61E088890E94AA18812FDF91CF913B
:100840001F9108951F93CF93DF93EC01162F262F4E
:1008500040EE6FE00E94DF036FE0CE010E942903AB
:10086000982F907E81E0911301C080E0DF91CF91BD
:100870001F9108950F931F93CF93DF93EC01462FA1
:1008800050E0FA013197E131F105C0F5EA5AFF4F26
:100890000C94902017E80FEF05C017E00AEB02C098
:1008A00015E801EF4FE033C017E00EEB49E02FC031
:1008B00017E80FEF02C017E80AEF47E028C017E873
:1008C0000FEF0BC017E00EEB08C017E00DEA05C0F4
:1008D00017E80AEF02C016E800EF43E018C017E877
:1008E0000AEF41E014C015E801EF41E410C016E83A
:1008F00000EF02C012E800ED40E009C081E016C040
:1009000017E80FEF4FE303C017E80FEF4FE16AE27C
:10091000CE010E948103402F69E2CE010E94810333
:10092000412F68E2CE010E94810380E0DF91CF91E8
:100930001F910F9108951F93CF93DF93EC0110E364
:1009400040E0612FCE010E94810360E1610F40E031
:10095000CE010E94810360E2610F40E0CE010E945F
:1009600081031F5F1E3361F740E060E6CE010E9405
:10097000810340E060E7CE01DF91CF911F910C949D
:1009800081030F931F93CF93DF93EC01062F0E94F7
:10099000130360E8CE010E942204182F6AE070E081
:1009A00080E090E011110CC00E948517602FCE01ED
:1009B0000E943A04882339F06AE070E080E090E019
:1009C0000E94851728C06AE070E080E090E00E94F5
:1009D0008517CE010E949B0443E06BE2CE010E948A
:1009E000810324E044E660E6CE010E94DF0320E0BC
:1009F00040E660E7CE010E94DF0360E0CE010E9486
:100A00002204C82F8823C1F26AE070E080E090E001
:100A10000E9485171C2F812FDF91CF911F910F917D
:100A200008950F931F93CF93DF9300D000D0CDB7DD
:100A3000DEB74130B1F40C831B83890122273327B1
:100A4000502F5C71402F437078E0579F400D112468
:100A500048604A8355E0169507955A95E1F7098352
:100A60000DC0A80123E0569547952A95E1F74983E3
:100A70000295000F007E0A831C821B8224E0AE01D7
:100A80004F5F5F4F0E94A6030F900F900F900F9043
:100A9000DF91CF911F910F910895EF92FF920F93E5
:100AA0001F93CF93DF9300D000D0CDB7DEB77A018C
:100AB0008901FA011082F9011082118212821382D7
:100AC00024E0AE014F5F5F4F0E9445032A813981C8
:100AD000822F90E045E0959587954A95E1F7F8E0FB
:100AE0003F9F800D911D1124AA2797FDA095BA2F35
:100AF000F80180839183A283B38323FF25C062E042
:100B0000880F991FAA1FBB1F6A95D1F72370820F08
:100B1000911DA11DB11DBA2FA92F982F88272B81B8
:100B2000820F911DA11DB11DBA2FA92F982F8827C3
:100B30002C81820F911DA11DB11D80839183A28301
:100B4000B38381E0F70180830F900F900F900F9097
:100B5000DF91CF911F910F91FF90EF900895FF9239
:100B60000F931F93CF93DF93EC01F62EAC014A5FF6
:100B70005F4F65E06F0D2D810E94A6038E85813049
:100B800019F48D8180648D8364E06F0D4D81CE01F9
:100B90000E94810309811A812B813C8148816F2D3C
:100BA000CE010E941105DF91CF911F910F91FF900F
:100BB00008950F931F93CF93DF93EC01162F9C01A1
:100BC0002F5F3F4FAC010E944D056FEF610FCE01CB
:100BD0000E942903082F64E0610FCE010E942903BF
:100BE000282F8D8303FF03C081E08E8701C01E86FE
:100BF0002F702D83AE014A5F5F4F65E0610FCE011C
:100C0000DF91CF911F910F910C944503615028E023
:100C100048E00C94DF03FF920F931F93CF93DF9371
:100C200000D01F92CDB7DEB78B0120E3298320E4EB
:100C30002A8320E52B83FB011082FE01E40FF11DC6
:100C4000F1806F2D0E942903982F987083FD04C0B6
:100C5000F394F801F08201C092E0892F0F900F9079
:100C60000F90DF91CF911F910F91FF900895CF9337
:100C7000DF93EC01862F688B61E00E94711861E0C0
:100C80008889DF91CF910C94AA18CF93DF9300D07D
:100C90001F92CDB7DEB76B8389839A830E942308A6
:100CA0006B8189819A810E94C10491E0811101C008
:100CB00090E0892F0F900F900F90DF91CF910895C2
:100CC0008F929F92BF92CF92DF92EF92FF920F93FB
:100CD0001F93CF93DF931F92CDB7DEB74C01B62E93
:100CE000680179016AE070E080E090E049830E9449
:100CF000851760E8C4010E942204182F49818823C7
:100D000029F06AE070E080E090E01AC0B11004C001
:100D10009701860160E206C081E0B81206C0970123
:100D2000860164E2C4010E94110560E0C4010E94D2
:100D30002204182F6AE070E080E090E0112321F097
:100D40000E948517812F03C00E94851780E00F90B5
:100D5000DF91CF911F910F91FF90EF90DF90CF9097
:100D6000BF909F908F900895AF92BF92CF92DF92E5
:100D7000EF92FF920F931F93CF93DF9300D0CDB7E5
:100D8000DEB75C01562F680179016AE070E080E00F
:100D900090E04A8359830E94851760E8C5010E944C
:100DA0002204182F4A815981882329F06AE070E0D3
:100DB00080E090E031C05230B1F040F4552379F03A
:100DC0005130F9F49701860164E018C0543099F06D
:100DD00070F05530B1F49701860168E10FC09701BA
:100DE000860160E00BC09701860168E007C09701AB
:100DF000860160E103C09701860164E1C5010E949C
:100E0000110560E0C5010E942204182F6AE070E01D
:100E100080E090E0112321F00E948517812F03C00C
:100E20000E94851780E00F900F90DF91CF911F9166
:100E30000F91FF90EF90DF90CF90BF90AF9008950B
:100E4000CF92DF92EF920F931F93CF93DF93FC012A
:100E500020834183528363837483093008F008E060
:100E60000583E686D60180E090E010E080179107C8
:100E70003CF42D91EF01C80FD91F2E830196F6CFB8
:100E800080E0DF91CF911F910F91EF90DF90CF9095
:100E90000895CF92DF92EF92FF920F936701E12CBA
:100EA0000E9420070F91FF90EF90DF90CF90089560
:100EB000DF92EF92FF920F931F93CF93DF931F92D6
:100EC000CDB7DEB78C01D62EE12CF12C4D2DBE0115
:100ED0006F5F7F4FC8010E940B069FEFE91AF90A66
:100EE000823029F482E3E816F10481F72BC092E303
:100EF000E916F10439F16981C8010E94AF056981E1
:100F0000C8010E940606E12CF12C8FEFE81AF80ABE
:100F100069816150C8010E942903D82E61E070E008
:100F200080E090E00E948517D3FE06C092E3E916A8
:100F3000F10459F787E007C082E3E816F104D1F322
:100F400080E001C086E00F90DF91CF911F910F915B
:100F5000FF90EF90DF900895CF92EF92FF920F9362
:100F6000CF93DF93EC010E9449076C2DCE01DF91F6
:100F7000CF910F91FF90EF90CF900C945807CF93A3
:100F8000DF93EC010E940A0480FF07C061E6CE01F6
:100F90000E94D90520E041E008C081FF0CC061E754
:100FA000CE010E94D90520E042E06CE2CE010E9411
:100FB000DF0380E001C084E0DF91CF910895EF92DC
:100FC000FF920F931F93CF93DF9300D0CDB7DEB77F
:100FD0007C018B0149835A830E94BF0749815A8152
:100FE000811118C0D70115969C91F8019083FA01E0
:100FF00020E030E0D70115964C9150E024173507DA
:101000005CF4D701A20FB31F16969C9191932F5FAA
:101010003F4FF0CFF80110820F900F90DF91CF91EA
:101020001F910F91FF90EF9008950E940A04837022
:1010300011F083E0089584E00895FC0161817281DC
:10104000838194810895CF93CFB7F89480913C0227
:10105000811127C0E7E4F1E08491E8E2F1E09491A6
:10106000E82FF0E0EE0FFF1FEF58FE4FA591B4916F
:101070008C91892321F461E081E10E94AA1861E04A
:1010800081E10E9471188CB580618CBD8CB5806443
:101090008CBD61E08FE00E94711861E080E10E94E8
:1010A000711880913C028F5F80933C02CFBFCF913B
:1010B000089581E08093580208958091760290917E
:1010C0007702A0917802B09179020697A105B10547
:1010D00048F460918E0270918F02809190029091FD
:1010E0009102089560918A0270918B0280918C0226
:1010F00090918D0208958F929F92AF92BF92CF925E
:10110000EF92FF920F931F93CF93DF93CDB7DEB78C
:1011100028970FB6F894DEBF0FBECDBF64E571E02F
:101120008FEA92E00E94441A23E330E040E050E06E
:1011300061E070E080E090E00E94971F809076026E
:1011400090907702A0907802B090790285E0880CA8
:10115000991CAA1CBB1C8A95D1F7009124011091FF
:1011600025012091260130912701802A912AA22A67
:10117000B32A28E0ECE4F1E0DE01119601900D9233
:101180002A95E1F74091430250E0469F9001479F26
:10119000300D569F300D1124B901882777FD8095B9
:1011A000982F0E94851792E0C92ECE0101967C01EE
:1011B00008E020E0B501A40181E692E00E94AC07BE
:1011C00028960FB6F894DEBF0FBECDBFDF91CF914A
:1011D0001F910F91FF90EF90CF90BF90AF909F9095
:1011E0008F900895813049F460918E0270918F0242
:1011F00080919002909191020895823049F460911B
:101200008A0270918B0280918C0290918D020895D8
:10121000833049F460917E0270917F028091800258
:10122000909181020895843049F460918602709112
:10123000870280918802909189020895853049F44F
:101240006091820270918302809184029091850264
:10125000089560917A0270917B0280917C02909156
:101260007D0208950F931F9300918E0210918F02BB
:1012700020919002309191026017710782079307C5
:10128000D1F100918A0210918B0220918C02309151
:101290008D02601771078207930779F100917E0232
:1012A00010917F02209180023091810260177107B6
:1012B0008207930721F10091860210918702209105
:1012C000880230918902601771078207930779F0CD
:1012D0000091820210918302209184023091850254
:1012E000601771078207930721F485E009C084E045
:1012F00007C080E005C081E003C082E001C083E058
:101300001F910F910895882339F0815090912B01FE
:10131000899F802D1124089580E00895882321F06D
:10132000880F880F880F089580912C0108955F928F
:101330006F927F928F929F92AF92BF92CF92DF92E5
:10134000EF92FF920F931F93CF93DF931F92CDB72E
:10135000DEB74B015C01622E7E2C49830E9432096C
:101360008093190184E080931A014981411101C0E1
:101370004AE0611002C06624639410E0C42ED12CB0
:10138000E12CF12C81E0861510F0502E1BC0502E60
:101390005714D8F720917A0230917B0240917C0259
:1013A00050917D02652D70E082E992E00E94BB02BF
:1013B00082E992E00E94A101C701B6010E9485174F
:1013C0005394E6CF571490F4652D70E0A501940175
:1013D00082E992E00E94BB0282E992E00E94A101B0
:1013E000C701B6010E9485175394ECCF1F5F1611F9
:1013F000C9CF0F90DF91CF911F910F91FF90EF9088
:10140000DF90CF90BF90AF909F908F907F906F9024
:101410005F9008959F92AF92BF92CF92DF92EF922A
:10142000FF920F931F93CF93DF936B017C01942E58
:10143000A22E0E9432098093190181E080931A0143
:10144000911002C02AE0922EB12CC0E0D0E010E052
:10145000BE016A0D7B1D6017710740F4A70196015C
:1014600082E992E00E94BB022196F2CF82E992E0EB
:101470000E94A101692D70E080E090E0DF91CF91A2
:101480001F910F91FF90EF90DF90CF90BF90AF90A2
:101490009F900C9485170F9386E08093190185E047
:1014A00080931A016091820270918302809184027C
:1014B0009091850200912C0120E044EF0E940A0ADD
:1014C00064E670E080E090E00E94851760918E02F3
:1014D00070918F02809190029091910200912C0165
:1014E00020E044EF0E940A0A64E670E080E090E0A9
:1014F0000E94851760918A0270918B0280918C0204
:1015000090918D0200912C0120E044EF0E940A0A84
:1015100064E670E080E090E00E94851760917E02B2
:1015200070917F02809180029091810200912C0144
:1015300020E044EF0E940A0A64E670E080E090E058
:101540000E948517609186027091870280918802BF
:101550009091890200912C0120E044EF0E940A0A38
:1015600064E670E080E090E00E94851760917A0266
:1015700070917B0280917C0290917D0200912C0100
:1015800020E044EF0E940A0A0F9108956F927F9223
:101590008F929F92AF92BF92CF92DF92EF92FF9283
:1015A0000F931F93CF93DF931F92CDB7DEB74B01FD
:1015B0005C01142FF02E29830E94320980931901B7
:1015C00083E080931A012981111101C01EE52111C8
:1015D00001C021E0612C712CC22ED12C6C147D0431
:1015E000BCF40E2D2F2D412FC501B4010E940A0A13
:1015F00060917A0270917B0280917C0290917D02D1
:101600002F2D412F0E940A0A8FEF681A780AE6CF21
:101610000F90DF91CF911F910F91FF90EF90DF908E
:10162000CF90BF90AF909F908F907F906F900895D4
:101630006F927F928F929F92AF92BF92CF92DF92E2
:10164000EF92FF920F931F93CF93DF931F92CDB72B
:10165000DEB74B015C01142FF02E29830E94320962
:101660008093190182E080931A012981111101C030
:101670001EE5211101C021E0612C712CC22ED12C5C
:101680000E2D2F2D412FC501B4016C147D0494F44F
:101690000E940A0A60917A0270917B0280917C021A
:1016A00090917D022F2D412F0E940A0A8FEF681A18
:1016B000780AE6CF0E940A0A0F90DF91CF911F911E
:1016C0000F91FF90EF90DF90CF90BF90AF909F90E1
:1016D0008F907F906F9008958F929F92AF92BF925C
:1016E000EF92FF920F931F93CF93DF9300D0CDB76C
:1016F000DEB7809150020E94F2084B015C0100911C
:101700002C01109151022091530240915402E0901B
:101710005202EE2069F08E2D29834A830E948309AC
:10172000F82E8E2D0E948E09E82E29814A8102C052
:10173000E02EF12C111102C020E004C0113039F468
:101740000E2D2F2DC501B4010E940A0A28C01230A7
:1017500031F40F2DC501B4010E94180B20C01330C5
:1017600031F40F2DC501B4010E94C60A18C014300F
:1017700031F40F2DC501B4010E94970910C0153036
:1017800071F40F900F90DF91CF911F910F91FF9007
:10179000EF90BF90AF909F908F900C944B0A0F905A
:1017A0000F90DF91CF911F910F91FF90EF90BF901D
:1017B000AF909F908F9008951F93CF93DF93182F32
:1017C000C82FD0E0FE01EE5EFE4F80810E94E0183F
:1017D000FE01E75BFD4F90819817E9F090911C01A5
:1017E000813061F4808321E030E0012E01C0220FBE
:1017F0000A94EAF7292B20931C0111C0108221E0E2
:1018000030E0012E01C0220F0A94EAF72095292327
:1018100020931C0103C081E0913009F080E0DF914A
:10182000CF911F9108951F93CF93DF93C2E1D1E031
:1018300010E08991833619F0812F0E94DC0B1F5F25
:101840001630B9F7DF91CF911F910895EF920F9362
:1018500080910A01813031F480910B01882309F4D1
:1018600021C159C0823009F41DC190910B01833010
:1018700039F5992309F416C16091860270918702A7
:10188000809188029091890200912C0120E040E033
:101890000E940A0A10920B018091760290917702C1
:1018A000A0917802B091790283309105A105B1052C
:1018B00029F00897A105B10509F0F4C061E0E7C07F
:1018C000843041F4992309F4EDC010920B01109279
:1018D00046029DC0853009F040C0992309F4E2C05A
:1018E0008091760290917702A0917802B09179026E
:1018F00083309105A105B10521F00897A105B10537
:1019000051F461E0809110010E94AA1861E0809179
:101910000F010E94AA18609186027091870280913F
:10192000880290918902E0902C0100E021E040E0E3
:101930000E94970960917A0270917B0280917C02EB
:1019400090917D02E0902C0121E040E00E949709F7
:1019500010920B0110924602A5C0863019F4911125
:1019600082C0A0C0873091F4992309F49BC0609194
:101970007A0270917B0280917C0290917D020091AD
:101980002C0120E040E00E940A0A6DC0883009F076
:1019900056C0992309F486C060918602709187022F
:1019A0008091880290918902E0902C0100E021E072
:1019B00040E00E94970960917E0270917F028091C1
:1019C000800290918102E0902C0121E040E00E9491
:1019D000970960917A0270917B0280917C029091CC
:1019E0007D02E0902C0121E040E00E949709609187
:1019F0008602709187028091880290918902E0901E
:101A00002C0121E040E00E94970910920B01809187
:101A1000760290917702A0917802B091790283309A
:101A20009105A105B10521F00897A105B105D1F5F2
:101A300061E0809110010E94AA1861E02DC09923F5
:101A400089F160917A0270917B0280917C02909181
:101A50007D0200912C0120E040E00E940A0A1092D1
:101A600048020E94130C10920B0180917602909113
:101A70007702A0917802B091790283309105A10597
:101A8000B10521F00897A105B10561F460E08091EE
:101A900010010E94AA1860E080910F010F91EF9051
:101AA0000C94AA180F91EF900895EF920F938091E4
:101AB0000A01813071F480910B01882309F41BC164
:101AC00060917E0270917F028091800290918102EC
:101AD00061C0823009F40FC190910B01833039F558
:101AE000992309F408C16091860270918702809160
:101AF00088029091890200912C0120E040E00E9430
:101B00000A0A10920B018091760290917702A091BF
:101B10007802B091790283309105A105B10529F0D1
:101B20000897A105B10509F0E6C061E0D9C084308D
:101B300041F4992309F4DFC010920B011092460280
:101B40008FC0853009F040C0992309F4D4C080913A
:101B5000760290917702A0917802B0917902833059
:101B60009105A105B10521F00897A105B10551F432
:101B700061E0809110010E94AA1861E080910F013C
:101B80000E94AA1860918602709187028091880253
:101B900090918902E0902C0100E021E040E00E9459
:101BA000970960917A0270917B0280917C029091FA
:101BB0007D02E0902C0121E040E00E949709109204
:101BC0000B011092460297C0863019F4911174C02F
:101BD00092C0873091F4992309F48DC060917A0204
:101BE00070917B0280917C0290917D0200912C018A
:101BF00020E040E00E940A0A5FC0883009F048C037
:101C0000992309F478C060918602709187028091CF
:101C1000880290918902E0902C0100E021E040E0F0
:101C20000E94970960917E0270917F0280918002EC
:101C300090918102E0902C0121E040E00E94970900
:101C400060917A0270917B0280917C0290917D027A
:101C5000E0902C0121E040E00E94970910920B01D6
:101C60008091760290917702A0917802B0917902EA
:101C700083309105A105B10521F00897A105B105B3
:101C8000D1F561E0809110010E94AA1861E02DC099
:101C9000992389F160917A0270917B0280917C0294
:101CA00090917D0200912C0120E040E00E940A0A00
:101CB000109248020E94130C10920B018091760240
:101CC00090917702A0917802B091790283309105CA
:101CD000A105B10521F00897A105B10561F460E007
:101CE000809110010E94AA1860E080910F010F916D
:101CF000EF900C94AA180F91EF900895EF920F9324
:101D000080910A01813071F480910B01882309F4DC
:101D10001BC160918E0270918F0280919002909110
:101D2000910261C0823009F40FC190910B018330A0
:101D300039F5992309F408C16091860270918702F0
:101D4000809188029091890200912C0120E040E06E
:101D50000E940A0A10920B018091760290917702FC
:101D6000A0917802B091790283309105A105B10567
:101D700029F00897A105B10509F0E6C061E0D9C0D6
:101D8000843041F4992309F4DFC010920B011092C2
:101D900046028FC0853009F040C0992309F4D4C0B1
:101DA0008091760290917702A0917802B0917902A9
:101DB00083309105A105B10521F00897A105B10572
:101DC00051F461E0809110010E94AA1861E08091B5
:101DD0000F010E94AA18609186027091870280917B
:101DE000880290918902E0902C0100E021E040E01F
:101DF0000E94970960917A0270917B0280917C0227
:101E000090917D02E0902C0121E040E00E94970932
:101E100010920B011092460297C0863019F491116E
:101E200074C092C0873091F4992309F48DC06091F9
:101E30007A0270917B0280917C0290917D020091E8
:101E40002C0120E040E00E940A0A5FC0883009F0BF
:101E500048C0992309F478C0609186027091870286
:101E60008091880290918902E0902C0100E021E0AD
:101E700040E00E94970960917E0270917F028091FC
:101E8000800290918102E0902C0121E040E00E94CC
:101E9000970960917A0270917B0280917C02909107
:101EA0007D02E0902C0121E040E00E949709109211
:101EB0000B018091760290917702A0917802B09107
:101EC000790283309105A105B10521F00897A1059C
:101ED000B105D1F561E0809110010E94AA1861E07E
:101EE0002DC0992389F160917A0270917B028091D3
:101EF0007C0290917D0200912C0120E040E00E9444
:101F00000A0A109248020E94130C10920B01809151
:101F1000760290917702A0917802B0917902833095
:101F20009105A105B10521F00897A105B10561F45E
:101F300060E0809110010E94AA1860E080910F017A
:101F40000F91EF900C94AA180F91EF9008958F9233
:101F50009F92AF92BF92CF92DF92EF92FF920F9338
:101F6000CF93DF93C82F6A017B012BE030E040E084
:101F700050E061E070E080E090E00E94971FC111A6
:101F80000E94130C8090760290907702A0907802C5
:101F9000B090790255E0880C991CAA1CBB1C5A957C
:101FA000D1F78C289D28AE28BF286091430270E0AD
:101FB00080E090E00E948517C5E0D0E032E0C32EBB
:101FC00048E1E42E41E0F42E08E020E0B501A40150
:101FD00081E692E00E94AC07882311F0219771F707
:101FE000DF91CF910F91FF90EF90DF90CF90BF9056
:101FF000AF909F908F900895EF920F9390910A0168
:1020000080910B01913029F5882309F487C06091F4
:102010008E0270918F028091900290919102E090D7
:102020002C0100E021E040E00E94970960918202CB
:10203000709183028091840290918502E0902C013E
:1020400021E040E00E94970910920B011092460295
:1020500065C0923019F5882309F460C010920B0115
:102060001092460280914102909142020196909313
:1020700042028093410280931F0180913F0280932E
:102080001E01409120015091210160912201709127
:10209000230180E00F91EF900C94A70F9730E1F4AB
:1020A0008823E1F1409120015091210160912201AA
:1020B0007091230180E00E94A70F60917A027091D5
:1020C0007B0280917C0290917D0200912C0120E0A6
:1020D00040E00E940A0A20C0882301F110924202C7
:1020E000109241021092400210923F0210921F0182
:1020F00010921E0160917A0270917B0280917C02A5
:1021000090917D0200912C0120E040E00E940A0A9B
:10211000109248020E94130C10920B010F91EF9045
:102120000895EF920F9390910A0180910B019130E5
:1021300029F5882309F48AC060918E0270918F027C
:102140008091900290919102E0902C0100E021E0BA
:1021500040E00E94970960917E0270917F02809119
:10216000800290918102E0902C0121E040E00E94E9
:10217000970910920B011092460268C0923031F517
:10218000882321F010920B011092460280914102A7
:10219000909142028F3F91050CF058C001969093A8
:1021A00042028093410280931F0180913F028093FD
:1021B0001E014091200150912101609122017091F6
:1021C000230180E00F91EF900C94A70F9730E1F47A
:1021D0008823E1F140912001509121016091220179
:1021E0007091230180E00E94A70F60917A027091A4
:1021F0007B0280917C0290917D0200912C0120E075
:1022000040E00E940A0A20C0882301F11092420295
:10221000109241021092400210923F0210921F0150
:1022200010921E0160917A0270917B0280917C0273
:1022300090917D0200912C0120E040E00E940A0A6A
:10224000109248020E94130C10920B010F91EF9014
:102250000895CF92EF92FF920F931F93CF93DF9346
:10226000809176029091770224E6289FE001299FD1
:10227000D00D112440E052EC61E070E08FEA92E072
:102280000E94EA19BE0168517C4F882777FD80952E
:10229000982F0E94851768E671E08FEA92E00E940D
:1022A000371A4091760250917702609178027091CE
:1022B00079022AE030E08FEA92E00E942D1B81E053
:1022C0000E940318BC01882777FD8095982F0E94F3
:1022D0006B1F0E945D08609372027093730280937B
:1022E00074029093750200918E0210918F022091DA
:1022F000900230919102601771078207930729F4C9
:1023000085E190E0A0E0B0E004C086E190E0A0E0CC
:10231000B0E08093240190932501A0932601B0930F
:10232000270161E0809111010E94711861E08091A4
:1023300011010E94AA188091760290917702A091D3
:102340007802B091790283309105A105B10521F0A1
:102350000897A105B105C9F461E0809110010E94C0
:10236000711861E080910F010E94711860E0809106
:1023700010010E94AA1860E080910F010E94AA1823
:1023800062E080910E010E94711862E771E08FEAAD
:1023900092E00E94441A82E992E00E94440182E99C
:1023A00092E00E94A1010E944B0A60918E027091FE
:1023B0008F02809190029091910200912C0120E077
:1023C00040E00E940A0A60E871E08FEA92E00E9411
:1023D000441AC2E1D1E010E08881833609F453C089
:1023E00062E00E94711860E971E08FEA92E00E9459
:1023F000371A4AE050E068818FEA92E00E94261B7B
:1024000065E971E08FEA92E00E94371A812F0E94FD
:10241000DC0B682F70E04AE050E08FEA92E00E9407
:10242000F91A812F0E94DC0B811112C060918A027F
:1024300070918B0280918C0290918D0238E0E32E96
:1024400000E020E040E00E94970969E971E011C0D6
:1024500060917E0270917F02809180029091810252
:1024600028E0E22E00E020E040E00E9497096FE9BA
:1024700071E08FEA92E00E94441A6AEF70E080E017
:1024800090E00E94851721961F5F163009F0A4CFB7
:102490006AEA71E08FEA92E00E94441A6BEB71E005
:1024A0008FEA92E00E94371A68E081E692E00E948B
:1024B00045068111BEC060918A0270918B028091A5
:1024C0008C0290918D02C0E1EC2E00912B0120E056
:1024D00040E00E9497096CE971E08FEA92E00E9467
:1024E000441A42E050E069E578E0809128010E94BA
:1024F00005160FE110E020E030E040E060E081E60A
:1025000092E00E9460060FE110E020E030E040E041
:1025100061E081E692E00E946006009176021091EF
:102520007702209178023091790240E060E081E604
:1025300092E00E94B40600E010E0980140E061E003
:1025400081E692E00E94B406009176021091770233
:10255000209178023091790240E062E081E692E0D9
:102560000E94B40600E010E0980140E063E081E6DC
:1025700092E00E94B406009124011091250120915F
:1025800026013091270140E064E081E692E00E945C
:10259000B406009176021091770220917802309172
:1025A000790240E065E081E692E00E94B406209165
:1025B0007602309177024091780250917902A8EE2C
:1025C000B3E00E9496200E948517409176025091B8
:1025D00077026091780270917902D5E0440F551F1F
:1025E000661F771FDA95D1F7809120019091210124
:1025F000A0912201B0912301482B592B6A2B7B2BF0
:1026000012E0C12E09E5E02E02E0F02E08E020E005
:1026100081E692E00E94AC0764E670E080E090E022
:102620000E948517809158028823E9F11092580280
:1026300017C06DEC71E08FEA92E00E94441A60913D
:102640007E0270917F028091800290918102B0E1C0
:10265000EB2E00912B0120E040E00E9497091ECF55
:1026600081E692E00E941508833049F44FE452E07D
:1026700067E572E081E692E00E94DF07F1CF00910A
:102680002B01000F60918A0270918B0280918C0265
:1026900090918D02A8E1EA2E20E040E00E94970987
:1026A00067EF71E013C000912B01000F60917E0273
:1026B00070917F028091800290918102F8E1EF2E6B
:1026C00020E040E00E94970968E072E08FEA92E023
:1026D0000E94441A60E177E280E090E00E94851752
:1026E00080912B01082F000F080F60918A027091D2
:1026F0008B0280918C0290918D02E0E2EE2E20E020
:1027000040E00E94970964EF71E080E090E00E9451
:10271000851760917A0270917B0280917C02909182
:102720007D0200912C0120E040E00E940A0ADF9126
:10273000CF911F910F91FF90EF90CF90089581E678
:1027400092E00E941D08F5E096958795779567952C
:10275000FA95D1F70895EF920F93CF93C82F6BEBB3
:1027600071E08FEA92E00E94371A6C2F81E692E0C6
:102770000E944506811121C000912B01000F60913C
:102780008A0270918B0280918C0290918D02B8E147
:10279000EB2E20E040E00E9497094AE050E06C2FC9
:1027A0008FEA92E00E94261B69E971E08FEA92E0CD
:1027B000CF910F91EF900C94441A6DEC71E08FEA79
:1027C00092E00E94441A00912B01000F60917E025A
:1027D00070917F028091800290918102A8E1EA2E9F
:1027E00020E040E00E949709CF910F91EF9008956B
:1027F000EF920F93CF93DF9380914F0281110BC023
:102800000E949F13AB01BC0181E0DF91CF910F913A
:10281000EF900C94A70F813031F4DF91CF910F919D
:10282000EF900C946C0B823051F4809150028093A5
:102830000A0191E090930B0180931B01D3C0833078
:1028400001F580915002811102C060E003C0813027
:1028500071F461E0809110010E94AA1860E08091FB
:102860000F01DF91CF910F91EF900C94AA18823055
:1028700009F0B8C061E0809110010E94AA1861E0DF
:10288000EECF843009F4AEC0853061F50E949F130D
:10289000AB01BC012AE030E08FEA92E00E94191BF4
:1028A00069E172E08FEA92E00E94371ACFE4D2E049
:1028B00082E0C735D80771F069914AE050E08FEAAD
:1028C00092E00E94261B69E172E08FEA92E00E948A
:1028D000371AEECF8FEA92E0DF91CF910F91EF9010
:1028E0000C94401A8630C1F49091500290934502A6
:1028F000809151028093440220915202209343021E
:10290000963011F40E94AB1380914502893009F092
:1029100085E08093180166C0873009F063C080911C
:1029200050028130A1F5809348028091510280933A
:1029300047028130A9F400912B01000F60917E02C3
:1029400070917F028091800290918102D0E2ED2E01
:1029500021E040E00E94970981E080933E0242C05E
:10296000823009F03FC060918E0270918F02809199
:10297000900290919102C0E1EC2E00912B0121E098
:1029800040E00E94970981E080933D022BC01092A5
:10299000480280913E02882389F010923E022091E5
:1029A0002B01220F6091860270918702809188022C
:1029B0009091890200E240E00E940A0A80913D0263
:1029C000882381F010923D02609186027091870207
:1029D000809188029091890200E120912B0140E0D2
:1029E0000E940A0ADF91CF910F91EF900895CF9343
:1029F000DF9381E692E00E9415088330A1F44FE452
:102A000052E067E572E081E692E00E94DF07809184
:102A10003F029091400201969093400280933F02C2
:102A20000E94F813E6CF80914502883059F48091D6
:102A30004402813019F40E94550D04C0823011F413
:102A40000E947E0E80914502893061F4809144029B
:102A5000813019F40E94FC0F07C0823029F40E94D3
:102A6000911002C00E94260C80910A01833009F067
:102A700042C08091760290917702A0917802B09145
:102A8000790283309105A105B10521F00897A105D0
:102A9000B10589F5C0910C01D0910D0180910E0115
:102AA0000E94E01890930D0180930C01C817D9077C
:102AB00011F14AE050E0BC018FEA92E00E94011B54
:102AC00080910C0190910D01892BA9F4C4E0C09371
:102AD0001B014091200150912101609122017091D0
:102AE000230180E00E94A70F0E947B0881E0809371
:102AF0000B01C0930A01DF91CF91089560912C01E1
:102B000070E023E040912D0182E992E00E9496025C
:102B100040E060E080912A010E94030360938E02EE
:102B200070938F02809390029093910240E06091A5
:102B30002A0180E00E94030360938A0270938B0253
:102B400080938C0290938D0240912A0160E080E096
:102B50000E94030360938602709387028093880229
:102B60009093890280912A01482F682F0E940303C5
:102B70006093820270938302809384029093850213
:102B800080912A0140E0682F0E94030360937E0237
:102B900070937F02809380029093810240E060E016
:102BA00080E00E94030360937A0270937B0280931B
:102BB0007C0290937D0280E090E00E943B2290E0B6
:102BC000A0E0B0E08093760290937702A093780221
:102BD000B093790280918E0290918F02A091900221
:102BE000B09191028093720290937302A093740249
:102BF000B09375026091290181E692E00C9437064A
:102C000082E992E00C9430010895853008F04CC0C0
:102C1000E82FF0E0EE0FFF1FE25DFE4F718360834F
:102C20008230E1F018F4813069F004C0833019F18A
:102C3000843071F1809169008C7F842B80936900CE
:102C4000E89A089580916900440F551F440F551F5D
:102C5000837F842B80936900E99A089580916900AD
:102C600034E0440F551F3A95E1F78F7C842B809315
:102C70006900EA9A08958091690026E0440F551F83
:102C80002A95E1F78F73842B80936900EB9A08955E
:102C900080916A0094E0440F551F9A95E1F78F7C6C
:102CA000842B80936A00EE9A08951F920F920FB6BC
:102CB0000F9211242F933F934F935F936F937F93C2
:102CC0008F939F93AF93BF93EF93FF93E0912E0168
:102CD000F0912F010995FF91EF91BF91AF919F91D5
:102CE0008F917F916F915F914F913F912F910F90B5
:102CF0000FBE0F901F9018951F920F920FB60F9254
:102D000011242F933F934F935F936F937F938F93F0
:102D10009F93AF93BF93EF93FF93E0913001F091B6
:102D200031010995FF91EF91BF91AF919F918F91E3
:102D30007F916F915F914F913F912F910F900FBEB7
:102D40000F901F9018951F920F920FB60F9211249B
:102D50002F933F934F935F936F937F938F939F93A3
:102D6000AF93BF93EF93FF93E0913201F091330162
:102D70000995FF91EF91BF91AF919F918F917F91B5
:102D80006F915F914F913F912F910F900FBE0F90D8
:102D90001F9018951F920F920FB60F9211242F9328
:102DA0003F934F935F936F937F938F939F93AF93D3
:102DB000BF93EF93FF93E0913401F09135010995B2
:102DC000FF91EF91BF91AF919F918F917F916F9103
:102DD0005F914F913F912F910F900FBE0F901F90D9
:102DE00018951F920F920FB60F9211242F933F93B5
:102DF0004F935F936F937F938F939F93AF93BF9303
:102E0000EF93FF93E0913601F09137010995FF911F
:102E1000EF91BF91AF919F918F917F916F915F9152
:102E20004F913F912F910F900FBE0F901F901895CB
:102E30001F920F920FB60F9211242F933F938F93EF
:102E40009F93AF93BF938091A7029091A802A09106
:102E5000A902B091AA023091A60223E0230F2D37D8
:102E600020F40196A11DB11D05C026E8230F02968E
:102E7000A11DB11D2093A6028093A7029093A802E2
:102E8000A093A902B093AA028091AB029091AC02E8
:102E9000A091AD02B091AE020196A11DB11D80932B
:102EA000AB029093AC02A093AD02B093AE02BF917F
:102EB000AF919F918F913F912F910F900FBE0F90E7
:102EC0001F9018953FB7F8948091AB029091AC0297
:102ED000A091AD02B091AE0226B5A89B05C02F3FD0
:102EE00019F00196A11DB11D3FBF6627782F892FCC
:102EF0009A2F620F711D811D911D42E0660F771F91
:102F0000881F991F4A95D1F70895CF92DF92EF92CB
:102F1000FF92CF93DF936B017C010E946217EB015C
:102F2000C114D104E104F10489F00E94B31F0E948E
:102F300062176C1B7D0B683E734090F381E0C81AEA
:102F4000D108E108F108C851DC4FEACFDF91CF91F9
:102F5000FF90EF90DF90CF900895789484B58260D1
:102F600084BD84B5816084BD85B5826085BD85B52D
:102F7000816085BDEEE6F0E0808181608083E1E8DC
:102F8000F0E0108280818260808380818160808314
:102F9000E0E8F0E0808181608083E1E9F0E0808119
:102FA00082608083808181608083E0E9F0E08081BD
:102FB00081608083E1ECF0E08081846080838081A7
:102FC00082608083808181608083E3ECF0E0808197
:102FD00081608083E0ECF0E0808182608083E2ECBD
:102FE000F0E0808181608083EAE7F0E080818460A6
:102FF0008083808182608083808181608083808102
:10300000806880830895823108F08251E82FF0E0D3
:10301000E451FF4FE49180917B00E3FB222720F9EC
:1030200030E095E0220F331F9A95E1F78F7D822BD8
:1030300080937B00E7708091380120E4829FC0017B
:103040001124E82BE0937C0080917A0080648093C7
:103050007A0080917A0086FDFCCF809178002091E3
:10306000790090E0922B089590E0FC013197EF30C9
:10307000F105B0F5E959FF4F0C9490208091800044
:103080008F7703C0809180008F7D809380000895AA
:1030900080918000877FF9CF84B58F7702C084B597
:1030A0008F7D84BD0895809190008F7707C08091B7
:1030B00090008F7D03C080919000877F8093900067
:1030C00008958091C0008F7703C08091C0008F7DEC
:1030D0008093C00008958091C200877F8093C200D2
:1030E0000895CF93DF9390E0FC01E95EFE4F2491B9
:1030F000FC01EA5CFE4F8491882349F190E0880F3F
:10310000991FFC01EF58FE4FA591B4918D599E4F28
:10311000FC01C591D4919FB7611108C0F8948C91BE
:10312000209582238C93888182230AC0623051F4D7
:10313000F8948C91322F309583238C938881822B45
:10314000888304C0F8948C91822B8C939FBFDF916D
:10315000CF9108950F931F93CF93DF931F92CDB715
:10316000DEB7282F30E0F901E850FF4F8491F901D4
:10317000E95EFE4F1491F901EA5CFE4F04910023D1
:10318000C9F0882321F069830E9434186981E02FF7
:10319000F0E0EE0FFF1FED59FE4FA591B4919FB7E0
:1031A000F8948C91611103C01095812301C0812B8B
:1031B0008C939FBF0F90DF91CF911F910F91089536
:1031C000CF93DF93282F30E0F901E850FF4F84912F
:1031D000F901E95EFE4FD491F901EA5CFE4FC4911A
:1031E000CC2391F081110E943418EC2FF0E0EE0F07
:1031F000FF1FEB5AFE4FA591B4912C912D2381E036
:1032000090E021F480E002C080E090E0DF91CF9177
:103210000895CF93DF931F92CDB7DEB76983DC01AA
:10322000ED91FC910280F381E02D41E050E0BE0180
:103230006F5F7F4F09950F90DF91CF910895CF93E6
:10324000DF93EC018C859D8597FF05C082E00E948D
:10325000501C9D878C878C859D85DF91CF9108952B
:1032600083E00C94CB1EFC018485958597FD06C0F8
:1032700082E00E94F81B90E00196089582E00E948F
:10328000F81B90E00895FC018485958597FD05C0A5
:103290002FEF3FEF35872487089582E00C94501C70
:1032A000CF93DF93EC0180914401882331F083E0D8
:1032B0000E94811C1816190634F081E090E09B836F
:1032C0008A8380E090E0DF91CF910895FC01208116
:1032D0002E5F208342E450E06FE771E080E80C94B9
:1032E0001C1DFC0121818081813A59F4213209F0B1
:1032F0005CC047E050E06DE371E080E00E941C1D7F
:1033000067C0813209F051C0233289F4838190E093
:10331000982F88273281832BA0E0B0E08093390179
:1033200090933A01A0933B01B0933C010FC020322F
:1033300039F467E070E08DE391E00E944D1D0AC012
:10334000223221F482818093440104C02D7F2032F7
:1033500009F03EC080913D0190913E01A0913F0156
:10336000B0914001803B9440A105B10501F58091E9
:10337000440180FD1CC08091000890910108909349
:10338000FF0A8093FE0A87E797E7909301088093EE
:1033900000082BE088E190E00FB6F894A8958093A0
:1033A00060000FBE2093600013C080E0089588E1A4
:1033B0000FB6F89480936000109260000FBEA8953D
:1033C0008091FE0A9091FF0A909301088093000873
:1033D00081E008952FEF3FEFFC01358724870895A2
:1033E0001092B2021092B10288EE93E0A0E0B0E039
:1033F0008093B3029093B402A093B502B093B60247
:103400008FE192E09093B0028093AF028FEF9FEF35
:103410009093BC028093BB02089508950E94AD175B
:103420000E940D1A8FEF92E00E94581F0E942911EE
:10343000C0E0D0E00E94F7142097E1F30E94000062
:10344000F9CF6115710581F0DB010D900020E9F7DE
:10345000AD0141505109461B570BDC01ED91FC9128
:103460000280F381E02D099480E090E008950C94AF
:10347000211ADC01ED91FC910190F081E02D09947D
:103480006BE272E00C94211A0F931F93CF93DF939A
:10349000EC010E94211A8C01CE010E94401A800F7B
:1034A000911FDF91CF911F910F9108958F929F925D
:1034B000AF92BF92CF92DF92EF92FF920F931F9342
:1034C000CF93DF93CDB7DEB7A1970FB6F894DEBFE9
:1034D0000FBECDBF7C01C42EE52FCB01D22E19A289
:1034E00021E02D1510F02AE0D22E8E010F5D1F4F26
:1034F0008D2C912CA12CB12C6C2D7E2FA50194012B
:103500000E944F208C2DD29E801911240150110948
:103510008A3014F4805D01C0895CF8018083211534
:1035200031054105510521F0C22EE32FCA01E4CF38
:10353000B801C7010E94211AA1960FB6F894DEBF08
:103540000FBECDBFDF91CF911F910F91FF90EF90F4
:10355000DF90CF90BF90AF909F908F900895CF92C3
:10356000DF92EF92FF920F931F93CF93DF93EC01C3
:103570006A017B012115310579F4E881F981019017
:10358000F081E02D642FDF91CF911F910F91FF907B
:10359000EF90DF90CF9009942A303105E9F477FF5E
:1035A0001AC06DE20E94391A8C0144275527BA01CE
:1035B0004C195D096E097F092AE0CE010E94561A56
:1035C000800F911FDF91CF911F910F91FF90EF908E
:1035D000DF90CF9008952AE0B701A601CE01DF91D8
:1035E000CF911F910F91FF90EF90DF90CF900C94AF
:1035F000561A9A01AB01662757FD6095762F0C94F9
:10360000AF1A0F931F93CF93DF93EC019A01AB0195
:10361000662757FD6095762F0E94AF1A8C01CE0168
:103620000E94401A800F911FDF91CF911F910F913F
:1036300008952115310541F4DC01ED91FC910190D3
:10364000F081E02D642F09940C94561A9A01462FAC
:1036500050E060E070E00C94191B0F931F93CF9320
:10366000DF93EC010E94191B8C01CE010E94401ACD
:10367000800F911FDF91CF911F910F91089561509D
:1036800030F02091F100FC0120830196F8CF2898BA
:1036900084E6809308030895409103035091040346
:1036A000209101033091020342175307B4F4909123
:1036B000E8009570E1F39091E80092FD19C08093C5
:1036C000F100809103039091040301968F73992771
:1036D000892B19F48EEF8093E80080910303909179
:1036E00004030196909304038093030381E00895FB
:1036F00080E00895CF92DF92EF92FF920F931F9395
:10370000CF93DF931F92CDB7DEB7082F162FF42E7D
:10371000862F880F8E5F99830E944C1B83E00E9446
:103720004C1BE02EC02E9981D92E8C2D8E1981171D
:1037300098F4F601F7FE02C0849101C080810E94D6
:103740004C1B082F80E00E944C1B8023FFEFCF1AF8
:10375000DF0A8111EACF01C081E00F90DF91CF91A4
:103760001F910F91FF90EF90DF90CF90089580917F
:10377000D70081608093D70080EA8093D80089B514
:10378000806189BD89B5826089BD09B400FEFDCF25
:1037900061E070E080E090E00E9485178091D800A1
:1037A0008F7C80618093D8008091E000807F80933F
:1037B000E0000895CF93DF931F92CDB7DEB7198253
:1037C000CE0101960E9466190E943B20BE016F5FE8
:1037D0007F4F0E94B41F89810F90DF91CF91089590
:1037E0002FB7FC012083F89467706093E900089577
:1037F000CF93DF931F92CDB7DEB7682FCE0101962E
:103800000E94F01B8091F20099819FBF0F90DF9181
:10381000CF910895FF920F931F93CF93DF9300D022
:10382000CDB7DEB7F62E8A0190910703992311F0E8
:1038300057FF03C08FEF9FEF2BC0682FCE0101967B
:103840007A830E94F01B8091F20090E0A8017A81B7
:10385000801791070CF4AC01EF2DF72FF40E84E6DE
:10386000FE1639F02898809308039091F100919307
:10387000F7CF4115510521F08091F200882321F006
:1038800089818FBFCA0104C08BE68093E800F8CF1E
:103890000F900F90DF91CF911F910F91FF9008959E
:1038A000CF93DF931F92CDB7DEB741E050E0BE016A
:1038B0006F5F7F4F0E940A1C019719F4898190E085
:1038C00002C08FEF9FEF0F90DF91CF910895CF93BC
:1038D000DF931F92CDB7DEB7682FCE0101960E940D
:1038E000F01B9091E800892F807295FF04C09091A1
:1038F000F20080E4891B99819FBF0F90DF91CF91E7
:1039000008956F927F928F929F92AF92BF92CF92C3
:10391000DF92EF92FF920F931F93CF93DF931F924B
:10392000CDB7DEB7782E7B01C42EB52E809107036C
:10393000882369F0042F152F8AEFD82E872D8072E7
:10394000982E9AE3A92E872D8074882E11C08FEFB0
:103950009FEF57C0872D0E94671C682E81110CC0F5
:10396000DA94A9F361E070E080E090E00E948517AE
:103970000115110579F73BC0282F30E00217130716
:103980000CF4602E672DCE0101960E94F01B8091F1
:10399000E80085FF29C0262D30E0021B130B99207B
:1039A00039F06A948FEF6816B1F01092F100F9CFF8
:1039B000F701862D77FE07C0815058F094919093BF
:1039C000F1003196F9CF815020F091919093F10060
:1039D000FACFE20EF31E8091E80085FF0FC00115BB
:1039E000110511F481100AC089818FBFC1CF5D9884
:1039F00084E6809309038C2D9B2D03C0A092E800E0
:103A0000F3CF0F90DF91CF911F910F91FF90EF9027
:103A1000DF90CF90BF90AF909F908F907F906F90EE
:103A200008951092E90010920403109203039093FA
:103A30000203809301030895CF92DF92FF920F93C8
:103A40001F93CF93DF9300D0CDB7DEB7F82E8A0156
:103A50006B0101151105B1F0F601F7FE02C084916A
:103A600001C0808149835A830E944C1B0150110977
:103A7000FFEFCF1ADF0A49815A818111EACF8FEF18
:103A80009FEF01C0CA010F900F90DF91CF911F915E
:103A90000F91FF90DF90CF9008951F93CF93DF9306
:103AA0001F92CDB7DEB7162F2091E80022FFFCCF82
:103AB000612F79830E943F1B8BEF8093E800812F59
:103AC0007981972F0F90DF91CF911F9108951F92C9
:103AD0000F920FB60F921124DF92EF92FF920F9385
:103AE0001F932F933F934F935F936F937F938F9386
:103AF0009F93AF93BF93EF93FF93CF93DF93CDB794
:103B0000DEB76C97DEBFCDBF1092E9008091E80070
:103B100083FF23C168E0CE0145960E943F1B82EFE0
:103B20008093E8003D8937FF05C08091E80080FF61
:103B3000FCCF03C08EEF8093E800832F807609F0DE
:103B4000F0C02E894F89D88C21110CC0303829F44F
:103B5000809106038093F10002C01092F100109250
:103B6000F100F4C0842F90E09D29213049F43111F7
:103B7000EDC0019709F0EAC0809106038D7F0AC06D
:103B8000233059F43111E2C0019709F0DFC0809170
:103B90000603826080930603D9C0253041F48091EA
:103BA000E80080FFFCCF40684093E300CFC02630A0
:103BB00009F08DC0EB8CFC8C22E0D2122CC080E08E
:103BC00090E00E94111D0E94DA1B99E08E010F5FA8
:103BD0001F4FF801292F11922A95E9F79983DA826C
:103BE00091E09E8390EA98879AEF9987209103034A
:103BF00030910403275F3F4F3C832B838D83C701A4
:103C00000E94111D49E050E0B80180E00E941C1D97
:103C10000E94DA1B9BC0C7010E94111D0E943B201D
:103C2000BE016B5E7F4F0E94DD1F009719F00CF004
:103C30008DC090C081E0D8120EC08B8D9C8D0897EE
:103C400019F481E0809300038091000381112FC05B
:103C500063ED71E031C0E3E0DE127CC08F89882320
:103C600049F1823029F440E860E181EF91E01CC025
:103C7000813029F440E86BE085EE91E015C0833097
:103C800009F068C00E943B208E010F5F1F4FB801F2
:103C90000E94FC1FF80101900020E9F73197E01B1A
:103CA000F10B40E06E2FC8010E947A1B4DC061EC01
:103CB00071E002C062E072E06115710509F44AC06A
:103CC000FB01449150E080E80E941C1D3FC027305A
:103CD00009F440C0283021F481E08093F10036C01F
:103CE0002930A1F53370B1F5E6E4F1E081E021E09F
:103CF00036E39081992361F08093E9002093EB00F3
:103D000091919093EC003093ED008F5F873089F7AD
:103D10008EE78093EA001092EA008F898093070370
:103D200015C08B8D9C8D0E94111D898D811105C040
:103D3000CE0145960E94711907C00E943B20BE012A
:103D40006B5E7F4F0E941B20882321F08EEF8093B3
:103D5000E80003C081E28093EB006C960FB6F89404
:103D6000DEBF0FBECDBFDF91CF91FF91EF91BF912D
:103D7000AF919F918F917F916F915F914F913F9103
:103D80002F911F910F91FF90EF90DF900F900FBE3A
:103D90000F901F9018958093E9008091F20088237E
:103DA00019F08AE38093E80008951F920F920FB6EE
:103DB0000F9211242F933F934F935F936F937F93B1
:103DC0008F939F93AF93BF93CF93EF93FF93C09144
:103DD000E1008091E100837F8093E1008093E10026
:103DE000C3FF0FC01092E90081E08093EB001092B6
:103DF000EC0082E38093ED001092070388E080934B
:103E0000F000C2FF19C083E00E94CB1E809109031D
:103E1000882339F080910903815080930903882316
:103E200089F180910803882339F08091080381503B
:103E300080930803882341F1C4FF10C08091E20001
:103E40008E7E81608093E2008091E1008F7E80937E
:103E5000E100809105038E7E806111C0C0FF16C015
:103E60008091E2008E7E80618093E2008091E1008B
:103E70008E7E8093E100809105038E7E8160809329
:103E8000050304C05D9ACDCF289AD6CFFF91EF915C
:103E9000CF91BF91AF919F918F917F916F915F91E2
:103EA0004F913F912F910F900FBE0F901F9018953B
:103EB0001092070310920603109205030E94B71B8D
:103EC000E1EEF0E080818E7E80838DE08093E200E1
:103ED000559A209A0895611571058105910511F093
:103EE0000C942B220895CF93DF9300D000D0CDB750
:103EF000DEB79B01AC01611571058105910569F083
:103F000069833A834B835C830E94262229813A810C
:103F10004B815C810E94712003C060E070E0CB01A6
:103F20000F900F900F900F90DF91CF910895CF9247
:103F3000DF92EF92FF926B017C0162177307840797
:103F4000950764F4CA01B9016C197D098E099F09AE
:103F50000E94731F6C0D7D1D8E1D9F1DFF90EF90A5
:103F6000DF90CF9008950895EF92FF920F931F93E3
:103F7000CF93DF937B01FC01C281D38100E010E08D
:103F8000209781F0E881F9810280F381E02DB7016B
:103F9000CE01099597FD08C0080F191F0884D9851F
:103FA000C02DEECFC80102C08FEF9FEFDF91CF9100
:103FB0001F910F91FF90EF9008950F931F93CF9350
:103FC000DF938B01FC01C281D381209771F0E881DE
:103FD000F9810480F581E02DB801CE0109950097A3
:103FE00031F40884D985C02DF0CF80E090E0DF91D6
:103FF000CF911F910F9108950F931F93CF93DF934C
:104000008B01FC01C281D381209771F0E881F98195
:104010000680F781E02DB801CE010995080F111D2A
:104020000884D985C02DF0CFF8011082DF91CF919F
:104030001F910F9108950F931F93CF93DF938B01DF
:10404000FC01C281D381209771F0E881F981019050
:10405000F081E02DB801CE010995811106C00884D8
:10406000D985C02DF0CF80E001C081E0DF91CF91F4
:104070001F910F91089580910E0381110DC082E070
:1040800080930A0384E080930B0310920D03109237
:104090000C0381E080930E038AE093E00895A1E28F
:1040A0001A2EAA1BBB1BFD010DC0AA1FBB1FEE1FB2
:1040B000FF1FA217B307E407F50720F0A21BB30BFD
:1040C000E40BF50B661F771F881F991F1A9469F779
:1040D00060957095809590959B01AC01BD01CF01D5
:1040E0000895052E97FB1EF400940E94882057FD2A
:1040F00007D00E944F2007FC03D04EF40C94882078
:1041000050954095309521953F4F4F4F5F4F089503
:1041100090958095709561957F4F8F4F9F4F089533
:10412000EE0FFF1F0590F491E02D09940E94A1204D
:10413000A59F900DB49F900DA49F800D911D1124FB
:104140000895A29FB001B39FC001A39F700D811D70
:104150001124911DB29F700D811D1124911D089590
:10416000CF93DF938230910510F482E090E0E091EC
:104170001803F091190320E030E0A0E0B0E03097A0
:1041800039F14081518148175907B8F0481759074C
:1041900071F482819381109729F013969C938E93EA
:1041A00012972CC0909319038093180327C02115F0
:1041B000310531F04217530718F0A901DB0101C0A6
:1041C000EF019A01BD01DF010280F381E02DD7CF1D
:1041D00021153105F9F0281B390B2430310580F405
:1041E0008A819B816115710521F0FB019383828394
:1041F00004C09093190380931803FE01329644C0C3
:10420000FE01E20FF31F819391932250310939830C
:1042100028833AC02091160330911703232B41F4D1
:10422000209102013091030130931703209316036C
:1042300020910001309101012115310541F42DB784
:104240003EB74091040150910501241B350BE091CC
:104250001603F0911703E217F307A0F42E1B3F0B90
:104260002817390778F0AC014E5F5F4F24173507E8
:1042700048F04E0F5F1F509317034093160381932E
:10428000919302C0E0E0F0E0CF01DF91CF9108957B
:10429000CF93DF93009709F487C0FC013297138214
:1042A0001282C0911803D0911903209781F42081C4
:1042B0003181280F391F80911603909117038217BF
:1042C000930779F5F0931703E09316036DC0DE01B1
:1042D00020E030E0AE17BF0750F412964D915C918C
:1042E00013979D014115510509F1DA01F3CFB3830D
:1042F000A28340815181840F951F8A179B0771F417
:104300008D919C911197840F951F029691838083C4
:1043100012968D919C911397938382832115310579
:1043200029F4F0931903E09318033EC0D9011396C2
:10433000FC93EE9312974D915D91A40FB51FEA1770
:10434000FB0779F480819181840F951F0296D90132
:1043500011969C938E938281938113969C938E9356
:104360001297E0E0F0E08A819B81009719F0FE014E
:10437000EC01F9CFCE01029628813981820F931F7B
:1043800020911603309117032817390769F43097E5
:1043900029F4109219031092180302C0138212829A
:1043A000D0931703C0931603DF91CF9108958F9296
:1043B0009F92AF92BF92CF92DF92EF92FF92CF93F4
:1043C000DF93EC01688179818A819B816115710598
:1043D0008105910521F464E279ED8BE597E02DE10B
:1043E00033EF41E050E00E94712049015A019B01E6
:1043F000AC01A7EAB1E40E9496206B017C01ACEE0F
:10440000B4EFA50194010E944622C60ED71EE81EF5
:10441000F91EF7FE06C081E0C81AD108E10880E85D
:10442000F80AC882D982EA82FB82C701B6019F7767
:10443000DF91CF91FF90EF90DF90CF90BF90AF9042
:104440009F908F9008950E94D721089586E091E073
:104450000E94D7210895609306017093070180930D
:104460000801909309010895DC0101C06D9341504A
:104470005040E0F70895F999FECF92BD81BDF89ABA
:10448000992780B50895B7FF0C9496200E94962036
:10449000821B930B089512E0CAE0D2E004C0FE0133
:1044A0000E9492202296CC30D107C9F7F894FFCF12
:1044B00000001A038000010000000801010004064A
:1044C00005170B0A6363636305000000000000002A
:1044D0001F00000015000000041132082008041617
:1044E000041604160416041601FFFFFFFF00E10086
:1044F000000000000000C1808100000002040000F4
:10450000000000004D6F6E746F6E204D6573736117
:1045100067652053656E74004E6F64652049443AA8
:1045200020004E656F706978656C20546573740067
:104530002D2D2D2D2D496E707574732D2D2D2D0063
:1045400050696E2300203D2000202D204F4B00207D
:104550002D2050524553534544002D2D2D2D2D43D4
:10456000616E204275732D2D2D2D0043414E2D423D
:10457000555320537461727475703A20004E6F74F5
:1045800020476F6F642C20636865636B20796F75BB
:10459000722070696E2320616E6420636F6E6E6599
:1045A0006374696F6E73004D657373616765205244
:1045B00065636569766564004E6F7468696E67202F
:1045C0005265636569766564002C0000000000098F
:1045D000195019331943191F1930190D0A006E614A
:0C45E0006E00696E66006F7666002E00AB
:00000001FF
