:100000000C9405010C94CE090C94A7090C9480095A
:100010000C9459090C942D010C942D010C94320967
:100020000C942D010C942D010C94BD0E0C942F0FEB
:100030000C942D010C942D010C942D010C942D0188
:100040000C942D010C942D010C942D010C942D0178
:100050000C942D010C942D010C942D010C94E808A6
:100060000C942D010C942D010C942D010C942D0158
:100070000C942D010C942D010C942D010C942D0148
:100080000C942D010C942D010C942D010C942D0138
:100090000C942D010C942D010C942D010C942D0128
:1000A0000C942D010C942D010C942D018604520406
:1000B000D004560459045C046004630467046A04B1
:1000C0006D047004730477047B047F048204D106FA
:1000D000D406C306C706CD06F506F506F506D8060E
:1000E000DC06E006E606EA06F506F006040802016C
:1000F0001040804010204080408008020401804071
:100100002010020110801020404020000000002537
:100110000028002B002E0031000404040404030412
:100120000502020202040302020202060606060695
:100130000604040202020404070605040100080A7A
:100140000B0C0D0900000000240027002A002D00E0
:100150003000000000002300260029002C002F00A2
:100160000000000200090F0000030401000C000061
:100170000000000000000000000000000000000877
:100180000B0002020201000904000001020200004B
:1001900005240010010524010101042402060524A0
:1001A0000600010705810310004009040100020A4E
:1001B000000000070502024000000705830240001E
:1001C000000403090441726475696E6F204C4C434E
:1001D0000041726475696E6F204C656F6E61726468
:1001E0006F00120100020000004041233680000130
:1001F0000102030112010002EF0201404123368097
:10020000000101020301461C2C1D11241FBECFEF6B
:10021000DAE0DEBFCDBF23E0A8E7B2E001C01D9267
:10022000AE35B207E1F712E0A0E0B1E0E2E3F3E4BB
:1002300002C005900D92A837B107D9F711E0C4E0CC
:10024000D1E004C02197FE010E943C1DC330D107BC
:10025000C9F70E94D2110C948C210C9400001F93BA
:10026000CF93DF93182FCFEED2E060E088890E9411
:10027000660783E00E94F509812F0E94F50980E05E
:100280000E94F509182F61E088890E946607812F76
:10029000DF91CF911F910895CF92DF92FF920F933C
:1002A0001F93CF93DF931F92CDB7DEB7F82E162F93
:1002B000042F60E08091FF0279830E94660782E04C
:1002C0000E94F5098F2D0E94F509F12EC12E79812A
:1002D000D72E8C2D8F19801730F4F60181916F0184
:1002E0000E94F509F6CF61E08091FF020F90DF9147
:1002F000CF911F910F91FF90DF90CF900C946607E4
:100300000F931F93CF93DF93082F162FCFEED2E0DA
:1003100060E088890E94660782E00E94F509802FCC
:100320000E94F509812F0E94F50961E08889DF911B
:10033000CF911F910F910C946607EF92FF920F934C
:100340001F93CF93DF931F92CDB7DEB7182FF62EF2
:10035000E42E60E08091FF0279830E94660783E0CB
:100360000E94F509812F0E94F5090F2D7981172F21
:10037000F12CFE1459F0F8E0FF1641F080E00E94E5
:10038000F509F80181938F01F394F3CF61E0809137
:10039000FF020F90DF91CF911F910F91FF90EF908F
:1003A0000C9466070F931F93CF93DF93CDB7DEB7FF
:1003B00029970FB6F894DEBF0FBECDBF80912803FA
:1003C00090912903892B09F4A0C00E94FD07009198
:1003D0002D0310912E0320912F0330913003DC0167
:1003E000CB01801B910BA20BB30BC297A105B105EA
:1003F00060F3F89480912303909124039A83898376
:10040000E0912803F0912903DF011196808189870B
:1004100090912603E0913103F091320380913303F0
:1004200091FF2EC09081982B988790818095892389
:100430008F838F818C8388E08B8358856F8149857A
:100440003B812C8189819A81508347FD252F3A95E4
:100450002083262F39F0441F00C000006083000075
:1004600000C0F2CF38E04D9160830000019761F742
:10047000F0933203E093310349873B832C8338C0E8
:100480009081982B98879081809589238F838F8185
:100490008E8388E08D8358856F8149853D812E81CB
:1004A00089819A81508347FD252F00C000C0208399
:1004B00000C000C000C000C000C060830000262F44
:1004C0003A9541F0441F000000C000C000C000C0C9
:1004D00000C0E8CF38E04D9100C0608300C00197B4
:1004E00009F7F0933203E093310349873D832E836C
:1004F0009A83898378940E94FD0760932D037093FB
:100500002E0380932F039093300329960FB6F8940F
:10051000DEBF0FBECDBFDF91CF911F910F91089528
:100520008F929F92AF92BF92CF92DF92EF92FF9203
:100530004B01AA24BB24F82DC52ED62EE72EFF246E
:10054000EC2D342F20912703222361F0829E40015D
:100550001124F92DC29E60011124ED2D429FA001AE
:100560001124352FAC01440F551F840F951F409166
:10057000280350912903840F951F20912A03DC0141
:10058000A20FB11DFC9320912B03DC01A20FB11D22
:10059000EC9320912C03FC01E20FF11D3083FF90BE
:1005A000EF90DF90CF90BF90AF909F908F90089585
:1005B000EF92FF920F931F93CF93DF931F92CDB7CC
:1005C000DEB7082F162F8FEEE82E82E0F82E60E0BF
:1005D000F701808949830E94660785E00E94F5093A
:1005E000802F0E94F509812F0E94F5094981842FEF
:1005F0000E94F50961E0F70180890F90DF91CF91AA
:100600001F910F91FF90EF900C9466070F931F932B
:10061000CF93DF9300D000D0CDB7DEB76130B9F40F
:100620002C833B838A0122273327602F6C71902F04
:10063000937048E0649F900D112498609A8398010C
:1006400075E0369527957A95E1F729830DC0B901B4
:1006500093E0769567959A95E1F769832295220F45
:10066000207E2A831C821B8244E0BE016F5F7F4F85
:100670000E944C010F900F900F900F90DF91CF913F
:100680001F910F9108950F931F93CF93DF9300E075
:1006900010E080E50E942F01982F987083FD02C022
:1006A000C1E502C0C0E092E00F5F1F4F923021F41D
:1006B0000233110571F747C00233110509F443C035
:1006C0004091F40265EF72E085E08C0F0E944C01CE
:1006D0008091FD02813029F48091F402806480933E
:1006E000F4026091F40284E08C0F0E94800120915A
:1006F000F0023091F1024091F2025091F3026091C8
:10070000EF028C2F0E940603C15048E068E08C2F56
:100710000E94D80200E010E00F5F1F4F8C2F0E9454
:100720002F01D82F61E070E080E090E00E94220865
:10073000D3FF04C00233110579F707C00233110556
:1007400021F080E003C086E001C087E0DF91CF9117
:100750001F910F910895BC01009791F0FC01019049
:100760000020E9F73197AF01481B590BE0919F0238
:10077000F091A0020280F381E02D8FE992E00994CC
:1007800080E090E00895CF93DF930E94AB03EC01EB
:1007900089E691E00E94AB038C0F9D1FDF91CF9102
:1007A00008958F929F92AF92BF920F931F93CF9312
:1007B000DF93CDB7DEB7A1970FB6F894DEBF0FBEBB
:1007C000CDBF19A2423008F44AE08E010F5D1F4FE1
:1007D000842E912CA12CB12CA50194010E945B21A7
:1007E000E62FB901CA0101501109EA3014F4E05DA5
:1007F00001C0E95CD801EC93232B242B252B61F756
:10080000C8010E94AB03A1960FB6F894DEBF0FBEDD
:10081000CDBFDF91CF911F910F91BF90AF909F906F
:100820008F900895CF93C82F482F60EE8FE00E94DD
:10083000D8028FE00E942F01807E91E08C1301C0CE
:1008400090E0892FCF910895CF93DF93C82F60E078
:100850008091FF020E94660780EC0E94F50961E02A
:100860008091FF020E9466076AE070E080E090E0FD
:100870000E94220880E80E941204D82F6AE070E0EB
:1008800080E090E0D11186C00E9422084C2F50E0F9
:10089000FA013197E131F10508F078C0EA5AFF4FCB
:1008A0000C943C1DC7E8DFEF6FE133C0C7E0DAEB23
:1008B00079C0C5E8D1EF76C0C7E0DEEB69E029C0BA
:1008C000C7E8DFEF02C0C7E8DAEF67E022C0C7E899
:1008D000DFEF0BC0C7E0DEEB08C0C7E0DDEA05C014
:1008E000C7E8DAEF02C0C6E8D0EF63E012C0C7E89D
:1008F000DAEF61E00EC0C5E8D1EF61E40AC0C6E8F6
:10090000D0EF02C0C2E8D0ED60E003C0C7E8DFEF7F
:100910006FE38AE20E9480016D2F89E20E948001CC
:100920006C2F88E20E9480016AE070E080E090E035
:100930000E942208C0E360E08C2F0E94800160E0EA
:1009400080E18C0F0E94800160E080E28C0F0E94A9
:100950008001CF5FCE3379F760E080E60E948001AE
:1009600060E080E70E94800163E08BE20E948001EA
:1009700044E064E680E60E94D80240E060E680E75A
:100980000E94D80280E00E941204D82F6AE070E032
:1009900080E090E00E9422088D2FDF91CF91089592
:1009A000C7E8DFEF6FE0B5CF4F925F926F927F9213
:1009B0008F929F92AF92BF92CF92DF92EF92FF926F
:1009C0006B017C019B01AC010E94801F882319F000
:1009D00089E692E01AC046015701E894B7F82FEF74
:1009E0003FEF4FE75FE7C501B4010E94801F81110F
:1009F00010C02FEF3FEF4FE75FE7C501B4010E9442
:100A0000AF1D181634F48DE692E00E94AB037C0112
:100A100088C02FEF3FEF4FE75FE4C701B6010E94A8
:100A20000E1F18161CF481E792E0EFCF2FEF3FEF77
:100A30004FE75FECC701B6010E94AF1D87FDF3CF02
:100A400020E030E0A901C701B6010E94AF1D87FF79
:100A500011C0E0919F02F091A0020190F081E02D81
:100A60006DE28FE992E009955C01F7FAF094F7F8EE
:100A7000F09402C0A12CB12C2AE037ED43EA5BE3ED
:100A8000C701B6010E94431D2B013C010E942D1E8F
:100A90006B017C010E945C1E9B01AC01C301B20191
:100AA0000E94421D2B013C014AE0C701B6010E9491
:100AB000D1037C01EA0CFB1C85E792E00E94AB03AA
:100AC000E80EF91E20E030E040E251E4C301B2013B
:100AD0000E94131F2B013C010E942D1E4B01A12CD3
:100AE000B12C4AE0C501B4010E94D103E80EF91E01
:100AF000C501B4010E945C1E9B01AC01C301B2019F
:100B00000E94421D20E030E040E251E40E94131FA9
:100B10000E942D1E80E090E04AE00E94D103E80E82
:100B2000F91E89E691E00E94AB038E0D9F1DFF9098
:100B3000EF90DF90CF90BF90AF909F908F907F907D
:100B40006F905F904F900895CF92DF92EF92FF9257
:100B5000CF93DF936B017C01E0919F02F091A002A3
:100B60000190F081E02D6DE28FE992E00995EC01B2
:100B700066277727CB016C197D098E099F094AE00A
:100B80000E94D1038C0F9D1FDF91CF91FF90EF90BA
:100B9000DF90CF900895CF93DF93BC01990F880B1E
:100BA000990B97FF03C00E94A40503C04AE00E946E
:100BB000D103EC0189E691E00E94AB038C0F9D1FED
:100BC000DF91CF9108951F93CF93DF93CFEED2E0C3
:100BD00060E088890E94660780EA0E94F50980E04B
:100BE0000E94F509182F61E088890E946607812F0D
:100BF000DF91CF911F9108950F931F93CF93DF93B0
:100C000000D000D0CDB7DEB7182F1092EF021092AF
:100C1000F0021092F1021092F2021092F30244E0FC
:100C2000BE016F5F7F4F0E949D018A819981482F8D
:100C300050E065E0559547956A95E1F728E0929F69
:100C4000400D511D1124052E000C660B770B4093AF
:100C5000F0025093F1026093F2027093F30283FF6B
:100C600029C092E0440F551F661F771F9A95D1F750
:100C70008370480F511D611D711D762F652F542FF4
:100C800044278B81480F511D611D711D762F652FE3
:100C9000542F44278C81480F511D611D711D4093B5
:100CA000F0025093F1026093F2027093F30281E03C
:100CB0008093EF028FEF810F0E942F01082F84E0B5
:100CC000810F0E942F01482F03FF04C081E0809311
:100CD000FD0202C01092FD024F704093F40265EFD6
:100CE00072E085E0810F0E949D010F900F900F90A0
:100CF0000F90DF91CF911F910F910895CF93DF93C4
:100D00001F92CDB7DEB76983DC01ED91FC910280C3
:100D1000F381E02D41E050E0BE016F5F7F4F099508
:100D20000F90DF91CF91089583E08093E900809147
:100D3000F200882319F08AE38093E8000895FC010B
:100D40008485958597FD0BC09FB7F89482E08093CA
:100D5000E9008091F2009FBF90E0019608959FB74F
:100D6000F89482E08093E9008091F2009FBF90E0C8
:100D7000089590E0FC013197EF30F105B0F5E959A5
:100D8000FF4F0C943C1D809180008F7703C08091B1
:100D900080008F7D80938000089580918000877F00
:100DA000F9CF84B58F7702C084B58F7D84BD089557
:100DB000809190008F7707C0809190008F7D03C055
:100DC00080919000877F8093900008958091C0006B
:100DD0008F7703C08091C0008F7D8093C0000895FD
:100DE0008091C200877F8093C2000895089581E0BA
:100DF0008093800208950F931F93CF93DF931F92E8
:100E0000CDB7DEB78C01FC018485958597FF0EC0B8
:100E1000CE0101960E94930E019719F4298130E0CA
:100E200002C02FEF3FEFF80135872487F801848552
:100E300095850F90DF91CF911F910F910895CF93DA
:100E4000DF931F92CDB7DEB7FC018485958597FDB2
:100E500005C02FEF3FEF358724870BC0CE010196E9
:100E60000E94930E019719F4898190E002C08FEFE0
:100E70009FEF0F90DF91CF910895CF93DF93282FAD
:100E800030E0F901E05AFE4F8491F901E451FF4F3F
:100E9000D491F901E75EFE4FC491CC2391F081110A
:100EA0000E94B906EC2FF0E0EE0FFF1FEE5AFE4F46
:100EB000A591B491EC91ED2381E090E021F480E0E4
:100EC00002C080E090E0DF91CF9108951F93CF930F
:100ED000DF93282F30E0F901E05AFE4F8491F901A9
:100EE000E451FF4FD491F901E75EFE4FC491CC234A
:100EF000C9F0162F81110E94B906EC2FF0E0EE0F19
:100F0000FF1FE55FFE4FA591B4918FB7F8941111C3
:100F100005C09C91ED2FE095E92302C0EC91ED2BEB
:100F2000EC938FBFDF91CF911F910895CF93DF9303
:100F300090E0FC01E451FF4F2491FC01E75EFE4F7D
:100F40008491882361F190E0880F991FFC01EC5B8C
:100F5000FE4FC591D491FC01E55FFE4FA591B49180
:100F6000611109C09FB7F8948881209582238883F6
:100F7000EC912E230BC0623061F49FB7F894388156
:100F8000822F809583238883EC912E2B2C939FBFF7
:100F900006C08FB7F894E8812E2B28838FBFDF918E
:100FA000CF910895823108F08251E82FF0E0E85C9B
:100FB000FE4FE49180917B00E3FB222720F930E093
:100FC00095E0220F331F9A95E1F78F7D282B209310
:100FD0007B00E770E064E0937C0080917A0080649D
:100FE00080937A0080917A0086FDFCCF8091780012
:100FF0002091790090E0922B08953FB7F89480916A
:10100000360390913703A0913803B091390326B588
:10101000A89B05C02F3F19F00196A11DB11D3FBF30
:10102000BA2FA92F982F8827820F911DA11DB11DBE
:10103000BC01CD0142E0660F771F881F991F4A95BA
:10104000D1F708958F929F92AF92BF92CF92DF9285
:10105000EF92FF926B017C010E94FD074B015C0146
:10106000C114D104E104F104F1F00E94FD07DC0198
:10107000CB0188199909AA09BB09883E9340A105AB
:10108000B10570F321E0C21AD108E108F10888EE39
:10109000880E83E0981EA11CB11CC114D104E10488
:1010A000F10419F7DDCFFF90EF90DF90CF90BF9064
:1010B000AF909F908F9008958F929F92AF92BF9222
:1010C000CF92DF92EF92FF920F931F93CF93DF9314
:1010D0005C016B018A0180912901882309F45EC0BB
:1010E00080914303882309F459C08091400380FF15
:1010F00005C08091E00082608093E000E8018AEF03
:10110000F82E93E0E92E2FE3822E3AE3932E2097D8
:1011100009F43DC08FB7F894E092E9009091E8009F
:1011200095FF06C09091F200282D291B922F01C037
:1011300090E08FBF91110AC0FA94FF2079F161E02D
:1011400070E080E090E00E942208E1CF292F30E09B
:10115000C217D3070CF49C2F8FB7F894E092E900E4
:101160002091E80025FF11C0292F30E0C21BD30BCE
:10117000F601915020F041914093F100FACFC20E58
:10118000D31E9091E80095FF13C08FBFC0CF5D982C
:1011900084E6809341031016110644F081E090E04C
:1011A000F5019383828380E090E005C0C80103C00D
:1011B0009092E800EACFDF91CF911F910F91FF90BD
:1011C000EF90DF90CF90BF90AF909F908F90089559
:1011D0001F920F920FB60F9211242F933F938F936C
:1011E0009F93AF93BF938091780290917902A091E1
:1011F0007A02B0917B023091350323E0230F2D3723
:1012000020F40196A11DB11D05C026E8230F02960A
:10121000A11DB11D2093350380937802909379022C
:10122000A0937A02B0937B028091360390913703AA
:10123000A0913803B09139030196A11DB11D80938F
:10124000360390933703A0933803B0933903BF91CB
:10125000AF919F918F913F912F910F900FBE0F9063
:101260001F9018951F920F920FB60F9211242F9373
:101270003F934F935F936F937F938F939F93AF931E
:10128000BF93EF93FF93E0910801F0910901099555
:10129000FF91EF91BF91AF919F918F917F916F914E
:1012A0005F914F913F912F910F900FBE0F901F9024
:1012B00018951F920F920FB60F9211242F933F9300
:1012C0004F935F936F937F938F939F93AF93BF934E
:1012D000EF93FF93E0910601F09107010995FF91CB
:1012E000EF91BF91AF919F918F917F916F915F919E
:1012F0004F913F912F910F900FBE0F901F90189517
:101300001F920F920FB60F9211242F933F934F937A
:101310005F936F937F938F939F93AF93BF93EF935D
:10132000FF93E0910401F09105010995FF91EF9180
:10133000BF91AF919F918F917F916F915F914F91ED
:101340003F912F910F900FBE0F901F9018951F92F5
:101350000F920FB60F9211242F933F934F935F93E9
:101360006F937F938F939F93AF93BF93EF93FF936D
:10137000E0910201F09103010995FF91EF91BF9176
:10138000AF919F918F917F916F915F914F913F911D
:101390002F910F900FBE0F901F9018951F920F92D4
:1013A0000FB60F9211242F933F934F935F936F9338
:1013B0007F938F939F93AF93BF93EF93FF93E091AE
:1013C0000001F09101010995FF91EF91BF91AF915B
:1013D0009F918F917F916F915F914F913F912F914D
:1013E0000F900FBE0F901F9018958EBD00000DB48A
:1013F00007FEFDCF8EB50895CF93CFB7F8948091B7
:101400003403811127C0EAE2F1E08491EDEFF0E0CE
:101410009491E82FF0E0EE0FFF1FEC5BFE4FA591DB
:10142000B491EC91E92321F461E081E10E94660727
:1014300061E081E10E9496078CB580618CBD8CB51E
:1014400080648CBD61E08FE00E94960761E080E1DE
:101450000E949607809134038F5F80933403CFBF3F
:10146000CF910895AF92BF92CF92DF92EF92FF9209
:101470000F931F93CF93DF931F92CDB7DEB75C011D
:101480007B018B016C0182E0C80ED11CF8016191D7
:101490008F01C50169830E9413216981681719F0C2
:1014A000C5010E941B21FFEFAF1ABF0AAC14BD0497
:1014B00069F7C7010F90DF91CF911F910F91FF90B6
:1014C000EF90DF90CF90BF90AF9008950F931F9350
:1014D000CF93DF938C01EB010E9413218883C80115
:1014E00001960E9413218983CE01DF91CF911F9134
:1014F0000F910895CF92DF92EF92FF92CF93DF93F7
:10150000C4E1D0E0C12CD12C760182E10E94D20747
:10151000BC01990F880B990B0E945E1E9B01AC01C8
:10152000C701B6010E94431D6B017C01219769F739
:1015300020E030E048E951E40E94B41D0E94261EDC
:10154000CB01DF91CF91FF90EF90DF90CF90089586
:10155000CF93DF93C0910A01D0910B010E947A0AC8
:10156000BE01681B790B072E000C880B990B0E949B
:101570005E1E20917C0230917D0240917E0250914E
:101580007F020E94131F0E94261ECB0177FF02C01C
:1015900080E090E0DF91CF9108951F93CF93DF9388
:1015A000182FC82FD0E0FE01E45CFE4F80810E941E
:1015B0003D07FE01ED57FD4F90819817E1F04091F6
:1015C0001701813059F4808321E030E001C0220FFF
:1015D0001A95EAF7242B2093170111C0108221E0FD
:1015E00030E0C90101C0880F1A95EAF7809584237D
:1015F0008093170103C081E0913009F080E0DF9112
:10160000CF911F9108950F931F93CF930CE311E097
:10161000C0E0F80181918F01833619F08C2F0E9470
:10162000CD0ACF5FC630A9F7CF911F910F910895D2
:101630008F929F92AF92BF92CF92DF92EF92FF92E2
:101640001F93CF93DF93C82F4A015B010E940521AE
:10165000C1110E94030BC0900403D0900503E090D9
:101660000603F090070385E0CC0CDD1CEE1CFF1C8C
:101670008A95D1F7C828D928EA28FB2860918B02DF
:1016800070E080E090E00E942208C5E0D0E018E021
:101690001092EF02C092F002D092F102E092F202B8
:1016A000F092F3021093F4021092FD02E3E1F1E0F4
:1016B000A5EFB2E081918D9381E0EB31F807D1F78E
:1016C0000E944303882311F0219711F7DF91CF91F6
:1016D0001F91FF90EF90DF90CF90BF90AF909F90C1
:1016E0008F9008950F931F9300911C0310911D0379
:1016F00020911E0330911F03601771078207930723
:10170000B1F1009118031091190320911A0330913F
:101710001B03601771078207930759F100910C03AF
:1017200010910D0320910E0330910F036017710784
:101730008207930701F10091140310911503209182
:101740001603309117036017710782079307A9F0FA
:101750000091100310911103209112033091130393
:10176000601771078207930751F080E009C081E09C
:1017700007C082E005C083E003C084E001C085E0CB
:101780001F910F9108958F929F92AF92BF92EF9207
:10179000FF920F931F93CF93DF934B015C01142FA4
:1017A000C22F0E94720B8093140181E08093150177
:1017B000111101C01AE0D0E0E02EF12CCE15DF05AA
:1017C00070F48091210390912203C817D90728F45F
:1017D000B501A401CE010E9490022196EFCF0E9494
:1017E000D201612F70E080E090E0DF91CF911F91F6
:1017F0000F91FF90EF90BF90AF909F908F900C94BF
:1018000022080F9380911201882399F160910803B7
:101810007091090380910A0390910B0300E220E08C
:1018200040E00E94C30B109282020E94030B1092B0
:101830001201109289021092810210928A02809104
:10184000040390910503A0910603B0910703833030
:101850009105A105B10521F00897A105B10549F44D
:1018600060E085E00E94660760E086E00F910C94DE
:1018700066070F9108950F93E3E1F1E086E081831D
:1018800085E08283609110037091110380911203AF
:101890009091130300E220E044EF0E94C30B64E642
:1018A00070E080E090E00E94220860911C0370913B
:1018B0001D0380911E0390911F0320E044EF0E94BE
:1018C000C30B64E670E080E090E00E942208609123
:1018D00018037091190380911A0390911B0320E063
:1018E00044EF0E94C30B64E670E080E090E00E9449
:1018F000220860910C0370910D0380910E0390916A
:101900000F0320E044EF0E94C30B64E670E080E028
:1019100090E00E9422086091140370911503809159
:1019200016039091170320E044EF0E94C30B64E676
:1019300070E080E090E00E942208609108037091BE
:10194000090380910A0390910B0320E044EF0E9469
:10195000C30B0F9108955F926F927F928F929F9227
:10196000AF92BF92CF92DF92EF92FF920F931F93AD
:10197000CF93DF931F92CDB7DEB74B015C01522EA0
:101980007E2C49830E94720B8093140184E0809323
:1019900015014981411101C04AE0511002C055248E
:1019A000539410E0C42ED12CE12CF12C81E085154C
:1019B000F0F4602E1AC04091080350910903609121
:1019C0000A0370910B03862D90E020912103309142
:1019D00022038217930710F40E9490020E94D20102
:1019E000C701B6010E9422086394671420F3602E99
:1019F00014C0862D90E0209121033091220382179C
:101A0000930720F4B501A4010E9490020E94D20124
:101A1000C701B6010E9422086394671450F31F5F48
:101A20001511C4CF0F90DF91CF911F910F91FF90AF
:101A3000EF90DF90CF90BF90AF909F908F907F906E
:101A40006F905F9008958091520381110DC082E0E4
:101A500080934E0384E080934F03109251031092C1
:101A6000500381E0809352038EE493E008950E9436
:101A7000B220CF92DF92EF92FF920F931F93CF93FA
:101A8000DF931F92CDB7DEB7182F062FE42E862FD7
:101A9000880F8E5F99830E94971183E00E949711AF
:101AA000F12EC12E9981D92E8C2D8F19801798F483
:101AB000F601E7FE02C0849101C080810E94971167
:101AC000182F80E00E9497118123FFEFCF1ADF0AC1
:101AD0008111EACF01C081E00F90DF91CF911F917A
:101AE0000F91FF90EF90DF90CF900895DF92EF92EB
:101AF000FF920F931F93CF93DF93D82E8A017B0120
:101B0000E40EF51EEB01CE15DF0571F0D7FE03C024
:101B1000FE01849101C088810E9497112196811154
:101B2000F2CF8FEF9FEF01C0C801DF91CF911F91DE
:101B30000F91FF90EF90DF9008950F931F93CF9335
:101B4000DF931F92CDB7DEB782E0898342E450E095
:101B50006FE771E080E80E94760D0E94230DDC01A2
:101B600012960D911C9113970115110569F0D8017A
:101B7000ED91FC910280F381E02DBE016F5F7F4FFC
:101B8000C801099597FF07C089810F90DF91CF9118
:101B90001F910F910895F80100851185E5CF0E94EE
:101BA000E30580FF06C081E60E94FC0540E061E09D
:101BB00007C081FF1CC081E70E94FC0540E062E095
:101BC0008CE20E94D8028091F40280934C03A5EF2E
:101BD000B2E0E4E4F3E090E09F012454334028179E
:101BE00039071CF42D912193F7CF80E008951092CE
:101BF0004C0384E008950F931F93CF93DF9300D09D
:101C000000D0CDB7DEB7082F9A01AB016AE070E0D3
:101C100080E090E029833A834B835C830E94220812
:101C200080E80E941204182F29813A814B815C813F
:101C3000882329F06AE070E080E090E029C002305B
:101C400099F038F4002369F00130C1F460E084E0D9
:101C500013C0043079F058F0053081F460E088E179
:101C60000BC060E080E008C060E088E005C060E094
:101C700080E102C060E084E10E94060380E00E94EF
:101C80001204182F6AE070E080E090E0112321F048
:101C90000E942208812F03C00E94220880E00F903A
:101CA0000F900F900F90DF91CF911F910F9108959A
:101CB000CF93DF93D82F6AE070E080E090E00E943D
:101CC000220880E80E941204C82F882329F06AE0C5
:101CD00070E080E090E01DC0D11107C02FE130E03E
:101CE00040E050E060E080E208C0D13041F42FE1F4
:101CF00030E040E050E060E084E20E94060380E0D3
:101D00000E941204C82F6AE070E080E090E0CC23CB
:101D100021F00E9422088C2F03C00E94220880E03C
:101D2000DF91CF910895FC0180914303811103C09D
:101D30008FEF9FEF08959FB7F89482E08093E900BA
:101D40002091F20030E01216130614F421E030E086
:101D50002115310559F0289884E68093420380913B
:101D6000F10080838091F200882319F09FBFC901A0
:101D700008958BE68093E800F9CF1F920F920FB67B
:101D80000F9211248F939F938091E1009091E10035
:101D9000937F9093E10083FF0FC01092E90091E0E0
:101DA0009093EB001092EC0092E39093ED00109270
:101DB000430398E09093F00082FF20C093E090935B
:101DC000E9009091F200992319F09AE39093E800CA
:101DD00090914103992339F0909141039150909350
:101DE0004103992389F190914203992339F090910D
:101DF0004203915090934203992341F184FF10C014
:101E00008091E2008E7E81608093E2008091E1000B
:101E10008F7E8093E100809140038E7E806111C0AF
:101E200080FF16C08091E2008E7E80618093E20088
:101E30008091E1008E7E8093E100809140038E7E50
:101E400081608093400304C05D9ACDCF289AD6CF9D
:101E50009F918F910F900FBE0F901F9018951F921A
:101E60000F920FB60F921124CF92DF92EF92FF9252
:101E70000F931F932F933F934F935F936F937F9392
:101E80008F939F93AF93BF93EF93FF93CF93DF9382
:101E9000CDB7DEB76C97DEBFCDBF1092E900809161
:101EA000E80083FFFAC168E0CE0145960E94C511A3
:101EB00082EF8093E8008D8987FF05C09091E8004C
:101EC00090FFFCCF03C09EEF9093E800982F907690
:101ED00009F0C6C09E892F89188D91110CC08038D9
:101EE00029F480913F038093F10002C01092F10029
:101EF0001092F10047C1422F50E0512B913051F424
:101F0000811140C14130510509F03CC180913F032E
:101F10008D7F0BC0933061F4811134C14130510584
:101F200009F030C180913F03826080933F032AC152
:101F3000953041F48091E80080FFFCCF2068209329
:101F4000E30020C1963009F05FC0EB8CFC8C10924E
:101F5000E90010923D0310923C03123091F510926B
:101F60003B0310923A030E949D0D99E0BE016F5F02
:101F70007F4FDB01E92F1D92EA95E9F799831A83D8
:101F800091E09E8390EA98879AEF998720913C038D
:101F900030913D03275F3F4F3C832B838D8310920D
:101FA000E90010923D0310923C03F0923B03E09253
:101FB0003A0349E050E080E00E94760D0E949D0DBA
:101FC000E1C0F0923B03E0923A030E94230DDC0152
:101FD0001296ED90FC901397E114F10409F4C0C03F
:101FE000D701ED91FC910480F581E02DBE016B5E7F
:101FF0007F4FC7010995009719F00CF0C3C0C6C008
:10200000F701E084F184E8CF973009F4BFC098303D
:1020100021F481E08093F100B5C0993009F0B2C09D
:10202000837009F0B3C0E9E5F1E081E021E036E337
:102030009081992361F08093E9002093EB009191C6
:102040009093EC003093ED008F5F873089F78EE737
:102050008093EA001092EA008F898093430392C034
:102060008B8D9C8D1092E90010923D0310923C03E1
:1020700090933B0380933A03898D811156C08E89DA
:102080009D89913A59F4813209F080C047E050E0CF
:1020900062E271E080E00E94760D74C0913209F036
:1020A00075C0833289F4888D90E0982F88272F8916
:1020B000822BA0E0B0E080931E0190931F01A093BB
:1020C0002001B09321015EC0803269F48091E80064
:1020D00082FFFCCF67E082E291E00E94C5118BEFA6
:1020E0008093E80006C0823209F04CC08F8980934B
:1020F000290180913E03882319F0EEEFFAE002C037
:10210000E0E0F8E08091220190912301A091240168
:10211000B0912501803B9440A105B10509F088C02C
:102120008091290180FFA0C083C00E94230DDC01A3
:1021300012960D911C9113970115110539F1D801D3
:10214000ED91FC910190F081E02DBE016B5E7F4F1F
:10215000C8010995811116C0F80100851185ECCFE1
:102160001130C1F0133091F48F89882309F455C0E0
:102170008230E9F440E860E181ED91E00E94390DA0
:10218000882321F08EEF8093E80087C081E280935E
:10219000EB0083C08B8D9C8D089711F410934D0339
:1021A00080914D03811136C062EE71E038C08130FC
:1021B00029F440E86BE085EC91E0E0CF833031F723
:1021C0000E94230DDC011296ED90FC9013978E0176
:1021D0000F5F1F4F6801E114F10479F0D701ED9111
:1021E000FC910680F781E02DB801C7010995080F21
:1021F000111DF701E084F184EECFD8011C92F601A5
:1022000001900020E9F73197BF016C197D0940E08A
:10221000C601B4CF64EF71E002C061EC71E06115FA
:10222000710509F4B3CFFB01449150E080E833CF4E
:102230000FB6F894A8958091600088618093600043
:10224000109260000FBEA895EE3F2AE0F20739F029
:102250008091FE0A9091FF0A9183808393CF109220
:10226000FF0A1092FE0A8ECFEE3F8AE0F80731F0A7
:10227000808191819093FF0A8093FE0A87E797E718
:10228000918380839BE088E10FB6F894A8958093B2
:1022900060000FBE9093600075CF6C960FB6F894F7
:1022A000DEBF0FBECDBFDF91CF91FF91EF91BF9108
:1022B000AF919F918F917F916F915F914F913F91DE
:1022C0002F911F910F91FF90EF90DF90CF900F9083
:1022D0000FBE0F901F901895CF92DF92EF92FF9252
:1022E0000F931F93CF93DF936C017A018B01C0E0B2
:1022F000D0E0CE15DF0589F0D8016D918D01D601B2
:10230000ED91FC910190F081E02DC6010995892B9A
:1023100011F47E0102C02196ECCFC701DF91CF916D
:102320001F910F91FF90EF90DF90CF900895409113
:102330003C0350913D0320913A0330913B034217F7
:102340005307B4F49091E8009570E1F39091E800A0
:1023500092FD19C08093F10080913C0390913D0360
:1023600001968F739927892B19F48EEF8093E800DB
:1023700080913C0390913D03019690933D0380939F
:102380003C0381E0089580E00895615030F0209191
:10239000F100FC0120830196F8CF289884E6809311
:1023A00042030895CF93DF93CDB7DEB728970FB6DA
:1023B000F894DEBF0FBECDBF789484B5826084BD33
:1023C00084B5816084BD85B5826085BD85B5816039
:1023D00085BD80916E00816080936E0010928100B7
:1023E0008091810082608093810080918100816072
:1023F0008093810080918000816080938000809133
:10240000910082608093910080919100816080931F
:102410009100809190008160809390008091C10034
:1024200084608093C1008091C10082608093C1006C
:102430008091C10081608093C1008091C300816060
:102440008093C3008091C00082608093C00080911F
:10245000C20081608093C20080917A008460809382
:102460007A0080917A00826080937A0080917A006D
:10247000816080937A0080917A00806880937A00EE
:102480001092430310923F03109240038091D700B3
:1024900081608093D70080EA8093D80089B58061FD
:1024A00089BD89B5826089BD09B400FEFDCF61E0B8
:1024B00070E080E090E00E9422088091D8008F7C3C
:1024C00080618093D8008091E000807F8093E0005D
:1024D0008091E1008E7E8093E1008DE08093E200A8
:1024E000559A209AEEEFFFE7859194918B3F9C4D92
:1024F00019F481E080933E038091040390910503D9
:1025000024E6289FB001299F700D11248FEF9FEFC3
:102510009093AC028093AB0268517C4F072E000C65
:10252000880B990B0E9422088FE591E00E94AB0373
:102530006091040370910503809106039091070355
:102540004AE00E94D10389E691E00E94AB0381E05A
:102550000E94D207BC01990F880B990B6115710578
:102560008105910511F00E940A2180910403909148
:102570000503A0910603B091070340911C035091FD
:102580001D0360911E0370911F030697A105B105FD
:1025900018F4DB01CA0108C0809118039091190357
:1025A000A0911A03B0911B03809300039093010341
:1025B000A0930203B093030384179507A607B707F8
:1025C00029F485E190E0A0E0B0E004C086E190E06D
:1025D000A0E0B0E080930E0190930F01A093100152
:1025E000B093110161E087E10E94960761E087E105
:1025F0000E9466078091040390910503A091060351
:10260000B091070383309105A105B10521F008972A
:10261000A105B105A1F461E085E00E94960761E0A3
:1026200086E00E94960760E085E00E94660760E011
:1026300086E00E94660762E084E00E9496078CE6CE
:1026400091E00E94C3038091250387FD08C061E0EB
:102650000E94960760E0809125030E94660781E052
:10266000809320030E94D2010E943B0C60911C03C6
:1026700070911D0380911E0390911F0300E220E0E2
:1026800040E00E94C30B8AE791E00E94C3034CE341
:10269000C42E41E0D42E10E0F6018081833609F487
:1026A0004DC062E00E9496078AE891E00E94AB0369
:1026B000F601608170E080E090E04AE00E94D10382
:1026C0008FE891E00E94AB03812F0E94CD0A682F12
:1026D00070E080E090E04AE00E94D103812F0E94E8
:1026E000CD0A811112C06091180370911903809175
:1026F0001A0390911B0338E0E32E00E020E040E055
:102700000E94AB0C83E991E011C060910C037091C1
:102710000D0380910E0390910F0328E0E22E00E05C
:1027200020E040E00E94AB0C89E991E00E94C303E5
:102730006AEF70E080E090E00E942208FFEFCF1A7D
:10274000DF0A1F5F163009F0A7CF84EA91E00E94EC
:10275000C30385EB91E00E94AB030E94FC0988E073
:102760000E9424048823A1F08EE292E00E94C30319
:1027700060910C0370910D0380910E0390910F03F3
:10278000E0E1EE2E08E020E040E00E94AB0CE1CF5B
:10279000609118037091190380911A0390911B03A3
:1027A00050E1E52E08E020E040E00E94AB0C86E915
:1027B00091E00E94C30387EF96E090930901809314
:1027C000080180916A008F7C806280936A00EE9A93
:1027D00080E00E94580E81E00E94580E4091040350
:1027E00050910503609106037091070380E00E94F9
:1027F000FB0D40E050E0BA0181E00E94FB0D4091EA
:10280000040350910503609106037091070382E071
:102810000E94FB0D40E050E0BA0183E00E94FB0DF6
:1028200040910E0150910F016091100170911101C2
:1028300084E00E94FB0D40910403509105036091D8
:1028400006037091070385E00E94FB0D20910403AD
:10285000309105034091060350910703A8EEB3E0C1
:102860000E9448210E942208809104039091050350
:10287000A0910603B091070365E0880F991FAA1F76
:10288000BB1F6A95D1F78F611092EF028093F0021F
:102890009093F102A093F202B093F30288E0809348
:1028A000F4021092FD02EEE8F2E0A5EFB2E08191B1
:1028B0008D9322E0E639F207D1F70E94430364E6E4
:1028C00070E080E090E00E942208809180028823DE
:1028D00051F0109280020E94E305837009F4A2C1B6
:1028E0000E94CF0DF8CF60910C0370910D03809181
:1028F0000E0390910F0308E1E02E00E120E040E09C
:102900000E94AB0C87EC91E00E94C30360E177E288
:1029100080E090E00E942208609108037091090312
:1029200080910A0390910B0300E220E040E00E94B6
:10293000C30B88ED91E00E94C30360E082E10E9436
:1029400096078CE092E00E94C3036CE071E081E0A6
:1029500090E00E94660A6AE071E083E090E00E94E5
:10296000660A00910A0110910B01B801012E000CBA
:10297000880B990B0E945E1E20E030E0A9010E94A6
:10298000AF1D882391F0E0900C01F0900D01B7018C
:102990000F2C000C880B990B0E945E1E20E030E08B
:1029A000A9010E94AF1D8111D9C060910C037091E3
:1029B0000D0380910E0390910F0300E220E040E0B0
:1029C0000E94C30B10927C0210927D0210927E0234
:1029D00010927F020E947A0A6C0160910C03709140
:1029E0000D0380910E0390910F0310E2E12E00E0A1
:1029F00020E040E00E94AB0C85E491E090930D0153
:102A000080930C0190930B0180930A018DE2C8160C
:102A100081E0D80624F00E947A0A6C01F7CF81EF9A
:102A200091E00E94C3030E947A0A20910C01309128
:102A30000D018217930724F490930D0180930C01EC
:102A40008534914084F38FB7F894C0907802D09089
:102A50007902E0907A02F0907B028FBFF8EECF0E01
:102A6000F3E0DF1EE11CF11C2FB7F894809178028F
:102A700090917902A0917A02B0917B022FBF8C15C0
:102A80009D05AE05BF0570F40E947A0A20910A01E7
:102A900030910B01281739073CF790930B01809375
:102AA0000A01E2CF60910A0170910B016E51710928
:102AB00070930B0160930A0180910C0190910D01BC
:102AC000681B790B072E000C880B990B0E945E1E69
:102AD0009B01AC0160E070E080E291E40E94B41DD3
:102AE00060937C0270937D0280937E0290937F02BC
:102AF000609108037091090380910A0390910B0380
:102B0000B0E2EB2E00E020E040E00E94AB0C6CE075
:102B100071E081E090E00E94320A6AE071E083E0B7
:102B200090E00E94320A80910C0190910D010E9468
:102B3000CB0580910A0190910B010E94CB05609119
:102B40007C0270917D0280917E0290917F020E94B2
:102B5000D40483E092E00E94C3033AC0B8016E1926
:102B60007F09072E000C880B990B0E945E1E9B01AB
:102B7000AC0160E070E080E291E40E94B41D6093DB
:102B80007C0270937D0280937E0290937F0260911D
:102B900018037091190380911A0390911B03A0E20E
:102BA000EA2E00E020E040E00E94AB0C68EE73E00B
:102BB00080E090E00E942208609118037091190350
:102BC00080911A0390911B0320E040E00E94AB0C1F
:102BD00080910C0190910D010E94CB0580910A011A
:102BE00090910B010E94CB0560917C0270917D0257
:102BF00080917E0290917F020E94D40483E092E053
:102C00000E94C30310928D0210928C021E0129E0D3
:102C1000220E311C11E0F8E04F2E0E94E305837074
:102C200099F060C4609118037091190380911A03A0
:102C300090911B0348E1E42E00E120E040E00E9477
:102C4000AB0C88E592E060CE90919C0280911D01D2
:102C5000983009F02CC190919B02913081F4813021
:102C6000A1F480911201882309F4E3C160910C035F
:102C700070910D0380910E0390910F03ABC09230C1
:102C800009F0D7C1813009F46BC0823009F4D1C199
:102C9000833021F580911201882309F4CAC1609123
:102CA000140370911503809116039091170300E2AD
:102CB00020E040E00E94C30B1092120180910403B7
:102CC00090910503A0910603B0910703833091050D
:102CD000A105B10509F052C061E03DC0843001F5A5
:102CE00080911201882309F4A4C11092120110925C
:102CF00099028091040390910503A0910603B0917D
:102D0000070383309105A105B10509F0CAC061E050
:102D100085E00E94660761E086E00E94660789C13F
:102D2000853091F1863009F06DC0809112018823C1
:102D300009F47FC110921201809104039091050360
:102D4000A0910603B091070383309105A105B10559
:102D500009F06DC060E085E00E94660760E0DCCFAE
:102D600080911201882309F464C160911C03709161
:102D70001D0380911E0390911F032CC00897A1058D
:102D8000B10509F056C1A8CF80911201882309F43A
:102D900050C18091040390910503A0910603B09166
:102DA000070383309105A105B10521F00897A1051E
:102DB000B10541F461E085E00E94660761E086E0CC
:102DC0000E946607609114037091150380911603A9
:102DD00090911703A0E2EA2E00E021E040E00E947B
:102DE000AB0C609108037091090380910A039091E4
:102DF0000B0321E040E00E94AB0C109212011092F4
:102E0000990217C18730C9F480911201882309F40F
:102E100010C1609108037091090380910A03909199
:102E20000B0300E220E040E00E94C30B83CF089731
:102E3000A105B10509F0FDC08DCF883019F00E94C1
:102E4000010CF7C080911201882309F4F2C060914F
:102E50001403709115038091160390911703F0E20B
:102E6000EF2E00E021E040E00E94AB0C60910C03EB
:102E700070910D0380910E0390910F0321E040E0CB
:102E80000E94AB0C609108037091090380910A03C2
:102E900090910B0321E040E00E94AB0C10921201D4
:102EA00028CF0897A105B10509F0C3C030CF9930EC
:102EB00009F0BFC090919B02913069F59091120189
:102EC0008130D9F4992309F467C260911C03709191
:102ED0001D0380911E0390911F03E0E2EE2E00E09F
:102EE00021E040E00E94AB0C60911003709111034F
:102EF000809112039091130374C08230B9F4992326
:102F000009F44AC21092120110929902809197021C
:102F1000909198027BC0923009F03EC290911201CC
:102F2000813009F444C0823009F462C08730D1F4A2
:102F300080911201882309F42FC24FE150E060E034
:102F400070E080E00E94180B609108037091090303
:102F500080910A0390910B0300E220E040E00E9480
:102F6000C30B22C080911201882309F415C210926C
:102F700098021092970210929E0210929D02109257
:102F80001A01109219016091080370910903809150
:102F90000A0390910B0300E220E040E00E94C30B83
:102FA000109282020E94030B10921201F5C1992324
:102FB00009F4F2C160911C0370911D0380911E03FE
:102FC00090911F0350E2E52E00E021E040E00E94D6
:102FD000AB0C60910C0370910D0380910E039091E6
:102FE0000F0321E040E00E94AB0C1092120173C06D
:102FF000992321F010921201109299028091970268
:10300000909198028F3F91050CF0C6C10196909364
:1030100098028093970280931A0180919D02809379
:1030200019014FE150E060E070E080E00E94180B71
:10303000B3C180911D01813009F050C0809112010F
:10304000882309F4A9C1609114037091150380913C
:1030500016039091170340E2E42E00E021E040E0E7
:103060000E94AB0C609108037091090380910A03E0
:1030700090910B0321E040E00E94AB0C10921201F2
:1030800010929A028091040390910503A091060387
:10309000B09107030697A105B10548F480911C0380
:1030A00090911D03A0911E03B0911F0308C0809151
:1030B000180390911903A0911A03B0911B038093F8
:1030C000000390930103A0930203B09303031092B3
:1030D000190110921A01109299025EC1823009F40E
:1030E0005BC1833031F1843009F58091120188236E
:1030F00009F452C1109212011092990280910403B6
:1031000090910503A0910603B091070383309105C8
:10311000A105B10529F00897A105B10509F03CC149
:1031200061E085E00E94660761E081C0853009F0BA
:1031300063C080911201882391F160911403709112
:103140001503809116039091170330E2E32E00E0FF
:1031500021E040E00E94AB0C109212011092990203
:1031600010929A021092190110921A018091040390
:1031700090910503A0910603B09107038330910558
:10318000A105B10521F00897A105B10541F461E061
:1031900085E00E94660760E086E00E9466078091F5
:1031A00099028111F9C080918A02882309F4CAC06A
:1031B0000E94A80A80919A02882309F4EDC0109217
:1031C0001A01109289024FE150E060E070E080E067
:1031D0000E94180B609118037091190380911A03D3
:1031E00090911B0328E0E22E00E020E040E00E94E6
:1031F000AB0C10939902D0C08630E9F48091120193
:10320000882309F4C9C0109212018091040390919F
:103210000503A0910603B091070383309105A10532
:10322000B105F1F460E085E00E94660760E086E0A9
:103230000E946607B1C08730C9F4809112018823CB
:1032400009F4AAC0609108037091090380910A03F0
:1032500090910B0300E220E040E00E94C30BD3CF2B
:103260000897A105B10509F097C0DCCF883009F0B7
:1032700091C080911201882309F48EC060911403DB
:1032800070911503809116039091170300E2E02ED0
:1032900000E021E040E00E94AB0C60910C037091D3
:1032A0000D0380910E0390910F0321E040E00E94F6
:1032B000AB0C609108037091090380910A0390910F
:1032C0000B0321E040E00E94AB0C109212018091B0
:1032D000040390910503A0910603B0910703833086
:1032E0009105A105B10521F00897A105B10541F4AB
:1032F00061E085E00E94660761E086E00E94660763
:103300000E94A80A80919A028823E1F010921A0183
:10331000109289024FE150E060E070E080E00E948E
:10332000180B609118037091190380911A03909102
:103330001B03B8E0EB2E00E020E040E00E94AB0C65
:1033400010939902009183020E94030B80918302E3
:10335000081711F180E00E94CD0A8823E9F040921D
:103360001A014FE150E060E070E080E00E94180B2D
:1033700010938A02609118037091190380911A03C7
:1033800090911B03A8E0EA2E00E020E040E00E94BC
:10339000AB0C02C00E94010C80911D01833009F02A
:1033A00099C08091040390910503A0910603B09108
:1033B000070383309105A105B10529F00897A10500
:1033C000B10509F087C0E0901B01F0901C0184E07A
:1033D0000E943D0790931C0180931B01E816F9069B
:1033E00009F478C00E94CB0580911B0190911C01CB
:1033F000892B09F06FC084E0809316014FE150E003
:1034000060E070E080E00E94180B8AE192E00E9488
:10341000C3030E940521C0900403D0900503E090EF
:103420000603F0900703F5E0CC0CDD1CEE1CFF1C3E
:10343000FA95D1F780900E0190900F01A0901001A5
:10344000B0901101C828D928EA28FB28E4E3F1E06C
:10345000DE011196242D01900D922A95E1F722E3C9
:1034600030E040E050E00E9429214B015C01EFEF89
:103470008E1A9E0AAE0ABE0A80918B0290E0889D49
:10348000B001899D700D989D700D1124072E000CC0
:10349000880B990B0E9422081092EF02C092F00252
:1034A000D092F102E092F202F092F3024092F40222
:1034B0001092FD02FE013196A5EFB2E081918D934D
:1034C000E215F305D9F70E9443031093120184E03B
:1034D00080931D0180E090E0892B09F49ECB0E942F
:1034E000000098CB0E94CF0D80919D0290919E028A
:1034F000019690939E0280939D02809144038111D6
:1035000013C04091F0025091F1026091F20270916B
:10351000F302E5E07695679557954795EA95D1F7DB
:1035200081E00E94180B79CB813009F0D5C08091E1
:103530004503813049F480901C0390901D03A090B6
:103540001E03B0901F0334C0823049F480901803EA
:1035500090901903A0901A03B0901B0329C08330E8
:1035600049F480900C0390900D03A0900E03B0904E
:103570000F031EC0843049F480901403909015030B
:10358000A0901603B090170313C0853049F48090C3
:10359000100390901103A0901203B090130308C081
:1035A0008090080390900903A0900A03B0900B0349
:1035B00000914603C090480350904903E0904703B0
:1035C000EE2049F08E2D880F880F880F48EFF42EDB
:1035D000F80EE82E03C030E2E32EF12C011103C0F7
:1035E00000E220E004C0013041F40E2D2F2D452DC6
:1035F000C501B4010E94C30B10CB023069F5C501AF
:10360000B4010E94720B80931401009315015110B4
:1036100002C02EE5522EC11002C0CC24C394612CEE
:10362000712CD12C0E2D2F2D452DC501B4016C14FC
:103630007D0404F70E94C30B609108037091090395
:1036400080910A0390910B032F2D452D0E94C30BEF
:103650008FEF681A780AE6CF033071F5C501B4011F
:103660000E94720B8093140100931501511002C047
:103670009EE5592EC11002C0CC24C394612C712C3C
:10368000D12C6C147D040CF0C8CA0E2D2F2D452DA5
:10369000C501B4010E94C30B609108037091090336
:1036A00080910A0390910B032F2D452D0E94C30B8F
:1036B0009FEF691A790AE5CF043041F40F2D2C2DC4
:1036C000452DC501B4010E94AB0CA7CA053009F015
:1036D000A4CA0E943B0CA1CA823049F480914503E0
:1036E00080931D01109312018093160196CA8330B6
:1036F000D1F480914503811102C060E003C08130A4
:1037000049F461E085E00E94660760E086E00E947F
:10371000660783CA823009F080CA61E085E00E94B2
:10372000660761E0F3CF843009F477CA8530A1F5EC
:103730008091F0029091F102A091F202B091F30217
:10374000BC01CD0105E096958795779567950A951B
:10375000D1F74AE00E94D10388E192E00E94AB03D6
:1037600084E4E82E83E0F82EFCE4EF16F3E0FF0695
:1037700071F0F70161917F0170E080E090E04AE034
:103780000E94D10388E192E00E94AB03EDCF89E66D
:1037900091E00E94AB0341CA863009F043C080919A
:1037A000450380939C02F0904603F0929B02909117
:1037B0004703992319F090938B0202C010928B0259
:1037C000863029F585EB91E00E94AB030E94FC094D
:1037D0008F2D0E942404811145C0609118037091BF
:1037E000190380911A0390911B0338E1E32E00E145
:1037F00020E040E00E94AB0C6F2D70E080E090E094
:103800004AE00E94D10383E991E00E94C3038091C2
:103810009C02893019F480931301FFC925E020939D
:103820001301FBC9873009F0F8C980914503813045
:10383000B1F4109382021093960260910C03709180
:103840000D0380910E0390910F03B0E2EB2E00E187
:1038500021E040E00E94AB0C10938102DEC910927F
:103860008202DBC98EE292E00E94C30360910C03E6
:1038700070910D0380910E0390910F0328E1E22EC9
:1038800000E120E040E00E94AB0CC1CFCF92DF927C
:10389000EF92FF921092A2021092A10288EE93E0A2
:1038A000A0E0B0E08093A3029093A402A093A502AD
:1038B000B093A60288E491E09093A00280939F02C7
:1038C0008FEF9FEF9093AC028093AB021092200396
:1038D0001092270310922D0310922E0310922F03A3
:1038E0001092300380E690E09093240380932303AA
:1038F0000E94851F9093290380932803009761F00D
:1039000020E6FC0111922A95E9F780E290E090937D
:1039100022038093210308C01092240310922303F2
:10392000109222031092210388E080932503809156
:103930002003882341F061E088E00E94960760E060
:1039400088E00E946607E1E2F1E0E491F0E0EE0F2A
:10395000FF1FE55FFE4F8591949190933203809312
:103960003103E4EFF0E0E491E093330383E08093EC
:10397000260381E080932A0310922B0382E0809338
:103980002C03C12CD12C92E3E92EF12CC0921C0304
:10399000D0921D03E0921E03F0921F0380E092E399
:1039A000A0E0B0E08093180390931903A0931A034A
:1039B000B0931B0382E390E0A0E0B0E08093140397
:1039C00090931503A0931603B093170382E392E339
:1039D000A2E3B0E08093100390931103A09312032D
:1039E000B093130380E092E3A2E3B0E080930C0372
:1039F00090930D03A0930E03B0930F03109208034E
:103A00001092090310920A0310920B0380E090E0D9
:103A10000E94132190E0A0E0B0E080930403909313
:103A20000503A0930603B0930703C0920003D0924E
:103A30000103E0920203F092030381E18093FF020D
:103A400061E00E94960761E08091FF02FF90EF9095
:103A5000DF90CF900C946607809128039091290302
:103A6000009711F00E941A208091250387FD03C062
:103A700060E00C9496070895EE0FFF1F0590F491F7
:103A8000E02D09945058BB27AA270E945A1D0C9478
:103A9000D41E0E94C61E38F00E94CD1E20F039F4BC
:103AA0009F3F19F426F40C94C31E0EF4E095E7FB37
:103AB0000C94BD1EE92F0E94E51E58F3BA17620749
:103AC00073078407950720F079F4A6F50C94071F77
:103AD0000EF4E0950B2EBA2FA02D0B01B901900129
:103AE0000C01CA01A0011124FF27591B99F0593F6D
:103AF00050F4503E68F11A16F040A22F232F342FB5
:103B00004427585FF3CF469537952795A795F04002
:103B10005395C9F77EF41F16BA0B620B730B840B17
:103B2000BAF09150A1F0FF0FBB1F661F771F881FCF
:103B3000C2F70EC0BA0F621F731F841F48F4879527
:103B400077956795B795F7959E3F08F0B0CF939519
:103B5000880F08F09927EE0F9795879508950E9492
:103B6000991E08F481E008950E94C81D0C94D41E8B
:103B70000E94CD1E58F00E94C61E40F029F45F3FFF
:103B800029F00C94BD1E51110C94081F0C94C31EF7
:103B90000E94E51E68F39923B1F3552391F3951B19
:103BA000550BBB27AA2762177307840738F09F5F5E
:103BB0005F4F220F331F441FAA1FA9F335D00E2ECB
:103BC0003AF0E0E832D091505040E695001CCAF738
:103BD0002BD0FE2F29D0660F771F881FBB1F2617FB
:103BE00037074807AB07B0E809F0BB0B802DBF01D2
:103BF000FF2793585F4F3AF09E3F510578F00C94A1
:103C0000BD1E0C94081F5F3FE4F3983ED4F38695E5
:103C100077956795B795F7959F5FC9F7880F911DC1
:103C20009695879597F90895E1E0660F771F881FAD
:103C3000BB1F621773078407BA0720F0621B730B60
:103C4000840BBA0BEE1F88F7E09508950E942D1E95
:103C50006894B1110C94081F08950E94ED1E88F01D
:103C60009F5798F0B92F9927B751B0F0E1F0660F40
:103C7000771F881F991F1AF0BA95C9F714C0B13081
:103C800091F00E94071FB1E008950C94071F672F61
:103C9000782F8827B85F39F0B93FCCF386957795B0
:103CA0006795B395D9F73EF4909580957095619599
:103CB0007F4F8F4F9F4F0895E89409C097FB3EF4C4
:103CC00090958095709561957F4F8F4F9F4F992369
:103CD000A9F0F92F96E9BB279395F69587957795E7
:103CE0006795B795F111F8CFFAF4BB0F11F460FFA7
:103CF0001BC06F5F7F4F8F4F9F4F16C0882311F0FF
:103D000096E911C0772321F09EE8872F762F05C012
:103D1000662371F096E8862F70E060E02AF09A95AD
:103D2000660F771F881FDAF7880F9695879597F9A2
:103D30000895990F0008550FAA0BE0E8FEEF16163C
:103D40001706E807F907C0F012161306E407F5078F
:103D500098F0621B730B840B950B39F40A2661F003
:103D6000232B242B252B21F408950A2609F4A140A6
:103D7000A6958FEF811D811D089597F99F6780E8B3
:103D800070E060E008959FEF80EC089500240A94AD
:103D90001616170618060906089500240A94121626
:103DA0001306140605060895092E0394000C11F459
:103DB000882352F0BB0F40F4BF2B11F460FF04C006
:103DC0006F5F7F4F8F4F9F4F089557FD9058440F5F
:103DD000551F59F05F3F71F04795880F97FB991F6A
:103DE00061F09F3F79F08795089512161306140627
:103DF000551FF2CF4695F1DF08C0161617061806B4
:103E0000991FF1CF86957105610508940895E8948E
:103E1000BB2766277727CB0197F908950E94991E43
:103E200008F48FEF08950E94261F0C94D41E0E9460
:103E3000C61E38F00E94CD1E20F0952311F00C9480
:103E4000BD1E0C94C31E11240C94081F0E94E51E75
:103E500070F3959FC1F3950F50E0551F629FF001DD
:103E6000729FBB27F00DB11D639FAA27F00DB11DF6
:103E7000AA1F649F6627B00DA11D661F829F22277F
:103E8000B00DA11D621F739FB00DA11D621F839F06
:103E9000A00D611D221F749F3327A00D611D231FDC
:103EA000849F600D211D822F762F6A2F11249F572A
:103EB00050409AF0F1F088234AF0EE0FFF1FBB1F2D
:103EC000661F771F881F91505040A9F79E3F5105EC
:103ED00080F00C94BD1E0C94081F5F3FE4F3983EE5
:103EE000D4F3869577956795B795F795E7959F5F96
:103EF000C1F7FE2B880F911D9695879597F9089528
:103F00000E94991E880B990B0895CF93DF938230FE
:103F1000910510F482E090E0E0915C03F0915D0384
:103F200020E030E0C0E0D0E0309711F140815181D5
:103F300048175907C0F04817590761F482819381E7
:103F4000209719F09B838A832BC090935D03809305
:103F50005C0326C02115310519F04217530718F4E8
:103F60009A01BE01DF01EF010280F381E02DDCCF79
:103F70002115310509F1281B390B2430310590F446
:103F800012968D919C9113976115710521F0FB019B
:103F90009383828304C090935D0380935C03FD014F
:103FA000329644C0FD01E20FF31F8193919322509A
:103FB00031092D933C933AC020915A0330915B0311
:103FC000232B41F420912C0130912D0130935B0380
:103FD00020935A0320912A0130912B01211531059C
:103FE00041F42DB73EB740912E0150912F01241B73
:103FF000350BE0915A03F0915B03E217F307A0F44D
:104000002E1B3F0B2817390778F0AC014E5F5F4F2E
:104010002417350748F04E0F5F1F50935B03409302
:104020005A038193919302C0E0E0F0E0CF01DF9169
:10403000CF9108950F931F93CF93DF93009709F4C7
:104040008CC0FC0132971382128200915C031091A4
:104050005D030115110581F420813181820F931FC9
:1040600020915A0330915B032817390779F5F093B3
:104070005B03E0935A0371C0D80140E050E0AE17F3
:10408000BF0750F412962D913C911397AD01211565
:10409000310509F1D901F3CF9D01DA013383228380
:1040A00060817181860F971F8217930769F4EC0175
:1040B00028813981260F371F2E5F3F4F31832083A0
:1040C0008A819B8193838283452B29F4F0935D033E
:1040D000E0935C0342C01396FC93EE931297ED01BC
:1040E000499159919E01240F351FE217F30771F48E
:1040F00080819181840F951F029611969C938E93D7
:104100008281938113969C938E931297E0E0F0E066
:10411000D80112968D919C911397009719F0F80190
:104120008C01F6CF8D919C9198012E5F3F4F820FAD
:10413000931F20915A0330915B032817390769F4C4
:10414000309729F410925D0310925C0302C0138231
:10415000128210935B0300935A03DF91CF911F915A
:104160000F91089581E090E0F8940C948C218F9247
:104170009F92AF92BF92CF92DF92EF92FF92CF9336
:10418000DF93EC01688179818A819B8161157105DA
:104190008105910521F464E279ED8BE597E02DE14D
:1041A00033EF41E050E00E94292149015A019B016F
:1041B000AC01A7EAB1E40E9448216B017C01ACEE9E
:1041C000B4EFA50194010E945621DC01CB018C0DB6
:1041D0009D1DAE1DBF1DB7FF03C00197A109B048CB
:1041E00088839983AA83BB83BC01CD019F77DF912C
:1041F000CF91FF90EF90DF90CF90BF90AF909F90C6
:104200008F9008950E94B720089580E391E00E9466
:10421000B72008956093300170933101809332018B
:10422000909333010895F999FECF92BD81BDF89A1C
:10423000992780B50895262FF999FECF1FBA92BD10
:1042400081BD20BD0FB6F894FA9AF99A0FBE019677
:104250000895052E97FB1EF400940E94402157FDFF
:1042600007D00E945B2107FC03D04EF40C94402140
:1042700050954095309521953F4F4F4F5F4F089592
:1042800090958095709561957F4F8F4F9F4F0895C2
:104290000E947D21A59F900DB49F900DA49F800D3D
:1042A000911D11240895B7FF0C9448210E944821C4
:1042B000821B930B0895A1E21A2EAA1BBB1BFD01C2
:1042C0000DC0AA1FBB1FEE1FFF1FA217B307E407F5
:1042D000F50720F0A21BB30BE40BF50B661F771F4D
:1042E000881F991F1A9469F760957095809590952D
:1042F0009B01AC01BD01CF010895A29FB001B39F06
:10430000C001A39F700D811D1124911DB29F700DDE
:10431000811D1124911D089511E0C4E0D1E004C075
:10432000FE010E943C1D2196C530D107C9F7F894C3
:02433000FFCFBD
:10433200F606F606F606F606F606450145011500EE
:104342000000010500000000000000010008FFFF5E
:10435200FFFF00E100000000000000005E0380009B
:104362000100000002040000000000000B0A636369
:1043720063630605000000007E065C089F061F07B7
:10438200FB0694061132200800C180810000004E15
:104392006F64652049443A20000D0A004E656F7033
:1043A2006978656C2054657374002D2D2D2D2D496F
:1043B2006E707574732D2D2D2D0050696E230020A3
:1043C2003D2000202D204F4B00202D2050524553E0
:1043D200534544002D2D2D2D2D43616E20427573C2
:1043E2002D2D2D2D0043414E2D42555320537461E6
:1043F200727475703A20004E6F7468696E6720524D
:1044020065636569766564002D2D2D2D2D43616CE4
:1044120069627261746520546F7765722D2D2D2D3E
:104422000053746172742043616C696272617469D1
:104432006F6E0046696E69736865642043616C69DA
:1044420062726174696F6E002C004D6F6E746F6ED4
:10445200204D6573736167652053656E74004E6FFE
:104462007420476F6F642C20636865636B20796FDB
:1044720075722070696E2320616E6420636F6E6EA8
:10448200656374696F6E73004D6573736167652050
:104492005265636569766564006E616E00696E6679
:0844A200006F7666002E000099
:00000001FF
