:100000000C9406010C94261C0C944D1C0C94741C2E
:100010000C949B1C0C942E010C942E010C94C21C6D
:100020000C942E010C942E010C94AF250C944124B9
:100030000C942E010C942E010C942E010C942E0184
:100040000C942E010C942E010C942E010C942E0174
:100050000C942E010C942E010C942E010C94E91C8E
:100060000C942E010C942E010C942E010C942E0154
:100070000C942E010C942E010C942E010C942E0144
:100080000C942E010C942E010C942E010C942E0134
:100090000C942E010C942E010C942E010C942E0124
:1000A0000C942E010C942E010C942E0180048404D7
:1000B0004A044D045004540458045B045F04620471
:1000C000650468046B046F04730477047A04291EC2
:1000D0002C1E1B1E1F1E251E4D1E4D1E4D1E301E8E
:1000E000341E381E3E1E421E4D1E481E07060504C5
:1000F0000100080A0B0C0D090000000200090F00A6
:1001000000030401000C00000000000000000000DB
:1001100000000000000000040802011040804010B0
:10012000204080408008020401804020100201101D
:10013000801020404020040404040403040502024B
:100140000202040302020202060606060606040470
:100150000202020404000000002300260029002CF3
:10016000002F0000000000250028002B002E003189
:100170000000000000240027002A002D00300008A5
:100180000B0002020201000904000001020200004B
:1001900005240010010524010101042402060524A0
:1001A0000600010705810310004009040100020A4E
:1001B000000000070502024000000705830240001E
:1001C0000012010002EF02014041233680000101CC
:1001D00002030112010002000000404123368000AA
:1001E000010102030141726475696E6F204C4C433A
:1001F0000041726475696E6F204C656F6E61726448
:100200006F00040309044F1BCD1FD11B11241FBE17
:10021000CFEFDAE0DEBFCDBF12E0A0E0B1E0EEEB61
:10022000F6E502C005900D92A238B107D9F723E098
:10023000A2E8B2E001C01D92AB36B207E1F712E0CE
:10024000CAE0D2E004C02297FE010E948B29C6308A
:10025000D107C9F70E94EB1F0C94522B0C9400009D
:10026000CF93DF93EC0188859985009711F00E9468
:10027000412A8D8187FD05C060E0DF91CF910C940C
:100280004E1EDF91CF910895CF93DF93EC018D81C6
:1002900087FD07C061E00E944E1E60E08D810E94D4
:1002A000871E81E08883DF91CF910895EF92FF92BE
:1002B0000F931F93CF93DF93EC017B018885998582
:1002C000009711F00E94412A8701000F111F0E0DA7
:1002D0001F1D1C830B83C8010E94A9299987888749
:1002E000009741F0A80160E070E00E942D2BFA8297
:1002F000E98204C01C821B821A821982DF91CF918D
:100300001F910F91FF90EF900895FC01668360FFAD
:1003100004C081E08287138611C062FF06C081E0BD
:10032000828782E0838714860895128663FF04C063
:1003300082E0838781E003C081E0838782E0848755
:100340000895CF92DF92EF92FF920F931F93CF9376
:10035000DF93CDB7DEB729970FB6F894DEBF0FBE97
:10036000CDBF8C01DC0118968D919C911997892B3A
:1003700009F49BC00E943F1DF801C584D684E78420
:10038000F0886C197D098E099F096233710581051A
:10039000910580F3F894838194819A838983A08561
:1003A000B1857D01EFEFEE1AFE0A8C918987D801A5
:1003B00016969C91169751960D90BC91A02DF80120
:1003C000838991FF2EC09C91982B98879C91809552
:1003D00089238F838F818E8388E08D8358856F81F9
:1003E00049853D812E8189819A81F7015C9347FD82
:1003F000252F3A952C93262F39F0441F00C000007A
:100400006C93000000C0F2CF38E041916C93000083
:10041000019761F7F801B28BA18B49873D832E8349
:1004200038C09C91982B98879C91809589238F83C5
:100430008F818C8388E08B8358856F8149853B81D0
:100440002C8189819A81F7015C9347FD252F00C09B
:1004500000C02C9300C000C000C000C000C06C935E
:100460000000262F3A9541F0441F000000C000C054
:1004700000C000C000C0E8CF38E0419100C06C93DC
:1004800000C0019709F7F801B28BA18B49873B8324
:100490002C839A83898378940E943F1DD8011D96EE
:1004A0006D937D938D939C93509729960FB6F894F6
:1004B000DEBF0FBECDBFDF91CF911F910F91FF9097
:1004C000EF90DF90CF9008951F93CF93DF93EC01CF
:1004D000162F8881882331F08D8187FD03C060E06D
:1004E0000E944E1E1D838881882341F061E0812F88
:1004F0000E944E1E60E0812F0E94871E812F90E097
:10050000FC01EA5CFE4FE491F0E0EE0FFF1FED59B5
:10051000FE4F259134913A8B298BFC01E95EFE4F09
:1005200084918B8BDF91CF911F9108950F931F932F
:10053000CF93DF9300D0CDB7DEB78C01FC011082E2
:10054000178211861086158616861786108A2A83CA
:1005500049830E9456014981642FC8010E946402A8
:100560002A81622FC8010F900F90DF91CF911F91C8
:100570000F910C948501CF92DF92EF92FF920F932F
:100580001F93CF93DF93FC018181928168177907D4
:1005900088F5CA01AA27BB27082FC32ED42EE52E23
:1005A000FF241C2DD22FC781CC2361F08C9FC0016A
:1005B0001124092FCC9E600111241D2D2C9F900128
:1005C0001124D32F9B01220F331F260F371F808545
:1005D0009185820F931F2285DC01A20FB11D0C9320
:1005E0002385DC01A20FB11D1C932485FC01E20FC1
:1005F000F11DD083DF91CF911F910F91FF90EF906C
:10060000DF90CF900895962F50E060E070E0592B76
:10061000682BCB01BA0108958EBD00000DB407FE12
:10062000FDCF8EB50895CF93DF93EC0160E088890C
:100630000E94871E80EC0E940C0361E088890E9462
:10064000871E6AE070E080E090E0DF91CF910C942B
:10065000621D1F93CF93DF93EC01162F60E0888912
:100660000E94871E83E00E940C03812F0E940C03CE
:1006700080E00E940C03182F61E088890E94871E89
:10068000812FDF91CF911F910895CF92DF92EF924A
:10069000FF920F931F93CF93DF9300D0CDB7DEB7B8
:1006A0008C01F62EE22E60E0FC01808949835A839A
:1006B0000E94871E83E00E940C038F2D0E940C0372
:1006C0004981C42E5A81D52EF12CFE1459F0F8E040
:1006D000FF1641F080E00E940C03F60181936F0148
:1006E000F394F3CF61E0F80180890F900F90DF91D0
:1006F000CF911F910F91FF90EF90DF90CF900C94CE
:10070000871EEF92FF921F93CF93DF931F92CDB777
:10071000DEB77C01162F60E0FC01808949830E94CE
:10072000871E82E00E940C03812F0E940C034981E6
:10073000842F0E940C0361E0F70180890F90DF9104
:10074000CF911F91FF90EF900C94871ECF92DF9274
:10075000EF92FF920F931F93CF93DF9300D0CDB70B
:10076000DEB78C01E62EF22E60E0FC018089498321
:100770005A830E94871E82E00E940C038E2D0E94E5
:100780000C034981E42EC42E5A81D52E8C2D8E194E
:100790008F1530F4F60181916F010E940C03F6CFA2
:1007A00061E0F80180890F900F90DF91CF911F9148
:1007B0000F91FF90EF90DF90CF900C94871EEF92F7
:1007C000FF921F93CF93DF9300D0CDB7DEB77C01AC
:1007D000162F60E0FC0180892A8349830E94871ECE
:1007E00085E00E940C03812F0E940C034981842F15
:1007F0000E940C032A81822F0E940C0361E0F70102
:1008000080890F900F90DF91CF911F91FF90EF9013
:100810000C94871E1F93CF93DF93EC0160E08889CF
:100820000E94871E80EA0E940C0380E00E940C0355
:10083000182F61E088890E94871E812FDF91CF9158
:100840001F9108951F93CF93DF93EC01162F262F4E
:1008500040EE6FE00E94DF036FE0CE010E942903AB
:10086000982F907E81E0911301C080E0DF91CF91BD
:100870001F9108950F931F93CF93DF93EC01462FA1
:1008800050E0FA013197E131F105C0F5EA5AFF4F26
:100890000C94892917E80FEF05C017E00AEB02C096
:1008A00015E801EF4FE033C017E00EEB49E02FC031
:1008B00017E80FEF02C017E80AEF47E028C017E873
:1008C0000FEF0BC017E00EEB08C017E00DEA05C0F4
:1008D00017E80AEF02C016E800EF43E018C017E877
:1008E0000AEF41E014C015E801EF41E410C016E83A
:1008F00000EF02C012E800ED40E009C081E016C040
:1009000017E80FEF4FE303C017E80FEF4FE16AE27C
:10091000CE010E948103402F69E2CE010E94810333
:10092000412F68E2CE010E94810380E0DF91CF91E8
:100930001F910F9108951F93CF93DF93EC0110E364
:1009400040E0612FCE010E94810360E1610F40E031
:10095000CE010E94810360E2610F40E0CE010E945F
:1009600081031F5F1E3361F740E060E6CE010E9405
:10097000810340E060E7CE01DF91CF911F910C949D
:1009800081030F931F93CF93DF93EC01062F0E94F7
:10099000130360E8CE010E942204182F6AE070E081
:1009A00080E090E011110CC00E94621D602FCE010A
:1009B0000E943A04882339F06AE070E080E090E019
:1009C0000E94621D28C06AE070E080E090E00E9412
:1009D000621DCE010E949B0443E06BE2CE010E94A7
:1009E000810324E044E660E6CE010E94DF0320E0BC
:1009F00040E660E7CE010E94DF0360E0CE010E9486
:100A00002204C82F8823C1F26AE070E080E090E001
:100A10000E94621D1C2F812FDF91CF911F910F919A
:100A200008950F931F93CF93DF9300D000D0CDB7DD
:100A3000DEB74130B1F40C831B83890122273327B1
:100A4000502F5C71402F437078E0579F400D112468
:100A500048604A8355E0169507955A95E1F7098352
:100A60000DC0A80123E0569547952A95E1F74983E3
:100A70000295000F007E0A831C821B8224E0AE01D7
:100A80004F5F5F4F0E94A6030F900F900F900F9043
:100A9000DF91CF911F910F910895EF92FF920F93E5
:100AA0001F93CF93DF9300D000D0CDB7DEB77A018C
:100AB0008901FA011082F9011082118212821382D7
:100AC00024E0AE014F5F5F4F0E9445032A813981C8
:100AD000822F90E045E0959587954A95E1F7F8E0FB
:100AE0003F9F800D911D1124AA2797FDA095BA2F35
:100AF000F80180839183A283B38323FF25C062E042
:100B0000880F991FAA1FBB1F6A95D1F72370820F08
:100B1000911DA11DB11DBA2FA92F982F88272B81B8
:100B2000820F911DA11DB11DBA2FA92F982F8827C3
:100B30002C81820F911DA11DB11D80839183A28301
:100B4000B38381E0F70180830F900F900F900F9097
:100B5000DF91CF911F910F91FF90EF900895FF9239
:100B60000F931F93CF93DF93EC01F62EAC014A5FF6
:100B70005F4F65E06F0D2D810E94A6038E85813049
:100B800019F48D8180648D8364E06F0D4D81CE01F9
:100B90000E94810309811A812B813C8148816F2D3C
:100BA000CE010E941105DF91CF911F910F91FF900F
:100BB00008950F931F93CF93DF93EC01162F9C01A1
:100BC0002F5F3F4FAC010E944D056FEF610FCE01CB
:100BD0000E942903082F64E0610FCE010E942903BF
:100BE000282F8D8303FF03C081E08E8701C01E86FE
:100BF0002F702D83AE014A5F5F4F65E0610FCE011C
:100C0000DF91CF911F910F910C944503615028E023
:100C100048E00C94DF03FF920F931F93CF93DF9371
:100C200000D01F92CDB7DEB78B0120E3298320E4EB
:100C30002A8320E52B83FB011082FE01E40FF11DC6
:100C4000F1806F2D0E942903982F987083FD04C0B6
:100C5000F394F801F08201C092E0892F0F900F9079
:100C60000F90DF91CF911F910F91FF900895CF9337
:100C7000DF93EC01862F688B61E00E944E1E61E0DD
:100C80008889DF91CF910C94871ECF93DF9300D09A
:100C90001F92CDB7DEB76B8389839A830E942308A6
:100CA0006B8189819A810E94C10491E0811101C008
:100CB00090E0892F0F900F900F90DF91CF910895C2
:100CC0008F929F92BF92CF92DF92EF92FF920F93FB
:100CD0001F93CF93DF931F92CDB7DEB74C01B62E93
:100CE000680179016AE070E080E090E049830E9449
:100CF000621D60E8C4010E942204182F49818823E4
:100D000029F06AE070E080E090E01AC0B11004C001
:100D10009701860160E206C081E0B81206C0970123
:100D2000860164E2C4010E94110560E0C4010E94D2
:100D30002204182F6AE070E080E090E0112321F097
:100D40000E94621D812F03C00E94621D80E00F90EF
:100D5000DF91CF911F910F91FF90EF90DF90CF9097
:100D6000BF909F908F900895AF92BF92CF92DF92E5
:100D7000EF92FF920F931F93CF93DF9300D0CDB7E5
:100D8000DEB75C01562F680179016AE070E080E00F
:100D900090E04A8359830E94621D60E8C5010E9469
:100DA0002204182F4A815981882329F06AE070E0D3
:100DB00080E090E031C05230B1F040F4552379F03A
:100DC0005130F9F49701860164E018C0543099F06D
:100DD00070F05530B1F49701860168E10FC09701BA
:100DE000860160E00BC09701860168E007C09701AB
:100DF000860160E103C09701860164E1C5010E949C
:100E0000110560E0C5010E942204182F6AE070E01D
:100E100080E090E0112321F00E94621D812F03C029
:100E20000E94621D80E00F900F90DF91CF911F9183
:100E30000F91FF90EF90DF90CF90BF90AF9008950B
:100E4000CF92DF92EF920F931F93CF93DF93FC012A
:100E500020834183528363837483093008F008E060
:100E60000583E686D60180E090E010E080179107C8
:100E70003CF42D91EF01C80FD91F2E830196F6CFB8
:100E800080E0DF91CF911F910F91EF90DF90CF9095
:100E90000895CF92DF92EF92FF920F936701E12CBA
:100EA0000E9420070F91FF90EF90DF90CF90089560
:100EB000DF92EF92FF920F931F93CF93DF931F92D6
:100EC000CDB7DEB78C01D62EE12CF12C4D2DBE0115
:100ED0006F5F7F4FC8010E940B069FEFE91AF90A66
:100EE000823029F482E3E816F10481F72BC092E303
:100EF000E916F10439F16981C8010E94AF056981E1
:100F0000C8010E940606E12CF12C8FEFE81AF80ABE
:100F100069816150C8010E942903D82E61E070E008
:100F200080E090E00E94621DD3FE06C092E3E916C5
:100F3000F10459F787E007C082E3E816F104D1F322
:100F400080E001C086E00F90DF91CF911F910F915B
:100F5000FF90EF90DF900895CF92EF92FF920F9362
:100F6000CF93DF93EC010E9449076C2DCE01DF91F6
:100F7000CF910F91FF90EF90CF900C945807CF93A3
:100F8000DF93EC010E940A0480FF07C061E6CE01F6
:100F90000E94D90520E041E008C081FF0CC061E754
:100FA000CE010E94D90520E042E06CE2CE010E9411
:100FB000DF0380E001C084E0DF91CF910895EF92DC
:100FC000FF920F931F93CF93DF9300D0CDB7DEB77F
:100FD0007C018B0149835A830E94BF0749815A8152
:100FE000811118C0D70115969C91F8019083FA01E0
:100FF00020E030E0D70115964C9150E024173507DA
:101000005CF4D701A20FB31F16969C9191932F5FAA
:101010003F4FF0CFF80110820F900F90DF91CF91EA
:101020001F910F91FF90EF9008950E940A04837022
:1010300011F083E0089584E00895FC0161817281DC
:10104000838194810895CF93CFB7F89480918202E1
:10105000811127C0E7E4F1E08491E8E2F1E09491A6
:10106000E82FF0E0EE0FFF1FEF58FE4FA591B4916F
:101070008C91892321F461E081E10E94871E61E067
:1010800081E10E944E1E8CB580618CBD8CB5806460
:101090008CBD61E08FE00E944E1E61E080E10E9405
:1010A0004E1E809182028F5F80938202CFBFCF91CC
:1010B000089581E08093A9020895AF92BF92CF92E4
:1010C000DF92EF92FF920F931F93CF93DF931F92C4
:1010D000CDB7DEB75C01D62EC72E062F172F7C01A9
:1010E00082E0E80EF11CF80161918F01C50169836E
:1010F0000E94342B6981681719F0C5010E943C2BAE
:10110000FFEFAF1ABF0AAE14BF0469F78D2D9C2DF7
:101110000F90DF91CF911F910F91FF90EF90DF9093
:10112000CF90BF90AF9008950F931F93CF93DF930D
:101130008C01EB010E94342B8883C80101960E9428
:10114000342B8983CE01DF91CF911F910F910895A8
:101150008091C7029091C802A091C902B091CA02C1
:101160000697A105B10548F46091DF027091E00295
:101170008091E1029091E20208956091DB0270910A
:10118000DC028091DD029091DE0208958F929F92A1
:10119000AF92BF92CF92EF92FF920F931F93CF9394
:1011A000DF93CDB7DEB728970FB6F894DEBF0FBE3A
:1011B000CDBF6AE571E080E093E00E94212023E347
:1011C00030E040E050E061E070E080E090E00E94BC
:1011D00071268090C7029090C802A090C902B0907A
:1011E000CA0285E0880C991CAA1CBB1C8A95D1F701
:1011F00000912A0110912B0120912C0130912D0199
:10120000802A912AA22AB32A28E0E2E5F1E0DE0151
:10121000119601900D922A95E1F740918C0250E0D1
:10122000469F9001479F300D569F300D1124B90104
:10123000882777FD8095982F0E94621D92E0C92E25
:10124000CE0101967C0108E020E0B501A40182EB0B
:1012500092E00E94AC0728960FB6F894DEBF0FBE4E
:10126000CDBFDF91CF911F910F91FF90EF90CF9065
:10127000BF90AF909F908F900895813049F4609116
:10128000DF027091E0028091E1029091E202089504
:10129000823049F46091DB027091DC028091DD02C2
:1012A0009091DE020895833049F46091CF027091ED
:1012B000D0028091D1029091D2020895843049F4F5
:1012C0006091D7027091D8028091D9029091DA0290
:1012D0000895853049F46091D3027091D4028091D1
:1012E000D5029091D60208956091CB027091CC0204
:1012F0008091CD029091CE0208950F931F9300919B
:10130000DF021091E0022091E1023091E2026017C9
:10131000710782079307D1F10091DB021091DC0283
:101320002091DD023091DE0260177107820793077A
:1013300079F10091CF021091D0022091D102309129
:10134000D202601771078207930721F10091D7023B
:101350001091D8022091D9023091DA0260177107FA
:101360008207930779F00091D3021091D402209163
:10137000D5023091D602601771078207930721F4D6
:1013800085E009C084E007C080E005C081E003C0BB
:1013900082E001C083E01F910F910895882339F006
:1013A000815090913101899F802D1124089580E012
:1013B0000895882321F0880F880F880F0895809161
:1013C000320108955F926F927F928F929F92AF92B7
:1013D000BF92CF92DF92EF92FF920F931F93CF9322
:1013E000DF931F92CDB7DEB74B015C01622E7E2CDE
:1013F00049830E947D0980931F0184E0809320012E
:101400004981411101C04AE0611002C06624639421
:1014100010E0C42ED12CE12CF12C81E0861510F0C7
:10142000502E1BC0502E5714D8F72091CB0230916C
:10143000CC024091CD025091CE02652D70E083EE3A
:1014400092E00E94BB0283EE92E00E94A101C701DC
:10145000B6010E94621D5394E6CF571490F4652D97
:1014600070E0A501940183EE92E00E94BB0283EE3E
:1014700092E00E94A101C701B6010E94621D53942F
:10148000ECCF1F5F1611C9CF0F90DF91CF911F9145
:101490000F91FF90EF90DF90CF90BF90AF909F9013
:1014A0008F907F906F905F9008959F92AF92BF92C0
:1014B000CF92DF92EF92FF920F931F93CF93DF9320
:1014C0006B017C01942EA22E0E947D0980931F0146
:1014D00081E080932001911002C02AE0922EB12C6D
:1014E000C0E0D0E010E0BE016A0D7B1D60177107FF
:1014F00040F4A701960183EE92E00E94BB02219680
:10150000F2CF83EE92E00E94A101692D70E080E0AD
:1015100090E0DF91CF911F910F91FF90EF90DF90BE
:10152000CF90BF90AF909F900C94621D0F9386E078
:1015300080931F0185E0809320016091D302709118
:10154000D4028091D5029091D6020091320120E020
:1015500044EF0E94550A64E670E080E090E00E944B
:10156000621D6091DF027091E0028091E102909132
:10157000E2020091320120E044EF0E94550A64E645
:1015800070E080E090E00E94621D6091DB0270914B
:10159000DC028091DD029091DE020091320120E0B8
:1015A00044EF0E94550A64E670E080E090E00E94FB
:1015B000621D6091CF027091D0028091D102909112
:1015C000D2020091320120E044EF0E94550A64E605
:1015D00070E080E090E00E94621D6091D7027091FF
:1015E000D8028091D9029091DA020091320120E074
:1015F00044EF0E94550A64E670E080E090E00E94AB
:10160000621D6091CB027091CC028091CD029091CD
:10161000CE020091320120E044EF0E94550A0F9162
:1016200008956F927F928F929F92AF92BF92CF92C6
:10163000DF92EF92FF920F931F93CF93DF931F924E
:10164000CDB7DEB74B015C01142FF02E29830E9429
:101650007D0980931F0183E080932001298111116E
:1016600001C01EE5211101C021E0612C712CC22EA8
:10167000D12C6C147D04BCF40E2D2F2D412FC501EF
:10168000B4010E94550A6091CB027091CC02809106
:10169000CD029091CE022F2D412F0E94550A8FEF3F
:1016A000681A780AE6CF0F90DF91CF911F910F91C2
:1016B000FF90EF90DF90CF90BF90AF909F908F9072
:1016C0007F906F9008956F927F928F929F92AF92CA
:1016D000BF92CF92DF92EF92FF920F931F93CF931F
:1016E000DF931F92CDB7DEB74B015C01142FF02EB4
:1016F00029830E947D0980931F0182E0809320014D
:101700002981111101C01EE5211101C021E0612CC8
:10171000712CC22ED12C0E2D2F2D412FC501B401BD
:101720006C147D0494F40E94550A6091CB02709170
:10173000CC028091CD029091CE022F2D412F0E949C
:10174000550A8FEF681A780AE6CF0E94550A0F9063
:10175000DF91CF911F910F91FF90EF90DF90CF908D
:10176000BF90AF909F908F907F906F9008958F92D1
:101770009F92AF92BF92EF92FF920F931F93CF93DE
:10178000DF9300D0CDB7DEB78091A1020E943D0962
:101790004B015C01009132011091A2022091A40240
:1017A0004091A502E090A302EE2069F08E2D2983DE
:1017B0004A830E94CE09F82E8E2D0E94D909E82E68
:1017C00029814A8102C0E02EF12C111102C020E0D3
:1017D00004C0113039F40E2D2F2DC501B4010E9423
:1017E000550A28C0123031F40F2DC501B4010E94F2
:1017F000630B20C0133031F40F2DC501B4010E94DA
:10180000110B18C0143031F40F2DC501B4010E9422
:10181000E20910C0153071F40F900F90DF91CF9155
:101820001F910F91FF90EF90BF90AF909F908F907E
:101830000C94960A0F900F90DF91CF911F910F910A
:10184000FF90EF90BF90AF909F908F9008951F935F
:10185000CF93DF93182FC82FD0E0FE01E85EFE4F34
:1018600080810E94BD1E982F20919F02211103C0EC
:1018700091E0811190E0FE01E756FD4F80818917CC
:10188000F1F080912201913069F4908321E030E001
:10189000012E01C0220F0A94EAF7282B209322017F
:1018A00081E011C0108221E030E0012E01C0220F42
:1018B0000A94EAF7209528232093220103C081E0AF
:1018C000913009F080E0DF91CF911F9108951F932F
:1018D000CF93DF93C8E1D1E010E08991833619F00E
:1018E000812F0E94270C1F5F1630B9F7DF91CF912F
:1018F0001F9108958F929F92AF92BF92CF92DF92E5
:10190000EF92FF920F93CF93DF93C82F6A017B0171
:101910002BE030E040E050E061E070E080E090E0FB
:101920000E947126C1110E94670C8090C70290909E
:10193000C802A090C902B090CA0255E0880C991C58
:10194000AA1CBB1C5A95D1F78C289D28AE28BF280D
:1019500060918C0270E080E090E00E94621DC5E022
:10196000D0E032E0C32E4EE1E42E41E0F42E08E058
:1019700020E0B501A40182EB92E00E94AC0788232D
:1019800011F0219771F7DF91CF910F91FF90EF90B8
:10199000DF90CF90BF90AF909F908F900895EF927F
:1019A0000F9390910A0180910B01913029F58823C2
:1019B00009F487C06091DF027091E0028091E1023A
:1019C0009091E202E090320100E021E040E00E94CC
:1019D000E2096091D3027091D4028091D502909176
:1019E000D602E090320121E040E00E94E20910922C
:1019F0000B0110928F0265C0923019F5882309F40B
:101A000060C010920B0110928F0280918A02909117
:101A10008B02019690938B0280938A02809325011A
:101A200080918802809324014091260150912701E2
:101A3000609128017091290180E00F91EF900C9442
:101A40007A0C9730E1F48823E1F14091260150911E
:101A50002701609128017091290180E00E947A0C91
:101A60006091CB027091CC028091CD029091CE0218
:101A70000091320120E040E00E94550A20C08823F6
:101A800001F110928B0210928A0210928902109238
:101A9000880210922501109224016091CB0270916E
:101AA000CC028091CD029091CE020091320120E0D3
:101AB00040E00E94550A109291020E94670C109219
:101AC0000B010F91EF900895EF920F9390910A01FF
:101AD00080910B01913029F5882309F48AC0609127
:101AE000DF027091E0028091E1029091E202E090C9
:101AF000320100E021E040E00E94E2096091CF0263
:101B00007091D0028091D1029091D202E090320186
:101B100021E040E00E94E20910920B0110928F0236
:101B200068C0923031F5882321F010920B01109299
:101B30008F0280918A0290918B028F3F91050CF069
:101B400058C0019690938B0280938A02809325015E
:101B500080918802809324014091260150912701B1
:101B6000609128017091290180E00F91EF900C9411
:101B70007A0C9730E1F48823E1F1409126015091ED
:101B80002701609128017091290180E00E947A0C60
:101B90006091CB027091CC028091CD029091CE02E7
:101BA0000091320120E040E00E94550A20C08823C5
:101BB00001F110928B0210928A0210928902109207
:101BC000880210922501109224016091CB0270913D
:101BD000CC028091CD029091CE020091320120E0A2
:101BE00040E00E94550A109291020E94670C1092E8
:101BF0000B010F91EF9008950F9380910B018823B3
:101C0000B1F16091CB027091CC028091CD029091A4
:101C1000CE020091320120E040E00E94550A10926D
:101C200091020E94670C10920B0110928402109294
:101C30008502109283028091C7029091C802A09100
:101C4000C902B091CA0283309105A105B10521F006
:101C50000897A105B10559F460E0809116010E9432
:101C6000871E60E0809115010F910C94871E0F91E3
:101C70000895EF920F9380910A01813071F4809161
:101C80000B01882309F415C16091CF027091D00235
:101C90008091D1029091D20265C0823009F409C1CD
:101CA000833049F580910B01882309F402C16091CA
:101CB000D7027091D8028091D9029091DA020091F6
:101CC000320120E040E00E94550A10920B01809101
:101CD000C7029091C802A091C902B091CA02833094
:101CE0009105A105B10529F00897A105B10509F0F5
:101CF000E0C061E082C0843051F480910B01882300
:101D000009F4D7C010920B0110928F02B6C0853033
:101D100009F042C080910B01882309F4CAC0809168
:101D2000C7029091C802A091C902B091CA02833043
:101D30009105A105B10521F00897A105B10551F460
:101D400061E0809116010E94871E61E0809115017B
:101D50000E94871E6091D7027091D8028091D902AB
:101D60009091DA02E090320100E021E040E00E9430
:101D7000E2096091CB027091CC028091CD029091EA
:101D8000CE02E090320121E040E00E94E209109290
:101D90000B0110928F028DC0863029F480910B01C7
:101DA000811116C086C0873099F580910B01882378
:101DB00009F47FC06091CB027091CC028091CD027A
:101DC0009091CE020091320120E040E00E94550A3D
:101DD00010920B018091C7029091C802A091C90294
:101DE000B091CA0283309105A105B10529F0089789
:101DF000A105B10509F05DC060E0809116010E9467
:101E0000871E60E0809115010F91EF900C94871E62
:101E1000883009F04AC080910B01882309F449C039
:101E20006091D7027091D8028091D9029091DA0224
:101E3000E090320100E021E040E00E94E209609180
:101E4000CF027091D0028091D1029091D202E090A5
:101E5000320121E040E00E94E2096091CB027091E2
:101E6000CC028091CD029091CE02E090320121E02F
:101E700040E00E94E20910920B018091C70290910C
:101E8000C802A091C902B091CA0283309105A10590
:101E9000B10521F00897A105B10559F461E08091E1
:101EA00016010E94871E61E0ADCF0F91EF900C9458
:101EB000FC0D0F91EF90089582EB92E00E941D08B7
:101EC000F5E09695879577956795FA95D1F70895FA
:101ED000EF920F93CF93C82F6EE671E080E093E00E
:101EE0000E9414206C2F82EB92E00E944506811123
:101EF00021C000913101000F6091DB027091DC0282
:101F00008091DD029091DE02B8E1EB2E20E040E00E
:101F10000E94E2094AE050E06C2F80E093E00E94CA
:101F2000032160E871E080E093E0CF910F91EF90A2
:101F30000C94212066E871E080E093E00E9421206B
:101F400000913101000F6091CF027091D002809119
:101F5000D1029091D202A8E1EA2E20E040E00E9456
:101F6000E209CF910F91EF900895CF92DF92EF9217
:101F7000FF92CF93DF93C4E1D0E0C12CD12C760146
:101F800082E10E94E01DBC01882777FD8095982F93
:101F90000E942D289B01AC01C701B6010E942A278F
:101FA0006B017C01219761F720E030E048E951E4C2
:101FB0000E9492270E94FA27CB01DF91CF91FF90D8
:101FC000EF90DF90CF900895CF92DF92EF92FF9243
:101FD0000F931F93CF93DF93182F0E94B50FEC013F
:101FE0006091CF027091D0028091D1029091D20283
:101FF000E090320100E020E040E00E94E20985E448
:1020000091E090930F0180930E01909311018093C2
:10201000100110929502109296021092970210925F
:102020009802CD32D14024F00E94B50FEC01F9CFD7
:1020300060EB71E080E093E00E9421200E94B50FE8
:1020400020910E0130910F018217930724F4909391
:102050000F0180930E018534914084F30E94331D5B
:102060006B017C0188EEC80E83E0D81EE11CF11CD8
:102070000E94331D6C157D058E059F0570F40E942E
:10208000B50F20911001309111012817390784F7FD
:102090009093110180931001EBCFC0911001D0916A
:1020A00011016E97D0931101C0931001612F70E060
:1020B00080E090E00E942B286B017C0180910E0152
:1020C00090910F01BE01681B790B882777FD8095E1
:1020D000982F0E942D289B01AC01C701B6010E94D8
:1020E0009227609395027093960280939702909343
:1020F00098026091CB027091CC028091CD029091B8
:10210000CE02E090320100E020E040E00E94E209CF
:102110006EE071E081E090E00E945D0860E171E0B6
:1021200083E090E00E945D0860910E0170910F01C4
:102130004AE050E080E093E00E94DE2060911001D0
:10214000709111014AE050E080E093E00E94DE20AF
:102150004091950250919602609197027091980279
:1021600022E030E080E093E00E94072262EC71E020
:1021700080E093E0DF91CF911F910F91FF90EF905E
:10218000DF90CF900C942120CF92DF92EF92FF92BC
:102190000F931F93CF93DF938091C7029091C80252
:1021A00024E6289FE001299FD00D112440E052EC45
:1021B00061E070E080E093E00E94C71FBE016851BB
:1021C0007C4F882777FD8095982F0E94621D67EDD0
:1021D00071E080E093E00E9414204091C70250918A
:1021E000C8026091C9027091CA022AE030E080E022
:1021F00093E00E940A2181E00E94E01DBC01882733
:1022000077FD8095982F0E9445260E94A80860932C
:10221000C3027093C4028093C5029093C6020091DA
:10222000DF021091E0022091E1023091E20260179A
:1022300071078207930729F485E190E0A0E0B0E000
:1022400004C086E190E0A0E0B0E080932A01909382
:102250002B01A0932C01B0932D0161E08091170117
:102260000E944E1E61E0809117010E94871E80919E
:10227000C7029091C802A091C902B091CA028330EE
:102280009105A105B10521F00897A105B105C9F493
:1022900061E0809116010E944E1E61E0809115015F
:1022A0000E944E1E60E0809116010E94871E60E031
:1022B000809115010E94871E62E0809114010E94A6
:1022C0004E1E61EE71E080E093E00E94212083EEDB
:1022D00092E00E94440183EE92E00E94A1010E94DC
:1022E000960A6091DF027091E0028091E102909184
:1022F000E2020091320120E040E00E94550A6FEEB8
:1023000071E080E093E00E942120C8E1D1E010E07C
:102310008881833609F453C062E00E944E1E6FEF3D
:1023200071E080E093E00E9414204AE050E0688170
:1023300080E093E00E94032164E072E080E093E09B
:102340000E941420812F0E94270C682F70E04AE021
:1023500050E080E093E00E94D620812F0E94270C5D
:10236000811112C06091DB027091DC028091DD026C
:102370009091DE02B8E0EB2E00E020E040E00E9409
:10238000E20960E871E011C06091CF027091D00263
:102390008091D1029091D202A8E0EA2E00E020E0E4
:1023A00040E00E94E20968E072E080E093E00E9471
:1023B00021206AEF70E080E090E00E94621D21968B
:1023C0001F5F163009F0A4CF63E172E080E093E074
:1023D0000E9421206EE671E080E093E00E941420CC
:1023E00068E082EB92E00E9445068111BEC06091D8
:1023F000DB027091DC028091DD029091DE0220E12F
:10240000E22E0091310120E040E00E94E20963E801
:1024100071E080E093E00E94212042E050E069E515
:1024200078E080912E010E94D61B0FE110E020E0A1
:1024300030E040E060E082EB92E00E9460060FE155
:1024400010E020E030E040E061E082EB92E00E94AA
:1024500060060091C7021091C8022091C902309114
:10246000CA0240E060E082EB92E00E94B40600E025
:1024700010E0980140E061E082EB92E00E94B40637
:102480000091C7021091C8022091C9023091CA027E
:1024900040E062E082EB92E00E94B40600E010E0CF
:1024A000980140E063E082EB92E00E94B406009164
:1024B0002A0110912B0120912C0130912D0140E037
:1024C00064E082EB92E00E94B4060091C702109192
:1024D000C8022091C9023091CA0240E065E082EB57
:1024E00092E00E94B4062091C7023091C802409148
:1024F000C9025091CA02A8EEB3E00E948F290E943F
:10250000621D4091C7025091C8026091C90270914A
:10251000CA0235E0440F551F661F771F3A95D1F761
:102520008091260190912701A0912801B091290165
:10253000482B592B6A2B7B2BE2E0CE2EFAEAEF2EAA
:10254000F2E0FF2E08E020E082EB92E00E94AC0770
:1025500064E670E080E090E00E94621D8091A90234
:102560008823E9F11092A90217C066E871E080E0C3
:1025700093E00E9421206091CF027091D00280915F
:10258000D1029091D20200E1E02E0091310120E0D1
:1025900040E00E94E2091ECF82EB92E00E94150803
:1025A000833049F440EA52E068EA72E082EB92E05C
:1025B0000E94DF07F1CF00913101000F6091DB0233
:1025C0007091DC028091DD029091DE0218E1E12E33
:1025D00020E040E00E94E20964E272E013C0009152
:1025E0003101000F6091CF027091D0028091D10231
:1025F0009091D202D8E1ED2E20E040E00E94E20965
:1026000065E372E080E093E00E94212060E177E2E0
:1026100080E090E00E94621D6091CB027091CC023C
:102620008091CD029091CE020091320120E040E0F5
:102630000E94550A66E472E080E093E00E94212047
:1026400060E082E10E944E1E6BEC71E080E093E05E
:102650000E9421206EE071E081E090E00E949408E9
:1026600060E171E083E090E00E9494080091100125
:1026700010911101B801882777FD8095982F0E944D
:102680002D2820E030E0A9010E948E27882391F0B8
:10269000C0910E01D0910F01BE01882777FD809572
:1026A000982F0E942D2820E030E0A9010E948E275B
:1026B00081111BC06091CF027091D0028091D10234
:1026C0009091D2020091320120E040E00E94550A30
:1026D0001092950210929602109297021092980210
:1026E00080910C010E94E40F46C060910C01709132
:1026F0000D01882777FD8095982F0E942D286B016A
:102700007C01B8016C1B7D0B882777FD8095982F85
:102710000E942D289B01AC01C701B6010E9492279F
:10272000609395027093960280939702909398021B
:102730006091DB027091DC028091DD029091DE02FB
:10274000E090320100E020E040E00E94E20968EE03
:1027500073E080E090E00E94621D6091DB02709166
:10276000DC028091DD029091DE02E090320120E0F7
:1027700040E00E94E20960910E0170910F014AE071
:1027800050E080E093E00E94DE20609110017091A3
:1027900011014AE050E080E093E00E94DE20409189
:1027A000950250919602609197027091980222E0F2
:1027B00030E080E093E00E94072262EC71E080E06C
:1027C00093E00E9421201092940210929302809133
:1027D0003101082F000F080F6091DB027091DC02BD
:1027E0008091DD029091DE02C0E2EC2E20E040E01C
:1027F0000E94E209DF91CF911F910F91FF90EF901E
:10280000DF90CF900895EF920F93CF93DF93809155
:10281000A00281110BC00E945C0FAB01BC0181E0E2
:10282000DF91CF910F91EF900C947A0C813031F4BD
:10283000DF91CF910F91EF900C94B70B823051F450
:102840008091A10280930A0191E090930B01809303
:102850002101E2C0833001F58091A102811102C003
:1028600060E003C0813071F461E0809116010E9444
:10287000871E60E080911501DF91CF910F91EF905D
:102880000C94871E823009F0C7C061E08091160168
:102890000E94871E61E0EECF843009F4BDC0853010
:1028A00061F50E945C0FAB01BC012AE030E080E0E2
:1028B00093E00E94F6206FE572E080E093E00E94D2
:1028C0001420C0EAD2E082E0C83AD80771F06991DA
:1028D0004AE050E080E093E00E9403216FE572E05F
:1028E00080E093E00E941420EECF80E093E0DF913F
:1028F000CF910F91EF900C941D208630C1F49091F0
:10290000A10290938E028091A20280938D02209169
:10291000A30220938C02963011F40E94680F8091DC
:102920008E02893009F085E080931E0175C08730E2
:1029300009F072C08091A102813009F042C08093F9
:1029400091028091A202809390028130A9F40091BB
:102950003101000F6091CF027091D0028091D102BD
:102960009091D202D0E2ED2E21E040E00E94E209F7
:1029700081E08093850250C08230A1F46091DF0233
:102980007091E0028091E1029091E202C0E1EC2EB0
:102990000091310121E040E00E94E20981E0809352
:1029A00084023AC08930C1F580910A018250843096
:1029B00098F180910C01DF91CF910F91EF900C94E1
:1029C000E40F1092910280918502882389F0109281
:1029D000850220913101220F6091D7027091D802B7
:1029E0008091D9029091DA0200E240E00E94550AFB
:1029F00080918402882381F0109284026091D70232
:102A00007091D8028091D9029091DA0200E1209170
:102A1000310140E00E94550ADF91CF910F91EF9074
:102A20000895CF93DF93C0911001D09111010E94BE
:102A3000B50FBE01681B790B882777FD8095982F0D
:102A40000E942D2820919502309196024091970284
:102A5000509198020E94E1280E94FA27CB0177FF4B
:102A600002C080E090E0DF91CF910895EF920F9344
:102A7000CF93DF9380910A018130B9F580910B01EA
:102A8000882309F4DCC26091D7027091D80280914A
:102A9000D9029091DA02E090320100E021E040E0BA
:102AA0000E94E2096091CB027091CC028091CD022C
:102AB0009091CE02E090320121E040E00E94E209D4
:102AC00010920B01109292020E94A8086093C30218
:102AD0007093C4028093C5029093C60210922401A1
:102AE0001092250110928F02AAC2823009F4A7C267
:102AF000833009F056C080910B01882309F476C019
:102B00008091850281110FC06091D7027091D80227
:102B10008091D9029091DA02E090320100E021E048
:102B200040E00E94E2096091D3027091D40280914A
:102B3000D5029091D60200E12091310140E00E943F
:102B4000550A6091DF027091E0028091E10290915C
:102B5000E20208E020E040E00E94550A10920B01DA
:102B600010928F02109292021092240189E08093B9
:102B700025018091C7029091C802A091C902B0912D
:102B8000CA0283309105A105B10521F00897A1057E
:102B9000B10561F561E0809116010E94871E60E039
:102BA00021C0843079F580910B018823F9F01092CF
:102BB0000B0110928F028091C7029091C802A091E0
:102BC000C902B091CA0283309105A105B10521F077
:102BD0000897A105B10551F461E0809116010E94AA
:102BE000871E61E0809115010E94871E80918F02EF
:102BF000811125C280918302882309F4D3C00E94E9
:102C000011159BC0853009F0E8C080910B01882325
:102C100009F47DC06091D7027091D8028091D902E9
:102C20009091DA02E090320100E021E040E00E9461
:102C3000E2098091850281110EC06091D7027091E6
:102C4000D8028091D9029091DA02E090320121E01D
:102C500040E00E94E2096091D3027091D402809119
:102C6000D5029091D60200E12091310140E00E940E
:102C7000550A80918302882349F06091DB027091AC
:102C8000DC028091DD029091DE0208C06091DF02DB
:102C90007091E0028091E1029091E20208E020E070
:102CA00040E00E94550A10920B0110928F02109280
:102CB00024010E941115EC0180910C0190910D01ED
:102CC0000197C817D90724F081E08093920202C0CF
:102CD000109292024091C7025091C8026091C902BD
:102CE0007091CA02433051056105710529F04830E1
:102CF00051056105710569F461E0809116010E943A
:102D0000871E60E0809115010E94871E02C0C0E00E
:102D1000D0E080918F02811192C18091830288233B
:102D200009F440C080918402882309F488C10E947C
:102D300011158C179D0709F482C120910C01309167
:102D40000D0121503109821793071CF081E0809317
:102D5000920280919202882309F471C182E08093EB
:102D60002501109284024091260150912701609123
:102D700028017091290180E00E947A0C6091DB02A9
:102D80007091DC028091DD029091DE0240E1E42E40
:102D90000091310120E040E00E94E20981E080934F
:102DA0008F024DC1C09199020E94670C80919902D7
:102DB000C81709F444C180E00E94270C882309F455
:102DC0003EC188E080932501409126015091270162
:102DD000609128017091290105C1863029F4809104
:102DE0000B01811116C02BC18730A9F580910B0111
:102DF000882309F424C16091CB027091CC028091A8
:102E0000CD029091CE020091320120E040E00E947C
:102E1000550A10920B018091C7029091C802A091AF
:102E2000C902B091CA0283309105A105B10529F00C
:102E30000897A105B10509F002C160E08091160173
:102E40000E94871E60E080911501DF91CF910F9164
:102E5000EF900C94871E883009F0EBC080910B0135
:102E6000882309F448C06091D7027091D8028091FC
:102E7000D9029091DA02E090320100E021E040E0D6
:102E80000E94E2096091CF027091D0028091D1023C
:102E90009091D202E090320121E040E00E94E209EC
:102EA0006091D7027091D8028091D9029091DA0294
:102EB000E090320121E040E00E94E20910920B0113
:102EC0008091C7029091C802A091C902B091CA0234
:102ED00083309105A105B10521F00897A105B10541
:102EE00051F461E0809116010E94871E61E080919B
:102EF00015010E94871EC0918602D09187020E9410
:102F00001115909387028093860220910C013091D5
:102F10000D0121503109821793071CF021E0209305
:102F20009202C817D90709F445C0809192024091D6
:102F30002601509127016091280170912901882371
:102F400009F182E0809325011092840280E00E94C2
:102F50007A0C6091DB027091DC028091DD0290912D
:102F6000DE0230E1E32E0091310120E040E00E94DA
:102F7000E209109292026AE070E080E090E00E9424
:102F8000621D18C081E0809325018093840280E057
:102F90000E947A0C6091DF027091E0028091E10260
:102FA0009091E20220E1E22E0091310120E040E028
:102FB0000E94E209C09199020E94670C80919902D7
:102FC000C817E9F180E00E94270C4091260150913A
:102FD00027016091280170912901882391F088E0F0
:102FE0008093250180E00E947A0C81E08093830227
:102FF0006091DB027091DC028091DD029091DE0233
:1030000010C089E08093250180E00E947A0C109224
:1030100083026091DF027091E0028091E102909161
:10302000E20208E0E02E00E020E040E00E94E20939
:1030300006C0DF91CF910F91EF900C94FC0DDF91C2
:10304000CF910F91EF900895EF920F93CF93DF936D
:1030500080910A018130B9F580910B01882309F430
:1030600092C26091DF027091E0028091E102909142
:10307000E202E090320100E021E040E00E94E2093B
:103080006091CB027091CC028091CD029091CE02E2
:10309000E090320121E040E00E94E20910920B0131
:1030A000109292020E94A8086093C3027093C40217
:1030B0008093C5029093C6021092240110922501BC
:1030C00010928F0260C2823009F45DC2833009F031
:1030D00067C080910B01882309F44BC08091850261
:1030E00081110FC06091D7027091D8028091D902EE
:1030F0009091DA02E090320100E021E040E00E948D
:10310000E2096091D3027091D4028091D50290912E
:10311000D60200E12091310140E00E94550A609101
:10312000DF027091E0028091E1029091E20208E0FA
:1031300020E040E00E94550A10920B018091C702E6
:103140009091C802A091C902B091CA028330910542
:10315000A105B10521F00897A105B10551F461E081
:10316000809116010E94871E60E0809115010E94E7
:10317000871E80918F02811106C280918302409147
:10318000260150912701609128017091290188231F
:1031900009F4C9C182E08093250110928402AAC07B
:1031A000843011F580910B01882309F4ECC1109251
:1031B0000B0110928F028091C7029091C802A091DA
:1031C000C902B091CA0283309105A105B10529F069
:1031D0000897A105B10509F0D6C161E080911601FB
:1031E0000E94871E61E0D3C0853009F09AC08091AB
:1031F0000B01882309F468C08091C7029091C8022E
:10320000A091C902B091CA0283309105A105B10510
:1032100021F00897A105B10551F461E080911601F4
:103220000E94871E61E0809115010E94871E6091B7
:10323000D7027091D8028091D9029091DA02E09081
:10324000320100E021E040E00E94E2098091850225
:1032500081110EC06091D7027091D8028091D9027D
:103260009091DA02E090320121E040E00E94E20910
:103270006091D3027091D4028091D5029091D602D0
:1032800000E12091310140E00E94550A80918302C3
:10329000882349F06091DB027091DC028091DD02AD
:1032A0009091DE0208C06091DF027091E00280918F
:1032B000E1029091E20208E020E040E00E94550A1D
:1032C00010920B0110928F0280918F0281115BC1CD
:1032D00080918302882309F456C182E080932501FE
:1032E000109284024091260150912701609128019B
:1032F0007091290180E00E947A0C6091DB0270914C
:10330000DC028091DD029091DE02A0E1EA2E0091C4
:10331000310120E040E00E94E20981E080938F02C9
:1033200032C1863029F480910B01811116C02BC166
:103330008730A9F580910B01882309F424C160919D
:10334000CB027091CC028091CD029091CE0200917F
:10335000320120E040E00E94550A10920B0180915A
:10336000C7029091C802A091C902B091CA028330ED
:103370009105A105B10529F00897A105B10509F04E
:1033800002C160E0809116010E94871E60E080917A
:103390001501DF91CF910F91EF900C94871E88302B
:1033A00009F0EBC080910B01882309F448C06091BB
:1033B000D7027091D8028091D9029091DA02E09000
:1033C000320100E021E040E00E94E2096091CF027A
:1033D0007091D0028091D1029091D202E09032019E
:1033E00021E040E00E94E2096091D7027091D8028A
:1033F0008091D9029091DA02E090320121E040E020
:103400000E94E20910920B018091C7029091C802BC
:10341000A091C902B091CA0283309105A105B105FE
:1034200021F00897A105B10551F461E080911601E2
:103430000E94871E61E0809115010E94871EC09145
:103440008602D09187020E94111590938702809383
:10345000860220910C0130910D0121503109821713
:1034600093071CF021E020939202C817D90709F4B2
:1034700045C08091920240912601509127016091B0
:10348000280170912901882309F182E080932501A8
:103490001092840280E00E947A0C6091DB027091AD
:1034A000DC028091DD029091DE02F0E1EF2E0091CE
:1034B000310120E040E00E94E209109292026AE0AD
:1034C00070E080E090E00E94621D18C081E080936F
:1034D00025018093840280E00E947A0C6091DF02D3
:1034E0007091E0028091E1029091E202E0E1EE2E23
:1034F0000091310120E040E00E94E209C091990270
:103500000E94670C80919902C817E9F180E00E943F
:10351000270C40912601509127016091280170915C
:103520002901882391F088E08093250180E00E94A2
:103530007A0C81E0809383026091DB027091DC025F
:103540008091DD029091DE0210C089E08093250118
:1035500080E00E947A0C109283026091DF027091E9
:10356000E0028091E1029091E20258E0E52E00E055
:1035700020E040E00E94E20906C0DF91CF910F9168
:10358000EF900C94FC0DDF91CF910F91EF90089587
:10359000CF93DF9382EB92E00E9415088330A1F471
:1035A00040EA52E068EA72E082EB92E00E94DF07B4
:1035B000809188029091890201969093890280936C
:1035C00088020E940314E6CF80918E02883059F45D
:1035D00080918D02813019F40E94390E04C082302E
:1035E00011F40E94241880918E02893061F4809138
:1035F0008D02813019F40E94CF0C07C0823029F46B
:103600000E94640D02C00E94361580910A01833029
:1036100009F042C08091C7029091C802A091C902EE
:10362000B091CA0283309105A105B10521F0089738
:10363000A105B10589F5C0911201D09113018091C6
:1036400014010E94BD1E9093130180931201C817AC
:10365000D90711F14AE050E0BC0180E093E00E94FC
:10366000DE208091120190911301892BA9F4C4E00E
:10367000C0932101409126015091270160912801BA
:103680007091290180E00E947A0C0E94C60881E0B6
:1036900080930B01C0930A01DF91CF91089560914F
:1036A000320170E023E04091330183EE92E00E940A
:1036B000960240E060E0809130010E940303609335
:1036C000DF027093E0028093E1029093E20240E017
:1036D0006091300180E00E9403036093DB027093ED
:1036E000DC028093DD029093DE024091300160E0C5
:1036F00080E00E9403036093D7027093D802809306
:10370000D9029093DA0280913001482F682F0E94ED
:1037100003036093D3027093D4028093D5029093F5
:10372000D6028091300140E0682F0E94030360932D
:10373000CF027093D0028093D1029093D20240E0E6
:1037400060E080E00E9403036093CB027093CC02A0
:103750008093CD029093CE0280E090E00E94342BC3
:1037600090E0A0E0B0E08093C7029093C802A093DD
:10377000C902B093CA028091DF029091E002A09149
:10378000E102B091E2028093C3029093C402A0933D
:10379000C502B093C60260912F0182EB92E00C94B7
:1037A000370683EE92E00C9430010895853008F0DE
:1037B0004CC0E82FF0E0EE0FFF1FEC5CFE4F718372
:1037C00060838230E1F018F4813069F004C0833006
:1037D00019F1843071F1809169008C7F842B809382
:1037E0006900E89A089580916900440F551F440FBD
:1037F000551F837F842B80936900E99A08958091F7
:10380000690034E0440F551F3A95E1F78F7C842B13
:1038100080936900EA9A08958091690026E0440F38
:10382000551F2A95E1F78F73842B80936900EB9ADB
:10383000089580916A0094E0440F551F9A95E1F72E
:103840008F7C842B80936A00EE9A08951F920F92CA
:103850000FB60F9211242F933F934F935F936F9363
:103860007F938F939F93AF93BF93EF93FF93E091D9
:103870003401F09135010995FF91EF91BF91AF911E
:103880009F918F917F916F915F914F913F912F9178
:103890000F900FBE0F901F9018951F920F920FB6AA
:1038A0000F9211242F933F934F935F936F937F93C6
:1038B0008F939F93AF93BF93EF93FF93E091360164
:1038C000F09137010995FF91EF91BF91AF919F91D1
:1038D0008F917F916F915F914F913F912F910F90B9
:1038E0000FBE0F901F9018951F920F920FB60F9258
:1038F00011242F933F934F935F936F937F938F93F5
:103900009F93AF93BF93EF93FF93E0913801F091B2
:1039100039010995FF91EF91BF91AF919F918F91DF
:103920007F916F915F914F913F912F910F900FBEBB
:103930000F901F9018951F920F920FB60F9211249F
:103940002F933F934F935F936F937F938F939F93A7
:10395000AF93BF93EF93FF93E0913A01F0913B0156
:103960000995FF91EF91BF91AF919F918F917F91B9
:103970006F915F914F913F912F910F900FBE0F90DC
:103980001F9018951F920F920FB60F9211242F932C
:103990003F934F935F936F937F938F939F93AF93D7
:1039A000BF93EF93FF93E0913C01F0913D010995A6
:1039B000FF91EF91BF91AF919F918F917F916F9107
:1039C0005F914F913F912F910F900FBE0F901F90DD
:1039D00018951F920F920FB60F9211242F933F93B9
:1039E0008F939F93AF93BF938091F8029091F902C8
:1039F000A091FA02B091FB023091F70223E0230F6D
:103A00002D3720F40196A11DB11D05C026E8230F16
:103A10000296A11DB11D2093F7028093F8029093A6
:103A2000F902A093FA02B093FB028091FC029091FC
:103A3000FD02A091FE02B091FF020196A11DB11DF1
:103A40008093FC029093FD02A093FE02B093FF02CC
:103A5000BF91AF919F918F913F912F910F900FBE8A
:103A60000F901F9018952FB7F8946091F8027091FD
:103A7000F9028091FA029091FB022FBF08953FB79F
:103A8000F8948091FC029091FD02A091FE02B09109
:103A9000FF0226B5A89B05C02F3F19F00196A11D76
:103AA000B11D3FBF6627782F892F9A2F620F711D96
:103AB000811D911D42E0660F771F881F991F4A954F
:103AC000D1F70895CF92DF92EF92FF92CF93DF93D9
:103AD0006B017C010E943F1DEB01C114D104E10484
:103AE000F10489F00E948D260E943F1D6C1B7D0B06
:103AF000683E734090F381E0C81AD108E108F108EC
:103B0000C851DC4FEACFDF91CF91FF90EF90DF906B
:103B1000CF900895789484B5826084BD84B5816027
:103B200084BD85B5826085BD85B5816085BDEEE6C5
:103B3000F0E0808181608083E1E8F0E010828081A4
:103B400082608083808181608083E0E8F0E0808112
:103B500081608083E1E9F0E0808182608083808100
:103B600081608083E0E9F0E0808181608083E1EC26
:103B7000F0E08081846080838081826080838081A6
:103B800081608083E3ECF0E0808181608083E0EC01
:103B9000F0E0808182608083E2ECF0E080818160EF
:103BA0008083EAE7F0E080818460808380818260A6
:103BB0008083808181608083808180688083089594
:103BC000823108F08251E82FF0E0E451FF4FE49198
:103BD00080917B00E3FB222720F930E095E0220F63
:103BE000331F9A95E1F78F7D822B80937B00E770DE
:103BF00080913E0120E4829FC0011124E82BE093D4
:103C00007C0080917A00806480937A0080917A00B1
:103C100086FDFCCF809178002091790090E0922B76
:103C2000089590E0FC013197EF30F105B0F5E959C6
:103C3000FF4F0C948929809180008F7703C0809179
:103C400080008F7D80938000089580918000877F21
:103C5000F9CF84B58F7702C084B58F7D84BD089578
:103C6000809190008F7707C0809190008F7D03C076
:103C700080919000877F8093900008958091C0008C
:103C80008F7703C08091C0008F7D8093C00008951E
:103C90008091C200877F8093C2000895CF93DF9305
:103CA00090E0FC01E95EFE4F2491FC01EA5CFE4FCE
:103CB0008491882349F190E0880F991FFC01EF5807
:103CC000FE4FA591B4918D599E4FFC01C591D491A1
:103CD0009FB7611108C0F8948C91209582238C9332
:103CE000888182230AC0623051F4F8948C91322F7B
:103CF000309583238C938881822B888304C0F89429
:103D00008C91822B8C939FBFDF91CF9108950F935D
:103D10001F93CF93DF931F92CDB7DEB7282F30E0EC
:103D2000F901E850FF4F8491F901E95EFE4F1491CB
:103D3000F901EA5CFE4F04910023C9F0882321F0C9
:103D400069830E94111E6981E02FF0E0EE0FFF1FD2
:103D5000ED59FE4FA591B4919FB7F8948C916111E4
:103D600003C01095812301C0812B8C939FBF0F90BE
:103D7000DF91CF911F910F910895CF93DF93282F5B
:103D800030E0F901E850FF4F8491F901E95EFE4F00
:103D9000D491F901EA5CFE4FC491CC2391F08111DA
:103DA0000E94111EEC2FF0E0EE0FFF1FEB5AFE4FAA
:103DB000A591B4912C912D2381E090E021F480E035
:103DC00002C080E090E0DF91CF910895CF93DF9320
:103DD0001F92CDB7DEB76983DC01ED91FC910280C3
:103DE000F381E02D41E050E0BE016F5F7F4F099508
:103DF0000F90DF91CF910895CF93DF93EC018C85E5
:103E00009D8597FF05C082E00E942A239D878C87AD
:103E10008C859D85DF91CF91089583E00C94A52535
:103E2000FC018485958597FD06C082E00E94D22220
:103E300090E00196089582E00E94D22290E00895D9
:103E4000FC018485958597FD05C02FEF3FEF3587F1
:103E50002487089582E00C942A23CF93DF93EC010A
:103E600080914A01882331F083E00E945B23181679
:103E7000190634F081E090E09B838A8380E090E033
:103E8000DF91CF910895FC0120812E5F208342E4D1
:103E900050E06FE771E080E80C94F623FC0121818B
:103EA0008081813A59F4213209F05CC047E050E04A
:103EB00063E471E080E00E94F62367C0813209F07C
:103EC00051C0233289F4838190E0982F8827328172
:103ED000832BA0E0B0E080933F0190934001A0933A
:103EE0004101B09342010FC0203239F467E070E025
:103EF00083E491E00E9427240AC0223221F48281C7
:103F000080934A0104C02D7F203209F03EC0809189
:103F1000430190914401A0914501B0914601803B3D
:103F20009440A105B10501F580914A0180FD1CC0B6
:103F300080910008909101089093FF0A8093FE0AF7
:103F400087E797E790930108809300082BE088E1CA
:103F500090E00FB6F894A895809360000FBE209370
:103F6000600013C080E0089588E10FB6F894809354
:103F70006000109260000FBEA8958091FE0A90919B
:103F8000FF0A909301088093000881E008952FEFC5
:103F90003FEFFC01358724870895109203031092A8
:103FA000020388EE93E0A0E0B0E0809304039093D6
:103FB0000503A0930603B093070385E692E0909370
:103FC0000103809300038FEF9FEF90930D03809385
:103FD0000C03089508950E948A1D0E94EA1F80E53F
:103FE00093E00E9432260E94C410C0E0D0E00E94FC
:103FF000C81A2097E1F30E940000F9CF61157105FE
:1040000081F0DB010D900020E9F7AD01415051092D
:10401000461B570BDC01ED91FC910280F381E02DF2
:10402000099480E090E008950C94FE1FDC01ED916E
:10403000FC910190F081E02D099461E772E00C940D
:10404000FE1F0F931F93CF93DF93EC010E94FE1F7F
:104050008C01CE010E941D20800F911FDF91CF9116
:104060001F910F9108958F929F92AF92BF92CF921E
:10407000DF92EF92FF920F931F93CF93DF93CDB711
:10408000DEB7A1970FB6F894DEBF0FBECDBF7C019F
:10409000C42EE52FCB01D22E19A221E02D1510F050
:1040A0002AE0D22E8E010F5D1F4F8D2C912CA12C5A
:1040B000B12C6C2D7E2FA50194010E9448298C2DD6
:1040C000D29E80191124015011098A3014F4805DA8
:1040D00001C0895CF8018083211531054105510536
:1040E00021F0C22EE32FCA01E4CFB801C7010E941C
:1040F000FE1FA1960FB6F894DEBF0FBECDBFDF91B5
:10410000CF911F910F91FF90EF90DF90CF90BF90D4
:10411000AF909F908F900895CF92DF92EF92FF9291
:104120000F931F93CF93DF93EC016A017B0121155D
:10413000310579F4E881F9810190F081E02D642F57
:10414000DF91CF911F910F91FF90EF90DF90CF9073
:1041500009942A303105E9F477FF1AC06DE20E9414
:1041600016208C0144275527BA014C195D096E09A8
:104170007F092AE0CE010E943320800F911FDF913A
:10418000CF911F910F91FF90EF90DF90CF90089506
:104190002AE0B701A601CE01DF91CF911F910F91C7
:1041A000FF90EF90DF90CF900C9433209A01AB01F9
:1041B000662757FD6095762F0C948C200F931F93E4
:1041C000CF93DF93EC019A01AB01662757FD609511
:1041D000762F0E948C208C01CE010E941D20800F22
:1041E000911FDF91CF911F910F91089521153105F6
:1041F00041F4DC01ED91FC910190F081E02D642F00
:1042000009940C9433209A01462F50E060E070E04E
:104210000C94F6200F931F93CF93DF93EC010E9431
:10422000F6208C01CE010E941D20800F911FDF918E
:10423000CF911F910F9108954F925F926F927F924D
:104240008F929F92AF92BF92CF92DF92EF92FF92A6
:104250000F931F93CF93DF93EC016A017B01B22E82
:104260009A01AB01C701B6010E944429882319F0C5
:1042700064E772E027C026013701E89477F82FEF52
:104280003FEF4FE75FE7C301B2010E94442981116C
:104290000DC02FEF3FEF4FE75FE7C301B2010E9470
:1042A0008E2718161CF468E772E00CC02FEF3FEF62
:1042B0004FE75FE4C701B6010E94DD281816ACF491
:1042C0006CE772E0CE01DF91CF911F910F91FF90CB
:1042D000EF90DF90CF90BF90AF909F908F907F90A6
:1042E0006F905F904F900C94FE1F2FEF3FEF4FE7C2
:1042F0005FECC701B6010E948E2787FDE1CF20E069
:1043000030E0A901C701B6010E948E2787FF0AC0CD
:104310006DE2CE010E9416208C01F7FAF094F7F8B6
:10432000F09402C000E010E0A12C60E070E080E0BA
:104330009FE3AB1441F020E030E040E251E40E9402
:104340009227A394F6CF9B01AC01C701B6010E944E
:104350002A276B017C010E94FF272B013C010E9450
:104360002B289B01AC01C701B6010E9429276B01D4
:104370007C012AE0B301A201CE010E943320080F84
:10438000191FBB2039F060E872E0CE010E94FE1FC9
:10439000080F191F7B2C772041F120E030E040E22C
:1043A00051E4C701B6010E94E1286B017C010E9423
:1043B000FA274B01AA2497FCA094BA2C2AE030E0FB
:1043C000B501A401CE010E948C20080F191FC50160
:1043D000B4010E942D289B01AC01C701B6010E94C7
:1043E00029276B017C017A94D6CFC801DF91CF9148
:1043F0001F910F91FF90EF90DF90CF90BF90AF9003
:104400009F908F907F906F905F904F9008950F9343
:104410001F93CF93DF93EC010E941C218C01CE01EE
:104420000E941D20800F911FDF91CF911F910F914E
:104430000895615030F02091F100FC012083019635
:10444000F8CF289884E68093590308954091540347
:104450005091550320915203309153034217530753
:10446000B4F49091E8009570E1F39091E80092FD2A
:1044700019C08093F10080915403909155030196E7
:104480008F739927892B19F48EEF8093E800809120
:1044900054039091550301969093550380935403D0
:1044A00081E0089580E00895CF92DF92EF92FF922D
:1044B0000F931F93CF93DF931F92CDB7DEB7082FD3
:1044C000162FF42E862F880F8E5F99830E94262246
:1044D00083E00E942622E02EC02E9981D92E8C2DB9
:1044E0008E19811798F4F601F7FE02C0849101C07D
:1044F00080810E942622082F80E00E9426228023AD
:10450000FFEFCF1ADF0A8111EACF01C081E00F90DF
:10451000DF91CF911F910F91FF90EF90DF90CF909F
:1045200008958091D70081608093D70080EA8093BE
:10453000D80089B5806189BD89B5826089BD09B41B
:1045400000FEFDCF61E070E080E090E00E94621D1F
:104550008091D8008F7C80618093D8008091E000AA
:10456000807F8093E0000895CF93DF931F92CDB7B3
:10457000DEB71982CE0101960E94431F0E941527C3
:10458000BE016F5F7F4F0E948E2689810F90DF9161
:10459000CF9108952FB7FC012083F8946770609342
:1045A000E9000895CF93DF931F92CDB7DEB7682F50
:1045B000CE0101960E94CA228091F20099819FBF8C
:1045C0000F90DF91CF910895FF920F931F93CF9398
:1045D000DF9300D0CDB7DEB7F62E8A019091580355
:1045E000992311F057FF03C08FEF9FEF2BC0682F67
:1045F000CE0101967A830E94CA228091F20090E057
:10460000A8017A81801791070CF4AC01EF2DF72FE8
:10461000F40E84E6FE1639F02898809359039091A1
:10462000F1009193F7CF4115510521F08091F200EF
:10463000882321F089818FBFCA0104C08BE6809353
:10464000E800F8CF0F900F90DF91CF911F910F915D
:10465000FF900895CF93DF931F92CDB7DEB741E06F
:1046600050E0BE016F5F7F4F0E94E422019719F472
:10467000898190E002C08FEF9FEF0F90DF91CF9183
:104680000895CF93DF931F92CDB7DEB7682FCE0189
:1046900001960E94CA229091E800892F807295FFAE
:1046A00004C09091F20080E4891B99819FBF0F9014
:1046B000DF91CF9108956F927F928F929F92AF92E8
:1046C000BF92CF92DF92EF92FF920F931F93CF93FF
:1046D000DF931F92CDB7DEB7782E7B01C42EB52EA7
:1046E00080915803882369F0042F152F8AEFD82E64
:1046F000872D8072982E9AE3A92E872D8074882E9C
:1047000011C08FEF9FEF57C0872D0E944123682E65
:1047100081110CC0DA94A9F361E070E080E090E0D0
:104720000E94621D0115110579F73BC0282F30E06A
:10473000021713070CF4602E672DCE0101960E941C
:10474000CA228091E80085FF29C0262D30E0021B97
:10475000130B992039F06A948FEF6816B1F010921C
:10476000F100F9CFF701862D77FE07C0815058F090
:1047700094919093F1003196F9CF815020F091916E
:104780009093F100FACFE20EF31E8091E80085FFCE
:104790000FC00115110511F481100AC089818FBF66
:1047A000C1CF5D9884E680935A038C2D9B2D03C066
:1047B000A092E800F3CF0F90DF91CF911F910F915E
:1047C000FF90EF90DF90CF90BF90AF909F908F9031
:1047D0007F906F9008951092E90010925503109207
:1047E000540390935303809352030895CF92DF9222
:1047F000FF920F931F93CF93DF9300D0CDB7DEB717
:10480000F82E8A016B0101151105B1F0F601F7FED2
:1048100002C0849101C0808149835A830E9426226C
:1048200001501109FFEFCF1ADF0A49815A81811126
:10483000EACF8FEF9FEF01C0CA010F900F90DF9179
:10484000CF911F910F91FF90DF90CF9008951F930C
:10485000CF93DF931F92CDB7DEB7162F2091E800DC
:1048600022FFFCCF612F79830E9419228BEF809366
:10487000E800812F7981972F0F90DF91CF911F91C1
:1048800008951F920F920FB60F921124DF92EF92AC
:10489000FF920F931F932F933F934F935F936F93C9
:1048A0007F938F939F93AF93BF93EF93FF93CF9398
:1048B000DF93CDB7DEB76C97DEBFCDBF1092E900B6
:1048C0008091E80083FF23C168E0CE0145960E94F5
:1048D000192282EF8093E8003D8937FF05C080915F
:1048E000E80080FFFCCF03C08EEF8093E800832FA9
:1048F000807609F0F0C02E894F89D88C21110CC028
:10490000303829F4809157038093F10002C010924F
:10491000F1001092F100F4C0842F90E09D29213025
:1049200049F43111EDC0019709F0EAC080915703B5
:104930008D7F0AC0233059F43111E2C0019709F08C
:10494000DFC080915703826080935703D9C0253020
:1049500041F48091E80080FFFCCF40684093E30081
:10496000CFC0263009F08DC0EB8CFC8C22E0D21237
:104970002CC080E090E00E94EB230E94B42299E0DA
:104980008E010F5F1F4FF801292F11922A95E9F729
:104990009983DA8291E09E8390EA98879AEF9987CB
:1049A0002091540330915503275F3F4F3C832B8365
:1049B0008D83C7010E94EB2349E050E0B80180E0FD
:1049C0000E94F6230E94B4229BC0C7010E94EB23E1
:1049D0000E941527BE016B5E7F4F0E94B72600978D
:1049E00019F00CF08DC090C081E0D8120EC08B8DF4
:1049F0009C8D089719F481E08093510380915103B5
:104A000081112FC063ED71E031C0E3E0DE127CC0A4
:104A10008F89882349F1823029F440E860E181EFF1
:104A200091E01CC0813029F440E86BE085EE91E014
:104A300015C0833009F068C00E9415278E010F5FF2
:104A40001F4FB8010E94D626F80101900020E9F717
:104A50003197E01BF10B40E06E2FC8010E945422F9
:104A60004DC061EC71E002C062E072E06115710559
:104A700009F44AC0FB01449150E080E80E94F6230B
:104A80003FC0273009F440C0283021F481E08093F2
:104A9000F10036C02930A1F53370B1F5ECE4F1E056
:104AA00081E021E036E39081992361F08093E90071
:104AB0002093EB0091919093EC003093ED008F5F89
:104AC000873089F78EE78093EA001092EA008F8999
:104AD0008093580315C08B8D9C8D0E94EB23898D8C
:104AE000811105C0CE0145960E944E1F07C00E944D
:104AF0001527BE016B5E7F4F0E94F526882321F0AB
:104B00008EEF8093E80003C081E28093EB006C9607
:104B10000FB6F894DEBF0FBECDBFDF91CF91FF91EE
:104B2000EF91BF91AF919F918F917F916F915F9125
:104B30004F913F912F911F910F91FF90EF90DF9038
:104B40000F900FBE0F901F9018958093E9008091F1
:104B5000F200882319F08AE38093E80008951F92F9
:104B60000F920FB60F9211242F933F934F935F93A1
:104B70006F937F938F939F93AF93BF93CF93EF9355
:104B8000FF93C091E1008091E100837F8093E10079
:104B90008093E100C3FF0FC01092E90081E0809391
:104BA000EB001092EC0082E38093ED00109258032A
:104BB00088E08093F000C2FF19C083E00E94A52521
:104BC00080915A03882339F080915A038150809351
:104BD0005A03882389F180915903882339F0809101
:104BE0005903815080935903882341F1C4FF10C0B9
:104BF0008091E2008E7E81608093E2008091E100EE
:104C00008F7E8093E100809156038E7E806111C07B
:104C1000C0FF16C08091E2008E7E80618093E2002A
:104C20008091E1008E7E8093E100809156038E7E1C
:104C300081608093560304C05D9ACDCF289AD6CF69
:104C4000FF91EF91CF91BF91AF919F918F917F9104
:104C50006F915F914F913F912F910F900FBE0F90E9
:104C60001F901895109258031092570310925603F4
:104C70000E949122E1EEF0E080818E7E80838DE0C3
:104C80008093E200559A209A089561157105810577
:104C9000910511F00C94242B0895CF93DF9300D04D
:104CA00000D0CDB7DEB79B01AC0161157105810560
:104CB000910569F069833A834B835C830E941F2BC3
:104CC00029813A814B815C810E946A2903C060E09E
:104CD00070E0CB010F900F900F900F90DF91CF916C
:104CE0000895CF92DF92EF92FF926B017C016217E1
:104CF00073078407950764F4CA01B9016C197D092B
:104D00008E099F090E944D266C0D7D1D8E1D9F1DD5
:104D1000FF90EF90DF90CF9008950895EF92FF926B
:104D20000F931F93CF93DF937B01FC01C281D3814B
:104D300000E010E0209781F0E881F9810280F381A2
:104D4000E02DB701CE01099597FD08C0080F191F86
:104D50000884D985C02DEECFC80102C08FEF9FEF28
:104D6000DF91CF911F910F91FF90EF9008950F93D6
:104D70001F93CF93DF938B01FC01C281D3812097D6
:104D800071F0E881F9810480F581E02DB801CE0150
:104D90000995009731F40884D985C02DF0CF80E0C3
:104DA00090E0DF91CF911F910F9108950F931F9382
:104DB000CF93DF938B01FC01C281D381209771F0E7
:104DC000E881F9810680F781E02DB801CE010995CF
:104DD000080F111D0884D985C02DF0CFF80110826D
:104DE000DF91CF911F910F9108950F931F93CF9350
:104DF000DF938B01FC01C281D381209771F0E881A0
:104E0000F9810190F081E02DB801CE010995811161
:104E100006C00884D985C02DF0CF80E001C081E0B4
:104E2000DF91CF911F910F91089580915F038111C0
:104E30000DC082E080935B0384E080935C0310925A
:104E40005E0310925D0381E080935F038BE593E046
:104E500008955058BB27AA270ED075C166D130F0EF
:104E60006BD120F031F49F3F11F41EF45BC10EF4BE
:104E7000E095E7FB51C1E92F77D180F3BA176207BC
:104E800073078407950718F071F49EF58FC10EF42F
:104E9000E0950B2EBA2FA02D0B01B90190010C014A
:104EA000CA01A0011124FF27591B99F0593F50F462
:104EB000503E68F11A16F040A22F232F342F4427BA
:104EC000585FF3CF469537952795A795F0405395B2
:104ED000C9F77EF41F16BA0B620B730B840BBAF082
:104EE0009150A1F0FF0FBB1F661F771F881FC2F7ED
:104EF0000EC0BA0F621F731F841F48F48795779501
:104F00006795B795F7959E3F08F0B3CF9395880FB7
:104F100008F09927EE0F979587950895D9D008F452
:104F200081E008950CD00FC107D140F0FED030F0E1
:104F300021F45F3F19F0F0C0511139C1F3C014D111
:104F400098F39923C9F35523B1F3951B550BBB2750
:104F5000AA2762177307840738F09F5F5F4F220FFD
:104F6000331F441FAA1FA9F333D00E2E3AF0E0E8F6
:104F700030D091505040E695001CCAF729D0FE2F42
:104F800027D0660F771F881FBB1F261737074807D4
:104F9000AB07B0E809F0BB0B802DBF01FF2793588A
:104FA0005F4F2AF09E3F510568F0B6C000C15F3FD9
:104FB000ECF3983EDCF3869577956795B795F79572
:104FC0009F5FC9F7880F911D9695879597F908956A
:104FD000E1E0660F771F881FBB1F62177307840706
:104FE000BA0720F0621B730B840BBA0BEE1F88F715
:104FF000E095089504D06894B111D9C00895BCD04B
:1050000088F09F5790F0B92F9927B751A0F0D1F0B1
:10501000660F771F881F991F1AF0BA95C9F712C03B
:10502000B13081F0C3D0B1E00895C0C0672F782FB0
:105030008827B85F39F0B93FCCF3869577956795A7
:10504000B395D9F73EF490958095709561957F4F13
:105050008F4F9F4F0895E89409C097FB3EF49095B9
:105060008095709561957F4F8F4F9F4F9923A9F041
:10507000F92F96E9BB279395F695879577956795D0
:10508000B795F111F8CFFAF4BB0F11F460FF1BC014
:105090006F5F7F4F8F4F9F4F16C0882311F096E9A7
:1050A00011C0772321F09EE8872F762F05C0662355
:1050B00071F096E8862F70E060E02AF09A95660F0E
:1050C000771F881FDAF7880F9695879597F90895C7
:1050D000990F0008550FAA0BE0E8FEEF1616170609
:1050E000E807F907C0F012161306E407F50798F071
:1050F000621B730B840B950B39F40A2661F0232B8A
:10510000242B252B21F408950A2609F4A140A69505
:105110008FEF811D811D089597F99F6780E870E0EA
:1051200060E008959FEF80EC089500240A9416161D
:10513000170618060906089500240A941216130685
:10514000140605060895092E0394000C11F4882313
:1051500052F0BB0F40F4BF2B11F460FF04C06F5F2F
:105160007F4F8F4F9F4F089557FD9058440F551F05
:1051700059F05F3F71F04795880F97FB991F61F0D9
:105180009F3F79F087950895121613061406551F50
:10519000F2CF4695F1DF08C0161617061806991FBC
:1051A000F1CF86957105610508940895E894BB27B1
:1051B00066277727CB0197F908958ADF08F48FEFE8
:1051C00008950BD0C0CFB1DF28F0B6DF18F09523DB
:1051D00009F0A2CFA7CF1124EACFC6DFA0F3959F95
:1051E000D1F3950F50E0551F629FF001729FBB27CE
:1051F000F00DB11D639FAA27F00DB11DAA1F649F7A
:105200006627B00DA11D661F829F2227B00DA11D2C
:10521000621F739FB00DA11D621F839FA00D611DB2
:10522000221F749F3327A00D611D231F849F600DD3
:10523000211D822F762F6A2F11249F5750408AF00C
:10524000E1F088234AF0EE0FFF1FBB1F661F771F98
:10525000881F91505040A9F79E3F510570F05CCFD8
:10526000A6CF5F3FECF3983EDCF386957795679584
:10527000B795F795E7959F5FC1F7FE2B880F911DB6
:105280009695879597F9089523DF880B990B0895D4
:10529000A1E21A2EAA1BBB1BFD010DC0AA1FBB1F3A
:1052A000EE1FFF1FA217B307E407F50720F0A21BAC
:1052B000B30BE40BF50B661F771F881F991F1A9419
:1052C00069F760957095809590959B01AC01BD0143
:1052D000CF010895052E97FB1EF400940E948129AA
:1052E00057FD07D00E94482907FC03D04EF40C94C8
:1052F000812950954095309521953F4F4F4F5F4FF5
:10530000089590958095709561957F4F8F4F9F4F31
:105310000895EE0FFF1F0590F491E02D09940E946F
:105320009A29A59F900DB49F900DA49F800D911D6B
:1053300011240895A29FB001B39FC001A39F700DD7
:10534000811D1124911DB29F700D811D1124911D8D
:105350000895CF93DF938230910510F482E090E0BE
:10536000E0916903F0916A0320E030E0A0E0B0E052
:10537000309739F14081518148175907B8F04817E3
:10538000590771F482819381109729F013969C93A9
:105390008E9312972CC090936A038093690327C061
:1053A0002115310531F04217530718F0A901DB012F
:1053B00001C0EF019A01BD01DF010280F381E02D00
:1053C000D7CF21153105F9F0281B390B24303105D1
:1053D00080F48A819B816115710521F0FB01938323
:1053E000828304C090936A0380936903FE0132961E
:1053F00044C0FE01E20FF31F8193919322503109C3
:10540000398328833AC02091670330916803232BA6
:1054100041F42091020130910301309368032093FD
:10542000670320910001309101012115310541F4FC
:105430002DB73EB74091040150910501241B350B57
:10544000E0916703F0916803E217F307A0F42E1BC5
:105450003F0B2817390778F0AC014E5F5F4F2417D8
:10546000350748F04E0F5F1F509368034093670362
:105470008193919302C0E0E0F0E0CF01DF91CF9102
:105480000895CF93DF93009709F487C0FC0132970A
:1054900013821282C0916903D0916A03209781F42C
:1054A00020813181280F391F809167039091680313
:1054B0008217930779F5F0936803E09367036DC053
:1054C000DE0120E030E0AE17BF0750F412964D9198
:1054D0005C9113979D014115510509F1DA01F3CF54
:1054E000B383A28340815181840F951F8A179B0744
:1054F00071F48D919C911197840F951F0296918361
:10550000808312968D919C911397938382832115AA
:10551000310529F4F0936A03E09369033EC0D90191
:105520001396FC93EE9312974D915D91A40FB51FC6
:10553000EA17FB0779F480819181840F951F029609
:10554000D90111969C938E938281938113969C939B
:105550008E931297E0E0F0E08A819B81009719F02A
:10556000FE01EC01F9CFCE01029628813981820F2C
:10557000931F20916703309168032817390769F456
:10558000309729F410926A031092690302C01382C3
:105590001282D0936803C0936703DF91CF9108957F
:1055A0008F929F92AF92BF92CF92DF92EF92FF9233
:1055B000CF93DF93EC01688179818A819B816115AA
:1055C00071058105910521F464E279ED8BE597E0A1
:1055D0002DE133EF41E050E00E946A2949015A0170
:1055E0009B01AC01A7EAB1E40E948F296B017C0109
:1055F000ACEEB4EFA50194010E944D2BC60ED71E50
:10560000E81EF91EF7FE06C081E0C81AD108E108BD
:1056100080E8F80AC882D982EA82FB82C701B60113
:105620009F77DF91CF91FF90EF90DF90CF90BF9069
:10563000AF909F908F9008950E94D02A089586E0A1
:1056400091E00E94D02A08956093060170930701AB
:1056500080930801909309010895DC0101C06D93C6
:1056600041505040E0F70895F999FECF92BD81BDB9
:10567000F89A992780B50895262FF999FECF1FBA79
:1056800092BD81BD20BD0FB6F894FA9AF99A0FBE6B
:1056900001960895B7FF0C948F290E948F29821BD1
:1056A000930B089512E0CAE0D2E004C0FE010E940C
:0E56B0008B292296CC30D107C9F7F894FFCF92
:1056BE0000006B0380000100000008010A00450194
:1056CE004501010004060517056363636363050066
:1056DE000000000000001F00000015000000041173
:1056EE0032082008D51BD51BD51BD51BD51B01FF9A
:1056FE00FFFFFF00E100000000000000C1808100FC
:10570E00000002040000000000004D6F6E746F6E0A
:10571E00204D6573736167652053656E7400434158
:10572E004E2D42555320537461727475703A200099
:10573E00202D204F4B004E6F7420476F6F642C202E
:10574E00636865636B20796F75722070696E2320B4
:10575E00616E6420636F6E6E656374696F6E730045
:10576E0053746172742043616C6962726174696F03
:10577E006E0046696E69736865642043616C696288
:10578E00726174696F6E004E6F64652049443A20F1
:10579E00004E656F706978656C2054657374002DCA
:1057AE002D2D2D2D496E707574732D2D2D2D0050B0
:1057BE00696E2300203D2000202D2050524553536A
:1057CE004544002D2D2D2D2D43616E204275732DD8
:1057DE002D2D2D004D6573736167652052656365D0
:1057EE0069766564004E6F7468696E6720526563F2
:1057FE006569766564002D2D2D2D2D43616C6962D2
:10580E007261746520546F7765722D2D2D2D002CCD
:10581E000000000000E61E2D1F101F201FFC1E0D95
:10582E001F0D0A006E616E00696E66006F7666006F
:02583E002E003A
:00000001FF
