:100000000C9406010C94211C0C94481C0C946F1C3D
:100010000C94961C0C942E010C942E010C94BD1C77
:100020000C942E010C942E010C94AA250C943C24C3
:100030000C942E010C942E010C942E010C942E0184
:100040000C942E010C942E010C942E010C942E0174
:100050000C942E010C942E010C942E010C94E41C93
:100060000C942E010C942E010C942E010C942E0154
:100070000C942E010C942E010C942E010C942E0144
:100080000C942E010C942E010C942E010C942E0134
:100090000C942E010C942E010C942E010C942E0124
:1000A0000C942E010C942E010C942E0180048404D7
:1000B0004A044D045004540458045B045F04620471
:1000C000650468046B046F04730477047A04241EC7
:1000D000271E161E1A1E201E481E481E481E2B1EB6
:1000E0002F1E331E391E3D1E481E431E07060504E3
:1000F0000100080A0B0C0D090000000200090F00A6
:1001000000030401000C00000000000000000000DB
:1001100000000000000000040802011040804010B0
:10012000204080408008020401804020100201101D
:10013000801020404020040404040403040502024B
:100140000202040302020202060606060606040470
:100150000202020404000000002300260029002CF3
:10016000002F0000000000250028002B002E003189
:100170000000000000240027002A002D00300008A5
:100180000B0002020201000904000001020200004B
:1001900005240010010524010101042402060524A0
:1001A0000600010705810310004009040100020A4E
:1001B000000000070502024000000705830240001E
:1001C0000012010002EF02014041233680000101CC
:1001D00002030112010002000000404123368000AA
:1001E000010102030141726475696E6F204C4C433A
:1001F0000041726475696E6F204C656F6E61726448
:100200006F00040309044A1BC81FCC1B11241FBE26
:10021000CFEFDAE0DEBFCDBF12E0A0E0B1E0E4EB6B
:10022000F6E502C005900D92A438B107D9F723E096
:10023000A4E8B2E001C01D92AC36B207E1F712E0CB
:10024000CAE0D2E004C02297FE010E948629C6308F
:10025000D107C9F70E94E61F0C944D2B0C940000A7
:10026000CF93DF93EC0188859985009711F00E9468
:100270003C2A8D8187FD05C060E0DF91CF910C9411
:10028000491EDF91CF910895CF93DF93EC018D81CB
:1002900087FD07C061E00E94491E60E08D810E94D9
:1002A000821E81E08883DF91CF910895EF92FF92C3
:1002B0000F931F93CF93DF93EC017B018885998582
:1002C000009711F00E943C2A8701000F111F0E0DAC
:1002D0001F1D1C830B83C8010E94A429998788874E
:1002E000009741F0A80160E070E00E94282BFA829C
:1002F000E98204C01C821B821A821982DF91CF918D
:100300001F910F91FF90EF900895FC01668360FFAD
:1003100004C081E08287138611C062FF06C081E0BD
:10032000828782E0838714860895128663FF04C063
:1003300082E0838781E003C081E0838782E0848755
:100340000895CF92DF92EF92FF920F931F93CF9376
:10035000DF93CDB7DEB729970FB6F894DEBF0FBE97
:10036000CDBF8C01DC0118968D919C911997892B3A
:1003700009F49BC00E943A1DF801C584D684E78425
:10038000F0886C197D098E099F096233710581051A
:10039000910580F3F894838194819A838983A08561
:1003A000B1857D01EFEFEE1AFE0A8C918987D801A5
:1003B00016969C91169751960D90BC91A02DF80120
:1003C000838991FF2EC09C91982B98879C91809552
:1003D00089238F838F818E8388E08D8358856F81F9
:1003E00049853D812E8189819A81F7015C9347FD82
:1003F000252F3A952C93262F39F0441F00C000007A
:100400006C93000000C0F2CF38E041916C93000083
:10041000019761F7F801B28BA18B49873D832E8349
:1004200038C09C91982B98879C91809589238F83C5
:100430008F818C8388E08B8358856F8149853B81D0
:100440002C8189819A81F7015C9347FD252F00C09B
:1004500000C02C9300C000C000C000C000C06C935E
:100460000000262F3A9541F0441F000000C000C054
:1004700000C000C000C0E8CF38E0419100C06C93DC
:1004800000C0019709F7F801B28BA18B49873B8324
:100490002C839A83898378940E943A1DD8011D96F3
:1004A0006D937D938D939C93509729960FB6F894F6
:1004B000DEBF0FBECDBFDF91CF911F910F91FF9097
:1004C000EF90DF90CF9008951F93CF93DF93EC01CF
:1004D000162F8881882331F08D8187FD03C060E06D
:1004E0000E94491E1D838881882341F061E0812F8D
:1004F0000E94491E60E0812F0E94821E812F90E0A1
:10050000FC01EA5CFE4FE491F0E0EE0FFF1FED59B5
:10051000FE4F259134913A8B298BFC01E95EFE4F09
:1005200084918B8BDF91CF911F9108950F931F932F
:10053000CF93DF9300D0CDB7DEB78C01FC011082E2
:10054000178211861086158616861786108A2A83CA
:1005500049830E9456014981642FC8010E946402A8
:100560002A81622FC8010F900F90DF91CF911F91C8
:100570000F910C948501CF92DF92EF92FF920F932F
:100580001F93CF93DF93FC018181928168177907D4
:1005900088F5CA01AA27BB27082FC32ED42EE52E23
:1005A000FF241C2DD22FC781CC2361F08C9FC0016A
:1005B0001124092FCC9E600111241D2D2C9F900128
:1005C0001124D32F9B01220F331F260F371F808545
:1005D0009185820F931F2285DC01A20FB11D0C9320
:1005E0002385DC01A20FB11D1C932485FC01E20FC1
:1005F000F11DD083DF91CF911F910F91FF90EF906C
:10060000DF90CF900895962F50E060E070E0592B76
:10061000682BCB01BA0108958EBD00000DB407FE12
:10062000FDCF8EB50895CF93DF93EC0160E088890C
:100630000E94821E80EC0E940C0361E088890E9467
:10064000821E6AE070E080E090E0DF91CF910C9430
:100650005D1D1F93CF93DF93EC01162F60E0888917
:100660000E94821E83E00E940C03812F0E940C03D3
:1006700080E00E940C03182F61E088890E94821E8E
:10068000812FDF91CF911F910895CF92DF92EF924A
:10069000FF920F931F93CF93DF9300D0CDB7DEB7B8
:1006A0008C01F62EE22E60E0FC01808949835A839A
:1006B0000E94821E83E00E940C038F2D0E940C0377
:1006C0004981C42E5A81D52EF12CFE1459F0F8E040
:1006D000FF1641F080E00E940C03F60181936F0148
:1006E000F394F3CF61E0F80180890F900F90DF91D0
:1006F000CF911F910F91FF90EF90DF90CF900C94CE
:10070000821EEF92FF921F93CF93DF931F92CDB77C
:10071000DEB77C01162F60E0FC01808949830E94CE
:10072000821E82E00E940C03812F0E940C034981EB
:10073000842F0E940C0361E0F70180890F90DF9104
:10074000CF911F91FF90EF900C94821ECF92DF9279
:10075000EF92FF920F931F93CF93DF9300D0CDB70B
:10076000DEB78C01E62EF22E60E0FC018089498321
:100770005A830E94821E82E00E940C038E2D0E94EA
:100780000C034981E42EC42E5A81D52E8C2D8E194E
:100790008F1530F4F60181916F010E940C03F6CFA2
:1007A00061E0F80180890F900F90DF91CF911F9148
:1007B0000F91FF90EF90DF90CF900C94821EEF92FC
:1007C000FF921F93CF93DF9300D0CDB7DEB77C01AC
:1007D000162F60E0FC0180892A8349830E94821ED3
:1007E00085E00E940C03812F0E940C034981842F15
:1007F0000E940C032A81822F0E940C0361E0F70102
:1008000080890F900F90DF91CF911F91FF90EF9013
:100810000C94821E1F93CF93DF93EC0160E08889D4
:100820000E94821E80EA0E940C0380E00E940C035A
:10083000182F61E088890E94821E812FDF91CF915D
:100840001F9108951F93CF93DF93EC01162F262F4E
:1008500040EE6FE00E94DF036FE0CE010E942903AB
:10086000982F907E81E0911301C080E0DF91CF91BD
:100870001F9108950F931F93CF93DF93EC01462FA1
:1008800050E0FA013197E131F105C0F5EA5AFF4F26
:100890000C94842917E80FEF05C017E00AEB02C09B
:1008A00015E801EF4FE033C017E00EEB49E02FC031
:1008B00017E80FEF02C017E80AEF47E028C017E873
:1008C0000FEF0BC017E00EEB08C017E00DEA05C0F4
:1008D00017E80AEF02C016E800EF43E018C017E877
:1008E0000AEF41E014C015E801EF41E410C016E83A
:1008F00000EF02C012E800ED40E009C081E016C040
:1009000017E80FEF4FE303C017E80FEF4FE16AE27C
:10091000CE010E948103402F69E2CE010E94810333
:10092000412F68E2CE010E94810380E0DF91CF91E8
:100930001F910F9108951F93CF93DF93EC0110E364
:1009400040E0612FCE010E94810360E1610F40E031
:10095000CE010E94810360E2610F40E0CE010E945F
:1009600081031F5F1E3361F740E060E6CE010E9405
:10097000810340E060E7CE01DF91CF911F910C949D
:1009800081030F931F93CF93DF93EC01062F0E94F7
:10099000130360E8CE010E942204182F6AE070E081
:1009A00080E090E011110CC00E945D1D602FCE010F
:1009B0000E943A04882339F06AE070E080E090E019
:1009C0000E945D1D28C06AE070E080E090E00E9417
:1009D0005D1DCE010E949B0443E06BE2CE010E94AC
:1009E000810324E044E660E6CE010E94DF0320E0BC
:1009F00040E660E7CE010E94DF0360E0CE010E9486
:100A00002204C82F8823C1F26AE070E080E090E001
:100A10000E945D1D1C2F812FDF91CF911F910F919F
:100A200008950F931F93CF93DF9300D000D0CDB7DD
:100A3000DEB74130B1F40C831B83890122273327B1
:100A4000502F5C71402F437078E0579F400D112468
:100A500048604A8355E0169507955A95E1F7098352
:100A60000DC0A80123E0569547952A95E1F74983E3
:100A70000295000F007E0A831C821B8224E0AE01D7
:100A80004F5F5F4F0E94A6030F900F900F900F9043
:100A9000DF91CF911F910F910895EF92FF920F93E5
:100AA0001F93CF93DF9300D000D0CDB7DEB77A018C
:100AB0008901FA011082F9011082118212821382D7
:100AC00024E0AE014F5F5F4F0E9445032A813981C8
:100AD000822F90E045E0959587954A95E1F7F8E0FB
:100AE0003F9F800D911D1124AA2797FDA095BA2F35
:100AF000F80180839183A283B38323FF25C062E042
:100B0000880F991FAA1FBB1F6A95D1F72370820F08
:100B1000911DA11DB11DBA2FA92F982F88272B81B8
:100B2000820F911DA11DB11DBA2FA92F982F8827C3
:100B30002C81820F911DA11DB11D80839183A28301
:100B4000B38381E0F70180830F900F900F900F9097
:100B5000DF91CF911F910F91FF90EF900895FF9239
:100B60000F931F93CF93DF93EC01F62EAC014A5FF6
:100B70005F4F65E06F0D2D810E94A6038E85813049
:100B800019F48D8180648D8364E06F0D4D81CE01F9
:100B90000E94810309811A812B813C8148816F2D3C
:100BA000CE010E941105DF91CF911F910F91FF900F
:100BB00008950F931F93CF93DF93EC01162F9C01A1
:100BC0002F5F3F4FAC010E944D056FEF610FCE01CB
:100BD0000E942903082F64E0610FCE010E942903BF
:100BE000282F8D8303FF03C081E08E8701C01E86FE
:100BF0002F702D83AE014A5F5F4F65E0610FCE011C
:100C0000DF91CF911F910F910C944503615028E023
:100C100048E00C94DF03FF920F931F93CF93DF9371
:100C200000D01F92CDB7DEB78B0120E3298320E4EB
:100C30002A8320E52B83FB011082FE01E40FF11DC6
:100C4000F1806F2D0E942903982F987083FD04C0B6
:100C5000F394F801F08201C092E0892F0F900F9079
:100C60000F90DF91CF911F910F91FF900895CF9337
:100C7000DF93EC01862F688B61E00E94491E61E0E2
:100C80008889DF91CF910C94821ECF93DF9300D09F
:100C90001F92CDB7DEB76B8389839A830E942308A6
:100CA0006B8189819A810E94C10491E0811101C008
:100CB00090E0892F0F900F900F90DF91CF910895C2
:100CC0008F929F92BF92CF92DF92EF92FF920F93FB
:100CD0001F93CF93DF931F92CDB7DEB74C01B62E93
:100CE000680179016AE070E080E090E049830E9449
:100CF0005D1D60E8C4010E942204182F49818823E9
:100D000029F06AE070E080E090E01AC0B11004C001
:100D10009701860160E206C081E0B81206C0970123
:100D2000860164E2C4010E94110560E0C4010E94D2
:100D30002204182F6AE070E080E090E0112321F097
:100D40000E945D1D812F03C00E945D1D80E00F90F9
:100D5000DF91CF911F910F91FF90EF90DF90CF9097
:100D6000BF909F908F900895AF92BF92CF92DF92E5
:100D7000EF92FF920F931F93CF93DF9300D0CDB7E5
:100D8000DEB75C01562F680179016AE070E080E00F
:100D900090E04A8359830E945D1D60E8C5010E946E
:100DA0002204182F4A815981882329F06AE070E0D3
:100DB00080E090E031C05230B1F040F4552379F03A
:100DC0005130F9F49701860164E018C0543099F06D
:100DD00070F05530B1F49701860168E10FC09701BA
:100DE000860160E00BC09701860168E007C09701AB
:100DF000860160E103C09701860164E1C5010E949C
:100E0000110560E0C5010E942204182F6AE070E01D
:100E100080E090E0112321F00E945D1D812F03C02E
:100E20000E945D1D80E00F900F90DF91CF911F9188
:100E30000F91FF90EF90DF90CF90BF90AF9008950B
:100E4000CF92DF92EF920F931F93CF93DF93FC012A
:100E500020834183528363837483093008F008E060
:100E60000583E686D60180E090E010E080179107C8
:100E70003CF42D91EF01C80FD91F2E830196F6CFB8
:100E800080E0DF91CF911F910F91EF90DF90CF9095
:100E90000895CF92DF92EF92FF920F936701E12CBA
:100EA0000E9420070F91FF90EF90DF90CF90089560
:100EB000DF92EF92FF920F931F93CF93DF931F92D6
:100EC000CDB7DEB78C01D62EE12CF12C4D2DBE0115
:100ED0006F5F7F4FC8010E940B069FEFE91AF90A66
:100EE000823029F482E3E816F10481F72BC092E303
:100EF000E916F10439F16981C8010E94AF056981E1
:100F0000C8010E940606E12CF12C8FEFE81AF80ABE
:100F100069816150C8010E942903D82E61E070E008
:100F200080E090E00E945D1DD3FE06C092E3E916CA
:100F3000F10459F787E007C082E3E816F104D1F322
:100F400080E001C086E00F90DF91CF911F910F915B
:100F5000FF90EF90DF900895CF92EF92FF920F9362
:100F6000CF93DF93EC010E9449076C2DCE01DF91F6
:100F7000CF910F91FF90EF90CF900C945807CF93A3
:100F8000DF93EC010E940A0480FF07C061E6CE01F6
:100F90000E94D90520E041E008C081FF0CC061E754
:100FA000CE010E94D90520E042E06CE2CE010E9411
:100FB000DF0380E001C084E0DF91CF910895EF92DC
:100FC000FF920F931F93CF93DF9300D0CDB7DEB77F
:100FD0007C018B0149835A830E94BF0749815A8152
:100FE000811118C0D70115969C91F8019083FA01E0
:100FF00020E030E0D70115964C9150E024173507DA
:101000005CF4D701A20FB31F16969C9191932F5FAA
:101010003F4FF0CFF80110820F900F90DF91CF91EA
:101020001F910F91FF90EF9008950E940A04837022
:1010300011F083E0089584E00895FC0161817281DC
:10104000838194810895CF93CFB7F89480918402DF
:10105000811127C0E7E4F1E08491E8E2F1E09491A6
:10106000E82FF0E0EE0FFF1FEF58FE4FA591B4916F
:101070008C91892321F461E081E10E94821E61E06C
:1010800081E10E94491E8CB580618CBD8CB5806465
:101090008CBD61E08FE00E94491E61E080E10E940A
:1010A000491E809184028F5F80938402CFBFCF91CD
:1010B000089581E08093AA020895AF92BF92CF92E3
:1010C000DF92EF92FF920F931F93CF93DF931F92C4
:1010D000CDB7DEB75C01D62EC72E062F172F7C01A9
:1010E00082E0E80EF11CF80161918F01C50169836E
:1010F0000E942F2B6981681719F0C5010E94372BB8
:10110000FFEFAF1ABF0AAE14BF0469F78D2D9C2DF7
:101110000F90DF91CF911F910F91FF90EF90DF9093
:10112000CF90BF90AF9008950F931F93CF93DF930D
:101130008C01EB010E942F2B8883C80101960E942D
:101140002F2B8983CE01DF91CF911F910F910895AD
:101150008091C8029091C902A091CA02B091CB02BD
:101160000697A105B10548F46091E0027091E10293
:101170008091E2029091E30208956091DC02709107
:10118000DD028091DE029091DF0208958F929F929E
:10119000AF92BF92CF92EF92FF920F931F93CF9394
:1011A000DF93CDB7DEB728970FB6F894DEBF0FBE3A
:1011B000CDBF6BE571E081E093E00E941C2023E34A
:1011C00030E040E050E061E070E080E090E00E94BC
:1011D0006C268090C8029090C902A090CA02B0907C
:1011E000CB0285E0880C991CAA1CBB1C8A95D1F700
:1011F00000912B0110912C0120912D0130912E0195
:10120000802A912AA22AB32A28E0E3E5F1E0DE0150
:10121000119601900D922A95E1F740918E0250E0CF
:10122000469F9001479F300D569F300D1124B90104
:10123000882777FD8095982F0E945D1D92E0C92E2A
:10124000CE0101967C0108E020E0B501A40183EB0A
:1012500092E00E94AC0728960FB6F894DEBF0FBE4E
:10126000CDBFDF91CF911F910F91FF90EF90CF9065
:10127000BF90AF909F908F900895813049F4609116
:10128000E0027091E1028091E2029091E302089500
:10129000823049F46091DC027091DD028091DE02BF
:1012A0009091DF020895833049F46091D0027091EB
:1012B000D1028091D2029091D3020895843049F4F2
:1012C0006091D8027091D9028091DA029091DB028C
:1012D0000895853049F46091D4027091D5028091CF
:1012E000D6029091D70208956091CC027091CD0200
:1012F0008091CE029091CF0208950F931F93009199
:10130000E0021091E1022091E2023091E3026017C5
:10131000710782079307D1F10091DC021091DD0281
:101320002091DE023091DF02601771078207930778
:1013300079F10091D0021091D1022091D202309126
:10134000D302601771078207930721F10091D80239
:101350001091D9022091DA023091DB0260177107F7
:101360008207930779F00091D4021091D502209161
:10137000D6023091D702601771078207930721F4D4
:1013800085E009C084E007C080E005C081E003C0BB
:1013900082E001C083E01F910F910895882339F006
:1013A000815090913201899F802D1124089580E011
:1013B0000895882321F0880F880F880F0895809161
:1013C000330108955F926F927F928F929F92AF92B6
:1013D000BF92CF92DF92EF92FF920F931F93CF9322
:1013E000DF931F92CDB7DEB74B015C01622E7E2CDE
:1013F00049830E947D098093200184E0809321012C
:101400004981411101C04AE0611002C06624639421
:1014100010E0C42ED12CE12CF12C81E0861510F0C7
:10142000502E1BC0502E5714D8F72091CC0230916B
:10143000CD024091CE025091CF02652D70E084EE36
:1014400092E00E94BB0284EE92E00E94A101C701DB
:10145000B6010E945D1D5394E6CF571490F4652D9C
:1014600070E0A501940184EE92E00E94BB0284EE3C
:1014700092E00E94A101C701B6010E945D1D539434
:10148000ECCF1F5F1611C9CF0F90DF91CF911F9145
:101490000F91FF90EF90DF90CF90BF90AF909F9013
:1014A0008F907F906F905F9008959F92AF92BF92C0
:1014B000CF92DF92EF92FF920F931F93CF93DF9320
:1014C0006B017C01942EA22E0E947D098093200145
:1014D00081E080932101911002C02AE0922EB12C6C
:1014E000C0E0D0E010E0BE016A0D7B1D60177107FF
:1014F00040F4A701960184EE92E00E94BB0221967F
:10150000F2CF84EE92E00E94A101692D70E080E0AC
:1015100090E0DF91CF911F910F91FF90EF90DF90BE
:10152000CF90BF90AF909F900C945D1D0F9386E07D
:101530008093200185E0809321016091D402709115
:10154000D5028091D6029091D7020091330120E01C
:1015500044EF0E94550A64E670E080E090E00E944B
:101560005D1D6091E0027091E1028091E202909134
:10157000E3020091330120E044EF0E94550A64E643
:1015800070E080E090E00E945D1D6091DC0270914F
:10159000DD028091DE029091DF020091330120E0B4
:1015A00044EF0E94550A64E670E080E090E00E94FB
:1015B0005D1D6091D0027091D1028091D202909114
:1015C000D3020091330120E044EF0E94550A64E603
:1015D00070E080E090E00E945D1D6091D802709103
:1015E000D9028091DA029091DB020091330120E070
:1015F00044EF0E94550A64E670E080E090E00E94AB
:101600005D1D6091CC027091CD028091CE029091CF
:10161000CF020091330120E044EF0E94550A0F9160
:1016200008956F927F928F929F92AF92BF92CF92C6
:10163000DF92EF92FF920F931F93CF93DF931F924E
:10164000CDB7DEB74B015C01142FF02E29830E9429
:101650007D098093200183E080932101298111116C
:1016600001C01EE5211101C021E0612C712CC22EA8
:10167000D12C6C147D04BCF40E2D2F2D412FC501EF
:10168000B4010E94550A6091CC027091CD02809104
:10169000CE029091CF022F2D412F0E94550A8FEF3D
:1016A000681A780AE6CF0F90DF91CF911F910F91C2
:1016B000FF90EF90DF90CF90BF90AF909F908F9072
:1016C0007F906F9008956F927F928F929F92AF92CA
:1016D000BF92CF92DF92EF92FF920F931F93CF931F
:1016E000DF931F92CDB7DEB74B015C01142FF02EB4
:1016F00029830E947D098093200182E0809321014B
:101700002981111101C01EE5211101C021E0612CC8
:10171000712CC22ED12C0E2D2F2D412FC501B401BD
:101720006C147D0494F40E94550A6091CC0270916F
:10173000CD028091CE029091CF022F2D412F0E9499
:10174000550A8FEF681A780AE6CF0E94550A0F9063
:10175000DF91CF911F910F91FF90EF90DF90CF908D
:10176000BF90AF909F908F907F906F9008958F92D1
:101770009F92AF92BF92EF92FF920F931F93CF93DE
:10178000DF9300D0CDB7DEB78091A2020E943D0961
:101790004B015C01009133011091A3022091A5023D
:1017A0004091A602E090A402EE2069F08E2D2983DC
:1017B0004A830E94CE09F82E8E2D0E94D909E82E68
:1017C00029814A8102C0E02EF12C111102C020E0D3
:1017D00004C0113039F40E2D2F2DC501B4010E9423
:1017E000550A28C0123031F40F2DC501B4010E94F2
:1017F000630B20C0133031F40F2DC501B4010E94DA
:10180000110B18C0143031F40F2DC501B4010E9422
:10181000E20910C0153071F40F900F90DF91CF9155
:101820001F910F91FF90EF90BF90AF909F908F907E
:101830000C94960A0F900F90DF91CF911F910F910A
:10184000FF90EF90BF90AF909F908F9008951F935F
:10185000CF93DF93182FC82FD0E0FE01E75EFE4F35
:1018600080810E94B81E982F20911801211103C079
:1018700091E0811190E0FE01E556FD4F80818917CE
:10188000F1F080912301913069F4908321E030E000
:10189000012E01C0220F0A94EAF7282B209323017E
:1018A00081E011C0108221E030E0012E01C0220F42
:1018B0000A94EAF7209528232093230103C081E0AE
:1018C000913009F080E0DF91CF911F9108951F932F
:1018D000CF93DF93C9E1D1E010E08991833619F00D
:1018E000812F0E94270C1F5F1630B9F7DF91CF912F
:1018F0001F9108958F929F92AF92BF92CF92DF92E5
:10190000EF92FF920F93CF93DF93C82F6A017B0171
:101910002BE030E040E050E061E070E080E090E0FB
:101920000E946C26C1110E94670C8090C8029090A2
:10193000C902A090CA02B090CB0255E0880C991C55
:10194000AA1CBB1C5A95D1F78C289D28AE28BF280D
:1019500060918E0270E080E090E00E945D1DC5E025
:10196000D0E032E0C32E4FE1E42E41E0F42E08E057
:1019700020E0B501A40183EB92E00E94AC0788232C
:1019800011F0219771F7DF91CF910F91FF90EF90B8
:10199000DF90CF90BF90AF909F908F900895EF927F
:1019A0000F9390910A0180910B01913029F58823C2
:1019B00009F487C06091E0027091E1028091E20237
:1019C0009091E302E090330100E021E040E00E94CA
:1019D000E2096091D4027091D5028091D602909173
:1019E000D702E090330121E040E00E94E20910922A
:1019F0000B011092910265C0923019F5882309F409
:101A000060C010920B011092910280918C02909113
:101A10008D02019690938D0280938C028093260113
:101A200080918A02809325014091270150912801DD
:101A30006091290170912A0180E00F91EF900C9440
:101A40007A0C9730E1F48823E1F14091270150911D
:101A500028016091290170912A0180E00E947A0C8E
:101A60006091CC027091CD028091CE029091CF0214
:101A70000091330120E040E00E94550A20C08823F5
:101A800001F110928D0210928C0210928B02109232
:101A90008A0210922601109225016091CC02709169
:101AA000CD028091CE029091CF020091330120E0CF
:101AB00040E00E94550A109293020E94670C109217
:101AC0000B010F91EF900895EF920F9390910A01FF
:101AD00080910B01913029F5882309F48AC0609127
:101AE000E0027091E1028091E2029091E302E090C5
:101AF000330100E021E040E00E94E2096091D00261
:101B00007091D1028091D2029091D302E090330182
:101B100021E040E00E94E20910920B011092910234
:101B200068C0923031F5882321F010920B01109299
:101B3000910280918C0290918D028F3F91050CF063
:101B400058C0019690938D0280938C028093260159
:101B500080918A02809325014091270150912801AC
:101B60006091290170912A0180E00F91EF900C940F
:101B70007A0C9730E1F48823E1F1409127015091EC
:101B800028016091290170912A0180E00E947A0C5D
:101B90006091CC027091CD028091CE029091CF02E3
:101BA0000091330120E040E00E94550A20C08823C4
:101BB00001F110928D0210928C0210928B02109201
:101BC0008A0210922601109225016091CC02709138
:101BD000CD028091CE029091CF020091330120E09E
:101BE00040E00E94550A109293020E94670C1092E6
:101BF0000B010F91EF9008950F9380910B018823B3
:101C0000B1F16091CC027091CD028091CE029091A1
:101C1000CF020091330120E040E00E94550A10926B
:101C200093020E94670C10920B0110928602109290
:101C30008702109285028091C8029091C902A091FA
:101C4000CA02B091CB0283309105A105B10521F004
:101C50000897A105B10559F460E0809116010E9432
:101C6000821E60E0809115010F910C94821E0F91ED
:101C70000895EF920F9380910A01813071F4809161
:101C80000B01882309F415C16091D0027091D10233
:101C90008091D2029091D30265C0823009F409C1CB
:101CA000833049F580910B01882309F402C16091CA
:101CB000D8027091D9028091DA029091DB020091F2
:101CC000330120E040E00E94550A10920B01809100
:101CD000C8029091C902A091CA02B091CB02833090
:101CE0009105A105B10529F00897A105B10509F0F5
:101CF000E0C061E082C0843051F480910B01882300
:101D000009F4D7C010920B0110929102B6C0853031
:101D100009F042C080910B01882309F4CAC0809168
:101D2000C8029091C902A091CA02B091CB0283303F
:101D30009105A105B10521F00897A105B10551F460
:101D400061E0809116010E94821E61E08091150180
:101D50000E94821E6091D8027091D9028091DA02AD
:101D60009091DB02E090330100E021E040E00E942E
:101D7000E2096091CC027091CD028091CE029091E7
:101D8000CF02E090330121E040E00E94E20910928E
:101D90000B01109291028DC0863029F480910B01C5
:101DA000811116C086C0873099F580910B01882378
:101DB00009F47FC06091CC027091CD028091CE0277
:101DC0009091CF020091330120E040E00E94550A3B
:101DD00010920B018091C8029091C902A091CA0291
:101DE000B091CB0283309105A105B10529F0089788
:101DF000A105B10509F05DC060E0809116010E9467
:101E0000821E60E0809115010F91EF900C94821E6C
:101E1000883009F04AC080910B01882309F449C039
:101E20006091D8027091D9028091DA029091DB0220
:101E3000E090330100E021E040E00E94E20960917F
:101E4000D0027091D1028091D2029091D302E090A1
:101E5000330121E040E00E94E2096091CC027091E0
:101E6000CD028091CE029091CF02E090330121E02B
:101E700040E00E94E20910920B018091C80290910B
:101E8000C902A091CA02B091CB0283309105A1058D
:101E9000B10521F00897A105B10559F461E08091E1
:101EA00016010E94821E61E0ADCF0F91EF900C945D
:101EB000FC0D0F91EF90089583EB92E00E941D08B6
:101EC000F5E09695879577956795FA95D1F70895FA
:101ED000EF920F93CF93C82F6FE671E081E093E00C
:101EE0000E940F206C2F83EB92E00E944506811127
:101EF00021C000913201000F6091DC027091DD027F
:101F00008091DE029091DF02B8E1EB2E20E040E00C
:101F10000E94E2094AE050E06C2F81E093E00E94C9
:101F2000FE2061E871E081E093E0CF910F91EF90A6
:101F30000C941C2067E871E081E093E00E941C2073
:101F400000913201000F6091D0027091D102809116
:101F5000D2029091D302A8E1EA2E20E040E00E9454
:101F6000E209CF910F91EF900895CF92DF92EF9217
:101F7000FF92CF93DF93C4E1D0E0C12CD12C760146
:101F800082E10E94DB1DBC01882777FD8095982F98
:101F90000E9428289B01AC01C701B6010E94252799
:101FA0006B017C01219761F720E030E048E951E4C2
:101FB0000E948D270E94F527CB01DF91CF91FF90E2
:101FC000EF90DF90CF900895CF92DF92EF92FF9243
:101FD0000F931F93CF93DF93182F0E94B50FEC013F
:101FE0006091D0027091D1028091D2029091D3027F
:101FF000E090330100E020E040E00E94E20985E447
:1020000091E090930F0180930E01909311018093C2
:102010001001109297021092980210929902109259
:102020009A02CD32D14024F00E94B50FEC01F9CFD5
:1020300061EB71E081E093E00E941C200E94B50FEB
:1020400020910E0130910F018217930724F4909391
:102050000F0180930E018534914084F30E942E1D60
:102060006B017C0188EEC80E83E0D81EE11CF11CD8
:102070000E942E1D6C157D058E059F0570F40E9433
:10208000B50F20911001309111012817390784F7FD
:102090009093110180931001EBCFC0911001D0916A
:1020A00011016E97D0931101C0931001612F70E060
:1020B00080E090E00E9426286B017C0180910E0157
:1020C00090910F01BE01681B790B882777FD8095E1
:1020D000982F0E9428289B01AC01C701B6010E94DD
:1020E0008D27609397027093980280939902909342
:1020F0009A026091CC027091CD028091CE029091B3
:10210000CF02E090330100E020E040E00E94E209CD
:102110006EE071E081E090E00E945D0860E171E0B6
:1021200083E090E00E945D0860910E0170910F01C4
:102130004AE050E081E093E00E94D92060911001D4
:10214000709111014AE050E081E093E00E94D920B3
:1021500040919702509198026091990270919A0271
:1021600022E030E081E093E00E94022263EC71E023
:1021700081E093E0DF91CF911F910F91FF90EF905D
:10218000DF90CF900C941C20CF92DF92EF92FF92C1
:102190000F931F93CF93DF938091C8029091C90250
:1021A00024E6289FE001299FD00D112440E052EC45
:1021B00061E070E081E093E00E94C21FBE016851BF
:1021C0007C4F882777FD8095982F0E945D1D68EDD4
:1021D00071E081E093E00E940F204091C80250918D
:1021E000C9026091CA027091CB022AE030E081E01E
:1021F00093E00E94052181E00E94DB1DBC0188273D
:1022000077FD8095982F0E9440260E94A808609331
:10221000C4027093C5028093C6029093C7020091D6
:10222000E0021091E1022091E2023091E302601796
:1022300071078207930729F485E190E0A0E0B0E000
:1022400004C086E190E0A0E0B0E080932B01909381
:102250002C01A0932D01B0932E0161E08091170114
:102260000E94491E61E0809117010E94821E8091A8
:10227000C8029091C902A091CA02B091CB028330EA
:102280009105A105B10521F00897A105B105C9F493
:1022900061E0809116010E94491E61E08091150164
:1022A0000E94491E60E0809116010E94821E60E03B
:1022B000809115010E94821E62E0809114010E94AB
:1022C000491E62EE71E081E093E00E941C2084EEE2
:1022D00092E00E94440184EE92E00E94A1010E94DB
:1022E000960A6091E0027091E1028091E202909181
:1022F000E3020091330120E040E00E94550A60EFC4
:1023000071E081E093E00E941C20C9E1D1E010E07F
:102310008881833609F453C062E00E94491E60E060
:1023200072E081E093E00E940F204AE050E0688173
:1023300081E093E00E94FE2065E072E081E093E09E
:102340000E940F20812F0E94270C682F70E04AE026
:1023500050E081E093E00E94D120812F0E94270C61
:10236000811112C06091DC027091DD028091DE0269
:102370009091DF02B8E0EB2E00E020E040E00E9408
:10238000E20961E871E011C06091D0027091D10260
:102390008091D2029091D302A8E0EA2E00E020E0E2
:1023A00040E00E94E20969E072E081E093E00E946F
:1023B0001C206AEF70E080E090E00E945D1D219695
:1023C0001F5F163009F0A4CF64E172E081E093E072
:1023D0000E941C206FE671E081E093E00E940F20D4
:1023E00068E083EB92E00E9445068111BEC06091D7
:1023F000DC027091DD028091DE029091DF0220E12B
:10240000E22E0091320120E040E00E94E20964E8FF
:1024100071E081E093E00E941C2042E050E069E519
:1024200078E080912F010E94D11B0FE110E020E0A5
:1024300030E040E060E083EB92E00E9460060FE154
:1024400010E020E030E040E061E083EB92E00E94A9
:1024500060060091C8021091C9022091CA02309111
:10246000CB0240E060E083EB92E00E94B40600E023
:1024700010E0980140E061E083EB92E00E94B40636
:102480000091C8021091C9022091CA023091CB027A
:1024900040E062E083EB92E00E94B40600E010E0CE
:1024A000980140E063E083EB92E00E94B406009163
:1024B0002B0110912C0120912D0130912E0140E033
:1024C00064E083EB92E00E94B4060091C802109190
:1024D000C9022091CA023091CB0240E065E083EB53
:1024E00092E00E94B4062091C8023091C902409146
:1024F000CA025091CB02A8EEB3E00E948A290E9442
:102500005D1D4091C8025091C9026091CA0270914C
:10251000CB0235E0440F551F661F771F3A95D1F760
:102520008091270190912801A0912901B0912A0161
:10253000482B592B6A2B7B2BE2E0CE2EFBEAEF2EA9
:10254000F2E0FF2E08E020E083EB92E00E94AC076F
:1025500064E670E080E090E00E945D1D8091AA0238
:102560008823E9F11092AA0217C067E871E081E0C0
:1025700093E00E941C206091D0027091D102809162
:10258000D2029091D30200E1E02E0091320120E0CE
:1025900040E00E94E2091ECF83EB92E00E94150802
:1025A000833049F441EA52E069EA72E083EB92E059
:1025B0000E94DF07F1CF00913201000F6091DC0231
:1025C0007091DD028091DE029091DF0218E1E12E30
:1025D00020E040E00E94E20965E272E013C0009151
:1025E0003201000F6091D0027091D1028091D2022D
:1025F0009091D302D8E1ED2E20E040E00E94E20964
:1026000066E372E081E093E00E941C2060E177E2E3
:1026100080E090E00E945D1D6091CC027091CD023F
:102620008091CE029091CF020091330120E040E0F2
:102630000E94550A67E472E081E093E00E941C204A
:1026400060E082E10E94491E6CEC71E081E093E061
:102650000E941C206EE071E081E090E00E949408EE
:1026600060E171E083E090E00E9494080091100125
:1026700010911101B801882777FD8095982F0E944D
:10268000282820E030E0A9010E948927882391F0C2
:10269000C0910E01D0910F01BE01882777FD809572
:1026A000982F0E94282820E030E0A9010E94892765
:1026B00081111BC06091D0027091D1028091D20231
:1026C0009091D3020091330120E040E00E94550A2E
:1026D00010929702109298021092990210929A0208
:1026E00080910C010E94E40F46C060910C01709132
:1026F0000D01882777FD8095982F0E9428286B016F
:102700007C01B8016C1B7D0B882777FD8095982F85
:102710000E9428289B01AC01C701B6010E948D27A9
:1027200060939702709398028093990290939A0213
:102730006091DC027091DD028091DE029091DF02F7
:10274000E090330100E020E040E00E94E20968EE02
:1027500073E080E090E00E945D1D6091DC0270916A
:10276000DD028091DE029091DF02E090330120E0F3
:1027700040E00E94E20960910E0170910F014AE071
:1027800050E081E093E00E94D920609110017091A7
:1027900011014AE050E081E093E00E94D92040918D
:1027A0009702509198026091990270919A0222E0EA
:1027B00030E081E093E00E94022263EC71E081E06E
:1027C00093E00E941C201092960210929502809134
:1027D0003201082F000F080F6091DC027091DD02BA
:1027E0008091DE029091DF02C0E2EC2E20E040E01A
:1027F0000E94E209DF91CF911F910F91FF90EF901E
:10280000DF90CF900895EF920F93CF93DF93809155
:10281000A10281110BC00E945C0FAB01BC0181E0E1
:10282000DF91CF910F91EF900C947A0C813031F4BD
:10283000DF91CF910F91EF900C94B70B823051F450
:102840008091A20280930A0191E090930B01809302
:102850002201E2C0833001F58091A202811102C001
:1028600060E003C0813071F461E0809116010E9444
:10287000821E60E080911501DF91CF910F91EF9062
:102880000C94821E823009F0C7C061E0809116016D
:102890000E94821E61E0EECF843009F4BDC0853015
:1028A00061F50E945C0FAB01BC012AE030E081E0E1
:1028B00093E00E94F12060E672E081E093E00E94E4
:1028C0000F20C1EAD2E082E0C93AD80771F06991DD
:1028D0004AE050E081E093E00E94FE2060E672E072
:1028E00081E093E00E940F20EECF81E093E0DF9142
:1028F000CF910F91EF900C9418208630C1F49091F5
:10290000A202909390028091A30280938F02209163
:10291000A40220938E02963011F40E94680F8091D9
:102920009002893009F085E080931F0175C08730DF
:1029300009F072C08091A202813009F042C08093F8
:1029400093028091A302809392028130A9F40091B6
:102950003201000F6091D0027091D1028091D202B9
:102960009091D302D0E2ED2E21E040E00E94E209F6
:1029700081E08093870250C08230A1F46091E00230
:102980007091E1028091E2029091E302C0E1EC2EAD
:102990000091320121E040E00E94E20981E0809351
:1029A00086023AC08930C1F580910A018250843094
:1029B00098F180910C01DF91CF910F91EF900C94E1
:1029C000E40F1092930280918702882389F010927D
:1029D000870220913201220F6091D8027091D902B2
:1029E0008091DA029091DB0200E240E00E94550AF9
:1029F00080918602882381F0109286026091D8022D
:102A00007091D9028091DA029091DB0200E120916D
:102A1000320140E00E94550ADF91CF910F91EF9073
:102A20000895CF93DF93C0911001D09111010E94BE
:102A3000B50FBE01681B790B882777FD8095982F0D
:102A40000E94282820919702309198024091990283
:102A500050919A020E94DC280E94F527CB0177FF53
:102A600002C080E090E0DF91CF910895EF920F9344
:102A7000CF93DF9380910A018130B9F580910B01EA
:102A8000882309F4DAC26091D8027091D90280914A
:102A9000DA029091DB02E090330100E021E040E0B7
:102AA0000E94E2096091CC027091CD028091CE0229
:102AB0009091CF02E090330121E040E00E94E209D2
:102AC00010920B01109294020E94A8086093C40215
:102AD0007093C5028093C6029093C702109225019D
:102AE0001092260110929102A8C2823009F4A5C268
:102AF000833009F056C080910B01882309F476C019
:102B00008091870281110FC06091D8027091D90223
:102B10008091DA029091DB02E090330100E021E045
:102B200040E00E94E2096091D4027091D502809148
:102B3000D6029091D70200E12091320140E00E943C
:102B4000550A6091E0027091E1028091E202909159
:102B5000E30208E020E040E00E94550A10920B01D9
:102B600010929102109294021092250189E08093B4
:102B700026018091C8029091C902A091CA02B09129
:102B8000CB0283309105A105B10521F00897A1057D
:102B9000B10561F561E0809116010E94821E60E03E
:102BA00021C0843079F580910B018823F9F01092CF
:102BB0000B01109291028091C8029091C902A091DC
:102BC000CA02B091CB0283309105A105B10521F075
:102BD0000897A105B10551F461E0809116010E94AA
:102BE000821E61E0809115010E94821E80919102F7
:102BF000811123C280918502882309F4D2C00E94EA
:102C000011159BC0853009F0E7C080910B01882326
:102C100009F47DC06091D8027091D9028091DA02E6
:102C20009091DB02E090330100E021E040E00E945F
:102C3000E2098091870281110EC06091D8027091E3
:102C4000D9028091DA029091DB02E090330121E019
:102C500040E00E94E2096091D4027091D502809117
:102C6000D6029091D70200E12091320140E00E940B
:102C7000550A80918502882349F06091DC027091A9
:102C8000DD028091DE029091DF0208C06091E002D7
:102C90007091E1028091E2029091E30208E020E06D
:102CA00040E00E94550A10920B011092910210927E
:102CB00025010E941115EC0180910C0190910D01EC
:102CC0000197C817D90724F081E08093940202C0CD
:102CD000109294024091C8025091C9026091CA02B8
:102CE0007091CB02433051056105710529F04830E0
:102CF00051056105710569F461E0809116010E943A
:102D0000821E60E0809115010E94821E02C0C0E018
:102D1000D0E080919102811190C180918502882339
:102D200009F43FC080918602882309F486C10E947D
:102D300011158C179D0709F480C120910C01309169
:102D40000D0121503109821793071CF081E0809317
:102D5000940280919402882309F46FC11092260195
:102D6000109286024091270150912801609129011B
:102D700070912A0180E00E947A0C6091DC027091CF
:102D8000DD028091DE029091DF0240E1E42E0091AD
:102D9000320120E040E00E94E20981E0809391024C
:102DA0004CC1C0919B020E94670C80919B02C81786
:102DB00009F443C180E00E94270C882309F43DC137
:102DC00088E080932601409127015091280160916D
:102DD000290170912A0104C1863029F480910B01E8
:102DE000811116C02AC18730A9F580910B01882373
:102DF00009F423C16091CC027091CD028091CE0282
:102E00009091CF020091330120E040E00E94550AEA
:102E100010920B018091C8029091C902A091CA0240
:102E2000B091CB0283309105A105B10529F0089737
:102E3000A105B10509F001C160E0809116010E9471
:102E4000821E60E080911501DF91CF910F91EF908C
:102E50000C94821E883009F0EAC080910B0188230F
:102E600009F448C06091D8027091D9028091DA02C9
:102E70009091DB02E090330100E021E040E00E940D
:102E8000E2096091D0027091D1028091D2029091BA
:102E9000D302E090330121E040E00E94E20960911A
:102EA000D8027091D9028091DA029091DB02E09011
:102EB000330121E040E00E94E20910920B01809171
:102EC000C8029091C902A091CA02B091CB0283308E
:102ED0009105A105B10521F00897A105B10551F4AF
:102EE00061E0809116010E94821E61E080911501CF
:102EF0000E94821EC0918802D09189020E94111501
:102F0000909389028093880220910C0130910D01E9
:102F100021503109821793071CF021E0209394027D
:102F2000C817D90709F444C0809194024091270141
:102F3000509128016091290170912A01882301F1A3
:102F4000109226011092860280E00E947A0C609115
:102F5000DC027091DD028091DE029091DF0230E1AF
:102F6000E32E0091320120E040E00E94E20910923D
:102F700094026AE070E080E090E00E945D1D18C05D
:102F800081E0809326018093860280E00E947A0C83
:102F90006091E0027091E1028091E2029091E3027F
:102FA00020E1E22E0091320120E040E00E94E2099F
:102FB000C0919B020E94670C80919B02C817E9F1A7
:102FC00080E00E94270C40912701509128016091D8
:102FD000290170912A01882391F088E080932601CD
:102FE00080E00E947A0C81E0809385026091DC028F
:102FF0007091DD028091DE029091DF0210C089E0C5
:103000008093260180E00E947A0C109285026091E4
:10301000E0027091E1028091E2029091E30208E007
:10302000E02E00E020E040E00E94E20906C0DF91CF
:10303000CF910F91EF900C94FC0DDF91CF910F91F8
:10304000EF900895EF920F93CF93DF9380910A0151
:103050008130B9F580910B01882309F48FC260910A
:10306000E0027091E1028091E2029091E302E0902F
:10307000330100E021E040E00E94E2096091CC02CF
:103080007091CD028091CE029091CF02E0903301F9
:1030900021E040E00E94E20910920B01109294029C
:1030A0000E94A8086093C4027093C5028093C60270
:1030B0009093C7021092250110922601109291025E
:1030C0005DC2823009F45AC2833009F066C0809133
:1030D0000B01882309F44BC08091870281110FC036
:1030E0006091D8027091D9028091DA029091DB024E
:1030F000E090330100E021E040E00E94E2096091AD
:10310000D4027091D5028091D6029091D70200E14D
:103110002091320140E00E94550A6091E0027091D6
:10312000E1028091E2029091E30208E020E040E0B9
:103130000E94550A10920B018091C8029091C90219
:10314000A091CA02B091CB0283309105A105B105CF
:1031500021F00897A105B10551F461E080911601B5
:103160000E94821E60E0809115010E94821E809163
:103170009102811103C280918502409127015091F3
:1031800028016091290170912A01882309F4C6C1A0
:103190001092260110928602A9C0843011F5809108
:1031A0000B01882309F4EAC110920B0110929102DD
:1031B0008091C8029091C902A091CA02B091CB023D
:1031C00083309105A105B10529F00897A105B10546
:1031D00009F0D4C161E0809116010E94821E61E075
:1031E000D2C0853009F099C080910B01882309F481
:1031F00068C08091C8029091C902A091CA02B091A2
:10320000CB0283309105A105B10521F00897A105F6
:10321000B10551F461E0809116010E94821E61E0C7
:10322000809115010E94821E6091D8027091D9028E
:103230008091DA029091DB02E090330100E021E01E
:1032400040E00E94E2098091870281110EC06091E6
:10325000D8027091D9028091DA029091DB02E0905D
:10326000330121E040E00E94E2096091D4027091B4
:10327000D5028091D6029091D70200E120913201CF
:1032800040E00E94550A80918502882349F06091B0
:10329000DC027091DD028091DE029091DF0208C0B5
:1032A0006091E0027091E1028091E2029091E3026C
:1032B00008E020E040E00E94550A10920B011092B5
:1032C000910280919102811159C1809185028823D8
:1032D00009F454C1109226011092860240912701F0
:1032E000509128016091290170912A0180E00E948B
:1032F0007A0C6091DC027091DD028091DE02909187
:10330000DF02A0E1EA2E0091320120E040E00E94BD
:10331000E20981E08093910231C1863029F48091E5
:103320000B01811116C02AC18730A9F580910B01CC
:10333000882309F423C16091CC027091CD02809161
:10334000CE029091CF020091330120E040E00E9434
:10335000550A10920B018091C8029091C902A09168
:10336000CA02B091CB0283309105A105B10529F0C5
:103370000897A105B10509F001C160E0809116012F
:103380000E94821E60E080911501DF91CF910F9124
:10339000EF900C94821E883009F0EAC080910B01F6
:1033A000882309F448C06091D8027091D9028091B5
:1033B000DA029091DB02E090330100E021E040E08E
:1033C0000E94E2096091D0027091D1028091D202F4
:1033D0009091D302E090330121E040E00E94E209A5
:1033E0006091D8027091D9028091DA029091DB024B
:1033F000E090330121E040E00E94E20910920B01CD
:103400008091C8029091C902A091CA02B091CB02EA
:1034100083309105A105B10521F00897A105B105FB
:1034200051F461E0809116010E94821E61E080915A
:1034300015010E94821EC0918802D09189020E94CB
:103440001115909389028093880220910C0130918C
:103450000D0121503109821793071CF021E02093C0
:103460009402C817D90709F444C08091940240918E
:103470002701509128016091290170912A01882328
:1034800001F1109226011092860280E00E947A0CCF
:103490006091DC027091DD028091DE029091DF028A
:1034A000F0E1EF2E0091320120E040E00E94E209BD
:1034B000109294026AE070E080E090E00E945D1D4E
:1034C00018C081E0809326018093860280E00E94EC
:1034D0007A0C6091E0027091E1028091E202909199
:1034E000E302E0E1EE2E0091320120E040E00E9494
:1034F000E209C0919B020E94670C80919B02C81751
:10350000E9F180E00E94270C4091270150912801A9
:103510006091290170912A01882391F088E08093BD
:10352000260180E00E947A0C81E080938502609100
:10353000DC027091DD028091DE029091DF0210C00A
:1035400089E08093260180E00E947A0C1092850227
:103550006091E0027091E1028091E2029091E302B9
:1035600058E0E52E00E020E040E00E94E20906C0BD
:10357000DF91CF910F91EF900C94FC0DDF91CF91E3
:103580000F91EF900895CF93DF9383EB92E00E9429
:1035900015088330A1F441EA52E069EA72E083EB56
:1035A00092E00E94DF0780918A0290918B0201963F
:1035B00090938B0280938A020E940314E6CF80913D
:1035C0009002883059F480918F02813019F40E9462
:1035D000390E04C0823011F40E94221880919002AA
:1035E000893061F480918F02813019F40E94CF0CF0
:1035F00007C0823029F40E94640D02C00E94361573
:1036000080910A01833009F042C08091C8029091F4
:10361000C902A091CA02B091CB0283309105A105E5
:10362000B10521F00897A105B10589F5C0911201F6
:10363000D0911301809114010E94B81E9093130140
:1036400080931201C817D90711F14AE050E0BC017C
:1036500081E093E00E94D9208091120190911301A2
:10366000892BA9F4C4E0C093220140912701509115
:1036700028016091290170912A0180E00E947A0C52
:103680000E94C60881E080930B01C0930A01DF917C
:10369000CF9108956091330170E023E040913401AF
:1036A00084EE92E00E94960240E060E08091310159
:1036B0000E9403036093E0027093E1028093E202B0
:1036C0009093E30240E06091310180E00E940303A7
:1036D0006093DC027093DD028093DE029093DF0240
:1036E0004091310160E080E00E9403036093D802C2
:1036F0007093D9028093DA029093DB0280913101BA
:10370000482F682F0E9403036093D4027093D50260
:103710008093D6029093D7028091310140E0682FC8
:103720000E9403036093D0027093D1028093D2026F
:103730009093D30240E060E080E00E940303609336
:10374000CC027093CD028093CE029093CF0280E0A2
:1037500090E00E942F2B90E0A0E0B0E08093C802A0
:103760009093C902A093CA02B093CB028091E00269
:103770009091E102A091E202B091E3028093C40231
:103780009093C502A093C602B093C7026091300126
:1037900083EB92E00C94370684EE92E00C943001B7
:1037A0000895853008F04CC0E82FF0E0EE0FFF1FC1
:1037B000EB5CFE4F718360838230E1F018F481305E
:1037C00069F004C0833019F1843071F1809169008F
:1037D0008C7F842B80936900E89A0895809169001A
:1037E000440F551F440F551F837F842B809369001E
:1037F000E99A08958091690034E0440F551F3A9585
:10380000E1F78F7C842B80936900EA9A0895809178
:10381000690026E0440F551F2A95E1F78F73842B2A
:1038200080936900EB9A089580916A0094E0440FB8
:10383000551F9A95E1F78F7C842B80936A00EE9A4E
:1038400008951F920F920FB60F9211242F933F935A
:103850004F935F936F937F938F939F93AF93BF9398
:10386000EF93FF93E0913501F09136010995FF91B7
:10387000EF91BF91AF919F918F917F916F915F91E8
:103880004F913F912F910F900FBE0F901F90189561
:103890001F920F920FB60F9211242F933F934F93C5
:1038A0005F936F937F938F939F93AF93BF93EF93A8
:1038B000FF93E0913701F09138010995FF91EF9165
:1038C000BF91AF919F918F917F916F915F914F9138
:1038D0003F912F910F900FBE0F901F9018951F9240
:1038E0000F920FB60F9211242F933F934F935F9334
:1038F0006F937F938F939F93AF93BF93EF93FF93B8
:10390000E0913901F0913A010995FF91EF91BF9152
:10391000AF919F918F917F916F915F914F913F9167
:103920002F910F900FBE0F901F9018951F920F921E
:103930000FB60F9211242F933F934F935F936F9382
:103940007F938F939F93AF93BF93EF93FF93E091F8
:103950003B01F0913C010995FF91EF91BF91AF912F
:103960009F918F917F916F915F914F913F912F9197
:103970000F900FBE0F901F9018951F920F920FB6C9
:103980000F9211242F933F934F935F936F937F93E5
:103990008F939F93AF93BF93EF93FF93E0913D017C
:1039A000F0913E010995FF91EF91BF91AF919F91E9
:1039B0008F917F916F915F914F913F912F910F90D8
:1039C0000FBE0F901F9018951F920F920FB60F9277
:1039D00011242F933F938F939F93AF93BF93809125
:1039E000F9029091FA02A091FB02B091FC02309191
:1039F000F80223E0230F2D3720F40196A11DB11DFD
:103A000005C026E8230F0296A11DB11D2093F802E0
:103A10008093F9029093FA02A093FB02B093FC0208
:103A20008091FD029091FE02A091FF02B0910003EF
:103A30000196A11DB11D8093FD029093FE02A093FB
:103A4000FF02B0930003BF91AF919F918F913F917F
:103A50002F910F900FBE0F901F9018952FB7F894CD
:103A60006091F9027091FA028091FB029091FC0240
:103A70002FBF08953FB7F8948091FD029091FE0208
:103A8000A091FF02B091000326B5A89B05C02F3F6F
:103A900019F00196A11DB11D3FBF6627782F892F10
:103AA0009A2F620F711D811D911D42E0660F771FD5
:103AB000881F991F4A95D1F70895CF92DF92EF9210
:103AC000FF92CF93DF936B017C010E943A1DEB01C3
:103AD000C114D104E104F10489F00E9488260E94F7
:103AE0003A1D6C1B7D0B683E734090F381E0C81A51
:103AF000D108E108F108C851DC4FEACFDF91CF913E
:103B0000FF90EF90DF90CF900895789484B5826015
:103B100084BD84B5816084BD85B5826085BD85B571
:103B2000816085BDEEE6F0E0808181608083E1E820
:103B3000F0E0108280818260808380818160808358
:103B4000E0E8F0E0808181608083E1E9F0E080815D
:103B500082608083808181608083E0E9F0E0808101
:103B600081608083E1ECF0E08081846080838081EB
:103B700082608083808181608083E3ECF0E08081DB
:103B800081608083E0ECF0E0808182608083E2EC01
:103B9000F0E0808181608083EAE7F0E080818460EA
:103BA0008083808182608083808181608083808146
:103BB000806880830895823108F08251E82FF0E018
:103BC000E451FF4FE49180917B00E3FB222720F931
:103BD00030E095E0220F331F9A95E1F78F7D822B1D
:103BE00080937B00E77080913F0120E4829FC001B9
:103BF0001124E82BE0937C0080917A00806480930C
:103C00007A0080917A0086FDFCCF80917800209127
:103C1000790090E0922B089590E0FC013197EF300D
:103C2000F105B0F5E959FF4F0C948429809180008B
:103C30008F7703C0809180008F7D809380000895EE
:103C400080918000877FF9CF84B58F7702C084B5DB
:103C50008F7D84BD0895809190008F7707C08091FB
:103C600090008F7D03C080919000877F80939000AB
:103C700008958091C0008F7703C08091C0008F7D30
:103C80008093C00008958091C200877F8093C20016
:103C90000895CF93DF9390E0FC01E95EFE4F2491FD
:103CA000FC01EA5CFE4F8491882349F190E0880F83
:103CB000991FFC01EF58FE4FA591B4918D599E4F6D
:103CC000FC01C591D4919FB7611108C0F8948C9103
:103CD000209582238C93888182230AC0623051F41C
:103CE000F8948C91322F309583238C938881822B8A
:103CF000888304C0F8948C91822B8C939FBFDF91B2
:103D0000CF9108950F931F93CF93DF931F92CDB759
:103D1000DEB7282F30E0F901E850FF4F8491F90118
:103D2000E95EFE4F1491F901EA5CFE4F0491002315
:103D3000C9F0882321F069830E940C1E6981E02F5D
:103D4000F0E0EE0FFF1FED59FE4FA591B4919FB724
:103D5000F8948C91611103C01095812301C0812BCF
:103D60008C939FBF0F90DF91CF911F910F9108957A
:103D7000CF93DF93282F30E0F901E850FF4F849173
:103D8000F901E95EFE4FD491F901EA5CFE4FC4915E
:103D9000CC2391F081110E940C1EEC2FF0E0EE0F6D
:103DA000FF1FEB5AFE4FA591B4912C912D2381E07A
:103DB00090E021F480E002C080E090E0DF91CF91BC
:103DC0000895CF93DF931F92CDB7DEB76983DC01EF
:103DD000ED91FC910280F381E02D41E050E0BE01C5
:103DE0006F5F7F4F09950F90DF91CF910895CF932B
:103DF000DF93EC018C859D8597FF05C082E00E94D2
:103E000025239D878C878C859D85DF91CF91089593
:103E100083E00C94A025FC018485958597FD06C060
:103E200082E00E94CD2290E00196089582E00E94F7
:103E3000CD2290E00895FC018485958597FD05C00D
:103E40002FEF3FEF35872487089582E00C942523D8
:103E5000CF93DF93EC0180914B01882331F083E015
:103E60000E9456231816190634F081E090E09B83D7
:103E70008A8380E090E0DF91CF910895FC0120815A
:103E80002E5F208342E450E06FE771E080E80C94FD
:103E9000F123FC0121818081813A59F4213209F01A
:103EA0005CC047E050E064E471E080E00E94F123F0
:103EB00067C0813209F051C0233289F4838190E0D8
:103EC000982F88273281832BA0E0B0E080934001B7
:103ED00090934101A0934201B09343010FC020325F
:103EE00039F467E070E084E491E00E9422240AC083
:103EF000223221F4828180934B0104C02D7F203235
:103F000009F03EC08091440190914501A091460185
:103F1000B0914701803B9440A105B10501F5809126
:103F20004B0180FD1CC08091000890910108909386
:103F3000FF0A8093FE0A87E797E790930108809332
:103F400000082BE088E190E00FB6F894A8958093E4
:103F500060000FBE2093600013C080E0089588E1E8
:103F60000FB6F89480936000109260000FBEA89581
:103F70008091FE0A9091FF0A9093010880930008B7
:103F800081E008952FEF3FEFFC01358724870895E6
:103F9000109204031092030388EE93E0A0E0B0E0D7
:103FA0008093050390930603A0930703B09308033F
:103FB00086E692E090930203809301038FEF9FEFD8
:103FC00090930E0380930D03089508950E94851D1C
:103FD0000E94E51F81E593E00E942D260E94C410F7
:103FE000C0E0D0E00E94C31A2097E1F30E940000D5
:103FF000F9CF6115710581F0DB010D900020E9F723
:10400000AD0141505109461B570BDC01ED91FC916C
:104010000280F381E02D099480E090E008950C94F3
:10402000F91FDC01ED91FC910190F081E02D0994E4
:1040300062E772E00C94F91F0F931F93CF93DF9305
:10404000EC010E94F91F8C01CE010E941820800F04
:10405000911FDF91CF911F910F9108958F929F92A1
:10406000AF92BF92CF92DF92EF92FF920F931F9386
:10407000CF93DF93CDB7DEB7A1970FB6F894DEBF2D
:104080000FBECDBF7C01C42EE52FCB01D22E19A2CD
:1040900021E02D1510F02AE0D22E8E010F5D1F4F6A
:1040A0008D2C912CA12CB12C6C2D7E2FA50194016F
:1040B0000E9443298C2DD29E801911240150110990
:1040C0008A3014F4805D01C0895CF8018083211579
:1040D00031054105510521F0C22EE32FCA01E4CF7D
:1040E000B801C7010E94F91FA1960FB6F894DEBF70
:1040F0000FBECDBFDF91CF911F910F91FF90EF9039
:10410000DF90CF90BF90AF909F908F900895CF9207
:10411000DF92EF92FF920F931F93CF93DF93EC0107
:104120006A017B012115310579F4E881F98101905B
:10413000F081E02D642FDF91CF911F910F91FF90BF
:10414000EF90DF90CF9009942A303105E9F477FFA2
:104150001AC06DE20E9411208C0144275527BA0134
:104160004C195D096E097F092AE0CE010E942E20BC
:10417000800F911FDF91CF911F910F91FF90EF90D2
:10418000DF90CF9008952AE0B701A601CE01DF911C
:10419000CF911F910F91FF90EF90DF90CF900C94F3
:1041A0002E209A01AB01662757FD6095762F0C945F
:1041B00087200F931F93CF93DF93EC019A01AB01FC
:1041C000662757FD6095762F0E9487208C01CE01CF
:1041D0000E941820800F911FDF91CF911F910F91A6
:1041E00008952115310541F4DC01ED91FC91019018
:1041F000F081E02D642F09940C942E209A01462F13
:1042000050E060E070E00C94F1200F931F93CF9387
:10421000DF93EC010E94F1208C01CE010E94182056
:10422000800F911FDF91CF911F910F9108954F92B1
:104230005F926F927F928F929F92AF92BF92CF9236
:10424000DF92EF92FF920F931F93CF93DF93EC01D6
:104250006A017B01B22E9A01AB01C701B6010E942F
:104260003F29882319F065E772E027C0260137014E
:10427000E89477F82FEF3FEF4FE75FE7C301B20114
:104280000E943F2981110DC02FEF3FEF4FE75FE7FD
:10429000C301B2010E94892718161CF469E772E075
:1042A0000CC02FEF3FEF4FE75FE4C701B6010E945C
:1042B000D8281816ACF46DE772E0CE01DF91CF91EB
:1042C0001F910F91FF90EF90DF90CF90BF90AF9034
:1042D0009F908F907F906F905F904F900C94F91FFC
:1042E0002FEF3FEF4FE75FECC701B6010E94892730
:1042F00087FDE1CF20E030E0A901C701B6010E94AF
:10430000892787FF0AC06DE2CE010E9411208C012F
:10431000F7FAF094F7F8F09402C000E010E0A12C56
:1043200060E070E080E09FE3AB1441F020E030E01B
:1043300040E251E40E948D27A394F6CF9B01AC018B
:10434000C701B6010E9425276B017C010E94FA2754
:104350002B013C010E9426289B01AC01C701B6013C
:104360000E9424276B017C012AE0B301A201CE0147
:104370000E942E20080F191FBB2039F061E872E05F
:10438000CE010E94F91F080F191F7B2C772041F1E5
:1043900020E030E040E251E4C701B6010E94DC2891
:1043A0006B017C010E94F5274B01AA2497FCA09485
:1043B000BA2C2AE030E0B501A401CE010E9487208A
:1043C000080F191FC501B4010E9428289B01AC01E8
:1043D000C701B6010E9424276B017C017A94D6CFD5
:1043E000C801DF91CF911F910F91FF90EF90DF9067
:1043F000CF90BF90AF909F908F907F906F905F9085
:104400004F9008950F931F93CF93DF93EC010E9479
:1044100017218C01CE010E941820800F911FDF917F
:10442000CF911F910F910895615030F02091F100CC
:10443000FC0120830196F8CF289884E680935A03E4
:1044400008954091550350915603209153033091A4
:10445000540342175307B4F49091E8009570E1F3C8
:104460009091E80092FD19C08093F100809155036E
:104470009091560301968F739927892B19F48EEF2B
:104480008093E80080915503909156030196909394
:1044900056038093550381E0089580E00895CF92FC
:1044A000DF92EF92FF920F931F93CF93DF931F92B0
:1044B000CDB7DEB7082F162FF42E862F880F8E5F0C
:1044C00099830E94212283E00E942122E02EC02EA7
:1044D0009981D92E8C2D8E19811798F4F601F7FE4B
:1044E00002C0849101C080810E942122082F80E0B7
:1044F0000E9421228023FFEFCF1ADF0A8111EACF29
:1045000001C081E00F90DF91CF911F910F91FF903B
:10451000EF90DF90CF9008958091D70081608093D5
:10452000D70080EA8093D80089B5806189BD89B5BC
:10453000826089BD09B400FEFDCF61E070E080E0DB
:1045400090E00E945D1D8091D8008F7C80618093F7
:10455000D8008091E000807F8093E0000895CF93A1
:10456000DF931F92CDB7DEB71982CE0101960E946C
:104570003E1F0E941027BE016F5F7F4F0E94892659
:1045800089810F90DF91CF9108952FB7FC0120838F
:10459000F89467706093E9000895CF93DF931F92BA
:1045A000CDB7DEB7682FCE0101960E94C52280915B
:1045B000F20099819FBF0F90DF91CF910895FF92F4
:1045C0000F931F93CF93DF9300D0CDB7DEB7F62EB6
:1045D0008A0190915903992311F057FF03C08FEF7F
:1045E0009FEF2BC0682FCE0101967A830E94C522CF
:1045F0008091F20090E0A8017A81801791070CF475
:10460000AC01EF2DF72FF40E84E6FE1639F0289852
:1046100080935A039091F1009193F7CF4115510582
:1046200021F08091F200882321F089818FBFCA0197
:1046300004C08BE68093E800F8CF0F900F90DF91D5
:10464000CF911F910F91FF900895CF93DF931F9209
:10465000CDB7DEB741E050E0BE016F5F7F4F0E94F3
:10466000DF22019719F4898190E002C08FEF9FEF5C
:104670000F90DF91CF910895CF93DF931F92CDB725
:10468000DEB7682FCE0101960E94C5229091E80006
:10469000892F807295FF04C09091F20080E4891BFD
:1046A00099819FBF0F90DF91CF9108956F927F9274
:1046B0008F929F92AF92BF92CF92DF92EF92FF9232
:1046C0000F931F93CF93DF931F92CDB7DEB7782E52
:1046D0007B01C42EB52E80915903882369F0042FE5
:1046E000152F8AEFD82E872D8072982E9AE3A92E47
:1046F000872D8074882E11C08FEF9FEF57C0872DB4
:104700000E943C23682E81110CC0DA94A9F361E069
:1047100070E080E090E00E945D1D0115110579F7C1
:104720003BC0282F30E0021713070CF4602E672DD2
:10473000CE0101960E94C5228091E80085FF29C024
:10474000262D30E0021B130B992039F06A948FEF6D
:104750006816B1F01092F100F9CFF701862D77FEBF
:1047600007C0815058F094919093F1003196F9CFA1
:10477000815020F091919093F100FACFE20EF31E58
:104780008091E80085FF0FC00115110511F481101B
:104790000AC089818FBFC1CF5D9884E680935B0397
:1047A0008C2D9B2D03C0A092E800F3CF0F90DF91DA
:1047B000CF911F910F91FF90EF90DF90CF90BF901E
:1047C000AF909F908F907F906F9008951092E90026
:1047D0001092560310925503909354038093530301
:1047E0000895CF92DF92FF920F931F93CF93DF93A1
:1047F00000D0CDB7DEB7F82E8A016B010115110587
:10480000B1F0F601F7FE02C0849101C080814983B6
:104810005A830E94212201501109FFEFCF1ADF0AAB
:1048200049815A818111EACF8FEF9FEF01C0CA0100
:104830000F900F90DF91CF911F910F91FF90DF901C
:10484000CF9008951F93CF93DF931F92CDB7DEB71C
:10485000162F2091E80022FFFCCF612F79830E9460
:1048600014228BEF8093E800812F7981972F0F908E
:10487000DF91CF911F9108951F920F920FB60F9263
:104880001124DF92EF92FF920F931F932F933F9388
:104890004F935F936F937F938F939F93AF93BF9348
:1048A000EF93FF93CF93DF93CDB7DEB76C97DEBF67
:1048B000CDBF1092E9008091E80083FF23C168E03A
:1048C000CE0145960E94142282EF8093E8003D8934
:1048D00037FF05C08091E80080FFFCCF03C08EEF5A
:1048E0008093E800832F807609F0F0C02E894F89ED
:1048F000D88C21110CC0303829F480915803809352
:10490000F10002C01092F1001092F100F4C0842F67
:1049100090E09D29213049F43111EDC0019709F053
:10492000EAC0809158038D7F0AC0233059F43111B9
:10493000E2C0019709F0DFC0809158038260809344
:104940005803D9C0253041F48091E80080FFFCCFA6
:1049500040684093E300CFC0263009F08DC0EB8C57
:10496000FC8C22E0D2122CC080E090E00E94E62372
:104970000E94AF2299E08E010F5F1F4FF801292F8F
:1049800011922A95E9F79983DA8291E09E8390EA61
:1049900098879AEF99872091550330915603275FA6
:1049A0003F4F3C832B838D83C7010E94E62349E060
:1049B00050E0B80180E00E94F1230E94AF229BC02A
:1049C000C7010E94E6230E941027BE016B5E7F4F45
:1049D0000E94B226009719F00CF08DC090C081E0C3
:1049E000D8120EC08B8D9C8D089719F481E08093AE
:1049F00052038091520381112FC063ED71E031C0E9
:104A0000E3E0DE127CC08F89882349F1823029F4EB
:104A100040E860E181EF91E01CC0813029F440E87A
:104A20006BE085EE91E015C0833009F068C00E940C
:104A300010278E010F5F1F4FB8010E94D126F80189
:104A400001900020E9F73197E01BF10B40E06E2F59
:104A5000C8010E944F224DC061EC71E002C062E0CB
:104A600072E06115710509F44AC0FB01449150E000
:104A700080E80E94F1233FC0273009F440C028306D
:104A800021F481E08093F10036C02930A1F5337024
:104A9000B1F5EDE4F1E081E021E036E39081992386
:104AA00061F08093E9002093EB0091919093EC00EA
:104AB0003093ED008F5F873089F78EE78093EA00AF
:104AC0001092EA008F898093590315C08B8D9C8DBD
:104AD0000E94E623898D811105C0CE0145960E9472
:104AE000491F07C00E941027BE016B5E7F4F0E94C6
:104AF000F026882321F08EEF8093E80003C081E246
:104B00008093EB006C960FB6F894DEBF0FBECDBF5E
:104B1000DF91CF91FF91EF91BF91AF919F918F91D5
:104B20007F916F915F914F913F912F911F910F91C5
:104B3000FF90EF90DF900F900FBE0F901F90189591
:104B40008093E9008091F200882319F08AE3809332
:104B5000E80008951F920F920FB60F9211242F9321
:104B60003F934F935F936F937F938F939F93AF93F5
:104B7000BF93CF93EF93FF93C091E1008091E10049
:104B8000837F8093E1008093E100C3FF0FC0109208
:104B9000E90081E08093EB001092EC0082E38093C7
:104BA000ED001092590388E08093F000C2FF19C015
:104BB00083E00E94A02580915B03882339F08091D7
:104BC0005B03815080935B03882389F180915A03B2
:104BD000882339F080915A03815080935A038823A7
:104BE00041F1C4FF10C08091E2008E7E816080930D
:104BF000E2008091E1008F7E8093E1008091570375
:104C00008E7E806111C0C0FF16C08091E2008E7E52
:104C100080618093E2008091E1008E7E8093E100CC
:104C2000809157038E7E81608093570304C05D9A04
:104C3000CDCF289AD6CFFF91EF91CF91BF91AF9171
:104C40009F918F917F916F915F914F913F912F91A4
:104C50000F900FBE0F901F9018951092590310924D
:104C60005803109257030E948C22E1EEF0E08081FD
:104C70008E7E80838DE08093E200559A209A08957D
:104C8000611571058105910511F00C941F2B089594
:104C9000CF93DF9300D000D0CDB7DEB79B01AC013E
:104CA000611571058105910569F069833A834B832C
:104CB0005C830E941A2B29813A814B815C810E947E
:104CC000652903C060E070E0CB010F900F900F905A
:104CD0000F90DF91CF910895CF92DF92EF92FF92E4
:104CE0006B017C01621773078407950764F4CA019E
:104CF000B9016C197D098E099F090E9448266C0D27
:104D00007D1D8E1D9F1DFF90EF90DF90CF90089529
:104D10000895EF92FF920F931F93CF93DF937B0140
:104D2000FC01C281D38100E010E0209781F0E8818E
:104D3000F9810280F381E02DB701CE01099597FD3D
:104D400008C0080F191F0884D985C02DEECFC801EF
:104D500002C08FEF9FEFDF91CF911F910F91FF90D6
:104D6000EF9008950F931F93CF93DF938B01FC0176
:104D7000C281D381209771F0E881F9810480F581A7
:104D8000E02DB801CE010995009731F40884D9854A
:104D9000C02DF0CF80E090E0DF91CF911F910F9177
:104DA00008950F931F93CF93DF938B01FC01C28172
:104DB000D381209771F0E881F9810680F781E02D99
:104DC000B801CE010995080F111D0884D985C02DA1
:104DD000F0CFF8011082DF91CF911F910F910895CC
:104DE0000F931F93CF93DF938B01FC01C281D3817B
:104DF000209771F0E881F9810190F081E02DB801F0
:104E0000CE010995811106C00884D985C02DF0CF47
:104E100080E001C081E0DF91CF911F910F91089553
:104E20008091600381110DC082E080935C0384E077
:104E300080935D0310925F0310925E0381E0809384
:104E400060038CE593E008955058BB27AA270ED045
:104E500075C166D130F06BD120F031F49F3F11F471
:104E60001EF45BC10EF4E095E7FB51C1E92F77D149
:104E700080F3BA17620773078407950718F071F477
:104E80009EF58FC10EF4E0950B2EBA2FA02D0B01CD
:104E9000B90190010C01CA01A0011124FF27591B7F
:104EA00099F0593F50F4503E68F11A16F040A22F85
:104EB000232F342F4427585FF3CF469537952795F6
:104EC000A795F0405395C9F77EF41F16BA0B620BF5
:104ED000730B840BBAF09150A1F0FF0FBB1F661F3C
:104EE000771F881FC2F70EC0BA0F621F731F841F7F
:104EF00048F4879577956795B795F7959E3F08F0A5
:104F0000B3CF9395880F08F09927EE0F9795879563
:104F10000895D9D008F481E008950CD00FC107D1CD
:104F200040F0FED030F021F45F3F19F0F0C0511195
:104F300039C1F3C014D198F39923C9F35523B1F3C0
:104F4000951B550BBB27AA2762177307840738F0F8
:104F50009F5F5F4F220F331F441FAA1FA9F333D057
:104F60000E2E3AF0E0E830D091505040E695001C0B
:104F7000CAF729D0FE2F27D0660F771F881FBB1FC7
:104F8000261737074807AB07B0E809F0BB0B802DA1
:104F9000BF01FF2793585F4F2AF09E3F510568F0ED
:104FA000B6C000C15F3FECF3983EDCF38695779581
:104FB0006795B795F7959F5FC9F7880F911D9695EF
:104FC000879597F90895E1E0660F771F881FBB1F4B
:104FD000621773078407BA0720F0621B730B840BF8
:104FE000BA0BEE1F88F7E095089504D06894B111CC
:104FF000D9C00895BCD088F09F5790F0B92F992759
:10500000B751A0F0D1F0660F771F881F991F1AF0D3
:10501000BA95C9F712C0B13081F0C3D0B1E008959C
:10502000C0C0672F782F8827B85F39F0B93FCCF31D
:10503000869577956795B395D9F73EF490958095C9
:10504000709561957F4F8F4F9F4F0895E89409C0E9
:1050500097FB3EF490958095709561957F4F8F4FAB
:105060009F4F9923A9F0F92F96E9BB279395F695C1
:10507000879577956795B795F111F8CFFAF4BB0F3F
:1050800011F460FF1BC06F5F7F4F8F4F9F4F16C0A3
:10509000882311F096E911C0772321F09EE8872F2D
:1050A000762F05C0662371F096E8862F70E060E0E9
:1050B0002AF09A95660F771F881FDAF7880F969562
:1050C000879597F90895990F0008550FAA0BE0E806
:1050D000FEEF16161706E807F907C0F012161306BA
:1050E000E407F50798F0621B730B840B950B39F4FA
:1050F0000A2661F0232B242B252B21F408950A2660
:1051000009F4A140A6958FEF811D811D089597F99F
:105110009F6780E870E060E008959FEF80EC08955D
:1051200000240A9416161706180609060895002486
:105130000A9412161306140605060895092E039400
:10514000000C11F4882352F0BB0F40F4BF2B11F474
:1051500060FF04C06F5F7F4F8F4F9F4F089557FDD3
:105160009058440F551F59F05F3F71F04795880FD5
:1051700097FB991F61F09F3F79F08795089512166C
:1051800013061406551FF2CF4695F1DF08C0161618
:1051900017061806991FF1CF8695710561050894C9
:1051A0000895E894BB2766277727CB0197F90895E0
:1051B0008ADF08F48FEF08950BD0C0CFB1DF28F05D
:1051C000B6DF18F0952309F0A2CFA7CF1124EACFBC
:1051D000C6DFA0F3959FD1F3950F50E0551F629F56
:1051E000F001729FBB27F00DB11D639FAA27F00D40
:1051F000B11DAA1F649F6627B00DA11D661F829F67
:105200002227B00DA11D621F739FB00DA11D621F4B
:10521000839FA00D611D221F749F3327A00D611D68
:10522000231F849F600D211D822F762F6A2F11244A
:105230009F5750408AF0E1F088234AF0EE0FFF1F9D
:10524000BB1F661F771F881F91505040A9F79E3FD4
:10525000510570F05CCFA6CF5F3FECF3983EDCF3D6
:10526000869577956795B795F795E7959F5FC1F711
:10527000FE2B880F911D9695879597F9089523DF4A
:10528000880B990B0895A1E21A2EAA1BBB1BFD01E6
:105290000DC0AA1FBB1FEE1FFF1FA217B307E40715
:1052A000F50720F0A21BB30BE40BF50B661F771F6D
:1052B000881F991F1A9469F760957095809590954D
:1052C0009B01AC01BD01CF010895052E97FB1EF493
:1052D00000940E947C2957FD07D00E94432907FCB7
:1052E00003D04EF40C947C2950954095309521952F
:1052F0003F4F4F4F5F4F0895909580957095619502
:105300007F4F8F4F9F4F0895EE0FFF1F0590F49131
:10531000E02D09940E949529A59F900DB49F900DB2
:10532000A49F800D911D11240895A29FB001B39FE9
:10533000C001A39F700D811D1124911DB29F700D9E
:10534000811D1124911D0895CF93DF938230910523
:1053500010F482E090E0E0916A03F0916B0320E0AA
:1053600030E0A0E0B0E0309739F14081518148173A
:105370005907B8F04817590771F482819381109743
:1053800029F013969C938E9312972CC090936B03E5
:1053900080936A0327C02115310531F04217530766
:1053A00018F0A901DB0101C0EF019A01BD01DF0185
:1053B0000280F381E02DD7CF21153105F9F0281BAC
:1053C000390B2430310580F48A819B816115710588
:1053D00021F0FB019383828304C090936B0380933D
:1053E0006A03FE01329644C0FE01E20FF31F81936F
:1053F000919322503109398328833AC02091680360
:1054000030916903232B41F4209102013091030173
:1054100030936903209368032091000130910101CA
:105420002115310541F42DB73EB74091040150914B
:105430000501241B350BE0916803F0916903E21725
:10544000F307A0F42E1B3F0B2817390778F0AC01A7
:105450004E5F5F4F2417350748F04E0F5F1F509384
:105460006903409368038193919302C0E0E0F0E008
:10547000CF01DF91CF910895CF93DF93009709F487
:1054800087C0FC01329713821282C0916A03D091C7
:105490006B03209781F420813181280F391F80917F
:1054A0006803909169038217930779F5F093690374
:1054B000E09368036DC0DE0120E030E0AE17BF0767
:1054C00050F412964D915C9113979D014115510531
:1054D00009F1DA01F3CFB383A28340815181840FB4
:1054E000951F8A179B0771F48D919C911197840FDA
:1054F000951F02969183808312968D919C911397AC
:10550000938382832115310529F4F0936B03E09393
:105510006A033EC0D9011396FC93EE9312974D9106
:105520005D91A40FB51FEA17FB0779F48081918183
:10553000840F951F0296D90111969C938E938281B8
:10554000938113969C938E931297E0E0F0E08A810A
:105550009B81009719F0FE01EC01F9CFCE01029674
:1055600028813981820F931F20916803309169034C
:105570002817390769F4309729F410926B031092B9
:105580006A0302C013821282D0936903C093680336
:10559000DF91CF9108958F929F92AF92BF92CF9259
:1055A000DF92EF92FF92CF93DF93EC0168817981D4
:1055B0008A819B81611571058105910521F464E261
:1055C00079ED8BE597E02DE133EF41E050E00E946B
:1055D000652949015A019B01AC01A7EAB1E40E9487
:1055E0008A296B017C01ACEEB4EFA50194010E9405
:1055F000482BC60ED71EE81EF91EF7FE06C081E036
:10560000C81AD108E10880E8F80AC882D982EA827B
:10561000FB82C701B6019F77DF91CF91FF90EF909A
:10562000DF90CF90BF90AF909F908F9008950E9491
:10563000CB2A089586E091E00E94CB2A08956093DA
:105640000601709307018093080190930901089562
:10565000DC0101C06D9341505040E0F70895F99985
:10566000FECF92BD81BDF89A992780B50895262F67
:10567000F999FECF1FBA92BD81BD20BD0FB6F89437
:10568000FA9AF99A0FBE01960895B7FF0C948A29E9
:105690000E948A29821B930B089512E0CAE0D2E08F
:1056A00004C0FE010E9486292296CC30D107C9F79A
:0456B000F894FFCF9C
:1056B40000006C0380000100000008010A0045019D
:1056C4004501010004060517010B63636363630569
:1056D400000000000000001F00000015000000048E
:1056E4001132082008D01BD01BD01BD01BD01B01AB
:1056F400FFFFFFFF00E100000000000000C1808107
:1057040000000002040000000000004D6F6E746F82
:105714006E204D6573736167652053656E74004335
:10572400414E2D42555320537461727475703A2062
:1057340000202D204F4B004E6F7420476F6F642C58
:1057440020636865636B20796F75722070696E23BE
:1057540020616E6420636F6E6E656374696F6E732F
:105764000053746172742043616C6962726174697C
:105774006F6E0046696E69736865642043616C6985
:1057840062726174696F6E004E6F64652049443AB9
:1057940020004E656F706978656C205465737400E1
:1057A4002D2D2D2D2D496E707574732D2D2D2D00DD
:1057B40050696E2300203D2000202D205052455377
:1057C400534544002D2D2D2D2D43616E20427573BC
:1057D4002D2D2D2D004D6573736167652052656312
:1057E4006569766564004E6F7468696E67205265FA
:1057F400636569766564002D2D2D2D2D43616C69DB
:10580400627261746520546F7765722D2D2D2D00A1
:105814002C0000000000E11E281F0B1F1B1FF71E99
:10582400081F0D0A006E616E00696E66006F766671
:04583400002E000042
:00000001FF
