:100000000C9475000C949D000C949D000C941309A5
:100010000C9413090C9413090C949D000C949D00EE
:100020000C949D000C949D000C949D000C949D00DC
:100030000C949D000C949D000C949D000C949D00CC
:100040000C9481150C949D000C9457180C948918ED
:100050000C949D000C949D000C949D000C949D00AC
:100060000C949D000C949D00EF03F303B903BC03B3
:10007000BF03C303C703CA03CE03D103D403D7030B
:10008000DA03DE03E203E603E903000000080002EE
:10009000010000030407000000000000000001024E
:1000A0000408102040800102040810200102040806
:1000B00010200404040404040404020202020202E4
:1000C00003030303030300000000230026002900AC
:1000D00000000000250028002B0000000000240084
:1000E00027002A008813B918F41311241FBECFEF7C
:1000F000D8E0DEBFCDBF12E0A0E0B1E0E6E0FEE375
:1001000002C005900D92A032B107D9F723E0A0E21A
:10011000B2E001C01D92A83BB207E1F710E0C8EEC3
:10012000D0E004C02297FE010E94FF1BC43ED1070D
:10013000C9F70E94FD180C94F61E0C940000CF9392
:10014000DF93EC0188859985009711F00E949B1C34
:100150008D8187FD05C060E0DF91CF910C947A1608
:10016000DF91CF910895CF93DF93EC018D8187FDCF
:1001700007C061E00E947A1660E08D810E94B3168C
:1001800081E08883DF91CF910895EF92FF920F93E2
:100190001F93CF93DF93EC017B01888599850097AE
:1001A00011F00E949B1C8701000F111F0E0D1F1DD7
:1001B0001C830B83C8010E94031C998788870097C2
:1001C00041F0A80160E070E00E94201EFA82E982FE
:1001D00004C01C821B821A821982DF91CF911F9169
:1001E0000F91FF90EF900895FC01668360FF04C0BB
:1001F00081E08287138611C062FF06C081E082879A
:1002000082E0838714860895128663FF04C082E02B
:10021000838781E003C081E0838782E0848708953B
:10022000CF92DF92EF92FF920F931F93CF93DF93C2
:10023000CDB7DEB729970FB6F894DEBF0FBECDBF9E
:100240008C01DC0118968D919C911997892B09F4EA
:100250009BC00E94CB15F801C584D684E784F08842
:100260006C197D098E099F0962337105810591051D
:1002700080F3F894838194819A838983A085B185E2
:100280007D01EFEFEE1AFE0A8C918987D801169650
:100290009C91169751960D90BC91A02DF8018389E1
:1002A00091FF2EC09C91982B98879C9180958923D3
:1002B0008F838F818E8388E08D8358856F814985F8
:1002C0003D812E8189819A81F7015C9347FD252F1D
:1002D0003A952C93262F39F0441F00C000006C93F0
:1002E000000000C0F2CF38E041916C93000001970C
:1002F00061F7F801B28BA18B49873D832E8338C00B
:100300009C91982B98879C91809589238F838F81CE
:100310008C8388E08B8358856F8149853B812C8154
:1003200089819A81F7015C9347FD252F00C000C0A9
:100330002C9300C000C000C000C000C06C9300003F
:10034000262F3A9541F0441F000000C000C000C0B5
:1003500000C000C0E8CF38E0419100C06C9300C0FD
:10036000019709F7F801B28BA18B49873B832C8356
:100370009A83898378940E94CB15D8011D966D933A
:100380007D938D939C93509729960FB6F894DEBF7A
:100390000FBECDBFDF91CF911F910F91FF90EF90D6
:1003A000DF90CF9008951F93CF93DF93EC01162F2A
:1003B0008881882331F08D8187FD03C060E00E9431
:1003C0007A161D838881882341F061E0812F0E9485
:1003D0007A1660E0812F0E94B316812F90E0FC0115
:1003E000EE54FF4FE491F0E0EE0FFF1FE053FF4F9C
:1003F000259134913A8B298BFC01E256FF4F849171
:100400008B8BDF91CF911F9108950F931F93CF9303
:10041000DF9300D0CDB7DEB78C01FC0110821782CC
:1004200011861086158616861786108A2A834983B8
:100430000E94C5004981642FC8010E94D3012A810E
:10044000622FC8010F900F90DF91CF911F910F91F4
:100450000C94F400CF92DF92EF92FF920F931F93D0
:10046000CF93DF93FC01818192816817790788F52A
:10047000CA01AA27BB27082FC32ED42EE52EFF249E
:100480001C2DD22FC781CC2361F08C9FC001112479
:10049000092FCC9E600111241D2D2C9F9001112449
:1004A000D32F9B01220F331F260F371F8085918585
:1004B000820F931F2285DC01A20FB11D0C932385AF
:1004C000DC01A20FB11D1C932485FC01E20FF11D7C
:1004D000D083DF91CF911F910F91FF90EF90DF902C
:1004E000CF900895962F50E060E070E0592B682B74
:1004F000CB01BA0108958EBD00000DB407FEFDCFFB
:100500008EB50895CF93DF93EC0160E088890E9457
:10051000B31680EC0E947B0261E088890E94B316CA
:100520006AE070E080E090E0DF91CF910C94EE15EE
:100530001F93CF93DF93EC01162F60E088890E9410
:10054000B31683E00E947B02812F0E947B0280E031
:100550000E947B02182F61E088890E94B316812FC8
:10056000DF91CF911F910895CF92DF92EF92FF928A
:100570000F931F93CF93DF9300D0CDB7DEB78C01DD
:10058000F62EE22E60E0FC01808949835A830E94A6
:10059000B31683E00E947B028F2D0E947B0249816B
:1005A000C42E5A81D52EF12CFE1459F0F8E0FF1616
:1005B00041F080E00E947B02F60181936F01F39489
:1005C000F3CF61E0F80180890F900F90DF91CF9118
:1005D0001F910F91FF90EF90DF90CF900C94B31686
:1005E000EF92FF921F93CF93DF931F92CDB7DEB7A9
:1005F0007C01162F60E0FC01808949830E94B316BC
:1006000082E00E947B02812F0E947B024981842F1D
:100610000E947B0261E0F70180890F90DF91CF910A
:100620001F91FF90EF900C94B316CF92DF92EF9250
:10063000FF920F931F93CF93DF9300D0CDB7DEB718
:100640008C01E62EF22E60E0FC01808949835A83FA
:100650000E94B31682E00E947B028E2D0E947B02D4
:100660004981E42EC42E5A81D52E8C2D8E198F15DA
:1006700030F4F60181916F010E947B02F6CF61E0B8
:10068000F80180890F900F90DF91CF911F910F910A
:10069000FF90EF90DF90CF900C94B316EF92FF9203
:1006A0001F93CF93DF9300D0CDB7DEB77C01162F19
:1006B00060E0FC0180892A8349830E94B31685E0AB
:1006C0000E947B02812F0E947B024981842F0E941D
:1006D0007B022A81822F0E947B0261E0F7018089E0
:1006E0000F900F90DF91CF911F91FF90EF900C949E
:1006F000B3161F93CF93DF93EC0160E088890E94CB
:10070000B31680EA0E947B0280E00E947B02182FD1
:1007100061E088890E94B316812FDF91CF911F91EC
:1007200008951F93CF93DF93EC01162F262F40EEF1
:100730006FE00E944E036FE0CE010E949802982F56
:10074000907E81E0911301C080E0DF91CF911F91F5
:1007500008950F931F93CF93DF93EC01462F50E042
:10076000FA013197E131F105C0F5EC5CFF4F0C94D3
:10077000FD1B17E80FEF05C017E00AEB02C015E8F4
:1007800001EF4FE033C017E00EEB49E02FC017E850
:100790000FEF02C017E80AEF47E028C017E80FEF95
:1007A0000BC017E00EEB08C017E00DEA05C017E814
:1007B0000AEF02C016E800EF43E018C017E80AEF9E
:1007C00041E014C015E801EF41E410C016E800EF65
:1007D00002C012E800ED40E009C081E016C017E851
:1007E0000FEF4FE303C017E80FEF4FE16AE2CE01CE
:1007F0000E94F002402F69E2CE010E94F002412FD8
:1008000068E2CE010E94F00280E0DF91CF911F915B
:100810000F9108951F93CF93DF93EC0110E340E015
:10082000612FCE010E94F00260E1610F40E0CE0135
:100830000E94F00260E2610F40E0CE010E94F002EF
:100840001F5F1E3361F740E060E6CE010E94F002B8
:1008500040E060E7CE01DF91CF911F910C94F00250
:100860000F931F93CF93DF93EC01062F0E94820218
:1008700060E8CE010E949103182F6AE070E080E0EA
:1008800090E011110CC00E94EE15602FCE010E9465
:10089000A903882339F06AE070E080E090E00E94CC
:1008A000EE1528C06AE070E080E090E00E94EE154E
:1008B000CE010E940A0443E06BE2CE010E94F002E6
:1008C00024E044E660E6CE010E944E0320E040E6CC
:1008D00060E7CE010E944E0360E0CE010E949103CA
:1008E000C82F8823C1F26AE070E080E090E00E94A7
:1008F000EE151C2F812FDF91CF911F910F9108953D
:100900000F931F93CF93DF9300D000D0CDB7DEB706
:100910004130B1F40C831B83890122273327502FE8
:100920005C71402F437078E0579F400D1124486060
:100930004A8355E0169507955A95E1F709830DC04E
:10094000A80123E0569547952A95E1F7498302953A
:10095000000F007E0A831C821B8224E0AE014F5FE1
:100960005F4F0E9415030F900F900F900F90DF9133
:10097000CF911F910F910895EF92FF920F931F93C4
:10098000CF93DF9300D000D0CDB7DEB77A018901D5
:10099000FA011082F901108211821282138224E07E
:1009A000AE014F5F5F4F0E94B4022A813981822FCE
:1009B00090E045E0959587954A95E1F7F8E03F9FEF
:1009C000800D911D1124AA2797FDA095BA2FF8013B
:1009D00080839183A283B38323FF25C062E0880FC5
:1009E000991FAA1FBB1F6A95D1F72370820F911D13
:1009F000A11DB11DBA2FA92F982F88272B81820FF7
:100A0000911DA11DB11DBA2FA92F982F88272C81C8
:100A1000820F911DA11DB11D80839183A283B38399
:100A200081E0F70180830F900F900F900F90DF917E
:100A3000CF911F910F91FF90EF900895FF920F9328
:100A40001F93CF93DF93EC01F62EAC014A5F5F4F0B
:100A500065E06F0D2D810E9415038E85813019F49C
:100A60008D8180648D8364E06F0D4D81CE010E9485
:100A7000F00209811A812B813C8148816F2DCE01C2
:100A80000E948004DF91CF911F910F91FF900895F4
:100A90000F931F93CF93DF93EC01162F9C012F5FD1
:100AA0003F4FAC010E94BC046FEF610FCE010E946A
:100AB0009802082F64E0610FCE010E949802282F4F
:100AC0008D8303FF03C081E08E8701C01E862F70D7
:100AD0002D83AE014A5F5F4F65E0610FCE01DF916C
:100AE000CF911F910F910C94B402615028E048E01F
:100AF0000C944E039F92AF92BF92CF92DF92EF92EF
:100B0000FF920F931F93CF93DF9300D01F92CDB727
:100B1000DEB76C017B0180E3898380E48A8380E512
:100B20008B83FB0110828E010F5F1F4F5E01F4E08B
:100B3000AF0EB11CF80191908F01692DC6010E9482
:100B40009802982F987083FD04C09394F7019082C7
:100B500004C00A151B0571F792E0892F0F900F90C2
:100B60000F90DF91CF911F910F91FF90EF90DF9049
:100B7000CF90BF90AF909F900895FF920F931F93D7
:100B8000CF93DF9300D01F92CDB7DEB78B0120E368
:100B9000298320E42A8320E52B83FB011082FE01B8
:100BA000E40FF11DF1806F2D0E949802982F98702C
:100BB00083FD04C0F394F801F08201C092E0892F14
:100BC0000F900F900F90DF91CF911F910F91FF9099
:100BD0000895CF93DF93EC01862F688B61E00E942C
:100BE0007A1661E08889DF91CF910C94B316CF9388
:100BF000DF9300D01F92CDB7DEB76B8389839A83D2
:100C00000E94A40A6B8189819A810E94300491E03C
:100C1000811101C090E0892F0F900F900F90DF910C
:100C2000CF9108958F929F92BF92CF92DF92EF92D1
:100C3000FF920F931F93CF93DF931F92CDB7DEB731
:100C40004C01B62E680179016AE070E080E090E026
:100C500049830E94EE1560E8C4010E949103182F99
:100C60004981882329F06AE070E080E090E01AC0B2
:100C7000B11004C09701860160E206C081E0B8129D
:100C800006C09701860164E2C4010E94800460E00E
:100C9000C4010E949103182F6AE070E080E090E0A8
:100CA000112321F00E94EE15812F03C00E94EE1542
:100CB00080E00F90DF91CF911F910F91FF90EF9007
:100CC000DF90CF90BF909F908F900895AF92BF928A
:100CD000CF92DF92EF92FF920F931F93CF93DF9308
:100CE00000D0CDB7DEB75C01562F680179016AE00C
:100CF00070E080E090E04A8359830E94EE1560E83E
:100D0000C5010E949103182F4A815981882329F037
:100D10006AE070E080E090E031C05230B1F040F421
:100D2000552379F05130F9F49701860164E018C039
:100D3000543099F070F05530B1F49701860168E1B4
:100D40000FC09701860160E00BC09701860168E043
:100D500007C09701860160E103C09701860164E145
:100D6000C5010E94800460E0C5010E949103182F14
:100D70006AE070E080E090E0112321F00E94EE151F
:100D8000812F03C00E94EE1580E00F900F90DF913D
:100D9000CF911F910F91FF90EF90DF90CF90BF9078
:100DA000AF900895CF92DF92EF920F931F93CF935E
:100DB000DF93FC0120834183528363837483093072
:100DC00008F008E00583E686D60180E090E010E0B8
:100DD000801791073CF42D91EF01C80FD91F2E8386
:100DE0000196F6CF80E0DF91CF911F910F91EF90A8
:100DF000DF90CF900895CF92DF92EF92FF920F9302
:100E00006701E12C0E94D2060F91FF90EF90DF90D6
:100E1000CF900895EF92FF920F931F93CF93DF939C
:100E20001F92CDB7DEB78C01E12CF12CBE016F5FB4
:100E30007F4FC8010E947A059FEFE91AF90A8230B4
:100E400029F482E3E816F10489F724C092E3E91655
:100E5000F10401F16981C8010E941E056981C80180
:100E60000E947505E12CF12C8FEFE81AF80A6981D0
:100E70006150C8010E94980283FF06C092E3E91600
:100E8000F10491F787E007C082E3E816F104D1F39B
:100E900080E001C086E00F90DF91CF911F910F910C
:100EA000FF90EF900895DF92EF92FF920F931F93C0
:100EB000CF93DF931F92CDB7DEB78C01D62EE12CF6
:100EC000F12C4D2DBE016F5F7F4FC8010E94BD0503
:100ED0009FEFE91AF90A823029F482E3E816F10457
:100EE00081F72BC092E3E916F10439F16981C80159
:100EF0000E941E056981C8010E947505E12CF12C34
:100F00008FEFE81AF80A69816150C8010E949802BF
:100F1000D82E61E070E080E090E00E94EE15D3FEF4
:100F200006C092E3E916F10459F787E007C082E3AF
:100F3000E816F104D1F380E001C086E00F90DF9164
:100F4000CF911F910F91FF90EF90DF900895EF9256
:100F5000FF920F93CF93DF93EC010E94FB06CE012B
:100F6000DF91CF910F91FF90EF900C940A07CF92F1
:100F7000EF92FF920F93CF93DF93EC010E94FB0659
:100F80006C2DCE01DF91CF910F91FF90EF90CF901C
:100F90000C945307CF93DF93EC010E94790380FFF9
:100FA00007C061E6CE010E94480520E041E008C08C
:100FB00081FF0CC061E7CE010E94480520E042E0BD
:100FC0006CE2CE010E944E0380E001C084E0DF911C
:100FD000CF910895EF92FF920F931F93CF93DF93DA
:100FE00000D0CDB7DEB77C018B0149835A830E94C4
:100FF000CA0749815A81811118C0D70115969C9161
:10100000F8019083FA0120E030E0D70115964C9169
:1010100050E0241735075CF4D701A20FB31F1696D2
:101020009C9191932F5F3F4FF0CFF80110820F906A
:101030000F90DF91CF911F910F91FF90EF90089546
:101040000E947903837011F083E0089584E008958D
:10105000FC016181728183819481089520916402F1
:101060003091650228173907B9F4909122028091D6
:101070002302981789F0E0912202F0E0EC5DFD4F29
:1010800080812091220230E02F5F3F4F2F73332762
:101090002093220290E008958FEF9FEF08951F9311
:1010A000CF93DF93DC015C968D919C915D970097C7
:1010B00049F481E090E013969C938E93129780E020
:1010C00090E03BC05196ED91FC91529750962C9137
:1010D0005097322F30951FB75E964C915E9741FB2B
:1010E000772770F941FD6095F8944081772311F0DE
:1010F000422B01C043234083EC012197F1F748E0E4
:10110000508160FF02C0522B01C053235083EC0179
:101110002197F1F76695415099F78081772311F077
:10112000832301C0822B80831FBF5C968D919C918D
:101130005D970197F1F781E090E0DF91CF911F91EA
:1011400008950895209164023091650228173907A7
:1011500081F49091220280912302981751F0E0913E
:101160002202F0E0EC5DFD4F8081992787FD90958C
:1011700008958FEF9FEF08952091640230916502EA
:101180002817390771F4809123022091220290E000
:10119000805C9F4F821B910960E470E00E94A81B55
:1011A000089580E090E00895E0916402F091650276
:1011B000E817F90769F4A389B4899C91858980951A
:1011C00089238C93109265021092640281E0089545
:1011D00080E00895CF93DF93EC018A8D9B8D892B5E
:1011E000F1F080916402909165028C179D07B9F02F
:1011F000009711F00E94D4088E8D8E7F8E8F1092F2
:10120000230210922202D0936502C0936402EB89FC
:10121000FC8980819D89892B808381E001C080E0E9
:10122000DF91CF9108951F920F920FB60F92112464
:101230002F933F934F935F936F937F938F939F93DE
:10124000AF93BF93EF93FF93E0916402F091650237
:10125000309709F451C0868DA685B785958581FFA5
:1012600004C08C91892329F447C08C91892309F00B
:1012700043C0A389B4899C918589809589238C93E7
:10128000868997890197F1F7208D318DA685B785DD
:10129000758558E040E0C9010197F1F7842F90E08F
:1012A00095958795482F6C91672309F040685150B8
:1012B00091F7868D81FD40958091230290E0019603
:1012C0008F73992720912202281749F0A0912302B9
:1012D000B0E0AC5DBD4F4C938093230203C0868D7C
:1012E0008160868F828D938D0197F1F7A389B489F0
:1012F0008C919589892B8C93FF91EF91BF91AF9140
:101300009F918F917F916F915F914F913F912F911D
:101310000F900FBE0F901F9018952CE231E0FC014A
:10132000318320830C94D4081F93CF93DF93EC0177
:10133000162F6E8D6695617081E06827812F0E945F
:10134000B31661E0812F0E947A16812F90E0FC0194
:10135000E256FF4FE491E88BFC01EE54FF4FE4911D
:10136000F0E0EE0FFF1FE053FF4F859194919A8BB1
:10137000898BDF91CF911F9108951F93CF93DF93B6
:10138000EC01162F60E0812F0E947A168E8D81FD70
:1013900004C061E0812F0E94B3161C87812F90E06A
:1013A000FC01E256FF4FE491ED87FC01EE54FF4F44
:1013B000E491F0E0EE0FFF1FEA53FF4F8591949107
:1013C0009F878E87DF91CF911F910895FF920F9392
:1013D0001F93CF93DF93EC01F62E522F1B821A82BC
:1013E00008EE13E020E030E00C831D832E833F8362
:1013F0008CE291E0998388831F8A1E8A198E188E49
:101400001B8E1A8E1D8E1C8E8E8D8E7F50FB81F949
:101410008E8F642FCE010E9494096F2DCE01DF9133
:10142000CF911F910F91FF900C94BD09CF93DF9343
:10143000EC019A01AB011B8E1A8E198E188E1F8A31
:101440001E8A60E079E08DE390E00E94DE1BC90116
:101450002430310520F0B9016350710902C061E008
:1014600070E07D8F6C8FEC85E63108F068C0B901C3
:10147000769567956431710518F06351710902C062
:1014800061E070E07F8B6E8B069718F0C9010597BD
:1014900002C081E090E0998F888FC901880F991F61
:1014A000820F931F96958795969587958D30910518
:1014B00010F00C9702C081E090E09B8F8A8F209102
:1014C0006800E83050F091E0EE3008F490E081E000
:1014D00001C0880F9A95EAF701C084E0822B8093BF
:1014E00068002C85283038F02E3040F0263148F442
:1014F0008CE690E008C08DE690E005C08BE690E0B9
:1015000002C080E090E09C8B8B8B283030F481E02F
:1015100001C0880F2A95EAF70DC0822F90E02E3087
:1015200010F4089701C00E9791E001C0990F8A95B9
:10153000EAF7892F8D8B8C8D9D8D0197F1F7CE0168
:10154000DF91CF910C94EA08CF93CFB7F8948091B4
:101550006602811127C0ECEBF0E08491E8EAF0E04C
:101560009491E82FF0E0EE0FFF1FE652FF4FA59198
:10157000B4918C91892321F461E08AE00E94B31632
:1015800061E08AE00E947A168CB580618CBD8CB5D2
:1015900080648CBD61E08DE00E947A1661E08BE092
:1015A0000E947A16809166028F5F80936602CFBF99
:1015B000CF910895CF93DF9380919502843229F0E3
:1015C0001092B502E5E9F2E035C06DEF71E085E912
:1015D00092E00E94121E6DEF71E080E090E00E94A8
:1015E000121E0E94F41DAA2797FDA095BA2F809382
:1015F000BC029093BD02A093BE02B093BF026DEFF8
:1016000071E080E090E00E94121EC9ECD2E00097E9
:1016100051F00E94F41D88836DEF71E080E090E04E
:101620000E94121E01C01882219622E0C13DD207FD
:1016300071F7C6CF119282E0E53BF807D9F7DF9149
:10164000CF910895813049F46091F6027091F702CC
:101650008091F8029091F9020895823049F46091E6
:10166000F2027091F3028091F4029091F5020895D4
:10167000833049F46091E6027091E7028091E802BC
:101680009091E9020895843049F46091EE027091DE
:10169000EF028091F0029091F1020895853049F4B3
:1016A0006091EA027091EB028091EC029091ED0260
:1016B00008956091E2027091E3028091E4029091BA
:1016C000E50208950F931F930091F6021091F7021F
:1016D0002091F8023091F902601771078207930791
:1016E000D1F10091F2021091F3022091F4023091B5
:1016F000F502601771078207930779F10091E602FE
:101700001091E7022091E8023091E9026017710719
:101710008207930721F10091EE021091EF022091D0
:10172000F0023091F102601771078207930779F098
:101730000091EA021091EB022091EC023091ED024F
:10174000601771078207930721F485E009C084E0E0
:1017500007C080E005C081E003C082E001C083E0F3
:101760001F910F910895882339F0815090912501A0
:10177000899F802D1124089580E00895882321F009
:10178000880F880F880F08958091260108955F9231
:101790006F927F928F929F92AF92BF92CF92DF9281
:1017A000EF92FF920F931F93CF93DF931F92CDB7CA
:1017B000DEB74B015C01622E7E2C49830E94620BD6
:1017C0008093140184E0809315014981411101C087
:1017D00044E1611002C06624639410E0C42ED12C51
:1017E000E12CF12C81E0861510F0502E1BC0502EFC
:1017F0005714D8F72091E2023091E3024091E402BD
:101800005091E502652D70E08AEF92E00E942A0275
:101810008AEF92E00E941001C701B6010E94EE1506
:101820005394E6CF571490F4652D70E0A501940110
:101830008AEF92E00E942A028AEF92E00E94100151
:10184000C701B6010E94EE155394ECCF1F5F16112D
:10185000C9CF0F90DF91CF911F910F91FF90EF9023
:10186000DF90CF90BF90AF909F908F907F906F90C0
:101870005F9008959F92AF92BF92CF92DF92EF92C6
:10188000FF920F931F93CF93DF936B017C01942EF4
:10189000A22E0E94620B8093140181E080931501B7
:1018A000911002C08AE0982EB12CC0E0D0E010E088
:1018B000BE016A0D7B1D6017710740F4A7019601F8
:1018C0008AEF92E00E942A022196F2CF8AEF92E0FC
:1018D0000E941001692D70E080E090E0DF91CF91CF
:1018E0001F910F91FF90EF90DF90CF90BF90AF903E
:1018F0009F900C94EE150F9386E08093140185E081
:10190000809315016091EA027091EB028091EC02E4
:101910009091ED020091260120E044EF0E943A0CE4
:1019200064E670E080E090E00E94EE156091F602BF
:101930007091F7028091F8029091F90200912601CE
:1019400020E044EF0E943A0C64E670E080E090E012
:101950000E94EE156091F2027091F3028091F40200
:101960009091F5020091260120E044EF0E943A0C8C
:1019700064E670E080E090E00E94EE156091E6027F
:101980007091E7028091E8029091E90200912601AE
:1019900020E044EF0E943A0C64E670E080E090E0C2
:1019A0000E94EE156091EE027091EF028091F002BC
:1019B0009091F1020091260120E044EF0E943A0C40
:1019C00064E670E080E090E00E94EE156091E20233
:1019D0007091E3028091E4029091E502009126016A
:1019E00020E044EF0E943A0C0F9108956F927F928D
:1019F0008F929F92AF92BF92CF92DF92EF92FF921F
:101A00000F931F93CF93DF931F92CDB7DEB74B0198
:101A10005C01142FF02E29830E94620B8093140125
:101A200083E0809315012981111101C01EE5211168
:101A300001C021E0612C712CC22ED12C6C147D04CC
:101A4000BCF40E2D2F2D412FC501B4010E943A0C7C
:101A50006091E2027091E3028091E4029091E502CC
:101A60002F2D412F0E943A0C8FEF681A780AE6CF8B
:101A70000F90DF91CF911F910F91FF90EF90DF902A
:101A8000CF90BF90AF909F908F907F906F90089570
:101A90006F927F928F929F92AF92BF92CF92DF927E
:101AA000EF92FF920F931F93CF93DF931F92CDB7C7
:101AB000DEB74B015C01142FF02E29830E94620BCC
:101AC0008093140182E0809315012981111101C0D6
:101AD0001EE5211101C021E0612C712CC22ED12CF8
:101AE0000E2D2F2D412FC501B4016C147D0494F4EB
:101AF0000E943A0C6091E2027091E3028091E4024C
:101B00009091E5022F2D412F0E943A0C8FEF681A19
:101B1000780AE6CF0E943A0C0F90DF91CF911F9187
:101B20000F91FF90EF90DF90CF90BF90AF909F907C
:101B30008F907F906F900895CF92DF92EF92FF92F7
:101B40000F931F93CF93DF9300D000D0CDB7DEB7B4
:101B50008091C1020E94220BC62E182F00912601EF
:101B6000D090C2022091C4024091C502E090C3020D
:101B7000EE2089F08E2D29834A837B839C830E94EB
:101B8000B30BF82E8E2D0E94BE0BE82E29814A81C0
:101B90007B819C8102C0E02EF12CD11002C020E09C
:101BA00005C081E0D81207C00E2D2F2D6C2D812F7E
:101BB0000E943A0C20C0E2E0DE1206C00F2D6C2D10
:101BC000812F0E94480D17C0F3E0DF1206C00F2DD1
:101BD0006C2D812F0E94F60C0EC084E0D81206C036
:101BE0000F2D6C2D812F0E94C70B05C0E5E0DE1282
:101BF00002C00E947B0CC0921401D09215010F907C
:101C00000F900F900F90DF91CF911F910F91FF9048
:101C1000EF90DF90CF9008951F93CF93DF93182F0D
:101C2000C82FD0E0FE01E35FFE4F80810E94E916DD
:101C3000FE01EA54FD4F90819817E9F09091170149
:101C4000813061F4808321E030E0012E01C0220F59
:101C50000A94EAF7292B2093170111C0108221E082
:101C600030E0012E01C0220F0A94EAF720952923C3
:101C70002093170103C081E0913009F080E0DF91EB
:101C8000CF911F910895EF920F931F93CF93DF93FE
:101C900026E040E052EC61E070E087E193E00E94D2
:101CA000F51740E855E260E070E085E792E00E94B9
:101CB000160A68E371E087E193E00E9458194091A9
:101CC0001F015091200160912101709122012AE0B1
:101CD00030E087E193E00E94481A61E080910C01B6
:101CE0000E947A1661E080910C010E94B31661E0B7
:101CF00080910B010E947A1660E080910B010E9496
:101D0000B31661E080910A010E947A1660E080912A
:101D10000A010E94B31662E471E087E193E00E9439
:101D200077198AEF92E00E94B3008AEF92E00E9456
:101D300010010E947B0C6091F6027091F702809175
:101D4000F8029091F9020091260120E040E00E9403
:101D50003A0C60E571E087E193E00E947719CDE0ED
:101D6000D1E010E08881833609F453C062E00E941C
:101D70007A1660E671E087E193E00E9458194AE024
:101D800050E0688187E193E00E94411A65E671E0C6
:101D900087E193E00E945819812F0E940C0E682F52
:101DA00070E04AE050E087E193E00E942C1A812F16
:101DB0000E940C0E811112C06091F2027091F30228
:101DC0008091F4029091F50258E0E52E00E020E0C9
:101DD00040E00E94C70B69E671E011C06091E60225
:101DE0007091E7028091E8029091E90248E0E42EC8
:101DF00000E020E040E00E94C70B6FE671E087E161
:101E000093E00E9477196AEF70E080E090E00E9412
:101E1000EE1521961F5F163009F0A4CF6AE771E036
:101E200087E193E00E9477196BE871E087E193E026
:101E30000E94581968E081ED92E00E94F705811137
:101E40006CC06091F2027091F3028091F402909163
:101E5000F50230E1E32E0091250120E040E00E94F0
:101E6000C70B6CE671E087E193E00E9477190FE100
:101E700010E020E030E040E060E081ED92E00E9480
:101E800012060FE110E020E030E040E061E081ED7B
:101E900092E00E94120600911F01109120012091F2
:101EA00021013091220140E060E081ED92E00E944A
:101EB000660600911F0110912001209121013091AF
:101EC000220140E062E081ED92E00E9466066DE949
:101ED00071E087E193E00E94771961EC71E087E19E
:101EE00093E00E94771960ED77E080E090E00E9437
:101EF000EE156091E2027091E3028091E40290910C
:101F0000E5020091260120E040E00E943A0CDF91BA
:101F1000CF911F910F91EF90089560ED71E087E1EF
:101F200093E00E9477196091E6027091E702809138
:101F3000E8029091E90220E1E22E0091250120E0E3
:101F400040E00E94C70B70CF1F93CF93DF93CDE08B
:101F5000D1E010E08991833619F0812F0E940C0E98
:101F60001F5F1630B9F7DF91CF911F910895EF925F
:101F70000F9390916F028FEF890F873008F459C04B
:101F800080917302983079F5882309F452C06091EA
:101F9000EE027091EF028091F0029091F102E090D8
:101FA000260100E021E040E00E94C70B6091E602BC
:101FB0007091E7028091E8029091E902E090260199
:101FC00021E040E00E94C70B6091E2027091E302C1
:101FD0008091E4029091E502E090260121E040E04A
:101FE0000E94C70B24C0882321F110926C0210922A
:101FF0006B0210926E0210926D02109268021092A3
:10200000670210926A02109269026091E202709176
:10201000E3028091E4029091E5020091260120E024
:1020200040E00E943A0C109274020E94A40F109299
:1020300073020F91EF900895CF92EF92FF920F935A
:102040001F93CF93DF9300D000D0CDB7DEB78823A6
:1020500051F049835A836B837C830E94A40F7C8157
:102060006B815A81498180911F0190912001A0913B
:102070002101B0912201481759076A077B0729F10E
:10208000E5E0880F991FAA1FBB1FEA95D1F7842BA3
:10209000952BA62BB72BF2E0CF2E13E1E12E11E00A
:1020A000F12E08E020E0AC01BD0181ED92E00E943C
:1020B000B7070F900F900F900F90DF91CF911F9166
:1020C0000F91FF90EF90CF90089540911B01509198
:1020D0001C0160911D0170911E012AE030E087E132
:1020E00093E00E94341A6DEF71E087E193E00E9463
:1020F000581903E111E0F1E00B311F0781F0F801FD
:1021000061918F014AE050E087E193E00E94411A1B
:102110006DEF71E087E193E00E945819ECCF87E101
:1021200093E00F900F900F900F90DF91CF911F9140
:102130000F91FF90EF90CF900C946119EF920F9355
:1021400090916F0280917302913029F5882309F4F0
:1021500090C06091F6027091F7028091F802909120
:10216000F902E090260100E021E040E00E94C70B68
:102170006091EA027091EB028091EC029091ED0285
:10218000E090260121E040E00E94C70B109273020C
:10219000109272026EC0923019F5882309F469C05A
:1021A000109273021092720280916D0290916E02F1
:1021B000019690936E0280936D0280931A01809134
:1021C0006B028093190140911B0150911C01609199
:1021D0001D0170911E0180E00F91EF900C941C1076
:1021E0009730E9F4882309F444C040911B015091D1
:1021F0001C0160911D0170911E0180E00E941C1065
:102200006091E2027091E3028091E4029091E50214
:102210000091260120E040E00E943A0C28C088236B
:1022200041F110926C0210926B0210926E021092A9
:102230006D02109268021092670210926A02109268
:10224000690210921A01109219016091E2027091D4
:10225000E3028091E4029091E5020091260120E0E2
:1022600040E00E943A0C109274020E94A40F109257
:1022700073020F91EF900895EF920F9390916F0278
:1022800080917302913029F5882309F493C06091FD
:10229000F6027091F7028091F8029091F902E090B5
:1022A000260100E021E040E00E94C70B6091E602B9
:1022B0007091E7028091E8029091E902E090260196
:1022C00021E040E00E94C70B10927302109272024C
:1022D00071C0923031F5882321F010927302109270
:1022E000720280916D0290916E028F3F91050CF009
:1022F00061C0019690936E0280936D0280931A01E3
:1023000080916B028093190140911B0150911C0137
:1023100060911D0170911E0180E00F91EF900C946F
:102320001C109730E9F4882309F444C040911B0144
:1023300050911C0160911D0170911E0180E00E946E
:102340001C106091E2027091E3028091E40290918E
:10235000E5020091260120E040E00E943A0C28C0EE
:10236000882341F110926C0210926B0210926E025F
:1023700010926D02109268021092670210926A0227
:102380001092690210921A01109219016091E202F2
:102390007091E3028091E4029091E50200912601A0
:1023A00020E040E00E943A0C109274020E94A40FB8
:1023B000109273020F91EF9008950F931F93009165
:1023C0001F01109120012091210130912201809163
:1023D000BC029091BD02A091BE02B091BF028017D5
:1023E0009107A207B30761F081ED92E00E942808EF
:1023F000F5E09695879577956795FA95D1F702C0A0
:10240000BC01CD011F910F910895EF920F93CF93CF
:10241000C82F6BE871E087E193E00E9458196C2F98
:1024200081ED92E00E94F705811121C00091250104
:10243000000F6091F2027091F3028091F40290918A
:10244000F502B8E1EB2E20E040E00E94C70B4AE025
:1024500050E06C2F87E193E00E94411A69E671E039
:1024600087E193E0CF910F91EF900C94771960ED95
:1024700071E087E193E00E94771900912501000F38
:102480006091E6027091E7028091E8029091E90282
:10249000A8E1EA2E20E040E00E94C70BCF910F9107
:1024A000EF900895CF93DF938091C002811109C00E
:1024B0000E94DD11AB01BC0181E0DF91CF910C9452
:1024C0001C10813021F4DF91CF910C949C0D82304F
:1024D00061F48091C10280936F0291E09093730246
:1024E000109272028093160110C19DEF980F9230E6
:1024F00008F40BC1853071F58091670290916802F4
:10250000019690936802809367020E94DD11AB01EF
:10251000BC012AE030E087E193E00E94341A6DEFBD
:1025200071E087E193E00E945819C0ECD2E082E0AC
:10253000C83CD80709F4A8C069914AE050E087E197
:1025400093E00E94411A6DEF71E087E193E00E94F1
:102550005819EDCF8630A1F49091C1029093710289
:102560008091C20280937002963011F40E9405128D
:1025700080917102893009F085E080931301C5C014
:10258000893009F087C080916702909168020196B6
:1025900090936802809367020E94DD11AB01BC0139
:1025A0002AE030E087E193E00E94341A6DEF71E099
:1025B00087E193E00E9458196AEF71E087E193E0A8
:1025C0000E9458196DEF71E087E193E00E9458195D
:1025D0006091690270916A024AE050E087E193E0FD
:1025E0000E942C1A6DEF71E087E193E00E94581968
:1025F00060916702709168024AE050E087E193E0E1
:102600000E942C1A6DEF71E087E193E00E94581947
:1026100060916B0270916C024AE050E087E193E0B8
:102620000E942C1A6DEF71E087E193E00E94581927
:1026300060916D0270916E024AE050E087E193E094
:102640000E942C1A6DEF71E087E193E00E94581907
:102650004AE050E06091C60287E193E00E94411A8F
:102660006DEF71E087E193E00E9458194AE050E075
:102670006091C70287E193E00E94411A6DEF71E01B
:1026800087E193E00E94581987E193E0DF91CF91B1
:102690000C946119843629F561E080910B010E9448
:1026A000B31664E670E080E090E00E94EE1560E012
:1026B00080910B010E94B31664E670E080E090E028
:1026C0000E94EE1561E080910B010E94B31664E652
:1026D00070E080E090E00E94EE1560E080910B01D8
:1026E00010C0853691F461E080910A010E94B31612
:1026F00068EE73E080E090E00E94EE1560E080916B
:102700000A01DF91CF910C94B316DF91CF91089518
:102710006091260170E023E0409127018AEF92E06A
:102720000E94050240E060E0809124010E94720254
:102730006093F6027093F7028093F8029093F90287
:1027400040E06091240180E00E9472026093F202F6
:102750007093F3028093F4029093F5024091240168
:1027600060E080E00E9472026093EE027093EF02DC
:102770008093F0029093F10280912401482F682FFA
:102780000E9472026093EA027093EB028093EC0263
:102790009093ED028091240140E0682F0E94720224
:1027A0006093E6027093E7028093E8029093E90257
:1027B00040E060E080E00E9472026093E202709369
:1027C000E3028093E4029093E5026091230181ED9E
:1027D00092E00E94E90520E0409106016091080125
:1027E00085E792E00C94E60985E792E00E948D0966
:1027F0008AEF92E00C949F00EF92FF920F931F9349
:10280000CF93DF93CDB7DEB762970FB6F894DEBFF4
:102810000FBECDBF81ED92E00E9420088330A1F46D
:1028200040EC52E068EC72E081ED92E00E94EA0731
:1028300080916B0290916C02019690936C02809350
:102840006B020E945212E6CF80919402882309F411
:1028500098C0109294028091BC029091BD02A09108
:10286000BE02B091BF0240911F01509120016091C2
:1028700021017091220184179507A607B70769F413
:10288000E9ECF2E0A0ECB2E081918D9382E0E13DD1
:10289000F807D1F70E94521274C020916D02309156
:1028A0006E022F5F3F4F30936E0220936D02853191
:1028B0009105A105B10508F44FC06CEF71E0CE01A0
:1028C0000D960E94C81A4091BC025091BD026091C1
:1028D000BE027091BF022AE0CE0107960E94231B20
:1028E000BE01695F7F4FCE010D960E947C1B6DEF8C
:1028F00071E0CE010D960E94831B09EC12E0F801F5
:1029000061918F014AE0CE0101960E94F61ABE0144
:102910006F5F7F4FCE010D960E947C1BCE0101960A
:102920000E945A1A6DEF71E0CE010D960E94831B32
:10293000F2E0013D1F0719F7BE01635F7F4F85E796
:1029400092E00E946519CE0107960E945A1ACE01A4
:102950000D960E945A1A15C005E0440F551F661FB8
:10296000771F0A95D1F7482B592B6A2B7B2B89ECC3
:10297000E82E82E0F82E08E020E081ED92E00E944F
:10298000A70704E211E087E193E00E941217892B68
:1029900061F187E193E00E942B17843229F4809340
:1029A00095021093B502EFCF009395028A3071F42F
:1029B0008091690290916A02019690936A028093D5
:1029C00069020E94DA0A10939402DDCFE091B50209
:1029D000AE2FB0E0AB56BD4F8C93EF5FE093B502E6
:1029E000F0E0EB56FD4F1082CECF14E2F12EEE2434
:1029F000E39485E792E00E94BC08892B09F462C049
:102A000085E792E00E942E08843229F48093950293
:102A1000E092B502EECFF09295028A3009F043C001
:102A200080916B0290916C02019690936C0280935E
:102A30006B020E94DA0A8091670290916802019607
:102A400090936802809367024091BC025091BD024E
:102A50006091BE027091BF022AE030E087E193E00E
:102A60000E94341A6DEF71E087E193E00E945819DB
:102A700009EC12E0F2E0013D1F0781F0F8016191DD
:102A80008F014AE050E087E193E00E94411A6DEF28
:102A900071E087E193E00E945819ECCF87E193E061
:102AA0000E946119A6CFE091B502AE2FB0E0AB56FF
:102AB000BD4F8C93EF5FE093B502F0E0EB56FD4F16
:102AC000108297CF80917102893061F480917002F9
:102AD000853019F40E949E1007C0863029F40E94A8
:102AE0003C1102C00E94B70F62960FB6F894DEBF89
:102AF0000FBECDBFDF91CF911F910F91FF90EF904F
:102B000008951F920F920FB60F9211242F933F93A7
:102B10008F939F93AF93BF9380910F039091100376
:102B2000A0911103B091120330910E0323E0230F03
:102B30002D3720F40196A11DB11D05C026E8230FF5
:102B40000296A11DB11D20930E0380930F03909355
:102B50001003A0931103B09312038091130390917B
:102B60001403A0911503B09116030196A11DB11D88
:102B70008093130390931403A0931503B09316034B
:102B8000BF91AF919F918F913F912F910F900FBE69
:102B90000F901F9018953FB7F89480911303909170
:102BA0001403A0911503B091160326B5A89B05C088
:102BB0002F3F19F00196A11DB11D3FBF6627782F49
:102BC000892F9A2F620F711D811D911D42E0660FA2
:102BD000771F881F991F4A95D1F70895CF92DF92EA
:102BE000EF92FF92CF93DF936B017C010E94CB1594
:102BF000EB01C114D104E104F10489F00E94931B9C
:102C00000E94CB156C1B7D0B683E734090F381E0F6
:102C1000C81AD108E108F108C851DC4FEACFDF91AA
:102C2000CF91FF90EF90DF90CF900895789484B586
:102C3000826084BD84B5816084BD85B5826085BDB8
:102C400085B5816085BDEEE6F0E08081816080839E
:102C5000E1E8F0E010828081826080838081816081
:102C60008083E0E8F0E0808181608083E1EBF0E048
:102C7000808184608083E0EBF0E0808181608083EC
:102C8000EAE7F0E0808184608083808182608083D5
:102C90008081816080838081806880831092C10000
:102CA0000895833081F028F4813099F08230A1F0CA
:102CB00008958730A9F08830B9F08430D1F480913C
:102CC00080008F7D03C0809180008F77809380008B
:102CD000089584B58F7702C084B58F7D84BD089533
:102CE0008091B0008F7703C08091B0008F7D80937A
:102CF000B0000895CF93DF9390E0FC01E256FF4FC0
:102D00002491FC01EE54FF4F8491882349F190E017
:102D1000880F991FFC01E652FF4FA591B491805393
:102D20009F4FFC01C591D4919FB7611108C0F894E1
:102D30008C91209582238C93888182230AC06230F3
:102D400051F4F8948C91322F309583238C938881A1
:102D5000822B888304C0F8948C91822B8C939FBF24
:102D6000DF91CF9108950F931F93CF93DF931F921D
:102D7000CDB7DEB7282F30E0F901E657FF4F849139
:102D8000F901E256FF4F1491F901EE54FF4F0491FF
:102D90000023C9F0882321F069830E9451166981BC
:102DA000E02FF0E0EE0FFF1FE053FF4FA591B4912D
:102DB0009FB7F8948C91611103C01095812301C0D5
:102DC000812B8C939FBF0F90DF91CF911F910F911B
:102DD0000895CF93DF93282F30E0F901E657FF4F96
:102DE0008491F901E256FF4FD491F901EE54FF4F5F
:102DF000C491CC2391F081110E945116EC2FF0E088
:102E0000EE0FFF1FEA53FF4FA591B4912C912D2394
:102E100081E090E021F480E002C080E090E0DF916A
:102E2000CF910895FC01818D228D90E0805C9F4FB1
:102E3000821B91098F7399270895FC01918D828DD2
:102E4000981731F0828DE80FF11D858D90E008957F
:102E50008FEF9FEF0895FC01918D828D981761F09F
:102E6000828DDF01A80FB11D5D968C91928D9F5FC1
:102E70009F73928F90E008958FEF9FEF08958FEAF0
:102E800098E1892B49F080E090E0892B29F00E949D
:102E9000AF1881110C9400000895FC01848DDF01AE
:102EA000A80FB11DA35ABF4F2C91848D90E00196BD
:102EB0008F739927848FA689B7892C93A089B189AC
:102EC0008C9180648C93938D848D981306C00288B6
:102ED000F389E02D80818F7D80830895CF93DF93E8
:102EE000EC01888D8823C9F0EA89FB89808185FD02
:102EF00005C0A889B9898C9186FD0FC00FB607FC63
:102F0000F5CF808185FFF2CFA889B9898C9185FFA3
:102F1000EDCFCE010E944D17E7CFDF91CF910895FD
:102F2000CF92DF92FF920F931F93CF93DF931F9265
:102F3000CDB7DEB76C0181E0D60158968C935897D7
:102F40005B969C915B975C968C915C97981307C0FD
:102F50005096ED91FC915197808185FD2EC0F60130
:102F6000038D10E00F5F1F4F0F731127F02EF60136
:102F7000848DF81211C00FB607FCF9CFD601509618
:102F8000ED91FC915197808185FFF1CFC601698356
:102F90000E944D176981EBCF838DE80FF11DE35A35
:102FA000FF4F6083D6015B960C935B975296ED9131
:102FB000FC915397808180620CC0D6015696ED91AA
:102FC000FC91579760835096ED91FC9151978081C9
:102FD0008064808381E090E00F90DF91CF911F911A
:102FE0000F91FF90DF90CF900895BF92CF92DF9224
:102FF000EF92FF92CF93DF93EC016A017B01B22E37
:10300000E889F98982E08083411581EE58076105DE
:103010007105A1F060E079E08DE390E0A7019601F1
:103020000E94BC1B21503109410951095695479511
:1030300037952795211580E1380798F0E889F989B7
:10304000108260E874E88EE190E0A70196010E948A
:10305000BC1B2150310941095109569547953795B7
:103060002795EC85FD853083EE85FF852083188EBE
:10307000EC89FD89B082EA89FB8980818061808347
:10308000EA89FB89808188608083EA89FB89808165
:1030900080688083EA89FB8980818F7D8083DF91CE
:1030A000CF91FF90EF90DF90CF90BF9008951F9247
:1030B0000F920FB60F9211242F938F939F93EF933C
:1030C000FF93E0912703F09128038081E0912D0385
:1030D000F0912E0382FD12C09081809130038F5FAA
:1030E0008F7320913103821751F0E0913003F0E0AB
:1030F000E95EFC4F958F8093300301C08081FF9182
:10310000EF919F918F912F910F900FBE0F901F9075
:1031100018951F920F920FB60F9211242F933F9381
:103120004F935F936F937F938F939F93AF93BF93CF
:10313000EF93FF9387E193E00E944D17FF91EF918A
:10314000BF91AF919F918F917F916F915F914F91BF
:103150003F912F910F900FBE0F901F90189587E110
:1031600093E00E94121721E0892B09F420E0822FBE
:10317000089510921A031092190388EE93E0A0E0CC
:10318000B0E080931B0390931C03A0931D03B093A6
:103190001E0383E092E0909318038093170385EC5D
:1031A00090E0909324038093230384EC90E0909329
:1031B00026038093250380EC90E09093280380936E
:1031C000270381EC90E090932A038093290382ECFB
:1031D00090E090932C0380932B0386EC90E09093E7
:1031E0002E0380932D03109230031092310310921E
:1031F000320310923303089508950E9416160E9418
:10320000FC180E94430ECFE3D7E10E94FC132097E5
:10321000E1F30E943F17F9CFCF92DF92EF92FF9236
:103220000F931F93CF93DF937C016A01EB0100E0C2
:1032300010E00C151D0571F06991D701ED91FC911D
:103240000190F081E02DC7010995892B19F00F5FDE
:103250001F4FEFCFC801DF91CF911F910F91FF90CA
:10326000EF90DF90CF9008956115710581F0DB013B
:103270000D900020E9F7AD0141505109461B570B55
:10328000DC01ED91FC910280F381E02D099480E056
:1032900090E00895DC01ED91FC91DB0114964D91D5
:1032A0005C9115976D917C910280F381E02D0994DA
:1032B0000C943419DC01ED91FC910190F081E02D2A
:1032C00009946FE072E00C9434190F931F93CF931D
:1032D000DF93EC010E944A198C01CE010E94611912
:1032E000800F911FDF91CF911F910F9108950F9340
:1032F0001F93CF93DF93EC010E9434198C01CE0110
:103300000E946119800F911FDF91CF911F910F9142
:1033100008958F929F92AF92BF92CF92DF92EF92D9
:10332000FF920F931F93CF93DF93CDB7DEB7A19793
:103330000FB6F894DEBF0FBECDBF7C01C42EE52FC3
:10334000CB01D22E19A221E02D1510F02AE0D22EA9
:103350008E010F5D1F4F8D2C912CA12CB12C6C2D4B
:103360007E2FA50194010E94BC1B8C2DD29E80193A
:103370001124015011098A3014F4805D01C0895C68
:10338000F8018083211531054105510521F0C22E38
:10339000E32FCA01E4CFB801C7010E943419A196F6
:1033A0000FB6F894DEBF0FBECDBFDF91CF911F9156
:1033B0000F91FF90EF90DF90CF90BF90AF909F90D4
:1033C0008F900895CF92DF92EF92FF920F931F9309
:1033D000CF93DF93EC016A017B012115310579F46C
:1033E000E881F9810190F081E02D642FDF91CF9188
:1033F0001F910F91FF90EF90DF90CF9009942A30AA
:103400003105E9F477FF1AC06DE20E945A198C0168
:1034100044275527BA014C195D096E097F092AE036
:10342000CE010E948919800F911FDF91CF911F91CA
:103430000F91FF90EF90DF90CF9008952AE0B701B1
:10344000A601CE01DF91CF911F910F91FF90EF90D8
:10345000DF90CF900C9489199A01AB01662757FD34
:103460006095762F0C94E2192115310541F4DC01A9
:10347000ED91FC910190F081E02D642F09940C9462
:1034800089199A01462F50E060E070E00C94341ADC
:103490000F931F93CF93DF93EC010E94341A8C019A
:1034A000CE010E946119800F911FDF91CF911F9172
:1034B0000F910895FC01808191810C949B1CCF9306
:1034C000DF93EC0188819981009711F00E949B1C89
:1034D000198218821D821C821B821A82DF91CF9171
:1034E00008950F931F93CF93DF93EC018B016F5FD0
:1034F0007F4F888199810E942A1D009731F099831E
:1035000088831B830A8381E001C080E0DF91CF9133
:103510001F910F910895CF93DF93EC0188819981DA
:10352000892B29F08A819B818617970760F4CE0149
:103530000E94711A882341F08C819D81892B19F496
:10354000E881F981108281E0DF91CF910895EF92B7
:10355000FF920F931F93CF93DF93EC017B018A01BE
:10356000BA010E948B1A811104C0CE010E945F1A19
:1035700007C01D830C83B701888199810E94271E93
:10358000CE01DF91CF911F910F91FF90EF900895A1
:10359000FC0111821082138212821582148261153D
:1035A000710559F0FB0101900020E9F7AF0141508E
:1035B0005109461B570B0C94A71A0895CF93DF931C
:1035C000EC016115710561F0FB0101900020E9F744
:1035D000AF0141505109461B570B0E94A71A02C068
:1035E0000E945F1ACE01DF91CF9108950F931F9330
:1035F000CF93DF93CDB7DEB729970FB6F894DEBF30
:103600000FBECDBF8C01862FF8011182108213826C
:1036100012821582148250E0BE016F5F7F4F90E0EE
:103620000E948A1EBE016F5F7F4FC8010E94DE1A92
:1036300029960FB6F894DEBF0FBECDBFDF91CF91B4
:103640001F910F9108950F931F93CF93DF93CDB7E1
:10365000DEB7A1970FB6F894DEBF0FBECDBF8C01C9
:10366000CB01BA01F80111821082138212821582F5
:10367000148230E0AE014F5F5F4F0E945D1EBE01BD
:103680006F5F7F4FC8010E94DE1AA1960FB6F894B3
:10369000DEBF0FBECDBFDF91CF911F910F91089577
:1036A000EF92FF920F931F93CF93DF93EC017B0177
:1036B0000C811D816115710511F480E016C0411562
:1036C000510591F0040F151FB8010E948B1A882331
:1036D000A1F3288139818C819D81B701820F931FCD
:1036E0000E94271E1D830C8381E0DF91CF911F91E3
:1036F0000F91FF90EF900895FB0144815581608107
:1037000071810C94501B6115710559F0FB010190FA
:103710000020E9F7AF0141505109461B570B0C94AB
:10372000501B80E008950895AA1BBB1B51E107C000
:10373000AA1FBB1FA617B70710F0A61BB70B881F41
:10374000991F5A95A9F780959095BC01CD010895D0
:1037500097FB072E16F4009407D077FD09D00E943E
:10376000941B07FC05D03EF4909581959F4F0895DA
:10377000709561957F4F0895A1E21A2EAA1BBB1B7D
:10378000FD010DC0AA1FBB1FEE1FFF1FA217B3072D
:10379000E407F50720F0A21BB30BE40BF50B661F43
:1037A000771F881F991F1A9469F760957095809507
:1037B00090959B01AC01BD01CF010895052E97FBAB
:1037C0001EF400940E94F51B57FD07D00E94BC1BFD
:1037D00007FC03D04EF40C94F51B509540953095A2
:1037E00021953F4F4F4F5F4F08959095809570956D
:1037F00061957F4F8F4F9F4F0895EE0FFF1F0590EC
:10380000F491E02D0994CF93DF938230910510F469
:1038100082E090E0E091B603F091B70320E030E061
:10382000A0E0B0E0309739F1408151814817590745
:10383000B8F04817590771F482819381109729F0E5
:1038400013969C938E9312972CC09093B7038093FA
:10385000B60327C02115310531F04217530718F080
:10386000A901DB0101C0EF019A01BD01DF01028066
:10387000F381E02DD7CF21153105F9F0281B390B45
:103880002430310580F48A819B816115710521F016
:10389000FB019383828304C09093B7038093B603A4
:1038A000FE01329644C0FE01E20FF31F8193919313
:1038B00022503109398328833AC02091B4033091D2
:1038C000B503232B41F42091020130910301309381
:1038D000B5032093B403209100013091010121151B
:1038E000310541F42DB73EB74091040150910501D7
:1038F000241B350BE091B403F091B503E217F307F5
:10390000A0F42E1B3F0B2817390778F0AC014E5F4F
:103910005F4F2417350748F04E0F5F1F5093B503D4
:103920004093B4038193919302C0E0E0F0E0CF01B3
:10393000DF91CF910895CF93DF93009709F487C06B
:10394000FC01329713821282C091B603D091B70363
:10395000209781F420813181280F391F8091B40391
:103960009091B5038217930779F5F093B503E0932F
:10397000B4036DC0DE0120E030E0AE17BF0750F4A5
:1039800012964D915C9113979D014115510509F1D6
:10399000DA01F3CFB383A28340815181840F951F55
:1039A0008A179B0771F48D919C911197840F951F35
:1039B00002969183808312968D919C9113979383A5
:1039C00082832115310529F4F093B703E093B60300
:1039D0003EC0D9011396FC93EE9312974D915D91E1
:1039E000A40FB51FEA17FB0779F480819181840F3A
:1039F000951F0296D90111969C938E938281938193
:103A000013969C938E931297E0E0F0E08A819B815D
:103A1000009719F0FE01EC01F9CFCE010296288142
:103A20003981820F931F2091B4033091B503281779
:103A3000390769F4309729F41092B7031092B6034E
:103A400002C013821282D093B503C093B403DF91F6
:103A5000CF910895A0E0B0E0E0E3FDE10C94C31E37
:103A6000EC01CB01209719F40E94031CB8C0FE01A1
:103A7000E60FF71F9E0122503109E217F30708F401
:103A8000ACC0D9010D911C91119706171707B8F01A
:103A90000530110508F49FC0A8014450510946178C
:103AA000570708F498C002501109061B170B019321
:103AB00011936D937C93CF010E949B1C8CC05B0182
:103AC000A01AB10A4E01800E911EA091B603B091CA
:103AD000B703612C712C60E070E0109709F449C0C5
:103AE000A815B905C9F5ED90FC901197670142E062
:103AF000C40ED11CCA14DB0478F147018A189B0854
:103B0000640142E0C40ED11C1296BC901297139629
:103B1000AC91B5E0CB16D10440F0B282A383918280
:103B20008082D9018D939C9309C00E5F1F4F0E0DAB
:103B30001F1DF90111830083EB2DFA2F611571050B
:103B400031F0DB011396FC93EE93129744C0F0938F
:103B5000B703E093B6033FC06D917C911197661651
:103B6000770608F43B01BD0112960D90BC91A02D83
:103B7000B4CF6091B4037091B50368157905E9F489
:103B800068167906D0F44091000150910101411569
:103B9000510541F44DB75EB7609104017091050184
:103BA000461B570BE417F507C0F4F093B503E093F9
:103BB000B403F901918380830EC00E94031C7C0131
:103BC000009759F0A801BE010E94171ECE010E9465
:103BD0009B1CC70104C0CE0102C080E090E0CDB7BD
:103BE000DEB7EEE00C94DF1EFC0188279927E894ED
:103BF00021912032E9F3293010F02E30C8F32B3216
:103C000041F02D3239F4689404C00E94551E820F91
:103C1000911D219120532A30C0F31EF49095819577
:103C20009F4F089540E252E00E942E1E0895FB012E
:103C3000DC0102C001900D9241505040D8F7089528
:103C4000DC0101C06D9341505040E0F70895FB0145
:103C5000DC0101900D920020E1F70895FA01A19195
:103C6000B081009719F41097E1F0CD01DC01CD018E
:103C70000D90002011F4C00113C0FB0121912223FB
:103C800019F02015D9F7F3CFFB012191201519F474
:103C90001E92119606C02223C1F70D900020A1F7B5
:103CA000D001FA01A193B08308957AE0979F902DF7
:103CB000879F802D910D112408952532310520F420
:103CC000223010F00C94681EFA011082CA01089587
:103CD000BB27FA01A62F6217710581059105330BE9
:103CE00030FB66F0AA27660F771F881F991FAA1F4F
:103CF000A21710F0A21B63953850A9F7A05DAA3354
:103D000008F0A95DA19336F7B111B1931082CA01F1
:103D10000C94AF1E4532510520F4423010F00C9443
:103D2000951EFB011082CB010895BB27FB0155278F
:103D3000AA27880F991FAA1FA41710F0A41B839508
:103D40005051B9F7A05DAA3308F0A95DA19300977F
:103D500079F7B111B1931192CB010C94AF1EDC0134
:103D6000FC01672F71917723E1F7329704C07C91B2
:103D70006D9370836291AE17BF07C8F308952F92B9
:103D80003F924F925F926F927F928F929F92AF92EB
:103D9000BF92CF92DF92EF92FF920F931F93CF9338
:103DA000DF93CDB7DEB7CA1BDB0B0FB6F894DEBFCF
:103DB0000FBECDBF09942A88398848885F846E84F5
:103DC0007D848C849B84AA84B984C884DF80EE803F
:103DD000FD800C811B81AA81B981CE0FD11D0FB648
:103DE000F894DEBF0FBECDBFED01089510E0C8EE20
:103DF000D0E004C0FE010E94FF1B2296CA3ED107FC
:063E0000C9F7F894FFCFA2
:103E06000000B80380000200030005040D6363632D
:103E160063636305000000000000001F0000001F30
:103E26000000000919082008000000004F080C19BE
:103E3600BC082E08A208A1084E6F64652049443AC2
:103E460020004E656F706978656C20546573740048
:103E56002D2D2D2D2D496E707574732D2D2D2D0044
:103E660050696E2300203D2000202D204F4B00205E
:103E76002D2050524553534544002D2D2D2D2D43B5
:103E8600616E204275732D2D2D2D0043414E2D421E
:103E9600555320537461727475703A200043414E35
:103EA6002D42555320436F6D6D756E69636174695C
:103EB6006F6E3A20436F6D6D616E64204E6F646560
:103EC600002D2D2D2D2D584265652D2D2D2D2D00C6
:103ED6004E6F7420476F6F642C20636865636B2098
:103EE600796F75722070696E2320616E6420636F2E
:103EF6006E6E656374696F6E73003900242C000062
:103F060000000090170C1912172B171D176E170DAE
:103F16000A006E616E00696E66006F7666002E009E
:00000001FF
