:100000000C9475000C949D000C949D000C941309A5
:100010000C9413090C9413090C949D000C949D00EE
:100020000C949D000C949D000C949D000C949D00DC
:100030000C949D000C949D000C949D000C949D00CC
:100040000C94B7150C949D000C948D180C94BF184B
:100050000C949D000C949D000C949D000C949D00AC
:100060000C949D000C949D00EF03F303B903BC03B3
:10007000BF03C303C703CA03CE03D103D403D7030B
:10008000DA03DE03E203E603E903000000080002EE
:10009000010000030407000000000000000001024E
:1000A0000408102040800102040810200102040806
:1000B00010200404040404040404020202020202E4
:1000C00003030303030300000000230026002900AC
:1000D00000000000250028002B0000000000240084
:1000E00027002A00B513EF18211411241FBECFEFEB
:1000F000D8E0DEBFCDBF12E0A0E0B1E0E8EFFEE364
:1001000002C005900D92AC32B107D9F723E0ACE202
:10011000B2E001C01D92A43BB207E1F710E0C8EEC7
:10012000D0E004C02297FE010E94781CC43ED10793
:10013000C9F70E9433190C946F1F0C940000CF93E1
:10014000DF93EC0188859985009711F00E94141DBA
:100150008D8187FD05C060E0DF91CF910C94B016D2
:10016000DF91CF910895CF93DF93EC018D8187FDCF
:1001700007C061E00E94B01660E08D810E94E91620
:1001800081E08883DF91CF910895EF92FF920F93E2
:100190001F93CF93DF93EC017B01888599850097AE
:1001A00011F00E94141D8701000F111F0E0D1F1D5D
:1001B0001C830B83C8010E947C1C99878887009749
:1001C00041F0A80160E070E00E94991EFA82E98285
:1001D00004C01C821B821A821982DF91CF911F9169
:1001E0000F91FF90EF900895FC01668360FF04C0BB
:1001F00081E08287138611C062FF06C081E082879A
:1002000082E0838714860895128663FF04C082E02B
:10021000838781E003C081E0838782E0848708953B
:10022000CF92DF92EF92FF920F931F93CF93DF93C2
:10023000CDB7DEB729970FB6F894DEBF0FBECDBF9E
:100240008C01DC0118968D919C911997892B09F4EA
:100250009BC00E940116F801C584D684E784F0880B
:100260006C197D098E099F0962337105810591051D
:1002700080F3F894838194819A838983A085B185E2
:100280007D01EFEFEE1AFE0A8C918987D801169650
:100290009C91169751960D90BC91A02DF8018389E1
:1002A00091FF2EC09C91982B98879C9180958923D3
:1002B0008F838F818E8388E08D8358856F814985F8
:1002C0003D812E8189819A81F7015C9347FD252F1D
:1002D0003A952C93262F39F0441F00C000006C93F0
:1002E000000000C0F2CF38E041916C93000001970C
:1002F00061F7F801B28BA18B49873D832E8338C00B
:100300009C91982B98879C91809589238F838F81CE
:100310008C8388E08B8358856F8149853B812C8154
:1003200089819A81F7015C9347FD252F00C000C0A9
:100330002C9300C000C000C000C000C06C9300003F
:10034000262F3A9541F0441F000000C000C000C0B5
:1003500000C000C0E8CF38E0419100C06C9300C0FD
:10036000019709F7F801B28BA18B49873B832C8356
:100370009A83898378940E940116D8011D966D9303
:100380007D938D939C93509729960FB6F894DEBF7A
:100390000FBECDBFDF91CF911F910F91FF90EF90D6
:1003A000DF90CF9008951F93CF93DF93EC01162F2A
:1003B0008881882331F08D8187FD03C060E00E9431
:1003C000B0161D838881882341F061E0812F0E944F
:1003D000B01660E0812F0E94E916812F90E0FC01A9
:1003E000EE54FF4FE491F0E0EE0FFF1FE053FF4F9C
:1003F000259134913A8B298BFC01E256FF4F849171
:100400008B8BDF91CF911F9108950F931F93CF9303
:10041000DF9300D0CDB7DEB78C01FC0110821782CC
:1004200011861086158616861786108A2A834983B8
:100430000E94C5004981642FC8010E94D3012A810E
:10044000622FC8010F900F90DF91CF911F910F91F4
:100450000C94F400CF92DF92EF92FF920F931F93D0
:10046000CF93DF93FC01818192816817790788F52A
:10047000CA01AA27BB27082FC32ED42EE52EFF249E
:100480001C2DD22FC781CC2361F08C9FC001112479
:10049000092FCC9E600111241D2D2C9F9001112449
:1004A000D32F9B01220F331F260F371F8085918585
:1004B000820F931F2285DC01A20FB11D0C932385AF
:1004C000DC01A20FB11D1C932485FC01E20FF11D7C
:1004D000D083DF91CF911F910F91FF90EF90DF902C
:1004E000CF900895962F50E060E070E0592B682B74
:1004F000CB01BA0108958EBD00000DB407FEFDCFFB
:100500008EB50895CF93DF93EC0160E088890E9457
:10051000E91680EC0E947B0261E088890E94E9165E
:100520006AE070E080E090E0DF91CF910C942416B7
:100530001F93CF93DF93EC01162F60E088890E9410
:10054000E91683E00E947B02812F0E947B0280E0FB
:100550000E947B02182F61E088890E94E916812F92
:10056000DF91CF911F910895CF92DF92EF92FF928A
:100570000F931F93CF93DF9300D0CDB7DEB78C01DD
:10058000F62EE22E60E0FC01808949835A830E94A6
:10059000E91683E00E947B028F2D0E947B02498135
:1005A000C42E5A81D52EF12CFE1459F0F8E0FF1616
:1005B00041F080E00E947B02F60181936F01F39489
:1005C000F3CF61E0F80180890F900F90DF91CF9118
:1005D0001F910F91FF90EF90DF90CF900C94E91650
:1005E000EF92FF921F93CF93DF931F92CDB7DEB7A9
:1005F0007C01162F60E0FC01808949830E94E91686
:1006000082E00E947B02812F0E947B024981842F1D
:100610000E947B0261E0F70180890F90DF91CF910A
:100620001F91FF90EF900C94E916CF92DF92EF921A
:10063000FF920F931F93CF93DF9300D0CDB7DEB718
:100640008C01E62EF22E60E0FC01808949835A83FA
:100650000E94E91682E00E947B028E2D0E947B029E
:100660004981E42EC42E5A81D52E8C2D8E198F15DA
:1006700030F4F60181916F010E947B02F6CF61E0B8
:10068000F80180890F900F90DF91CF911F910F910A
:10069000FF90EF90DF90CF900C94E916EF92FF92CD
:1006A0001F93CF93DF9300D0CDB7DEB77C01162F19
:1006B00060E0FC0180892A8349830E94E91685E075
:1006C0000E947B02812F0E947B024981842F0E941D
:1006D0007B022A81822F0E947B0261E0F7018089E0
:1006E0000F900F90DF91CF911F91FF90EF900C949E
:1006F000E9161F93CF93DF93EC0160E088890E9495
:10070000E91680EA0E947B0280E00E947B02182F9B
:1007100061E088890E94E916812FDF91CF911F91B6
:1007200008951F93CF93DF93EC01162F262F40EEF1
:100730006FE00E944E036FE0CE010E949802982F56
:10074000907E81E0911301C080E0DF91CF911F91F5
:1007500008950F931F93CF93DF93EC01462F50E042
:10076000FA013197E131F105C0F5EC5CFF4F0C94D3
:10077000761C17E80FEF05C017E00AEB02C015E87A
:1007800001EF4FE033C017E00EEB49E02FC017E850
:100790000FEF02C017E80AEF47E028C017E80FEF95
:1007A0000BC017E00EEB08C017E00DEA05C017E814
:1007B0000AEF02C016E800EF43E018C017E80AEF9E
:1007C00041E014C015E801EF41E410C016E800EF65
:1007D00002C012E800ED40E009C081E016C017E851
:1007E0000FEF4FE303C017E80FEF4FE16AE2CE01CE
:1007F0000E94F002402F69E2CE010E94F002412FD8
:1008000068E2CE010E94F00280E0DF91CF911F915B
:100810000F9108951F93CF93DF93EC0110E340E015
:10082000612FCE010E94F00260E1610F40E0CE0135
:100830000E94F00260E2610F40E0CE010E94F002EF
:100840001F5F1E3361F740E060E6CE010E94F002B8
:1008500040E060E7CE01DF91CF911F910C94F00250
:100860000F931F93CF93DF93EC01062F0E94820218
:1008700060E8CE010E949103182F6AE070E080E0EA
:1008800090E011110CC00E942416602FCE010E942E
:10089000A903882339F06AE070E080E090E00E94CC
:1008A000241628C06AE070E080E090E00E942416E0
:1008B000CE010E940A0443E06BE2CE010E94F002E6
:1008C00024E044E660E6CE010E944E0320E040E6CC
:1008D00060E7CE010E944E0360E0CE010E949103CA
:1008E000C82F8823C1F26AE070E080E090E00E94A7
:1008F00024161C2F812FDF91CF911F910F91089506
:100900000F931F93CF93DF9300D000D0CDB7DEB706
:100910004130B1F40C831B83890122273327502FE8
:100920005C71402F437078E0579F400D1124486060
:100930004A8355E0169507955A95E1F709830DC04E
:10094000A80123E0569547952A95E1F7498302953A
:10095000000F007E0A831C821B8224E0AE014F5FE1
:100960005F4F0E9415030F900F900F900F90DF9133
:10097000CF911F910F910895EF92FF920F931F93C4
:10098000CF93DF9300D000D0CDB7DEB77A018901D5
:10099000FA011082F901108211821282138224E07E
:1009A000AE014F5F5F4F0E94B4022A813981822FCE
:1009B00090E045E0959587954A95E1F7F8E03F9FEF
:1009C000800D911D1124AA2797FDA095BA2FF8013B
:1009D00080839183A283B38323FF25C062E0880FC5
:1009E000991FAA1FBB1F6A95D1F72370820F911D13
:1009F000A11DB11DBA2FA92F982F88272B81820FF7
:100A0000911DA11DB11DBA2FA92F982F88272C81C8
:100A1000820F911DA11DB11D80839183A283B38399
:100A200081E0F70180830F900F900F900F90DF917E
:100A3000CF911F910F91FF90EF900895FF920F9328
:100A40001F93CF93DF93EC01F62EAC014A5F5F4F0B
:100A500065E06F0D2D810E9415038E85813019F49C
:100A60008D8180648D8364E06F0D4D81CE010E9485
:100A7000F00209811A812B813C8148816F2DCE01C2
:100A80000E948004DF91CF911F910F91FF900895F4
:100A90000F931F93CF93DF93EC01162F9C012F5FD1
:100AA0003F4FAC010E94BC046FEF610FCE010E946A
:100AB0009802082F64E0610FCE010E949802282F4F
:100AC0008D8303FF03C081E08E8701C01E862F70D7
:100AD0002D83AE014A5F5F4F65E0610FCE01DF916C
:100AE000CF911F910F910C94B402615028E048E01F
:100AF0000C944E039F92AF92BF92CF92DF92EF92EF
:100B0000FF920F931F93CF93DF9300D01F92CDB727
:100B1000DEB76C017B0180E3898380E48A8380E512
:100B20008B83FB0110828E010F5F1F4F5E01F4E08B
:100B3000AF0EB11CF80191908F01692DC6010E9482
:100B40009802982F987083FD04C09394F7019082C7
:100B500004C00A151B0571F792E0892F0F900F90C2
:100B60000F90DF91CF911F910F91FF90EF90DF9049
:100B7000CF90BF90AF909F900895FF920F931F93D7
:100B8000CF93DF9300D01F92CDB7DEB78B0120E368
:100B9000298320E42A8320E52B83FB011082FE01B8
:100BA000E40FF11DF1806F2D0E949802982F98702C
:100BB00083FD04C0F394F801F08201C092E0892F14
:100BC0000F900F900F90DF91CF911F910F91FF9099
:100BD0000895CF93DF93EC01862F688B61E00E942C
:100BE000B01661E08889DF91CF910C94E916CF931C
:100BF000DF9300D01F92CDB7DEB76B8389839A83D2
:100C00000E94A40A6B8189819A810E94300491E03C
:100C1000811101C090E0892F0F900F900F90DF910C
:100C2000CF9108958F929F92BF92CF92DF92EF92D1
:100C3000FF920F931F93CF93DF931F92CDB7DEB731
:100C40004C01B62E680179016AE070E080E090E026
:100C500049830E94241660E8C4010E949103182F62
:100C60004981882329F06AE070E080E090E01AC0B2
:100C7000B11004C09701860160E206C081E0B8129D
:100C800006C09701860164E2C4010E94800460E00E
:100C9000C4010E949103182F6AE070E080E090E0A8
:100CA000112321F00E942416812F03C00E942416D4
:100CB00080E00F90DF91CF911F910F91FF90EF9007
:100CC000DF90CF90BF909F908F900895AF92BF928A
:100CD000CF92DF92EF92FF920F931F93CF93DF9308
:100CE00000D0CDB7DEB75C01562F680179016AE00C
:100CF00070E080E090E04A8359830E94241660E807
:100D0000C5010E949103182F4A815981882329F037
:100D10006AE070E080E090E031C05230B1F040F421
:100D2000552379F05130F9F49701860164E018C039
:100D3000543099F070F05530B1F49701860168E1B4
:100D40000FC09701860160E00BC09701860168E043
:100D500007C09701860160E103C09701860164E145
:100D6000C5010E94800460E0C5010E949103182F14
:100D70006AE070E080E090E0112321F00E942416E8
:100D8000812F03C00E94241680E00F900F90DF9106
:100D9000CF911F910F91FF90EF90DF90CF90BF9078
:100DA000AF900895CF92DF92EF920F931F93CF935E
:100DB000DF93FC0120834183528363837483093072
:100DC00008F008E00583E686D60180E090E010E0B8
:100DD000801791073CF42D91EF01C80FD91F2E8386
:100DE0000196F6CF80E0DF91CF911F910F91EF90A8
:100DF000DF90CF900895CF92DF92EF92FF920F9302
:100E00006701E12C0E94D2060F91FF90EF90DF90D6
:100E1000CF900895EF92FF920F931F93CF93DF939C
:100E20001F92CDB7DEB78C01E12CF12CBE016F5FB4
:100E30007F4FC8010E947A059FEFE91AF90A8230B4
:100E400029F482E3E816F10489F724C092E3E91655
:100E5000F10401F16981C8010E941E056981C80180
:100E60000E947505E12CF12C8FEFE81AF80A6981D0
:100E70006150C8010E94980283FF06C092E3E91600
:100E8000F10491F787E007C082E3E816F104D1F39B
:100E900080E001C086E00F90DF91CF911F910F910C
:100EA000FF90EF900895DF92EF92FF920F931F93C0
:100EB000CF93DF931F92CDB7DEB78C01D62EE12CF6
:100EC000F12C4D2DBE016F5F7F4FC8010E94BD0503
:100ED0009FEFE91AF90A823029F482E3E816F10457
:100EE00081F72BC092E3E916F10439F16981C80159
:100EF0000E941E056981C8010E947505E12CF12C34
:100F00008FEFE81AF80A69816150C8010E949802BF
:100F1000D82E61E070E080E090E00E942416D3FEBD
:100F200006C092E3E916F10459F787E007C082E3AF
:100F3000E816F104D1F380E001C086E00F90DF9164
:100F4000CF911F910F91FF90EF90DF900895EF9256
:100F5000FF920F93CF93DF93EC010E94FB06CE012B
:100F6000DF91CF910F91FF90EF900C940A07CF92F1
:100F7000EF92FF920F93CF93DF93EC010E94FB0659
:100F80006C2DCE01DF91CF910F91FF90EF90CF901C
:100F90000C945307CF93DF93EC010E94790380FFF9
:100FA00007C061E6CE010E94480520E041E008C08C
:100FB00081FF0CC061E7CE010E94480520E042E0BD
:100FC0006CE2CE010E944E0380E001C084E0DF911C
:100FD000CF910895EF92FF920F931F93CF93DF93DA
:100FE00000D0CDB7DEB77C018B0149835A830E94C4
:100FF000CA0749815A81811118C0D70115969C9161
:10100000F8019083FA0120E030E0D70115964C9169
:1010100050E0241735075CF4D701A20FB31F1696D2
:101020009C9191932F5F3F4FF0CFF80110820F906A
:101030000F90DF91CF911F910F91FF90EF90089546
:101040000E947903837011F083E0089584E008958D
:10105000FC016181728183819481089520917002E5
:101060003091710228173907B9F490912E028091BE
:101070002F02981789F0E0912E02F0E0E05DFD4F1D
:10108000808120912E0230E02F5F3F4F2F73332756
:1010900020932E0290E008958FEF9FEF08951F9305
:1010A000CF93DF93DC015C968D919C915D970097C7
:1010B00049F481E090E013969C938E93129780E020
:1010C00090E03BC05196ED91FC91529750962C9137
:1010D0005097322F30951FB75E964C915E9741FB2B
:1010E000772770F941FD6095F8944081772311F0DE
:1010F000422B01C043234083EC012197F1F748E0E4
:10110000508160FF02C0522B01C053235083EC0179
:101110002197F1F76695415099F78081772311F077
:10112000832301C0822B80831FBF5C968D919C918D
:101130005D970197F1F781E090E0DF91CF911F91EA
:10114000089508952091700230917102281739078F
:1011500081F490912E0280912F02981751F0E09126
:101160002E02F0E0E05DFD4F8081992787FD90958C
:1011700008958FEF9FEF08952091700230917102D2
:101180002817390771F480912F0220912E0290E0E8
:10119000805C9F4F821B910960E470E00E94211CDB
:1011A000089580E090E00895E0917002F09171025E
:1011B000E817F90769F4A389B4899C91858980951A
:1011C00089238C93109271021092700281E008952D
:1011D00080E00895CF93DF93EC018A8D9B8D892B5E
:1011E000F1F080917002909171028C179D07B9F017
:1011F000009711F00E94D4088E8D8E7F8E8F1092F2
:101200002F0210922E02D0937102C0937002EB89CC
:10121000FC8980819D89892B808381E001C080E0E9
:10122000DF91CF9108951F920F920FB60F92112464
:101230002F933F934F935F936F937F938F939F93DE
:10124000AF93BF93EF93FF93E0917002F09171021F
:10125000309709F451C0868DA685B785958581FFA5
:1012600004C08C91892329F447C08C91892309F00B
:1012700043C0A389B4899C918589809589238C93E7
:10128000868997890197F1F7208D318DA685B785DD
:10129000758558E040E0C9010197F1F7842F90E08F
:1012A00095958795482F6C91672309F040685150B8
:1012B00091F7868D81FD409580912F0290E00196F7
:1012C0008F73992720912E02281749F0A0912F02A1
:1012D000B0E0A05DBD4F4C9380932F0203C0868D7C
:1012E0008160868F828D938D0197F1F7A389B489F0
:1012F0008C919589892B8C93FF91EF91BF91AF9140
:101300009F918F917F916F915F914F913F912F911D
:101310000F900FBE0F901F9018952CE231E0FC014A
:10132000318320830C94D4081F93CF93DF93EC0177
:10133000162F6E8D6695617081E06827812F0E945F
:10134000E91661E0812F0E94B016812F90E0FC0128
:10135000E256FF4FE491E88BFC01EE54FF4FE4911D
:10136000F0E0EE0FFF1FE053FF4F859194919A8BB1
:10137000898BDF91CF911F9108951F93CF93DF93B6
:10138000EC01162F60E0812F0E94B0168E8D81FD3A
:1013900004C061E0812F0E94E9161C87812F90E034
:1013A000FC01E256FF4FE491ED87FC01EE54FF4F44
:1013B000E491F0E0EE0FFF1FEA53FF4F8591949107
:1013C0009F878E87DF91CF911F910895FF920F9392
:1013D0001F93CF93DF93EC01F62E522F1B821A82BC
:1013E00008EE13E020E030E00C831D832E833F8362
:1013F0008CE291E0998388831F8A1E8A198E188E49
:101400001B8E1A8E1D8E1C8E8E8D8E7F50FB81F949
:101410008E8F642FCE010E9494096F2DCE01DF9133
:10142000CF911F910F91FF900C94BD09CF93DF9343
:10143000EC019A01AB011B8E1A8E198E188E1F8A31
:101440001E8A60E079E08DE390E00E94571CC9019C
:101450002430310520F0B9016350710902C061E008
:1014600070E07D8F6C8FEC85E63108F068C0B901C3
:10147000769567956431710518F06351710902C062
:1014800061E070E07F8B6E8B069718F0C9010597BD
:1014900002C081E090E0998F888FC901880F991F61
:1014A000820F931F96958795969587958D30910518
:1014B00010F00C9702C081E090E09B8F8A8F209102
:1014C0006800E83050F091E0EE3008F490E081E000
:1014D00001C0880F9A95EAF701C084E0822B8093BF
:1014E00068002C85283038F02E3040F0263148F442
:1014F0008CE690E008C08DE690E005C08BE690E0B9
:1015000002C080E090E09C8B8B8B283030F481E02F
:1015100001C0880F2A95EAF70DC0822F90E02E3087
:1015200010F4089701C00E9791E001C0990F8A95B9
:10153000EAF7892F8D8B8C8D9D8D0197F1F7CE0168
:10154000DF91CF910C94EA08CF93CFB7F8948091B4
:101550007202811127C0ECEBF0E08491E8EAF0E040
:101560009491E82FF0E0EE0FFF1FE652FF4FA59198
:10157000B4918C91892321F461E08AE00E94E916FC
:1015800061E08AE00E94B0168CB580618CBD8CB59C
:1015900080648CBD61E08DE00E94B01661E08BE05C
:1015A0000E94B016809172028F5F80937202CFBF4B
:1015B000CF910895CF93DF938091A102843229F0D7
:1015C0001092B102E1EAF2E035C069E072E081EA2E
:1015D00092E00E948B1E69E072E080E090E00E9441
:1015E0008B1E0E946D1EAA2797FDA095BA2F80938F
:1015F000B8029093B902A093BA02B093BB0269E01B
:1016000072E080E090E00E948B1EC5ECD2E0009773
:1016100051F00E946D1E888369E072E080E090E0E6
:101620000E948B1E01C01882219622E0CD3CD20779
:1016300071F7C6CF119282E0E13BF807D9F7DF914D
:10164000CF910895813049F46091F2027091F302D4
:101650008091F4029091F5020895823049F46091EE
:10166000EE027091EF028091F0029091F1020895E4
:10167000833049F46091E2027091E3028091E402C8
:101680009091E5020895843049F46091EA027091E6
:10169000EB028091EC029091ED020895853049F4BF
:1016A0006091E6027091E7028091E8029091E90270
:1016B00008956091DE027091DF028091E0029091C6
:1016C000E10208950F931F930091F2021091F3022B
:1016D0002091F4023091F502601771078207930799
:1016E000D1F10091EE021091EF022091F0023091C1
:1016F000F102601771078207930779F10091E20206
:101700001091E3022091E4023091E5026017710725
:101710008207930721F10091EA021091EB022091D8
:10172000EC023091ED02601771078207930779F0A0
:101730000091E6021091E7022091E8023091E9025F
:10174000601771078207930721F485E009C084E0E0
:1017500007C080E005C081E003C082E001C083E0F3
:101760001F910F910895882339F0815090912501A0
:10177000899F802D1124089580E00895882321F009
:10178000880F880F880F08958091260108955F9231
:101790006F927F928F929F92AF92BF92CF92DF9281
:1017A000EF92FF920F931F93CF93DF931F92CDB7CA
:1017B000DEB74B015C01622E7E2C49830E94620BD6
:1017C0008093140184E0809315014981411101C087
:1017D00044E1611002C06624639410E0C42ED12C51
:1017E000E12CF12C81E0861510F0502E1BC0502EFC
:1017F0005714D8F72091DE023091DF024091E002C9
:101800005091E102652D70E086EF92E00E942A027D
:1018100086EF92E00E941001C701B6010E942416D3
:101820005394E6CF571490F4652D70E0A501940110
:1018300086EF92E00E942A0286EF92E00E94100159
:10184000C701B6010E9424165394ECCF1F5F1611F6
:10185000C9CF0F90DF91CF911F910F91FF90EF9023
:10186000DF90CF90BF90AF909F908F907F906F90C0
:101870005F9008959F92AF92BF92CF92DF92EF92C6
:10188000FF920F931F93CF93DF936B017C01942EF4
:10189000A22E0E94620B8093140181E080931501B7
:1018A000911002C08AE0982EB12CC0E0D0E010E088
:1018B000BE016A0D7B1D6017710740F4A7019601F8
:1018C00086EF92E00E942A022196F2CF86EF92E004
:1018D0000E941001692D70E080E090E0DF91CF91CF
:1018E0001F910F91FF90EF90DF90CF90BF90AF903E
:1018F0009F900C9424160F9386E08093140185E04A
:10190000809315016091E6027091E7028091E802F0
:101910009091E9020091260120E044EF0E943A0CE8
:1019200064E670E080E090E00E9424166091F2028C
:101930007091F3028091F4029091F50200912601DA
:1019400020E044EF0E943A0C64E670E080E090E012
:101950000E9424166091EE027091EF028091F002D5
:101960009091F1020091260120E044EF0E943A0C90
:1019700064E670E080E090E00E9424166091E2024C
:101980007091E3028091E4029091E50200912601BA
:1019900020E044EF0E943A0C64E670E080E090E0C2
:1019A0000E9424166091EA027091EB028091EC0291
:1019B0009091ED020091260120E044EF0E943A0C44
:1019C00064E670E080E090E00E9424166091DE0200
:1019D0007091DF028091E0029091E1020091260176
:1019E00020E044EF0E943A0C0F9108956F927F928D
:1019F0008F929F92AF92BF92CF92DF92EF92FF921F
:101A00000F931F93CF93DF931F92CDB7DEB74B0198
:101A10005C01142FF02E29830E94620B8093140125
:101A200083E0809315012981111101C01EE5211168
:101A300001C021E0612C712CC22ED12C6C147D04CC
:101A4000BCF40E2D2F2D412FC501B4010E943A0C7C
:101A50006091DE027091DF028091E0029091E102DC
:101A60002F2D412F0E943A0C8FEF681A780AE6CF8B
:101A70000F90DF91CF911F910F91FF90EF90DF902A
:101A8000CF90BF90AF909F908F907F906F90089570
:101A90006F927F928F929F92AF92BF92CF92DF927E
:101AA000EF92FF920F931F93CF93DF931F92CDB7C7
:101AB000DEB74B015C01142FF02E29830E94620BCC
:101AC0008093140182E0809315012981111101C0D6
:101AD0001EE5211101C021E0612C712CC22ED12CF8
:101AE0000E2D2F2D412FC501B4016C147D0494F4EB
:101AF0000E943A0C6091DE027091DF028091E00258
:101B00009091E1022F2D412F0E943A0C8FEF681A1D
:101B1000780AE6CF0E943A0C0F90DF91CF911F9187
:101B20000F91FF90EF90DF90CF90BF90AF909F907C
:101B30008F907F906F900895CF92DF92EF92FF92F7
:101B40000F931F93CF93DF9300D000D0CDB7DEB7B4
:101B50008091BD020E94220BC62E182F00912601F3
:101B6000D090BE022091C0024091C102E090BF021D
:101B7000EE2089F08E2D29834A837B839C830E94EB
:101B8000B30BF82E8E2D0E94BE0BE82E29814A81C0
:101B90007B819C8102C0E02EF12CD11002C020E09C
:101BA00005C081E0D81207C00E2D2F2D6C2D812F7E
:101BB0000E943A0C20C0E2E0DE1206C00F2D6C2D10
:101BC000812F0E94480D17C0F3E0DF1206C00F2DD1
:101BD0006C2D812F0E94F60C0EC084E0D81206C036
:101BE0000F2D6C2D812F0E94C70B05C0E5E0DE1282
:101BF00002C00E947B0CC0921401D09215010F907C
:101C00000F900F900F90DF91CF911F910F91FF9048
:101C1000EF90DF90CF9008951F93CF93DF93182F0D
:101C2000C82FD0E0FE01E35FFE4F80810E941F17A6
:101C3000FE01EE54FD4F90819817E9F09091170145
:101C4000813061F4808321E030E0012E01C0220F59
:101C50000A94EAF7292B2093170111C0108221E082
:101C600030E0012E01C0220F0A94EAF720952923C3
:101C70002093170103C081E0913009F080E0DF91EB
:101C8000CF911F910895CF92DF92EF920F931F9300
:101C9000CF93DF9300D000D000D0CDB7DEB726E0E1
:101CA00040E052EC61E070E083E193E00E942B1889
:101CB00040E855E260E070E081E892E00E94160A98
:101CC00068E371E083E193E00E948E1940911F0167
:101CD0005091200160912101709122012AE030E0B1
:101CE00083E193E00E947E1A61E080910C010E94E2
:101CF000B01661E080910C010E94E91661E08091CC
:101D00000B010E94B01660E080910B010E94E91661
:101D100061E080910A010E94B01660E080910A01A2
:101D20000E94E91662E471E083E193E00E94AD193C
:101D300086EF92E00E94B30086EF92E00E941001CD
:101D40000E947B0C6091F2027091F3028091F40288
:101D50009091F5020091260120E040E00E943A0CAB
:101D600060E571E083E193E00E94AD196DE0C62E5D
:101D700061E0D62E10E0F6018081833609F454C06C
:101D800062E00E94B01660E671E083E193E00E9499
:101D90008E194AE050E0F601608183E193E00E94F1
:101DA000771A65E671E083E193E00E948E19812F36
:101DB0000E940C0E682F70E04AE050E083E193E04F
:101DC0000E94621A812F0E940C0E811112C0609134
:101DD000EE027091EF028091F0029091F10258E0D2
:101DE000E52E00E020E040E00E94C70B69E671E0CC
:101DF00011C06091E2027091E3028091E40290913F
:101E0000E50248E0E42E00E020E040E00E94C70B3D
:101E10006FE671E083E193E00E94AD196AEF70E034
:101E200080E090E00E942416FFEFCF1ADF0A1F5FC8
:101E3000163009F0A0CF6AE771E083E193E00E94D9
:101E4000AD196BE871E083E193E00E948E1968E0C0
:101E50008DEC92E00E94F70581118CC06091EE023A
:101E60007091EF028091F0029091F10230E1E32E47
:101E70000091250120E040E00E94C70B6CE671E074
:101E800083E193E00E94AD190FE110E020E030E023
:101E900040E060E08DEC92E00E9412060FE110E05D
:101EA00020E030E040E061E08DEC92E00E9412061C
:101EB00000911F01109120012091210130912201F8
:101EC00040E060E08DEC92E00E94660600911F0108
:101ED00010912001209121013091220140E062E027
:101EE0008DEC92E00E9466066DE971E083E193E07B
:101EF0000E94AD1961EC71E083E193E00E94AD199D
:101F000060ED71E0CE0101960E94FE1ABE016F5F86
:101F10007F4F81E892E00E949B19BE016F5F7F4F67
:101F200083E193E00E949B1960ED77E080E090E010
:101F30000E9424166091DE027091DF028091E0021F
:101F40009091E1020091260120E040E00E943A0CCD
:101F5000CE0101960E94901A26960FB6F894DEBF25
:101F60000FBECDBFDF91CF911F910F91EF90DF900A
:101F7000CF9008956CED71E083E193E00E94AD197C
:101F80006091E2027091E3028091E4029091E50297
:101F900020E1E22E0091250120E040E00E94C70BE5
:101FA00050CF1F93CF93DF93CDE0D1E010E0899124
:101FB000833619F0812F0E940C0E1F5F1630B9F77F
:101FC000DF91CF911F910895EF920F9390917B0233
:101FD0008FEF890F873008F459C080917F029830C5
:101FE00079F5882309F452C06091EA027091EB02FE
:101FF0008091EC029091ED02E090260100E021E05A
:1020000040E00E94C70B6091E2027091E302809170
:10201000E4029091E502E090260121E040E00E9478
:10202000C70B6091DE027091DF028091E002909117
:10203000E102E090260121E040E00E94C70B24C0AD
:10204000882321F1109278021092770210927A027E
:10205000109279021092740210927302109276021A
:10206000109275026091DE027091DF028091E002B1
:102070009091E1020091260120E040E00E943A0C9C
:10208000109280020E94D10F10927F020F91EF9068
:102090000895CF92EF92FF920F931F93CF93DF9308
:1020A00000D000D0CDB7DEB7882351F049835A83E2
:1020B0006B837C830E94D10F7C816B815A81498123
:1020C00080911F0190912001A0912101B0912201E6
:1020D000481759076A077B0729F1E5E0880F991F20
:1020E000AA1FBB1FEA95D1F7842B952BA62BB72BE4
:1020F000F2E0CF2E13E1E12E11E0F12E08E020E016
:10210000AC01BD018DEC92E00E94B7070F900F90DB
:102110000F900F90DF91CF911F910F91FF90EF9053
:10212000CF90089540911B0150911C0160911D01B9
:1021300070911E012AE030E083E193E00E946A1A68
:1021400069E072E083E193E00E948E1903E111E0FF
:10215000F1E00B311F0781F0F80161918F014AE036
:1021600050E083E193E00E94771A69E072E083E136
:1021700093E00E948E19ECCF83E193E00F900F90D3
:102180000F900F90DF91CF911F910F91FF90EF90E3
:10219000CF900C949719EF920F9390917B028091BE
:1021A0007F02913029F5882309F490C06091F202F2
:1021B0007091F3028091F4029091F502E090260173
:1021C00000E021E040E00E94C70B6091E6027091C0
:1021D000E7028091E8029091E902E090260121E077
:1021E00040E00E94C70B10927F0210927E026EC0E8
:1021F000923019F5882309F469C010927F02109279
:102200007E028091790290917A02019690937A02EF
:102210008093790280931A0180917702809319014B
:1022200040911B0150911C0160911D0170911E0194
:1022300080E00F91EF900C9449109730E9F48823D7
:1022400009F444C040911B0150911C0160911D0193
:1022500070911E0180E00E9449106091DE02709131
:10226000DF028091E0029091E1020091260120E0DE
:1022700040E00E943A0C28C0882341F11092780275
:102280001092770210927A021092790210927402E0
:1022900010927302109276021092750210921A0137
:1022A000109219016091DE027091DF028091E002CC
:1022B0009091E1020091260120E040E00E943A0C5A
:1022C000109280020E94D10F10927F020F91EF9026
:1022D0000895EF920F9390917B0280917F0291304D
:1022E00029F5882309F493C06091F2027091F302FA
:1022F0008091F4029091F502E090260100E021E047
:1023000040E00E94C70B6091E2027091E30280916D
:10231000E4029091E502E090260121E040E00E9475
:10232000C70B10927F0210927E0271C0923031F57D
:10233000882321F010927F0210927E028091790210
:1023400090917A028F3F91050CF061C001969093B5
:102350007A028093790280931A01809177028093A8
:10236000190140911B0150911C0160911D01709158
:102370001E0180E00F91EF900C9449109730E9F422
:10238000882309F444C040911B0150911C016091C5
:102390001D0170911E0180E00E9449106091DE02D3
:1023A0007091DF028091E0029091E102009126019C
:1023B00020E040E00E943A0C28C0882341F11092AE
:1023C00078021092770210927A021092790210929B
:1023D000740210927302109276021092750210929B
:1023E0001A01109219016091DE027091DF02809152
:1023F000E0029091E1020091260120E040E00E947D
:102400003A0C109280020E94D10F10927F020F911D
:10241000EF9008950F931F9300911F0110912001D9
:1024200020912101309122018091B8029091B9024E
:10243000A091BA02B091BB0280179107A207B3071F
:1024400061F08DEC92E00E942808F5E09695879562
:1024500077956795FA95D1F702C0BC01CD011F9120
:102460000F910895EF920F93CF93C82F6BE871E00F
:1024700083E193E00E948E196C2F8DEC92E00E9414
:10248000F705811121C000912501000F6091EE0236
:102490007091EF028091F0029091F102B8E1EB2E81
:1024A00020E040E00E94C70B4AE050E06C2F83E13F
:1024B00093E00E94771A69E671E083E193E0CF919F
:1024C0000F91EF900C94AD196CED71E083E193E006
:1024D0000E94AD1900912501000F6091E2027091F8
:1024E000E3028091E4029091E502A8E1EA2E20E067
:1024F00040E00E94C70BCF910F91EF900895CF93CA
:10250000DF938091BC02811109C00E940A12AB01C5
:10251000BC0181E0DF91CF910C944910813021F40E
:10252000DF91CF910C949C0D823061F48091BD02BB
:1025300080937B0291E090937F0210927E028093C1
:10254000160110C19DEF980F923008F40BC1853031
:1025500071F58091730290917402019690937402C8
:10256000809373020E940A12AB01BC012AE030E0A2
:1025700083E193E00E946A1A69E072E083E193E0EC
:102580000E948E19CCEBD2E082E0C43CD80709F45B
:10259000A8C069914AE050E083E193E00E94771A75
:1025A00069E072E083E193E00E948E19EDCF8630FE
:1025B000A1F49091BD0290937D028091BE02809320
:1025C0007C02963011F40E94321280917D02893093
:1025D00009F085E080931301C5C0893009F087C0F8
:1025E000809173029091740201969093740280938B
:1025F00073020E940A12AB01BC012AE030E083E1C1
:1026000093E00E946A1A69E072E083E193E00E941D
:102610008E1966E072E083E193E00E948E1969E012
:1026200072E083E193E00E948E19609175027091CF
:1026300076024AE050E083E193E00E94621A69E08A
:1026400072E083E193E00E948E19609173027091B1
:1026500074024AE050E083E193E00E94621A69E06C
:1026600072E083E193E00E948E196091770270918D
:1026700078024AE050E083E193E00E94621A69E048
:1026800072E083E193E00E948E196091790270916B
:102690007A024AE050E083E193E00E94621A69E026
:1026A00072E083E193E00E948E194AE050E060916D
:1026B000C20283E193E00E94771A69E072E083E14D
:1026C00093E00E948E194AE050E06091C30283E1DA
:1026D00093E00E94771A69E072E083E193E00E9440
:1026E0008E1983E193E0DF91CF910C949719843692
:1026F00029F561E080910B010E94E91664E670E023
:1027000080E090E00E94241660E080910B010E941E
:10271000E91664E670E080E090E00E94241661E033
:1027200080910B010E94E91664E670E080E090E081
:102730000E94241660E080910B0110C0853691F450
:1027400061E080910A010E94E91668EE73E080E082
:1027500090E00E94241660E080910A01DF91CF9101
:102760000C94E916DF91CF9108956091260170E0F5
:1027700023E04091270186EF92E00E94050240E0AD
:1027800060E0809124010E9472026093F2027093D3
:10279000F3028093F4029093F50240E060912401EB
:1027A00080E00E9472026093EE027093EF028093C9
:1027B000F0029093F1024091240160E080E00E94D9
:1027C00072026093EA027093EB028093EC029093A2
:1027D000ED0280912401482F682F0E9472026093BD
:1027E000E6027093E7028093E8029093E9028091F9
:1027F000240140E0682F0E9472026093E20270930D
:10280000E3028093E4029093E50240E060E080E020
:102810000E9472026093DE027093DF028093E002F6
:102820009093E102609123018DEC92E00E94E90512
:1028300020E0409106016091080181E892E00C944B
:10284000E60981E892E00E948D0986EF92E00C94FF
:102850009F00EF92FF920F931F93CF93DF93CDB71B
:10286000DEB762970FB6F894DEBF0FBECDBF8DEC1A
:1028700092E00E9420088330A1F44CEB52E064EC1B
:1028800072E08DEC92E00E94EA07809177029091CD
:102890007802019690937802809377020E947F12CB
:1028A000E6CF8091A002882309F4DAC01092A0023A
:1028B0008091B8029091B902A091BA02B091BB0286
:1028C00040911F01509120016091210170912201DE
:1028D00084179507A607B70769F4E5ECF2E0ACEBBF
:1028E000B2E081918D9382E0ED3CF807D1F70E9430
:1028F0007F12B6C085319105A105B10508F491C0DC
:1029000068E072E0CE010D960E94FE1A4091B80276
:102910005091B9026091BA027091BB022AE0CE01D7
:1029200007960E944C1BBE01635F7F4FCE0101964C
:102930000E942B1BBE01695F7F4FCE0101960E9452
:10294000D11BBC01CE010D960E94141BCE01019635
:102950000E94901ABE01635F7F4FCE0101960E94D4
:102960002B1B69E072E0CE0101960E94E41BBC01C2
:10297000CE010D960E94141BCE0101960E94901A62
:1029800005EC12E0F801F1908F01BE01635F7F4F0B
:10299000CE0101960E942B1B6F2DCE0101960E9445
:1029A000FE1BBC01CE010D960E94141BCE010196A8
:1029B0000E94901ABE01635F7F4FCE0101960E9474
:1029C0002B1B69E072E0CE0101960E94E41BBC0162
:1029D000CE010D960E94141BCE0101960E94901A02
:1029E000F2E00D3C1F0771F6BE01635F7F4F81E887
:1029F00092E00E949B196AE070E080E090E00E9403
:102A00002416BE01635F7F4F83E193E00E949B1910
:102A1000CE0107960E94901ACE010D960E94901A40
:102A20001FC02091790230917A022F5F3F4F30937F
:102A30007A022093790215E0440F551F661F771F15
:102A40001A95D1F7482B592B6A2B7B2B05ECE02EDE
:102A500002E0F02E08E020E08DEC92E00E94A70753
:102A600004E211E083E193E00E944817892B61F1B1
:102A700083E193E00E946117843229F48093A102DC
:102A80001093B102EFCF0093A1028A3071F48091CC
:102A9000750290917602019690937602809375026A
:102AA0000E94DA0A1093A002DDCFE091B102AE2FAE
:102AB000B0E0AF55BD4F8C93EF5FE093B102F0E013
:102AC000EF55FD4F1082CECF04E211E081E892E095
:102AD0000E94BC08892B61F181E892E00E942E08D7
:102AE000843229F48093A1021093B102EFCF0093B6
:102AF000A1028A3071F4809175029091760201965C
:102B000090937602809375020E94DA0A1093A002D5
:102B1000DDCFE091B102AE2FB0E0AF55BD4F8C9349
:102B2000EF5FE093B102F0E0EF55FD4F1082CECFA2
:102B300080917D02893061F480917C02853019F4A6
:102B40000E94CB1007C0863029F40E94691102C090
:102B50000E94E40F62960FB6F894DEBF0FBECDBFA1
:102B6000DF91CF911F910F91FF90EF9008951F92E9
:102B70000F920FB60F9211242F933F938F939F9331
:102B8000AF93BF9380910B0390910C03A0910D0321
:102B9000B0910E0330910A0323E0230F2D3720F468
:102BA0000196A11DB11D05C026E8230F0296A11DA7
:102BB000B11D20930A0380930B0390930C03A09301
:102BC0000D03B0930E0380910F0390911003A09119
:102BD0001103B09112030196A11DB11D80930F0343
:102BE00090931003A0931103B0931203BF91AF9180
:102BF0009F918F913F912F910F900FBE0F901F903B
:102C000018953FB7F89480910F0390911003A0910D
:102C10001103B091120326B5A89B05C02F3F19F0F0
:102C20000196A11DB11D3FBF6627782F892F9A2FCE
:102C3000620F711D811D911D42E0660F771F881F75
:102C4000991F4A95D1F70895CF92DF92EF92FF92A4
:102C5000CF93DF936B017C010E940116EB01C1143D
:102C6000D104E104F10489F00E940C1C0E940116B9
:102C70006C1B7D0B683E734090F381E0C81AD1084D
:102C8000E108F108C851DC4FEACFDF91CF91FF9006
:102C9000EF90DF90CF900895789484B5826084BDE2
:102CA00084B5816084BD85B5826085BD85B5816050
:102CB00085BDEEE6F0E0808181608083E1E8F0E0B0
:102CC0001082808182608083808181608083E0E8DF
:102CD000F0E0808181608083E1EBF0E080818460BE
:102CE0008083E0EBF0E0808181608083EAE7F0E0C0
:102CF0008081846080838081826080838081816024
:102D000080838081806880831092C1000895833021
:102D100081F028F4813099F08230A1F00895873055
:102D2000A9F08830B9F08430D1F4809180008F7D93
:102D300003C0809180008F7780938000089584B5D0
:102D40008F7702C084B58F7D84BD08958091B000D7
:102D50008F7703C08091B0008F7D8093B00008957D
:102D6000CF93DF9390E0FC01E256FF4F2491FC01EA
:102D7000EE54FF4F8491882349F190E0880F991F0A
:102D8000FC01E652FF4FA591B49180539F4FFC0187
:102D9000C591D4919FB7611108C0F8948C9120958A
:102DA00082238C93888182230AC0623051F4F89484
:102DB0008C91322F309583238C938881822B88834A
:102DC00004C0F8948C91822B8C939FBFDF91CF919C
:102DD00008950F931F93CF93DF931F92CDB7DEB764
:102DE000282F30E0F901E657FF4F8491F901E256B0
:102DF000FF4F1491F901EE54FF4F04910023C9F0E5
:102E0000882321F069830E9487166981E02FF0E012
:102E1000EE0FFF1FE053FF4FA591B4919FB7F894B9
:102E20008C91611103C01095812301C0812B8C937B
:102E30009FBF0F90DF91CF911F910F910895CF9376
:102E4000DF93282F30E0F901E657FF4F8491F90115
:102E5000E256FF4FD491F901EE54FF4FC491CC23B9
:102E600091F081110E948716EC2FF0E0EE0FFF1F0A
:102E7000EA53FF4FA591B4912C912D2381E090E06E
:102E800021F480E002C080E090E0DF91CF910895CE
:102E9000FC01818D228D90E0805C9F4F821B910907
:102EA0008F7399270895FC01918D828D981731F0C9
:102EB000828DE80FF11D858D90E008958FEF9FEFD3
:102EC0000895FC01918D828D981761F0828DDF014C
:102ED000A80FB11D5D968C91928D9F5F9F73928F0D
:102EE00090E008958FEF9FEF089585EE98E1892B8C
:102EF00049F080E090E0892B29F00E94E5188111CB
:102F00000C9400000895FC01848DDF01A80FB11D11
:102F1000A35ABF4F2C91848D90E001968F7399270F
:102F2000848FA689B7892C93A089B1898C918064FC
:102F30008C93938D848D981306C00288F389E02DBD
:102F400080818F7D80830895CF93DF93EC01888DFE
:102F50008823C9F0EA89FB89808185FD05C0A8899D
:102F6000B9898C9186FD0FC00FB607FCF5CF808123
:102F700085FFF2CFA889B9898C9185FFEDCFCE016D
:102F80000E948317E7CFDF91CF910895CF92DF9210
:102F9000FF920F931F93CF93DF931F92CDB7DEB7AE
:102FA0006C0181E0D60158968C9358975B969C9162
:102FB0005B975C968C915C97981307C05096ED9147
:102FC000FC915197808185FD2EC0F601038D10E0A4
:102FD0000F5F1F4F0F731127F02EF601848DF8122B
:102FE00011C00FB607FCF9CFD6015096ED91FC91B8
:102FF0005197808185FFF1CFC60169830E948317B5
:103000006981EBCF838DE80FF11DE35AFF4F608399
:10301000D6015B960C935B975296ED91FC9153977A
:10302000808180620CC0D6015696ED91FC91579735
:1030300060835096ED91FC915197808180648083EC
:1030400081E090E00F90DF91CF911F910F91FF9061
:10305000DF90CF900895BF92CF92DF92EF92FF92D0
:10306000CF93DF93EC016A017B01B22EE889F989E5
:1030700082E08083411581EE580761057105A1F05A
:1030800060E079E08DE390E0A70196010E94351C95
:103090002150310941095109569547953795279592
:1030A000211580E1380798F0E889F989108260E8F5
:1030B00074E88EE190E0A70196010E94351C215032
:1030C0003109410951095695479537952795EC8562
:1030D000FD853083EE85FF852083188EEC89FD8980
:1030E000B082EA89FB89808180618083EA89FB89DB
:1030F000808188608083EA89FB8980818068808301
:10310000EA89FB8980818F7D8083DF91CF91FF9059
:10311000EF90DF90CF90BF9008951F920F920FB65F
:103120000F9211242F938F939F93EF93FF93E0912E
:103130002303F09124038081E0912903F0912A0375
:1031400082FD12C0908180912C038F5F8F7320913C
:103150002D03821751F0E0912C03F0E0ED5EFC4F5F
:10316000958F80932C0301C08081FF91EF919F91F7
:103170008F912F910F900FBE0F901F9018951F9257
:103180000F920FB60F9211242F933F934F935F939B
:103190006F937F938F939F93AF93BF93EF93FF931F
:1031A00083E193E00E948317FF91EF91BF91AF916C
:1031B0009F918F917F916F915F914F913F912F914F
:1031C0000F900FBE0F901F90189583E193E00E941F
:1031D000481721E0892B09F420E0822F08951092EE
:1031E00016031092150388EE93E0A0E0B0E0809300
:1031F000170390931803A0931903B0931A038FE059
:1032000092E0909314038093130385EC90E09093E5
:10321000200380931F0384EC90E09093220380931B
:10322000210380EC90E0909324038093230381ECAE
:1032300090E0909326038093250382EC90E0909396
:1032400028038093270386EC90E090932A038093D1
:10325000290310922C0310922D0310922E0310922A
:103260002F03089508950E944C160E9432190E945F
:10327000430EC5E7D7E10E9429142097E1F30E948D
:103280007517F9CFCF92DF92EF92FF920F931F93B2
:10329000CF93DF937C016A01EB0100E010E00C1595
:1032A0001D0571F06991D701ED91FC910190F081BC
:1032B000E02DC7010995892B19F00F5F1F4FEFCF44
:1032C000C801DF91CF911F910F91FF90EF90DF9098
:1032D000CF9008956115710581F0DB010D900020FC
:1032E000E9F7AD0141505109461B570BDC01ED9147
:1032F000FC910280F381E02D099480E090E0089534
:10330000DC01ED91FC91DB0114964D915C911597D8
:103310006D917C910280F381E02D09940C946A19DF
:10332000DC01ED91FC910190F081E02D09946BE1BD
:1033300072E00C946A190F931F93CF93DF93EC0103
:103340000E9480198C01CE010E949719800F911F55
:10335000DF91CF911F910F9108950F931F93CF93FA
:10336000DF93EC010E946A198C01CE010E9497192B
:10337000800F911FDF91CF911F910F9108958F9230
:103380009F92AF92BF92CF92DF92EF92FF920F93F4
:103390001F93CF93DF93CDB7DEB7A1970FB6F89405
:1033A000DEBF0FBECDBF7C01C42EE52FCB01D22ED8
:1033B00019A221E02D1510F02AE0D22E8E010F5D0A
:1033C0001F4F8D2C912CA12CB12C6C2D7E2FA50183
:1033D00094010E94351C8C2DD29E8019112401501D
:1033E00011098A3014F4805D01C0895CF801808382
:1033F000211531054105510521F0C22EE32FCA01E7
:10340000E4CFB801C7010E946A19A1960FB6F894DB
:10341000DEBF0FBECDBFDF91CF911F910F91FF9007
:10342000EF90DF90CF90BF90AF909F908F900895D6
:10343000CF92DF92EF92FF920F931F93CF93DF9380
:10344000EC016A017B012115310579F4E881F981EC
:103450000190F081E02D642FDF91CF911F910F91AA
:10346000FF90EF90DF90CF9009942A303105E9F476
:1034700077FF1AC06DE20E9490198C0144275527EE
:10348000BA014C195D096E097F092AE0CE010E943C
:10349000BF19800F911FDF91CF911F910F91FF9066
:1034A000EF90DF90CF9008952AE0B701A601CE01FA
:1034B000DF91CF911F910F91FF90EF90DF90CF9010
:1034C0000C94BF199A01AB01662757FD6095762FC2
:1034D0000C94181A2115310541F4DC01ED91FC9191
:1034E0000190F081E02D642F09940C94BF199A018A
:1034F000462F50E060E070E00C946A1A0F931F931F
:10350000CF93DF93EC010E946A1A8C01CE010E94D6
:103510009719800F911FDF91CF911F910F910895FF
:10352000FC01808191810C94141DCF93DF93EC01F9
:1035300088819981009711F00E94141D19821882C8
:103540001D821C821B821A82DF91CF9108950F93F6
:103550001F93CF93DF93EC018B016F5F7F4F8881C7
:1035600099810E94A31D009731F0998388831B8362
:103570000A8381E001C080E0DF91CF911F910F911C
:103580000895CF93DF93EC0188819981892B29F0ED
:103590008A819B818617970760F4CE010E94A71A43
:1035A000882341F08C819D81892B19F4E881F98170
:1035B000108281E0DF91CF910895EF92FF920F93F7
:1035C0001F93CF93DF93EC017B018A01BA010E9424
:1035D000C11A811104C0CE010E94951A07C01D8333
:1035E0000C83B701888199810E94A01ECE01DF91D2
:1035F000CF911F910F91FF90EF900895FC011182E0
:10360000108213821282158214826115710559F09D
:10361000FB0101900020E9F7AF0141505109461B21
:10362000570B0C94DD1A0895CF93DF93EC01FB0147
:103630008617970761F0608171816115710529F026
:10364000448155810E94DD1A02C00E94951ACE0164
:10365000DF91CF910895FC011182108213821282B2
:10366000158214820C94141BCF93DF93EC01611527
:10367000710561F0FB0101900020E9F7AF014150B5
:103680005109461B570B0E94DD1A02C00E94951A71
:10369000CE01DF91CF9108950F931F93CF93DF93C6
:1036A000CDB7DEB7A1970FB6F894DEBF0FBECDBF82
:1036B0008C01CB01BA01F8011182108213821282AF
:1036C0001582148230E0AE014F5F5F4F0E94E11E11
:1036D000BE016F5F7F4FC8010E94341BA1960FB6D9
:1036E000F894DEBF0FBECDBFDF91CF911F910F9138
:1036F0000895EF92FF920F931F93CF93DF93EC0106
:103700007B010C811D816115710511F480E016C0EB
:103710004115510591F0040F151FB8010E94C11AFF
:103720008823A1F3288139818C819D81B701820F83
:10373000931F0E94A01E1D830C8381E0DF91CF9117
:103740001F910F91FF90EF900895EF92FF920F93CA
:103750001F93CF93DF9300D000D0CDB7DEB77C01AD
:10376000862F4AE08E010F5F1F4FB80190E00E9444
:10377000CE1EF80101900020E9F7AF014150510938
:10378000401B510BB801C7010E94791B0F900F908D
:103790000F900F90DF91CF911F910F91FF90EF90BD
:1037A0000895CF93DF93EC01FB0144815581608143
:1037B00071810E94791B811103C0CE010E94951A6C
:1037C000CE01DF91CF910895CF93DF93EC01611586
:1037D000710569F0FB0101900020E9F7AF0141504C
:1037E0005109461B570B0E94791B811103C0CE0162
:1037F0000E94951ACE01DF91CF910895CF93DF9368
:10380000EC010E94A51B811103C0CE010E94951AF4
:10381000CE01DF91CF9108950895AA1BBB1B51E102
:1038200007C0AA1FBB1FA617B70710F0A61BB70B30
:10383000881F991F5A95A9F780959095BC01CD01D5
:10384000089597FB072E16F4009407D077FD09D052
:103850000E940D1C07FC05D03EF4909581959F4F6A
:103860000895709561957F4F0895A1E21A2EAA1BC5
:10387000BB1BFD010DC0AA1FBB1FEE1FFF1FA21720
:10388000B307E407F50720F0A21BB30BE40BF50B1D
:10389000661F771F881F991F1A9469F760957095A6
:1038A000809590959B01AC01BD01CF010895052E37
:1038B00097FB1EF400940E946E1C57FD07D00E94D7
:1038C000351C07FC03D04EF40C946E1C50954095AB
:1038D000309521953F4F4F4F5F4F089590958095BC
:1038E000709561957F4F8F4F9F4F0895EE0FFF1F8B
:1038F0000590F491E02D0994CF93DF9382309105E8
:1039000010F482E090E0E091B203F091B30320E084
:1039100030E0A0E0B0E0309739F1408151814817A4
:103920005907B8F04817590771F4828193811097AD
:1039300029F013969C938E9312972CC09093B30307
:103940008093B20327C02115310531F04217530788
:1039500018F0A901DB0101C0EF019A01BD01DF01EF
:103960000280F381E02DD7CF21153105F9F0281B16
:10397000390B2430310580F48A819B8161157105F2
:1039800021F0FB019383828304C09093B30380935F
:10399000B203FE01329644C0FE01E20FF31F819391
:1039A000919322503109398328833AC02091B00382
:1039B0003091B103232B41F4209102013091030196
:1039C0003093B1032093B0032091000130910101A5
:1039D0002115310541F42DB73EB7409104015091B6
:1039E0000501241B350BE091B003F091B103E21700
:1039F000F307A0F42E1B3F0B2817390778F0AC0112
:103A00004E5F5F4F2417350748F04E0F5F1F5093EE
:103A1000B1034093B0038193919302C0E0E0F0E0E2
:103A2000CF01DF91CF910895CF93DF93009709F4F1
:103A300087C0FC01329713821282C091B203D091E9
:103A4000B303209781F420813181280F391F8091A1
:103A5000B0039091B1038217930779F5F093B10306
:103A6000E093B0036DC0DE0120E030E0AE17BF0789
:103A700050F412964D915C9113979D01411551059B
:103A800009F1DA01F3CFB383A28340815181840F1E
:103A9000951F8A179B0771F48D919C911197840F44
:103AA000951F02969183808312968D919C91139716
:103AB000938382832115310529F4F093B303E093B6
:103AC000B2033EC0D9011396FC93EE9312974D9129
:103AD0005D91A40FB51FEA17FB0779F480819181EE
:103AE000840F951F0296D90111969C938E93828123
:103AF000938113969C938E931297E0E0F0E08A8175
:103B00009B81009719F0FE01EC01F9CFCE010296DE
:103B100028813981820F931F2091B0033091B10326
:103B20002817390769F4309729F41092B3031092DB
:103B3000B20302C013821282D093B103C093B003C8
:103B4000DF91CF910895A0E0B0E0E9EAFDE10C94A7
:103B50003C1FEC01CB01209719F40E947C1CB8C0DB
:103B6000FE01E60FF71F9E0122503109E217F3070D
:103B700008F4ACC0D9010D911C91119706171707D5
:103B8000B8F00530110508F49FC0A8014450510950
:103B90004617570708F498C002501109061B170B67
:103BA000019311936D937C93CF010E94141D8CC0DF
:103BB0005B01A01AB10A4E01800E911EA091B203C2
:103BC000B091B303612C712C60E070E0109709F4A0
:103BD00049C0A815B905C9F5ED90FC90119767018A
:103BE00042E0C40ED11CCA14DB0478F147018A18E4
:103BF0009B08640142E0C40ED11C1296BC9012973F
:103C00001396AC91B5E0CB16D10440F0B282A383F9
:103C100091828082D9018D939C9309C00E5F1F4FC2
:103C20000E0D1F1DF90111830083EB2DFA2F611575
:103C3000710531F0DB011396FC93EE93129744C0AB
:103C4000F093B303E093B2033FC06D917C91119761
:103C50006616770608F43B01BD0112960D90BC91E3
:103C6000A02DB4CF6091B0037091B10368157905B0
:103C7000E9F468167906D0F44091000150910101F1
:103C80004115510541F44DB75EB760910401709143
:103C90000501461B570BE417F507C0F4F093B10379
:103CA000E093B003F901918380830EC00E947C1CD5
:103CB0007C01009759F0A801BE010E94901ECE0120
:103CC0000E94141DC70104C0CE0102C080E090E034
:103CD000CDB7DEB7EEE00C94581FFC01882799277A
:103CE000E89421912032E9F3293010F02E30C8F306
:103CF0002B3241F02D3239F4689404C00E94D91E51
:103D0000820F911D219120532A30C0F31EF490950B
:103D100081959F4F08954CE252E00E94A71E08959E
:103D2000FB01DC0102C001900D9241505040D8F7D8
:103D30000895DC0101C06D9341505040E0F70895B3
:103D4000FB01DC0101900D920020E1F70895FA01DA
:103D5000A191B081009719F41097E1F0CD01DC0139
:103D6000CD010D90002011F4C00113C0FB01219181
:103D7000222319F02015D9F7F3CFFB01219120154B
:103D800019F41E92119606C02223C1F70D9000204F
:103D9000A1F7D001FA01A193B0830895BB274A305F
:103DA00031F4992322F4BDE2909581959F4F0C94B4
:103DB0000F1F7AE0979F902D879F802D910D1124E2
:103DC00008952532310520F4223010F00C94EC1EB9
:103DD000FA011082CA010895BB27FA01A62F6217C3
:103DE000710581059105330B30FB66F0AA27660F3C
:103DF000771F881F991FAA1FA21710F0A21B639597
:103E00003850A9F7A05DAA3308F0A95DA19336F751
:103E1000B111B1931082CA010C94281FBB27FB017A
:103E20005527AA27880F991FAA1FA41710F0A41BB3
:103E300083955051B9F7A05DAA3308F0A95DA1930D
:103E4000009779F7B111B1931192CB010C94281F0F
:103E5000DC01FC01672F71917723E1F7329704C0F1
:103E60007C916D9370836291AE17BF07C8F308957C
:103E70002F923F924F925F926F927F928F929F927A
:103E8000AF92BF92CF92DF92EF92FF920F931F9368
:103E9000CF93DF93CDB7DEB7CA1BDB0B0FB6F89419
:103EA000DEBF0FBECDBF09942A88398848885F8459
:103EB0006E847D848C849B84AA84B984C884DF80CA
:103EC000EE80FD800C811B81AA81B981CE0FD11DAE
:103ED0000FB6F894DEBF0FBECDBFED01089510E020
:103EE000C8EED0E004C0FE010E94781C2296CA3EB3
:083EF000D107C9F7F894FFCFD8
:103EF8000000B40380000300020005040D6363633F
:103F080063636305000000000000001F0000001F3D
:103F18000000000919082008000000004F08421995
:103F2800BC082E08A208A1084E6F64652049443ACF
:103F380020004E656F706978656C20546573740055
:103F48002D2D2D2D2D496E707574732D2D2D2D0051
:103F580050696E2300203D2000202D204F4B00206B
:103F68002D2050524553534544002D2D2D2D2D43C2
:103F7800616E204275732D2D2D2D0043414E2D422B
:103F8800555320537461727475703A200043414E42
:103F98002D42555320436F6D6D756E696361746969
:103FA8006F6E3A20436F6D6D616E64204E6F64656D
:103FB800002D2D2D2D2D584265652D2D2D2D2D00D3
:103FC800242C32312C372C312C332C004E6F74209A
:103FD800476F6F642C20636865636B20796F757217
:103FE8002070696E2320616E6420636F6E6E656356
:103FF80074696F6E73003900242C0000000000C63D
:10400800174219481761175317A4170D0A006E6154
:0C4018006E00696E66006F7666002E0078
:00000001FF
