:100000000C9475000C949D000C949D000C949D0024
:100010000C949D000C949D000C949D000C949D00EC
:100020000C949D000C949D000C949D000C949D00DC
:100030000C949D000C949D000C949D000C949D00CC
:100040000C946E160C949D000C944F190C9481190D
:100050000C949D000C949D000C949D000C949D00AC
:100060000C949D000C949D000E0F120FD80EDB0E09
:10007000DE0EE20EE60EE90EED0EF00EF30EF60EBB
:10008000F90EFD0E010F050F080F00000008000219
:10009000010000030407000000000000000001024E
:1000A0000408102040800102040810200102040806
:1000B00010200404040404040404020202020202E4
:1000C00003030303030300000000230026002900AC
:1000D00000000000250028002B0000000000240084
:1000E00027002A00920AB119FA0A11241FBECFEF85
:1000F000D8E0DEBFCDBF12E0A0E0B1E0E0EDF9E373
:1001000002C005900D92AE35B107D9F723E0AEE5F8
:10011000B2E001C01D92A83AB207E1F710E0C8EEC4
:10012000D0E004C02297FE010E94571BC43ED107B5
:10013000C9F70E94F5190C94DB1C0C940000E091A7
:100140000103F09102030190F081E02D682F81E01E
:1001500093E0099580E090E008958FE990E0909316
:10016000B5028093B4021092B7021092B60282E0F8
:100170008093AF021092B9021092B8028CEA92E01A
:100180009093A5038093A4030895CF93DF93809168
:100190006F02843229F010927F02EFE6F2E035C060
:1001A00064E271E08FE692E00E94A01C64E271E0DC
:1001B00080E090E00E94A01C0E94821CAA2797FD6C
:1001C000A095BA2F8093860290938702A09388020D
:1001D000B093890264E271E080E090E00E94A01C8C
:1001E000C3E9D2E0009751F00E94821C888364E248
:1001F00071E080E090E00E94A01C01C0188221966E
:1002000022E0CB39D20771F7C6CF119282E0EF37E7
:10021000F807D9F7DF91CF910895813049F46091C3
:10022000DF027091E0028091E1029091E202089574
:10023000823049F46091DB027091DC028091DD0232
:100240009091DE020895833049F46091CF0270915D
:10025000D0028091D1029091D2020895843049F465
:100260006091D7027091D8028091D9029091DA0200
:100270000895853049F46091D3027091D402809141
:10028000D5029091D60208956091CB027091CC0274
:100290008091CD029091CE0208950F931F9300910B
:1002A000DF021091E0022091E1023091E20260173A
:1002B000710782079307D1F10091DB021091DC02F4
:1002C0002091DD023091DE026017710782079307EB
:1002D00079F10091CF021091D0022091D10230919A
:1002E000D202601771078207930721F10091D702AC
:1002F0001091D8022091D9023091DA02601771076B
:100300008207930779F00091D3021091D4022091D3
:10031000D5023091D602601771078207930721F446
:1003200085E009C084E007C080E005C081E003C02B
:1003300082E001C083E01F910F910895882339F076
:10034000815090912101899F802D1124089580E092
:100350000895882321F0880F880F880F08958091D1
:10036000220108955F926F927F928F929F92AF9237
:10037000BF92CF92DF92EF92FF920F931F93CF9392
:10038000DF931F92CDB7DEB74B015C01622E7E2C4E
:1003900049830E944D018093100184E080931101F4
:1003A0004981411101C044E1611002C06624639497
:1003B00010E0C42ED12CE12CF12C81E0861510F038
:1003C000502E1BC0502E5714D8F72091CB023091DD
:1003D000CC024091CD025091CE02652D70E083EEAB
:1003E00092E00E94490D83EE92E00E942F0CC7011B
:1003F000B6010E94DB165394E6CF571490F4652D96
:1004000070E0A501940183EE92E00E94490D83EE15
:1004100092E00E942F0CC701B6010E94DB16539494
:10042000ECCF1F5F1611C9CF0F90DF91CF911F91B5
:100430000F91FF90EF90DF90CF90BF90AF909F9083
:100440008F907F906F905F9008959F92AF92BF9230
:10045000CF92DF92EF92FF920F931F93CF93DF9390
:100460006B017C01942EA22E0E944D0180931001FD
:1004700081E080931101911002C08AE0982EB12C86
:10048000C0E0D0E010E0BE016A0D7B1D601771076F
:1004900040F4A701960183EE92E00E94490D219657
:1004A000F2CF83EE92E00E942F0C692D70E080E085
:1004B00090E0DF91CF911F910F91FF90EF90DF902F
:1004C000CF90BF90AF909F900C94DB160F9386E077
:1004D0008093100185E0809311016091D3027091A7
:1004E000D4028091D5029091D6020091220120E0A1
:1004F00044EF0E94250264E670E080E090E00E94F4
:10050000DB166091DF027091E0028091E102909130
:10051000E2020091220120E044EF0E94250264E6FD
:1005200070E080E090E00E94DB166091DB02709149
:10053000DC028091DD029091DE020091220120E038
:1005400044EF0E94250264E670E080E090E00E94A3
:10055000DB166091CF027091D0028091D102909110
:10056000D2020091220120E044EF0E94250264E6BD
:1005700070E080E090E00E94DB166091D7027091FD
:10058000D8028091D9029091DA020091220120E0F4
:1005900044EF0E94250264E670E080E090E00E9453
:1005A000DB166091CB027091CC028091CD029091CC
:1005B000CE020091220120E044EF0E9425020F911B
:1005C00008956F927F928F929F92AF92BF92CF9237
:1005D000DF92EF92FF920F931F93CF93DF931F92BF
:1005E000CDB7DEB74B015C01142FF02E29830E949A
:1005F0004D018093100183E0809311012981111135
:1006000001C01EE5211101C021E0612C712CC22E18
:10061000D12C6C147D04BCF40E2D2F2D412FC5015F
:10062000B4010E9425026091CB027091CC028091AE
:10063000CD029091CE022F2D412F0E9425028FEFE7
:10064000681A780AE6CF0F90DF91CF911F910F9132
:10065000FF90EF90DF90CF90BF90AF909F908F90E2
:100660007F906F9008956F927F928F929F92AF923A
:10067000BF92CF92DF92EF92FF920F931F93CF938F
:10068000DF931F92CDB7DEB74B015C01142FF02E24
:1006900029830E944D018093100182E08093110113
:1006A0002981111101C01EE5211101C021E0612C39
:1006B000712CC22ED12C0E2D2F2D412FC501B4012E
:1006C0006C147D0494F40E9425026091CB02709119
:1006D000CC028091CD029091CE022F2D412F0E940D
:1006E00025028FEF681A780AE6CF0E9425020F9044
:1006F000DF91CF911F910F91FF90EF90DF90CF90FE
:10070000BF90AF909F908F907F906F900895CF9201
:10071000DF92EF92FF920F931F93CF93DF9300D05E
:1007200000D0CDB7DEB780918B020E940D01C62E9E
:10073000182F00912201D0908C0220918E024091BE
:100740008F02E0908D02EE2089F08E2D29834A835E
:100750007B839C830E949E01F82E8E2D0E94A9010E
:10076000E82E29814A817B819C8102C0E02EF12CF8
:10077000D11002C020E005C081E0D81207C00E2DC4
:100780002F2D6C2D812F0E94250220C0E2E0DE1269
:1007900006C00F2D6C2D812F0E94330317C0F3E08C
:1007A000DF1206C00F2D6C2D812F0E94E1020EC0BA
:1007B00084E0D81206C00F2D6C2D812F0E94B2014B
:1007C00005C0E5E0DE1202C00E946602C092100180
:1007D000D09211010F900F900F900F90DF91CF9159
:1007E0001F910F91FF90EF90DF90CF9008951F938E
:1007F000CF93DF93182FC82FD0E0FE01E75FFE4FA5
:1008000080810E94E117FE01E058FD4F908198170A
:10081000E9F090911301813061F4808321E030E0B0
:10082000012E01C0220F0A94EAF7292B209313010D
:1008300011C0108221E030E0012E01C0220F0A9485
:10084000EAF7209529232093130103C081E091301A
:1008500009F080E0DF91CF911F9108951F93CF930E
:10086000DF93C9E0D1E010E08991833619F0812F40
:100870000E94F7031F5F1630B9F7DF91CF911F91E8
:100880000895CF92EF92FF920F931F93CF93DF9330
:1008900000D000D0CDB7DEB7882351F049835A830A
:1008A0006B837C830E942E047C816B815A814981F9
:1008B00080911B0190911C01A0911D01B0911E011E
:1008C000481759076A077B0729F125E0880F991F08
:1008D000AA1FBB1F2A95D1F7842B952BA62BB72BCC
:1008E00032E0C32E4FE0E42E41E0F42E08E020E099
:1008F000AC01BD018BE992E00E94CF120F900F90E6
:100900000F900F90DF91CF911F910F91FF90EF907B
:10091000CF900895409117015091180160911901ED
:1009200070911A012AE030E081E093E00E940C1BF4
:1009300064E271E081E093E00E94421A0FE011E06E
:10094000F1E007311F0781F0F80161918F014AE062
:1009500050E081E093E00E94191B64E271E081E0C5
:1009600093E00E94421AECCF81E093E00F900F9049
:100970000F900F90DF91CF911F910F91FF90EF900B
:10098000CF900C944B1ACF92DF92EF92FF920F937D
:100990001F93CF93DF937C0100E010E0C0E0D0E034
:1009A000C62ED12CCC15DD0574F4F7016081718160
:1009B000600F711F44E08DEB92E00E94C2132196FC
:1009C000085F1F4FEFCFDF91CF911F910F91FF90E5
:1009D000EF90DF90CF9008950F931F93CF93DF9305
:1009E0008C016FE371E081E093E00E94421AE8011C
:1009F00000E010E0699140E150E081E093E00E9466
:100A0000191B0730110531F066E571E081E093E0D4
:100A10000E94421A0F5F1F4F0830110559F761E419
:100A200071E081E093E0DF91CF911F910F910C94E1
:100A3000421ACF92DF92EF92FF920F931F93CF93C0
:100A4000DF937C01C62E64E471E081E093E00E94B4
:100A5000421A40E150E06C2D81E093E00E94191BA6
:100A60006BE471E081E093E00E944F1A00E010E037
:100A7000C0E0D0E0D12CCC15DD05E4F4219640E1B6
:100A800050E0BE0181E093E00E94041B65E571E047
:100A900081E093E00E94421AF70180819181800FEA
:100AA000911F0E94EC0481E093E00E944B1A085FC2
:100AB0001F4FE1CFDF91CF911F910F91FF90EF90EA
:100AC000DF90CF900895EF920F931F93CF93DF9312
:100AD00026E040E052EC61E070E081E093E00E94AB
:100AE000ED1868E571E081E093E00E94421A4091C0
:100AF0001B0150911C0160911D0170911E012AE0A3
:100B000030E081E093E00E94201B61E080910801C9
:100B10000E94721761E0809108010E94AB1761E0AA
:100B2000809107010E94721760E0809107010E9486
:100B3000AB1761E0809106010E94721760E080911E
:100B400006010E94AB1762E671E081E093E00E942B
:100B50004F1A83EE92E00E94D20B83EE92E00E9445
:100B60002F0C0E9466026091DF027091E00280917A
:100B7000E1029091E2020091220120E040E00E9417
:100B8000250260E771E081E093E00E944F1AC9E01E
:100B9000D1E010E08881833609F453C062E00E94FE
:100BA000721760E871E081E093E00E94421A4AE027
:100BB00050E0688181E093E00E94191B65E871E0D4
:100BC00081E093E00E94421A812F0E94F703682F70
:100BD00070E04AE050E081E093E00E94041B812F26
:100BE0000E94F703811112C06091DB027091DC0258
:100BF0008091DD029091DE0208E0E02E00E020E02E
:100C000040E00E94B20169E871E011C06091CF023A
:100C10007091D0028091D1029091D202B8E0EB2E77
:100C200000E020E040E00E94B2016FE871E081E066
:100C300093E00E944F1A6AEF70E080E090E00E941B
:100C4000DB1621961F5F163009F0A4CF0E94AD007D
:100C50006AE971E081E093E00E944F1A6AEA71E06C
:100C600081E093E00E94421A6BEB72E08DEB92E020
:100C70000E94D7138093BA028823F9F06091DB02B7
:100C80007091DC028091DD029091DE02A0E1EA2EFB
:100C90000091210120E040E00E94B2016091BA027F
:100CA0008BEB92E00E9419056091BA028BEB92E007
:100CB0000E94C3046CE871E012C06091CF02709191
:100CC000D0028091D1029091D202F0E1EF2E0091FA
:100CD000210120E040E00E94B20168EB71E081E078
:100CE00093E00E944F1A63EC71E081E093E00E9470
:100CF0004F1A64ED71E081E093E00E94421A68E0CF
:100D00008BE992E00E941611811167C000912101C8
:100D1000000F6091DB027091DC028091DD02909106
:100D2000DE02E8E1EE2E20E040E00E94B2016CE835
:100D300071E081E093E00E944F1A0FE110E020E0A3
:100D400030E040E060E08BE992E00E9431110FE179
:100D500010E020E030E040E061E08BE992E00E94AA
:100D6000311100911B0110911C0120911D01309146
:100D70001E0140E060E08BE992E00E948511009145
:100D80001B0110911C0120911D0130911E0140E0BA
:100D900062E08BE992E00E94851166EE71E081E0ED
:100DA00093E00E944F1A60ED77E080E090E00E94AF
:100DB000DB166091CB027091CC028091CD029091B4
:100DC000CE020091220120E040E00E942502DF9146
:100DD000CF911F910F91EF9008956AE072E081E04A
:100DE00093E00E944F1A00912101000F6091CF0201
:100DF0007091D0028091D1029091D20258E1E52EFB
:100E000020E040E00E94B20174CF811103C06093E2
:100E1000140112C081509091140121E030E0082E9D
:100E200001C0220F0A94EAF7613011F4292B02C0A5
:100E3000209529232093140140911401409560913D
:100E4000BB027091BC028DEB92E00C94B313EF9255
:100E50000F93909168028FEF890F873008F45DC07F
:100E600080916C02983079F5882309F456C060911E
:100E7000D7027091D8028091D9029091DA02E09065
:100E8000220100E021E040E00E94B2016091CF0227
:100E90007091D0028091D1029091D202E090220113
:100EA00021E040E00E94B2016091CB027091CC023F
:100EB0008091CD029091CE02E090220121E040E0AD
:100EC0000E94B20128C0882341F11092650210925D
:100ED00064021092670210926602109261021092F0
:100EE000600210926302109262026091CB027091D4
:100EF000CC028091CD029091CE020091220120E09F
:100F000040E00E94250260E080E00E940507109208
:100F10006D020E942E0410926C020F91EF900895C2
:100F2000EF920F939091680280916C02913029F5B5
:100F3000882309F498C06091DF027091E0028091EB
:100F4000E1029091E202E090220100E021E040E025
:100F50000E94B2016091D3027091D4028091D502B7
:100F60009091D602E090220121E040E00E94B2017F
:100F700010926C0210926B0276C0923019F58823A1
:100F800009F471C010926C0210926B02809166029B
:100F90009091670201969093670280936602809316
:100FA00016018091640280931501409117015091C0
:100FB00018016091190170911A0180E00F91EF9072
:100FC0000C944104973009F5882309F44CC04091F2
:100FD0001701509118016091190170911A0180E078
:100FE0000E9441046091CB027091CC028091CD02AD
:100FF0009091CE020091220120E040E00E94250263
:1010000060E080E00E9405072CC0882361F1109207
:1010100065021092640210926702109266021092AA
:1010200061021092600210926302109262021092AA
:101030001601109215016091CB027091CC02809143
:10104000CD029091CE020091220120E040E00E946A
:10105000250260E080E00E94050710926D020E9468
:101060002E0410926C020F91EF900895EF920F935F
:101070009091680280916C02913029F5882309F4DF
:101080009BC06091DF027091E0028091E10290913B
:10109000E202E090220100E021E040E00E94B20183
:1010A0006091CF027091D0028091D1029091D202D2
:1010B000E090220121E040E00E94B20110926C0217
:1010C00010926B0279C0923031F5882321F0109292
:1010D0006C0210926B0280916602909167028F3FC2
:1010E00091050CF069C001969093670280936602A7
:1010F000809316018091640280931501409117013D
:10110000509118016091190170911A0180E00F91BE
:10111000EF900C944104973009F5882309F44CC0F2
:1011200040911701509118016091190170911A01B5
:1011300080E00E9441046091CB027091CC028091CA
:10114000CD029091CE020091220120E040E00E9469
:10115000250260E080E00E9405072CC0882361F131
:101160001092650210926402109267021092660259
:101170001092610210926002109263021092620259
:1011800010921601109215016091CB027091CC0261
:101190008091CD029091CE020091220120E040E0AA
:1011A0000E94250260E080E00E94050710926D0217
:1011B0000E942E0410926C020F91EF9008950F93ED
:1011C0001F9300911B0110911C0120911D01309172
:1011D0001E018091860290918702A0918802B091B1
:1011E000890280179107A207B30761F08BE992E0AB
:1011F0000E944013F5E09695879577956795FA9547
:10120000D1F702C0BC01CD011F910F910895EF925B
:101210000F93CF93C82F64ED71E081E093E00E94BB
:10122000421A6C2F8BE992E00E941611811121C0A5
:1012300000912101000F6091DB027091DC0280912E
:10124000DD029091DE02B8E1EB2E20E040E00E944A
:10125000B2014AE050E06C2F81E093E00E94191B3C
:1012600069E871E081E093E0CF910F91EF900C94E9
:101270004F1A6AE072E081E093E00E944F1A0091F9
:101280002101000F6091CF027091D0028091D102B4
:101290009091D202A8E1EA2E20E040E00E94B20143
:1012A000CF910F91EF900895CF93DF9380918A02B1
:1012B000811109C00E94DF08AB01BC0181E0DF9110
:1012C000CF910C944104813021F4DF91CF910C94A3
:1012D0008703823061F480918B028093680291E0F1
:1012E00090936C0210926B028093120118C18330AC
:1012F00009F415C1843041F460918C0280918B0215
:10130000DF91CF910C940507853071F580916002D3
:1013100090916102019690936102809360020E9415
:10132000DF08AB01BC012AE030E081E093E00E94DD
:101330000C1B64E271E081E093E00E94421ACAE86B
:10134000D2E082E0C239D80709F4A8C069914AE026
:1013500050E081E093E00E94191B64E271E081E0BB
:1013600093E00E94421AEDCF8630A1F490918B0257
:1013700090936A0280918C0280936902963011F4F6
:101380000E94070980916A02893009F085E0809304
:101390000F01C5C0893009F087C08091600290912B
:1013A0006102019690936102809360020E94DF08BF
:1013B000AB01BC012AE030E081E093E00E940C1B0D
:1013C00064E271E081E093E00E94421A64E372E01B
:1013D00081E093E00E94421A64E271E081E093E0D0
:1013E0000E94421A60916202709163024AE050E0EA
:1013F00081E093E00E94041B64E271E081E093E0ED
:101400000E94421A60916002709161024AE050E0CD
:1014100081E093E00E94041B64E271E081E093E0CC
:101420000E94421A60916402709165024AE050E0A5
:1014300081E093E00E94041B64E271E081E093E0AC
:101440000E94421A60916602709167024AE050E081
:1014500081E093E00E94041B64E271E081E093E08C
:101460000E94421A4AE050E06091900281E093E0CD
:101470000E94191B64E271E081E093E00E94421A2D
:101480004AE050E06091910281E093E00E94191BD4
:1014900064E271E081E093E00E94421A81E093E00F
:1014A000DF91CF910C944B1A843629F561E080913D
:1014B00007010E94AB1764E670E080E090E00E94B4
:1014C000DB1660E0809107010E94AB1764E670E0D4
:1014D00080E090E00E94DB1661E0809107010E94AD
:1014E000AB1764E670E080E090E00E94DB1660E0FD
:1014F0008091070110C0853691F461E0809106016A
:101500000E94AB1768EE73E080E090E00E94DB166B
:1015100060E080910601DF91CF910C94AB17DF91D1
:10152000CF9108956091220170E023E04091230162
:1015300083EE92E00E94240D40E060E08091200163
:101540000E94910D6093DF027093E0028093E102AC
:101550009093E20240E06091200180E00E94910DB2
:101560006093DB027093DC028093DD029093DE02D5
:101570004091200160E080E00E94910D6093D702CD
:101580007093D8028093D9029093DA02809120015F
:10159000482F682F0E94910D6093D3027093D4025C
:1015A0008093D5029093D6028091200140E0682F6D
:1015B0000E94910D6093CF027093D0028093D1026C
:1015C0009093D20240E060E080E00E94910D609331
:1015D000CB027093CC028093CD029093CE0267E051
:1015E0008DEB92E00E94461360911F018BE992E01F
:1015F0000C94081183EE92E00C94BE0BEF92FF92D4
:101600000F93CF93DF938BE992E00E9438138330DE
:10161000A1F44AE852E062E972E08BE992E00E94AC
:101620000213809164029091650201969093650285
:10163000809364020E945409E6CF80916E02882351
:1016400019F110926E028091860290918702A0910A
:101650008802B091890240911B0150911C01609158
:101660001D0170911E0184179507A607B707A9F4FD
:10167000E3E9F2E0AAE8B2E081918D9382E0EB39F0
:10168000F807D1F70E945409D4E2C1E081E093E069
:101690000E940A18892B09F54CC0209166023091EE
:1016A00067022F5F3F4F3093670220936602C5E0C9
:1016B000440F551F661F771FCA95D1F7482B592B2A
:1016C0006A2B7B2BD3E9ED2ED2E0FD2E08E020E043
:1016D0008BE992E00E94BF12D7CF81E093E00E9495
:1016E0002318843229F480936F02C0937F02CECFF7
:1016F000D0936F028A3071F48091620290916302FC
:10170000019690936302809362020E94C500C09389
:101710006E02BCCFE0917F02AE2FB0E0A159BD4F69
:101720008C93EF5FE0937F02F0E0E159FD4F108270
:10173000ADCF80916A028930A1F480916902853031
:1017400039F4DF91CF910F91FF90EF900C949007B7
:10175000863071F4DF91CF910F91FF90EF900C9450
:101760003608DF91CF910F91FF90EF900C942707EF
:10177000DF91CF910F91FF90EF900895CF93DF937A
:10178000EC0188859985009711F00E94F31B8D81EB
:1017900087FD05C060E0DF91CF910C947217DF9157
:1017A000CF910895CF93DF93EC018D8187FD07C022
:1017B00061E00E94721760E08D810E94AB1781E0AA
:1017C0008883DF91CF910895EF92FF920F931F933B
:1017D000CF93DF93EC017B0188859985009711F009
:1017E0000E94F31B8701000F111F0E0D1F1D1C838C
:1017F0000B83C8010E945B1B99878887009741F083
:10180000A80160E070E00E94A51CFA82E98204C091
:101810001C821B821A821982DF91CF911F910F9136
:10182000FF90EF900895FC01668360FF04C081E0A3
:101830008287138611C062FF06C081E0828782E042
:10184000838714860895128663FF04C082E083872D
:1018500081E003C081E0838782E084870895CF928E
:10186000DF92EF92FF920F931F93CF93DF93CDB749
:10187000DEB729970FB6F894DEBF0FBECDBF8C013F
:10188000DC0118968D919C911997892B09F49BC0C6
:101890000E94B816F801C584D684E784F0886C19D4
:1018A0007D098E099F09623371058105910580F3D9
:1018B000F894838194819A838983A085B1857D0181
:1018C000EFEFEE1AFE0A8C918987D80116969C914B
:1018D000169751960D90BC91A02DF801838991FF28
:1018E0002EC09C91982B98879C91809589238F83FB
:1018F0008F818E8388E08D8358856F8149853D81F6
:101900002E8189819A81F7015C9347FD252F3A95B5
:101910002C93262F39F0441F00C000006C93000068
:1019200000C0F2CF38E041916C930000019761F75D
:10193000F801B28BA18B49873D832E8338C09C91DF
:10194000982B98879C91809589238F838F818C8396
:1019500088E08B8358856F8149853B812C81898103
:101960009A81F7015C9347FD252F00C000C02C939E
:1019700000C000C000C000C000C06C930000262F53
:101980003A9541F0441F000000C000C000C000C0F4
:1019900000C0E8CF38E0419100C06C9300C00197CF
:1019A00009F7F801B28BA18B49873B832C839A837B
:1019B000898378940E94B816D8011D966D937D9303
:1019C0008D939C93509729960FB6F894DEBF0FBE67
:1019D000CDBFDF91CF911F910F91FF90EF90DF90DE
:1019E000CF9008951F93CF93DF93EC01162F88813A
:1019F000882331F08D8187FD03C060E00E9472175B
:101A00001D838881882341F061E0812F0E94721735
:101A100060E0812F0E94AB17812F90E0FC01EE5413
:101A2000FF4FE491F0E0EE0FFF1FE053FF4F2591D1
:101A300034913A8B298BFC01E256FF4F84918B8BBA
:101A4000DF91CF911F9108950F931F93CF93DF9351
:101A500000D0CDB7DEB78C01FC0110821782118651
:101A60001086158616861786108A2A8349830E9457
:101A7000E40B4981642FC8010E94F20C2A81622F75
:101A8000C8010F900F90DF91CF911F910F910C948F
:101A9000130CCF92DF92EF92FF920F931F93CF938D
:101AA000DF93FC01818192816817790788F5CA016B
:101AB000AA27BB27082FC32ED42EE52EFF241C2DCA
:101AC000D22FC781CC2361F08C9FC0011124092F34
:101AD000CC9E600111241D2D2C9F90011124D32F29
:101AE0009B01220F331F260F371F80859185820FA0
:101AF000931F2285DC01A20FB11D0C932385DC010D
:101B0000A20FB11D1C932485FC01E20FF11DD083AF
:101B1000DF91CF911F910F91FF90EF90DF90CF90C9
:101B20000895962F50E060E070E0592B682BCB01B0
:101B3000BA0108958EBD00000DB407FEFDCF8EB52D
:101B40000895CF93DF93EC0160E088890E94AB1782
:101B500080EC0E949A0D61E088890E94AB176AE0D0
:101B600070E080E090E0DF91CF910C94DB161F9342
:101B7000CF93DF93EC01162F60E088890E94AB17AA
:101B800083E00E949A0D812F0E949A0D80E00E94AE
:101B90009A0D182F61E088890E94AB17812FDF9181
:101BA000CF911F910895CF92DF92EF92FF920F9302
:101BB0001F93CF93DF9300D0CDB7DEB78C01F62E05
:101BC000E22E60E0FC01808949835A830E94AB17B2
:101BD00083E00E949A0D8F2D0E949A0D4981C42E98
:101BE0005A81D52EF12CFE1459F0F8E0FF1641F081
:101BF00080E00E949A0DF60181936F01F394F3CF78
:101C000061E0F80180890F900F90DF91CF911F91D3
:101C10000F91FF90EF90DF90CF900C94AB17EF9265
:101C2000FF921F93CF93DF931F92CDB7DEB77C0156
:101C3000162F60E0FC01808949830E94AB1782E087
:101C40000E949A0D812F0E949A0D4981842F0E9433
:101C50009A0D61E0F70180890F90DF91CF911F917C
:101C6000FF90EF900C94AB17CF92DF92EF92FF9220
:101C70000F931F93CF93DF9300D0CDB7DEB78C01C6
:101C8000E62EF22E60E0FC01808949835A830E948F
:101C9000AB1782E00E949A0D8E2D0E949A0D498109
:101CA000E42EC42E5A81D52E8C2D8E198F1530F42A
:101CB000F60181916F010E949A0DF6CF61E0F80163
:101CC00080890F900F90DF91CF911F910F91FF901E
:101CD000EF90DF90CF900C94AB17EF92FF921F9391
:101CE000CF93DF9300D0CDB7DEB77C01162F60E035
:101CF000FC0180892A8349830E94AB1785E00E94FA
:101D00009A0D812F0E949A0D4981842F0E949A0D6D
:101D10002A81822F0E949A0D61E0F70180890F903D
:101D20000F90DF91CF911F91FF90EF900C94AB1724
:101D30001F93CF93DF93EC0160E088890E94AB177B
:101D400080EA0E949A0D80E00E949A0D182F61E0AF
:101D500088890E94AB17812FDF91CF911F91089541
:101D60001F93CF93DF93EC01162F262F40EE6FE0E9
:101D70000E946D0E6FE0CE010E94B70D982F907EED
:101D800081E0911301C080E0DF91CF911F91089510
:101D90000F931F93CF93DF93EC01462F50E0FA018E
:101DA0003197E131F105C0F5EC5CFF4F0C94551B08
:101DB00017E80FEF05C017E00AEB02C015E801EFC6
:101DC0004FE033C017E00EEB49E02FC017E80FEFEC
:101DD00002C017E80AEF47E028C017E80FEF0BC072
:101DE00017E00EEB08C017E00DEA05C017E80AEF90
:101DF00002C016E800EF43E018C017E80AEF41E020
:101E000014C015E801EF41E410C016E800EF02C06D
:101E100012E800ED40E009C081E016C017E80FEFBE
:101E20004FE303C017E80FEF4FE16AE2CE010E94D3
:101E30000F0E402F69E2CE010E940F0E412F68E283
:101E4000CE010E940F0E80E0DF91CF911F910F9184
:101E500008951F93CF93DF93EC0110E340E0612FCF
:101E6000CE010E940F0E60E1610F40E0CE010E94A2
:101E70000F0E60E2610F40E0CE010E940F0E1F5F67
:101E80001E3361F740E060E6CE010E940F0E40E095
:101E900060E7CE01DF91CF911F910C940F0E0F934D
:101EA0001F93CF93DF93EC01062F0E94A10D60E8F2
:101EB000CE010E94B00E182F6AE070E080E090E042
:101EC00011110CC00E94DB16602FCE010E94C80EBB
:101ED000882339F06AE070E080E090E00E94DB1631
:101EE00028C06AE070E080E090E00E94DB16CE013E
:101EF0000E94290F43E06BE2CE010E940F0E24E006
:101F000044E660E6CE010E946D0E20E040E660E708
:101F1000CE010E946D0E60E0CE010E94B00EC82F6F
:101F20008823C1F26AE070E080E090E00E94DB1656
:101F30001C2F812FDF91CF911F910F9108950F9347
:101F40001F93CF93DF9300D000D0CDB7DEB74130E1
:101F5000B1F40C831B83890122273327502F5C7136
:101F6000402F437078E0579F400D112448604A830A
:101F700055E0169507955A95E1F709830DC0A8011C
:101F800023E0569547952A95E1F749830295000F7E
:101F9000007E0A831C821B8224E0AE014F5F5F4FEC
:101FA0000E94340E0F900F900F900F90DF91CF9101
:101FB0001F910F910895EF92FF920F931F93CF936C
:101FC000DF9300D000D0CDB7DEB77A018901FA01E6
:101FD0001082F901108211821282138224E0AE0174
:101FE0004F5F5F4F0E94D30D2A813981822F90E08D
:101FF00045E0959587954A95E1F7F8E03F9F800D7C
:10200000911D1124AA2797FDA095BA2FF80180836E
:102010009183A283B38323FF25C062E0880F991FB9
:10202000AA1FBB1F6A95D1F72370820F911DA11DB6
:10203000B11DBA2FA92F982F88272B81820F911DB0
:10204000A11DB11DBA2FA92F982F88272C81820F8F
:10205000911DA11DB11D80839183A283B38381E073
:10206000F70180830F900F900F900F90DF91CF9129
:102070001F910F91FF90EF900895FF920F931F9380
:10208000CF93DF93EC01F62EAC014A5F5F4F65E022
:102090006F0D2D810E94340E8E85813019F48D8153
:1020A00080648D8364E06F0D4D81CE010E940F0E20
:1020B00009811A812B813C8148816F2DCE010E94BC
:1020C0009F0FDF91CF911F910F91FF9008950F9374
:1020D0001F93CF93DF93EC01162F9C012F5F3F4F8F
:1020E000AC010E94DB0F6FEF610FCE010E94B70DB4
:1020F000082F64E0610FCE010E94B70D282F8D8359
:1021000003FF03C081E08E8701C01E862F702D83E0
:10211000AE014A5F5F4F65E0610FCE01DF91CF9165
:102120001F910F910C94D30D615028E048E00C945E
:102130006D0E9F92AF92BF92CF92DF92EF92FF927D
:102140000F931F93CF93DF9300D01F92CDB7DEB7CD
:102150006C017B0180E3898380E48A8380E58B8343
:10216000FB0110828E010F5F1F4F5E01F4E0AF0E86
:10217000B11CF80191908F01692DC6010E94B70D25
:10218000982F987083FD04C09394F701908204C047
:102190000A151B0571F792E0892F0F900F900F9091
:1021A000DF91CF911F910F91FF90EF90DF90CF9033
:1021B000BF90AF909F900895FF920F931F93CF937E
:1021C000DF9300D01F92CDB7DEB78B0120E32983C8
:1021D00020E42A8320E52B83FB011082FE01E40F1B
:1021E000F11DF1806F2D0E94B70D982F987083FD1F
:1021F00004C0F394F801F08201C092E0892F0F909F
:102200000F900F90DF91CF911F910F91FF90089544
:10221000CF93DF93EC01862F688B61E00E947217E9
:1022200061E08889DF91CF910C94AB17CF93DF9356
:1022300000D01F92CDB7DEB76B8389839A830E944B
:1022400038166B8189819A810E944F0F91E081112C
:1022500001C090E0892F0F900F900F90DF91CF91E8
:1022600008958F929F92BF92CF92DF92EF92FF924A
:102270000F931F93CF93DF931F92CDB7DEB74C011F
:10228000B62E680179016AE070E080E090E0498351
:102290000E94DB1660E8C4010E94B00E182F49812D
:1022A000882329F06AE070E080E090E01AC0B11065
:1022B00004C09701860160E206C081E0B81206C042
:1022C0009701860164E2C4010E949F0F60E0C4018F
:1022D0000E94B00E182F6AE070E080E090E01123B9
:1022E00021F00E94DB16812F03C00E94DB1680E0E4
:1022F0000F90DF91CF911F910F91FF90EF90DF90A2
:10230000CF90BF909F908F900895AF92BF92CF9241
:10231000DF92EF92FF920F931F93CF93DF9300D042
:10232000CDB7DEB75C01562F680179016AE070E035
:1023300080E090E04A8359830E94DB1660E8C50183
:102340000E94B00E182F4A815981882329F06AE033
:1023500070E080E090E031C05230B1F040F455239D
:1023600079F05130F9F49701860164E018C05430D7
:1023700099F070F05530B1F49701860168E10FC013
:102380009701860160E00BC09701860168E007C0F5
:102390009701860160E103C09701860164E1C501F0
:1023A0000E949F0F60E0C5010E94B00E182F6AE0E6
:1023B00070E080E090E0112321F00E94DB16812F75
:1023C00003C00E94DB1680E00F900F90DF91CF9149
:1023D0001F910F91FF90EF90DF90CF90BF90AF9043
:1023E0000895CF92DF92EF920F931F93CF93DF93D5
:1023F000FC0120834183528363837483093008F096
:1024000008E00583E686D60180E090E010E08017C2
:1024100091073CF42D91EF01C80FD91F2E8301962F
:10242000F6CF80E0DF91CF911F910F91EF90DF9079
:10243000CF900895CF92DF92EF92FF920F936701B2
:10244000E12C0E94F1110F91FF90EF90DF90CF905F
:102450000895EF92FF920F931F93CF93DF931F92F4
:10246000CDB7DEB78C01E12CF12CBE016F5F7F4F41
:10247000C8010E9499109FEFE91AF90A823029F4E5
:1024800082E3E816F10489F724C092E3E916F10427
:1024900001F16981C8010E943D106981C8010E9453
:1024A0009410E12CF12C8FEFE81AF80A6981615041
:1024B000C8010E94B70D83FF06C092E3E916F1043C
:1024C00091F787E007C082E3E816F104D1F380E0DA
:1024D00001C086E00F90DF91CF911F910F91FF9087
:1024E000EF900895DF92EF92FF920F931F93CF9397
:1024F000DF931F92CDB7DEB78C01D62EE12CF12CE5
:102500004D2DBE016F5F7F4FC8010E94DC109FEF11
:10251000E91AF90A823029F482E3E816F10481F716
:1025200024C092E3E916F10401F16981C8010E9417
:102530003D106981C8010E949410E12CF12C8FEFAD
:10254000E81AF80A69816150C8010E94B70D83FF3B
:1025500006C092E3E916F10491F787E007C082E331
:10256000E816F104D1F380E001C086E00F90DF911E
:10257000CF911F910F91FF90EF90DF900895EF9210
:10258000FF920F93CF93DF93EC010E941A12CE01BA
:10259000DF91CF910F91FF90EF900C942912CF9281
:1025A000EF92FF920F93CF93DF93EC010E941A12E8
:1025B0006C2DCE01DF91CF910F91FF90EF90CF90D6
:1025C0000C947212CF93DF93EC010E94980E80FF5F
:1025D00007C061E6CE010E94671020E041E008C01C
:1025E00081FF0CC061E7CE010E94671020E042E04D
:1025F0006CE2CE010E946D0E80E001C084E0DF91AC
:10260000CF910895EF92FF920F931F93CF93DF9393
:1026100000D0CDB7DEB77C018B0149835A830E947D
:10262000E21249815A81811118C0D70115969C91F7
:10263000F8019083FA0120E030E0D70115964C9123
:1026400050E0241735075CF4D701A20FB31F16968C
:102650009C9191932F5F3F4FF0CFF80110820F9024
:102660000F90DF91CF911F910F91FF90EF90089500
:102670000E94980E837011F083E0089584E008951D
:10268000FC01618172818381948108950C947D1590
:10269000EF92FF920F931F93CF93DF931F92CDB7CB
:1026A000DEB77C01162F042F41E06CEC79830E9489
:1026B000E01441E0612FC7010E94E01441E07981FC
:1026C000672FC7010E94E01441E0602FC7010F90FF
:1026D000DF91CF911F910F91FF90EF900C94E01438
:1026E0001F93CF93DF93EC01162F411104C041E0FB
:1026F0006AE50E94E01441E0612FCE010E94E014DF
:1027000041E0612F6095CE010E94E014CE010E944D
:1027100022158A3A39F4CE010E942215811302C093
:1027200081E001C080E0DF91CF911F910895462F95
:102730006DE870E00C9448130F931F93CF93DF93D1
:1027400000D0CDB7DEB78C0169837A830E94431431
:1027500069817A81C8010F900F90DF91CF911F910D
:102760000F910C943E151F93CF93DF93EC01142F20
:102770000E949C1340E0612FCE01DF91CF911F9109
:102780000C9470130F931F93CF93DF931F92CDB7C9
:10279000DEB78C0149830E949C134981642FC801D4
:1027A0000F90DF91CF911F910F910C9497137F920F
:1027B0008F929F92AF92BF92CF92DF92EF92FF9251
:1027C0000F931F93CF93DF93CDB7DEB728970FB644
:1027D000F894DEBF0FBECDBF8C014B01712CBE0142
:1027E0006F5F7F4FC8010E94A015882359F089812F
:1027F0008932A9F766E372E081E093E00E944F1A04
:102800007394EDCFC8010E946B156AEF70E080E011
:1028100090E00E94DB16A72CB12CC50123E0880FA5
:10282000991F2A95E1F70E945B1BF4019183808335
:10283000C12CD12CE12CF12CEA14FB047CF4F40122
:10284000608171816C0D7D1DC8010E94A015FFEF94
:10285000EF1AFF0A88E0C80ED11CEECF872D28960C
:102860000FB6F894DEBF0FBECDBFDF91CF911F91A1
:102870000F91FF90EF90DF90CF90BF90AF909F901F
:102880008F907F900895FF920F931F93CF93DF93C4
:10289000FC010081C181D281F8948981F02EF094ED
:1028A0008F21898378941DE7115029F182E090E00F
:1028B0000E94031788818023B9F3F8948A818F21BD
:1028C0008A838981802B8983789484EF91E00E94A8
:1028D0000317F89489818F21898380E590E00E9415
:1028E00003178881802311E009F010E0789484EACE
:1028F00091E00E940317812FDF91CF911F910F91DB
:10290000FF9008951F93CF93DF93FC011081C18145
:10291000D281912F909560FF12C0F8948A8189230B
:102920008A838981812B89838AE090E00E94031742
:102930008A81812B8A83789487E390E011C0F89490
:102940008A8189238A838981812B898381E490E02C
:102950000E9403178A81812B8A83789485E090E016
:10296000DF91CF911F910C9403170F931F93CF9377
:10297000DF93FC011081C181D281F8948981812B80
:1029800089838A81012F009580238A8383E090E0E8
:102990000E9403178981802389838AE090E00E9446
:1029A0000317C881789485E390E00E9403171C23E5
:1029B00081E009F480E0DF91CF911F910F9108959C
:1029C000CF92DF92EF92FF920F931F93CF93DF93FB
:1029D0001F92CDB7DEB76C01E62E08E010E0FF24B1
:1029E000F39461E09F2D9E2109F460E0C6014983C4
:1029F0000E948214FF0C0150110949810115110533
:102A000081F7411115C0F894D6011196ED91FC9112
:102A1000129791818C918095892381831196ED91F4
:102A2000FC91129792818C9180958923828378946E
:102A30000F90DF91CF911F910F91FF90EF90DF905A
:102A4000CF900895EF92FF920F931F93CF93DF9350
:102A50008C01C8E0D0E0F12CEE24E394C8010E9480
:102A6000B5148111FE28EE0C2197C1F78F2DDF914F
:102A7000CF911F910F91FF90EF900895CF92DF9229
:102A8000EF92FF920F931F93CF93DF931F92CDB7D7
:102A9000DEB77C01162F40E065E579830E94E014E3
:102AA000C12E7981D72E00E010E0F60161916F010F
:102AB00040E0C7010E94E0140F5F1F4F083011056E
:102AC000A1F70F90DF91CF911F910F91FF90EF90A1
:102AD000DF90CF900895FC0113861586148627E0B9
:102AE00030E0DF01A20FB31F13961C9221153105B0
:102AF00019F021503109F5CF08951F93CF93DF933B
:102B0000EC01162F60E0812F0E947217612F70E098
:102B1000FB01E256FF4FE491E883FB01EE54FF4FC7
:102B2000E491F0E0EE0FFF1FEA53FF4F859194917F
:102B30009A838983CE01DF91CF911F910C946B15FD
:102B4000AF92BF92CF92DF92EF92FF920F931F93BB
:102B5000CF93DF931F92CDB7DEB75C01E62ED72E61
:102B6000FC01858581115DC0C5010E94431481115E
:102B700005C0F5011386158614866EC040E060EF2F
:102B8000C5010E94E01401E0F12CC12C11E0C50147
:102B90000E94B514682FC50169830E94B51469812C
:102BA000613019F48130B9F433C02F2D30E068134F
:102BB0001BC0F5018385181730F4E20FF31F8381E2
:102BC000802349F402C0181731F060E0193058F43E
:102BD000F501148708C0F501EF0DF11D8381802BED
:102BE000838361E009C0C12EF501E20FF31F8381E9
:102BF000902F909589238383C5010E9482141F5FC3
:102C0000000F11F4F39401E0F7E0FF1508F0BFCFD7
:102C1000113438F0F501C386C11018C081E08587F2
:102C200015C0F50113861586148680E0EE2DFD2D66
:102C300020E030E0D501A20FB31F13969C91919331
:102C40002F5F3F4F28303105A9F706C0F50183817A
:102C5000882339F381E0EACF0F90DF91CF911F9164
:102C60000F91FF90EF90DF90CF90BF90AF900895BD
:102C7000CF93CFB7F8948091F702811127C0ECEB86
:102C8000F0E08491E8EAF0E09491E82FF0E0EE0FB4
:102C9000FF1FE652FF4FA591B4918C91892321F437
:102CA00061E08AE00E94AB1761E08AE00E9472173F
:102CB0008CB580618CBD8CB580648CBD61E08DE08D
:102CC0000E94721761E08BE00E9472178091F702F8
:102CD0008F5F8093F702CFBFCF9108951F920F921D
:102CE0000FB60F9211242F933F938F939F93AF931F
:102CF000BF938091F9029091FA02A091FB02B091EA
:102D0000FC023091F80223E0230F2D3720F40196C6
:102D1000A11DB11D05C026E8230F0296A11DB11DFE
:102D20002093F8028093F9029093FA02A093FB0299
:102D3000B093FC028091FD029091FE02A091FF02EF
:102D4000B09100030196A11DB11D8093FD029093E7
:102D5000FE02A093FF02B0930003BF91AF919F9139
:102D60008F913F912F910F900FBE0F901F9018954C
:102D70003FB7F8948091FD029091FE02A091FF026E
:102D8000B091000326B5A89B05C02F3F19F001960E
:102D9000A11DB11D3FBF6627782F892F9A2F620F83
:102DA000711D811D911D42E0660F771F881F991FBD
:102DB0004A95D1F70895CF92DF92EF92FF92CF9389
:102DC000DF936B017C010E94B816EB01C114D104A2
:102DD000E104F10489F00E94321B0E94B8166C1BBA
:102DE0007D0B683E734090F381E0C81AD108E1087A
:102DF000F108C851DC4FEACFDF91CF91FF90EF90FF
:102E0000DF90CF9008958230910538F0880F991F98
:102E1000880F991F05970197F1F70895789484B565
:102E2000826084BD84B5816084BD85B5826085BDC6
:102E300085B5816085BDEEE6F0E0808181608083AC
:102E4000E1E8F0E01082808182608083808181608F
:102E50008083E0E8F0E0808181608083E1EBF0E056
:102E6000808184608083E0EBF0E0808181608083FA
:102E7000EAE7F0E0808184608083808182608083E3
:102E80008081816080838081806880831092C1000E
:102E90000895833081F028F4813099F08230A1F0D8
:102EA00008958730A9F08830B9F08430D1F480914A
:102EB00080008F7D03C0809180008F778093800099
:102EC000089584B58F7702C084B58F7D84BD089541
:102ED0008091B0008F7703C08091B0008F7D809388
:102EE000B0000895CF93DF9390E0FC01E256FF4FCE
:102EF0002491FC01EE54FF4F8491882349F190E026
:102F0000880F991FFC01E652FF4FA591B4918053A1
:102F10009F4FFC01C591D4919FB7611108C0F894EF
:102F20008C91209582238C93888182230AC0623001
:102F300051F4F8948C91322F309583238C938881AF
:102F4000822B888304C0F8948C91822B8C939FBF32
:102F5000DF91CF9108950F931F93CF93DF931F922B
:102F6000CDB7DEB7282F30E0F901E657FF4F849147
:102F7000F901E256FF4F1491F901EE54FF4F04910D
:102F80000023C9F0882321F069830E9449176981D1
:102F9000E02FF0E0EE0FFF1FE053FF4FA591B4913B
:102FA0009FB7F8948C91611103C01095812301C0E3
:102FB000812B8C939FBF0F90DF91CF911F910F9129
:102FC0000895CF93DF93282F30E0F901E657FF4FA4
:102FD0008491F901E256FF4FD491F901EE54FF4F6D
:102FE000C491CC2391F081110E944917EC2FF0E09D
:102FF000EE0FFF1FEA53FF4FA591B4912C912D23A3
:1030000081E090E021F480E002C080E090E0DF9178
:10301000CF910895FC01818D228D90E0805C9F4FBF
:10302000821B91098F7399270895FC01918D828DE0
:10303000981731F0828DE80FF11D858D90E008958D
:103040008FEF9FEF0895FC01918D828D981761F0AD
:10305000828DDF01A80FB11D5D968C91928D9F5FCF
:103060009F73928F90E008958FEF9FEF089587EA06
:1030700099E1892B49F080E090E0892B29F00E94AA
:10308000A71981110C9400000895FC01848DDF01C3
:10309000A80FB11DA35ABF4F2C91848D90E00196CB
:1030A0008F739927848FA689B7892C93A089B189BA
:1030B0008C9180648C93938D848D981306C00288C4
:1030C000F389E02D80818F7D80830895CF93DF93F6
:1030D000EC01888D8823C9F0EA89FB89808185FD10
:1030E00005C0A889B9898C9186FD0FC00FB607FC71
:1030F000F5CF808185FFF2CFA889B9898C9185FFB2
:10310000EDCFCE010E944518E7CFDF91CF91089512
:10311000CF92DF92FF920F931F93CF93DF931F9273
:10312000CDB7DEB76C0181E0D60158968C935897E5
:103130005B969C915B975C968C915C97981307C00B
:103140005096ED91FC915197808185FD2EC0F6013E
:10315000038D10E00F5F1F4F0F731127F02EF60144
:10316000848DF81211C00FB607FCF9CFD601509626
:10317000ED91FC915197808185FFF1CFC601698364
:103180000E9445186981EBCF838DE80FF11DE35A4A
:10319000FF4F6083D6015B960C935B975296ED913F
:1031A000FC915397808180620CC0D6015696ED91B8
:1031B000FC91579760835096ED91FC9151978081D7
:1031C0008064808381E090E00F90DF91CF911F9128
:1031D0000F91FF90DF90CF900895BF92CF92DF9232
:1031E000EF92FF92CF93DF93EC016A017B01B22E45
:1031F000E889F98982E08083411581EE58076105ED
:103200007105A1F060E079E08DE390E0A7019601FF
:103210000E94331B215031094109510956954795A8
:1032200037952795211580E1380798F0E889F989C5
:10323000108260E874E88EE190E0A70196010E9498
:10324000331B21503109410951095695479537954E
:103250002795EC85FD853083EE85FF852083188ECC
:10326000EC89FD89B082EA89FB8980818061808355
:10327000EA89FB89808188608083EA89FB89808173
:1032800080688083EA89FB8980818F7D8083DF91DC
:10329000CF91FF90EF90DF90CF90BF9008951F9255
:1032A0000F920FB60F9211242F938F939F93EF934A
:1032B000FF93E0911103F09112038081E0911703D5
:1032C000F091180382FD12C0908180911A038F5FE4
:1032D0008F7320911B03821751F0E0911A03F0E0E5
:1032E000EF5FFC4F958F80931A0301C08081FF919F
:1032F000EF919F918F912F910F900FBE0F901F9084
:1033000018951F920F920FB60F9211242F933F938F
:103310004F935F936F937F938F939F93AF93BF93DD
:10332000EF93FF9381E093E00E944518FF91EF91A6
:10333000BF91AF919F918F917F916F915F914F91CD
:103340003F912F910F900FBE0F901F90189581E025
:1033500093E00E940A1821E0892B09F420E0822FD3
:103360000895109204031092030388EE93E0A0E006
:10337000B0E08093050390930603A0930703B093F6
:10338000080382E492E0909302038093010385ECAA
:1033900090E090930E0380930D0384EC90E0909363
:1033A000100380930F0380EC90E0909312038093BE
:1033B000110381EC90E0909314038093130382EC4B
:1033C00090E0909316038093150386EC90E0909321
:1033D00018038093170310921A0310921B03109284
:1033E0001C0310921D03089508950E940E170E9459
:1033F000F4190E946305C7E3D8E10E94FE0A2097F2
:10340000E1F30E943718F9CFCF92DF92EF92FF924B
:103410000F931F93CF93DF936C017A01EB01E60EBC
:10342000F71E00E010E0CE15DF0561F06991D601CE
:10343000ED91FC910190F081E02DC6010995080FF6
:10344000191FF1CFC801DF91CF911F910F91FF900C
:10345000EF90DF90CF9008956115710581F0DB0149
:103460000D900020E9F7AD0141505109461B570B63
:10347000DC01ED91FC910280F381E02D099480E064
:1034800090E008950C942C1ADC01ED91FC910190D0
:10349000F081E02D09946EE472E00C942C1A0F93E5
:1034A0001F93CF93DF93EC010E942C1A8C01CE0165
:1034B0000E944B1A800F911FDF91CF911F910F91A6
:1034C00008958F929F92AF92BF92CF92DF92EF9228
:1034D000FF920F931F93CF93DF93CDB7DEB7A197E2
:1034E0000FB6F894DEBF0FBECDBF7C01C42EE52F12
:1034F000CB01D22E19A221E02D1510F02AE0D22EF8
:103500008E010F5D1F4F8D2C912CA12CB12C6C2D99
:103510007E2FA50194010E94331B8C2DD29E801911
:103520001124015011098A3014F4805D01C0895CB6
:10353000F8018083211531054105510521F0C22E86
:10354000E32FCA01E4CFB801C7010E942C1AA1964B
:103550000FB6F894DEBF0FBECDBFDF91CF911F91A4
:103560000F91FF90EF90DF90CF90BF90AF909F9022
:103570008F900895CF92DF92EF92FF920F931F9357
:10358000CF93DF93EC016A017B012115310579F4BA
:10359000E881F9810190F081E02D642FDF91CF91D6
:1035A0001F910F91FF90EF90DF90CF9009942A30F8
:1035B0003105E9F477FF1AC06DE20E94441A8C01CC
:1035C00044275527BA014C195D096E097F092AE085
:1035D000CE010E94611A800F911FDF91CF911F9140
:1035E0000F91FF90EF90DF90CF9008952AE0B70100
:1035F000A601CE01DF91CF911F910F91FF90EF9027
:10360000DF90CF900C94611A9A01AB01662757FDA9
:103610006095762F0C94BA1A2115310541F4DC011E
:10362000ED91FC910190F081E02D642F09940C94B0
:10363000611A9A01462F50E060E070E00C940C1B78
:103640000F931F93CF93DF93EC010E940C1B8C010F
:10365000CE010E944B1A800F911FDF91CF911F91D5
:103660000F9108950895A1E21A2EAA1BBB1BFD011C
:103670000DC0AA1FBB1FEE1FFF1FA217B307E40751
:10368000F50720F0A21BB30BE40BF50B661F771FA9
:10369000881F991F1A9469F7609570958095909589
:1036A0009B01AC01BD01CF010895EE0FFF1F0590F6
:1036B000F491E02D0994CF93DF938230910510F4BB
:1036C00082E090E0E091A003F091A10320E030E0DF
:1036D000A0E0B0E0309739F1408151814817590797
:1036E000B8F04817590771F482819381109729F037
:1036F00013969C938E9312972CC09093A103809362
:10370000A00327C02115310531F04217530718F0E7
:10371000A901DB0101C0EF019A01BD01DF010280B7
:10372000F381E02DD7CF21153105F9F0281B390B96
:103730002430310580F48A819B816115710521F067
:10374000FB019383828304C09093A1038093A00321
:10375000FE01329644C0FE01E20FF31F8193919364
:1037600022503109398328833AC020919E03309139
:103770009F03232B41F420910201309103013093E8
:103780009F0320939E032091000130910101211598
:10379000310541F42DB73EB7409104015091050128
:1037A000241B350BE0919E03F0919F03E217F30772
:1037B000A0F42E1B3F0B2817390778F0AC014E5FA1
:1037C0005F4F2417350748F04E0F5F1F50939F033C
:1037D00040939E038193919302C0E0E0F0E0CF011B
:1037E000DF91CF910895CF93DF93009709F487C0BD
:1037F000FC01329713821282C091A003D091A103E1
:10380000209781F420813181280F391F80919E03F8
:1038100090919F038217930779F5F0939F03E093AC
:103820009E036DC0DE0120E030E0AE17BF0750F40C
:1038300012964D915C9113979D014115510509F127
:10384000DA01F3CFB383A28340815181840F951FA6
:103850008A179B0771F48D919C911197840F951F86
:1038600002969183808312968D919C9113979383F6
:1038700082832115310529F4F093A103E093A0037D
:103880003EC0D9011396FC93EE9312974D915D9132
:10389000A40FB51FEA17FB0779F480819181840F8B
:1038A000951F0296D90111969C938E9382819381E4
:1038B00013969C938E931297E0E0F0E08A819B81AF
:1038C000009719F0FE01EC01F9CFCE010296288194
:1038D0003981820F931F20919E0330919F032817F7
:1038E000390769F4309729F41092A1031092A003CC
:1038F00002C013821282D0939F03C0939E03DF9174
:10390000CF910895FC0188279927E89421912032CE
:10391000E9F3293010F02E30C8F32B3241F02D326C
:1039200039F4689404C00E94D31C820F911D219128
:1039300020532A30C0F31EF4909581959F4F08952F
:103940004EE552E00E94AC1C0895DC0101C06D936D
:1039500041505040E0F70895FA01A191B0810097DD
:1039600019F41097E1F0CD01DC01CD010D9000209C
:1039700011F4C00113C0FB012191222319F020157D
:10398000D9F7F3CFFB012191201519F41E9211965E
:1039900006C02223C1F70D900020A1F7D001FA0143
:1039A000A193B08308957AE0979F902D879F802DF3
:1039B000910D1124089510E0C8EED0E004C0FE017E
:1039C0000E94571B2296CA3ED107C9F7F894FFCF31
:1039D0000000A803800005040D636363636363054F
:1039E000000000000000001F0000001F0000000990
:1039F000190820082C00204D4F44453D002041432C
:103A000054495654593D002053544154453D005BA0
:103A1000005D2000466F756E642000206465766945
:103A20006365732E002E20004E6F64652049443A72
:103A300020004E656F706978656C20546573740062
:103A40002D2D2D2D2D496E707574732D2D2D2D005E
:103A500050696E2300203D2000202D204F4B002078
:103A60002D2050524553534544002D2D2D2D2D31E1
:103A70002D576972652D2D2D2D00312D57697265D9
:103A800020546573743A20004E6F6E6520466F7542
:103A90006E64002D2D2D2D2D43616E204275732DEA
:103AA0002D2D2D0043414E2D4255532053746172EC
:103AB0007475703A200043414E2D42555320436F98
:103AC0006D6D756E69636174696F6E3A20436F6DD9
:103AD0006D616E64204E6F6465004E6F7420476F99
:103AE0006F642C20636865636B20796F757220703A
:103AF000696E2320616E6420636F6E6E6563746906
:103B00006F6E73003900436F756E742121000000E1
:103B100000008818041A0A182318151866180D0AC8
:0E3B2000006E616E00696E66006F76660000D2
:00000001FF
