:100000000C9475000C949D000C949D000C941309A5
:100010000C9413090C9413090C949D000C949D00EE
:100020000C949D000C949D000C949D000C949D00DC
:100030000C949D000C949D000C949D000C949D00CC
:100040000C940B160C949D000C94E1180C9413194D
:100050000C949D000C949D000C949D000C949D00AC
:100060000C949D000C949D00EF03F303B903BC03B3
:10007000BF03C303C703CA03CE03D103D403D7030B
:10008000DA03DE03E203E603E903000000080002EE
:10009000010000030407000000000000000001024E
:1000A0000408102040800102040810200102040806
:1000B00010200404040404040404020202020202E4
:1000C00003030303030300000000230026002900AC
:1000D00000000000250028002B0000000000240084
:1000E00027002A0092134319FE1311241FBECFEFDD
:1000F000D8E0DEBFCDBF12E0A0E0B1E0EAE1FFE36F
:1001000002C005900D92A632B107D9F723E0A6E20E
:10011000B2E001C01D92A03CB207E1F710E0C8EECA
:10012000D0E004C02297FE010E94891CC43ED10782
:10013000C9F70E9487190C94801F0C940000CF937C
:10014000DF93EC0188859985009711F00E94251DA9
:100150008D8187FD05C060E0DF91CF910C9404177D
:10016000DF91CF910895CF93DF93EC018D8187FDCF
:1001700007C061E00E94041760E08D810E943D1776
:1001800081E08883DF91CF910895EF92FF920F93E2
:100190001F93CF93DF93EC017B01888599850097AE
:1001A00011F00E94251D8701000F111F0E0D1F1D4C
:1001B0001C830B83C8010E948D1C99878887009738
:1001C00041F0A80160E070E00E94AA1EFA82E98274
:1001D00004C01C821B821A821982DF91CF911F9169
:1001E0000F91FF90EF900895FC01668360FF04C0BB
:1001F00081E08287138611C062FF06C081E082879A
:1002000082E0838714860895128663FF04C082E02B
:10021000838781E003C081E0838782E0848708953B
:10022000CF92DF92EF92FF920F931F93CF93DF93C2
:10023000CDB7DEB729970FB6F894DEBF0FBECDBF9E
:100240008C01DC0118968D919C911997892B09F4EA
:100250009BC00E945516F801C584D684E784F088B7
:100260006C197D098E099F0962337105810591051D
:1002700080F3F894838194819A838983A085B185E2
:100280007D01EFEFEE1AFE0A8C918987D801169650
:100290009C91169751960D90BC91A02DF8018389E1
:1002A00091FF2EC09C91982B98879C9180958923D3
:1002B0008F838F818E8388E08D8358856F814985F8
:1002C0003D812E8189819A81F7015C9347FD252F1D
:1002D0003A952C93262F39F0441F00C000006C93F0
:1002E000000000C0F2CF38E041916C93000001970C
:1002F00061F7F801B28BA18B49873D832E8338C00B
:100300009C91982B98879C91809589238F838F81CE
:100310008C8388E08B8358856F8149853B812C8154
:1003200089819A81F7015C9347FD252F00C000C0A9
:100330002C9300C000C000C000C000C06C9300003F
:10034000262F3A9541F0441F000000C000C000C0B5
:1003500000C000C0E8CF38E0419100C06C9300C0FD
:10036000019709F7F801B28BA18B49873B832C8356
:100370009A83898378940E945516D8011D966D93AF
:100380007D938D939C93509729960FB6F894DEBF7A
:100390000FBECDBFDF91CF911F910F91FF90EF90D6
:1003A000DF90CF9008951F93CF93DF93EC01162F2A
:1003B0008881882331F08D8187FD03C060E00E9431
:1003C00004171D838881882341F061E0812F0E94FA
:1003D000041760E0812F0E943D17812F90E0FC01FF
:1003E000EE54FF4FE491F0E0EE0FFF1FE053FF4F9C
:1003F000259134913A8B298BFC01E256FF4F849171
:100400008B8BDF91CF911F9108950F931F93CF9303
:10041000DF9300D0CDB7DEB78C01FC0110821782CC
:1004200011861086158616861786108A2A834983B8
:100430000E94C5004981642FC8010E94D3012A810E
:10044000622FC8010F900F90DF91CF911F910F91F4
:100450000C94F400CF92DF92EF92FF920F931F93D0
:10046000CF93DF93FC01818192816817790788F52A
:10047000CA01AA27BB27082FC32ED42EE52EFF249E
:100480001C2DD22FC781CC2361F08C9FC001112479
:10049000092FCC9E600111241D2D2C9F9001112449
:1004A000D32F9B01220F331F260F371F8085918585
:1004B000820F931F2285DC01A20FB11D0C932385AF
:1004C000DC01A20FB11D1C932485FC01E20FF11D7C
:1004D000D083DF91CF911F910F91FF90EF90DF902C
:1004E000CF900895962F50E060E070E0592B682B74
:1004F000CB01BA0108958EBD00000DB407FEFDCFFB
:100500008EB50895CF93DF93EC0160E088890E9457
:100510003D1780EC0E947B0261E088890E943D17B4
:100520006AE070E080E090E0DF91CF910C94781663
:100530001F93CF93DF93EC01162F60E088890E9410
:100540003D1783E00E947B02812F0E947B0280E0A6
:100550000E947B02182F61E088890E943D17812F3D
:10056000DF91CF911F910895CF92DF92EF92FF928A
:100570000F931F93CF93DF9300D0CDB7DEB78C01DD
:10058000F62EE22E60E0FC01808949835A830E94A6
:100590003D1783E00E947B028F2D0E947B024981E0
:1005A000C42E5A81D52EF12CFE1459F0F8E0FF1616
:1005B00041F080E00E947B02F60181936F01F39489
:1005C000F3CF61E0F80180890F900F90DF91CF9118
:1005D0001F910F91FF90EF90DF90CF900C943D17FB
:1005E000EF92FF921F93CF93DF931F92CDB7DEB7A9
:1005F0007C01162F60E0FC01808949830E943D1731
:1006000082E00E947B02812F0E947B024981842F1D
:100610000E947B0261E0F70180890F90DF91CF910A
:100620001F91FF90EF900C943D17CF92DF92EF92C5
:10063000FF920F931F93CF93DF9300D0CDB7DEB718
:100640008C01E62EF22E60E0FC01808949835A83FA
:100650000E943D1782E00E947B028E2D0E947B0249
:100660004981E42EC42E5A81D52E8C2D8E198F15DA
:1006700030F4F60181916F010E947B02F6CF61E0B8
:10068000F80180890F900F90DF91CF911F910F910A
:10069000FF90EF90DF90CF900C943D17EF92FF9278
:1006A0001F93CF93DF9300D0CDB7DEB77C01162F19
:1006B00060E0FC0180892A8349830E943D1785E020
:1006C0000E947B02812F0E947B024981842F0E941D
:1006D0007B022A81822F0E947B0261E0F7018089E0
:1006E0000F900F90DF91CF911F91FF90EF900C949E
:1006F0003D171F93CF93DF93EC0160E088890E9440
:100700003D1780EA0E947B0280E00E947B02182F46
:1007100061E088890E943D17812FDF91CF911F9161
:1007200008951F93CF93DF93EC01162F262F40EEF1
:100730006FE00E944E036FE0CE010E949802982F56
:10074000907E81E0911301C080E0DF91CF911F91F5
:1007500008950F931F93CF93DF93EC01462F50E042
:10076000FA013197E131F105C0F5EC5CFF4F0C94D3
:10077000871C17E80FEF05C017E00AEB02C015E869
:1007800001EF4FE033C017E00EEB49E02FC017E850
:100790000FEF02C017E80AEF47E028C017E80FEF95
:1007A0000BC017E00EEB08C017E00DEA05C017E814
:1007B0000AEF02C016E800EF43E018C017E80AEF9E
:1007C00041E014C015E801EF41E410C016E800EF65
:1007D00002C012E800ED40E009C081E016C017E851
:1007E0000FEF4FE303C017E80FEF4FE16AE2CE01CE
:1007F0000E94F002402F69E2CE010E94F002412FD8
:1008000068E2CE010E94F00280E0DF91CF911F915B
:100810000F9108951F93CF93DF93EC0110E340E015
:10082000612FCE010E94F00260E1610F40E0CE0135
:100830000E94F00260E2610F40E0CE010E94F002EF
:100840001F5F1E3361F740E060E6CE010E94F002B8
:1008500040E060E7CE01DF91CF911F910C94F00250
:100860000F931F93CF93DF93EC01062F0E94820218
:1008700060E8CE010E949103182F6AE070E080E0EA
:1008800090E011110CC00E947816602FCE010E94DA
:10089000A903882339F06AE070E080E090E00E94CC
:1008A000781628C06AE070E080E090E00E94781638
:1008B000CE010E940A0443E06BE2CE010E94F002E6
:1008C00024E044E660E6CE010E944E0320E040E6CC
:1008D00060E7CE010E944E0360E0CE010E949103CA
:1008E000C82F8823C1F26AE070E080E090E00E94A7
:1008F00078161C2F812FDF91CF911F910F910895B2
:100900000F931F93CF93DF9300D000D0CDB7DEB706
:100910004130B1F40C831B83890122273327502FE8
:100920005C71402F437078E0579F400D1124486060
:100930004A8355E0169507955A95E1F709830DC04E
:10094000A80123E0569547952A95E1F7498302953A
:10095000000F007E0A831C821B8224E0AE014F5FE1
:100960005F4F0E9415030F900F900F900F90DF9133
:10097000CF911F910F910895EF92FF920F931F93C4
:10098000CF93DF9300D000D0CDB7DEB77A018901D5
:10099000FA011082F901108211821282138224E07E
:1009A000AE014F5F5F4F0E94B4022A813981822FCE
:1009B00090E045E0959587954A95E1F7F8E03F9FEF
:1009C000800D911D1124AA2797FDA095BA2FF8013B
:1009D00080839183A283B38323FF25C062E0880FC5
:1009E000991FAA1FBB1F6A95D1F72370820F911D13
:1009F000A11DB11DBA2FA92F982F88272B81820FF7
:100A0000911DA11DB11DBA2FA92F982F88272C81C8
:100A1000820F911DA11DB11D80839183A283B38399
:100A200081E0F70180830F900F900F900F90DF917E
:100A3000CF911F910F91FF90EF900895FF920F9328
:100A40001F93CF93DF93EC01F62EAC014A5F5F4F0B
:100A500065E06F0D2D810E9415038E85813019F49C
:100A60008D8180648D8364E06F0D4D81CE010E9485
:100A7000F00209811A812B813C8148816F2DCE01C2
:100A80000E948004DF91CF911F910F91FF900895F4
:100A90000F931F93CF93DF93EC01162F9C012F5FD1
:100AA0003F4FAC010E94BC046FEF610FCE010E946A
:100AB0009802082F64E0610FCE010E949802282F4F
:100AC0008D8303FF03C081E08E8701C01E862F70D7
:100AD0002D83AE014A5F5F4F65E0610FCE01DF916C
:100AE000CF911F910F910C94B402615028E048E01F
:100AF0000C944E039F92AF92BF92CF92DF92EF92EF
:100B0000FF920F931F93CF93DF9300D01F92CDB727
:100B1000DEB76C017B0180E3898380E48A8380E512
:100B20008B83FB0110828E010F5F1F4F5E01F4E08B
:100B3000AF0EB11CF80191908F01692DC6010E9482
:100B40009802982F987083FD04C09394F7019082C7
:100B500004C00A151B0571F792E0892F0F900F90C2
:100B60000F90DF91CF911F910F91FF90EF90DF9049
:100B7000CF90BF90AF909F900895FF920F931F93D7
:100B8000CF93DF9300D01F92CDB7DEB78B0120E368
:100B9000298320E42A8320E52B83FB011082FE01B8
:100BA000E40FF11DF1806F2D0E949802982F98702C
:100BB00083FD04C0F394F801F08201C092E0892F14
:100BC0000F900F900F90DF91CF911F910F91FF9099
:100BD0000895CF93DF93EC01862F688B61E00E942C
:100BE000041761E08889DF91CF910C943D17CF9372
:100BF000DF9300D01F92CDB7DEB76B8389839A83D2
:100C00000E94A40A6B8189819A810E94300491E03C
:100C1000811101C090E0892F0F900F900F90DF910C
:100C2000CF9108958F929F92BF92CF92DF92EF92D1
:100C3000FF920F931F93CF93DF931F92CDB7DEB731
:100C40004C01B62E680179016AE070E080E090E026
:100C500049830E94781660E8C4010E949103182F0E
:100C60004981882329F06AE070E080E090E01AC0B2
:100C7000B11004C09701860160E206C081E0B8129D
:100C800006C09701860164E2C4010E94800460E00E
:100C9000C4010E949103182F6AE070E080E090E0A8
:100CA000112321F00E947816812F03C00E9478162C
:100CB00080E00F90DF91CF911F910F91FF90EF9007
:100CC000DF90CF90BF909F908F900895AF92BF928A
:100CD000CF92DF92EF92FF920F931F93CF93DF9308
:100CE00000D0CDB7DEB75C01562F680179016AE00C
:100CF00070E080E090E04A8359830E94781660E8B3
:100D0000C5010E949103182F4A815981882329F037
:100D10006AE070E080E090E031C05230B1F040F421
:100D2000552379F05130F9F49701860164E018C039
:100D3000543099F070F05530B1F49701860168E1B4
:100D40000FC09701860160E00BC09701860168E043
:100D500007C09701860160E103C09701860164E145
:100D6000C5010E94800460E0C5010E949103182F14
:100D70006AE070E080E090E0112321F00E94781694
:100D8000812F03C00E94781680E00F900F90DF91B2
:100D9000CF911F910F91FF90EF90DF90CF90BF9078
:100DA000AF900895CF92DF92EF920F931F93CF935E
:100DB000DF93FC0120834183528363837483093072
:100DC00008F008E00583E686D60180E090E010E0B8
:100DD000801791073CF42D91EF01C80FD91F2E8386
:100DE0000196F6CF80E0DF91CF911F910F91EF90A8
:100DF000DF90CF900895CF92DF92EF92FF920F9302
:100E00006701E12C0E94D2060F91FF90EF90DF90D6
:100E1000CF900895EF92FF920F931F93CF93DF939C
:100E20001F92CDB7DEB78C01E12CF12CBE016F5FB4
:100E30007F4FC8010E947A059FEFE91AF90A8230B4
:100E400029F482E3E816F10489F724C092E3E91655
:100E5000F10401F16981C8010E941E056981C80180
:100E60000E947505E12CF12C8FEFE81AF80A6981D0
:100E70006150C8010E94980283FF06C092E3E91600
:100E8000F10491F787E007C082E3E816F104D1F39B
:100E900080E001C086E00F90DF91CF911F910F910C
:100EA000FF90EF900895DF92EF92FF920F931F93C0
:100EB000CF93DF931F92CDB7DEB78C01D62EE12CF6
:100EC000F12C4D2DBE016F5F7F4FC8010E94BD0503
:100ED0009FEFE91AF90A823029F482E3E816F10457
:100EE00081F72BC092E3E916F10439F16981C80159
:100EF0000E941E056981C8010E947505E12CF12C34
:100F00008FEFE81AF80A69816150C8010E949802BF
:100F1000D82E61E070E080E090E00E947816D3FE69
:100F200006C092E3E916F10459F787E007C082E3AF
:100F3000E816F104D1F380E001C086E00F90DF9164
:100F4000CF911F910F91FF90EF90DF900895EF9256
:100F5000FF920F93CF93DF93EC010E94FB06CE012B
:100F6000DF91CF910F91FF90EF900C940A07CF92F1
:100F7000EF92FF920F93CF93DF93EC010E94FB0659
:100F80006C2DCE01DF91CF910F91FF90EF90CF901C
:100F90000C945307CF93DF93EC010E94790380FFF9
:100FA00007C061E6CE010E94480520E041E008C08C
:100FB00081FF0CC061E7CE010E94480520E042E0BD
:100FC0006CE2CE010E944E0380E001C084E0DF911C
:100FD000CF910895EF92FF920F931F93CF93DF93DA
:100FE00000D0CDB7DEB77C018B0149835A830E94C4
:100FF000CA0749815A81811118C0D70115969C9161
:10100000F8019083FA0120E030E0D70115964C9169
:1010100050E0241735075CF4D701A20FB31F1696D2
:101020009C9191932F5F3F4FF0CFF80110820F906A
:101030000F90DF91CF911F910F91FF90EF90089546
:101040000E947903837011F083E0089584E008958D
:10105000FC016181728183819481089520916A02EB
:1010600030916B0228173907B9F4909128028091CA
:101070002902981789F0E0912802F0E0E65DFD4F23
:1010800080812091280230E02F5F3F4F2F7333275C
:101090002093280290E008958FEF9FEF08951F930B
:1010A000CF93DF93DC015C968D919C915D970097C7
:1010B00049F481E090E013969C938E93129780E020
:1010C00090E03BC05196ED91FC91529750962C9137
:1010D0005097322F30951FB75E964C915E9741FB2B
:1010E000772770F941FD6095F8944081772311F0DE
:1010F000422B01C043234083EC012197F1F748E0E4
:10110000508160FF02C0522B01C053235083EC0179
:101110002197F1F76695415099F78081772311F077
:10112000832301C0822B80831FBF5C968D919C918D
:101130005D970197F1F781E090E0DF91CF911F91EA
:101140000895089520916A0230916B02281739079B
:1011500081F49091280280912902981751F0E09132
:101160002802F0E0E65DFD4F8081992787FD90958C
:1011700008958FEF9FEF089520916A0230916B02DE
:101180002817390771F4809129022091280290E0F4
:10119000805C9F4F821B910960E470E00E94321CCA
:1011A000089580E090E00895E0916A02F0916B026A
:1011B000E817F90769F4A389B4899C91858980951A
:1011C00089238C9310926B0210926A0281E0089539
:1011D00080E00895CF93DF93EC018A8D9B8D892B5E
:1011E000F1F080916A0290916B028C179D07B9F023
:1011F000009711F00E94D4088E8D8E7F8E8F1092F2
:10120000290210922802D0936B02C0936A02EB89E4
:10121000FC8980819D89892B808381E001C080E0E9
:10122000DF91CF9108951F920F920FB60F92112464
:101230002F933F934F935F936F937F938F939F93DE
:10124000AF93BF93EF93FF93E0916A02F0916B022B
:10125000309709F451C0868DA685B785958581FFA5
:1012600004C08C91892329F447C08C91892309F00B
:1012700043C0A389B4899C918589809589238C93E7
:10128000868997890197F1F7208D318DA685B785DD
:10129000758558E040E0C9010197F1F7842F90E08F
:1012A00095958795482F6C91672309F040685150B8
:1012B00091F7868D81FD40958091290290E00196FD
:1012C0008F73992720912802281749F0A0912902AD
:1012D000B0E0A65DBD4F4C938093290203C0868D7C
:1012E0008160868F828D938D0197F1F7A389B489F0
:1012F0008C919589892B8C93FF91EF91BF91AF9140
:101300009F918F917F916F915F914F913F912F911D
:101310000F900FBE0F901F90189522E331E0FC0153
:10132000318320830C94D4081F93CF93DF93EC0177
:10133000162F6E8D6695617081E06827812F0E945F
:101340003D1761E0812F0E940417812F90E0FC017E
:10135000E256FF4FE491E88BFC01EE54FF4FE4911D
:10136000F0E0EE0FFF1FE053FF4F859194919A8BB1
:10137000898BDF91CF911F9108951F93CF93DF93B6
:10138000EC01162F60E0812F0E9404178E8D81FDE5
:1013900004C061E0812F0E943D171C87812F90E0DF
:1013A000FC01E256FF4FE491ED87FC01EE54FF4F44
:1013B000E491F0E0EE0FFF1FEA53FF4F8591949107
:1013C0009F878E87DF91CF911F910895FF920F9392
:1013D0001F93CF93DF93EC01F62E522F1B821A82BC
:1013E00008EE13E020E030E00C831D832E833F8362
:1013F00082E391E0998388831F8A1E8A198E188E52
:101400001B8E1A8E1D8E1C8E8E8D8E7F50FB81F949
:101410008E8F642FCE010E9494096F2DCE01DF9133
:10142000CF911F910F91FF900C94BD09CF93DF9343
:10143000EC019A01AB011B8E1A8E198E188E1F8A31
:101440001E8A60E079E08DE390E00E94681CC9018B
:101450002430310520F0B9016350710902C061E008
:1014600070E07D8F6C8FEC85E63108F068C0B901C3
:10147000769567956431710518F06351710902C062
:1014800061E070E07F8B6E8B069718F0C9010597BD
:1014900002C081E090E0998F888FC901880F991F61
:1014A000820F931F96958795969587958D30910518
:1014B00010F00C9702C081E090E09B8F8A8F209102
:1014C0006800E83050F091E0EE3008F490E081E000
:1014D00001C0880F9A95EAF701C084E0822B8093BF
:1014E00068002C85283038F02E3040F0263148F442
:1014F0008CE690E008C08DE690E005C08BE690E0B9
:1015000002C080E090E09C8B8B8B283030F481E02F
:1015100001C0880F2A95EAF70DC0822F90E02E3087
:1015200010F4089701C00E9791E001C0990F8A95B9
:10153000EAF7892F8D8B8C8D9D8D0197F1F7CE0168
:10154000DF91CF910C94EA08CF93CFB7F8948091B4
:101550006C02811127C0ECEBF0E08491E8EAF0E046
:101560009491E82FF0E0EE0FFF1FE652FF4FA59198
:10157000B4918C91892321F461E08AE00E943D17A7
:1015800061E08AE00E9404178CB580618CBD8CB547
:1015900080648CBD61E08DE00E94041761E08BE007
:1015A0000E94041780916C028F5F80936C02CFBF02
:1015B000CF910895CF93DF9380919D02843229F0DB
:1015C0001092BD02EDE9F2E035C063E072E08DE912
:1015D00092E00E949C1E63E072E080E090E00E9436
:1015E0009C1E0E947E1EAA2797FDA095BA2F80936D
:1015F000C4029093C502A093C602B093C70263E0F1
:1016000072E080E090E00E949C1EC1EDD2E0009765
:1016100051F00E947E1E888363E072E080E090E0DB
:101620000E949C1E01C01882219622E0C93DD2076B
:1016300071F7C6CF119282E0ED3BF807D9F7DF9141
:10164000CF910895813049F46091FE027091FF02BC
:1016500080910003909101030895823049F46091D4
:10166000FA027091FB028091FC029091FD020895B4
:10167000833049F46091EE027091EF028091F002A4
:101680009091F1020895843049F46091F6027091CE
:10169000F7028091F8029091F9020895853049F49B
:1016A0006091F2027091F3028091F4029091F50240
:1016B00008956091EA027091EB028091EC029091A2
:1016C000ED0208950F931F930091FE021091FF0207
:1016D000209100033091010360177107820793077F
:1016E000D1F10091FA021091FB022091FC0230919D
:1016F000FD02601771078207930779F10091EE02EE
:101700001091EF022091F0023091F1026017710701
:101710008207930721F10091F6021091F7022091C0
:10172000F8023091F902601771078207930779F088
:101730000091F2021091F3022091F4023091F5022F
:10174000601771078207930721F485E009C084E0E0
:1017500007C080E005C081E003C082E001C083E0F3
:101760001F910F910895882339F0815090912B019A
:10177000899F802D1124089580E00895882321F009
:10178000880F880F880F089580912C0108955F922B
:101790006F927F928F929F92AF92BF92CF92DF9281
:1017A000EF92FF920F931F93CF93DF931F92CDB7CA
:1017B000DEB74B015C01622E7E2C49830E94620BD6
:1017C00080931A0184E080931B014981411101C07B
:1017D00044E1611002C06624639410E0C42ED12C51
:1017E000E12CF12C81E0861510F0502E1BC0502EFC
:1017F0005714D8F72091EA023091EB024091EC02A5
:101800005091ED02652D70E082E093E00E942A0283
:1018100082E093E00E941001C701B6010E94781691
:101820005394E6CF571490F4652D70E0A501940110
:1018300082E093E00E942A0282E093E00E9410017D
:10184000C701B6010E9478165394ECCF1F5F1611A2
:10185000C9CF0F90DF91CF911F910F91FF90EF9023
:10186000DF90CF90BF90AF909F908F907F906F90C0
:101870005F9008959F92AF92BF92CF92DF92EF92C6
:10188000FF920F931F93CF93DF936B017C01942EF4
:10189000A22E0E94620B80931A0181E080931B01AB
:1018A000911002C08AE0982EB12CC0E0D0E010E088
:1018B000BE016A0D7B1D6017710740F4A7019601F8
:1018C00082E093E00E942A022196F2CF82E093E028
:1018D0000E941001692D70E080E090E0DF91CF91CF
:1018E0001F910F91FF90EF90DF90CF90BF90AF903E
:1018F0009F900C9478160F9386E080931A0185E0F0
:1019000080931B016091F2027091F3028091F402C6
:101910009091F50200912C0120E044EF0E943A0CD6
:1019200064E670E080E090E00E9478166091FE022C
:101930007091FF02809100039091010300912C01AE
:1019400020E044EF0E943A0C64E670E080E090E012
:101950000E9478166091FA027091FB028091FC025D
:101960009091FD0200912C0120E044EF0E943A0C7E
:1019700064E670E080E090E00E9478166091EE02EC
:101980007091EF028091F0029091F10200912C0190
:1019900020E044EF0E943A0C64E670E080E090E0C2
:1019A0000E9478166091F6027091F7028091F80219
:1019B0009091F90200912C0120E044EF0E943A0C32
:1019C00064E670E080E090E00E9478166091EA02A0
:1019D0007091EB028091EC029091ED0200912C014C
:1019E00020E044EF0E943A0C0F9108956F927F928D
:1019F0008F929F92AF92BF92CF92DF92EF92FF921F
:101A00000F931F93CF93DF931F92CDB7DEB74B0198
:101A10005C01142FF02E29830E94620B80931A011F
:101A200083E080931B012981111101C01EE5211162
:101A300001C021E0612C712CC22ED12C6C147D04CC
:101A4000BCF40E2D2F2D412FC501B4010E943A0C7C
:101A50006091EA027091EB028091EC029091ED02AC
:101A60002F2D412F0E943A0C8FEF681A780AE6CF8B
:101A70000F90DF91CF911F910F91FF90EF90DF902A
:101A8000CF90BF90AF909F908F907F906F90089570
:101A90006F927F928F929F92AF92BF92CF92DF927E
:101AA000EF92FF920F931F93CF93DF931F92CDB7C7
:101AB000DEB74B015C01142FF02E29830E94620BCC
:101AC00080931A0182E080931B012981111101C0CA
:101AD0001EE5211101C021E0612C712CC22ED12CF8
:101AE0000E2D2F2D412FC501B4016C147D0494F4EB
:101AF0000E943A0C6091EA027091EB028091EC0234
:101B00009091ED022F2D412F0E943A0C8FEF681A11
:101B1000780AE6CF0E943A0C0F90DF91CF911F9187
:101B20000F91FF90EF90DF90CF90BF90AF909F907C
:101B30008F907F906F900895CF92DF92EF92FF92F7
:101B40000F931F93CF93DF9300D000D0CDB7DEB7B4
:101B50008091C9020E94220BC62E182F00912C01E1
:101B6000D090CA022091CC024091CD02E090CB02ED
:101B7000EE2089F08E2D29834A837B839C830E94EB
:101B8000B30BF82E8E2D0E94BE0BE82E29814A81C0
:101B90007B819C8102C0E02EF12CD11002C020E09C
:101BA00005C081E0D81207C00E2D2F2D6C2D812F7E
:101BB0000E943A0C20C0E2E0DE1206C00F2D6C2D10
:101BC000812F0E94480D17C0F3E0DF1206C00F2DD1
:101BD0006C2D812F0E94F60C0EC084E0D81206C036
:101BE0000F2D6C2D812F0E94C70B05C0E5E0DE1282
:101BF00002C00E947B0CC0921A01D0921B010F9070
:101C00000F900F900F90DF91CF911F910F91FF9048
:101C1000EF90DF90CF9008951F93CF93DF93182F0D
:101C2000C82FD0E0FE01ED5EFE4F80810E94731749
:101C3000FE01E254FD4F90819817E9F090911D014B
:101C4000813061F4808321E030E0012E01C0220F59
:101C50000A94EAF7292B20931D0111C0108221E07C
:101C600030E0012E01C0220F0A94EAF720952923C3
:101C700020931D0103C081E0913009F080E0DF91E5
:101C8000CF911F910895EF920F931F93CF93DF93FE
:101C900026E040E052EC61E070E08FE193E00E94CA
:101CA0007F1840E855E260E070E08DE792E00E9426
:101CB000160A6EE371E08FE193E00E94E219409111
:101CC00025015091260160912701709128012AE099
:101CD00030E08FE193E00E94D21A61E0809112011E
:101CE0000E94041761E0809112010E943D1761E09B
:101CF000809111010E94041760E0809111010E94FF
:101D00003D1761E0809110010E94041760E080910E
:101D100010010E943D1768E471E08FE193E00E949A
:101D2000011A82E093E00E94B30082E093E00E94F7
:101D300010010E947B0C6091FE027091FF02809165
:101D400000039091010300912C0120E040E00E94EB
:101D50003A0C66E571E08FE193E00E94011AC3E15D
:101D6000D1E010E08881833609F453C062E00E941C
:101D7000041766E671E08FE193E00E94E2194AE001
:101D800050E068818FE193E00E94CB1A6BE671E02E
:101D90008FE193E00E94E219812F0E940C0E682FC0
:101DA00070E04AE050E08FE193E00E94B61A812F84
:101DB0000E940C0E811112C06091FA027091FB0218
:101DC0008091FC029091FD0258E0E52E00E020E0B9
:101DD00040E00E94C70B6FE671E011C06091EE0217
:101DE0007091EF028091F0029091F10248E0E42EB0
:101DF00000E020E040E00E94C70B65E771E08FE162
:101E000093E00E94011A6AEF70E080E090E00E9487
:101E1000781621961F5F163009F0A4CF60E871E0B4
:101E20008FE193E00E94011A61E971E08FE193E094
:101E30000E94E21968E089ED92E00E94F7058111A5
:101E40006CC06091FA027091FB028091FC0290914B
:101E5000FD0230E1E32E00912B0120E040E00E94E2
:101E6000C70B62E771E08FE193E00E94011A0FE176
:101E700010E020E030E040E060E089ED92E00E9478
:101E800012060FE110E020E030E040E061E089ED73
:101E900092E00E94120600912501109126012091E6
:101EA00027013091280140E060E089ED92E00E9436
:101EB000660600912501109126012091270130919D
:101EC000280140E062E089ED92E00E94660663EA44
:101ED00071E08FE193E00E94011A67EC71E08FE1FD
:101EE00093E00E94011A60ED77E080E090E00E94AC
:101EF00078166091EA027091EB028091EC02909169
:101F0000ED0200912C0120E040E00E943A0CDF91AC
:101F1000CF911F910F91EF90089566ED71E08FE1E1
:101F200093E00E94011A6091EE027091EF0280919D
:101F3000F0029091F10220E1E22E00912B0120E0CD
:101F400040E00E94C70B70CF1F93CF93DF93C3E194
:101F5000D1E010E08991833619F0812F0E940C0E98
:101F60001F5F1630B9F7DF91CF911F910895EF925F
:101F70000F93909177028FEF890F873008F459C043
:101F800080917B02983079F5882309F452C06091E2
:101F9000F6027091F7028091F8029091F902E090B8
:101FA0002C0100E021E040E00E94C70B6091EE02AE
:101FB0007091EF028091F0029091F102E0902C017B
:101FC00021E040E00E94C70B6091EA027091EB02B1
:101FD0008091EC029091ED02E0902C0121E040E034
:101FE0000E94C70B24C0882321F110927202109224
:101FF0007102109274021092730210926E0210928B
:102000006D021092700210926F026091EA0270915C
:10201000EB028091EC029091ED0200912C0120E006
:1020200040E00E943A0C10927C020E94A40F109291
:102030007B020F91EF900895CF92EF92FF920F9352
:102040001F93CF93DF9300D000D0CDB7DEB78823A6
:1020500051F049835A836B837C830E94A40F7C8157
:102060006B815A8149818091250190912601A0912F
:102070002701B0912801481759076A077B0729F102
:10208000E5E0880F991FAA1FBB1FEA95D1F7842BA3
:10209000952BA62BB72BF2E0CF2E19E1E12E11E004
:1020A000F12E08E020E0AC01BD0189ED92E00E9434
:1020B000B7070F900F900F900F90DF91CF911F9166
:1020C0000F91FF90EF90CF90089540912101509192
:1020D000220160912301709124012AE030E08FE118
:1020E00093E00E94BE1A63E072E08FE193E00E94E9
:1020F000E21909E111E0F1E001321F0781F0F80176
:1021000061918F014AE050E08FE193E00E94CB1A89
:1021100063E072E08FE193E00E94E219ECCF8FE17F
:1021200093E00F900F900F900F90DF91CF911F9140
:102130000F91FF90EF90CF900C94EB19EF920F93CB
:102140009091770280917B02913029F5882309F4E0
:1021500090C06091FE027091FF0280910003909107
:102160000103E0902C0100E021E040E00E94C70B59
:102170006091F2027091F3028091F4029091F50265
:10218000E0902C0121E040E00E94C70B10927B02FE
:1021900010927A026EC0923019F5882309F469C052
:1021A00010927B0210927A028091730290917402D5
:1021B0000196909374028093730280932001809122
:1021C000710280931F014091210150912201609181
:1021D00023017091240180E00F91EF900C941C106A
:1021E0009730E9F4882309F444C0409121015091CB
:1021F0002201609123017091240180E00E941C1053
:102200006091EA027091EB028091EC029091ED02F4
:1022100000912C0120E040E00E943A0C28C0882365
:1022200041F1109272021092710210927402109297
:10223000730210926E0210926D0210927002109250
:102240006F021092200110921F016091EA027091BA
:10225000EB028091EC029091ED0200912C0120E0C4
:1022600040E00E943A0C10927C020E94A40F10924F
:102270007B020F91EF900895EF920F939091770268
:1022800080917B02913029F5882309F493C06091F5
:10229000FE027091FF028091000390910103E09093
:1022A0002C0100E021E040E00E94C70B6091EE02AB
:1022B0007091EF028091F0029091F102E0902C0178
:1022C00021E040E00E94C70B10927B0210927A023C
:1022D00071C0923031F5882321F010927B02109268
:1022E0007A0280917302909174028F3F91050CF0F5
:1022F00061C00196909374028093730280932001D1
:102300008091710280931F0140912101509122011F
:10231000609123017091240180E00F91EF900C9463
:102320001C109730E9F4882309F444C0409121013E
:1023300050912201609123017091240180E00E945C
:102340001C106091EA027091EB028091EC02909176
:10235000ED0200912C0120E040E00E943A0C28C0E0
:10236000882341F11092720210927102109274024D
:102370001092730210926E0210926D02109270020F
:1023800010926F021092200110921F016091EA02D8
:102390007091EB028091EC029091ED0200912C0182
:1023A00020E040E00E943A0C10927C020E94A40FB0
:1023B00010927B020F91EF90089580917502909199
:1023C000760220910801309109018217930761F488
:1023D00089ED92E00E942808F5E09695879577951B
:1023E0006795FA95D1F7089520910601309107017C
:1023F0008217930749F06091C4027091C5028091E1
:10240000C6029091C702089565E170E080E090E017
:102410000895EF920F93CF93C82F61E971E08FE198
:1024200093E00E94E2196C2F89ED92E00E94F7057B
:10243000811121C000912B01000F6091FA0270916F
:10244000FB028091FC029091FD02B8E1EB2E20E0AE
:1024500040E00E94C70B4AE050E06C2F8FE193E010
:102460000E94CB1A6FE671E08FE193E0CF910F915C
:10247000EF900C94011A66ED71E08FE193E00E94F9
:10248000011A00912B01000F6091EE027091EF0292
:102490008091F0029091F102A8E1EA2E20E040E064
:1024A0000E94C70BCF910F91EF900895CF93DF93C8
:1024B0008091C802811109C04FE150E060E070E0F6
:1024C00081E0DF91CF910C941C10813021F4DF91D9
:1024D000CF910C949C0D823061F48091C90280935D
:1024E000770291E090937B0210927A0280931C0114
:1024F00016C19DEF980F923008F411C1853071F527
:1025000080916D0290916E02019690936E0280937D
:102510006D020E94DD11AB01BC012AE030E08FE1C9
:1025200093E00E94BE1A63E072E08FE193E00E94A4
:10253000E219C8ECD2E082E0C03DD80709F4A8C097
:1025400069914AE050E08FE193E00E94CB1A63E08A
:1025500072E08FE193E00E94E219EDCF8630A1F4A2
:102560009091C902909379028091CA028093780277
:10257000963011F40E94091280917902893009F095
:1025800085E080931901CBC0893009F087C0809124
:102590006D0290916E02019690936E0280936D028F
:1025A0000E94DD11AB01BC012AE030E08FE193E035
:1025B0000E94BE1A63E072E08FE193E00E94E2198C
:1025C00060E072E08FE193E00E94E21963E072E064
:1025D0008FE193E00E94E21960916F0270917002A6
:1025E0004AE050E08FE193E00E94B61A63E072E0A7
:1025F0008FE193E00E94E21960916D0270916E028A
:102600004AE050E08FE193E00E94B61A63E072E086
:102610008FE193E00E94E219609171027091720261
:102620004AE050E08FE193E00E94B61A63E072E066
:102630008FE193E00E94E21960917302709174023D
:102640004AE050E08FE193E00E94B61A63E072E046
:102650008FE193E00E94E2194AE050E06091CE02DF
:102660008FE193E00E94CB1A63E072E08FE193E088
:102670000E94E2194AE050E06091CF028FE193E0BE
:102680000E94CB1A63E072E08FE193E00E94E219AE
:102690008FE193E0DF91CF910C94EB19843629F50B
:1026A00061E0809111010E943D1764E670E080E0D6
:1026B00090E00E94781660E0809111010E943D1721
:1026C00064E670E080E090E00E94781661E080911E
:1026D00011010E943D1764E670E080E090E00E94E6
:1026E000781660E08091110110C08536C1F461E078
:1026F000809110010E943D1768EE73E080E090E049
:102700000E94781660E0809110010E943D1764E6F7
:1027100070E080E090E0DF91CF910C947816DF912B
:10272000CF91089560912C0170E023E040912D013C
:1027300082E093E00E94050240E060E080912A017F
:102740000E9472026093FE027093FF028093000366
:102750009093010340E060912A0180E00E947202A0
:102760006093FA027093FB028093FC029093FD0247
:1027700040912A0160E080E00E9472026093F602BC
:102780007093F7028093F8029093F90280912A01E6
:10279000482F682F0E9472026093F2027093F30236
:1027A0008093F4029093F50280912A0140E0682F13
:1027B0000E9472026093EE027093EF028093F00227
:1027C0009093F10240E060E080E00E94720260932A
:1027D000EA027093EB028093EC029093ED02609119
:1027E000290189ED92E00E94E90520E040910C0169
:1027F00060910E018DE792E00C94E6098DE792E07E
:102800000E948D0982E093E00C949F00EF92FF926A
:102810000F931F93CF93DF93CDB7DEB762970FB6B9
:10282000F894DEBF0FBECDBF89ED92E00E94200874
:102830008330E1F480910801909109019093760230
:102840008093750248EC52E060ED72E089ED92E011
:102850000E94EA0780917102909172020196909312
:102860007202809371020E945612DECF80919C0208
:10287000882309F4E3C010929C028091C4029091D5
:10288000C502A091C602B091C702409125015091A6
:102890002601609127017091280184179507A607EA
:1028A000B70769F4E1EDF2E0A8ECB2E081918D9315
:1028B00082E0E93DF807D1F70E945612BFC020918F
:1028C0007302309174022F5F3F4F30937402209354
:1028D00073020097A105B10509F056C095E0440FB9
:1028E000551F661F771F9A95D1F721EDE22E22E042
:1028F000F22E08E020E089ED92E00E94A70764E153
:1029000070E080E090E00E94781662E072E0CE0114
:102910000D960E94521B4091C4025091C5026091D5
:10292000C6027091C7022AE0CE0107960E94AD1B35
:10293000BE01695F7F4FCE010D960E94061C63E0C9
:1029400072E0CE010D960E940D1C8701F801619185
:102950008F014AE0CE0101960E94801BBE016F5F8D
:102960007F4FCE010D960E94061CCE0101960E945B
:10297000E41A63E072E0CE010D960E940D1CF2E0B5
:10298000093D1F0719F745C085319105A105B1051E
:1029900008F45DC062E072E0CE010D960E94521B09
:1029A0004091C4025091C5026091C6027091C70265
:1029B0002AE0CE0107960E94AD1BBE01695F7F4FE2
:1029C000CE010D960E94061C63E072E0CE010D96CA
:1029D0000E940D1C01ED12E0F80161918F014AE0A7
:1029E000CE0101960E94801BBE016F5F7F4FCE011A
:1029F0000D960E94061CCE0101960E94E41A63E027
:102A000072E0CE010D960E940D1CF2E0093D1F07F9
:102A100019F7BE01635F7F4F8DE792E00E94EF19C7
:102A200064E170E080E090E00E947816CE010796A5
:102A30000E94E41ACE010D960E94E41A04E211E00D
:102A40008FE193E00E949C17892BB9F44AC005E0FE
:102A5000440F551F661F771F0A95D1F7482B592B36
:102A60006A2B7B2B81EDE82E82E0F82E08E020E037
:102A700089ED92E00E94A707E1CF80910A01909131
:102A80000B0190937602809375028FE193E00E9490
:102A9000B517843229F480939D021093BD02D0CFE4
:102AA00000939D028A3071F480916F0290917002C0
:102AB00001969093700280936F020E94DA0A10933D
:102AC0009C02BECFE091BD02AE2FB0E0A356BD4F39
:102AD0008C93EF5FE093BD02F0E0E356FD4F108270
:102AE000AFCF14E2F12EEE24E3948DE792E00E9442
:102AF000BC08892B09F470C08091060190910701F0
:102B000090937602809375028DE792E00E942E08E2
:102B1000843229F480939D02E092BD02E6CFF092C8
:102B20009D028A3009F049C0809171029091720231
:102B3000019690937202809371020E94DA0A80914A
:102B40006D0290916E02019690936E0280936D02D9
:102B50004091C4025091C5026091C6027091C702B3
:102B60002AE030E08FE193E00E94BE1A63E072E059
:102B70008FE193E00E94E21901ED12E0F2E0093DDD
:102B80001F0781F0F80161918F014AE050E08FE169
:102B900093E00E94CB1A63E072E08FE193E00E9421
:102BA000E219ECCF8FE193E00E94EB1964E170E051
:102BB00080E090E00E94781698CFE091BD02AE2FA1
:102BC000B0E0A356BD4F8C93EF5FE093BD02F0E001
:102BD000E356FD4F108289CF80917902893061F4EC
:102BE00080917802853019F40E949E1007C08630CB
:102BF00029F40E943C1102C00E94B70F62960FB6E2
:102C0000F894DEBF0FBECDBFDF91CF911F910F9122
:102C1000FF90EF9008951F920F920FB60F9211241C
:102C20002F933F938F939F93AF93BF9380911703FD
:102C300090911803A0911903B0911A0330911603D3
:102C400023E0230F2D3720F40196A11DB11D05C0EF
:102C500026E8230F0296A11DB11D20931603809331
:102C6000170390931803A0931903B0931A0380914C
:102C70001B0390911C03A0911D03B0911E030196AC
:102C8000A11DB11D80931B0390931C03A0931D03F2
:102C9000B0931E03BF91AF919F918F913F912F9160
:102CA0000F900FBE0F901F9018953FB7F89480912A
:102CB0001B0390911C03A0911D03B0911E0326B528
:102CC000A89B05C02F3F19F00196A11DB11D3FBF64
:102CD0006627782F892F9A2F620F711D811D911DF4
:102CE00042E0660F771F881F991F4A95D1F7089514
:102CF000CF92DF92EF92FF92CF93DF936B017C0133
:102D00000E945516EB01C114D104E104F10489F0CD
:102D10000E941D1C0E9455166C1B7D0B683E734063
:102D200090F381E0C81AD108E108F108C851DC4FDE
:102D3000EACFDF91CF91FF90EF90DF90CF90089591
:102D4000789484B5826084BD84B5816084BD85B586
:102D5000826085BD85B5816085BDEEE6F0E080814D
:102D600081608083E1E8F0E010828081826080836E
:102D7000808181608083E0E8F0E0808181608083F1
:102D8000E1EBF0E0808184608083E0EBF0E0808123
:102D900081608083EAE7F0E08081846080838081C5
:102DA000826080838081816080838081806880836D
:102DB0001092C1000895833081F028F4813099F099
:102DC0008230A1F008958730A9F08830B9F08430BE
:102DD000D1F4809180008F7D03C0809180008F7737
:102DE00080938000089584B58F7702C084B58F7D6D
:102DF00084BD08958091B0008F7703C08091B000AA
:102E00008F7D8093B0000895CF93DF9390E0FC0115
:102E1000E256FF4F2491FC01EE54FF4F849188232A
:102E200049F190E0880F991FFC01E652FF4FA591F0
:102E3000B49180539F4FFC01C591D4919FB761110C
:102E400008C0F8948C91209582238C9388818223EA
:102E50000AC0623051F4F8948C91322F309583235C
:102E60008C938881822B888304C0F8948C91822B68
:102E70008C939FBFDF91CF9108950F931F93CF93B2
:102E8000DF931F92CDB7DEB7282F30E0F901E65768
:102E9000FF4F8491F901E256FF4F1491F901EE546E
:102EA000FF4F04910023C9F0882321F069830E9419
:102EB000DB166981E02FF0E0EE0FFF1FE053FF4FBC
:102EC000A591B4919FB7F8948C91611103C01095AE
:102ED000812301C0812B8C939FBF0F90DF91CF91F5
:102EE0001F910F910895CF93DF93282F30E0F901C0
:102EF000E657FF4F8491F901E256FF4FD491F90153
:102F0000EE54FF4FC491CC2391F081110E94DB1647
:102F1000EC2FF0E0EE0FFF1FEA53FF4FA591B491A5
:102F20002C912D2381E090E021F480E002C080E02C
:102F300090E0DF91CF910895FC01818D228D90E08A
:102F4000805C9F4F821B91098F7399270895FC0124
:102F5000918D828D981731F0828DE80FF11D858D4E
:102F600090E008958FEF9FEF0895FC01918D828D81
:102F7000981761F0828DDF01A80FB11D5D968C91CD
:102F8000928D9F5F9F73928F90E008958FEF9FEFD8
:102F9000089589E399E1892B49F080E090E0892B3D
:102FA00029F00E94391981110C9400000895FC0148
:102FB000848DDF01A80FB11DA35ABF4F2C91848DC2
:102FC00090E001968F739927848FA689B7892C93F7
:102FD000A089B1898C9180648C93938D848D981392
:102FE00006C00288F389E02D80818F7D808308955B
:102FF000CF93DF93EC01888D8823C9F0EA89FB89A0
:10300000808185FD05C0A889B9898C9186FD0FC096
:103010000FB607FCF5CF808185FFF2CFA889B9896B
:103020008C9185FFEDCFCE010E94D717E7CFDF91BE
:10303000CF910895CF92DF92FF920F931F93CF937A
:10304000DF931F92CDB7DEB76C0181E0D6015896B1
:103050008C9358975B969C915B975C968C915C9750
:10306000981307C05096ED91FC915197808185FD92
:103070002EC0F601038D10E00F5F1F4F0F73112755
:10308000F02EF601848DF81211C00FB607FCF9CFAF
:10309000D6015096ED91FC915197808185FFF1CF3B
:1030A000C60169830E94D7176981EBCF838DE80F32
:1030B000F11DE35AFF4F6083D6015B960C935B973B
:1030C0005296ED91FC915397808180620CC0D6019D
:1030D0005696ED91FC91579760835096ED91FC9137
:1030E000519780818064808381E090E00F90DF9130
:1030F000CF911F910F91FF90DF90CF900895BF92D5
:10310000CF92DF92EF92FF92CF93DF93EC016A01AF
:103110007B01B22EE889F98982E08083411581EE36
:10312000580761057105A1F060E079E08DE390E05A
:10313000A70196010E94461C2150310941095109FD
:103140005695479537952795211580E1380798F0D2
:10315000E889F989108260E874E88EE190E0A701BF
:1031600096010E94461C215031094109510956958A
:10317000479537952795EC85FD853083EE85FF854E
:103180002083188EEC89FD89B082EA89FB898081D1
:1031900080618083EA89FB89808188608083EA89F5
:1031A000FB89808180688083EA89FB8980818F7DAB
:1031B0008083DF91CF91FF90EF90DF90CF90BF9011
:1031C00008951F920F920FB60F9211242F938F9391
:1031D0009F93EF93FF93E0912F03F0913003808151
:1031E000E0913503F091360382FD12C09081809109
:1031F00038038F5F8F7320913903821751F0E0916C
:103200003803F0E0E15EFC4F958F8093380301C0F6
:103210008081FF91EF919F918F912F910F900FBE21
:103220000F901F9018951F920F920FB60F921124B6
:103230002F933F934F935F936F937F938F939F93BE
:10324000AF93BF93EF93FF938FE193E00E94D71763
:10325000FF91EF91BF91AF919F918F917F916F916E
:103260005F914F913F912F910F900FBE0F901F9044
:1032700018958FE193E00E949C1721E0892B09F4B7
:1032800020E0822F0895109222031092210388EEED
:1032900093E0A0E0B0E08093230390932403A093F5
:1032A0002503B093260389E092E090932003809356
:1032B0001F0385EC90E090932C0380932B0384EC08
:1032C00090E090932E0380932D0380EC90E09093F8
:1032D000300380932F0381EC90E09093320380932E
:1032E000310382EC90E0909334038093330386ECB7
:1032F00090E0909336038093350310923803109238
:10330000390310923A0310923B03089508950E94E6
:10331000A0160E9486190E94430EC9ECD7E10E94B4
:1033200006142097E1F30E94C917F9CFCF92DF92DC
:10333000EF92FF920F931F93CF93DF937C016A016B
:10334000EB0100E010E00C151D0571F06991D7014B
:10335000ED91FC910190F081E02DC7010995892B39
:1033600019F00F5F1F4FEFCFC801DF91CF911F9171
:103370000F91FF90EF90DF90CF9008956115710548
:1033800081F0DB010D900020E9F7AD0141505109BA
:10339000461B570BDC01ED91FC910280F381E02D7F
:1033A000099480E090E00895DC01ED91FC91DB014F
:1033B00014964D915C9115976D917C910280F381EB
:1033C000E02D09940C94BE19DC01ED91FC91019063
:1033D000F081E02D099465E172E00C94BE190F9321
:1033E0001F93CF93DF93EC010E94D4198C01CE017F
:1033F0000E94EB19800F911FDF91CF911F910F91C8
:1034000008950F931F93CF93DF93EC010E94BE1991
:103410008C01CE010E94EB19800F911FDF91CF919B
:103420001F910F9108958F929F92AF92BF92CF926A
:10343000DF92EF92FF920F931F93CF93DF93CDB75D
:10344000DEB7A1970FB6F894DEBF0FBECDBF7C01EB
:10345000C42EE52FCB01D22E19A221E02D1510F09C
:103460002AE0D22E8E010F5D1F4F8D2C912CA12CA6
:10347000B12C6C2D7E2FA50194010E94461C8C2D31
:10348000D29E80191124015011098A3014F4805DF4
:1034900001C0895CF8018083211531054105510582
:1034A00021F0C22EE32FCA01E4CFB801C7010E9468
:1034B000BE19A1960FB6F894DEBF0FBECDBFDF9147
:1034C000CF911F910F91FF90EF90DF90CF90BF9021
:1034D000AF909F908F900895CF92DF92EF92FF92DE
:1034E0000F931F93CF93DF93EC016A017B012115AA
:1034F000310579F4E881F9810190F081E02D642FA4
:10350000DF91CF911F910F91FF90EF90DF90CF90BF
:1035100009942A303105E9F477FF1AC06DE20E9460
:10352000E4198C0144275527BA014C195D096E092D
:103530007F092AE0CE010E94131A800F911FDF91AC
:10354000CF911F910F91FF90EF90DF90CF90089552
:103550002AE0B701A601CE01DF91CF911F910F9113
:10356000FF90EF90DF90CF900C94131A9A01AB016B
:10357000662757FD6095762F0C946C1A211531053E
:1035800041F4DC01ED91FC910190F081E02D642F7C
:1035900009940C94131A9A01462F50E060E070E0F1
:1035A0000C94BE1A0F931F93CF93DF93EC010E94EC
:1035B000BE1A8C01CE010E94EB19800F911FDF9182
:1035C000CF911F910F910895FC01808191810C94FE
:1035D000251DCF93DF93EC0188819981009711F02D
:1035E0000E94251D198218821D821C821B821A824C
:1035F000DF91CF9108950F931F93CF93DF93EC0149
:103600008B016F5F7F4F888199810E94B41D009765
:1036100031F0998388831B830A8381E001C080E0B5
:10362000DF91CF911F910F910895CF93DF93EC011C
:1036300088819981892B29F08A819B818617970738
:1036400060F4CE010E94FB1A882341F08C819D8199
:10365000892B19F4E881F981108281E0DF91CF9103
:103660000895EF92FF920F931F93CF93DF93EC0196
:103670007B018A01BA010E94151B811104C0CE0191
:103680000E94E91A07C01D830C83B70188819981C4
:103690000E94B11ECE01DF91CF911F910F91FF903B
:1036A000EF900895FC01118210821382128215821C
:1036B00014826115710559F0FB0101900020E9F7B2
:1036C000AF0141505109461B570B0C94311B089513
:1036D000CF93DF93EC016115710561F0FB0101905F
:1036E0000020E9F7AF0141505109461B570B0E94DA
:1036F000311B02C00E94E91ACE01DF91CF910895DB
:103700000F931F93CF93DF93CDB7DEB729970FB6F3
:10371000F894DEBF0FBECDBF8C01862FF801118259
:103720001082138212821582148250E0BE016F5FF4
:103730007F4F90E00E94141FBE016F5F7F4FC80152
:103740000E94681B29960FB6F894DEBF0FBECDBF4E
:10375000DF91CF911F910F9108950F931F93CF93F6
:10376000DF93CDB7DEB7A1970FB6F894DEBF0FBEDB
:10377000CDBF8C01CB01BA01F801118210821382F6
:1037800012821582148230E0AE014F5F5F4F0E94BB
:10379000E71EBE016F5F7F4FC8010E94681BA196A4
:1037A0000FB6F894DEBF0FBECDBFDF91CF911F9152
:1037B0000F910895EF92FF920F931F93CF93DF9392
:1037C000EC017B010C811D816115710511F480E014
:1037D00016C04115510591F0040F151FB8010E9444
:1037E000151B8823A1F3288139818C819D81B70124
:1037F000820F931F0E94B11E1D830C8381E0DF9115
:10380000CF911F910F91FF90EF900895FB0144819C
:103810005581608171810C94DA1B6115710559F035
:10382000FB0101900020E9F7AF0141505109461B0F
:10383000570B0C94DA1B80E008950895AA1BBB1B5C
:1038400051E107C0AA1FBB1FA617B70710F0A61BA0
:10385000B70B881F991F5A95A9F780959095BC01C1
:10386000CD01089597FB072E16F4009407D077FD3D
:1038700009D00E941E1C07FC05D03EF4909581954E
:103880009F4F0895709561957F4F0895A1E21A2E7C
:10389000AA1BBB1BFD010DC0AA1FBB1FEE1FFF1FF4
:1038A000A217B307E407F50720F0A21BB30BE40B44
:1038B000F50B661F771F881F991F1A9469F760958B
:1038C0007095809590959B01AC01BD01CF01089545
:1038D000052E97FB1EF400940E947F1C57FD07D015
:1038E0000E94461C07FC03D04EF40C947F1C50959C
:1038F0004095309521953F4F4F4F5F4F08959095DC
:103900008095709561957F4F8F4F9F4F0895EE0F73
:10391000FF1F0590F491E02D0994CF93DF9382303F
:10392000910510F482E090E0E091BE03F091BF03B6
:1039300020E030E0A0E0B0E0309739F140815181E3
:1039400048175907B8F04817590771F482819381D5
:10395000109729F013969C938E9312972CC09093F6
:10396000BF038093BE0327C02115310531F04217F4
:10397000530718F0A901DB0101C0EF019A01BD0155
:10398000DF010280F381E02DD7CF21153105F9F059
:10399000281B390B2430310580F48A819B81611505
:1039A000710521F0FB019383828304C09093BF03D0
:1039B0008093BE03FE01329644C0FE01E20FF31F66
:1039C0008193919322503109398328833AC0209101
:1039D000BC033091BD03232B41F4209102013091AF
:1039E00003013093BD032093BC032091000130916B
:1039F00001012115310541F42DB73EB74091040175
:103A000050910501241B350BE091BC03F091BD03DF
:103A1000E217F307A0F42E1B3F0B2817390778F0A5
:103A2000AC014E5F5F4F2417350748F04E0F5F1F04
:103A30005093BD034093BC038193919302C0E0E097
:103A4000F0E0CF01DF91CF910895CF93DF930097FE
:103A500009F487C0FC01329713821282C091BE0321
:103A6000D091BF03209781F420813181280F391F25
:103A70008091BC039091BD038217930779F5F09371
:103A8000BD03E093BC036DC0DE0120E030E0AE1763
:103A9000BF0750F412964D915C9113979D0141150B
:103AA000510509F1DA01F3CFB383A283408151813B
:103AB000840F951F8A179B0771F48D919C91119724
:103AC000840F951F02969183808312968D919C910D
:103AD0001397938382832115310529F4F093BF0353
:103AE000E093BE033EC0D9011396FC93EE93129768
:103AF0004D915D91A40FB51FEA17FB0779F4808102
:103B00009181840F951F0296D90111969C938E93F3
:103B10008281938113969C938E931297E0E0F0E05C
:103B20008A819B81009719F0FE01EC01F9CFCE014B
:103B3000029628813981820F931F2091BC03309116
:103B4000BD032817390769F4309729F41092BF0391
:103B50001092BE0302C013821282D093BD03C093A1
:103B6000BC03DF91CF910895A0E0B0E0EAEBFDE166
:103B70000C944D1FEC01CB01209719F40E948D1C71
:103B8000B8C0FE01E60FF71F9E0122503109E2176F
:103B9000F30708F4ACC0D9010D911C9111970617D9
:103BA0001707B8F00530110508F49FC0A80144506C
:103BB00051094617570708F498C002501109061B0F
:103BC000170B019311936D937C93CF010E94251DD8
:103BD0008CC05B01A01AB10A4E01800E911EA0910B
:103BE000BE03B091BF03612C712C60E070E01097B0
:103BF00009F449C0A815B905C9F5ED90FC901197D5
:103C0000670142E0C40ED11CCA14DB0478F14701FD
:103C10008A189B08640142E0C40ED11C1296BC9025
:103C200012971396AC91B5E0CB16D10440F0B28256
:103C3000A38391828082D9018D939C9309C00E5FEA
:103C40001F4F0E0D1F1DF90111830083EB2DFA2F5D
:103C50006115710531F0DB011396FC93EE93129719
:103C600044C0F093BF03E093BE033FC06D917C91CD
:103C700011976616770608F43B01BD0112960D9068
:103C8000BC91A02DB4CF6091BC037091BD036815A9
:103C90007905E9F468167906D0F440910001509155
:103CA00001014115510541F44DB75EB76091040122
:103CB00070910501461B570BE417F507C0F4F0930C
:103CC000BD03E093BC03F901918380830EC00E9481
:103CD0008D1C7C01009759F0A801BE010E94A11E15
:103CE000CE010E94251DC70104C0CE0102C080E0A4
:103CF00090E0CDB7DEB7EEE00C94691FFC01882799
:103D00009927E89421912032E9F3293010F02E30E0
:103D1000C8F32B3241F02D3239F4689404C00E946C
:103D2000DF1E820F911D219120532A30C0F31EF413
:103D3000909581959F4F089546E252E00E94B81EEB
:103D40000895FB01DC0102C001900D9241505040EA
:103D5000D8F70895DC0101C06D9341505040E0F761
:103D60000895FB01DC0101900D920020E1F7089518
:103D7000FA01A191B081009719F41097E1F0CD01FB
:103D8000DC01CD010D90002011F4C00113C0FB0136
:103D90002191222319F02015D9F7F3CFFB012191AE
:103DA000201519F41E92119606C02223C1F70D901A
:103DB0000020A1F7D001FA01A193B08308957AE021
:103DC000979F902D879F802D910D11240895253266
:103DD000310520F4223010F00C94F21EFA0110820A
:103DE000CA010895BB27FA01A62F62177105810544
:103DF0009105330B30FB66F0AA27660F771F881FEB
:103E0000991FAA1FA21710F0A21B63953850A9F79B
:103E1000A05DAA3308F0A95DA19336F7B111B19363
:103E20001082CA010C94391F4532510520F44230EA
:103E300010F00C941F1FFB011082CB010895BB27CB
:103E4000FB015527AA27880F991FAA1FA41710F056
:103E5000A41B83955051B9F7A05DAA3308F0A95D62
:103E6000A193009779F7B111B1931192CB010C9402
:103E7000391FDC01FC01672F71917723E1F732973D
:103E800004C07C916D9370836291AE17BF07C8F335
:103E900008952F923F924F925F926F927F928F92EE
:103EA0009F92AF92BF92CF92DF92EF92FF920F93C9
:103EB0001F93CF93DF93CDB7DEB7CA1BDB0B0FB6D3
:103EC000F894DEBF0FBECDBF09942A883988488890
:103ED0005F846E847D848C849B84AA84B984C88426
:103EE000DF80EE80FD800C811B81AA81B981CE0F1D
:103EF000D11D0FB6F894DEBF0FBECDBFED01089502
:103F000010E0C8EED0E004C0FE010E94891C229699
:0A3F1000CA3ED107C9F7F894FFCFAD
:103F1A000000C00380000300020001000200030049
:103F2A0005040D636363636363050000000000001A
:103F3A00001F0000001F00000009190820080000E7
:103F4A0000004F089619BC082E08A208A1084E6F57
:103F5A0064652049443A20004E656F706978656C43
:103F6A002054657374002D2D2D2D2D496E70757496
:103F7A00732D2D2D2D0050696E2300203D20002029
:103F8A002D204F4B00202D205052455353454400BD
:103F9A002D2D2D2D2D43616E204275732D2D2D2D26
:103FAA000043414E2D42555320537461727475700B
:103FBA003A200043414E2D42555320436F6D6D7593
:103FCA006E69636174696F6E3A20436F6D6D616EDD
:103FDA0064204E6F6465002D2D2D2D2D5842656588
:103FEA002D2D2D2D2D004E6F7420476F6F642C20C0
:103FFA00636865636B20796F75722070696E232020
:10400A00616E6420636F6E6E656374696F6E7300B0
:10401A003900242C00000000001A1896199C17B5C4
:10402A0017A717F8170D0A006E616E00696E660011
:06403A006F7666002E0007
:00000001FF
