:100000000C9475000C94B51E0C94E21E0C949D008B
:100010000C949D000C949D000C949D000C949D00EC
:100020000C949D000C949D000C949D000C949D00DC
:100030000C949D000C949D000C949D000C949D00CC
:100040000C940F1F0C949D000C940D220C943F22D5
:100050000C949D000C949D000C949D000C949D00AC
:100060000C949D000C949D00CA17CE1794179717F7
:100070009A179E17A217A517A917AC17AF17B21793
:10008000B517B917BD17C117C41700000008000243
:10009000010000030407000000000000000001024E
:1000A0000408102040800102040810200102040806
:1000B00010200404040404040404020202020202E4
:1000C00003030303030300000000230026002900AC
:1000D00000000000250028002B0000000000240084
:1000E00027002A00EF136F22761411241FBECFEFD2
:1000F000D8E0DEBFCDBF12E0A0E0B1E0E4EBFCE46D
:1001000002C005900D92AE38B107D9F723E0AEE8F2
:10011000B2E001C01D92A93CB207E1F710E0C8EEC1
:10012000D0E004C02297FE010E949424C43ED1076F
:10013000C9F70E94B3220C944D260C940000E09164
:100140002203F09123030190F081E02D682F82E2D9
:1001500093E0099580E090E0089581E08093A60205
:1001600008958FE990E09093D2028093D10210928B
:10017000D4021092D30282E08093CC021092D60275
:100180001092D50289EC92E09093C6038093C50348
:1001900008958091C4029091C502A091C602B091C9
:1001A000C7020697A105B10548F46091FC02709161
:1001B000FD028091FE029091FF0208956091F80285
:1001C0007091F9028091FA029091FB0208958F924A
:1001D0009F92AF92BF92CF92EF92FF920F931F9395
:1001E000CF93DF93CDB7DEB728970FB6F894DEBF75
:1001F0000FBECDBF66E371E082E293E00E940D2363
:1002000023E330E040E050E061E070E080E090E027
:100210000E9434248090C4029090C502A090C6022F
:10022000B090C70285E0880C991CAA1CBB1C8A955B
:10023000D1F70091240110912501209126013091E0
:100240002701802A912AA22AB32A28E0EEE2F1E0CF
:10025000DE01119601900D922A95E1F740919202EC
:1002600050E0469F9001479F300D569F300D11245E
:10027000B901882777FD8095982F0E947C1F92E016
:10028000C92ECE0101967C0108E020E0B501A40151
:100290008FEA92E00E94F61A28960FB6F894DEBF15
:1002A0000FBECDBFDF91CF911F910F91FF90EF90C7
:1002B000CF90BF90AF909F908F900895813049F478
:1002C0006091FC027091FD028091FE029091FF020C
:1002D0000895823049F46091F8027091F90280919A
:1002E000FA029091FB020895833049F46091EC0288
:1002F0007091ED028091EE029091EF0208958430AA
:1003000049F46091F4027091F5028091F6029091A7
:10031000F7020895853049F46091F0027091F1027E
:100320008091F2029091F30208956091E802709139
:10033000E9028091EA029091EB0208950F931F93D6
:100340000091FC021091FD022091FE023091FF020B
:100350006017710782079307D1F10091F80210919D
:10036000F9022091FA023091FB02601771078207AF
:10037000930779F10091EC021091ED022091EE02C9
:100380003091EF02601771078207930721F1009106
:10039000F4021091F5022091F6023091F7026017F5
:1003A00071078207930779F00091F0021091F10232
:1003B0002091F2023091F3026017710782079307D0
:1003C00021F485E009C084E007C080E005C081E039
:1003D00003C082E001C083E01F910F91089588233C
:1003E00039F0815090912A01899F802D1124089520
:1003F00080E00895882321F0880F880F880F0895E2
:1004000080912B0108955F926F927F928F929F92BD
:10041000AF92BF92CF92DF92EF92FF920F931F9312
:10042000CF93DF931F92CDB7DEB74B015C01622EF5
:100430007E2C49830E949E018093190184E0809361
:100440001A014981411101C04AE0611002C06624CD
:10045000639410E0C42ED12CE12CF12C81E08615A0
:1004600010F0502E1BC0502E5714D8F72091E802E0
:100470003091E9024091EA025091EB02652D70E063
:1004800080E093E00E94051680E093E00E94EB1468
:10049000C701B6010E947C1F5394E6CF571490F415
:1004A000652D70E0A501940180E093E00E9405169F
:1004B00080E093E00E94EB14C701B6010E947C1F0C
:1004C0005394ECCF1F5F1611C9CF0F90DF91CF91DE
:1004D0001F910F91FF90EF90DF90CF90BF90AF9062
:1004E0009F908F907F906F905F9008959F92AF92B2
:1004F000BF92CF92DF92EF92FF920F931F93CF9311
:10050000DF936B017C01942EA22E0E949E018093AA
:10051000190181E080931A01911002C02AE0922E05
:10052000B12CC0E0D0E010E0BE016A0D7B1D601769
:10053000710740F4A701960180E093E00E94051640
:100540002196F2CF80E093E00E94EB14692D70E0D9
:1005500080E090E0DF91CF911F910F91FF90EF909D
:10056000DF90CF90BF90AF909F900C947C1F0F9323
:1005700086E08093190185E080931A016091F00272
:100580007091F1028091F2029091F30200912B019F
:1005900020E044EF0E94760264E670E080E090E0A4
:1005A0000E947C1F6091FC027091FD028091FE020E
:1005B0009091FF0200912B0120E044EF0E9476020F
:1005C00064E670E080E090E00E947C1F6091F80299
:1005D0007091F9028091FA029091FB0200912B0137
:1005E00020E044EF0E94760264E670E080E090E054
:1005F0000E947C1F6091EC027091ED028091EE02EE
:100600009091EF0200912B0120E044EF0E947602CE
:1006100064E670E080E090E00E947C1F6091F4024C
:100620007091F5028091F6029091F70200912B01F2
:1006300020E044EF0E94760264E670E080E090E003
:100640000E947C1F6091E8027091E9028091EA02A9
:100650009091EB0200912B0120E044EF0E94760282
:100660000F9108956F927F928F929F92AF92BF9257
:10067000CF92DF92EF92FF920F931F93CF93DF936E
:100680001F92CDB7DEB74B015C01142FF02E2983EA
:100690000E949E018093190183E080931A012981B1
:1006A000111101C01EE5211101C021E0612C712C46
:1006B000C22ED12C6C147D04BCF40E2D2F2D412F95
:1006C000C501B4010E9476026091E8027091E902CE
:1006D0008091EA029091EB022F2D412F0E94760229
:1006E0008FEF681A780AE6CF0F90DF91CF911F91B4
:1006F0000F91FF90EF90DF90CF90BF90AF909F90C1
:100700008F907F906F9008956F927F928F929F92BB
:10071000AF92BF92CF92DF92EF92FF920F931F930F
:10072000CF93DF931F92CDB7DEB74B015C01142F3F
:10073000F02E29830E949E018093190182E080930C
:100740001A012981111101C01EE5211101C021E00A
:10075000612C712CC22ED12C0E2D2F2D412FC501B5
:10076000B4016C147D0494F40E9476026091E80256
:100770007091E9028091EA029091EB022F2D412FB6
:100780000E9476028FEF681A780AE6CF0E947602FE
:100790000F90DF91CF911F910F91FF90EF90DF901D
:1007A000CF90BF90AF909F908F907F906F90089563
:1007B0008F929F92AF92BF92EF92FF920F931F93EF
:1007C000CF93DF9300D0CDB7DEB780919E020E9419
:1007D0005E014B015C0100912B0110919F02209161
:1007E000A1024091A202E090A002EE2069F08E2DBD
:1007F00029834A830E94EF01F82E8E2D0E94FA0170
:10080000E82E29814A8102C0E02EF12C111102C08C
:1008100020E004C0113039F40E2D2F2DC501B40194
:100820000E94760228C0123031F40F2DC501B401A8
:100830000E94840320C0133031F40F2DC501B40190
:100840000E94320318C0143031F40F2DC501B401D9
:100850000E94030210C0153071F40F900F90DF91C9
:10086000CF911F910F91FF90EF90BF90AF909F900D
:100870008F900C94B7020F900F90DF91CF911F9142
:100880000F91FF90EF90BF90AF909F908F90089541
:100890001F93CF93DF93182FC82FD0E0FE01EE5E99
:1008A000FE4F80810E949F20FE01E956FD4F9081FE
:1008B0009817E9F090911C01813061F4808321E068
:1008C00030E0012E01C0220F0A94EAF7292B209371
:1008D0001C0111C0108221E030E0012E01C0220F66
:1008E0000A94EAF72095292320931C0103C081E094
:1008F000913009F080E0DF91CF911F9108951F930F
:10090000CF93DF93C2E1D1E010E08991833619F0F3
:10091000812F0E9448041F5F1630B9F7DF91CF91F5
:100920001F9108958F929F92AF92BF92CF92DF92C4
:10093000EF92FF920F93CF93DF93C82F6A017B0151
:100940002BE030E040E050E061E070E080E090E0DB
:100950000E943424C1110E947F048090C4029090B0
:10096000C502A090C602B090C70255E0880C991C41
:10097000AA1CBB1C5A95D1F78C289D28AE28BF28ED
:100980006091920270E080E090E00E947C1FC5E0E0
:10099000D0E032E0C32E48E1E42E41E0F42E08E03E
:1009A00020E0B501A4018FEA92E00E94F61A8823A4
:1009B00011F0219771F7DF91CF910F91FF90EF9098
:1009C000DF90CF90BF90AF909F908F900895CF927F
:1009D000DF92EF92FF920F931F93CF93DF937C01EF
:1009E00000E010E0C0E0D0E0C62ED12CCC15DD0533
:1009F00074F4F70160817181600F711F44E08AED2A
:100A000092E00E94E91B2196085F1F4FEFCFDF9114
:100A1000CF911F910F91FF90EF90DF90CF900895AD
:100A20000F931F93CF93DF938C0163E671E082E213
:100A300093E00E940023E80100E010E0699140E1AA
:100A400050E082E293E00E94EF230730110531F07D
:100A50006AE771E082E293E00E9400230F5F1F4F7C
:100A60000830110559F765E671E082E293E0DF9105
:100A7000CF911F910F910C940023CF92DF92EF92B0
:100A8000FF920F931F93CF93DF937C01C62E68E6EE
:100A900071E082E293E00E94002340E150E06C2D7F
:100AA00082E293E00E94EF236FE671E082E293E03E
:100AB0000E940D2300E010E0C0E0D0E0D12CCC1566
:100AC000DD05E4F4219640E150E0BE0182E293E0CE
:100AD0000E94C22369E771E082E293E00E94002352
:100AE000F70180819181800F911F0E94100582E2A1
:100AF00093E00E940923085F1F4FE1CFDF91CF9160
:100B00001F910F91FF90EF90DF90CF900895CF92BB
:100B1000EF92FF920F931F93CF93DF938091C402C4
:100B20009091C50224E6289FE001299FD00D112451
:100B300026E040E052EC61E070E082E293E00E9447
:100B4000AB21BE0168517C4F882777FD8095982F97
:100B50000E947C1F6CE771E082E293E00E94002318
:100B60004091C4025091C5026091C6027091C702C3
:100B70002AE030E082E293E00E94F62381E00E94C6
:100B8000EA1FBC01882777FD8095982F0E940824D2
:100B90000E94C9006093C0027093C1028093C20298
:100BA0009093C3020091FC021091FD022091FE027D
:100BB0003091FF02601771078207930729F485E1DE
:100BC00090E0A0E0B0E004C086E190E0A0E0B0E0FA
:100BD0008093240190932501A0932601B0932701CF
:100BE00061E0809111010E94302061E0809111014B
:100BF0000E9469208091C4029091C502A091C60212
:100C0000B091C70283309105A105B10521F0089785
:100C1000A105B105C9F461E0809110010E94302066
:100C200061E080910F010E94302060E0809110010E
:100C30000E94692060E080910F010E94692062E0BB
:100C400080910E010E94302066E871E082E293E01C
:100C50000E940D2380E093E00E948E1480E093E0D8
:100C60000E94EB140E94B7026091FC027091FD0299
:100C70008091FE029091FF0200912B0120E040E064
:100C80000E94760264E971E082E293E00E940D2303
:100C9000C2E1D1E010E08881833609F453C062E0FC
:100CA0000E94302064EA71E082E293E00E94002317
:100CB0004AE050E0688182E293E00E94EF2369EA13
:100CC00071E082E293E00E940023812F0E94480499
:100CD000682F70E04AE050E082E293E00E94C22375
:100CE000812F0E944804811112C06091F802709116
:100CF000F9028091FA029091FB0248E0E42E00E0B4
:100D000020E040E00E9403026DEA71E011C06091B2
:100D1000EC027091ED028091EE029091EF0238E0CA
:100D2000E32E00E020E040E00E94030263EB71E06C
:100D300082E293E00E940D236AEF70E080E090E091
:100D40000E947C1F21961F5F163009F0A4CF0E94DD
:100D5000B1006EEB71E082E293E00E940D236EEC35
:100D600071E082E293E00E94002368ED72E08AED78
:100D700092E00E94FE1B8093D7028823F9F06091D5
:100D8000F8027091F9028091FA029091FB0220E141
:100D9000E22E00912A0120E040E00E9403026091CF
:100DA000D70288ED92E00E943D056091D70288ED60
:100DB00092E00E94E70460EB71E012C06091EC02E7
:100DC0007091ED028091EE029091EF0200E1E02E31
:100DD00000912A0120E040E00E9403026CED71E0E6
:100DE00082E293E00E940D2367EE71E082E293E0DD
:100DF0000E940D2368EF71E082E293E00E940023DD
:100E000068E08FEA92E00E948F198111C0C00091C2
:100E10002A01000F6091F8027091F9028091FA02A4
:100E20009091FB02B8E1EB2E20E040E00E9403022B
:100E300060EB71E082E293E00E940D2342E050E01B
:100E40006DEA70E08091C8020E94951E0FE110E0EB
:100E500020E030E040E060E08FEA92E00E94AA19D2
:100E60000FE110E020E030E040E061E08FEA92E046
:100E70000E94AA190091C4021091C5022091C602D5
:100E80003091C70240E060E08FEA92E00E94FE19D4
:100E900000E010E0980140E061E08FEA92E00E94FB
:100EA000FE190091C4021091C5022091C602309132
:100EB000C70240E062E08FEA92E00E94FE1900E083
:100EC00010E0980140E063E08FEA92E00E94FE1992
:100ED00000912401109125012091260130912701D4
:100EE00040E064E08FEA92E00E94FE190091C402A3
:100EF0001091C5022091C6023091C70240E065E022
:100F00008FEA92E00E94FE192091C4023091C5023E
:100F10004091C6025091C702A8EEB3E00E94982407
:100F20000E947C1F4091C4025091C5026091C6028C
:100F30007091C702C5E0440F551F661F771FCA9501
:100F4000D1F78091200190912101A0912201B091CF
:100F50002301482B592B6A2B7B2BD2E0CD2E17EA8D
:100F6000E12E12E0F12E08E020E08FEA92E00E94EC
:100F7000F61A64E670E080E090E00E947C1F8091A9
:100F8000A602882309F440C01092A60218C06AE0A5
:100F900072E082E293E00E940D2300912A01000F8B
:100FA0006091EC027091ED028091EE029091EF025F
:100FB000A8E1EA2E20E040E00E9403021BCF8FEA66
:100FC00092E00E945F1B833049F44DE952E065EAEC
:100FD00072E08FEA92E00E94291BF1CF80912A01F2
:100FE000082F000F080F6091F8027091F9028091AC
:100FF000FA029091FB02F0E2EF2E20E040E00E9426
:10100000030264E372E015C080912A01082F000FEB
:10101000080F6091EC027091ED028091EE029091C8
:10102000EF02E0E2EE2E20E040E00E94030265E4E1
:1010300072E082E293E00E940D2360E177E280E0BB
:1010400090E00E947C1F6091E8027091E90280911B
:10105000EA029091EB0200912B0120E040E00E9417
:101060007602DF91CF911F910F91FF90EF90CF907B
:101070000895811103C060931D0112C081509091A9
:101080001D0121E030E0082E01C0220F0A94EAF78A
:10109000613011F4292B02C02095292320931D01D2
:1010A00040911D0140956091D8027091D9028AED5E
:1010B00092E00C94DA1BCF92DF92EF92FF920F93A3
:1010C000CF9380910A01813039F580910B018823FB
:1010D00009F4FCC26091F4027091F5028091F6026D
:1010E0009091F702E0902B0100E021E040E00E94A7
:1010F00003026091E8027091E9028091EA02909106
:10110000EB02E0902B0121E040E00E9403021092EC
:101110000B0110929502DAC2823009F4D7C2909185
:101120000B01833009F061C0992369F16091F402E9
:101130007091F5028091F6029091F70200912B01D7
:1011400020E040E00E94760210920B0110921C01F8
:101150008091C4029091C502A091C602B091C702CD
:1011600083309105A105B10521F00897A105B105CE
:1011700051F461E0809110010E94692060E080914B
:101180000F010E9469208091950281119FC2C09138
:101190001C010E947F0480911C01C81709F496C2AB
:1011A00041E050E060E070E080919702811103C05F
:1011B00040E050E0BA018091F8029091F902A091CC
:1011C000FA02B091FB02842B952BA62BB72B892B0F
:1011D0008A2B8B2B09F47AC26091C0027091C102F4
:1011E0008091C2029091C30258C0843009F08DC032
:1011F000992309F110920B011092950210921C0193
:101200008091C4029091C502A091C602B091C7021C
:1012100083309105A105B10521F00897A105B1051D
:1012200051F461E0809110010E94692061E0809199
:101230000F010E94692080919502811147C2C091DF
:101240001C010E947F0480911C01C81709F43EC252
:1012500031E080919802811101C030E021E080915D
:101260009702811101C020E06091C0027091C1021B
:101270008091C2029091C302C090FC02D090FD0206
:10128000E090FE02F090FF026C157D058E059F0533
:1012900041F4311128C0222331F100912B0120E0CB
:1012A00013C0C090F802D090F902E090FA02F090DA
:1012B000FB026C157D058E059F05A9F4332399F07B
:1012C000211111C000912B0140E00E947602409153
:1012D000200150912101609122017091230180E051
:1012E0000E9492040EC06091E8027091E902809120
:1012F000EA029091EB0200912B0120E040E00E9475
:10130000760281E080939502E1C1853009F0C8C082
:101310009923F1F18091C4029091C502A091C60277
:10132000B091C70283309105A105B10521F008975E
:10133000A105B10551F461E0809110010E9469207E
:1013400061E080910F010E9469206091F402709128
:10135000F5028091F6029091F702E0902B0100E0F7
:1013600021E040E00E9403026091E8027091E902EE
:101370008091EA029091EB02E0902B0121E040E0A5
:101380000E94030210920B011092950210921C0110
:101390008091950281119AC180919602C0911901A4
:1013A000882309F465C0C090F402D090F502E09063
:1013B000F602F090F702C701B6010E949E01C8171D
:1013C00041F000912B0120E040E0C701B6010E94EE
:1013D0007602C0911C010E947F0480911C01C817F5
:1013E00009F474C181E090919702911101C080E0ED
:1013F00090919802992359F081112BC06091F802C5
:101400007091F9028091FA029091FB020BC088233F
:1014100009F45CC16091FC027091FD028091FE02B2
:101420009091FF0200912B0120E040E00E947602A3
:10143000409120015091210160912201709123017E
:1014400080E00E94920481E08093950210929602BF
:101450003DC16091E8027091E9028091EA029091A9
:10146000EB0200912B0120E040E00E947602EECFDB
:10147000C090E802D090E902E090EA02F090EB021E
:10148000C701B6010E949E01C81709F41FC100914F
:101490002B0120E040E0C701B6010E94760216C190
:1014A000863019F49111EFC011C18730B1F499233E
:1014B00009F40CC16091E8027091E9028091EA029E
:1014C0009091EB0200912B0120E040E00E94760217
:1014D00060E080E00E943908D6C0883009F0BBC0C7
:1014E000992309F448C06091F4027091F50280914B
:1014F000F6029091F702E0902B0100E021E040E03D
:101500000E9403026091EC027091ED028091EE0264
:101510009091EF02E0902B0121E040E00E94030255
:101520006091E8027091E9028091EA029091EB02E9
:10153000E0902B0121E040E00E94030210920B0199
:101540008091C4029091C502A091C602B091C702D9
:1015500083309105A105B10521F00897A105B105DA
:1015600051F461E0809110010E94692061E0809156
:101570000F010E946920C0911C010E947F0480918C
:101580001C01C81709F4A2C080919702811116C0EE
:1015900080919802813009F03FC06091F80270910B
:1015A000F9028091FA029091FB0200912B0120E058
:1015B00040E00E94760266E572E016C0813061F577
:1015C00080919802811115C06091FC027091FD021A
:1015D0008091FE029091FF0200912B0120E040E0FB
:1015E0000E9476026CE572E082E293E00E940D2395
:1015F00021C0813089F46091F0027091F1028091F4
:10160000F2029091F30200912B0120E040E00E9451
:10161000760260E672E0E8CF6091E8027091E9023C
:101620008091EA029091EB0200912B0120E040E0D2
:101630000E94760240912001509121016091220187
:101640007091230180E0CF910F91FF90EF90DF9098
:10165000CF900C9492049923C9F16091E8027091A3
:10166000E9028091EA029091EB0200912B0120E0C7
:1016700040E00E94760260E080E00E94390810920B
:1016800096020E947F0410920B018091C4029091F7
:10169000C502A091C602B091C70283309105A10591
:1016A000B10521F00897A105B10581F460E08091B2
:1016B00010010E94692060E080910F01CF910F918D
:1016C000FF90EF90DF90CF900C946920CF910F9115
:1016D000FF90EF90DF90CF900895CF92DF92EF923E
:1016E000FF920F931F93CF93DF9380910A01813074
:1016F00039F580910B01882309F447C36091EC020E
:101700007091ED028091EE029091EF02E0902B013A
:1017100000E021E040E00E9403026091E802709145
:10172000E9028091EA029091EB02E0902B0121E026
:1017300040E00E94030210920B011092950225C313
:10174000823009F422C390910B01833009F082C0EA
:10175000992369F16091F4027091F5028091F6028B
:101760009091F70200912B0120E040E00E94760268
:1017700010920B0110921C018091C4029091C5023D
:10178000A091C602B091C70283309105A105B105B1
:1017900021F00897A105B10551F461E08091100195
:1017A0000E94692060E080910F010E946920809171
:1017B00095028111EAC223E330E040E050E06AE0A4
:1017C00070E080E090E00E9434246B017C0123E013
:1017D00030E040E050E061E070E080E090E00E94A6
:1017E0003424162FC62FD72F00911C0184E68C9D20
:1017F000B0018D9D700D1124882777FD8095982F5D
:101800000E947C1F10931C01011709F4BEC241E025
:1018100050E060E070E0219719F040E050E0BA013C
:101820008091F8029091F902A091FA02B091FB0226
:10183000842B952BA62BB72B892B8A2B8B2B09F46A
:10184000A4C26091C0027091C1028091C2029091C5
:10185000C30276C0843009F0ABC0992309F110921D
:101860000B011092950210921C018091C40290917C
:10187000C502A091C602B091C70283309105A105AF
:10188000B10521F00897A105B10551F461E08091FF
:1018900010010E94692061E080910F010E9469207F
:1018A00080919502811171C223E330E040E050E065
:1018B0006AE070E080E090E00E9434246B017C01DB
:1018C00023E030E040E050E061E070E080E090E054
:1018D0000E943424162FC62FD72F00911C0184E6B6
:1018E0008C9DB0018D9D700D1124882777FD80950A
:1018F000982F0E947C1F10931C01011709F445C208
:10190000219719F421E030E002C020E031E060913D
:10191000C0027091C1028091C2029091C302C09036
:10192000FC02D090FD02E090FE02F090FF026C15E8
:101930007D058E059F0541F4311128C0222331F128
:1019400000912B0120E013C0C090F802D090F90262
:10195000E090FA02F090FB026C157D058E059F0564
:10196000A9F4332399F0211111C000912B0140E01B
:101970000E94760240912001509121016091220144
:101980007091230180E00E9492040EC06091E802F1
:101990007091E9028091EA029091EB0200912B0193
:1019A00020E040E00E94760281E080939502EDC144
:1019B000853009F0B1C09923F1F18091C402909172
:1019C000C502A091C602B091C70283309105A1055E
:1019D000B10521F00897A105B10551F461E08091AE
:1019E00010010E94692061E080910F010E9469202E
:1019F0006091F4027091F5028091F6029091F702E5
:101A0000E0902B0100E021E040E00E9403026091A1
:101A1000E8027091E9028091EA029091EB02E09075
:101A20002B0121E040E00E94030210920B01109272
:101A3000950210921C01809195028111A6C180919E
:101A40009602C0911901882309F44EC0C090F40297
:101A5000D090F502E090F602F090F702C701B601CF
:101A60000E949E01C81741F000912B0120E040E048
:101A7000C701B6010E94760223E330E040E050E067
:101A80006AE070E080E090E00E9434246B017C0109
:101A900023E030E040E050E061E070E080E090E082
:101AA0000E943424162FC62FD72F00911C0184E6E4
:101AB0008C9DB0018D9D700D1124882777FD809538
:101AC000982F0E947C1F10931C01011709F45DC11F
:101AD000219709F43CC16091F8027091F90280915C
:101AE000FA029091FB023BC1C090E802D090E9025B
:101AF000E090EA02F090EB02C701B6010E949E015D
:101B0000C81709F442C100912B0120E040E0C70151
:101B1000B6010E94760239C1863019F49111F2C0E3
:101B200034C18730B1F4992309F42FC16091E802E0
:101B30007091E9028091EA029091EB0200912B01F1
:101B400020E040E00E94760260E080E00E943908D8
:101B5000D9C0883009F0BDC0992309F448C060910C
:101B6000F4027091F5028091F6029091F702E090F4
:101B70002B0100E021E040E00E9403026091EC02B2
:101B80007091ED028091EE029091EF02E0902B01B6
:101B900021E040E00E9403026091E8027091E902B6
:101BA0008091EA029091EB02E0902B0121E040E06D
:101BB0000E94030210920B018091C4029091C50211
:101BC000A091C602B091C70283309105A105B1056D
:101BD00021F00897A105B10551F461E08091100151
:101BE0000E94692061E080910F010E946920C091EC
:101BF0001C010E947F0480911C01C81709F4C5C014
:101C000080919702811116C080919802813009F06D
:101C10003FC06091F8027091F9028091FA029091B0
:101C2000FB0200912B0120E040E00E94760266E575
:101C300072E016C0813061F580919802811115C063
:101C40006091FC027091FD028091FE029091FF0272
:101C500000912B0120E040E00E9476026CE572E0EA
:101C600082E293E00E940D2321C0813089F46091CB
:101C7000F0027091F1028091F2029091F3020091D2
:101C80002B0120E040E00E94760260E672E0E8CF9F
:101C90006091E8027091E9028091EA029091EB0272
:101CA00000912B0120E040E00E947602409120014B
:101CB00050912101609122017091230180E0DF9118
:101CC000CF911F910F91FF90EF90DF90CF900C94E8
:101CD0009204992309F459C06091E8027091E902D5
:101CE0008091EA029091EB0200912B0120E040E00C
:101CF0000E94760260E080E00E943908109296020D
:101D00000E947F0410920B018091C4029091C50241
:101D1000A091C602B091C70283309105A105B1051B
:101D200021F00897A105B10581F560E080911001CF
:101D30000E94692060E080910F01DF91CF911F9197
:101D40000F91FF90EF90DF90CF900C9469206091FD
:101D5000FC027091FD028091FE029091FF020091C1
:101D60002B0120E040E00E9476024091200150913A
:101D70002101609122017091230180E00E94920470
:101D800081E08093950210929602DF91CF911F918E
:101D90000F91FF90EF90DF90CF900895CF92DF9258
:101DA000EF92FF920F93CF9380910A01813039F522
:101DB00080910B01882309F44DC26091FC0270915F
:101DC000FD028091FE029091FF02E0902B0100E065
:101DD00021E040E00E9403026091E8027091E90274
:101DE0008091EA029091EB02E0902B0121E040E02B
:101DF0000E94030210920B01109295022BC28230B6
:101E000009F428C290910B01833069F5992309F4F4
:101E100050C06091F4027091F5028091F6029091A9
:101E2000F70200912B0120E040E00E947602109220
:101E30000B0110921C018091C4029091C502A091E7
:101E4000C602B091C70283309105A105B10521F00A
:101E50000897A105B10569F561E0809110010E9424
:101E6000692060E022C0843009F044C0992309F160
:101E700010920B011092950210921C018091C402E5
:101E80009091C502A091C602B091C702833091051E
:101E9000A105B10521F00897A105B10551F461E054
:101EA000809110010E94692061E080910F010E94E1
:101EB0006920809195028111CDC16091C00270911D
:101EC000C1028091C2029091C30200912B0120E0D7
:101ED00040E00E94760240912001509121016091E2
:101EE00022017091230180E00E94920481E080939E
:101EF0009502B0C1853009F097C09923F1F1809126
:101F0000C4029091C502A091C602B091C70283306D
:101F10009105A105B10521F00897A105B10551F47E
:101F200061E0809110010E94692061E080910F01C1
:101F30000E9469206091F4027091F5028091F6028E
:101F40009091F702E0902B0100E021E040E00E9438
:101F500003026091E8027091E9028091EA02909197
:101F6000EB02E0902B0121E040E00E94030210927E
:101F70000B011092950210921C0180919502811123
:101F800069C180919602C09119018823A9F1C0907E
:101F9000F402D090F502E090F602F090F702C7014B
:101FA000B6010E949E01C81741F000912B0120E06C
:101FB00040E0C701B6010E9476026091C0027091B4
:101FC000C1028091C2029091C30200912B0120E0D6
:101FD00040E00E94760240912001509121016091E1
:101FE00022017091230180E00E94920481E080939D
:101FF0009502109296022EC1C090E802D090E9029C
:10200000E090EA02F090EB02C701B6010E949E0147
:10201000C81709F41FC100912B0120E040E0C7015F
:10202000B6010E94760216C1863019F49111EFC0F4
:1020300011C18730B1F4992309F40CC16091E80211
:102040007091E9028091EA029091EB0200912B01DC
:1020500020E040E00E94760260E080E00E943908C3
:10206000D6C0883009F0BBC0992309F448C06091FC
:10207000F4027091F5028091F6029091F702E090DF
:102080002B0100E021E040E00E9403026091EC029D
:102090007091ED028091EE029091EF02E0902B01A1
:1020A00021E040E00E9403026091E8027091E902A1
:1020B0008091EA029091EB02E0902B0121E040E058
:1020C0000E94030210920B018091C4029091C502FC
:1020D000A091C602B091C70283309105A105B10558
:1020E00021F00897A105B10551F461E0809110013C
:1020F0000E94692061E080910F010E946920C091D7
:102100001C010E947F0480911C01C81709F4A2C021
:1021100080919702811116C080919802813009F058
:102120003FC06091F8027091F9028091FA0290919B
:10213000FB0200912B0120E040E00E94760266E560
:1021400072E016C0813061F580919802811115C04E
:102150006091FC027091FD028091FE029091FF025D
:1021600000912B0120E040E00E9476026CE572E0D5
:1021700082E293E00E940D2321C0813089F46091B6
:10218000F0027091F1028091F2029091F3020091BD
:102190002B0120E040E00E94760260E672E0E8CF8A
:1021A0006091E8027091E9028091EA029091EB025D
:1021B00000912B0120E040E00E9476024091200136
:1021C00050912101609122017091230180E0CF9113
:1021D0000F91FF90EF90DF90CF900C949204992391
:1021E000C9F16091E8027091E9028091EA02909150
:1021F000EB0200912B0120E040E00E94760260E0BB
:1022000080E00E943908109296020E947F0410928A
:102210000B018091C4029091C502A091C602B091B9
:10222000C70283309105A105B10521F00897A105EA
:10223000B10581F460E0809110010E94692060E0A6
:1022400080910F01CF910F91FF90EF90DF90CF9091
:102250000C946920CF910F91FF90EF90DF90CF9079
:102260000895EF920F9390910A0180910B019130A4
:1022700029F5882309F490C06091FC027091FD0259
:102280008091FE029091FF02E0902B0100E021E09E
:1022900040E00E9403026091F0027091F10280918F
:1022A000F2029091F302E0902B0121E040E00E94C5
:1022B000030210920B01109295026EC0923019F534
:1022C000882309F469C010920B0110929502809145
:1022D00090029091910201969093910280939002C6
:1022E00080931F0180918E0280931E0140912001F6
:1022F00050912101609122017091230180E00F91A2
:10230000EF900C949204973009F5882309F444C0A7
:10231000409120015091210160912201709123018F
:1023200080E00E9492046091E8027091E90280913D
:10233000EA029091EB0200912B0120E040E00E9424
:10234000760260E080E00E94390824C0882321F1F1
:10235000109291021092900210928F0210928E02AF
:1023600010921F0110921E016091E8027091E90223
:102370008091EA029091EB0200912B0120E040E075
:102380000E94760260E080E00E9439081092960276
:102390000E947F0410920B010F91EF900895EF922D
:1023A0000F9390910A0180910B01913029F58823B8
:1023B00009F493C06091FC027091FD028091FE02CD
:1023C0009091FF02E0902B0100E021E040E00E94AC
:1023D00003026091EC027091ED028091EE02909107
:1023E000EF02E0902B0121E040E00E9403021092F6
:1023F0000B011092950271C0923031F5882321F0C3
:1024000010920B011092950280919002909191028E
:102410008F3F91050CF061C00196909391028093DB
:10242000900280931F0180918E0280931E01409143
:10243000200150912101609122017091230180E0DF
:102440000F91EF900C949204973009F5882309F4CA
:1024500044C040912001509121016091220170916E
:10246000230180E00E9492046091E8027091E902E9
:102470008091EA029091EB0200912B0120E040E074
:102480000E94760260E080E00E94390824C0882320
:1024900021F1109291021092900210928F021092EC
:1024A0008E0210921F0110921E016091E80270913D
:1024B000E9028091EA029091EB0200912B0120E069
:1024C00040E00E94760260E080E00E9439081092AD
:1024D00096020E947F0410920B010F91EF900895D5
:1024E0008FEA92E00E94671BF5E0969587957795B5
:1024F0006795FA95D1F70895EF920F93CF93C82F70
:1025000068EF71E082E293E00E9400236C2F8FEA73
:1025100092E00E948F19811121C000912A01000FC1
:102520006091F8027091F9028091FA029091FB0299
:10253000B8E1EB2E20E040E00E9403024AE050E0C8
:102540006C2F82E293E00E94EF236DEA71E082E259
:1025500093E0CF910F91EF900C940D236AE072E01D
:1025600082E293E00E940D2300912A01000F609106
:10257000EC027091ED028091EE029091EF02A8E1E1
:10258000EA2E20E040E00E940302CF910F91EF90ED
:102590000895CF93DF9380919D02811109C00E941D
:1025A0007012AB01BC0181E0DF91CF910C949204D9
:1025B000813021F4DF91CF910C94D803823051F413
:1025C00080919E0280930A0191E090930B01809389
:1025D0001B017BC08330F1F480919E02811102C007
:1025E00060E003C0813061F461E0809110010E94DD
:1025F000692060E080910F01DF91CF910C946920F8
:10260000823009F062C061E0809110010E9469206F
:1026100061E0F0CF843041F460919F0280919E028E
:10262000DF91CF910C943908853051F50E947012DA
:10263000AB01BC012AE030E082E293E00E94E22399
:1026400065E672E082E293E00E940023CDE9D2E0E9
:1026500082E0C53AD80771F069914AE050E082E221
:1026600093E00E94EF2365E672E082E293E00E942D
:102670000023EECF82E293E0DF91CF910C94092307
:102680008630C1F490919E029093940280919F02B3
:10269000809393022091A00220939202963011F42D
:1026A0000E947C1280919402893009F085E0809329
:1026B00018010BC0873049F480919E02813019F4D3
:1026C0008093960202C010929602DF91CF910895F6
:1026D000CF93DF938FEA92E00E945F1B8330A1F4D7
:1026E0004DE952E065EA72E08FEA92E00E94291B10
:1026F00080918E0290918F02019690938F02809329
:102700008E020E94C912E6CF80919402883059F45B
:1027100080919302813019F40E946D0B04C08230C5
:1027200011F40E94CE0E80919402893061F4809160
:102730009302813019F40E94311107C0823029F4CC
:102740000E94CF1102C00E945B0880910A01833071
:1027500009F042C08091C4029091C502A091C602C6
:10276000B091C70283309105A105B10521F008970A
:10277000A105B10589F5C0910C01D0910D018091A1
:102780000E010E949F2090930D0180930C01C817A9
:10279000D90711F14AE050E0BC0182E293E00E94C7
:1027A000CA2380910C0190910D01892BA9F4C4E0FA
:1027B000C0931B01409120015091210160912201A1
:1027C0007091230180E00E9492040E94E70081E062
:1027D00080930B01C0930A01DF91CF91089560911E
:1027E0002B0170E023E040912C0180E093E00E94F7
:1027F000E01540E060E0809129010E944D16609351
:10280000FC027093FD028093FE029093FF0240E071
:102810006091290180E00E944D166093F802709348
:10282000F9028093FA029093FB024091290160E043
:1028300080E00E944D166093F4027093F50280933D
:10284000F6029093F70280912901482F682F0E9489
:102850004D166093F0027093F1028093F202909310
:10286000F3028091290140E0682F0E944D16609389
:10287000EC027093ED028093EE029093EF0240E041
:1028800060E080E00E944D166093E8027093E902D8
:102890008093EA029093EB026CE08AED92E00E9452
:1028A0006D1B80E090E00E943D2690E0A0E0B0E04B
:1028B0008093C4029093C502A093C602B093C7024E
:1028C0008091FC029091FD02A091FE02B091FF0266
:1028D0008093C0029093C102A093C202B093C3023E
:1028E000609128018FEA92E00C94811980E093E0D6
:1028F0000C947A14CF93DF93EC0188859985009727
:1029000011F00E944A258D8187FD05C060E0DF91AE
:10291000CF910C943020DF91CF910895CF93DF9326
:10292000EC018D8187FD07C061E00E94302060E0EE
:102930008D810E94692081E08883DF91CF91089585
:10294000EF92FF920F931F93CF93DF93EC017B01E4
:1029500088859985009711F00E944A258701000F0C
:10296000111F0E0D1F1D1C830B83C8010E94B22472
:1029700099878887009741F0A80160E070E00E9485
:102980003626FA82E98204C01C821B821A821982CE
:10299000DF91CF911F910F91FF90EF900895FC016F
:1029A000668360FF04C081E08287138611C062FFE6
:1029B00006C081E0828782E08387148608951286AC
:1029C00063FF04C082E0838781E003C081E08387E6
:1029D00082E084870895CF92DF92EF92FF920F9367
:1029E0001F93CF93DF93CDB7DEB729970FB6F89437
:1029F000DEBF0FBECDBF8C01DC0118968D919C917E
:102A00001997892B09F49BC00E94591FF801C584AE
:102A1000D684E784F0886C197D098E099F0962339A
:102A200071058105910580F3F894838194819A83DF
:102A30008983A085B1857D01EFEFEE1AFE0A8C91A6
:102A40008987D80116969C91169751960D90BC9146
:102A5000A02DF801838991FF2EC09C91982B988717
:102A60009C91809589238F838F818E8388E08D83CD
:102A700058856F8149853D812E8189819A81F70131
:102A80005C9347FD252F3A952C93262F39F0441F50
:102A900000C000006C93000000C0F2CF38E041910C
:102AA0006C930000019761F7F801B28BA18B498705
:102AB0003D832E8338C09C91982B98879C9180955C
:102AC00089238F838F818C8388E08B8358856F81E6
:102AD00049853B812C8189819A81F7015C9347FD6F
:102AE000252F00C000C02C9300C000C000C000C053
:102AF00000C06C930000262F3A9541F0441F00005F
:102B000000C000C000C000C000C0E8CF38E0419164
:102B100000C06C9300C0019709F7F801B28BA18B3C
:102B200049873B832C839A83898378940E94591F19
:102B3000D8011D966D937D938D939C935097299604
:102B40000FB6F894DEBF0FBECDBFDF91CF911F91BE
:102B50000F91FF90EF90DF90CF9008951F93CF9348
:102B6000DF93EC01162F8881882331F08D8187FD5A
:102B700003C060E00E9430201D838881882341F0DB
:102B800061E0812F0E94302060E0812F0E94692047
:102B9000812F90E0FC01EE54FF4FE491F0E0EE0F46
:102BA000FF1FE053FF4F259134913A8B298BFC0195
:102BB000E256FF4F84918B8BDF91CF911F91089547
:102BC0000F931F93CF93DF9300D0CDB7DEB78C0167
:102BD000FC011082178211861086158616861786CC
:102BE000108A2A8349830E94A0144981642FC80156
:102BF0000E94AE152A81622FC8010F900F90DF91BD
:102C0000CF911F910F910C94CF14CF92DF92EF923E
:102C1000FF920F931F93CF93DF93FC0181819281E9
:102C20006817790788F5CA01AA27BB27082FC32E82
:102C3000D42EE52EFF241C2DD22FC781CC2361F08A
:102C40008C9FC0011124092FCC9E600111241D2DE1
:102C50002C9F90011124D32F9B01220F331F260F8D
:102C6000371F80859185820F931F2285DC01A20F7B
:102C7000B11D0C932385DC01A20FB11D1C9324858B
:102C8000FC01E20FF11DD083DF91CF911F910F91D5
:102C9000FF90EF90DF90CF900895962F50E060E086
:102CA00070E0592B682BCB01BA0108958EBD00004E
:102CB0000DB407FEFDCF8EB50895CF93DF93EC01E1
:102CC00060E088890E94692080EC0E94561661E0CD
:102CD00088890E9469206AE070E080E090E0DF91DE
:102CE000CF910C947C1F1F93CF93DF93EC01162F91
:102CF00060E088890E94692083E00E945616812F37
:102D00000E94561680E00E945616182F61E08889AE
:102D10000E946920812FDF91CF911F910895CF925A
:102D2000DF92EF92FF920F931F93CF93DF9300D028
:102D3000CDB7DEB78C01F62EE22E60E0FC01808973
:102D400049835A830E94692083E00E9456168F2D82
:102D50000E9456164981C42E5A81D52EF12CFE149C
:102D600059F0F8E0FF1641F080E00E945616F60197
:102D700081936F01F394F3CF61E0F80180890F90A4
:102D80000F90DF91CF911F910F91FF90EF90DF9007
:102D9000CF900C946920EF92FF921F93CF93DF9313
:102DA0001F92CDB7DEB77C01162F60E0FC01808951
:102DB00049830E94692082E00E945616812F0E945A
:102DC00056164981842F0E94561661E0F7018089CA
:102DD0000F90DF91CF911F91FF90EF900C9469209D
:102DE000CF92DF92EF92FF920F931F93CF93DF93D7
:102DF00000D0CDB7DEB78C01E62EF22E60E0FC01EC
:102E0000808949835A830E94692082E00E94561675
:102E10008E2D0E9456164981E42EC42E5A81D52E3D
:102E20008C2D8E198F1530F4F60181916F010E945F
:102E30005616F6CF61E0F80180890F900F90DF9170
:102E4000CF911F910F91FF90EF90DF90CF900C9456
:102E50006920EF92FF921F93CF93DF9300D0CDB7FD
:102E6000DEB77C01162F60E0FC0180892A8349834C
:102E70000E94692085E00E945616812F0E945616F6
:102E80004981842F0E9456162A81822F0E9456164D
:102E900061E0F70180890F900F90DF91CF911F9132
:102EA000FF90EF900C9469201F93CF93DF93EC0178
:102EB00060E088890E94692080EA0E94561680E0BE
:102EC0000E945616182F61E088890E946920812F80
:102ED000DF91CF911F9108951F93CF93DF93EC0162
:102EE000162F262F40EE6FE00E9429176FE0CE01CB
:102EF0000E947316982F907E81E0911301C080E0AC
:102F0000DF91CF911F9108950F931F93CF93DF937C
:102F1000EC01462F50E0FA013197E131F105C0F59F
:102F2000EC5CFF4F0C94922417E80FEF05C017E0FC
:102F30000AEB02C015E801EF4FE033C017E00EEBDB
:102F400049E02FC017E80FEF02C017E80AEF47E08B
:102F500028C017E80FEF0BC017E00EEB08C017E012
:102F60000DEA05C017E80AEF02C016E800EF43E0DB
:102F700018C017E80AEF41E014C015E801EF41E47A
:102F800010C016E800EF02C012E800ED40E009C0F2
:102F900081E016C017E80FEF4FE303C017E80FEF0B
:102FA0004FE16AE2CE010E94CB16402F69E2CE01CA
:102FB0000E94CB16412F68E2CE010E94CB1680E022
:102FC000DF91CF911F910F9108951F93CF93DF93BE
:102FD000EC0110E340E0612FCE010E94CB1660E1CE
:102FE000610F40E0CE010E94CB1660E2610F40E02D
:102FF000CE010E94CB161F5F1E3361F740E060E6F2
:10300000CE010E94CB1640E060E7CE01DF91CF9168
:103010001F910C94CB160F931F93CF93DF93EC016A
:10302000062F0E945D1660E8CE010E946C17182FD3
:103030006AE070E080E090E011110CC00E947C1FFB
:10304000602FCE010E948417882339F06AE070E077
:1030500080E090E00E947C1F28C06AE070E080E081
:1030600090E00E947C1FCE010E94E51743E06BE2D6
:10307000CE010E94CB1624E044E660E6CE010E9419
:10308000291720E040E660E7CE010E94291760E0A2
:10309000CE010E946C17C82F8823C1F26AE070E04D
:1030A00080E090E00E947C1F1C2F812FDF91CF9148
:1030B0001F910F9108950F931F93CF93DF9300D02B
:1030C00000D0CDB7DEB74130B1F40C831B8389014A
:1030D00022273327502F5C71402F437078E0579F91
:1030E000400D112448604A8355E0169507955A957E
:1030F000E1F709830DC0A80123E0569547952A956D
:10310000E1F749830295000F007E0A831C821B822F
:1031100024E0AE014F5F5F4F0E94F0160F900F90BA
:103120000F900F90DF91CF911F910F910895EF9223
:10313000FF920F931F93CF93DF9300D000D0CDB7B2
:10314000DEB77A018901FA011082F9011082118239
:103150001282138224E0AE014F5F5F4F0E948F16F0
:103160002A813981822F90E045E0959587954A958F
:10317000E1F7F8E03F9F800D911D1124AA2797FDEC
:10318000A095BA2FF80180839183A283B38323FF94
:1031900025C062E0880F991FAA1FBB1F6A95D1F74F
:1031A0002370820F911DA11DB11DBA2FA92F982F39
:1031B00088272B81820F911DA11DB11DBA2FA92F28
:1031C000982F88272C81820F911DA11DB11D80830E
:1031D0009183A283B38381E0F70180830F900F90E6
:1031E0000F900F90DF91CF911F910F91FF90EF9073
:1031F0000895FF920F931F93CF93DF93EC01F62E68
:10320000AC014A5F5F4F65E06F0D2D810E94F016A3
:103210008E85813019F48D8180648D8364E06F0D1B
:103220004D81CE010E94CB1609811A812B813C81F0
:1032300048816F2DCE010E945B18DF91CF911F91C5
:103240000F91FF9008950F931F93CF93DF93EC019D
:10325000162F9C012F5F3F4FAC010E9497186FEF14
:10326000610FCE010E947316082F64E0610FCE013A
:103270000E947316282F8D8303FF03C081E08E8781
:1032800001C01E862F702D83AE014A5F5F4F65E03F
:10329000610FCE01DF91CF911F910F910C948F168A
:1032A000615028E048E00C942917FF920F931F9378
:1032B000CF93DF9300D01F92CDB7DEB78B0120E311
:1032C000298320E42A8320E52B83FB011082FE0161
:1032D000E40FF11DF1806F2D0E947316982F9870E6
:1032E00083FD04C0F394F801F08201C092E0892FBD
:1032F0000F900F900F90DF91CF911F910F91FF9042
:103300000895CF93DF93EC01862F688B61E00E94D4
:10331000302061E08889DF91CF910C946920CF93B0
:10332000DF9300D01F92CDB7DEB76B8389839A837A
:103330000E945F1E6B8189819A810E940B1891E027
:10334000811101C090E0892F0F900F900F90DF91B5
:10335000CF9108958F929F92BF92CF92DF92EF927A
:10336000FF920F931F93CF93DF931F92CDB7DEB7DA
:103370004C01B62E680179016AE070E080E090E0CF
:1033800049830E947C1F60E8C4010E946C17182FBB
:103390004981882329F06AE070E080E090E01AC05B
:1033A000B11004C09701860160E206C081E0B81246
:1033B00006C09701860164E2C4010E945B1860E0C8
:1033C000C4010E946C17182F6AE070E080E090E062
:1033D000112321F00E947C1F812F03C00E947C1FBB
:1033E00080E00F90DF91CF911F910F91FF90EF90B0
:1033F000DF90CF90BF909F908F900895AF92BF9233
:10340000CF92DF92EF92FF920F931F93CF93DF93B0
:1034100000D0CDB7DEB75C01562F680179016AE0B4
:1034200070E080E090E04A8359830E947C1F60E84E
:10343000C5010E946C17182F4A815981882329F0F1
:103440006AE070E080E090E031C05230B1F040F4CA
:10345000552379F05130F9F49701860164E018C0E2
:10346000543099F070F05530B1F49701860168E15D
:103470000FC09701860160E00BC09701860168E0EC
:1034800007C09701860160E103C09701860164E1EE
:10349000C5010E945B1860E0C5010E946C17182FDF
:1034A0006AE070E080E090E0112321F00E947C1F30
:1034B000812F03C00E947C1F80E00F900F90DF914E
:1034C000CF911F910F91FF90EF90DF90CF90BF9021
:1034D000AF900895CF92DF92EF920F931F93CF9307
:1034E000DF93FC012083418352836383748309301B
:1034F00008F008E00583E686D60180E090E010E061
:10350000801791073CF42D91EF01C80FD91F2E832E
:103510000196F6CF80E0DF91CF911F910F91EF9050
:10352000DF90CF900895CF92DF92EF92FF920F93AA
:103530006701E12C0E946A1A0F91FF90EF90DF90D3
:10354000CF900895DF92EF92FF920F931F93CF9346
:10355000DF931F92CDB7DEB78C01D62EE12CF12C74
:103560004D2DBE016F5F7F4FC8010E9455199FEF1F
:10357000E91AF90A823029F482E3E816F10481F7A6
:103580002BC092E3E916F10439F16981C8010E9468
:10359000F9186981C8010E945019E12CF12C8FEFB4
:1035A000E81AF80A69816150C8010E947316D82E82
:1035B00061E070E080E090E00E947C1FD3FE06C0D6
:1035C00092E3E916F10459F787E007C082E3E816B1
:1035D000F104D1F380E001C086E00F90DF91CF913C
:1035E0001F910F91FF90EF90DF900895CF92EF928F
:1035F000FF920F93CF93DF93EC010E94931A6C2DEF
:10360000CE01DF91CF910F91FF90EF90CF900C946E
:10361000A21ACF93DF93EC010E94541780FF07C0DA
:1036200061E6CE010E94231920E041E008C081FF3D
:103630000CC061E7CE010E94231920E042E06CE259
:10364000CE010E94291780E001C084E0DF91CF9174
:103650000895EF92FF920F931F93CF93DF9300D0C3
:10366000CDB7DEB77C018B0149835A830E94091BC9
:1036700049815A81811118C0D70115969C91F80192
:103680009083FA0120E030E0D70115964C9150E08C
:10369000241735075CF4D701A20FB31F16969C912F
:1036A00091932F5F3F4FF0CFF80110820F900F9052
:1036B000DF91CF911F910F91FF90EF9008950E949D
:1036C0005417837011F083E0089584E00895FC019D
:1036D000618172818381948108950C94A41DEF927D
:1036E000FF920F931F93CF93DF931F92CDB7DEB757
:1036F0007C01162F042F41E06CEC79830E94071D9A
:1037000041E0612FC7010E94071D41E07981672FC9
:10371000C7010E94071D41E0602FC7010F90DF9194
:10372000CF911F910F91FF90EF900C94071D1F9365
:10373000CF93DF93EC01162F411104C041E06AE5FD
:103740000E94071D41E0612FCE010E94071D41E04C
:10375000612F6095CE010E94071DCE010E94491D78
:103760008A3A39F4CE010E94491D811302C081E0DA
:1037700001C080E0DF91CF911F910895462F6DE841
:1037800070E00C946F1B0F931F93CF93DF9300D0C7
:10379000CDB7DEB78C0169837A830E946A1C698188
:1037A0007A81C8010F900F90DF91CF911F910F91F7
:1037B0000C94651D1F93CF93DF93EC01142F0E948F
:1037C000C31B40E0612FCE01DF91CF911F910C947C
:1037D000971B0F931F93CF93DF931F92CDB7DEB745
:1037E0008C0149830E94C31B4981642FC8010F903B
:1037F000DF91CF911F910F910C94BE1B7F928F92FE
:103800009F92AF92BF92CF92DF92EF92FF920F936F
:103810001F93CF93DF93CDB7DEB728970FB6F894F9
:10382000DEBF0FBECDBF8C014B01712CBE016F5F9F
:103830007F4FC8010E94C71D882359F089818932B2
:10384000A9F767E672E082E293E00E940D23739489
:10385000EDCFC8010E94921D6AEF70E080E090E019
:103860000E947C1FA72CB12CC50123E0880F991F53
:103870002A95E1F70E94B224F40191838083C12C40
:10388000D12CE12CF12CEA14FB047CF4F4016081CE
:1038900071816C0D7D1DC8010E94C71DFFEFEF1ADD
:1038A000FF0A88E0C80ED11CEECF872D28960FB6F0
:1038B000F894DEBF0FBECDBFDF91CF911F910F9166
:1038C000FF90EF90DF90CF90BF90AF909F908F9040
:1038D0007F900895FF920F931F93CF93DF93FC0186
:1038E0000081C181D281F8948981F02EF0948F21DA
:1038F000898378941DE7115029F182E090E00E94BD
:10390000A41F88818023B9F3F8948A818F218A8348
:103910008981802B8983789484EF91E00E94A41F91
:10392000F89489818F21898380E590E00E94A41F0B
:103930008881802311E009F010E0789484EA91E016
:103940000E94A41F812FDF91CF911F910F91FF90B3
:1039500008951F93CF93DF93FC011081C181D28121
:10396000912F909560FF12C0F8948A8189238A83F1
:103970008981812B89838AE090E00E94A41F8A813B
:10398000812B8A83789487E390E011C0F8948A8130
:1039900089238A838981812B898381E490E00E9435
:1039A000A41F8A81812B8A83789485E090E0DF913F
:1039B000CF911F910C94A41F0F931F93CF93DF936C
:1039C000FC011081C181D281F8948981812B898386
:1039D0008A81012F009580238A8383E090E00E94F2
:1039E000A41F8981802389838AE090E00E94A41F1C
:1039F000C881789485E390E00E94A41F1C2381E095
:103A000009F480E0DF91CF911F910F910895CF923B
:103A1000DF92EF92FF920F931F93CF93DF931F924A
:103A2000CDB7DEB76C01E62E08E010E0FF24F3947A
:103A300061E09F2D9E2109F460E0C60149830E9448
:103A4000A91CFF0C0150110949810115110581F7CD
:103A5000411115C0F894D6011196ED91FC91129781
:103A600091818C918095892381831196ED91FC91B0
:103A7000129792818C9180958923828378940F90FC
:103A8000DF91CF911F910F91FF90EF90DF90CF903A
:103A90000895EF92FF920F931F93CF93DF938C01C2
:103AA000C8E0D0E0F12CEE24E394C8010E94DC1CB5
:103AB0008111FE28EE0C2197C1F78F2DDF91CF9158
:103AC0001F910F91FF90EF900895CF92DF92EF92A8
:103AD000FF920F931F93CF93DF931F92CDB7DEB763
:103AE0007C01162F40E065E579830E94071DC12EF9
:103AF0007981D72E00E010E0F60161916F0140E07E
:103B0000C7010E94071D0F5F1F4F08301105A1F765
:103B10000F90DF91CF911F910F91FF90EF90DF9069
:103B2000CF900895FC0113861586148627E030E0B7
:103B3000DF01A20FB31F13961C922115310519F056
:103B400021503109F5CF08951F93CF93DF93EC01F6
:103B5000162F60E0812F0E943020612F70E0FB0162
:103B6000E256FF4FE491E883FB01EE54FF4FE491EE
:103B7000F0E0EE0FFF1FEA53FF4F859194919A8377
:103B80008983CE01DF91CF911F910C94921DAF924A
:103B9000BF92CF92DF92EF92FF920F931F93CF933A
:103BA000DF931F92CDB7DEB75C01E62ED72EFC0166
:103BB000858581115DC0C5010E946A1C811105C007
:103BC000F5011386158614866EC040E060EFC501CE
:103BD0000E94071D01E0F12CC12C11E0C5010E94DB
:103BE000DC1C682FC50169830E94DC1C698161307F
:103BF00019F48130B9F433C02F2D30E068131BC0A5
:103C0000F5018385181730F4E20FF31F83818023B9
:103C100049F402C0181731F060E0193058F4F5018A
:103C2000148708C0F501EF0DF11D8381802B83837C
:103C300061E009C0C12EF501E20FF31F8381902FCF
:103C4000909589238383C5010E94A91C1F5F000FE3
:103C500011F4F39401E0F7E0FF1508F0BFCF113441
:103C600038F0F501C386C11018C081E0858715C002
:103C7000F50113861586148680E0EE2DFD2D20E0DB
:103C800030E0D501A20FB31F13969C9191932F5F43
:103C90003F4F28303105A9F706C0F50183818823FD
:103CA00039F381E0EACF0F90DF91CF911F910F910F
:103CB000FF90EF90DF90CF90BF90AF900895CF939B
:103CC000CFB7F89480911403811127C0ECEBF0E09A
:103CD0008491E8EAF0E09491E82FF0E0EE0FFF1F06
:103CE000E652FF4FA591B4918C91892321F461E0B4
:103CF0008AE00E94692061E08AE00E9430208CB551
:103D000080618CBD8CB580648CBD61E08DE00E94CB
:103D1000302061E08BE00E943020809114038F5F9F
:103D200080931403CFBFCF9108958230E8F4E82F39
:103D3000F0E0EE0FFF1FEB5EFC4F7183608381307C
:103D400041F0809169008C7F842B80936900E89A10
:103D5000089580916900440F551F440F551F837FBC
:103D6000842B80936900E99A08951F920F920FB6F1
:103D70000F9211242F933F934F935F936F937F93F1
:103D80008F939F93AF93BF93EF93FF93809115030E
:103D900090911603892B29F0E0911503F0911603F9
:103DA0000995FF91EF91BF91AF919F918F917F9175
:103DB0006F915F914F913F912F910F900FBE0F9098
:103DC0001F9018951F920F920FB60F9211242F93E8
:103DD0003F934F935F936F937F938F939F93AF9393
:103DE000BF93EF93FF938091170390911803892B52
:103DF00029F0E0911703F09118030995FF91EF91D5
:103E0000BF91AF919F918F917F916F915F914F91F2
:103E10003F912F910F900FBE0F901F9018951F92FA
:103E20000F920FB60F9211242F933F938F939F936E
:103E3000AF93BF9380911A0390911B03A0911C0331
:103E4000B0911D033091190323E0230F2D3720F487
:103E50000196A11DB11D05C026E8230F0296A11DE4
:103E6000B11D2093190380931A0390931B03A09311
:103E70001C03B0931D0380911E0390911F03A0911A
:103E80002003B09121030196A11DB11D80931E0353
:103E900090931F03A0932003B0932103BF91AF9190
:103EA0009F918F913F912F910F900FBE0F901F9078
:103EB00018953FB7F89480911E0390911F03A0912D
:103EC0002003B091210326B5A89B05C02F3F19F010
:103ED0000196A11DB11D3FBF6627782F892F9A2F0C
:103EE000620F711D811D911D42E0660F771F881FB3
:103EF000991F4A95D1F70895CF92DF92EF92FF92E2
:103F0000CF93DF936B017C010E94591FEB01C11419
:103F1000D104E104F10489F00E9450240E94591F49
:103F20006C1B7D0B683E734090F381E0C81AD1088A
:103F3000E108F108C851DC4FEACFDF91CF91FF9043
:103F4000EF90DF90CF9008958230910538F0880F80
:103F5000991F880F991F05970197F1F70895789495
:103F600084B5826084BD84B5816084BD85B582607E
:103F700085BD85B5816085BDEEE6F0E0808181601C
:103F80008083E1E8F0E0108280818260808380811C
:103F900081608083E0E8F0E0808181608083E1EBF4
:103FA000F0E0808184608083E0EBF0E080818160DC
:103FB0008083EAE7F0E08081846080838081826092
:103FC000808380818160808380818068808310927B
:103FD000C10008958E3008F08E50877020912D0119
:103FE00090E4299F90011124822B80937C00809182
:103FF0007A00806480937A0080917A0086FDFCCFFD
:10400000809178002091790090E0922B0895833080
:1040100081F028F4813099F08230A1F00895873042
:10402000A9F08830B9F08430D1F4809180008F7D80
:1040300003C0809180008F7780938000089584B5BD
:104040008F7702C084B58F7D84BD08958091B000C4
:104050008F7703C08091B0008F7D8093B00008956A
:10406000CF93DF9390E0FC01E256FF4F2491FC01D7
:10407000EE54FF4F8491882349F190E0880F991FF7
:10408000FC01E652FF4FA591B49180539F4FFC0174
:10409000C591D4919FB7611108C0F8948C91209577
:1040A00082238C93888182230AC0623051F4F89471
:1040B0008C91322F309583238C938881822B888337
:1040C00004C0F8948C91822B8C939FBFDF91CF9189
:1040D00008950F931F93CF93DF931F92CDB7DEB751
:1040E000282F30E0F901E657FF4F8491F901E2569D
:1040F000FF4F1491F901EE54FF4F04910023C9F0D2
:10410000882321F069830E9407206981E02FF0E075
:10411000EE0FFF1FE053FF4FA591B4919FB7F894A6
:104120008C91611103C01095812301C0812B8C9368
:104130009FBF0F90DF91CF911F910F910895CF9363
:10414000DF93282F30E0F901E657FF4F8491F90102
:10415000E256FF4FD491F901EE54FF4FC491CC23A6
:1041600091F081110E940720EC2FF0E0EE0FFF1F6D
:10417000EA53FF4FA591B4912C912D2381E090E05B
:1041800021F480E002C080E090E0DF91CF910895BB
:10419000FC01818D228D90E0805C9F4F821B9109F4
:1041A0008F7399270895FC01918D828D981731F0B6
:1041B000828DE80FF11D858D90E008958FEF9FEFC0
:1041C0000895FC01918D828D981761F0828DDF0139
:1041D000A80FB11D5D968C91928D9F5F9F73928FFA
:1041E00090E008958FEF9FEF089585E692E2892B86
:1041F00049F080E090E0892B29F00E94652281112E
:104200000C9400000895FC01848DDF01A80FB11DFE
:10421000A35ABF4F2C91848D90E001968F739927FC
:10422000848FA689B7892C93A089B1898C918064E9
:104230008C93938D848D981306C00288F389E02DAA
:1042400080818F7D80830895CF93DF93EC01888DEB
:104250008823C9F0EA89FB89808185FD05C0A8898A
:10426000B9898C9186FD0FC00FB607FCF5CF808110
:1042700085FFF2CFA889B9898C9185FFEDCFCE015A
:104280000E940321E7CFDF91CF910895CF92DF9273
:10429000FF920F931F93CF93DF931F92CDB7DEB79B
:1042A0006C0181E0D60158968C9358975B969C914F
:1042B0005B975C968C915C97981307C05096ED9134
:1042C000FC915197808185FD2EC0F601038D10E091
:1042D0000F5F1F4F0F731127F02EF601848DF81218
:1042E00011C00FB607FCF9CFD6015096ED91FC91A5
:1042F0005197808185FFF1CFC60169830E94032118
:104300006981EBCF838DE80FF11DE35AFF4F608386
:10431000D6015B960C935B975296ED91FC91539767
:10432000808180620CC0D6015696ED91FC91579722
:1043300060835096ED91FC915197808180648083D9
:1043400081E090E00F90DF91CF911F910F91FF904E
:10435000DF90CF900895BF92CF92DF92EF92FF92BD
:10436000CF93DF93EC016A017B01B22EE889F989D2
:1043700082E08083411581EE580761057105A1F047
:1043800060E079E08DE390E0A70196010E9451245E
:10439000215031094109510956954795379527957F
:1043A000211580E1380798F0E889F989108260E8E2
:1043B00074E88EE190E0A70196010E9451242150FB
:1043C0003109410951095695479537952795EC854F
:1043D000FD853083EE85FF852083188EEC89FD896D
:1043E000B082EA89FB89808180618083EA89FB89C8
:1043F000808188608083EA89FB89808180688083EE
:10440000EA89FB8980818F7D8083DF91CF91FF9046
:10441000EF90DF90CF90BF9008951F920F920FB64C
:104420000F9211242F938F939F93EF93FF93E0911B
:104430003203F09133038081E0913803F091390326
:1044400082FD12C0908180913B038F5F8F7320911A
:104450003C03821751F0E0913B03F0E0EE5DFC4F2E
:10446000958F80933B0301C08081FF91EF919F91D5
:104470008F912F910F900FBE0F901F9018951F9244
:104480000F920FB60F9211242F933F934F935F9388
:104490006F937F938F939F93AF93BF93EF93FF930C
:1044A00082E293E00E940321FF91EF91BF91AF91CF
:1044B0009F918F917F916F915F914F913F912F913C
:1044C0000F900FBE0F901F90189582E293E00E940C
:1044D000C82021E0892B09F420E0822F0895109252
:1044E00025031092240388EE93E0A0E0B0E08093CF
:1044F000260390932703A0932803B093290383E70F
:1045000092E0909323038093220385EC90E09093B4
:104510002F0380932E0384EC90E0909331038093DB
:10452000300380EC90E0909333038093320381EC6E
:1045300090E0909335038093340382EC90E0909365
:1045400037038093360386EC90E090933903809391
:10455000380310923B0310923C0310923D031092DB
:104560003E03089508950E94AF1F0E94B2220E9448
:104570008705C5EFD0E20E9468132097E1F30E94FF
:10458000F520F9CFCF92DF92EF92FF920F931F9316
:10459000CF93DF936C017A01EB01E60EF71E00E08A
:1045A00010E0CE15DF0561F06991D601ED91FC9127
:1045B0000190F081E02DC6010995080F191FF1CF78
:1045C000C801DF91CF911F910F91FF90EF90DF9085
:1045D000CF9008956115710581F0DB010D900020E9
:1045E000E9F7AD0141505109461B570BDC01ED9134
:1045F000FC910280F381E02D099480E090E0089521
:104600000C94EA22DC01ED91FC910190F081E02D07
:1046100009946FE772E00C94EA220F931F93CF93F3
:10462000DF93EC010E94EA228C01CE010E94092353
:10463000800F911FDF91CF911F910F9108958F925D
:104640009F92AF92BF92CF92DF92EF92FF920F9321
:104650001F93CF93DF93CDB7DEB7A1970FB6F89432
:10466000DEBF0FBECDBF7C01C42EE52FCB01D22E05
:1046700019A221E02D1510F02AE0D22E8E010F5D37
:104680001F4F8D2C912CA12CB12C6C2D7E2FA501B0
:1046900094010E9451248C2DD29E80191124015026
:1046A00011098A3014F4805D01C0895CF8018083AF
:1046B000211531054105510521F0C22EE32FCA0114
:1046C000E4CFB801C7010E94EA22A1960FB6F89480
:1046D000DEBF0FBECDBFDF91CF911F910F91FF9035
:1046E000EF90DF90CF90BF90AF909F908F90089504
:1046F000CF92DF92EF92FF920F931F93CF93DF93AE
:10470000EC016A017B012115310579F4E881F98119
:104710000190F081E02D642FDF91CF911F910F91D7
:10472000FF90EF90DF90CF9009942A303105E9F4A3
:1047300077FF1AC06DE20E9402238C01442755279F
:10474000BA014C195D096E097F092AE0CE010E9469
:104750001F23800F911FDF91CF911F910F91FF9029
:10476000EF90DF90CF9008952AE0B701A601CE0127
:10477000DF91CF911F910F91FF90EF90DF90CF903D
:104780000C941F239A01AB01662757FD6095762F85
:104790000C9478230F931F93CF93DF93EC019A012E
:1047A000AB01662757FD6095762F0E9478238C0118
:1047B000CE010E940923800F911FDF91CF911F919D
:1047C0000F9108952115310541F4DC01ED91FC9123
:1047D0000190F081E02D642F09940C941F239A011D
:1047E000462F50E060E070E00C94E2230F931F939B
:1047F000CF93DF93EC010E94E2238C01CE010E9453
:104800000923800F911FDF91CF911F910F91089580
:10481000611571058105910511F00C942D260895FF
:10482000CF93DF9300D000D0CDB7DEB79B01AC01B2
:10483000611571058105910569F069833A834B83A0
:104840005C830E94282629813A814B815C810E94E9
:10485000732403C060E070E0CB010F900F900F90C5
:104860000F90DF91CF910895CF92DF92EF92FF9258
:104870006B017C01621773078407950764F4CA0112
:10488000B9016C197D098E099F090E9410246C0DD5
:104890007D1D8E1D9F1DFF90EF90DF90CF9008959E
:1048A0000895A1E21A2EAA1BBB1BFD010DC0AA1F71
:1048B000BB1FEE1FFF1FA217B307E407F50720F089
:1048C000A21BB30BE40BF50B661F771F881F991F04
:1048D0001A9469F760957095809590959B01AC014D
:1048E000BD01CF010895052E97FB1EF400940E9490
:1048F0008A2457FD07D00E94512407FC03D04EF4B0
:104900000C948A2450954095309521953F4F4F4FF8
:104910005F4F089590958095709561957F4F8F4F6B
:104920009F4F0895EE0FFF1F0590F491E02D09941D
:104930000E94A324A59F900DB49F900DA49F800D6D
:10494000911D11240895A29FB001B39FC001A39FA0
:10495000700D811D1124911DB29F700D811D1124B8
:10496000911D0895CF93DF938230910510F482E07A
:1049700090E0E091C103F091C20320E030E0A0E0BC
:10498000B0E0309739F14081518148175907B8F0AC
:104990004817590771F482819381109729F0139673
:1049A0009C938E9312972CC09093C2038093C10363
:1049B00027C02115310531F04217530718F0A9011E
:1049C000DB0101C0EF019A01BD01DF010280F3812B
:1049D000E02DD7CF21153105F9F0281B390B2430F4
:1049E000310580F48A819B816115710521F0FB01FD
:1049F0009383828304C09093C2038093C103FE011A
:104A0000329644C0FE01E20FF31F8193919322502E
:104A10003109398328833AC02091BF033091C00304
:104A2000232B41F420910201309103013093C00304
:104A30002093BF0320910001309101012115310520
:104A400041F42DB73EB74091040150910501241B5C
:104A5000350BE091BF03F091C003E217F307A0F418
:104A60002E1B3F0B2817390778F0AC014E5F5F4FC4
:104A70002417350748F04E0F5F1F5093C003409333
:104A8000BF038193919302C0E0E0F0E0CF01DF919A
:104A9000CF910895CF93DF93009709F487C0FC016D
:104AA000329713821282C091C103D091C203209722
:104AB00081F420813181280F391F8091BF039091AB
:104AC000C0038217930779F5F093C003E093BF0307
:104AD0006DC0DE0120E030E0AE17BF0750F4129643
:104AE0004D915C9113979D014115510509F1DA0132
:104AF000F3CFB383A28340815181840F951F8A171E
:104B00009B0771F48D919C911197840F951F0296CC
:104B10009183808312968D919C91139793838283C6
:104B20002115310529F4F093C203E093C1033EC07F
:104B3000D9011396FC93EE9312974D915D91A40FBA
:104B4000B51FEA17FB0779F480819181840F951FC7
:104B50000296D90111969C938E938281938113962C
:104B60009C938E931297E0E0F0E08A819B810097FE
:104B700019F0FE01EC01F9CFCE01029628813981AE
:104B8000820F931F2091BF033091C003281739076C
:104B900069F4309729F41092C2031092C10302C045
:104BA00013821282D093C003C093BF03DF91CF91D1
:104BB00008958F929F92AF92BF92CF92DF92EF9221
:104BC000FF92CF93DF93EC01688179818A819B8189
:104BD000611571058105910521F464E279ED8BE59C
:104BE00097E02DE133EF41E050E00E94732449014A
:104BF0005A019B01AC01A7EAB1E40E9498246B0121
:104C00007C01ACEEB4EFA50194010E944826C60ECB
:104C1000D71EE81EF91EF7FE06C081E0C81AD108AB
:104C2000E10880E8F80AC882D982EA82FB82C701DB
:104C3000B6019F77DF91CF91FF90EF90DF90CF90FB
:104C4000BF90AF909F908F9008950E94D9250895AE
:104C500086E091E00E94D925089560930601709343
:104C6000070180930801909309010895DC0101C0B8
:104C70006D9341505040E0F70895F999FECF92BDF1
:104C800081BDF89A992780B50895B7FF0C949824B0
:104C90000E949824821B930B089510E0C8EED0E088
:104CA00004C0FE010E9494242296CA3ED107C9F78F
:044CB000F894FFCFA6
:104CB4000000C9038000010000000801010004068F
:104CC40005170B0A6363636305000000000000001E
:104CD4001F0000001500000009320820080102042A
:104CE4000000000000004D6F6E746F6E204D657300
:104CF400736167652053656E7400204D4F44453DD4
:104D04000020414354495654593D002053544154C2
:104D1400453D005B005D2000466F756E64200020F9
:104D2400646576696365732E002E20004E6F64659A
:104D34002049443A20004E656F706978656C2054B0
:104D4400657374002D2D2D2D2D496E707574732D82
:104D54002D2D2D0050696E2300203D2000202D2094
:104D64004F4B00202D2050524553534544002D2DC8
:104D74002D2D2D312D576972652D2D2D2D00312DA1
:104D84005769726520546573743A20004E6F6E65DE
:104D940020466F756E64002D2D2D2D2D43616E20E0
:104DA4004275732D2D2D2D0043414E2D4255532018
:104DB400537461727475703A20004E6F7420476F9B
:104DC4006F642C20636865636B20796F7572207043
:104DD400696E2320616E6420636F6E6E656374690F
:104DE4006F6E73004D65737361676520526563650B
:104DF40069766564004E6F7468696E6720526563F6
:104E0400656976656400477265656E005265640085
:104E1400426F7468002C00436F756E74212100008A
:104E24000000004621C222C820E120D32024210D05
:0E4E34000A006E616E00696E66006F766600A1
:00000001FF
