:100000000C9474000C94D6160C9403170C949C005A
:100010000C949C000C949C000C949C000C949C00F0
:100020000C949C000C949C000C949C000C949C00E0
:100030000C949C000C949C000C949C000C949C00D0
:100040000C9430170C949C000C94731C0C94A51CFD
:100050000C949C000C949C000C949C000C949C00B0
:100060000C949C000C949C00FC0F0010C90FCC0F4A
:10007000D00FD40FD70FDB0FDE0FE10FE40FE70F28
:10008000EB0FEF0FF30FF60F000000080002010066
:100090000003040700000000000000000102040843
:1000A00010204080010204081020010204081020E2
:1000B000040404040404040402020202020203030E
:1000C00003030303000000002300260029000000B2
:1000D0000000250028002B0000000000240027005D
:1000E0002A00240CD51CAB0C11241FBECFEFD8E086
:1000F000DEBFCDBF12E0A0E0B1E0ECEEFAE302C05B
:1001000005900D92AA35B107D9F723E0AAE5B2E030
:1001100001C01D92A139B207E1F710E0C6EED0E0B0
:1001200004C02297FE010E943C1DC23ED107C9F7C0
:100130000E94471B0C94691D0C940000E091EA0298
:10014000F091EB020190F081E02D682F8AEE92E0B1
:10015000099580E090E0089581E080936E02089513
:100160008EE990E090939A028093990210929C02FB
:1001700010929B0282E08093940210929E02109251
:100180009D0281E992E090938E0380938D03089500
:1001900080918D0290918E02A0918F02B091900279
:1001A0000697A105B10548F46091C4027091C5029B
:1001B0008091C6029091C70208956091C00270912B
:1001C000C1028091C2029091C3020895813049F426
:1001D0006091C4027091C5028091C6029091C702DD
:1001E0000895823049F46091C0027091C1028091FB
:1001F000C2029091C3020895833049F46091B40221
:100200007091B5028091B6029091B7020895843042
:1002100049F46091BC027091BD028091BE02909140
:10022000BF020895853049F46091B8027091B90217
:100230008091BA029091BB0208956091B0027091D2
:10024000B1028091B2029091B30208950F931F936F
:100250000091C4021091C5022091C6023091C702DC
:100260006017710782079307D1F10091C0021091C6
:10027000C1022091C2023091C30260177107820748
:10028000930779F10091B4021091B5022091B60262
:100290003091B702601771078207930721F100912F
:1002A000BC021091BD022091BE023091BF026017C6
:1002B00071078207930779F00091B8021091B90293
:1002C0002091BA023091BB02601771078207930731
:1002D00021F485E009C084E007C080E005C081E02A
:1002E00003C082E001C083E01F910F91089588232D
:1002F00039F0815090911601899F802D1124089525
:1003000080E00895882321F0880F880F880F0895D2
:100310008091170108955F926F927F928F929F92C2
:10032000AF92BF92CF92DF92EF92FF920F931F9303
:10033000CF93DF931F92CDB7DEB74B015C01622EE6
:100340007E2C49830E9426018093080184E08093DB
:1003500009014981411101C044E1611002C06624D4
:10036000639410E0C42ED12CE12CF12C81E0861591
:1003700010F0502E1BC0502E5714D8F72091B00209
:100380003091B1024091B2025091B302652D70E0FC
:1003900088EC92E00E943A0E88EC92E00E94200DD8
:1003A000C701B6010E949D175394E6CF571490F4ED
:1003B000652D70E0A501940188EC92E00E943A0E50
:1003C00088EC92E00E94200DC701B6010E949D17A3
:1003D0005394ECCF1F5F1611C9CF0F90DF91CF91CF
:1003E0001F910F91FF90EF90DF90CF90BF90AF9053
:1003F0009F908F907F906F905F9008959F92AF92A3
:10040000BF92CF92DF92EF92FF920F931F93CF9301
:10041000DF936B017C01942EA22E0E942601809313
:10042000080181E080930901911002C08AE0982EB2
:10043000B12CC0E0D0E010E0BE016A0D7B1D60175A
:10044000710740F4A701960188EC92E00E943A0EF1
:100450002196F2CF88EC92E00E94200D692D70E089
:1004600080E090E0DF91CF911F910F91FF90EF908E
:10047000DF90CF90BF90AF909F900C949D170F93FB
:1004800086E08093080185E0809309016091B802BD
:100490007091B9028091BA029091BB02009117014C
:1004A00020E044EF0E94FE0164E670E080E090E00E
:1004B0000E949D176091C4027091C5028091C6028E
:1004C0009091C7020091170120E044EF0E94FE01C5
:1004D00064E670E080E090E00E949D176091C002A9
:1004E0007091C1028091C2029091C30200911701E4
:1004F00020E044EF0E94FE0164E670E080E090E0BE
:100500000E949D176091B4027091B5028091B6026D
:100510009091B7020091170120E044EF0E94FE0184
:1005200064E670E080E090E00E949D176091BC025C
:100530007091BD028091BE029091BF02009117019F
:1005400020E044EF0E94FE0164E670E080E090E06D
:100550000E949D176091B0027091B1028091B20229
:100560009091B3020091170120E044EF0E94FE0138
:100570000F9108956F927F928F929F92AF92BF9248
:10058000CF92DF92EF92FF920F931F93CF93DF935F
:100590001F92CDB7DEB74B015C01142FF02E2983DB
:1005A0000E9426018093080183E08093090129813C
:1005B000111101C01EE5211101C021E0612C712C37
:1005C000C22ED12C6C147D04BCF40E2D2F2D412F86
:1005D000C501B4010E94FE016091B0027091B102A8
:1005E0008091B2029091B3022F2D412F0E94FE0103
:1005F0008FEF681A780AE6CF0F90DF91CF911F91A5
:100600000F91FF90EF90DF90CF90BF90AF909F90B1
:100610008F907F906F9008956F927F928F929F92AC
:10062000AF92BF92CF92DF92EF92FF920F931F9300
:10063000CF93DF931F92CDB7DEB74B015C01142F30
:10064000F02E29830E9426018093080182E0809386
:1006500009012981111101C01EE5211101C021E00C
:10066000612C712CC22ED12C0E2D2F2D412FC501A6
:10067000B4016C147D0494F40E94FE016091B002F8
:100680007091B1028091B2029091B3022F2D412F4F
:100690000E94FE018FEF681A780AE6CF0E94FE01E1
:1006A0000F90DF91CF911F910F91FF90EF90DF900E
:1006B000CF90BF90AF909F908F907F906F90089554
:1006C0008F929F92AF92BF92EF92FF920F931F93E0
:1006D000CF93DF9300D0CDB7DEB7809166020E9442
:1006E000E6004B015C010091170110916702209117
:1006F000690240916A02E0906802EE2069F08E2D56
:1007000029834A830E947701F82E8E2D0E94820150
:10071000E82E29814A8102C0E02EF12C111102C07D
:1007200020E004C0113039F40E2D2F2DC501B40185
:100730000E94FE0128C0123031F40F2DC501B40112
:100740000E940C0320C0133031F40F2DC501B401F9
:100750000E94BA0218C0143031F40F2DC501B40143
:100760000E948B0110C0153071F40F900F90DF9133
:10077000CF911F910F91FF90EF90BF90AF909F90FE
:100780008F900C943F020F900F90DF91CF911F91AB
:100790000F91FF90EF90BF90AF909F908F90089532
:1007A0001F93CF93DF93182FC82FD0E0FE01EF5F88
:1007B000FE4F80810E94A31891E0811190E0FE011C
:1007C000E15AFD4F80818917F9F080910B0191303A
:1007D00069F4908321E030E0012E01C0220F0A94D9
:1007E000EAF7282B20930B0181E010C0108221E052
:1007F00030E0012E01C0220F0A94EAF72095282349
:1008000020930B0180E002C0892F8170DF91CF918E
:100810001F9108951F93CF93DF93C1E0D1E010E0C3
:100820008991833619F0812F0E94D0031F5F163003
:10083000B9F7DF91CF911F910895EF92FF920F9337
:10084000CF93DF9300D000D0CDB7DEB7882351F02F
:1008500049835A836B837C830E940A047C816B8169
:100860005A81498180918D0290918E02A0918F02D0
:10087000B091900225E0880F991FAA1FBB1F2A95EF
:10088000D1F7842B952BA62BB72B37E0E32E31E045
:10089000F32E08E020E0AC01BD0187E792E00E9462
:1008A0001A130F900F900F900F90DF91CF910F912F
:1008B000FF90EF900895CF92DF92EF92FF920F9307
:1008C0001F93CF93DF937C0100E010E0C0E0D0E005
:1008D000C62ED12CCC15DD0574F4F7016081718131
:1008E000600F711F44E082EA92E00E940A14219690
:1008F000085F1F4FEFCFDF91CF911F910F91FF90B6
:10090000EF90DF90CF9008950F931F93CF93DF93D5
:100910008C0168E371E08AEE92E00E94941BE8018A
:1009200000E010E0699140E150E08AEE92E00E9420
:100930006B1C0730110531F06FE471E08AEE92E034
:100940000E94941B0F5F1F4F0830110559F76AE38F
:1009500071E08AEE92E0DF91CF911F910F910C949C
:10096000941BCF92DF92EF92FF920F931F93CF933E
:10097000DF937C01C62E6DE371E08AEE92E00E9467
:10098000941B40E150E06C2D8AEE92E00E946B1CBB
:1009900064E471E08AEE92E00E94A11B00E010E0A6
:1009A000C0E0D0E0D12CCC15DD05E4F4219640E187
:1009B00050E0BE018AEE92E00E94561C6EE471E0A7
:1009C0008AEE92E00E94941BF70180819181800F52
:1009D000911F0E9484048AEE92E00E949D1B085F92
:1009E0001F4FE1CFDF91CF911F910F91FF90EF90BB
:1009F000DF90CF900895EF92FF920F931F93CF93C4
:100A0000DF9380918D0290918E0224E6289FB001A1
:100A1000299F700D112468517C4F882777FD8095A0
:100A2000982F0E949D1726E040E052EC61E070E0B4
:100A30008AEE92E00E94E41A61E0809100010E9437
:100A4000341861E0809100010E946D1861E571E049
:100A50008AEE92E00E94A11B88EC92E00E94C30CF7
:100A600088EC92E00E94200D0E943F026091C40237
:100A70007091C5028091C6029091C7020091170142
:100A800020E040E00E94FE016FE571E08AEE92E016
:100A90000E94A11BC1E0D1E010E08881833609F4F7
:100AA00053C062E00E9434186FE671E08AEE92E073
:100AB0000E94941B4AE050E068818AEE92E00E9416
:100AC0006B1C64E771E08AEE92E00E94941B812F18
:100AD0000E94D003682F70E04AE050E08AEE92E076
:100AE0000E94561C812F0E94D003811112C0609178
:100AF000C0027091C1028091C2029091C30228E0AD
:100B0000E22E00E020E040E00E948B0168E771E007
:100B100011C06091B4027091B5028091B6029091BB
:100B2000B70208E0E02E00E020E040E00E948B01E8
:100B30006EE771E08AEE92E00E94A11B6AEF70E01E
:100B400080E090E00E949D1721961F5F163009F00B
:100B5000A4CF0E94B00069E871E08AEE92E00E94A2
:100B6000A11B69E971E08AEE92E00E94941B60EAA1
:100B700072E082EA92E00E941F1480939F02882311
:100B8000F9F06091C0027091C1028091C20290910F
:100B9000C302D0E1ED2E0091160120E040E00E945A
:100BA0008B0160919F0280EA92E00E94B104609103
:100BB0009F0280EA92E00E945B046BE771E012C042
:100BC0006091B4027091B5028091B6029091B70223
:100BD000C0E1EC2E0091160120E040E00E948B0164
:100BE00067EA71E08AEE92E00E94A11B62EB71E07D
:100BF0008AEE92E00E94A11B63EC71E08AEE92E023
:100C00000E94941B67E087E792E00E94D81181114F
:100C1000BEC000911601000F6091C0027091C10228
:100C20008091C2029091C302F8E1EF2E20E040E0F3
:100C30000E948B016BE771E08AEE92E00E94A11B9B
:100C400042E050E06CEA70E0809113010E94B61619
:100C50000FE110E020E030E040E060E087E792E064
:100C60000E94F3110FE110E020E030E040E061E08D
:100C700087E792E00E94F31100918D0210918E029D
:100C800020918F023091900240E060E087E792E08F
:100C90000E94471200E010E0980140E061E087E721
:100CA00092E00E94471200918D0210918E022091D5
:100CB0008F023091900240E062E087E792E00E946C
:100CC000471200E010E0980140E063E087E792E01F
:100CD0000E94471200918D0210918E0220918F0286
:100CE0003091900240E064E087E792E00E94471272
:100CF00000918D0210918E0220918F02309190020E
:100D000040E065E087E792E00E94471220918D0263
:100D100030918E0240918F0250919002A8EEB3E084
:100D20000E94401D0E949D1740918D0250918E029D
:100D300060918F0270919002A5E0440F551F661FCD
:100D4000771FAA95D1F780910F0190911001A09182
:100D50001101B0911201482B592B6A2B7B2BBFE656
:100D6000EB2EB2E0FB2E08E020E087E792E00E9445
:100D70001A1364E670E080E090E00E949D17809175
:100D80006E02882309F440C010926E0218C065ED0F
:100D900071E08AEE92E00E94A11B00911601000F03
:100DA0006091B4027091B5028091B6029091B70241
:100DB000E8E1EE2E20E040E00E948B011DCF87E7A6
:100DC00092E00E948013833049F445E652E06DE6DC
:100DD00072E087E792E00E944A13F1CF80911601FA
:100DE000082F000F080F6091C0027091C10280911E
:100DF000C2029091C30250E2E52E20E040E00E9442
:100E00008B016FEF71E015C080911601082F000F64
:100E1000080F6091B4027091B5028091B602909172
:100E2000B70240E2E42E20E040E00E948B0160E146
:100E300072E08AEE92E00E94A11B60E177E280E01E
:100E400090E00E949D176091B0027091B102809174
:100E5000B2029091B3020091170120E040E00E949D
:100E6000FE010E94C8006093890270938A028093F9
:100E70008B0290938C02DF91CF911F910F91FF9085
:100E8000EF900895811103C060930C0112C081504E
:100E900090910C0121E030E0082E01C0220F0A944D
:100EA000EAF7613011F4292B02C020952923209301
:100EB0000C0140910C0140956091A0027091A1023B
:100EC00082EA92E00C94FB13EF920F93CF93809100
:100ED0008802813099F480915D02882309F4CBC1A6
:100EE00010925D0210925C0240910F01509110012E
:100EF000609111017091120181E0B8C1823009F452
:100F0000BAC190915D02833069F5992379F010920E
:100F10005D0210925C0240910F01509110016091AE
:100F200011017091120181E00E941D0480915C0208
:100F30008111A1C1C0910B010E940A0480910B0193
:100F4000C81709F498C140910F01509110016091A8
:100F500011017091120180E00E941D0481E08093D4
:100F60005C0289C1843011F5992379F010925D02F9
:100F700010925C0240910F0150911001609111019B
:100F80007091120181E00E941D0480915C02811128
:100F900072C1C0910B010E940A0480910B01C81715
:100FA00009F469C181E080935C0257C1853009F082
:100FB00088C0992379F010925D0210925C024091F2
:100FC0000F0150911001609111017091120181E0A7
:100FD0000E941D04C09108016091BC027091BD0285
:100FE0008091BE029091BF020E942601C81304C0E6
:100FF00081E080935E0202C010925E0280915E02E8
:10100000882309F438C180915C02811134C1C091F8
:101010000B010E940A0480910B01C81709F42BC12F
:1010200081E090915F02911101C080E09091600297
:10103000992359F081112BC06091C0027091C102B7
:101040008091C2029091C3020BC0882309F413C19E
:101050006091C4027091C5028091C6029091C7024E
:101060000091170120E040E00E94FE0140910F0135
:1010700050911001609111017091120180E00E9465
:101080001D0481E080935C0210925E02F4C06091C6
:10109000B0027091B1028091B2029091B3020091BE
:1010A000170120E040E00E94FE0140910F015091A5
:1010B0001001609111017091120180E00E941D04E5
:1010C000E3CF863031F4992309F4D5C010925D0244
:1010D000D2C08730B1F4992309F4CDC06091B00239
:1010E0007091B1028091B2029091B3020091170108
:1010F00020E040E00E94FE0160E080E00E944207A4
:10110000AAC0883009F08FC0992369F16091BC02B0
:101110007091BD028091BE029091BF02E0901701D4
:1011200000E021E040E00E948B016091B4027091E8
:10113000B5028091B6029091B702E090170121E0CC
:1011400040E00E948B016091B0027091B1028091E9
:10115000B2029091B302E090170121E040E00E94BA
:101160008B0110925D02C0910B010E940A048091D4
:101170000B01C81709F47FC080915F02811116C06E
:1011800080916002813009F03FC06091C00270918F
:10119000C1028091C2029091C3020091170120E028
:1011A00040E00E94FE0161E272E016C0813061F50C
:1011B00080916002811115C06091C4027091C502D6
:1011C0008091C6029091C7020091170120E040E093
:1011D0000E94FE0167E272E08AEE92E00E94A11B8B
:1011E0003CC0813089F46091B8027091B90280915D
:1011F000BA029091BB020091170120E040E00E94EA
:10120000FE016BE272E0E8CF6091B0027091B10232
:101210008091B2029091B3020091170120E040E06A
:101220000E94FE011AC0992331F16091B0027091C1
:10123000B1028091B2029091B3020091170120E0B7
:1012400040E00E94FE0160E080E00E9442071092B0
:101250005E020E940A0410925D0240910F015091BB
:101260001001609111017091120180E0CF910F91F6
:10127000EF900C941D04CF910F91EF900895EF9291
:101280000F931F9380918802813039F580915D0220
:10129000882309F431C26091BC027091BD02809133
:1012A000BE029091BF02E090170100E021E040E013
:1012B0000E948B016091B0027091B1028091B202E4
:1012C0009091B302E090170121E040E00E948B0171
:1012D00010925D0210925C020FC2823009F40CC2BF
:1012E00090915D02833009F044C0992381F06091B0
:1012F000BC027091BD028091BE029091BF0200912C
:10130000170120E040E00E94FE0110925D028091F2
:101310005C028111F1C110910B010E940A048091BD
:101320000B01181709F4E8C141E050E060E070E0FB
:1013300080915F02811103C040E050E0BA018091CA
:10134000C0029091C102A091C202B091C302842B4D
:10135000952BA62BB72B892B8A2B8B2B09F4CCC171
:101360006091890270918A0280918B0290918C0227
:101370003BC0843009F071C0992321F010925D02C6
:1013800010925C0280915C028111B6C110910B0138
:101390000E940A0480910B01181709F4ADC151E0B5
:1013A00080916002811101C050E041E080915F02B4
:1013B000811101C040E06091890270918A028091A0
:1013C0008B0290918C020091C4021091C502209171
:1013D000C6023091C702601771078207930749F46C
:1013E000511129C0442339F10091170120E040E058
:1013F00014C00091C0021091C1022091C20230912C
:10140000C3026017710782079307A9F4552399F067
:10141000411111C00091170120E00E94FE0140918E
:101420000F0150911001609111017091120180E043
:101430000E941D040EC06091B0027091B1028091B3
:10144000B2029091B3020091170120E040E00E94A7
:10145000FE0181E080935C024FC1853009F072C0CB
:10146000992321F010925D0210925C021091080104
:101470006091BC027091BD028091BE029091BF024A
:101480000E942601181304C081E080935E0202C00E
:1014900010925E0280915E02882309F42DC1809132
:1014A0005C02811129C110910B010E940A048091F4
:1014B0000B01181709F420C181E090915F0291118E
:1014C00001C080E090916002992359F0811129C0F8
:1014D0006091C0027091C1028091C2029091C302DA
:1014E0000BC0882309F408C16091C4027091C50241
:1014F0008091C6029091C7020091170120E040E060
:101500000E94FE0140910F01509110016091110164
:101510007091120180E00E941D0481E080935C02C2
:101520000EC06091B0027091B1028091B2029091B0
:10153000B3020091170120E040E00E94FE011092EA
:101540005E02DAC0863021F4992309F4D5C017C0B1
:101550008730C1F4992309F4CFC06091B002709133
:10156000B1028091B2029091B3020091170120E084
:1015700040E00E94FE0160E080E00E94420710927D
:101580005D02BAC0883009F08FC0992369F160917B
:10159000BC027091BD028091BE029091BF02E090AA
:1015A000170100E021E040E00E948B016091B4024D
:1015B0007091B5028091B6029091B702E090170148
:1015C00021E040E00E948B016091B0027091B10275
:1015D0008091B2029091B302E090170121E040E0C7
:1015E0000E948B0110925D0210910B010E940A046F
:1015F00080910B01181709F47FC080915F0281115F
:1016000016C080916002813009F03FC06091C00235
:101610007091C1028091C2029091C30200911701A2
:1016200020E040E00E94FE0161E272E016C08130DD
:1016300061F580916002811115C06091C4027091C2
:10164000C5028091C6029091C7020091170120E067
:1016500040E00E94FE0167E272E08AEE92E00E94A2
:10166000A11B3CC0813089F46091B8027091B9022D
:101670008091BA029091BB020091170120E040E0F6
:101680000E94FE016BE272E0E8CF6091B0027091BF
:10169000B1028091B2029091B3020091170120E053
:1016A00040E00E94FE011AC0992331F16091B0021E
:1016B0007091B1028091B2029091B3020091170132
:1016C00020E040E00E94FE0160E080E00E944207CE
:1016D00010925E020E940A0410925D0240910F0176
:1016E00050911001609111017091120180E01F91E1
:1016F0000F91EF900C941D041F910F91EF9008959E
:1017000087E792E00E948813F5E096958795779594
:101710006795FA95D1F70895CF93DF93809165028D
:10172000811109C00E94800BAB01BC0181E0DF91F7
:10173000CF910C941D04813021F4DF91CF910C9452
:101740006003823051F4809166028093880291E0B8
:1017500090935D0280930A0150C0833091F4809190
:101760006602811102C060E004C0813031F460E3A0
:1017700080E0DF91CF910C9442078230F1F560E276
:10178000F7CF843029F46091670280916602F1CF2F
:10179000853051F50E94800BAB01BC012AE030E09E
:1017A0008AEE92E00E945E1C60E372E08AEE92E0B4
:1017B0000E94941BC5E6D2E082E0CD36D80771F0D6
:1017C00069914AE050E08AEE92E00E946B1C60E36F
:1017D00072E08AEE92E00E94941BEECF8AEE92E0D5
:1017E000DF91CF910C949D1B863039F48091660275
:1017F00090E090935B0280935A02DF91CF9108951D
:1018000080916E02882399F010926E0287E792E031
:101810000E948013833049F445E652E06DE672E0A1
:1018200087E792E00E944A13F1CF0E948C0B8091CF
:101830005A0290915B028530910511F0029711F4E4
:101840000C9464070C943F096091170170E023E049
:101850004091180188EC92E00E94150E40E060E093
:10186000809115010E94820E6093C4027093C5029C
:101870008093C6029093C70240E06091150180E01A
:101880000E94820E6093C0027093C1028093C202D4
:101890009093C3024091150160E080E00E94820EA7
:1018A0006093BC027093BD028093BE029093BF020E
:1018B00080911501482F682F0E94820E6093B80214
:1018C0007093B9028093BA029093BB028091150184
:1018D00040E0682F0E94820E6093B4027093B502BC
:1018E0008093B6029093B70240E060E080E00E94EF
:1018F000820E6093B0027093B1028093B202909313
:10190000B3026CE082EA92E00E948E1380E090E0E5
:101910000E94611D90E0A0E0B0E080938D02909362
:101920008E02A0938F02B09390028091C402909196
:10193000C502A091C602B091C7028093890290931C
:101940008A02A0938B02B0938C026091140187E706
:1019500092E00C94CA1188EC92E00C94AF0CCF93F7
:10196000DF93EC0188859985009711F00E94691931
:101970008D8187FD05C060E0DF91CF910C94341814
:10198000DF91CF910895CF93DF93EC018D8187FD97
:1019900007C061E00E94341860E08D810E946D18DC
:1019A00081E08883DF91CF910895EF92FF920F93AA
:1019B0001F93CF93DF93EC017B0188859985009776
:1019C00011F00E9469198701000F111F0E0D1F1DD4
:1019D0001C830B83C8010E94CC18998788870097C5
:1019E00041F0A80160E070E00E945A1DFA82E9828D
:1019F00004C01C821B821A821982DF91CF911F9131
:101A00000F91FF90EF900895FC01668360FF04C082
:101A100081E08287138611C062FF06C081E0828761
:101A200082E0838714860895128663FF04C082E0F3
:101A3000838781E003C081E0838782E08487089503
:101A4000CF92DF92EF92FF920F931F93CF93DF938A
:101A5000CDB7DEB729970FB6F894DEBF0FBECDBF66
:101A60008C01DC0118968D919C911997892B09F4B2
:101A70009BC00E947A17F801C584D684E784F08859
:101A80006C197D098E099F096233710581059105E5
:101A900080F3F894838194819A838983A085B185AA
:101AA0007D01EFEFEE1AFE0A8C918987D801169618
:101AB0009C91169751960D90BC91A02DF8018389A9
:101AC00091FF2EC09C91982B98879C91809589239B
:101AD0008F838F818E8388E08D8358856F814985C0
:101AE0003D812E8189819A81F7015C9347FD252FE5
:101AF0003A952C93262F39F0441F00C000006C93B8
:101B0000000000C0F2CF38E041916C9300000197D3
:101B100061F7F801B28BA18B49873D832E8338C0D2
:101B20009C91982B98879C91809589238F838F8196
:101B30008C8388E08B8358856F8149853B812C811C
:101B400089819A81F7015C9347FD252F00C000C071
:101B50002C9300C000C000C000C000C06C93000007
:101B6000262F3A9541F0441F000000C000C000C07D
:101B700000C000C0E8CF38E0419100C06C9300C0C5
:101B8000019709F7F801B28BA18B49873B832C831E
:101B90009A83898378940E947A17D8011D966D9351
:101BA0007D938D939C93509729960FB6F894DEBF42
:101BB0000FBECDBFDF91CF911F910F91FF90EF909E
:101BC000DF90CF9008951F93CF93DF93EC01162FF2
:101BD0008881882331F08D8187FD03C060E00E94F9
:101BE00034181D838881882341F061E0812F0E9491
:101BF000341860E0812F0E946D18812F90E0FC0165
:101C0000E055FF4FE491F0E0EE0FFF1FE253FF4F6E
:101C1000259134913A8B298BFC01E456FF4F849136
:101C20008B8BDF91CF911F9108950F931F93CF93CB
:101C3000DF9300D0CDB7DEB78C01FC011082178294
:101C400011861086158616861786108A2A83498380
:101C50000E94D50C4981642FC8010E94E30D2A819E
:101C6000622FC8010F900F90DF91CF911F910F91BC
:101C70000C94040DCF92DF92EF92FF920F931F937B
:101C8000CF93DF93FC01818192816817790788F5F2
:101C9000CA01AA27BB27082FC32ED42EE52EFF2466
:101CA0001C2DD22FC781CC2361F08C9FC001112441
:101CB000092FCC9E600111241D2D2C9F9001112411
:101CC000D32F9B01220F331F260F371F808591854D
:101CD000820F931F2285DC01A20FB11D0C93238577
:101CE000DC01A20FB11D1C932485FC01E20FF11D44
:101CF000D083DF91CF911F910F91FF90EF90DF90F4
:101D0000CF900895962F50E060E070E0592B682B3B
:101D1000CB01BA0108958EBD00000DB407FEFDCFC2
:101D20008EB50895CF93DF93EC0160E088890E941F
:101D30006D1880EC0E948B0E61E088890E946D18FE
:101D40006AE070E080E090E0DF91CF910C949D1705
:101D50001F93CF93DF93EC01162F60E088890E94D8
:101D60006D1883E00E948B0E812F0E948B0E80E005
:101D70000E948B0E182F61E088890E946D18812FB8
:101D8000DF91CF911F910895CF92DF92EF92FF9252
:101D90000F931F93CF93DF9300D0CDB7DEB78C01A5
:101DA000F62EE22E60E0FC01808949835A830E946E
:101DB0006D1883E00E948B0E8F2D0E948B0E49813F
:101DC000C42E5A81D52EF12CFE1459F0F8E0FF16DE
:101DD00041F080E00E948B0EF60181936F01F39435
:101DE000F3CF61E0F80180890F900F90DF91CF91E0
:101DF0001F910F91FF90EF90DF90CF900C946D1892
:101E0000EF92FF921F93CF93DF931F92CDB7DEB770
:101E10007C01162F60E0FC01808949830E946D18C7
:101E200082E00E948B0E812F0E948B0E4981842FAD
:101E30000E948B0E61E0F70180890F90DF91CF91B6
:101E40001F91FF90EF900C946D18CF92DF92EF925C
:101E5000FF920F931F93CF93DF9300D0CDB7DEB7E0
:101E60008C01E62EF22E60E0FC01808949835A83C2
:101E70000E946D1882E00E948B0E8E2D0E948B0EA8
:101E80004981E42EC42E5A81D52E8C2D8E198F15A2
:101E900030F4F60181916F010E948B0EF6CF61E064
:101EA000F80180890F900F90DF91CF911F910F91D2
:101EB000FF90EF90DF90CF900C946D18EF92FF920F
:101EC0001F93CF93DF9300D0CDB7DEB77C01162FE1
:101ED00060E0FC0180892A8349830E946D1885E0B7
:101EE0000E948B0E812F0E948B0E4981842F0E94AD
:101EF0008B0E2A81822F0E948B0E61E0F701808970
:101F00000F900F90DF91CF911F91FF90EF900C9465
:101F10006D181F93CF93DF93EC0160E088890E94D6
:101F20006D1880EA0E948B0E80E00E948B0E182FA5
:101F300061E088890E946D18812FDF91CF911F91F8
:101F400008951F93CF93DF93EC01162F262F40EEB9
:101F50006FE00E945E0F6FE0CE010E94A80E982FE6
:101F6000907E81E0911301C080E0DF91CF911F91BD
:101F700008950F931F93CF93DF93EC01462F50E00A
:101F8000FA013197E031F105A8F5EC5CFF4F0C94B4
:101F90003A1D17E80FEF02C015E801EF4FE033C01C
:101FA00017E00EEB49E02FC017E80FEF02C017E86B
:101FB0000AEF47E028C017E80FEF0BC017E00EEB61
:101FC00008C017E00DEA05C017E80AEF02C016E8DE
:101FD00000EF43E018C017E80AEF41E014C015E82D
:101FE00001EF41E410C016E800EF02C012E800ED76
:101FF00040E009C081E016C017E80FEF4FE303C0CF
:1020000017E80FEF4FE16AE2CE010E94000F402F68
:1020100069E2CE010E94000F412F68E2CE010E94CA
:10202000000F80E0DF91CF911F910F9108951F93D2
:10203000CF93DF93EC0110E340E0612FCE010E94CB
:10204000000F60E1610F40E0CE010E94000F60E2EE
:10205000610F40E0CE010E94000F1F5F1E3361F749
:1020600040E060E6CE010E94000F40E060E7CE0154
:10207000DF91CF911F910C94000F0F931F93CF937B
:10208000DF93EC01062F0E94920E60E8CE010E94C1
:10209000A10F182F6AE070E080E090E011110CC0F1
:1020A0000E949D17602FCE010E94B90F882339F03E
:1020B0006AE070E080E090E00E949D1728C06AE02E
:1020C00070E080E090E00E949D17CE010E94171002
:1020D00043E06BE2CE010E94000F24E044E660E69C
:1020E000CE010E945E0F20E040E660E7CE010E9434
:1020F0005E0F60E0CE010E94A10FC82F8823C1F2BD
:102100006AE070E080E090E00E949D171C2F812F14
:10211000DF91CF911F910F9108950F931F93CF934C
:10212000DF9300D000D0CDB7DEB74130B1F40C83DF
:102130001B83890122273327502F5C71402F437066
:1021400078E0579F400D112448604A8355E016956A
:1021500007955A95E1F709830DC0A80123E056952C
:1021600047952A95E1F749830295000F007E0A837F
:102170001C821B8224E0AE014F5F5F4F0E94250F3F
:102180000F900F900F900F90DF91CF911F910F91B3
:102190000895EF92FF920F931F93CF93DF9300D098
:1021A00000D0CDB7DEB77A018901FA011082F901BA
:1021B000108211821282138224E0AE014F5F5F4FC2
:1021C0000E94C40E2A813981822F90E045E09595C6
:1021D00087954A95E1F7F8E03F9F800D911D112406
:1021E000AA2797FDA095BA2FF80180839183A28337
:1021F000B38323FF25C062E0880F991FAA1FBB1F6E
:102200006A95D1F72370820F911DA11DB11DBA2FC0
:10221000A92F982F88272B81820F911DA11DB11DF9
:10222000BA2FA92F982F88272C81820F911DA11DCD
:10223000B11D80839183A283B38381E0F701808302
:102240000F900F900F900F90DF91CF911F910F91F2
:10225000FF90EF900895FF920F931F93CF93DF931A
:10226000EC01F62EAC014A5F5F4F65E06F0D2D81EA
:102270000E94250F8E85813019F48D8180648D83B5
:1022800064E06F0D4D81CE010E94000F09811A811B
:102290002B813C8148816F2DCE010E948D10DF91F2
:1022A000CF911F910F91FF9008950F931F93CF939C
:1022B000DF93EC01162F9C012F5F3F4FAC010E9472
:1022C000C9106FEF610FCE010E94A80E082F64E0C5
:1022D000610FCE010E94A80E282F8D8303FF03C03B
:1022E00081E08E8701C01E862F702D83AE014A5F6C
:1022F0005F4F65E0610FCE01DF91CF911F910F918C
:102300000C94C40E615028E048E00C945E0F9F923C
:10231000AF92BF92CF92DF92EF92FF920F931F93F3
:10232000CF93DF9300D01F92CDB7DEB76C017B0156
:1023300080E3898380E48A8380E58B83FB011082BC
:102340008E010F5F1F4F5E01F4E0AF0EB11CF8016C
:1023500091908F01692DC6010E94A80E982F987048
:1023600083FD04C09394F701908204C00A151B05F5
:1023700071F792E0892F0F900F900F90DF91CF911E
:102380001F910F91FF90EF90DF90CF90BF90AF9093
:102390009F900895CF93DF93EC01862F688B61E0C7
:1023A0000E94341861E08889DF91CF910C946D18F8
:1023B000CF93DF9300D01F92CDB7DEB76B838983B5
:1023C0009A830E9480166B8189819A810E943D10B8
:1023D00091E0811101C090E0892F0F900F900F9034
:1023E000DF91CF9108958F929F92BF92CF92DF920B
:1023F000EF92FF920F931F93CF93DF931F92CDB76E
:10240000DEB74C01B62E680179016AE070E080E029
:1024100090E049830E949D1760E8C4010E94A10FCB
:10242000182F4981882329F06AE070E080E090E06D
:102430001AC0B11004C09701860160E206C081E0B5
:10244000B81206C09701860164E2C4010E948D1093
:1024500060E0C4010E94A10F182F6AE070E080E0E4
:1024600090E0112321F00E949D17812F03C00E944C
:102470009D1780E00F90DF91CF911F910F91FF90FA
:10248000EF90DF90CF90BF909F908F900895AF9284
:10249000BF92CF92DF92EF92FF920F931F93CF9351
:1024A000DF9300D0CDB7DEB75C01562F680179010C
:1024B0006AE070E080E090E04A8359830E949D17B3
:1024C00060E8C5010E94A10F182F4A815981882315
:1024D00029F06AE070E080E090E031C05230B1F065
:1024E00040F4552379F05130F9F49701860164E006
:1024F00018C0543099F070F05530B1F4970186014E
:1025000068E10FC09701860160E00BC0970186016A
:1025100068E007C09701860160E103C0970186016A
:1025200064E1C5010E948D1060E0C5010E94A10F09
:10253000182F6AE070E080E090E0112321F00E9403
:102540009D17812F03C00E949D1780E00F900F9070
:10255000DF91CF911F910F91FF90EF90DF90CF907F
:10256000BF90AF900895EF92FF920F93CF93DF93B8
:10257000FC01208341835283638374830583D701E5
:1025800080E090E02D91EF01C80FD91F2E830196B6
:1025900088309105B9F780E0DF91CF910F91FF90DE
:1025A000EF900895EF92FF920F931F93CF93DF93D5
:1025B0001F92CDB7DEB78C01E12CF12CBE016F5F0D
:1025C0007F4FC8010E9487119FEFE91AF90A8230F4
:1025D00029F482E3E816F10489F723C092E3E916AF
:1025E000F104F9F06981C8010E942B116981C801C9
:1025F0000E948211E12CF12C8FEFE81AF80A698110
:10260000C8010E94A80E83FF06C092E3E916F104F8
:1026100099F787E007C082E3E816F104D1F380E080
:1026200001C086E00F90DF91CF911F910F91FF9035
:10263000EF900895EF92FF920F93CF93DF93EC0109
:102640000E94B312CE01DF91CF910F91FF90EF90D6
:102650000C94D212CF93DF93EC010E94890F80FF7C
:1026600007C061E6CE010E94551120E041E008C09C
:1026700081FF0CC061E7CE010E94551120E042E0CD
:102680006CE2CE010E945E0F80E001C084E0DF9129
:10269000CF910895EF92FF920F931F93CF93DF9303
:1026A00000D0CDB7DEB77C018B0149835A830E94ED
:1026B0002A1349815A81811118C0D70115969C911E
:1026C000F8019083FA0120E030E0D70115964C9193
:1026D00050E0241735075CF4D701A20FB31F1696FC
:1026E0009C9191932F5F3F4FF0CFF80110820F9094
:1026F0000F90DF91CF911F910F91FF90EF90089570
:102700000E94890F837011F083E0089584E008959A
:10271000FC01618172818381948108950C94C515B7
:10272000EF92FF920F931F93CF93DF931F92CDB73A
:10273000DEB77C01162F042F41E06CEC79830E94F8
:10274000281541E0612FC7010E94281541E07981D9
:10275000672FC7010E94281541E0602FC7010F9025
:10276000DF91CF911F910F91FF90EF900C9428155E
:102770001F93CF93DF93EC01162F411104C041E06A
:102780006AE50E94281541E0612FCE010E942815BC
:1027900041E0612F6095CE010E942815CE010E9474
:1027A0006A158A3A39F4CE010E946A15811302C073
:1027B00081E001C080E0DF91CF911F910895462F05
:1027C0006DE870E00C9490130F931F93CF93DF93F9
:1027D00000D0CDB7DEB78C0169837A830E948B1459
:1027E00069817A81C8010F900F90DF91CF911F917D
:1027F0000F910C9486151F93CF93DF93EC01142F48
:102800000E94E41340E0612FCE01DF91CF911F9130
:102810000C94B8130F931F93CF93DF931F92CDB7F0
:10282000DEB78C0149830E94E4134981642FC801FB
:102830000F90DF91CF911F910F910C94DF137F9236
:102840008F929F92AF92BF92CF92DF92EF92FF92C0
:102850000F931F93CF93DF93CDB7DEB728970FB6B3
:10286000F894DEBF0FBECDBF8C014B01712CBE01B1
:102870006F5F7F4FC8010E94E815882359F0898156
:102880008932A9F762E372E08AEE92E00E94A11B0E
:102890007394EDCFC8010E94B3156AEF70E080E039
:1028A00090E00E949D17A72CB12CC50123E0880F52
:1028B000991F2A95E1F70E94CC18F4019183808337
:1028C000C12CD12CE12CF12CEA14FB047CF4F40192
:1028D000608171816C0D7D1DC8010E94E815FFEFBC
:1028E000EF1AFF0A88E0C80ED11CEECF872D28967C
:1028F0000FB6F894DEBF0FBECDBFDF91CF911F9111
:102900000F91FF90EF90DF90CF90BF90AF909F908E
:102910008F907F900895FF920F931F93CF93DF9333
:10292000FC010081C181D281F8948981F02EF0945C
:102930008F21898378941DE7115029F182E090E07E
:102940000E94C51788818023B9F3F8948A818F216A
:102950008A838981802B8983789484EF91E00E9417
:10296000C517F89489818F21898380E590E00E94C2
:10297000C5178881802311E009F010E0789484EA7B
:1029800091E00E94C517812FDF91CF911F910F9188
:10299000FF9008951F93CF93DF93FC011081C181B5
:1029A000D281912F909560FF12C0F8948A8189237B
:1029B0008A838981812B89838AE090E00E94C517F0
:1029C0008A81812B8A83789487E390E011C0F89400
:1029D0008A8189238A838981812B898381E490E09C
:1029E0000E94C5178A81812B8A83789485E090E0C4
:1029F000DF91CF911F910C94C5170F931F93CF9325
:102A0000DF93FC011081C181D281F8948981812BEF
:102A100089838A81012F009580238A8383E090E057
:102A20000E94C5178981802389838AE090E00E94F3
:102A3000C517C881789485E390E00E94C5171C23D0
:102A400081E009F480E0DF91CF911F910F9108950B
:102A5000CF92DF92EF92FF920F931F93CF93DF936A
:102A60001F92CDB7DEB76C01E62E08E010E0FF2420
:102A7000F39461E09F2D9E2109F460E0C601498333
:102A80000E94CA14FF0C015011094981011511055A
:102A900081F7411115C0F894D6011196ED91FC9182
:102AA000129791818C918095892381831196ED9164
:102AB000FC91129792818C918095892382837894DE
:102AC0000F90DF91CF911F910F91FF90EF90DF90CA
:102AD000CF900895EF92FF920F931F93CF93DF93C0
:102AE0008C01C8E0D0E0F12CEE24E394C8010E94F0
:102AF000FD148111FE28EE0C2197C1F78F2DDF9177
:102B0000CF911F910F91FF90EF900895CF92DF9298
:102B1000EF92FF920F931F93CF93DF931F92CDB746
:102B2000DEB77C01162F40E065E579830E94281509
:102B3000C12E7981D72E00E010E0F60161916F017E
:102B400040E0C7010E9428150F5F1F4F0830110594
:102B5000A1F70F90DF91CF911F910F91FF90EF9010
:102B6000DF90CF900895FC0113861586148627E028
:102B700030E0DF01A20FB31F13961C92211531051F
:102B800019F021503109F5CF08951F93CF93DF93AA
:102B9000EC01162F60E0812F0E943418612F70E045
:102BA000FB01E456FF4FE491E883FB01E055FF4F42
:102BB000E491F0E0EE0FFF1FEC53FF4F85919491ED
:102BC0009A838983CE01DF91CF911F910C94B31525
:102BD000AF92BF92CF92DF92EF92FF920F931F932B
:102BE000CF93DF931F92CDB7DEB75C01E62ED72ED1
:102BF000FC01858581115DC0C5010E948B14811186
:102C000005C0F5011386158614866EC040E060EF9E
:102C1000C5010E94281501E0F12CC12C11E0C5016D
:102C20000E94FD14682FC50169830E94FD1469810B
:102C3000613019F48130B9F433C02F2D30E06813BE
:102C40001BC0F5018385181730F4E20FF31F838151
:102C5000802349F402C0181731F060E0193058F4AD
:102C6000F501148708C0F501EF0DF11D8381802B5C
:102C7000838361E009C0C12EF501E20FF31F838158
:102C8000902F909589238383C5010E94CA141F5FEA
:102C9000000F11F4F39401E0F7E0FF1508F0BFCF47
:102CA000113438F0F501C386C11018C081E0858762
:102CB00015C0F50113861586148680E0EE2DFD2DD6
:102CC00020E030E0D501A20FB31F13969C919193A1
:102CD0002F5F3F4F28303105A9F706C0F5018381EA
:102CE000882339F381E0EACF0F90DF91CF911F91D4
:102CF0000F91FF90EF90DF90CF90BF90AF9008952D
:102D0000CF93CFB7F8948091DC02811127C0EAEB12
:102D1000F0E08491E6EAF0E09491E82FF0E0EE0F25
:102D2000FF1FE852FF4FA591B4918C91892321F4A4
:102D300061E08AE00E946D1861E08AE00E94341828
:102D40008CB580618CBD8CB580648CBD61E08DE0FC
:102D50000E94341861E08BE00E9434188091DC02FC
:102D60008F5F8093DC02CFBFCF9108958230E8F46B
:102D7000E82FF0E0EE0FFF1FE352FD4F71836083F9
:102D8000813041F0809169008C7F842B80936900B1
:102D9000E89A089580916900440F551F440F551F0C
:102DA000837F842B80936900E99A08951F920F9284
:102DB0000FB60F9211242F933F934F935F936F930E
:102DC0007F938F939F93AF93BF93EF93FF938091E4
:102DD000DD029091DE02892B29F0E091DD02F09175
:102DE000DE020995FF91EF91BF91AF919F918F9175
:102DF0007F916F915F914F913F912F910F900FBEF7
:102E00000F901F9018951F920F920FB60F921124DA
:102E10002F933F934F935F936F937F938F939F93E2
:102E2000AF93BF93EF93FF938091DF029091E00205
:102E3000892B29F0E091DF02F091E0020995FF91E2
:102E4000EF91BF91AF919F918F917F916F915F9122
:102E50004F913F912F910F900FBE0F901F9018959B
:102E60001F920F920FB60F9211242F933F938F93BF
:102E70009F93AF93BF938091E2029091E302A09160
:102E8000E402B091E5023091E10223E0230F2D37F7
:102E900020F40196A11DB11D05C026E8230F02965E
:102EA000A11DB11D2093E1028093E2029093E30201
:102EB000A093E402B093E5028091E6029091E702CC
:102EC000A091E802B091E9020196A11DB11D809385
:102ED000E6029093E702A093E802B093E902BF9163
:102EE000AF919F918F913F912F910F900FBE0F90B7
:102EF0001F9018953FB7F8948091E6029091E702F1
:102F0000A091E802B091E90226B5A89B05C02F3F29
:102F100019F00196A11DB11D3FBF6627782F892F9B
:102F20009A2F620F711D811D911D42E0660F771F60
:102F3000881F991F4A95D1F70895CF92DF92EF929B
:102F4000FF92CF93DF936B017C010E947A17EB0114
:102F5000C114D104E104F10489F00E94721C0E94A2
:102F60007A176C1B7D0B683E734090F381E0C81AA2
:102F7000D108E108F108C851DC4FEACFDF91CF91C9
:102F8000FF90EF90DF90CF9008958230910538F058
:102F9000880F991F880F991F05970197F1F70895DA
:102FA000789484B5826084BD84B5816084BD85B524
:102FB000826085BD85B5816085BDEEE6F0E08081EB
:102FC00081608083E1E8F0E010828081826080830C
:102FD000808181608083E0E8F0E08081816080838F
:102FE000E1EBF0E0808184608083E0EBF0E08081C1
:102FF00081608083EAE7F0E0808184608083808163
:10300000826080838081816080838081806880830A
:103010001092C1000895833081F028F4813099F036
:103020008230A1F008958730A9F08830B9F084305B
:10303000D1F4809180008F7D03C0809180008F77D4
:1030400080938000089584B58F7702C084B58F7D0A
:1030500084BD08958091B0008F7703C08091B00047
:103060008F7D8093B0000895CF93DF9390E0FC01B3
:10307000E456FF4F2491FC01E055FF4F84918823D3
:1030800049F190E0880F991FFC01E852FF4FA5918C
:10309000B49182539F4FFC01C591D4919FB76111A8
:1030A00008C0F8948C91209582238C938881822388
:1030B0000AC0623051F4F8948C91322F30958323FA
:1030C0008C938881822B888304C0F8948C91822B06
:1030D0008C939FBFDF91CF9108950F931F93CF9350
:1030E000DF931F92CDB7DEB7282F30E0F901E85704
:1030F000FF4F8491F901E456FF4F1491F901E05517
:10310000FF4F04910023C9F0882321F069830E94B6
:103110000B186981E02FF0E0EE0FFF1FE253FF4F25
:10312000A591B4919FB7F8948C91611103C010954B
:10313000812301C0812B8C939FBF0F90DF91CF9192
:103140001F910F910895CF93DF93282F30E0F9015D
:10315000E857FF4F8491F901E456FF4FD491F901EC
:10316000E055FF4FC491CC2391F081110E940B18C0
:10317000EC2FF0E0EE0FFF1FEC53FF4FA591B49141
:103180002C912D2381E090E021F480E002C080E0CA
:1031900090E0DF91CF9108950F931F93CF93DF932A
:1031A000BC018230910510F462E070E0E091890387
:1031B000F0918A0340E050E0A0E0B0E024C08081BC
:1031C000918186179707D0F08617970771F482814F
:1031D0009381109729F013969C938E9312972CC08D
:1031E00090938A038093890327C04115510519F0F4
:1031F0008417950718F48D01AC01EF01DF0182817E
:1032000093819C01F9013097D1F641155105F9F0F0
:10321000CA01861B970B8430910580F48A819B81BB
:103220000115110521F0F8019383828304C0909366
:103230008A0380938903FE01329645C0FE01E80FA0
:10324000F91F619371930297998388833CC08091A1
:10325000870390918803892B41F480911B01909101
:103260001C01909388038093870340911D01509126
:103270001E014115510541F44DB75EB7809119010A
:1032800090911A01481B590B2091870330918803B4
:1032900024173507B0F4CA01821B930B86179707D2
:1032A00080F0AB014E5F5F4F8417950750F0420FDF
:1032B000531F5093880340938703F90161937193DF
:1032C00002C0E0E0F0E0CF01DF91CF911F910F91BC
:1032D0000895CF93DF939C01009709F48FC0EC0110
:1032E00022971B821A826091890370918A0361156B
:1032F000710581F488819981820F931F2091870342
:10330000309188032817390739F5D0938803C09383
:10331000870374C0DB0140E050E0AC17BD0708F143
:10332000BB83AA83FE0121913191E20FF31FAE17F7
:10333000BF0779F48D919C911197280F391F2E5F4B
:103340003F4F3983288312968D919C9113979B83CD
:103350008A834115510571F4D0938A03C093890380
:103360004DC012968D919C911397AD01009711F06D
:10337000DC01D3CFDA011396DC93CE931297FA01D6
:1033800021913191E20FF31FCE17DF0769F4888195
:103390009981280F391F2E5F3F4FFA013183208317
:1033A0008A819B8193838283E0E0F0E0DB011296C7
:1033B0008D919C911397009719F0BC01FD01F6CFF8
:1033C000AB014E5F5F4FDB018D919C91840F951F88
:1033D00020918703309188032817390779F43097B3
:1033E00029F410928A031092890302C01382128278
:1033F000425050405093880340938703DF91CF9110
:103400000895FC01818D228D90E0805C9F4F821B8E
:1034100091098F7399270895FC01918D828D9817DA
:1034200031F0828DE80FF11D858D90E008958FEFCA
:103430009FEF0895FC01918D828D981761F0828D28
:10344000DF01A80FB11D5D968C91928D9F5F9F73D8
:10345000928F90E008958FEF9FEF08958BEC9CE1A1
:10346000892B49F080E090E0892B29F00E94CB1C49
:1034700081110C9400000895FC01848DDF01A80FD8
:10348000B11DA35ABF4F2C91848D90E001968F738C
:103490009927848FA689B7892C93A089B1898C91AB
:1034A00080648C93938D848D981306C00288F38971
:1034B000E02D80818F7D80830895CF93DF93EC0191
:1034C000888D8823C9F0EA89FB89808185FD05C044
:1034D000A889B9898C9186FD0FC00FB607FCF5CF7E
:1034E000808185FFF2CFA889B9898C9185FFEDCFC6
:1034F000CE010E943C1AE7CFDF91CF910895CF9281
:10350000DF92FF920F931F93CF93DF931F92CDB75C
:10351000DEB76C0181E0D60158968C9358975B9684
:103520009C915B975C968C915C97981307C0509622
:10353000ED91FC915197808185FD2EC0F601038DA0
:1035400010E00F5F1F4F0F731127F02EF601848DCF
:10355000F81211C00FB607FCF9CFD6015096ED91C5
:10356000FC915197808185FFF1CFC60169830E944C
:103570003C1A6981EBCF838DE80FF11DE35AFF4FB1
:103580006083D6015B960C935B975296ED91FC910C
:103590005397808180620CC0D6015696ED91FC91C4
:1035A000579760835096ED91FC915197808180648C
:1035B000808381E090E00F90DF91CF911F910F9178
:1035C000FF90DF90CF900895BF92CF92DF92EF925D
:1035D000FF92CF93DF93EC016A017B01B22EE88961
:1035E000F98982E08083411581EE580761057105F4
:1035F000A1F060E079E08DE390E0A70196010E94E0
:10360000181D2150310941095109569547953795A3
:103610002795211580E1380798F0E889F98910820B
:1036200060E874E88EE190E0A70196010E94181D01
:1036300021503109410951095695479537952795EC
:10364000EC85FD853083EE85FF852083188EEC891F
:10365000FD89B082EA89FB89808180618083EA8963
:10366000FB89808188608083EA89FB89808180680A
:103670008083EA89FB8980818F7D8083DF91CF9170
:10368000FF90EF90DF90CF90BF90089508950E9433
:10369000D0170E94461B0E94FB04CEE2DAE10E9492
:1036A000000C2097E1F30E942E1AF9CFCF92DF92FF
:1036B000EF92FF920F931F93CF93DF936C017A01E8
:1036C000EB01E60EF71E00E010E0CE15DF0561F01D
:1036D0006991D601ED91FC910190F081E02DC60138
:1036E0000995080F191FF1CFC801DF91CF911F91E4
:1036F0000F91FF90EF90DF90CF90089561157105C5
:1037000081F0DB010D900020E9F7AD014150510936
:10371000461B570BDC01ED91FC910280F381E02DFB
:10372000099480E090E008950C947E1BDC01ED91FB
:10373000FC910190F081E02D09946AE472E00C9410
:103740007E1B0F931F93CF93DF93EC010E947E1B90
:103750008C01CE010E949D1B800F911FDF91CF91A4
:103760001F910F9108958F929F92AF92BF92CF9227
:10377000DF92EF92FF920F931F93CF93DF93CDB71A
:10378000DEB7A1970FB6F894DEBF0FBECDBF7C01A8
:10379000C42EE52FCB01D22E19A221E02D1510F059
:1037A0002AE0D22E8E010F5D1F4F8D2C912CA12C63
:1037B000B12C6C2D7E2FA50194010E94181D8C2D1B
:1037C000D29E80191124015011098A3014F4805DB1
:1037D00001C0895CF801808321153105410551053F
:1037E00021F0C22EE32FCA01E4CFB801C7010E9425
:1037F0007E1BA1960FB6F894DEBF0FBECDBFDF9142
:10380000CF911F910F91FF90EF90DF90CF90BF90DD
:10381000AF909F908F900895CF92DF92EF92FF929A
:103820000F931F93CF93DF93EC016A017B01211566
:10383000310579F4E881F9810190F081E02D642F60
:10384000DF91CF911F910F91FF90EF90DF90CF907C
:1038500009942A303105E9F477FF1AC06DE20E941D
:10386000961B8C0144275527BA014C195D096E0936
:103870007F092AE0CE010E94B31B800F911FDF91C8
:10388000CF911F910F91FF90EF90DF90CF9008950F
:103890002AE0B701A601CE01DF91CF911F910F91D0
:1038A000FF90EF90DF90CF900C94B31B9A01AB0187
:1038B000662757FD6095762F0C940C1C2115310559
:1038C00041F4DC01ED91FC910190F081E02D642F39
:1038D00009940C94B31B9A01462F50E060E070E00D
:1038E0000C945E1C08951F920F920FB60F92112434
:1038F0002F938F939F93EF93FF93E091FA02F091B0
:10390000FB028081E0910003F091010382FD12C06F
:103910009081809103038F5F8F732091040382173E
:1039200051F0E0910303F0E0E651FD4F958F809355
:10393000030301C08081FF91EF919F918F912F919F
:103940000F900FBE0F901F9018951F920F920FB6F9
:103950000F9211242F933F934F935F936F937F9315
:103960008F939F93AF93BF93EF93FF938AEE92E071
:103970000E943C1AFF91EF91BF91AF919F918F915F
:103980007F916F915F914F913F912F910F900FBE5B
:103990000F901F9018958AEE92E00E94011A21E084
:1039A000892B09F420E0822F08951092ED021092E5
:1039B000EC0288EE93E0A0E0B0E08093EE029093FA
:1039C000EF02A093F002B093F1028EE392E09093A5
:1039D000EB028093EA0285EC90E09093F7028093EB
:1039E000F60284EC90E09093F9028093F80280EC68
:1039F00090E09093FB028093FA0281EC90E0909328
:103A0000FD028093FC0282EC90E09093FF02809391
:103A1000FE0286EC90E090930103809300031092E5
:103A200003031092040310920503109206030895F5
:103A3000A1E21A2EAA1BBB1BFD010DC0AA1FBB1FB2
:103A4000EE1FFF1FA217B307E407F50720F0A21B24
:103A5000B30BE40BF50B661F771F881F991F1A9491
:103A600069F760957095809590959B01AC01BD01BB
:103A7000CF010895EE0FFF1F0590F491E02D0994FA
:103A80000E944B1DA59F900DB49F900DA49F800D8B
:103A9000911D11240895A29FB001B39FC001A39F5F
:103AA000700D811D1124911DB29F700D811D112477
:103AB000911D0895DC0101C06D9341505040E0F725
:103AC0000895F999FECF92BD81BDF89A992780B5E6
:103AD000089510E0C6EED0E004C0FE010E943C1D37
:0C3AE0002296C83ED107C9F7F894FFCF2A
:103AEC00170B0A6363636305000000000000001FEE
:103AFC00000000041132082008800091030000200F
:103B0C004D4F44453D0020414354495654593D00C6
:103B1C002053544154453D005B005D2000466F75B9
:103B2C006E64200020646576696365732E002E2018
:103B3C00004E656F706978656C2054657374002D48
:103B4C002D2D2D2D496E707574732D2D2D2D00502E
:103B5C00696E2300203D2000202D204F4B00202D8E
:103B6C002050524553534544002D2D2D2D2D312DD4
:103B7C00576972652D2D2D2D00312D5769726520D9
:103B8C00546573743A20004E6F6E6520466F756EE7
:103B9C0064002D2D2D2D2D43616E204275732D2D1E
:103BAC002D2D0043414E2D42555320537461727498
:103BBC0075703A20004E6F7420476F6F642C206331
:103BCC006865636B20796F75722070696E23206154
:103BDC006E6420636F6E6E656374696F6E73004DF7
:103BEC00657373616765205265636569766564000A
:103BFC004E6F7468696E672052656365697665649B
:103C0C0000477265656E0052656400426F7468000F
:103C1C002C00436F756E74212100000000007F1A88
:103C2C00561B011A1A1A0C1A5D1A0D0A006E616ED7
:0A3C3C0000696E66006F76660000F6
:00000001FF
