:100000000C9475000C949D000C949D000C94640657
:100010000C9464060C9464060C949D000C949D0052
:100020000C949D000C949D000C949D000C949D00DC
:100030000C949D000C949D000C949D000C949D00CC
:100040000C9494160C949D000C94E6190C94181AB8
:100050000C949D000C949D000C949D000C949D00AC
:100060000C949D000C949D0089038D03530356034B
:1000700059035D036103640368036B036E0371033B
:10008000740378037C0380038303000000080002EC
:10009000010000030407000000000000000001024E
:1000A0000408102040800102040810200102040806
:1000B00010200404040404040404020202020202E4
:1000C00003030303030300000000230026002900AC
:1000D00000000000250028002B0000000000240084
:1000E00027002A003715481AA31511241FBECFEF89
:1000F000D8E0DEBFCDBF12E0A0E0B1E0E6E3F2E47D
:1001000002C005900D92AA39B107D9F724E0AAE9F7
:10011000B2E001C01D92AE33B207E1F710E0C8EEC5
:10012000D0E004C02297FE010E94FD1DC43ED1070D
:10013000C9F70E948C1A0C940E210C940000CF93E6
:10014000DF93EC0188859985009711F00E94B31E1A
:100150008D8187FD05C060E0DF91CF910C94091877
:10016000DF91CF910895EF92FF920F931F93CF935A
:10017000DF93EC017B0188859985009711F00E943F
:10018000B31E8701000F111F0E0D1F1D1C830B8353
:10019000C8010E941B1E99878887009741F0A8011B
:1001A00060E070E00E943820FA82E98204C01C827C
:1001B0001B821A821982DF91CF911F910F91FF90BC
:1001C000EF900895FC01668360FF04C081E08287A0
:1001D000138611C062FF06C081E0828782E08387B8
:1001E00014860895128663FF04C082E0838781E04D
:1001F00003C081E0838782E084870895CF92DF92F5
:10020000EF92FF920F931F93CF93DF93CDB7DEB79B
:1002100029970FB6F894DEBF0FBECDBF8C01DC016D
:1002200018968D919C911997892B09F49BC00E9477
:10023000DE16F801C584D684E784F0886C197D0940
:100240008E099F09623371058105910580F3F89449
:10025000838194819A838983A085B1857D01EFEFA5
:10026000EE1AFE0A8C918987D80116969C911697F2
:1002700051960D90BC91A02DF801838991FF2EC05D
:100280009C91982B98879C91809589238F838F814F
:100290008E8388E08D8358856F8149853D812E81CD
:1002A00089819A81F7015C9347FD252F3A952C931C
:1002B000262F39F0441F00C000006C93000000C0DE
:1002C000F2CF38E041916C930000019761F7F8019B
:1002D000B28BA18B49873D832E8338C09C91982B8C
:1002E00098879C91809589238F838F818C8388E068
:1002F0008B8358856F8149853B812C8189819A81C7
:10030000F7015C9347FD252F00C000C02C9300C06F
:1003100000C000C000C000C06C930000262F3A95BA
:1003200041F0441F000000C000C000C000C000C079
:10033000E8CF38E0419100C06C9300C0019709F705
:10034000F801B28BA18B49873B832C839A838983E5
:1003500078940E94DE16D8011D966D937D938D933F
:100360009C93509729960FB6F894DEBF0FBECDBF71
:10037000DF91CF911F910F91FF90EF90DF90CF9081
:1003800008951F93CF93DF93EC01162F8881882364
:1003900031F08D8187FD03C060E00E9409181D8344
:1003A0008881882341F061E0812F0E94091860E074
:1003B000812F0E944218812F90E0FC01EE54FF4FE4
:1003C000E491F0E0EE0FFF1FE053FF4F25913491D1
:1003D0003A8B298BFC01E256FF4F84918B8BDF9186
:1003E000CF911F9108950F931F93CF93DF9300D068
:1003F000CDB7DEB78C01FC01108217821186108602
:10040000158616861786108A2A8349830E94B300B0
:100410004981642FC8010E94C1012A81622FC8014D
:100420000F900F90DF91CF911F910F910C94E200EC
:10043000CF92DF92EF92FF920F931F93CF93DF93B0
:10044000FC01818192816817790788F5CA01AA2782
:10045000BB27082FC32ED42EE52EFF241C2DD22F10
:10046000C781CC2361F08C9FC0011124092FCC9E41
:10047000600111241D2D2C9F90011124D32F9B016D
:10048000220F331F260F371F80859185820F931F00
:100490002285DC01A20FB11D0C932385DC01A20F84
:1004A000B11D1C932485FC01E20FF11DD083DF9167
:1004B000CF911F910F91FF90EF90DF90CF90089513
:1004C000962F50E060E070E0592B682BCB01BA0109
:1004D00008958EBD00000DB407FEFDCF8EB50895C2
:1004E000CF93DF93EC0160E088890E94421880EC92
:1004F0000E94690261E088890E9442186AE070E007
:1005000080E090E0DF91CF910C9401171F93CF937F
:10051000DF93EC01162F60E088890E94421883E087
:100520000E946902812F0E94690280E00E94690294
:10053000182F61E088890E944218812FDF91CF91A6
:100540001F910895EF92FF921F93CF93DF931F9215
:10055000CDB7DEB77C01162F60E0FC0180894983AE
:100560000E94421882E00E946902812F0E94690263
:100570004981842F0E94690261E0F70180890F9010
:10058000DF91CF911F91FF90EF900C944218CF9282
:10059000DF92EF92FF920F931F93CF93DF9300D0E0
:1005A000CDB7DEB78C01E62EF22E60E0FC0180892B
:1005B00049835A830E94421882E00E9469028E2D6C
:1005C0000E9469024981E42EC42E5A81D52E8C2DB9
:1005D0008E198F1530F4F60181916F010E94690226
:1005E000F6CF61E0F80180890F900F90DF91CF91F5
:1005F0001F910F91FF90EF90DF90CF900C944218D5
:10060000EF92FF921F93CF93DF9300D0CDB7DEB769
:100610007C01162F60E0FC0180892A8349830E94B7
:10062000421885E00E946902812F0E946902498177
:10063000842F0E9469022A81822F0E94690261E050
:10064000F70180890F900F90DF91CF911F91FF905C
:10065000EF900C9442181F93CF93DF93EC01162F69
:10066000262F40EE6FE00E9400036FE0CE010E9453
:100670008602982F907E81E0911301C080E0DF9187
:10068000CF911F9108950F931F93CF93DF93EC01A8
:10069000462F50E0FA013197E131F105C0F5EC5CED
:1006A000FF4F0C94FB1D17E80FEF05C017E00AEB96
:1006B00002C015E801EF4FE033C017E00EEB49E050
:1006C0002FC017E80FEF02C017E80AEF47E028C075
:1006D00017E80FEF0BC017E00EEB08C017E00DEAAC
:1006E00005C017E80AEF02C016E800EF43E018C0A3
:1006F00017E80AEF41E014C015E801EF41E410C02B
:1007000016E800EF02C012E800ED40E009C081E009
:1007100016C017E80FEF4FE303C017E80FEF4FE1E4
:100720006AE2CE010E94A202402F69E2CE010E943D
:10073000A202412F68E2CE010E94A20280E0DF9176
:10074000CF911F910F9108951F93CF93DF93EC01E9
:1007500010E340E0612FCE010E94A20260E1610F30
:1007600040E0CE010E94A20260E2610F40E0CE01B3
:100770000E94A2021F5F1E3361F740E060E6CE01D7
:100780000E94A20240E060E7CE01DF91CF911F916D
:100790000C94A2020F931F93CF93DF93EC01062FCB
:1007A0000E94700260E8CE010E942B03182F6AE0BD
:1007B00070E080E090E011110CC00E940117602FE2
:1007C000CE010E944303882339F06AE070E080E0A4
:1007D00090E00E94011728C06AE070E080E090E09D
:1007E0000E940117CE010E94A40343E06BE2CE01F8
:1007F0000E94A20224E044E660E6CE010E940003CB
:1008000020E040E660E7CE010E94000360E0CE01F8
:100810000E942B03C82F8823C1F26AE070E080E0B9
:1008200090E00E9401171C2F812FDF91CF911F9123
:100830000F9108950F931F93CF93DF9300D000D0B3
:10084000CDB7DEB74130B1F40C831B838901222779
:100850003327502F5C71402F437078E0579F400D35
:10086000112448604A8355E0169507955A95E1F79B
:1008700009830DC0A80123E0569547952A95E1F715
:1008800049830295000F007E0A831C821B8224E0AC
:10089000AE014F5F5F4F0E94C7020F900F900F9005
:1008A0000F90DF91CF911F910F910895FF920F93B9
:1008B0001F93CF93DF93EC01F62EAC014A5F5F4F9D
:1008C00065E06F0D2D810E94C7028E85813019F47D
:1008D0008D8180648D8364E06F0D4D81CE010E9417
:1008E000A20209811A812B813C8148816F2DCE01A2
:1008F0000E941A04DF91CF911F910F91FF900895EC
:10090000615028E048E00C940003FF920F931F937E
:10091000CF93DF9300D01F92CDB7DEB78B0120E3DA
:10092000298320E42A8320E52B83FB011082FE012A
:10093000E40FF11DF1806F2D0E948602982F9870B0
:1009400083FD04C0F394F801F08201C092E0892F86
:100950000F900F900F90DF91CF911F910F91FF900B
:100960000895CF93DF93EC01862F688B61E00E949E
:10097000091861E08889DF91CF910C944218CF93D8
:10098000DF9300D01F92CDB7DEB76B8389839A8344
:100990000E94F5076B8189819A810E94CA0391E0C8
:1009A000811101C090E0892F0F900F900F90DF917F
:1009B000CF910895CF92DF92EF920F931F93CF9331
:1009C000DF93FC0120834183528363837483093066
:1009D00008F008E00583E686D60180E090E010E0AC
:1009E000801791073CF42D91EF01C80FD91F2E837A
:1009F0000196F6CF80E0DF91CF911F910F91EF909C
:100A0000DF90CF900895CF92DF92EF92FF920F93F5
:100A10006701E12C0E94DA040F91FF90EF90DF90C4
:100A2000CF900895DF92EF92FF920F931F93CF9391
:100A3000DF931F92CDB7DEB78C01D62EE12CF12CBF
:100A40004D2DBE016F5F7F4FC8010E9485049FEF4F
:100A5000E91AF90A823029F482E3E816F10481F7F1
:100A60002BC092E3E916F10439F16981C8010E94B3
:100A700056046981C8010E948004E12CF12C8FEF9B
:100A8000E81AF80A69816150C8010E948602D82ECE
:100A900061E070E080E090E00E940117D3FE06C0A4
:100AA00092E3E916F10459F787E007C082E3E816FC
:100AB000F104D1F380E001C086E00F90DF91CF9187
:100AC0001F910F91FF90EF90DF900895CF92EF92DA
:100AD000FF920F93CF93DF93EC010E9403056C2DDF
:100AE000CE01DF91CF910F91FF90EF90CF900C94BA
:100AF0001205FC01618172818381948108952091A6
:100B0000DE023091DF0228173907B9F490919C0278
:100B100080919D02981789F0E0919C02F0E0E256E6
:100B2000FD4F808120919C0230E02F5F3F4F2F735B
:100B3000332720939C0290E008958FEF9FEF089554
:100B40001F93CF93DF93DC015C968D919C915D9711
:100B5000009749F481E090E013969C938E9312974E
:100B600080E090E03BC05196ED91FC9152975096F9
:100B70002C915097322F30951FB75E964C915E970F
:100B800041FB772770F941FD6095F8944081772308
:100B900011F0422B01C043234083EC012197F1F770
:100BA00048E0508160FF02C0522B01C053235083A4
:100BB000EC012197F1F76695415099F780817723F1
:100BC00011F0832301C0822B80831FBF5C968D911F
:100BD0009C915D970197F1F781E090E0DF91CF91D3
:100BE0001F91089508952091DE023091DF022817A9
:100BF000390781F490919C0280919D02981751F0E1
:100C0000E0919C02F0E0E256FD4F8081992787FD3C
:100C1000909508958FEF9FEF08952091DE02309117
:100C2000DF022817390771F480919D0220919C0200
:100C300090E0805C9F4F821B910960E470E00E940D
:100C4000A61D089580E090E00895E091DE02F09105
:100C5000DF02E817F90769F4A389B4899C918589B3
:100C6000809589238C931092DF021092DE0281E03E
:100C7000089580E00895CF93DF93EC018A8D9B8DDA
:100C8000892BF1F08091DE029091DF028C179D0795
:100C9000B9F0009711F00E9425068E8D8E7F8E8F01
:100CA00010929D0210929C02D093DF02C093DE024C
:100CB000EB89FC8980819D89892B808381E001C03B
:100CC00080E0DF91CF9108951F920F920FB60F929F
:100CD00011242F933F934F935F936F937F938F9341
:100CE0009F93AF93BF93EF93FF93E091DE02F09158
:100CF000DF02309709F451C0868DA685B7859585AA
:100D000081FF04C08C91892329F447C08C918923E9
:100D100009F043C0A389B4899C9185898095892372
:100D20008C93868997890197F1F7208D318DA6855F
:100D3000B785758558E040E0C9010197F1F7842F28
:100D400090E095958795482F6C91672309F040684E
:100D5000515091F7868D81FD409580919D0290E0E4
:100D600001968F73992720919C02281749F0A09132
:100D70009D02B0E0A256BD4F4C9380939D0203C0EC
:100D8000868D8160868F828D938D0197F1F7A3897F
:100D9000B4898C919589892B8C93FF91EF91BF91A8
:100DA000AF919F918F917F916F915F914F913F9103
:100DB0002F910F900FBE0F901F90189528E431E0EF
:100DC000FC01318320830C9425061F93CF93DF937E
:100DD000EC01162F6E8D6695617081E06827812F7A
:100DE0000E94421861E0812F0E940918812F90E033
:100DF000FC01E256FF4FE491E88BFC01EE54FF4FFB
:100E0000E491F0E0EE0FFF1FE053FF4F85919491C6
:100E10009A8B898BDF91CF911F9108951F93CF9368
:100E2000DF93EC01162F60E0812F0E9409188E8D50
:100E300081FD04C061E0812F0E9442181C87812F30
:100E400090E0FC01E256FF4FE491ED87FC01EE5487
:100E5000FF4FE491F0E0EE0FFF1FEA53FF4F859143
:100E600094919F878E87DF91CF911F910895FF9274
:100E70000F931F93CF93DF93EC01F62E522F1B821B
:100E80001A8208EE13E020E030E00C831D832E83ED
:100E90003F8388E491E0998388831F8A1E8A198E94
:100EA000188E1B8E1A8E1D8E1C8E8E8D8E7F50FB83
:100EB00081F98E8F642FCE010E94E5066F2DCE0141
:100EC000DF91CF911F910F91FF900C940E07CF935C
:100ED000DF93EC019A01AB011B8E1A8E198E188ECE
:100EE0001F8A1E8A60E079E08DE390E00E94DC1D9D
:100EF000C9012430310520F0B9016350710902C0E5
:100F000061E070E07D8F6C8FEC85E63108F068C0A1
:100F1000B901769567956431710518F063517109CF
:100F200002C061E070E07F8B6E8B069718F0C901FC
:100F3000059702C081E090E0998F888FC901880FE2
:100F4000991F820F931F96958795969587958D305B
:100F5000910510F00C9702C081E090E09B8F8A8F82
:100F600020916800E83050F091E0EE3008F490E015
:100F700081E001C0880F9A95EAF701C084E0822BD6
:100F8000809368002C85283038F02E3040F02631D0
:100F900048F48CE690E008C08DE690E005C08BE652
:100FA00090E002C080E090E09C8B8B8B283030F486
:100FB00081E001C0880F2A95EAF70DC0822F90E0EA
:100FC0002E3010F4089701C00E9791E001C0990FE0
:100FD0008A95EAF7892F8D8B8C8D9D8D0197F1F77E
:100FE000CE01DF91CF910C943B06CF93CFB7F8940D
:100FF0008091E002811127C0ECEBF0E08491E8EAF7
:10100000F0E09491E82FF0E0EE0FFF1FE652FF4F63
:10101000A591B4918C91892321F461E08AE00E942A
:10102000421861E08AE00E9409188CB580618CBD8D
:101030008CB580648CBD61E08DE00E94091861E090
:101040008BE00E9409188091E0028F5F8093E0029C
:10105000CFBFCF910895CF93DF9380911B0384324C
:1010600029F010923B03EBE1F3E035C065E571E058
:101070008BE193E00E942A2065E571E080E090E03A
:101080000E942A200E940C20AA2797FDA095BA2F23
:101090008093430390934403A0934503B093460386
:1010A00065E571E080E090E00E942A20CFE4D3E083
:1010B000009751F00E940C20888365E571E080E084
:1010C00090E00E942A2001C01882219623E0C735B3
:1010D000D20771F7C6CF119283E0EB33F807D9F747
:1010E000DF91CF910895813049F460917C03709134
:1010F0007D0380917E0390917F030895823049F4AF
:10110000609178037091790380917A0390917B03C9
:101110000895833049F460916C0370916D03809160
:101120006E0390916F030895843049F460917403C5
:1011300070917503809176039091770308958530BF
:1011400049F46091700370917103809172039091E2
:1011500073030895609168037091690380916A0335
:1011600090916B0308950F931F9300917C0310914E
:101170007D0320917E0330917F0360177107820702
:101180009307D1F1009178031091790320917A03AC
:1011900030917B03601771078207930779F1009103
:1011A0006C0310916D0320916E0330916F036017F3
:1011B00071078207930721F1009174031091750361
:1011C00020917603309177036017710782079307A8
:1011D00079F00091700310917103209172033091A6
:1011E0007303601771078207930721F485E009C034
:1011F00084E007C080E005C081E003C082E001C058
:1012000083E01F910F910895882339F081509091C8
:101210004001899F802D1124089580E0089588233E
:1012200021F0880F880F880F08958091410108955B
:101230005F926F927F928F929F92AF92BF92CF9266
:10124000DF92EF92FF920F931F93CF93DF931F9242
:10125000CDB7DEB74B015C01622E7E2C49830E9424
:10126000B30880932F0184E08093300149814111BC
:1012700001C044E1611002C06624639410E0C42EF2
:10128000D12CE12CF12C81E0861510F0502E1BC0E2
:10129000502E5714D8F7209168033091690340917C
:1012A0006A0350916B03652D70E080E893E00E9423
:1012B000180280E893E00E94FE00C701B6010E9478
:1012C00001175394E6CF571490F4652D70E0A501F3
:1012D000940180E893E00E94180280E893E00E9465
:1012E000FE00C701B6010E9401175394ECCF1F5FA7
:1012F0001611C9CF0F90DF91CF911F910F91FF90E1
:10130000EF90DF90CF90BF90AF909F908F907F90A5
:101310006F905F9008959F92AF92BF92CF92DF92AD
:10132000EF92FF920F931F93CF93DF936B017C019A
:10133000942EA22E0E94B30880932F0181E0809307
:101340003001911002C08AE0982EB12CC0E0D0E0AC
:1013500010E0BE016A0D7B1D6017710740F4A70104
:10136000960180E893E00E9418022196F2CF80E86F
:1013700093E00E94FE00692D70E080E090E0DF9134
:10138000CF911F910F91FF90EF90DF90CF90BF9082
:10139000AF909F900C9401170F9386E080932F01DC
:1013A00085E08093300160917003709171038091AA
:1013B0007203909173030091410120E044EF0E9479
:1013C0008B0964E670E080E090E00E940117609174
:1013D0007C0370917D0380917E0390917F03009147
:1013E000410120E044EF0E948B0964E670E080E058
:1013F00090E00E94011760917803709179038091C9
:101400007A0390917B030091410120E044EF0E9418
:101410008B0964E670E080E090E00E940117609123
:101420006C0370916D0380916E0390916F03009136
:10143000410120E044EF0E948B0964E670E080E007
:1014400090E00E9401176091740370917503809180
:101450007603909177030091410120E044EF0E94D0
:101460008B0964E670E080E090E00E9401176091D3
:1014700068037091690380916A0390916B030091F6
:10148000410120E044EF0E948B090F9108956F9273
:101490007F928F929F92AF92BF92CF92DF92EF9204
:1014A000FF920F931F93CF93DF931F92CDB7DEB7B9
:1014B0004B015C01142FF02E29830E94B308809306
:1014C0002F0183E0809330012981111101C01EE5B5
:1014D000211101C021E0612C712CC22ED12C6C1481
:1014E0007D04BCF40E2D2F2D412FC501B4010E94A7
:1014F0008B09609168037091690380916A039091F0
:101500006B032F2D412F0E948B098FEF681A780AE9
:10151000E6CF0F90DF91CF911F910F91FF90EF9049
:10152000DF90CF90BF90AF909F908F907F906F9003
:1015300008956F927F928F929F92AF92BF92CF92B7
:10154000DF92EF92FF920F931F93CF93DF931F923F
:10155000CDB7DEB74B015C01142FF02E29830E941A
:10156000B30880932F0182E080933001298111110B
:1015700001C01EE5211101C021E0612C712CC22E99
:10158000D12C0E2D2F2D412FC501B4016C147D04DB
:1015900094F40E948B0960916803709169038091B3
:1015A0006A0390916B032F2D412F0E948B098FEFBF
:1015B000681A780AE6CF0E948B090F90DF91CF91CD
:1015C0001F910F91FF90EF90DF90CF90BF90AF9061
:1015D0009F908F907F906F900895CF92DF92EF92BF
:1015E000FF920F931F93CF93DF9300D000D0CDB71E
:1015F000DEB7809148030E947308C62E182F009111
:101600004101D090490320914B0340914C03E0905D
:101610004A03EE2089F08E2D29834A837B839C83A5
:101620000E940409F82E8E2D0E940F09E82E2981B0
:101630004A817B819C8102C0E02EF12CD11002C036
:1016400020E005C081E0D81207C00E2D2F2D6C2D93
:10165000812F0E948B0920C0E2E0DE1206C00F2D10
:101660006C2D812F0E94990A17C0F3E0DF1206C08B
:101670000F2D6C2D812F0E94470A0EC084E0D812D6
:1016800006C00F2D6C2D812F0E94180905C0E5E0C2
:10169000DE1202C00E94CC09C0922F01D09230010C
:1016A0000F900F900F900F90DF91CF911F910F919E
:1016B000FF90EF90DF90CF9008950F931F93CF93FB
:1016C000DF93CDB7DEB762970FB6F894DEBF0FBEDB
:1016D000CDBF64E571E0CE010D960E94B61C40912D
:1016E0003A0150913B0160913C0170913D012AE02B
:1016F000CE0107960E94111DBE01695F7F4FCE018A
:101700000D960E946A1D65E571E0CE010D960E945E
:10171000711D0EE211E0F1E006331F07D1F0F80170
:1017200061918F014AE0CE0101960E94E41CBE0146
:101730006F5F7F4FCE010D960E946A1DCE0101960C
:101740000E94481C65E571E0CE010D960E94711D56
:10175000E2CFBE01635F7F4F8BEF92E00E94F41AED
:10176000CE0107960E94481CCE010D960E94481C8F
:1017700062960FB6F894DEBF0FBECDBFDF91CF915A
:101780001F910F9108951F93CF93DF93182FC82FA8
:10179000D0E0FE01E85DFE4F80810E947818FE01D6
:1017A000E35CFC4F90819817E9F090913201813011
:1017B00061F4808321E030E0012E01C0220F0A9401
:1017C000EAF7292B2093320111C0108221E030E08A
:1017D000012E01C0220F0A94EAF7209529232093B5
:1017E000320103C081E0913009F080E0DF91CF91B8
:1017F0001F9108951F93CF93DF93C8E2D1E010E0CB
:101800008991833619F0812F0E94C30B1F5F163018
:10181000B9F7DF91CF911F910895CF92EF92FF9288
:101820000F931F93CF93DF9300D000D0CDB7DEB7D7
:10183000882351F049835A836B837C830E94FA0B7F
:101840007C816B815A81498180913A0190913B0161
:10185000A0913C01B0913D01481759076A077B07E9
:1018600029F125E0880F991FAA1FBB1F2A95D1F7E0
:10187000842B952BA62BB72B32E0C32E4EE2E42E01
:1018800041E0F42E08E020E0AC01BD0187E593E0E3
:101890000E9466050F900F900F900F90DF91CF91EF
:1018A0001F910F91FF90EF90CF90089540913601D6
:1018B0005091370160913801709139012AE030E090
:1018C0008DE993E00E94DB1B65E571E08DE993E013
:1018D0000E94E71A0EE211E0F1E006331F0781F0E3
:1018E000F80161918F014AE050E08DE993E00E9498
:1018F000E81B65E571E08DE993E00E94E71AECCF03
:101900008DE993E00F900F900F900F90DF91CF91A2
:101910001F910F91FF90EF90CF900C94F01AEF92DF
:101920000F9390911E0180911F01913029F588231A
:1019300009F487C060917C0370917D0380917E03E0
:1019400090917F03E090410100E021E040E00E949F
:1019500018096091700370917103809172039091E6
:101960007303E090410121E040E00E9418091092C9
:101970001F011092F80265C0923019F5882309F40E
:1019800060C010921F011092F8028091F3029091B2
:10199000F40201969093F4028093F3028093350150
:1019A0008091F102809334014091360150913701CA
:1019B000609138017091390180E00F91EF900C94A3
:1019C0000D0C9730E1F48823E1F1409136015091FC
:1019D0003701609138017091390180E00E940D0C4F
:1019E000609168037091690380916A0390916B0321
:1019F0000091410120E040E00E948B0920C0882333
:101A000001F11092F2021092F1021092F40210927F
:101A1000F3021092350110923401609168037091C5
:101A2000690380916A0390916B030091410120E06A
:101A300040E00E948B091092FA020E94FA0B109269
:101A40001F010F91EF900895EF920F9390911E0157
:101A500080911F01913029F5882309F48AC0609193
:101A60007C0370917D0380917E0390917F03E090D1
:101A7000410100E021E040E00E94180960916C0300
:101A800070916D0380916E0390916F03E09041011E
:101A900021E040E00E94180910921F011092F80204
:101AA00068C0923031F5882321F010921F01109206
:101AB000F8028091F3029091F4028F3F91050CF0AF
:101AC00058C001969093F4028093F30280933501FD
:101AD0008091F10280933401409136015091370199
:101AE000609138017091390180E00F91EF900C9472
:101AF0000D0C9730E1F48823E1F1409136015091CB
:101B00003701609138017091390180E00E940D0C1D
:101B1000609168037091690380916A0390916B03EF
:101B20000091410120E040E00E948B0920C0882301
:101B300001F11092F2021092F1021092F40210924E
:101B4000F302109235011092340160916803709194
:101B5000690380916A0390916B030091410120E039
:101B600040E00E948B091092FA020E94FA0B109238
:101B70001F010F91EF9008950F9380911F0188230B
:101B800009F446C0609168037091690380916A030B
:101B900090916B030091410120E040E00E948B098D
:101BA0001092FA020E94FA0B10921F011092EC029E
:101BB0001092EB021092EA021092E9021092E802EF
:101BC0001092E7021092E6021092E5021092EF02E4
:101BD0001092F0021092EE0280913A0190913B0136
:101BE000A0913C01B0913D0183309105A105B10563
:101BF00021F00897A105B10559F460E08091250115
:101C00000E94421860E0809124010F910C944218C8
:101C10000F9108950F931F9300913A0110913B018A
:101C200020913C0130913D01809143039091440308
:101C3000A0914503B091460380179107A207B3070F
:101C400061F087E593E00E947905F5E09695879528
:101C500077956795FA95D1F702C0BC01CD011F9128
:101C60000F910895EF920F93CF93C82F67E571E01E
:101C70008DE993E00E94E71A6C2F87E593E00E94BC
:101C8000BF04811121C000914001000F60917803D1
:101C90007091790380917A0390917B03B8E1EB2EE8
:101CA00020E040E00E9418094AE050E06C2F8DE9E6
:101CB00093E00E94E81B69E671E08DE993E0CF9123
:101CC0000F91EF900C94061B6FE671E08DE993E0A5
:101CD0000E94061B00914001000F60916C037091FF
:101CE0006D0380916E0390916F03A8E1EA2E20E0CE
:101CF00040E00E941809CF910F91EF900895CF9383
:101D0000DF9380E00E94C30B811109C064E670E09C
:101D100080E090E00E940117CAE5D0E020C0C8EC46
:101D2000D0E060E0809110010E94421861E0809153
:101D30000E010E94421863E070E080E090E00E9493
:101D4000011760E080910E010E94421863E070E08C
:101D500080E090E00E940117219719F7D7CF80E02B
:101D60000E94C30B811120C061E0809110010E948C
:101D7000421861E080910E010E94421863E070E019
:101D800080E090E00E94011760E080910E010E94C7
:101D9000421863E070E080E090E00E940117D09369
:101DA000EC02C093EB02DBCF64EF71E080E090E0E7
:101DB0000E9401178091EB029091EC02892B29F18E
:101DC00061E0809110010E94421861E080910E0153
:101DD0000E9442186AE070E080E090E00E940117E3
:101DE00060E080910E010E9442186AE070E080E09D
:101DF00090E00E9401178091EB029091EC02019714
:101E00009093EC028093EB02D5CF89E0809334016C
:101E10000E945D0B69E971E08DE993E0DF91CF915C
:101E20000C94061BEF920F931F93CF93DF9326E042
:101E300040E052EC61E070E08DE993E00E9484198B
:101E400040E855E260E070E08BEF92E00E946707A7
:101E50006FEA71E08DE993E00E94E71A40913A0140
:101E600050913B0160913C0170913D012AE030E0CE
:101E70008DE993E00E94EF1B61E0809127010E94B1
:101E8000091861E0809127010E94421869EB71E016
:101E90008DE993E00E94061BC8E2D1E010E0888142
:101EA000833609F453C062E00E94091869EC71E0BE
:101EB0008DE993E00E94E71A4AE050E068818DE9DD
:101EC00093E00E94E81B62E772E08DE993E00E94D4
:101ED000E71A812F0E94C30B682F70E04AE050E0A0
:101EE0008DE993E00E94BB1B812F0E94C30B8111DF
:101EF00012C0609178037091790380917A03909178
:101F00007B0328E0E22E00E020E040E00E94180978
:101F100069E671E011C060916C0370916D0380916E
:101F20006E0390916F0308E0E02E00E020E040E0B7
:101F30000E9418096EEC71E08DE993E00E94061B87
:101F40006AEF70E080E090E00E94011721961F5F29
:101F5000163009F0A4CF69ED71E08DE993E00E949D
:101F6000061B68EE71E08BEF92E00E94061B6FEE9D
:101F700071E08DE993E00E94061B61E08091100101
:101F80000E94091861E080910E010E94091861E029
:101F9000809126010E94091861E0809126010E942B
:101FA000421868EE73E080E090E00E94011760E064
:101FB000809126010E94421868EE73E080E090E074
:101FC0000E94011761E0809126010E94421868EE8C
:101FD00073E080E090E00E94011760E080912601AC
:101FE0000E94421865E072E08DE993E00E94061BB2
:101FF0000E947F0E6AE172E08DE993E0DF91CF915C
:102000001F910F91EF900C94061BAF92BF92CF924D
:10201000DF92EF92FF920F931F9380911E01813008
:10202000A1F480911F01882309F458C30E947F0EF8
:1020300010921F0110923C0310923401109235014E
:102040001092F8021092ED0249C3823009F446C39F
:10205000833029F08430A9F0853009F05FC1809188
:102060001F01882371F010921F011092ED0210924F
:10207000F80210923C031092340110923501109234
:1020800032018091F802811129C380910C010E94D4
:1020900064179093E4028093E30280910A010E9406
:1020A00064178C019093E2028093E102825C91407C
:1020B0008536910520F40091E3021091E402073285
:1020C00082E018070CF465C01092ED0261E0809187
:1020D00010010E944218013283E0180714F008EE44
:1020E00013E0A0901201B0901301CC24B7FCC0946F
:1020F000DC2CB801882777FD8095982F409114013A
:10210000509115018A01222717FD2095322F3F9308
:102110002F931F930F9318EEE12E13E0F12E00E0A2
:1021200010E026E232E040E050E00E94011C6B012A
:102130007C0161E080910E010E944218EE24D7FCE0
:10214000E094FE2CC701B6010E94011760E0809167
:102150000E010E944218C701B6010E94011780912A
:10216000EB029091EC0201969093EC028093EB02CB
:102170000F900F900F900F9020911C0130911D0136
:10218000281739070CF073C01092EC021092EB0282
:102190006EC0023C81E018070CF060C01092ED02A6
:1021A00060E0809110010E944218083C110514F46F
:1021B00000E010E0A0901201B0901301CC24B7FC15
:1021C000C094DC2CB801882777FD8095982F40912A
:1021D0001401509115018A01222717FD2095322FF5
:1021E0003F932F931F930F93E12CF12C870122EC47
:1021F00031E040E050E00E94011C6B017C0161E095
:1022000080910E010E944218EE24D7FCE094FE2C2F
:10221000C701B6010E94011760E080910E010E9483
:102220004218C701B6010E9401178091EB029091FC
:10223000EC0201979093EC028093EB020F900F90C9
:102240000F900F9097FF13C080911C0190911D017A
:1022500001979093EC028093EB0209C08091ED020C
:10226000811105C00E945D0B81E08093ED02109208
:10227000E8021092E70220911A0130911B014427D5
:102280005527421B530B8091EB029091EC02821771
:102290009307DCF548175907C4F560911801709150
:1022A00019014091160150911701F901E41BF50B3A
:1022B000D901A61BB70B8A179B0794F08E179F07AF
:1022C000E4F4421B530B48175907BCF466E970E06D
:1022D000809126010E94811783E080933401FEC122
:1022E000621B730B681779074CF762E370E080910B
:1022F00026010E94811782E0F0CF6EE170E08091AC
:1023000026010E94811781E0E8CF60E070E08091B3
:1023100026010E94811710923401E0C1863009F431
:10232000DDC18730C9F580911F01882309F4D6C12A
:10233000609168037091690380916A0390916B03C7
:102340000091410120E040E00E948B0910921F01A2
:1023500080913A0190913B01A0913C01B0913D01E7
:1023600083309105A105B10529F00897A105B105B4
:1023700009F0B4C160E0809125010E94421860E03C
:10238000809124011F910F91FF90EF90DF90CF90EB
:10239000BF90AF900C944218883009F07DC18091B5
:1023A0001F01882381F163E372E08DE993E00E94CD
:1023B000061B61E0809126010E94421864EF71E0E3
:1023C00080E090E00E94011760E0809126010E9469
:1023D000421864EF71E080E090E00E94011761E034
:1023E000809126010E94421864EF71E080E090E045
:1023F0000E94011760E0809126010E94421810920D
:102400001F011092F8028091F802811167C180913A
:102410000C010E9464179093E4028093E302809180
:102420000A010E9464178C019093E2028093E102FA
:10243000825C91408536910520F40091E302109171
:10244000E402073282E018070CF463C061E0809177
:1024500010010E944218013283E0180714F008EEC0
:1024600013E0A0901201B0901301CC24B7FCC094EB
:10247000DC2CB801882777FD8095982F40911401B6
:10248000509115018A01222717FD2095322F3F9385
:102490002F931F930F9318EEE12E13E0F12E00E01F
:1024A00010E026E232E040E050E00E94011C6B01A7
:1024B0007C0161E080910E010E944218EE24D7FC5D
:1024C000E094FE2CC701B6010E94011760E08091E4
:1024D0000E010E944218C701B6010E9401178091A7
:1024E000EB029091EC0201969093EC028093EB0248
:1024F0000F900F900F900F9020911C0130911D01B3
:10250000281739070CF067C01092EC021092EB020A
:1025100062C0023C81E018070CF05DC060E0809171
:1025200010010E944218083C110514F400E010E06C
:10253000A0901201B0901301CC24B7FCC094DC2C05
:10254000B801882777FD8095982F4091140150910C
:1025500015018A01222717FD2095322F3F932F93D3
:102560001F930F93E12CF12C870122EC31E040E026
:1025700050E00E94011C6B017C0161E080910E0122
:102580000E944218EE24D7FCE094FE2CC701B6014D
:102590000E94011760E080910E010E944218C7015D
:1025A000B6010E9401178091EB029091EC02019715
:1025B0009093EC028093EB020F900F900F900F908E
:1025C00097FF09C080911C0190911D010197909384
:1025D000EC028093EB022091E7023091E802E09058
:1025E0001A01F0901B01A9014E0D5F1DF901EE19B2
:1025F000FF0960911C0170911D018091EB02909187
:10260000EC026417750794F4461B570B8417950763
:102610004CF40027F7FC0095102F680F791F621B00
:10262000730B14C0E817F90724F409C0E817F90779
:102630001CF060E070E024C084179507D4F70027F1
:10264000F7FC0095102FB901681B790B77FF03C0C9
:10265000719561957109882777FD8095982F1F9254
:102660001F921F921F92A12CB12C6501AA9420E009
:1026700030E0A9010E94011C0F900F900F900F9065
:10268000809126011F910F91FF90EF90DF90CF90E6
:10269000BF90AF900C9481170E94BC0D80911F01D8
:1026A0008823E1F01092F2021092F1021092F402EB
:1026B0001092F302609168037091690380916A033C
:1026C00090916B030091410120E040E00E948B0952
:1026D0001092FA020E94FA0B10921F011F910F91A3
:1026E000FF90EF90DF90CF90BF90AF900895CF9381
:1026F000DF93EC010E947F0EC130D10519F486E210
:1027000095E033C0C230D10519F48AEA95E02DC0B6
:10271000C330D10529F41092E8021092E70229C0D3
:10272000C430D10519F486E990E01FC0C530D10549
:1027300019F48AE191E019C0C630D10519F486E098
:1027400092E013C0C730D10519F48AE892E00DC0B9
:10275000C830D10519F480E293E007C0299719F435
:1027600086EB93E002C08AE394E09093E8028093C2
:10277000E7026EE372E08DE993E00E94E71A609150
:10278000E7027091E8024AE050E08DE993E00E9490
:10279000C31BC091E702D091E802C03283E0D807A2
:1027A0001CF0C052D34002C0C05EDC4F6EE472E049
:1027B0008DE993E00E94E71A4AE050E0BE018DE9FE
:1027C00093E00E94C31B8091EB029091EC028C1766
:1027D0009D0781F160E0809110010E94421861E044
:1027E00080910E010E94421862E070E080E090E06B
:1027F0000E94011760E080910E010E94421862E081
:1028000070E080E090E00E9401178091EB029091CF
:10281000EC0201979093EC028093EB0297FFD3CFE9
:1028200080911C0190911D0101979093EC0280937F
:10283000EB02C9CF8091E7029091E802DF91CF913E
:102840000895EF920F93CF93DF9380914703811107
:102850000BC00E940A0EAB01BC0181E0DF91CF9159
:102860000F91EF900C940D0C813031F4DF91CF91EA
:102870000F91EF900C94ED0A823051F4809148034F
:1028800080931E0191E090931F0180933101EAC073
:10289000833001F580914803811102C060E003C0DC
:1028A000813071F461E0809125010E94421860E05E
:1028B00080912401DF91CF910F91EF900C944218F9
:1028C000823009F0CFC061E0809125010E9442185A
:1028D00061E0EECF843009F4C5C0853061F50E9417
:1028E0000A0EAB01BC012AE030E08DE993E00E94C2
:1028F000DB1B65E571E08DE993E00E94E71AC7E410
:10290000D3E083E0CF34D80771F069914AE050E01A
:102910008DE993E00E94E81B65E571E08DE993E0A5
:102920000E94E71AEECF8DE993E0DF91CF910F91EE
:10293000EF900C94F01A8630C1F490914803909374
:10294000F702809149038093F60220914A03209375
:10295000F502963011F40E94320E8091F702893010
:1029600009F085E080932E017DC0873009F07AC0A0
:1029700080914803813009F073C08093FA028091FE
:1029800049038093F9028130A9F400914001000FBE
:1029900060916C0370916D0380916E0390916F0351
:1029A000F0E2EF2E21E040E00E94180981E08093E0
:1029B000F00258C08230A1F460917C0370917D03D5
:1029C00080917E0390917F03E0E1EE2E0091400123
:1029D00021E040E00E94180981E08093EF0242C0AC
:1029E000833031F4DF91CF910F91EF900C947F0EF3
:1029F000843051F480914A0390E00E947713109242
:102A0000ED021092F8022EC0893061F18091F0023F
:102A1000882389F01092F00220914001220F6091EA
:102A2000740370917503809176039091770300E2AF
:102A300040E00E948B098091EF02882399F0109268
:102A4000EF02609174037091750380917603909109
:102A5000770300E12091400140E00E948B0902C011
:102A60001092FA02DF91CF910F91EF90089560914B
:102A7000410170E023E04091420180E893E00E9430
:102A8000F30140E060E080913F010E9460026093AA
:102A90007C0370937D0380937E0390937F0340E0DB
:102AA00060913F0180E00E94600260937803709320
:102AB000790380937A0390937B0340913F0160E018
:102AC00080E00E94600260937403709375038093AA
:102AD00076039093770380913F01482F682F0E94DF
:102AE00060026093700370937103809372039093FC
:102AF000730380913F0140E0682F0E946002609361
:102B00006C0370936D0380936E0390936F0340E0AA
:102B100060E080E00E946002609368037093690344
:102B200080936A0390936B0360913E0187E593E085
:102B30000E94B10420E040912001609122018BEFBE
:102B400092E00C9437078BEF92E00E94DE0680E85B
:102B500093E00C949F00CF93DF9380911A03882316
:102B600009F473C010921A038091430390914403B7
:102B7000A0914503B091460340913A0150913B0129
:102B800060913C0170913D0184179507A607B70736
:102B9000F1F5EFE4F3E0A7E4B3E081918D9383E0F6
:102BA000E735F807D1F766E572E08DE993E00E941A
:102BB000E71A40914303509144036091450370919B
:102BC00046032AE030E08DE993E00E94DB1B68E6D3
:102BD00072E08DE993E00E94E71AC7E4D3E06991BF
:102BE0004AE050E08DE993E00E94E81B66E772E05E
:102BF0008DE993E00E94E71A83E0CF34D80779F794
:102C00008DE993E00E94F01A0E9421141EC04091A9
:102C10003601509137016091380170913901841764
:102C20009507A607B70789F4CFE4D3E069914AE096
:102C300050E08BEF92E00E94E81B83E0C735D80795
:102C4000A9F78BEF92E00E94F01AD4E2C1E08DE97F
:102C500093E00E94A118892B19F18DE993E00E945D
:102C6000BA18843229F480931B03C0933B03EFCF3F
:102C7000D0931B038A3029F40E942B08C0931A03B7
:102C8000E6CFE0913B03AE2FB0E0A55EBC4F8C9346
:102C9000EF5FE0933B03F0E0E55EFC4F1082D7CF9F
:102CA000D4E2C1E08BEF92E00E940D06892B19F16E
:102CB0008BEF92E00E947F05843229F480931B03FE
:102CC000C0933B03EFCFD0931B038A3029F40E94BB
:102CD0002B08C0931A03E6CFE0913B03AE2FB0E080
:102CE000A55EBC4F8C93EF5FE0933B03F0E0E55EA5
:102CF000FC4F1082D7CF8091F702893071F4809118
:102D0000F602853021F4DF91CF910C948F0C863040
:102D100041F4DF91CF910C94240DDF91CF910C946D
:102D20000510DF91CF9108951F920F920FB60F9269
:102D300011242F933F938F939F93AF93BF938091D1
:102D4000950390919603A0919703B09198033091C9
:102D5000940323E0230F2D3720F40196A11DB11D0C
:102D600005C026E8230F0296A11DB11D20939403F0
:102D70008093950390939603A0939703B093980341
:102D80008091990390919A03A0919B03B0919C0329
:102D90000196A11DB11D8093990390939A03A0936E
:102DA0009B03B0939C03BF91AF919F918F913F91F3
:102DB0002F910F900FBE0F901F9018953FB7F8946A
:102DC0008091990390919A03A0919B03B0919C03E9
:102DD00026B5A89B05C02F3F19F00196A11DB11D76
:102DE0003FBF6627782F892F9A2F620F711D811D93
:102DF000911D42E0660F771F881F991F4A95D1F7F2
:102E00000895CF92DF92EF92FF92CF93DF936B0101
:102E10007C010E94DE16EB01C114D104E104F1042F
:102E200089F00E94811D0E94DE166C1B7D0B683E9E
:102E3000734090F381E0C81AD108E108F108C85145
:102E4000DC4FEACFDF91CF91FF90EF90DF90CF90F2
:102E50000895789484B5826084BD84B5816084BD12
:102E600085B5826085BD85B5816085BDEEE6F0E003
:102E7000808181608083E1E8F0E01082808182605F
:102E80008083808181608083E0E8F0E080818160E0
:102E90008083E1EBF0E0808184608083E0EBF0E010
:102EA000808181608083EAE7F0E0808184608083B4
:102EB000808182608083808181608083808180685E
:102EC00080831092C10008958E3008F08E50877074
:102ED0002091430190E4299F90011124822B80933B
:102EE0007C0080917A00806480937A0080917A00DF
:102EF00086FDFCCF809178002091790090E0922BA4
:102F000008951F93CF93DF93182FEB0161E00E9488
:102F10000918209711F460E004C0CF3FD10539F4BF
:102F200061E0812FDF91CF911F910C944218E12F26
:102F3000F0E0E657FF4FE491E330F9F048F4E13078
:102F4000B9F0E230A1F584B5806284BDC8BD34C05B
:102F5000E730E9F0E83019F1E43049F5809180007C
:102F6000806280938000D0938B00C0938A0024C03D
:102F700084B5806884BDC7BD1FC080918000806813
:102F800080938000D0938900C093880015C0809101
:102F9000B00080688093B000C093B3000DC08091F2
:102FA000B00080628093B000C093B40005C0C03808
:102FB000D1050CF0B5CFAFCFDF91CF911F91089520
:102FC000833081F028F4813099F08230A1F00895A7
:102FD0008730A9F08830B9F08430D1F48091800036
:102FE0008F7D03C0809180008F778093800008954B
:102FF00084B58F7702C084B58F7D84BD089580919C
:10300000B0008F7703C08091B0008F7D8093B000B7
:103010000895CF93DF9390E0FC01E256FF4F249197
:10302000FC01EE54FF4F8491882349F190E0880F12
:10303000991FFC01E652FF4FA591B49180539F4F19
:10304000FC01C591D4919FB7611108C0F8948C918F
:10305000209582238C93888182230AC0623051F4A8
:10306000F8948C91322F309583238C938881822B16
:10307000888304C0F8948C91822B8C939FBFDF913E
:10308000CF9108950F931F93CF93DF931F92CDB7E6
:10309000DEB7282F30E0F901E657FF4F8491F901A0
:1030A000E256FF4F1491F901EE54FF4F04910023B3
:1030B000C9F0882321F069830E94E0176981E02F1D
:1030C000F0E0EE0FFF1FE053FF4FA591B4919FB7C3
:1030D000F8948C91611103C01095812301C0812B5C
:1030E0008C939FBF0F90DF91CF911F910F91089507
:1030F000CF93DF93282F30E0F901E657FF4F8491FB
:10310000F901E256FF4FD491F901EE54FF4FC491FB
:10311000CC2391F081110E94E017EC2FF0E0EE0F2C
:10312000FF1FEA53FF4FA591B4912C912D2381E00D
:1031300090E021F480E002C080E090E0DF91CF9148
:103140000895FC01818D228D90E0805C9F4F821B51
:1031500091098F7399270895FC01918D828D98179D
:1031600031F0828DE80FF11D858D90E008958FEF8D
:103170009FEF0895FC01918D828D981761F0828DEB
:10318000DF01A80FB11D5D968C91928D9F5F9F739B
:10319000928F90E008958FEF9FEF08958EE39AE16C
:1031A000892B49F080E090E0892B29F00E943E1A9B
:1031B00081110C9400000895FC01848DDF01A80F9B
:1031C000B11DA35ABF4F2C91848D90E001968F734F
:1031D0009927848FA689B7892C93A089B1898C916E
:1031E00080648C93938D848D981306C00288F38934
:1031F000E02D80818F7D80830895CF93DF93EC0154
:10320000888D8823C9F0EA89FB89808185FD05C006
:10321000A889B9898C9186FD0FC00FB607FCF5CF40
:10322000808185FFF2CFA889B9898C9185FFEDCF88
:10323000CE010E94DC18E7CFDF91CF910895CF92A5
:10324000DF92FF920F931F93CF93DF931F92CDB71F
:10325000DEB76C0181E0D60158968C9358975B9647
:103260009C915B975C968C915C97981307C05096E5
:10327000ED91FC915197808185FD2EC0F601038D63
:1032800010E00F5F1F4F0F731127F02EF601848D92
:10329000F81211C00FB607FCF9CFD6015096ED9188
:1032A000FC915197808185FFF1CFC60169830E940F
:1032B000DC186981EBCF838DE80FF11DE35AFF4FD6
:1032C0006083D6015B960C935B975296ED91FC91CF
:1032D0005397808180620CC0D6015696ED91FC9187
:1032E000579760835096ED91FC915197808180644F
:1032F000808381E090E00F90DF91CF911F910F913B
:10330000FF90DF90CF900895BF92CF92DF92EF921F
:10331000FF92CF93DF93EC016A017B01B22EE88923
:10332000F98982E08083411581EE580761057105B6
:10333000A1F060E079E08DE390E0A70196010E94A2
:10334000BA1D2150310941095109569547953795C4
:103350002795211580E1380798F0E889F9891082CE
:1033600060E874E88EE190E0A70196010E94BA1D22
:1033700021503109410951095695479537952795AF
:10338000EC85FD853083EE85FF852083188EEC89E2
:10339000FD89B082EA89FB89808180618083EA8926
:1033A000FB89808188608083EA89FB8980818068CD
:1033B0008083EA89FB8980818F7D8083DF91CF9133
:1033C000FF90EF90DF90CF90BF9008951F920F92E3
:1033D0000FB60F9211242F938F939F93EF93FF9328
:1033E000E091AD03F091AE038081E091B303F091E1
:1033F000B40382FD12C090818091B6038F5F8F73FA
:103400002091B703821751F0E091B603F0E0E35644
:10341000FC4F958F8093B60301C08081FF91EF919F
:103420009F918F912F910F900FBE0F901F90189525
:103430001F920F920FB60F9211242F933F934F9329
:103440005F936F937F938F939F93AF93BF93EF930C
:10345000FF938DE993E00E94DC18FF91EF91BF91FB
:10346000AF919F918F917F916F915F914F913F911C
:103470002F910F900FBE0F901F9018958DE993E03C
:103480000E94A11821E0892B09F420E0822F0895E1
:103490001092A00310929F0388EE93E0A0E0B0E0AA
:1034A0008093A1039093A203A093A303B093A403DA
:1034B0008CE792E090939E0380939D0385EC90E0CF
:1034C0009093AA038093A90384EC90E09093AC03BB
:1034D0008093AB0380EC90E09093AE038093AD03B8
:1034E00081EC90E09093B0038093AF0382EC90E086
:1034F0009093B2038093B10386EC90E09093B40371
:103500008093B3031092B6031092B7031092B803DE
:103510001092B903089508950E9429170E948B1AEA
:103520000E94120FCEECD8E10E94AB152097E1F378
:103530000E94CE18F9CFCF92DF92EF92FF920F93B5
:103540001F93CF93DF937C016A01EB0100E010E051
:103550000C151D0571F06991D701ED91FC91019059
:10356000F081E02DC7010995892B19F00F5F1F4FDE
:10357000EFCFC801DF91CF911F910F91FF90EF9096
:10358000DF90CF9008956115710581F0DB010D90FA
:103590000020E9F7AD0141505109461B570BDC01F2
:1035A000ED91FC910280F381E02D099480E090E0A0
:1035B0000895DC01ED91FC91DB0114964D915C9135
:1035C00015976D917C910280F381E02D09940C9404
:1035D000C31ADC01ED91FC910190F081E02D09947A
:1035E00068E872E00C94C31A0F931F93CF93DF9394
:1035F000EC010E94D91A8C01CE010E94F01A800FB2
:10360000911FDF91CF911F910F9108950F931F93F9
:10361000CF93DF93EC010E94C31A8C01CE010E946C
:10362000F01A800F911FDF91CF911F910F91089594
:103630008F929F92AF92BF92CF92DF92EF92FF92C2
:103640000F931F93CF93DF93CDB7DEB7A1970FB63C
:10365000F894DEBF0FBECDBF7C01C42EE52FCB0199
:10366000D22E19A221E02D1510F02AE0D22E8E01C3
:103670000F5D1F4F8D2C912CA12CB12C6C2D7E2F0A
:10368000A50194010E94BA1D8C2DD29E801911248F
:10369000015011098A3014F4805D01C0895CF80181
:1036A0008083211531054105510521F0C22EE32FFC
:1036B000CA01E4CFB801C7010E94C31AA1960FB690
:1036C000F894DEBF0FBECDBFDF91CF911F910F9158
:1036D000FF90EF90DF90CF90BF90AF909F908F9032
:1036E0000895CF92DF92EF92FF920F931F93CF93A3
:1036F000DF93EC016A017B012115310579F4E88142
:10370000F9810190F081E02D642FDF91CF911F911D
:103710000F91FF90EF90DF90CF9009942A30310500
:10372000E9F477FF1AC06DE20E94E91A8C01442780
:103730005527BA014C195D096E097F092AE0CE01AF
:103740000E94181B800F911FDF91CF911F910F9145
:10375000FF90EF90DF90CF9008952AE0B701A60187
:10376000CE01DF91CF911F910F91FF90EF90DF90ED
:10377000CF900C94181B9A01AB01662757FD6095FA
:10378000762F0C94711B0F931F93CF93DF93EC0153
:103790009A01AB01662757FD6095762F0E94711B39
:1037A0008C01CE010E94F01A800F911FDF91CF9102
:1037B0001F910F9108952115310541F4DC01ED9120
:1037C000FC910190F081E02D642F09940C94181B5A
:1037D0009A01462F50E060E070E00C94DB1B0F93E1
:1037E0001F93CF93DF93EC010E94DB1B8C01CE0172
:1037F0000E94F01A800F911FDF91CF911F910F91BE
:1038000008954F925F926F927F92AF92BF92CF9244
:10381000DF92EF92FF920F931F93CF93DF93CDB779
:10382000DEB729013A01621B730B840B950B2989C2
:103830003A894B895C892A193B094C095D09298B16
:103840003A8B4B8B5C8B9B01AC0169897A898B89A4
:103850009C890E94821DE418F50806091709A80131
:1038600097010E94DC1D2A0D3B1D4C1D5D1DCA01E8
:10387000B901DF91CF911F910F91FF90EF90DF90F1
:10388000CF90BF90AF907F906F905F904F900895D2
:10389000FC01808191810C94B31ECF93DF93EC01E6
:1038A00088819981009711F00E94B31E19821882B5
:1038B0001D821C821B821A82DF91CF9108950F9383
:1038C0001F93CF93DF93EC018B016F5F7F4F888154
:1038D00099810E94421F009731F0998388831B834E
:1038E0000A8381E001C080E0DF91CF911F910F91A9
:1038F0000895CF93DF93EC0188819981892B29F07A
:103900008A819B818617970760F4CE010E945F1C15
:10391000882341F08C819D81892B19F4E881F981FC
:10392000108281E0DF91CF910895EF92FF920F9383
:103930001F93CF93DF93EC017B018A01BA010E94B0
:10394000791C811104C0CE010E944D1C07C01D834B
:103950000C83B701888199810E943F20CE01DF91BD
:10396000CF911F910F91FF90EF900895FC0111826C
:10397000108213821282158214826115710559F02A
:10398000FB0101900020E9F7AF0141505109461BAE
:10399000570B0C94951C0895CF93DF93EC016115A0
:1039A000710561F0FB0101900020E9F7AF01415082
:1039B0005109461B570B0E94951C02C00E944D1CCA
:1039C000CE01DF91CF9108950F931F93CF93DF9393
:1039D000CDB7DEB729970FB6F894DEBF0FBECDBFC7
:1039E0008C01862FF80111821082138212821582B7
:1039F000148250E0BE016F5F7F4F90E00E94A220D2
:103A0000BE016F5F7F4FC8010E94CC1C29960FB684
:103A1000F894DEBF0FBECDBFDF91CF911F910F9104
:103A200008950F931F93CF93DF93CDB7DEB7A19780
:103A30000FB6F894DEBF0FBECDBF8C01CB01BA012B
:103A4000F80111821082138212821582148230E0F2
:103A5000AE014F5F5F4F0E947520BE016F5F7F4FC9
:103A6000C8010E94CC1CA1960FB6F894DEBF0FBE11
:103A7000CDBFDF91CF911F910F910895EF92FF92EB
:103A80000F931F93CF93DF93EC017B010C811D817A
:103A90006115710511F480E016C04115510591F0D2
:103AA000040F151FB8010E94791C8823A1F32881F7
:103AB00039818C819D81B701820F931F0E943F2025
:103AC0001D830C8381E0DF91CF911F910F91FF90B7
:103AD000EF900895FB0144815581608171810C94C0
:103AE0003E1D6115710559F0FB0101900020E9F7B9
:103AF000AF0141505109461B570B0C943E1D80E00D
:103B000008950895DB018F939F930E94011EBF913A
:103B1000AF91A29F800D911DA39F900DB29F900D1C
:103B200011240895AA1BBB1B51E107C0AA1FBB1F8C
:103B3000A617B70710F0A61BB70B881F991F5A9539
:103B4000A9F780959095BC01CD01089597FB072EAC
:103B500016F4009407D077FD09D00E94921D07FC4F
:103B600005D03EF4909581959F4F0895709561958D
:103B70007F4F0895A1E21A2EAA1BBB1BFD010DC0A9
:103B8000AA1FBB1FEE1FFF1FA217B307E407F5070D
:103B900020F0A21BB30BE40BF50B661F771F881FE9
:103BA000991F1A9469F760957095809590959B017F
:103BB000AC01BD01CF010895052E97FB1EF40094C2
:103BC0000E94F31D57FD07D00E94BA1D07FC03D0C9
:103BD0004EF40C94F31D50954095309521953F4F30
:103BE0004F4F5F4F089590958095709561957F4FE9
:103BF0008F4F9F4F0895EE0FFF1F0590F491E02D1A
:103C000009940E940C1EA59F900DB49F900DA49F37
:103C1000800D911D11240895A29FB001B39FC00192
:103C2000A39F700D811D1124911DB29F700D811DE8
:103C30001124911D0895CF93DF938230910510F4E4
:103C400082E090E0E0913C04F0913D0420E030E01F
:103C5000A0E0B0E0309739F1408151814817590711
:103C6000B8F04817590771F482819381109729F0B1
:103C700013969C938E9312972CC090933D0480933F
:103C80003C0427C02115310531F04217530718F0C5
:103C9000A901DB0101C0EF019A01BD01DF01028032
:103CA000F381E02DD7CF21153105F9F0281B390B11
:103CB0002430310580F48A819B816115710521F0E2
:103CC000FB019383828304C090933D0480933C0462
:103CD000FE01329644C0FE01E20FF31F81939193DF
:103CE00022503109398328833AC020913A04309117
:103CF0003B04232B41F420910201309103013093C6
:103D00003B0420933A0420910001309101012115D8
:103D1000310541F42DB73EB74091040150910501A2
:103D2000241B350BE0913A04F0913B04E217F307B2
:103D3000A0F42E1B3F0B2817390778F0AC014E5F1B
:103D40005F4F2417350748F04E0F5F1F50933B0419
:103D500040933A048193919302C0E0E0F0E0CF01F8
:103D6000DF91CF910895CF93DF93009709F487C037
:103D7000FC01329713821282C0913C04D0913D0421
:103D8000209781F420813181280F391F80913A04D6
:103D900090913B048217930779F5F0933B04E093ED
:103DA0003A046DC0DE0120E030E0AE17BF0750F4EA
:103DB00012964D915C9113979D014115510509F1A2
:103DC000DA01F3CFB383A28340815181840F951F21
:103DD0008A179B0771F48D919C911197840F951F01
:103DE00002969183808312968D919C911397938371
:103DF00082832115310529F4F0933D04E0933C04BE
:103E00003EC0D9011396FC93EE9312974D915D91AC
:103E1000A40FB51FEA17FB0779F480819181840F05
:103E2000951F0296D90111969C938E93828193815E
:103E300013969C938E931297E0E0F0E08A819B8129
:103E4000009719F0FE01EC01F9CFCE01029628810E
:103E50003981820F931F20913A0430913B04281737
:103E6000390769F4309729F410923D0410923C040C
:103E700002C013821282D0933B04C0933A04DF91B4
:103E8000CF910895A0E0B0E0E8E4FFE10C94DB20DE
:103E9000EC01CB01209719F40E941B1EB8C0FE0153
:103EA000E60FF71F9E0122503109E217F30708F4CD
:103EB000ACC0D9010D911C91119706171707B8F0E6
:103EC0000530110508F49FC0A80144505109461758
:103ED000570708F498C002501109061B170B0193ED
:103EE00011936D937C93CF010E94B31E8CC05B0134
:103EF000A01AB10A4E01800E911EA0913C04B0910F
:103F00003D04612C712C60E070E0109709F449C009
:103F1000A815B905C9F5ED90FC901197670142E02D
:103F2000C40ED11CCA14DB0478F147018A189B081F
:103F3000640142E0C40ED11C1296BC9012971396F5
:103F4000AC91B5E0CB16D10440F0B282A38391824C
:103F50008082D9018D939C9309C00E5F1F4F0E0D77
:103F60001F1DF90111830083EB2DFA2F61157105D7
:103F700031F0DB011396FC93EE93129744C0F0935B
:103F80003D04E0933C043FC06D917C91119766160F
:103F9000770608F43B01BD0112960D90BC91A02D4F
:103FA000B4CF60913A0470913B0468157905E9F447
:103FB00068167906D0F44091000150910101411535
:103FC000510541F44DB75EB7609104017091050150
:103FD000461B570BE417F507C0F4F0933B04E0933E
:103FE0003A04F901918380830EC00E941B1E7C015C
:103FF000009759F0A801BE010E942F20CE010E9417
:10400000B31EC70104C0CE0102C080E090E0CDB76E
:10401000DEB7EEE00C94F720FC0188279927E8949E
:1040200021912032E9F3293010F02E30C8F32B32E1
:1040300041F02D3239F4689404C00E946D20820F43
:10404000911D219120532A30C0F31EF49095819543
:104050009F4F08954AE952E00E9446200895FB01CF
:10406000DC0102C001900D9241505040D8F70895F4
:10407000DC0101C06D9341505040E0F70895FB0111
:10408000DC0101900D920020E1F70895FA01A19161
:10409000B081009719F41097E1F0CD01DC01CD015A
:1040A0000D90002011F4C00113C0FB0121912223C7
:1040B00019F02015D9F7F3CFFB012191201519F440
:1040C0001E92119606C02223C1F70D900020A1F781
:1040D000D001FA01A193B08308957AE0979F902DC3
:1040E000879F802D910D112408952532310520F4EC
:1040F000223010F00C948020FA011082CA01089539
:10410000BB27FA01A62F6217710581059105330BB4
:1041100030FB66F0AA27660F771F881F991FAA1F1A
:10412000A21710F0A21B63953850A9F7A05DAA331F
:1041300008F0A95DA19336F7B111B1931082CA01BD
:104140000C94C7204532510520F4423010F00C94F5
:10415000AD20FB011082CB010895BB27FB01552741
:10416000AA27880F991FAA1FA41710F0A41B8395D4
:104170005051B9F7A05DAA3308F0A95DA19300974B
:1041800079F7B111B1931192CB010C94C720DC01E6
:10419000FC01672F71917723E1F7329704C07C917E
:1041A0006D9370836291AE17BF07C8F308952F9285
:1041B0003F924F925F926F927F928F929F92AF92B7
:1041C000BF92CF92DF92EF92FF920F931F93CF9304
:1041D000DF93CDB7DEB7CA1BDB0B0FB6F894DEBF9B
:1041E0000FBECDBF09942A88398848885F846E84C1
:1041F0007D848C849B84AA84B984C884DF80EE800B
:10420000FD800C811B81AA81B981CE0FD11D0FB613
:10421000F894DEBF0FBECDBFED01089510E0C8EEEB
:10422000D0E004C0FE010E94FD1D2296CA3ED107C7
:06423000C9F7F894FFCF6E
:1042360000003E048000010000000E0010000A008D
:104246000B0032000200040016002C004006080194
:10425600020003000605090D086363636363050036
:104266000000000000001F000000150000000419F7
:104276000820080100000000A0059B1A0D067F0516
:10428600F305F205242C0043414E2D42555320538D
:104296007461727475703A2000202D204F4B004EC9
:1042A6006F7420476F6F642C20636865636B207999
:1042B6006F75722070696E2320616E6420636F6E65
:1042C6006E656374696F6E73002D2D2D2D2D5061F3
:1042D6006E656C20486F6D65642D2D2D2D2D004E5D
:1042E6006F64652049443A20002D2D2D2D2D496EF1
:1042F600707574732D2D2D2D0050696E2300202DA1
:104306002050524553534544002D2D2D2D2D5842F6
:1043160065652D2D2D2D2D0033312C302C30002DA3
:104326002D2D2D2D536F6C61722050616E656C2D95
:104336002D2D2D2D002D2D2D2D2D486F6D652050E9
:10434600616E656C2D2D2D2D2D002D2D2D2D2D53B2
:104356006574757020436F6D706C6574652D2D2DB9
:104366002D2D004445425547204D4F444500537579
:104376006E204C6F636174696F6E203D200048614A
:104386006C66203D200044657374696E6174696FC4
:104396006E204E6F64652300203A204D657373616D
:1043A6006765203D20007C00000000001F199B1A55
:1043B600A118BA18AC18FD180D0A006E616E0069D6
:0A43C6006E66006F7666002E0000A0
:00000001FF
