:100000000C9474000C94A2080C947B080C949C0033
:100010000C949C000C949C000C949C000C949C00F0
:100020000C949C000C949C000C949C000C949C00E0
:100030000C949C000C949C000C949C000C949C00D0
:100040000C9431080C949C000C94BE060C949806F9
:100050000C949C000C949C000C949C000C949C00B0
:100060000C949C000C949C00ED03B9033704BD0371
:10007000C003C303C703CA03CE03D103D403D7030A
:10008000DA03DE03E203E603E903010204081020B9
:100090004080010204081020010204081020000022
:1000A0000000250028002B000404040404040404B8
:1000B0000202020202020303030303030000000022
:1000C00023002600290000000000240027002A0049
:1000D0000000000800020100000304070000000007
:1000E000000000009C16881711241FBECFEFD8E037
:1000F000DEBFCDBF12E0A0E0B1E0E6E5F3E302C071
:1001000005900D92A236B107D9F723E0A2E6B2E03E
:1001100001C01D92AD37B207E1F710E0C3E7D0E0B0
:1001200004C02197FE010E949817C237D107C9F772
:100130000E94E50B0C949E190C940000EF92FF9224
:100140000F931F93CF93DF931F92CDB7DEB7182F76
:10015000F62EE42E60E08091370379830E94F0064A
:1001600083E00E94720B812F0E94720B0F2D798108
:10017000172FF12CFE1459F0F8E0FF1641F080E043
:100180000E94720BF80181938F01F394F3CF61E029
:10019000809137030F90DF91CF911F910F91FF90C6
:1001A000EF900C94F0061F93CF93DF93182FC7E2C4
:1001B000D3E060E088890E94F00683E00E94720B21
:1001C000812F0E94720B80E00E94720B182F61E059
:1001D00088890E94F006812FDF91CF911F910895A9
:1001E0000F931F93CF93DF9300D000D0CDB7DEB72E
:1001F000182F1092270310922803109229031092AF
:100200002A0310922B0344E0BE016F5F7F4F0E94D0
:100210009E008A819981482F50E065E05595479569
:100220006A95E1F728E0929F400D511D1124052E9B
:10023000000C660B770B40932803509329036093BF
:100240002A0370932B0383FF29C092E0440F551FAC
:10025000661F771F9A95D1F78370480F511D611D56
:10026000711D762F652F542F44278B81480F511D08
:10027000611D711D762F652F542F44278C81480FE7
:10028000511D611D711D40932803509329036093F4
:100290002A0370932B0381E0809327038FEF810F54
:1002A0000E94D300082F84E0810F0E94D300482FC2
:1002B00003FF04C081E08093350302C01092350330
:1002C0004F7040932C036DE273E085E0810F0E9434
:1002D0009E000F900F900F900F90DF91CF911F9184
:1002E0000F910895EF92FF920F931F93CF93DF9397
:1002F0001F92CDB7DEB7082F162F87E2E82E83E0D6
:10030000F82E60E0F701808949830E94F00685E0BD
:100310000E94720B802F0E94720B812F0E94720B21
:100320004981842F0E94720B61E0F70180890F9050
:10033000DF91CF911F910F91FF90EF900C94F006F9
:10034000CF93C82F482F60EE8FE00E9472018FE09C
:100350000E94D300807E91E08C1301C090E0892F31
:10036000CF9108950F931F93CF93DF93082F162FEC
:10037000C7E2D3E060E088890E94F00682E00E9434
:10038000720B802F0E94720B812F0E94720B61E012
:100390008889DF91CF911F910F910C94F006CF9235
:1003A000DF92FF920F931F93CF93DF931F92CDB7EE
:1003B000DEB7F82E162F042F60E080913703798383
:1003C0000E94F00682E00E94720B8F2D0E94720B39
:1003D000F12EC12E7981D72E8C2D8F19801730F4F4
:1003E000F60181916F010E94720BF6CF61E080915E
:1003F00037030F90DF91CF911F910F91FF90DF9006
:10040000CF900C94F0060F931F93CF93DF9300D0FF
:1004100000D0CDB7DEB76130B9F42C833B838A01BD
:1004200022273327602F6C71902F937048E0649FD0
:10043000900D112498609A83980175E03695279560
:100440007A95E1F729830DC0B90193E07695679518
:100450009A95E1F769832295220F207E2A831C82D8
:100460001B8244E0BE016F5F7F4F0E94CF010F905F
:100470000F900F900F90DF91CF911F910F910895E2
:100480000F931F93CF93DF93CDB7DEB729970FB6A6
:10049000F894DEBF0FBECDBF8091580390915903F1
:1004A000892B09F4A0C00E94D20700915D0310912E
:1004B0005E0320915F0330916003DC01CB01801B60
:1004C000910BA20BB30BC297A105B10560F3F89491
:1004D00080915303909154039A838983E091580348
:1004E000F0915903DF01119680818987909156031D
:1004F000E0916103F09162038091630391FF2EC04C
:100500009081982B98879081809589238F838F8104
:100510008C8388E08B8358856F8149853B812C8152
:1005200089819A81508347FD252F3A952083262F74
:1005300039F0441F00C000006083000000C0F2CF0B
:1005400038E04D9160830000019761F7F0936203FA
:10055000E093610349873B832C8338C09081982BBB
:1005600098879081809589238F838F818E8388E0FF
:100570008D8358856F8149853D812E8189819A813E
:10058000508347FD252F00C000C0208300C000C05D
:1005900000C000C000C060830000262F3A9541F0E3
:1005A000441F000000C000C000C000C000C0E8CF71
:1005B00038E04D9100C0608300C0019709F7F093C7
:1005C0006203E093610349873D832E839A83898385
:1005D00078940E94D20760935D0370935E038093CA
:1005E0005F039093600329960FB6F894DEBF0FBEA9
:1005F000CDBFDF91CF911F910F9108958F929F9260
:10060000AF92BF92CF92DF92EF92FF924B01AA245A
:10061000BB24F82DC52ED62EE72EFF24EC2D342F2B
:1006200020915703222361F0829E40011124F92D6D
:10063000C29E60011124ED2D429FA0011124352F8F
:10064000AC01440F551F840F951F409158035091E2
:100650005903840F951F20915A03DC01A20FB11D8D
:10066000FC9320915B03DC01A20FB11DEC93209160
:100670005C03FC01E20FF11D3083FF90EF90DF90EF
:10068000CF90BF90AF909F908F9008951F93CF937E
:10069000DF93C7E2D3E060E088890E94F00680EA39
:1006A0000E94720B80E00E94720B182F61E0888913
:1006B0000E94F006812FDF91CF911F9108950E9433
:1006C000460380FF06C081E60E94F00040E061E042
:1006D00007C081FF1CC081E70E94F00040E062E09B
:1006E0008CE20E94720180912C0380938902ADE21A
:1006F000B3E0E1E8F2E090E09F0121583240281792
:1007000039071CF42D912193F7CF80E008951092C2
:10071000890284E00895CF93DF93C82F60E0809131
:1007200037030E94F00680EC0E94720B61E080911A
:1007300037030E94F0066AE070E080E090E00E94DB
:10074000F70780E80E94A001D82F6AE070E080E0FF
:1007500090E0D11186C00E94F7074C2F50E0FA01BB
:100760003197E131F10508F078C0EC5CFF4F0C9453
:100770009817C7E8DFEF6FE133C0C7E0DAEB79C065
:10078000C5E8D1EF76C0C7E0DEEB69E029C0C7E875
:10079000DFEF02C0C7E8DAEF67E022C0C7E8DFEFAB
:1007A0000BC0C7E0DEEB08C0C7E0DDEA05C0C7E864
:1007B000DAEF02C0C6E8D0EF63E012C0C7E8DAEFB4
:1007C00061E00EC0C5E8D1EF61E40AC0C6E8D0EF31
:1007D00002C0C2E8D0ED60E003C0C7E8DFEF6FE31E
:1007E0008AE20E94B2016D2F89E20E94B2016C2F51
:1007F00088E20E94B2016AE070E080E090E00E942E
:10080000F707C0E360E08C2F0E94B20160E080E156
:100810008C0F0E94B20160E080E28C0F0E94B20156
:10082000CF5FCE3379F760E080E60E94B20160E0EE
:1008300080E70E94B20163E08BE20E94B20144E0D3
:1008400064E680E60E94720140E060E680E70E9474
:10085000720180E00E94A001D82F6AE070E080E081
:1008600090E00E94F7078D2FDF91CF910895C7E8A0
:10087000DFEF6FE0B5CFCF93DF93D82F6AE070E062
:1008800080E090E00E94F70780E80E94A001C82F56
:10089000882329F06AE070E080E090E01DC0D1116B
:1008A00007C02FE130E040E050E060E080E208C0A7
:1008B000D13041F42FE130E040E050E060E084E2EC
:1008C0000E94030280E00E94A001C82F6AE070E04D
:1008D00080E090E0CC2321F00E94F7078C2F03C02A
:1008E0000E94F70780E0DF91CF9108950F931F9347
:1008F000CF93DF9300D000D0CDB7DEB7082F9A0199
:10090000AB016AE070E080E090E029833A834B839A
:100910005C830E94F70780E80E94A001182F2981BC
:100920003A814B815C81882329F06AE070E080E0A5
:1009300090E029C0023099F038F4002369F00130CA
:10094000C1F460E084E013C0043079F058F0053061
:1009500081F460E088E10BC060E080E008C060E006
:1009600088E005C060E080E102C060E084E10E94B0
:10097000030280E00E94A001182F6AE070E080E08E
:1009800090E0112321F00E94F707812F03C00E94FD
:10099000F70780E00F900F900F900F90DF91CF91AD
:1009A0001F910F9108950F931F93CF93DF9300E052
:1009B00010E080E50E94D300982F987083FD02C05C
:1009C000C1E502C0C0E092E00F5F1F4F923021F4FA
:1009D0000233110571F747C00233110509F443C012
:1009E00040912C036DE273E085E08C0F0E94CF01F3
:1009F00080913503813029F480912C0380648093A9
:100A00002C0360912C0384E08C0F0E94B201209192
:100A100028033091290340912A0350912B036091C0
:100A200027038C2F0E940302C15048E068E08C2FFE
:100A30000E94720100E010E00F5F1F4F8C2F0E9498
:100A4000D300D82F61E070E080E090E00E94F707CB
:100A5000D3FF04C00233110579F707C00233110533
:100A600021F080E003C086E001C087E0DF91CF91F4
:100A70001F910F910895009769F0FC0101900020EB
:100A8000E9F73197AF01481B590BBC018AE892E0A6
:100A90000C94790B80E090E008958F929F92AF9232
:100AA000BF920F931F93CF93DF93CDB7DEB7A1977C
:100AB0000FB6F894DEBF0FBECDBF19A2423008F4C6
:100AC0004AE08E010F5D1F4F842E912CA12CB12C7A
:100AD000A50194010E946D19E62FB901CA010150C8
:100AE0001109EA3014F4E05D01C0E95CD801EC932F
:100AF000232B242B252B61F7C8010E943B05A196CF
:100B00000FB6F894DEBF0FBECDBFDF91CF911F911E
:100B10000F91BF90AF909F908F900895CF93DF93E8
:100B20000E943B05EC018AE491E00E943B058C0F9A
:100B30009D1FDF91CF9108950C943B05FC01918D91
:100B4000828D981761F0828DDF01A80FB11D5D962F
:100B50008C91928D9F5F9F73928F90E008958FEF9D
:100B60009FEF0895FC01918D828D981731F0828D51
:100B7000E80FF11D858D90E008958FEF9FEF0895A8
:100B8000FC01918D228D892F90E0805C9F4F821B0C
:100B900091098F73992708958AE892E00E94C00511
:100BA00021E0892B09F420E0822F0895FC01848D37
:100BB000DF01A80FB11DA35ABF4F2C91848D90E087
:100BC00001968F739927848FA689B7892C93A08962
:100BD000B1898C9180648C93938D848D981306C019
:100BE0000288F389E02D80818F7D80830895EF92C4
:100BF000FF920F931F93CF93DF93EC0181E0888FD7
:100C00009B8D8C8D981305C0E889F989808185FDBD
:100C100024C0F62E0B8D10E00F5F1F4F0F731127AE
:100C2000E02E8C8DE8120CC00FB607FCFACFE889D5
:100C3000F989808185FFF5CFCE010E94D605F1CFDD
:100C40008B8DFE01E80FF11DE35AFF4FF0820B8FF1
:100C5000EA89FB898081806207C0EE89FF89608311
:100C6000E889F98980818064808381E090E0DF9168
:100C7000CF911F910F91FF90EF900895CF93DF9345
:100C8000EC01888D8823C9F0EA89FB89808185FD84
:100C900005C0A889B9898C9186FD0FC00FB607FCE5
:100CA000F5CF808185FFF2CFA889B9898C9185FF26
:100CB000EDCFCE010E94D605E7CFDF91CF91089509
:100CC00080E090E0892B29F00E94CC0581110C94E2
:100CD00000000895833081F028F4813099F082304B
:100CE000A1F008958730A9F08830B9F08430D1F4AC
:100CF000809180008F7D03C0809180008F778093EA
:100D00008000089584B58F7702C084B58F7D84BD3F
:100D100008958091B0008F7703C08091B0008F7DDF
:100D20008093B0000895089581E080936202089551
:100D30001F920F920FB60F9211242F933F934F9350
:100D40005F936F937F938F939F93AF93BF93EF9333
:100D5000FF938AE892E00E94D605FF91EF91BF9140
:100D6000AF919F918F917F916F915F914F913F9143
:100D70002F910F900FBE0F901F9018951F920F92FA
:100D80000FB60F9211242F938F939F93EF93FF939E
:100D9000E0919A02F0919B028081E091A002F09193
:100DA000A10282FD12C090818091A3028F5F8F7398
:100DB0002091A402821751F0E091A302F0E0E657DF
:100DC000FD4F958F8093A30201C08081FF91EF9129
:100DD0009F918F912F910F900FBE0F901F9018959C
:100DE0001F93CF93DF93282F30E0F901E053FF4F9B
:100DF0008491F901E657FF4FD491F901E855FF4F6F
:100E0000C491CC23C9F0162F81110E946A06EC2FE1
:100E1000F0E0EE0FFF1FE256FF4FA591B4918FB7A0
:100E2000F894111105C09C91ED2FE095E92302C0C3
:100E3000EC91ED2BEC938FBFDF91CF911F91089533
:100E4000CF93DF9390E0FC01E657FF4F2491FC0124
:100E5000E855FF4F8491882361F190E0880F991F36
:100E6000FC01EA53FF4FC591D491FC01E256FF4FBC
:100E7000A591B491611109C09FB7F894888120951C
:100E800082238883EC912E230BC0623061F49FB7DC
:100E9000F8943881822F809583238883EC912E2BC0
:100EA0002C939FBF06C08FB7F894E8812E2B288320
:100EB0008FBFDF91CF9108951F93CF93DF93182FAA
:100EC000EB0161E00E942007209711F460E004C06C
:100ED000CF3FD10539F461E0812FDF91CF911F9190
:100EE0000C94F006E12FF0E0E053FF4FE491E33083
:100EF000F9F048F4E130B9F0E230A1F584B5806250
:100F000084BDC8BD34C0E730E9F0E83019F1E43001
:100F100049F580918000806280938000D0938B009F
:100F2000C0938A0024C084B5806884BDC7BD1FC03B
:100F300080918000806880938000D0938900C09366
:100F4000880015C08091B00080688093B000C09385
:100F5000B3000DC08091B00080628093B000C09358
:100F6000B40005C0C038D1050CF0B5CFAFCFDF91CC
:100F7000CF911F9108958E3008F08E508770806455
:100F800080937C0080917A00806480937A008091C5
:100F90007A0086FDFCCF809178002091790090E066
:100FA000922B08953FB7F894809175039091760342
:100FB000A0917703B091780326B5A89B05C02F3F79
:100FC00019F00196A11DB11D3FBFBA2FA92F982F6F
:100FD0008827820F911DA11DB11DBC01CD0142E0EA
:100FE000660F771F881F991F4A95D1F708958F9232
:100FF0009F92AF92BF92CF92DF92EF92FF926B01DE
:101000007C010E94D2074B015C01C114D104E104B0
:10101000F104F1F00E94D207DC01CB018819990993
:10102000AA09BB09883E9340A105B10570F321E0F0
:10103000C21AD108E108F10888EE880E83E0981EF4
:10104000A11CB11CC114D104E104F10419F7DDCFD6
:10105000FF90EF90DF90CF90BF90AF909F908F90D8
:1010600008951F920F920FB60F9211242F933F9362
:101070008F939F93AF93BF9380917103909172036D
:10108000A0917303B09174033091700323E0230F98
:101090002D3720F40196A11DB11D05C026E8230FB0
:1010A0000296A11DB11D209370038093710390934C
:1010B0007203A0937303B0937403809175039091AE
:1010C0007603A0917703B09178030196A11DB11D1D
:1010D0008093750390937603A0937703B09378037E
:1010E000BF91AF919F918F913F912F910F900FBE24
:1010F0000F901F9018951F920F920FB60F92112408
:101100002F933F934F935F936F937F938F939F930F
:10111000AF93BF93EF93FF93E0910201F09103012E
:101120000995FF91EF91BF91AF919F918F917F9121
:101130006F915F914F913F912F910F900FBE0F9044
:101140001F9018951F920F920FB60F9211242F9394
:101150003F934F935F936F937F938F939F93AF933F
:10116000BF93EF93FF93E0910001F0910101099586
:10117000FF91EF91BF91AF919F918F917F916F916F
:101180005F914F913F912F910F900FBE0F901F9045
:101190001895FF920F931F93CF93DF93D82F082FAB
:1011A00010E0F801E85EFE4F208130E0F901E053E5
:1011B000FF4F8491F901E657FF4FF490F901E8558C
:1011C000FF4FC491CC2379F081110E946A06EC2F65
:1011D000F0E0EE0FFF1FE454FF4FA591B491EC91A6
:1011E000EF2191E009F490E0F801EB59FC4F808188
:1011F0008917F1F040910801913061F4908321E06A
:1012000030E001C0220FDA95EAF7242B2093080181
:1012100081E010C0108221E030E0C90101C0880FD8
:10122000DA95EAF7809584238093080180E002C074
:10123000892F8170DF91CF911F910F91FF900895B9
:101240000F931F93CF9308E111E0C0E0F801819163
:101250008F01833619F08C2F0E94C908CF5FC630EA
:10126000A9F7CF911F910F910895CF92DF92EF923E
:10127000FF921F93CF93DF93C82F6A017B010E94D7
:101280002D19C1110E94200980EAC82A6894D1F85A
:101290006091650270E080E090E00E94F707C5E091
:1012A000D0E018E010922703C0922803D0922903BF
:1012B000E0922A03F0922B0310932C031092350333
:1012C000E4E0F1E0ADE2B3E081918D9381E0EC30B8
:1012D000F807D1F70E94D304882311F0219711F762
:1012E000DF91CF911F91FF90EF90DF90CF90089505
:1012F000CF93DF9380E00E94C908811109C064E6A2
:1013000070E080E090E00E94F707CAE5D0E01DC0E1
:10131000C8ECD0E060E087E00E94F00661E086E083
:101320000E94F00663E070E080E090E00E94F70722
:1013300060E086E00E94F00663E070E080E090E00C
:101340000E94F707219731F7DACF80E00E94C908A1
:1013500081111DC061E087E00E94F00661E086E037
:101360000E94F00663E070E080E090E00E94F707E2
:1013700060E086E00E94F00663E070E080E090E0CC
:101380000E94F707D0936A02C0936902DECF64EF30
:1013900071E080E090E00E94F707809169029091EF
:1013A0006A02892B11F161E087E00E94F00661E09A
:1013B00086E00E94F0066AE070E080E090E00E9423
:1013C000F70760E086E00E94F0066AE070E080E0E7
:1013D00090E00E94F7078091690290916A0201975C
:1013E00090936A0280936902D8CF89E080930A01C2
:1013F0004FE150E060E070E080E00E9435098BE44E
:1014000092E0DF91CF910C948E050F931F93009182
:101410004C0310914D0320914E0330914F03601700
:10142000710782079307B1F10091480310914903B6
:1014300020914A0330914B0360177107820793078D
:1014400059F100913C0310913D0320913E033091EE
:101450003F03601771078207930701F1009144036E
:10146000109145032091460330914703601771079F
:1014700082079307A9F00091400310914103209146
:10148000420330914303601771078207930751F0BD
:1014900080E009C081E007C082E005C083E003C0AE
:1014A00084E001C085E01F910F9108958F929F9273
:1014B000AF92BF92EF92FF920F931F93CF93DF9360
:1014C0004B015C01142FC22F0E94050A8093050175
:1014D00081E080930601111101C01AE0D0E0E02EF6
:1014E000F12CCE15DF0570F48091510390915203D9
:1014F000C817D90728F4B501A401CE010E94FE0245
:101500002196EFCF0E944002612F70E080E090E0D2
:10151000DF91CF911F910F91FF90EF90BF90AF900F
:101520009F908F900C94F7070F9380910C01882364
:1015300049F1609138037091390380913A03909199
:101540003B0300E220E040E00E94560A109266024F
:101550000E94200910920C0110926A0210926902F6
:1015600010926F0310926E0310926802109267023D
:1015700010926D0310926C03109263021092640239
:1015800010926B030F9108955F926F927F928F92EA
:101590009F92AF92BF92CF92DF92EF92FF920F9302
:1015A0001F93CF93DF931F92CDB7DEB74B015C0142
:1015B000522E7E2C49830E94050A8093050184E007
:1015C000809306014981411101C044E1511002C0DC
:1015D0005524539410E0C42ED12CE12CF12C81E041
:1015E0008515F0F4602E1AC04091380350913903EC
:1015F00060913A0370913B03862D90E02091510356
:10160000309152038217930710F40E94FE020E9449
:101610004002C701B6010E94F7076394671420F3E4
:10162000602E14C0862D90E020915103309152031A
:101630008217930720F4B501A4010E94FE020E94C4
:101640004002C701B6010E94F7076394671450F384
:101650001F5F1511C4CF0F90DF91CF911F910F9194
:10166000FF90EF90DF90CF90BF90AF909F908F90C2
:101670007F906F905F900895CF93CFB7F89480914B
:101680006403811127C0E2EBF0E08491E4E9F0E02B
:101690009491E82FF0E0EE0FFF1FEA53FF4FA59162
:1016A000B491EC91E92321F461E08AE00E94F00614
:1016B00061E08AE00E9420078CB580618CBD8CB50A
:1016C00080648CBD61E08DE00E94200761E08BE0CA
:1016D0000E942007809164038F5F80936403CFBFD3
:1016E000CF9108958EBD00000DB407FEFDCF8EB5DD
:1016F0000895CF92DF92EF92FF920F931F93CF93B3
:10170000DF936C017A018B01C0E0D0E0CE15DF05DC
:1017100089F0D8016D918D01D601ED91FC91019078
:10172000F081E02DC6010995892B11F47E0102C0DC
:101730002196ECCFC701DF91CF911F910F91FF90C0
:10174000EF90DF90CF9008950E94DA18CF92DF9249
:10175000EF92FF92CF93DF936B017C01E0918A02BD
:10176000F0918B020190F081E02D6DE28AE892E029
:101770000995EC0166277727CB016C197D098E0945
:101780009F094AE00E944D058C0F9D1FDF91CF916C
:10179000FF90EF90DF90CF900895CF93DF93BC013F
:1017A000990F880B990B97FF03C00E94A60B03C0EB
:1017B0004AE00E944D05EC018AE491E00E943B055D
:1017C0008C0F9D1FDF91CF910895789484B582602E
:1017D00084BD84B5816084BD85B5826085BD85B5D5
:1017E000816085BD80916E00816080936E00109253
:1017F00081008091810082608093810080918100CE
:10180000816080938100809180008160809380005E
:101810008091B10084608093B1008091B0008160BC
:101820008093B00080917A00846080937A008091E8
:101830007A00826080937A0080917A008160809340
:101840007A0080917A00806880937A001092C100BB
:10185000E0919A02F0919B0282E08083E0919602EF
:10186000F09197021082E0919802F091990280E144
:1018700080831092A202E0919E02F0919F0286E086
:101880008083E0919C02F0919D0280818061808341
:10189000E0919C02F0919D02808188608083E091BC
:1018A0009C02F0919D02808180688083E0919C027F
:1018B000F0919D0280818F7D808380E491E00E9481
:1018C0009C054AE065E170E080E090E00E944D05F3
:1018D0008AE491E00E943B0561E08DE00E942007D0
:1018E00061E08DE00E94F0068DE491E00E948E059B
:1018F00008E111E0C0E0F801D1918F01D33679F110
:1019000060E08D2F0E9420078DE591E00E949C05EC
:101910006D2F70E080E090E04AE00E944D058BE280
:1019200092E00E949C058C2F0E94C908682F70E0ED
:1019300080E090E04AE00E944D058C2F0E94C9088B
:10194000811103C082E691E002C088E691E00E9426
:101950008E056AEF70E080E090E00E94F707CF5FAD
:10196000C63049F683E791E00E948E0584E891E055
:101970000E949C050E943C0B88E00E948B038823F8
:1019800019F086E991E0F0CF85E691E00E948E059E
:1019900084E996E0909301018093000180916900B1
:1019A0008C7F826080936900E89A80E00E943B040B
:1019B00081E00E943B0445E150E060E070E080E09F
:1019C0000E94760440E050E0BA0181E00E94760473
:1019D00045E150E060E070E082E00E94760440E083
:1019E00050E0BA0183E00E94760440E050E0BA0182
:1019F00084E00E94760445E150E060E070E085E01C
:101A00000E94760468EF7AE280E090E00E94F70797
:101A1000109227038FEB92E0A0E0B0E080932803C0
:101A200090932903A0932A03B0932B0388E080931B
:101A30002C0310923503EBE6F2E0ADE2B3E08191C6
:101A40008D9322E0E337F207D1F70E94D30464E6D6
:101A500070E080E090E00E94F707809162028823A6
:101A600051F0109262020E944603837009F453C041
:101A70000E945F03F8CF80EC91E00E948E0581ED1B
:101A800091E00E948E0561E087E00E94200761E0FE
:101A900086E00E94200761E089E00E94200761E063
:101AA00089E00E94F00668EE73E080E090E00E941A
:101AB000F70760E089E00E94F00668EE73E080E0DE
:101AC00090E00E94F70761E089E00E94F00668EE6E
:101AD00073E080E090E00E94F70760E089E00E94F8
:101AE000F00687EE91E00E948E050E9478098CEF47
:101AF00091E00E948E055FE3452E56E0552E882426
:101B0000839446E2242E45E0342E0E9446038370DF
:101B100009F435C303C08AE392E0AFCF0E945F03AC
:101B200080917F0290918002019690938002809331
:101B30007F0280918102811113C04091280350914E
:101B4000290360912A0370912B0335E07695679500
:101B5000579547953A95D1F781E00E943509D5CF41
:101B6000813009F052C180918202813049F4C091E4
:101B70004C03F0904D0310914E03D0914F0334C0AD
:101B8000823049F4C0914803F090490310914A0310
:101B9000D0914B0329C0833049F4C0913C03F090AD
:101BA0003D0310913E03D0913F031EC0843049F4A1
:101BB000C0914403F090450310914603D091470330
:101BC00013C0853049F4C0914003F0904103109157
:101BD0004203D091430308C0C0913803F090390309
:101BE00010913A03D0913B03C0908302A0908502EC
:101BF000D0908602E0908402EE2049F08E2D880F6E
:101C0000880F880F28EF922E980EE82E03C090E2DE
:101C1000E92E912CC11003C000E220E005C041E094
:101C2000C41208C00E2D292D4D2D6C2F7F2D812F14
:101C30009D2FE4C052E0C51232C06C2F7F2D812F42
:101C40009D2F0E94050A80930501C0920601D110C4
:101C500002C08EE5D82EA11002C0AA24A394612C44
:101C6000712CB12C0E2D292D4D2D6C2F7F2D812FF8
:101C70009D2F6A147B040CF0C1C00E94560A60912B
:101C800038037091390380913A0390913B03292DD9
:101C90004D2D0E94560A8FEF681A780AE3CF93E021
:101CA000C91232C06C2F7F2D812F9D2F0E94050AF3
:101CB00080930501C0920601D11002C00EE5D02E1E
:101CC000A11002C0AA24A394612C712CB12C6A1417
:101CD0007B040CF095C00E2D292D4D2D6C2F7F2DE2
:101CE000812F9D2F0E94560A60913803709139030D
:101CF00080913A0390913B03292D4D2D0E94560A65
:101D0000EFEF6E1A7E0AE3CFF4E0CF120AC0092D7E
:101D10002A2D4D2D6C2F7F2D812F9D2F0E94C40ABF
:101D20006FC025E0C2126CC086E080930501C092AE
:101D300006016091400370914103809142039091AC
:101D4000430300E220E044EF0E94560A64E670E09C
:101D500080E090E00E94F70760914C0370914D0382
:101D600080914E0390914F0320E044EF0E94560A69
:101D700064E670E080E090E00E94F707609148031D
:101D80007091490380914A0390914B0320E044EF06
:101D90000E94560A64E670E080E090E00E94F70737
:101DA00060913C0370913D0380913E0390913F030D
:101DB00020E044EF0E94560A64E670E080E090E084
:101DC0000E94F70760914403709145038091460398
:101DD0009091470320E044EF0E94560A64E670E0C9
:101DE00080E090E00E94F70760913803709139031A
:101DF00080913A0390913B0320E044EF0E94560A01
:101E0000C0930501C092060180CE823049F48091D2
:101E1000820280930D0180920C018093070175CEA0
:101E20008330D1F480918202811102C060E003C04E
:101E3000813049F461E085E00E94F00660E086E0D0
:101E40000E94F00662CE823009F05FCE61E085E04C
:101E50000E94F00661E0F3CF843009F456CE85305D
:101E600079F58091280390912903A0912A03B091DC
:101E70002B03BC01CD0115E0969587957795679565
:101E80001A95D1F74AE00E944D0585E192E00E9443
:101E90009C05C1E8D2E042E0C938D40761F06991FD
:101EA00070E080E090E04AE00E944D0585E192E01C
:101EB0000E949C05F0CF8AE491E00E943B0525CE6C
:101EC000863009F040C08091820280937E02C091EA
:101ED0008302C0937D0290918402992319F090931C
:101EE000650202C010926502863029F584E891E00F
:101EF0000E949C050E943C0B8C2F0E948B03811139
:101F00002AC1609148037091490380914A039091DE
:101F10004B0338E1E32E00E120E040E00E94C40AD8
:101F20006C2F70E080E090E04AE00E944D0582E670
:101F300091E00E948E0580917E02893009F085E053
:101F400080930401E2CD873009F0DFCD80918202D9
:101F5000813009F0FDC080926602C0918302C09377
:101F60007302C13091F460913C0370913D03809104
:101F70003E0390913F03D0E2ED2E00E121E040E0EE
:101F80000E94C40AC0936402C0CDC23091F4609133
:101F90004C0370914D0380914E0390914F03B0E13B
:101FA000EB2E08E021E040E00E94C40A8092630228
:101FB000ACCDC33019F40E947809A7CDC43009F024
:101FC0009CC08091840290E08130910529F4309288
:101FD0006802209267023FC08230910519F48AEAB4
:101FE00095E019C08330910529F41092680210928F
:101FF000670231C08430910519F4E6E9F0E027C0AA
:102000008530910519F44AE151E015C086309105FB
:1020100039F486E092E090936802809367021BC0D7
:102020008730910519F4EAE8F2E011C08830910593
:1020300039F440E253E050936802409367020BC0CA
:10204000099719F486EB93E0E6CFEAE3F4E0F09326
:102050006802E093670287E192E00E949C0580910C
:102060006702909168020E94CD0BC0916702D091E7
:102070006802C032F3E0DF071CF0C052D34002C058
:10208000C05EDC4F87E292E00E949C05CE010E9478
:10209000CD0BE0906902F0906A02EC16FD0641F16A
:1020A00060E087E00E94F00661E086E00E94F006B2
:1020B00062E070E080E090E00E94F70760E086E078
:1020C0000E94F00662E070E080E090E00E94F70776
:1020D00021E0E21AF108F0926A02E0926902F7FE4A
:1020E000D8CF4FE356E050936A0240936902D1CFB4
:1020F00010927A0210927B0208CDC93009F405CD06
:1021000080916402882379F0109264026091440304
:1021100070914503809146039091470300E220E1CE
:1021200040E00E94560A80916302882309F4EDCCB6
:1021300010926302609144037091450380914603BD
:102140009091470300E128E040E00E94560ADDCC70
:1021500010926602DACC86E991E00E948E056091C9
:102160003C0370913D0380913E0390913F0328E131
:10217000E22E00E120E040E00E94C40ADCCE809123
:102180007E02883009F0E6C280917D02813009F03C
:10219000A3C080910D01813071F480910C018823DE
:1021A00009F4D8C260913C0370913D0380913E03D5
:1021B00090913F032AC0823009F4CCC2833071F47D
:1021C00080910C01882309F4C5C260914403709189
:1021D0004503809146039091470346C0843031F413
:1021E00080910C01882309F4B5C222C0853029F5FD
:1021F00080910C01882309F4ADC260914403709171
:1022000045038091460390914703A0E2EA2E00E047
:1022100021E040E00E94C40A6091380370913903C4
:1022200080913A0390913B0321E040E00E94C40A70
:1022300010920C0110927B028DC2863031F4809195
:102240000C01882309F486C244C0873099F4809138
:102250000C01882309F47EC2609138037091390320
:1022600080913A0390913B0300E220E040E00E941D
:10227000560A2FC0883009F04AC080910C0188238B
:1022800009F468C26091440370914503809146034C
:1022900090914703F0E2EF2E00E021E040E00E9441
:1022A000C40A60913C0370913D0380913E0390917C
:1022B0003F0321E040E00E94C40A6091380370911E
:1022C000390380913A0390913B0321E040E00E9462
:1022D000C40A10920C013EC2823009F03BC28091C8
:1022E0000D018130B9F0823009F434C2833021F11C
:1022F000843009F475CF853009F48CC0863009F438
:102300009ECF873009F4A3CF883009F402C10E9420
:10231000940A20C280910C01882309F41BC21092F8
:102320000C0110927C0210920A0110920B01109283
:102330007B0210927A020EC280910C01882389F0F0
:102340006091440370914503809146039091470347
:1023500000E220E040E00E94560A10920C01109228
:102360007A0280917B028111F5C110927A0261E0BC
:1023700087E00E94F00661E086E00E94F00662E0DD
:1023800070E080E090E00E94F70760E086E00E9445
:10239000F00662E070E080E090E00E94F707809134
:1023A000690290916A020196813456E095072CF4F7
:1023B00090936A028093690204C010926A0210929C
:1023C00069021092680210926702809169029091EE
:1023D0006A029C01255D3F4F2735310508F088C012
:1023E000863191050CF078C08B3EEFEF9E073CF0F4
:1023F00062E370E089E00E945C0782E076C0893D7C
:102400009F4F0CF46CC066E970E089E00E945C07A5
:1024100083E06BC080910C018823F9F06091440344
:10242000709145038091460390914703E0E2EE2EC0
:1024300000E021E040E00E94C40A609138037091FE
:10244000390380913A0390913B0321E040E00E94E0
:10245000C40A10920C0110927B0280917B028111C0
:1024600079C110927A0261E087E00E94F00661E093
:1024700086E00E94F00662E070E080E090E00E945A
:10248000F70760E086E00E94F00662E070E080E01E
:1024900090E00E94F7078091690290916A0201968C
:1024A00090936A02809369028134964024F01092DE
:1024B0006A0210926902109268021092670280917B
:1024C000690290916A029C01255D3F4F27353105D5
:1024D00078F486319105A4F088970CF494CF6EE1DE
:1024E00070E089E00E945C0781E080930A0132C1BC
:1024F00060E070E089E00E945C0710920A012AC146
:102500008B3E4FEF94070CF073CF893D9F4F3CF308
:102510007ACF80910C01882351F18FE292E00E94E2
:102520008E0561E089E00E94F00664EF71E080E0D2
:1025300090E00E94F70760E089E00E94F00664EFF7
:1025400071E080E090E00E94F70761E089E00E947E
:10255000F00664EF71E080E090E00E94F70760E031
:1025600089E00E94F00610920C0110927B0280918B
:102570007B028111EFC080E10E94BB07EC019093C8
:102580007902809378028EE00E94BB0790937702D5
:10259000809376029C01225C31402536310508F09B
:1025A000EC01C73282E0D8070CF447C061E087E055
:1025B0000E94F006C13293E0D90714F0C8EED3E0D0
:1025C00061E086E00E94F006CE01DD0FAA0BBB0B96
:1025D0009C01AD012652324041095109A0EDBFEFE7
:1025E0000E94681922EC31E040E050E00E943B1963
:1025F00069017A01E2E3CE0ED11CE11CF11CC70196
:10260000B6010E94F70760E086E00E94F006C7016D
:10261000B6010E94F7078091690290916A020196C3
:1026200090936A0280936902813496400CF44DC005
:1026300010926A021092690248C0C23C21E0D2079F
:102640000CF043C060E087E00E94F006C83CD10572
:1026500014F4C0E0D0E061E086E00E94F006CE0114
:10266000DD0FAA0BBB0B9C01AD01225C314041097F
:102670005109A0EDBFEF0E9468192EE33EEF4FEF26
:102680005FEF0E943B1969017A0182E3C80ED11CF9
:10269000E11CF11CC701B6010E94F70760E086E06B
:1026A0000E94F006C701B6010E94F70780916902F7
:1026B00090916A02019790936A028093690297FF52
:1026C00004C050926A0240926902209167023091E0
:1026D0006802A901445D5F4FB9016C527109809194
:1026E000690290916A024134E6E05E0784F040544A
:1026F0005640841795073CF4805C994FAC01421B0F
:10270000530B9A010FC06817790724F409C06817A2
:1027100079071CF060E070E01AC084179507D4F7C1
:10272000281B390B37FF03C0319521953109A1E0F2
:10273000BFEF0E949E172CE230E040E050E00E9484
:102740003B19CA01B90161507F4F8F4F9F4F89E0FC
:102750000E945C0780917E02893009F0A4C08091BC
:102760007D02813079F580910D0190910C018130CD
:10277000D9F4992309F4DCC260914C0370914D03A4
:1027800080914E0390914F0350E2E52E00E021E04E
:1027900040E00E94C40A609140037091410380911F
:1027A00042039091430355C08230C1F4992309F448
:1027B000BFC210920C0110927B0280917402909122
:1027C00075025EC0823009F0B3C280910D01909114
:1027D0000C01813021F1823009F444C0873069F462
:1027E00080910C01882309F4A3C24FE150E060E01E
:1027F00070E080E00E94350942C180910C0188237D
:1028000009F496C21092800210927F021092750213
:102810001092740210920B0110920A0176C2992351
:1028200009F486C260914C0370914D0380914E0370
:1028300090914F0340E2E42E00E021E040E00E944E
:10284000C40A60913C0370913D0380913E039091D6
:102850003F0321E040E00E94C40A10920C01109254
:102860007B0266C2992321F010920C0110927B0228
:1028700080917402909175028F3F91050CF058C2BF
:102880000196909375028093740280930B0180915E
:102890007F0280930A014FE150E060E070E080E049
:1028A0000E94350945C280910D01813091F48091DB
:1028B0000C01882309F43CC210920C0110927C0296
:1028C00010920A0110920B0110927B0210927A0270
:1028D0002FC2823009F42CC2833009F079C0809174
:1028E0000C01882371F010920C0110927A02109260
:1028F0007B0210927C0210920A0110920B0110923E
:10290000080180917B02811113C280E10E94BB0704
:10291000EC0190937902809378028EE00E94BB07CD
:1029200090937702809376029C01225C3140253699
:10293000310508F0EC01C73252E0D5070CF442C073
:1029400010927A0261E087E00E94F006C13283E0D3
:10295000D80714F0C8EED3E061E086E00E94F006EC
:10296000CE01DD0FAA0BBB0B9C01AD0126523240FC
:1029700041095109A0EDBFEF0E94681922EC31E036
:1029800040E050E00E943B1969017A0192E3C90ED0
:10299000D11CE11CF11CC701B6010E94F70760E0E1
:1029A00086E00E94F006C701B6010E94F7078091F9
:1029B000690290916A0201968134E6E09E070CF06C
:1029C000FBC03FC1C23CF1E0DF070CF040C03CC09F
:1029D0008430A9F0853009F048C080910C0188232B
:1029E00071F010920C0110927A0210927B021092F8
:1029F0007C0210920A0110920B0110920801809142
:102A00007B02811195C180E10E94BB07EC0190938C
:102A10007902809378028EE00E94BB079093770240
:102A2000809376029C01225C31402536310508F006
:102A3000EC01C73292E0D9071CF010927A027DC0F7
:102A4000C23C41E0D4071CF410927A02BFC08091CE
:102A50007A028111FFC04FE150E060E070E00E9417
:102A6000350981E080937A02F5C0863009F460C1AF
:102A7000873099F480910C01882309F459C1609141
:102A800038037091390380913A0390913B0300E23F
:102A900020E040E00E94560A49C1883009F027C171
:102AA00080910C01882351F18FE292E00E948E0503
:102AB00061E089E00E94F00664EF71E080E090E060
:102AC0000E94F70760E089E00E94F00664EF71E081
:102AD00080E090E00E94F70761E089E00E94F00644
:102AE00064EF71E080E090E00E94F70760E089E029
:102AF0000E94F00610920C0110927B0280917B02E2
:102B0000811116C180E10E94BB07EC01909379020C
:102B1000809378028EE00E94BB07909377028093A7
:102B200076029C01225C31402536310508F0EC012B
:102B3000C73292E0D9070CF444C061E087E00E94FC
:102B4000F006C132E3E0DE0714F0C8EED3E061E046
:102B500086E00E94F006CE01DD0FAA0BBB0B9C01A4
:102B6000AD012652324041095109A0EDBFEF0E944C
:102B7000681922EC31E040E050E00E943B19690105
:102B80007A01F2E3CF0ED11CE11CF11CC701B601A2
:102B90000E94F70760E086E00E94F006C701B601D8
:102BA0000E94F7078091690290916A020196813430
:102BB00026E092070CF445C010926A021092690256
:102BC00049C0C23C41E0D4070CF044C060E087E05B
:102BD0000E94F006C83CD10514F4C0E0D0E061E0EA
:102BE00086E00E94F006CE01DD0FAA0BBB0B9C0114
:102BF000AD01225C314041095109A0EDBFEF0E94B7
:102C000068192EE33EEF4FEF5FEF0E943B19690119
:102C10007A0182E3C80ED11CE11CF11CC701B60188
:102C20000E94F70760E086E00E94F006C701B60147
:102C30000E94F7078091690290916A02019797FDBF
:102C400005C090936A028093690204C050926A02A0
:102C5000409269028091670290916802009709F0A2
:102C600041C084E196E04CE250E02091690230914D
:102C70006A022417350774F5821793075CF5BC01C7
:102C80006A5E7F4FFA0176972E173F07E4F46217CA
:102C90007307CCF448525109241735075CF4889621
:102CA000821793073CF466E970E089E00E945C07B4
:102CB00083E006C062E370E089E00E945C0782E086
:102CC00080930A0135C06EE170E089E00E945C07E4
:102CD00081E0F6CF60E070E089E00E945C0710922E
:102CE0000A0126C0AC01445D5F4F8C97BECF0E94A5
:102CF000940A80910C018823D9F0109280021092DE
:102D00007F021092750210927402609138037091E4
:102D1000390380913A0390913B0300E220E040E0C8
:102D20000E94560A109266020E94200910920C011D
:102D30000E9460060C947F0D10928D0210928C02FE
:102D400088EE93E0A0E0B0E080938E0290938F0233
:102D5000A0939002B093910280E391E090938B0254
:102D600080938A0285EC90E090939702809396027C
:102D700084EC90E0909399028093980280EC90E02C
:102D800090939B0280939A0281EC90E090939D0235
:102D900080939C0282EC90E090939F0280939E022D
:102DA00086EC90E09093A1028093A0021092A3027F
:102DB0001092A4021092A5021092A6021092500343
:102DC0001092570310925D0310925E0310925F03FE
:102DD0001092600380E690E0909354038093530335
:102DE0000E94AD179093590380935803009761F0A8
:102DF00020E6FC0111922A95E9F780E290E0909399
:102E000052038093510308C010925403109253034D
:102E1000109252031092510388E0809355038091E1
:102E20005003882341F061E088E00E94200760E0C1
:102E300088E00E94F006E0EBF0E0E491F0E0EE0FB5
:102E4000FF1FE256FF4F8591949190936203809308
:102E50006103E2E9F0E0E491E093630383E08093AF
:102E6000560381E080935A0310925B0382E08093C3
:102E70005C0380E090E0A9E1B0E080934C03909384
:102E80004D03A0934E03B0934F0380E099E1A0E07F
:102E9000B0E08093480390934903A0934A03B09312
:102EA0004B0389E190E0A0E0B0E08093440390936D
:102EB0004503A0934603B093470389E199E1A9E153
:102EC000B0E08093400390934103A0934203B093FA
:102ED000430380E099E1A9E1B0E080933C03909343
:102EE0003D03A0933E03B0933F031092380310922A
:102EF000390310923A0310923B0389E08093370321
:102F000061E00E94200761E0809137030C94F00695
:102F10008091580390915903009711F00E94421834
:102F20008091550387FD03C060E00C94200708954D
:102F3000EE0FFF1F0590F491E02D09940E948F1968
:102F4000332312F48A1B9B0B0C94A8170E948F1931
:102F5000B7FF0895821B930B0895CF93DF938230C0
:102F6000910510F482E090E0E0917B03F0917C0306
:102F700020E030E0C0E0D0E0309711F14081518195
:102F800048175907C0F04817590761F482819381A7
:102F9000209719F09B838A832BC090937C038093A6
:102FA0007B0326C02115310519F04217530718F489
:102FB0009A01BE01DF01EF010280F381E02DDCCF39
:102FC0002115310509F1281B390B2430310590F406
:102FD00012968D919C9113976115710521F0FB015B
:102FE0009383828304C090937C0380937B03FD01D1
:102FF000329644C0FD01E20FF31F8193919322505A
:1030000031092D933C933AC02091790330917A0392
:10301000232B41F4209110013091110130937A0358
:103020002093790320910E0130910F012115310574
:1030300041F42DB73EB74091120150911301241B6A
:10304000350BE0917903F0917A03E217F307A0F4CE
:103050002E1B3F0B2817390778F0AC014E5F5F4FEE
:103060002417350748F04E0F5F1F50937A034093A3
:1030700079038193919302C0E0E0F0E0CF01DF910A
:10308000CF9108950F931F93CF93DF93009709F487
:103090008CC0FC0132971382128200917B03109145
:1030A0007C030115110581F420813181820F931F6A
:1030B0002091790330917A032817390779F5F09335
:1030C0007A03E093790371C0D80140E050E0AE1775
:1030D000BF0750F412962D913C911397AD01211525
:1030E000310509F1D901F3CF9D01DA013383228340
:1030F00060817181860F971F8217930769F4EC0135
:1031000028813981260F371F2E5F3F4F318320835F
:103110008A819B8193838283452B29F4F0937C03DE
:10312000E0937B0342C01396FC93EE931297ED015C
:10313000499159919E01240F351FE217F30771F44D
:1031400080819181840F951F029611969C938E9396
:103150008281938113969C938E931297E0E0F0E026
:10316000D80112968D919C911397009719F0F80150
:103170008C01F6CF8D919C9198012E5F3F4F820F6D
:10318000931F2091790330917A032817390769F446
:10319000309729F410927C0310927B0302C01382B3
:1031A000128210937A0300937903DF91CF911F91DC
:1031B0000F91089581E090E0F8940C949E198F92FD
:1031C0009F92AF92BF92CF92DF92EF92FF92CF93F6
:1031D000DF93EC01688179818A819B81611571059A
:1031E0008105910521F464E279ED8BE597E02DE10D
:1031F00033EF41E050E00E943B1949015A019B0125
:10320000AC01A7EAB1E40E945A196B017C01ACEE53
:10321000B4EFA50194010E946819DC01CB018C0D6B
:103220009D1DAE1DBF1DB7FF03C00197A109B0488A
:1032300088839983AA83BB83BC01CD019F77DF91EB
:10324000CF91FF90EF90DF90CF90BF90AF909F9085
:103250008F9008950E94DF18089584E191E00E9404
:10326000DF1808956093140170931501809316017F
:10327000909317010895052E97FB1EF400940E9469
:10328000521957FD07D00E946D1907FC03D04EF468
:103290000C94521950954095309521953F4F4F4FC2
:1032A0005F4F089590958095709561957F4F8F4FF2
:1032B0009F4F08950E948F19A59F900DB49F900D68
:1032C000A49F800D911D11240895B7FF0C945A19E5
:1032D0000E945A19821B930B0895A1E21A2EAA1B71
:1032E000BB1BFD010DC0AA1FBB1FEE1FFF1FA217B6
:1032F000B307E407F50720F0A21BB30BE40BF50BB3
:10330000661F771F881F991F1A9469F7609570953B
:10331000809590959B01AC01BD01CF010895A29FBE
:10332000B001B39FC001A39F700D811D1124911D99
:10333000B29F700D811D1124911D089510E0C3E707
:10334000D0E004C0FE010E9498172196C437D1072F
:06335000C9F7F894FFCF5D
:103356009306930605000000000000000108000027
:103366007D03800001000000086363636363060554
:10337600150000001F000000060007000000000006
:10338600F705790BC0059E05B2053E06091920080A
:103396004E6F64652049443A20000D0A002D2D2DFC
:1033A6002D2D496E707574732D2D2D2D0050696E5F
:1033B6002300202D204F4B00202D205052455353E3
:1033C6004544002D2D2D2D2D43616E204275732D04
:1033D6002D2D2D0043414E2D4255532053746172BD
:1033E6007475703A20004E6F7420476F6F642C20FE
:1033F600636865636B20796F75722070696E232030
:10340600616E6420636F6E6E656374696F6E7300C0
:103416004E6F7468696E6720526563656976656488
:10342600002D2D2D2D2D536F6C61722050616E6510
:103436006C2D2D2D2D2D002D2D2D2D2D486F6D65CF
:103446002050616E656C2D2D2D2D2D002D2D2D2DD1
:103456002D536574757020436F6D706C6574652DA2
:103466002D2D2D2D002C0053756E204C6F6361742D
:10347600696F6E203D200048616C66203D20004447
:1034860045425547204D4F4445004D65737361676E
:1034960065205265636569766564002D2D2D2D2D99
:1034A60050616E656C20486F6D65642D2D2D2D2D38
:0234B600000014
:00000001FF
