:100000000C9475000C949D000C949D000C94640657
:100010000C9464060C9464060C949D000C949D0052
:100020000C949D000C949D000C949D000C949D00DC
:100030000C949D000C949D000C949D000C949D00CC
:100040000C94F8140C949D000C944A180C947C1891
:100050000C949D000C949D000C949D000C949D00AC
:100060000C949D000C949D0089038D03530356034B
:1000700059035D036103640368036B036E0371033B
:10008000740378037C0380038303000000080002EC
:10009000010000030407000000000000000001024E
:1000A0000408102040800102040810200102040806
:1000B00010200404040404040404020202020202E4
:1000C00003030303030300000000230026002900AC
:1000D00000000000250028002B0000000000240084
:1000E00027002A009B13AC18071411241FBECFEF62
:1000F000D8E0DEBFCDBF12E0A0E0B1E0E6E6F9E374
:1001000002C005900D92A439B107D9F724E0A4E903
:10011000B2E001C01D92A733B207E1F710E0C8EECC
:10012000D0E004C02297FE010E94081BC43ED10704
:10013000C9F70E94F0180C94A61C0C940000CF93F1
:10014000DF93EC0188859985009711F00E94BE1B12
:100150008D8187FD05C060E0DF91CF910C946D1615
:10016000DF91CF910895EF92FF920F931F93CF935A
:10017000DF93EC017B0188859985009711F00E943F
:10018000BE1B8701000F111F0E0D1F1D1C830B834B
:10019000C8010E94261B99878887009741F0A80113
:1001A00060E070E00E94701CFA82E98204C01C8248
:1001B0001B821A821982DF91CF911F910F91FF90BC
:1001C000EF900895FC01668360FF04C081E08287A0
:1001D000138611C062FF06C081E0828782E08387B8
:1001E00014860895128663FF04C082E0838781E04D
:1001F00003C081E0838782E084870895CF92DF92F5
:10020000EF92FF920F931F93CF93DF93CDB7DEB79B
:1002100029970FB6F894DEBF0FBECDBF8C01DC016D
:1002200018968D919C911997892B09F49BC00E9477
:100230004215F801C584D684E784F0886C197D09DD
:100240008E099F09623371058105910580F3F89449
:10025000838194819A838983A085B1857D01EFEFA5
:10026000EE1AFE0A8C918987D80116969C911697F2
:1002700051960D90BC91A02DF801838991FF2EC05D
:100280009C91982B98879C91809589238F838F814F
:100290008E8388E08D8358856F8149853D812E81CD
:1002A00089819A81F7015C9347FD252F3A952C931C
:1002B000262F39F0441F00C000006C93000000C0DE
:1002C000F2CF38E041916C930000019761F7F8019B
:1002D000B28BA18B49873D832E8338C09C91982B8C
:1002E00098879C91809589238F838F818C8388E068
:1002F0008B8358856F8149853B812C8189819A81C7
:10030000F7015C9347FD252F00C000C02C9300C06F
:1003100000C000C000C000C06C930000262F3A95BA
:1003200041F0441F000000C000C000C000C000C079
:10033000E8CF38E0419100C06C9300C0019709F705
:10034000F801B28BA18B49873B832C839A838983E5
:1003500078940E944215D8011D966D937D938D93DC
:100360009C93509729960FB6F894DEBF0FBECDBF71
:10037000DF91CF911F910F91FF90EF90DF90CF9081
:1003800008951F93CF93DF93EC01162F8881882364
:1003900031F08D8187FD03C060E00E946D161D83E2
:1003A0008881882341F061E0812F0E946D1660E012
:1003B000812F0E94A616812F90E0FC01EE54FF4F82
:1003C000E491F0E0EE0FFF1FE053FF4F25913491D1
:1003D0003A8B298BFC01E256FF4F84918B8BDF9186
:1003E000CF911F9108950F931F93CF93DF9300D068
:1003F000CDB7DEB78C01FC01108217821186108602
:10040000158616861786108A2A8349830E94B300B0
:100410004981642FC8010E94C1012A81622FC8014D
:100420000F900F90DF91CF911F910F910C94E200EC
:10043000CF92DF92EF92FF920F931F93CF93DF93B0
:10044000FC01818192816817790788F5CA01AA2782
:10045000BB27082FC32ED42EE52EFF241C2DD22F10
:10046000C781CC2361F08C9FC0011124092FCC9E41
:10047000600111241D2D2C9F90011124D32F9B016D
:10048000220F331F260F371F80859185820F931F00
:100490002285DC01A20FB11D0C932385DC01A20F84
:1004A000B11D1C932485FC01E20FF11DD083DF9167
:1004B000CF911F910F91FF90EF90DF90CF90089513
:1004C000962F50E060E070E0592B682BCB01BA0109
:1004D00008958EBD00000DB407FEFDCF8EB50895C2
:1004E000CF93DF93EC0160E088890E94A61680EC30
:1004F0000E94690261E088890E94A6166AE070E0A5
:1005000080E090E0DF91CF910C9465151F93CF931D
:10051000DF93EC01162F60E088890E94A61683E025
:100520000E946902812F0E94690280E00E94690294
:10053000182F61E088890E94A616812FDF91CF9144
:100540001F910895EF92FF921F93CF93DF931F9215
:10055000CDB7DEB77C01162F60E0FC0180894983AE
:100560000E94A61682E00E946902812F0E94690201
:100570004981842F0E94690261E0F70180890F9010
:10058000DF91CF911F91FF90EF900C94A616CF9220
:10059000DF92EF92FF920F931F93CF93DF9300D0E0
:1005A000CDB7DEB78C01E62EF22E60E0FC0180892B
:1005B00049835A830E94A61682E00E9469028E2D0A
:1005C0000E9469024981E42EC42E5A81D52E8C2DB9
:1005D0008E198F1530F4F60181916F010E94690226
:1005E000F6CF61E0F80180890F900F90DF91CF91F5
:1005F0001F910F91FF90EF90DF90CF900C94A61673
:10060000EF92FF921F93CF93DF9300D0CDB7DEB769
:100610007C01162F60E0FC0180892A8349830E94B7
:10062000A61685E00E946902812F0E946902498115
:10063000842F0E9469022A81822F0E94690261E050
:10064000F70180890F900F90DF91CF911F91FF905C
:10065000EF900C94A6161F93CF93DF93EC01162F07
:10066000262F40EE6FE00E9400036FE0CE010E9453
:100670008602982F907E81E0911301C080E0DF9187
:10068000CF911F9108950F931F93CF93DF93EC01A8
:10069000462F50E0FA013197E131F105C0F5EC5CED
:1006A000FF4F0C94061B17E80FEF05C017E00AEB8D
:1006B00002C015E801EF4FE033C017E00EEB49E050
:1006C0002FC017E80FEF02C017E80AEF47E028C075
:1006D00017E80FEF0BC017E00EEB08C017E00DEAAC
:1006E00005C017E80AEF02C016E800EF43E018C0A3
:1006F00017E80AEF41E014C015E801EF41E410C02B
:1007000016E800EF02C012E800ED40E009C081E009
:1007100016C017E80FEF4FE303C017E80FEF4FE1E4
:100720006AE2CE010E94A202402F69E2CE010E943D
:10073000A202412F68E2CE010E94A20280E0DF9176
:10074000CF911F910F9108951F93CF93DF93EC01E9
:1007500010E340E0612FCE010E94A20260E1610F30
:1007600040E0CE010E94A20260E2610F40E0CE01B3
:100770000E94A2021F5F1E3361F740E060E6CE01D7
:100780000E94A20240E060E7CE01DF91CF911F916D
:100790000C94A2020F931F93CF93DF93EC01062FCB
:1007A0000E94700260E8CE010E942B03182F6AE0BD
:1007B00070E080E090E011110CC00E946515602F80
:1007C000CE010E944303882339F06AE070E080E0A4
:1007D00090E00E94651528C06AE070E080E090E03B
:1007E0000E946515CE010E94A40343E06BE2CE0196
:1007F0000E94A20224E044E660E6CE010E940003CB
:1008000020E040E660E7CE010E94000360E0CE01F8
:100810000E942B03C82F8823C1F26AE070E080E0B9
:1008200090E00E9465151C2F812FDF91CF911F91C1
:100830000F9108950F931F93CF93DF9300D000D0B3
:10084000CDB7DEB74130B1F40C831B838901222779
:100850003327502F5C71402F437078E0579F400D35
:10086000112448604A8355E0169507955A95E1F79B
:1008700009830DC0A80123E0569547952A95E1F715
:1008800049830295000F007E0A831C821B8224E0AC
:10089000AE014F5F5F4F0E94C7020F900F900F9005
:1008A0000F90DF91CF911F910F910895FF920F93B9
:1008B0001F93CF93DF93EC01F62EAC014A5F5F4F9D
:1008C00065E06F0D2D810E94C7028E85813019F47D
:1008D0008D8180648D8364E06F0D4D81CE010E9417
:1008E000A20209811A812B813C8148816F2DCE01A2
:1008F0000E941A04DF91CF911F910F91FF900895EC
:10090000615028E048E00C940003FF920F931F937E
:10091000CF93DF9300D01F92CDB7DEB78B0120E3DA
:10092000298320E42A8320E52B83FB011082FE012A
:10093000E40FF11DF1806F2D0E948602982F9870B0
:1009400083FD04C0F394F801F08201C092E0892F86
:100950000F900F900F90DF91CF911F910F91FF900B
:100960000895CF93DF93EC01862F688B61E00E949E
:100970006D1661E08889DF91CF910C94A616CF9314
:10098000DF9300D01F92CDB7DEB76B8389839A8344
:100990000E94F5076B8189819A810E94CA0391E0C8
:1009A000811101C090E0892F0F900F900F90DF917F
:1009B000CF910895CF92DF92EF920F931F93CF9331
:1009C000DF93FC0120834183528363837483093066
:1009D00008F008E00583E686D60180E090E010E0AC
:1009E000801791073CF42D91EF01C80FD91F2E837A
:1009F0000196F6CF80E0DF91CF911F910F91EF909C
:100A0000DF90CF900895CF92DF92EF92FF920F93F5
:100A10006701E12C0E94DA040F91FF90EF90DF90C4
:100A2000CF900895DF92EF92FF920F931F93CF9391
:100A3000DF931F92CDB7DEB78C01D62EE12CF12CBF
:100A40004D2DBE016F5F7F4FC8010E9485049FEF4F
:100A5000E91AF90A823029F482E3E816F10481F7F1
:100A60002BC092E3E916F10439F16981C8010E94B3
:100A700056046981C8010E948004E12CF12C8FEF9B
:100A8000E81AF80A69816150C8010E948602D82ECE
:100A900061E070E080E090E00E946515D3FE06C042
:100AA00092E3E916F10459F787E007C082E3E816FC
:100AB000F104D1F380E001C086E00F90DF91CF9187
:100AC0001F910F91FF90EF90DF900895CF92EF92DA
:100AD000FF920F93CF93DF93EC010E9403056C2DDF
:100AE000CE01DF91CF910F91FF90EF90CF900C94BA
:100AF0001205FC01618172818381948108952091A6
:100B0000D8023091D90228173907B9F4909196028A
:100B100080919702981789F0E0919602F0E0E856EC
:100B2000FD4F80812091960230E02F5F3F4F2F7361
:100B300033272093960290E008958FEF9FEF08955A
:100B40001F93CF93DF93DC015C968D919C915D9711
:100B5000009749F481E090E013969C938E9312974E
:100B600080E090E03BC05196ED91FC9152975096F9
:100B70002C915097322F30951FB75E964C915E970F
:100B800041FB772770F941FD6095F8944081772308
:100B900011F0422B01C043234083EC012197F1F770
:100BA00048E0508160FF02C0522B01C053235083A4
:100BB000EC012197F1F76695415099F780817723F1
:100BC00011F0832301C0822B80831FBF5C968D911F
:100BD0009C915D970197F1F781E090E0DF91CF91D3
:100BE0001F91089508952091D8023091D9022817B5
:100BF000390781F49091960280919702981751F0ED
:100C0000E0919602F0E0E856FD4F8081992787FD3C
:100C1000909508958FEF9FEF08952091D80230911D
:100C2000D9022817390771F4809197022091960212
:100C300090E0805C9F4F821B910960E470E00E940D
:100C4000B11A089580E090E00895E091D802F09103
:100C5000D902E817F90769F4A389B4899C918589B9
:100C6000809589238C931092D9021092D80281E04A
:100C7000089580E00895CF93DF93EC018A8D9B8DDA
:100C8000892BF1F08091D8029091D9028C179D07A1
:100C9000B9F0009711F00E9425068E8D8E7F8E8F01
:100CA0001092970210929602D093D902C093D80264
:100CB000EB89FC8980819D89892B808381E001C03B
:100CC00080E0DF91CF9108951F920F920FB60F929F
:100CD00011242F933F934F935F936F937F938F9341
:100CE0009F93AF93BF93EF93FF93E091D802F0915E
:100CF000D902309709F451C0868DA685B7859585B0
:100D000081FF04C08C91892329F447C08C918923E9
:100D100009F043C0A389B4899C9185898095892372
:100D20008C93868997890197F1F7208D318DA6855F
:100D3000B785758558E040E0C9010197F1F7842F28
:100D400090E095958795482F6C91672309F040684E
:100D5000515091F7868D81FD40958091970290E0EA
:100D600001968F73992720919602281749F0A09138
:100D70009702B0E0A856BD4F4C938093970203C0F2
:100D8000868D8160868F828D938D0197F1F7A3897F
:100D9000B4898C919589892B8C93FF91EF91BF91A8
:100DA000AF919F918F917F916F915F914F913F9103
:100DB0002F910F900FBE0F901F90189524E431E0F3
:100DC000FC01318320830C9425061F93CF93DF937E
:100DD000EC01162F6E8D6695617081E06827812F7A
:100DE0000E94A61661E0812F0E946D16812F90E06F
:100DF000FC01E256FF4FE491E88BFC01EE54FF4FFB
:100E0000E491F0E0EE0FFF1FE053FF4F85919491C6
:100E10009A8B898BDF91CF911F9108951F93CF9368
:100E2000DF93EC01162F60E0812F0E946D168E8DEE
:100E300081FD04C061E0812F0E94A6161C87812FCE
:100E400090E0FC01E256FF4FE491ED87FC01EE5487
:100E5000FF4FE491F0E0EE0FFF1FEA53FF4F859143
:100E600094919F878E87DF91CF911F910895FF9274
:100E70000F931F93CF93DF93EC01F62E522F1B821B
:100E80001A8208EE13E020E030E00C831D832E83ED
:100E90003F8384E491E0998388831F8A1E8A198E98
:100EA000188E1B8E1A8E1D8E1C8E8E8D8E7F50FB83
:100EB00081F98E8F642FCE010E94E5066F2DCE0141
:100EC000DF91CF911F910F91FF900C940E07CF935C
:100ED000DF93EC019A01AB011B8E1A8E198E188ECE
:100EE0001F8A1E8A60E079E08DE390E00E94E71A95
:100EF000C9012430310520F0B9016350710902C0E5
:100F000061E070E07D8F6C8FEC85E63108F068C0A1
:100F1000B901769567956431710518F063517109CF
:100F200002C061E070E07F8B6E8B069718F0C901FC
:100F3000059702C081E090E0998F888FC901880FE2
:100F4000991F820F931F96958795969587958D305B
:100F5000910510F00C9702C081E090E09B8F8A8F82
:100F600020916800E83050F091E0EE3008F490E015
:100F700081E001C0880F9A95EAF701C084E0822BD6
:100F8000809368002C85283038F02E3040F02631D0
:100F900048F48CE690E008C08DE690E005C08BE652
:100FA00090E002C080E090E09C8B8B8B283030F486
:100FB00081E001C0880F2A95EAF70DC0822F90E0EA
:100FC0002E3010F4089701C00E9791E001C0990FE0
:100FD0008A95EAF7892F8D8B8C8D9D8D0197F1F77E
:100FE000CE01DF91CF910C943B06CF93CFB7F8940D
:100FF0008091DA02811127C0ECEBF0E08491E8EAFD
:10100000F0E09491E82FF0E0EE0FFF1FE652FF4F63
:10101000A591B4918C91892321F461E08AE00E942A
:10102000A61661E08AE00E946D168CB580618CBDC9
:101030008CB580648CBD61E08DE00E946D1661E02E
:101040008BE00E946D168091DA028F5F8093DA0246
:10105000CFBFCF910895CF93DF9380911403843253
:1010600029F010923403E4E1F3E035C060E571E06B
:1010700084E193E00E946B1C60E571E080E090E009
:101080000E946B1C0E944D1CAA2797FDA095BA2FA9
:1010900080933C0390933D03A0933E03B0933F03A2
:1010A00060E571E080E090E00E946B1CC8E4D3E052
:1010B000009751F00E944D1C888360E571E080E04C
:1010C00090E00E946B1C01C01882219623E0C0357D
:1010D000D20771F7C6CF119283E0E433F807D9F74E
:1010E000DF91CF910895813049F46091750370913B
:1010F000760380917703909178030895823049F4C4
:1011000060917103709172038091730390917403E5
:101110000895833049F4609165037091660380916E
:101120006703909168030895843049F460916D03DA
:1011300070916E0380916F039091700308958530D4
:1011400049F46091690370916A0380916B039091F7
:101150006C03089560916103709162038091630351
:101160009091640308950F931F930091750310915C
:101170007603209177033091780360177107820717
:101180009307D1F1009171031091720320917303C1
:1011900030917403601771078207930779F100910A
:1011A000650310916603209167033091680360170F
:1011B00071078207930721F100916D0310916E036F
:1011C00020916F03309170036017710782079307B6
:1011D00079F00091690310916A0320916B033091BB
:1011E0006C03601771078207930721F485E009C03B
:1011F00084E007C080E005C081E003C082E001C058
:1012000083E01F910F910895882339F081509091C8
:101210003C01899F802D1124089580E00895882342
:1012200021F0880F880F880F089580913D0108955F
:101230005F926F927F928F929F92AF92BF92CF9266
:10124000DF92EF92FF920F931F93CF93DF931F9242
:10125000CDB7DEB74B015C01622E7E2C49830E9424
:10126000B30880932B0184E080932C0149814111C4
:1012700001C044E1611002C06624639410E0C42EF2
:10128000D12CE12CF12C81E0861510F0502E1BC0E2
:10129000502E5714D8F7209161033091620340918A
:1012A000630350916403652D70E089E793E00E9429
:1012B000180289E793E00E94FE00C701B6010E9470
:1012C00065155394E6CF571490F4652D70E0A50191
:1012D000940189E793E00E94180289E793E00E9455
:1012E000FE00C701B6010E9465155394ECCF1F5F45
:1012F0001611C9CF0F90DF91CF911F910F91FF90E1
:10130000EF90DF90CF90BF90AF909F908F907F90A5
:101310006F905F9008959F92AF92BF92CF92DF92AD
:10132000EF92FF920F931F93CF93DF936B017C019A
:10133000942EA22E0E94B30880932B0181E080930B
:101340002C01911002C08AE0982EB12CC0E0D0E0B0
:1013500010E0BE016A0D7B1D6017710740F4A70104
:10136000960189E793E00E9418022196F2CF89E75F
:1013700093E00E94FE00692D70E080E090E0DF9134
:10138000CF911F910F91FF90EF90DF90CF90BF9082
:10139000AF909F900C9465150F9386E080932B017E
:1013A00085E080932C016091690370916A038091BC
:1013B0006B0390916C0300913D0120E044EF0E948B
:1013C0008B0964E670E080E090E00E946515609112
:1013D0007503709176038091770390917803009163
:1013E0003D0120E044EF0E948B0964E670E080E05C
:1013F00090E00E9465156091710370917203809175
:1014000073039091740300913D0120E044EF0E942A
:101410008B0964E670E080E090E00E9465156091C1
:101420006503709166038091670390916803009152
:101430003D0120E044EF0E948B0964E670E080E00B
:1014400090E00E94651560916D0370916E0380912C
:101450006F039091700300913D0120E044EF0E94E2
:101460008B0964E670E080E090E00E946515609171
:101470006103709162038091630390916403009112
:101480003D0120E044EF0E948B090F9108956F9277
:101490007F928F929F92AF92BF92CF92DF92EF9204
:1014A000FF920F931F93CF93DF931F92CDB7DEB7B9
:1014B0004B015C01142FF02E29830E94B308809306
:1014C0002B0183E080932C012981111101C01EE5BD
:1014D000211101C021E0612C712CC22ED12C6C1481
:1014E0007D04BCF40E2D2F2D412FC501B4010E94A7
:1014F0008B09609161037091620380916303909105
:1015000064032F2D412F0E948B098FEF681A780AF0
:10151000E6CF0F90DF91CF911F910F91FF90EF9049
:10152000DF90CF90BF90AF909F908F907F906F9003
:1015300008956F927F928F929F92AF92BF92CF92B7
:10154000DF92EF92FF920F931F93CF93DF931F923F
:10155000CDB7DEB74B015C01142FF02E29830E941A
:10156000B30880932B0182E080932C012981111113
:1015700001C01EE5211101C021E0612C712CC22E99
:10158000D12C0E2D2F2D412FC501B4016C147D04DB
:1015900094F40E948B0960916103709162038091C1
:1015A0006303909164032F2D412F0E948B098FEFCD
:1015B000681A780AE6CF0E948B090F90DF91CF91CD
:1015C0001F910F91FF90EF90DF90CF90BF90AF9061
:1015D0009F908F907F906F900895CF92DF92EF92BF
:1015E000FF920F931F93CF93DF9300D000D0CDB71E
:1015F000DEB7809141030E947308C62E182F009118
:101600003D01D09042032091440340914503E09076
:101610004303EE2089F08E2D29834A837B839C83AC
:101620000E940409F82E8E2D0E940F09E82E2981B0
:101630004A817B819C8102C0E02EF12CD11002C036
:1016400020E005C081E0D81207C00E2D2F2D6C2D93
:10165000812F0E948B0920C0E2E0DE1206C00F2D10
:101660006C2D812F0E94990A17C0F3E0DF1206C08B
:101670000F2D6C2D812F0E94470A0EC084E0D812D6
:1016800006C00F2D6C2D812F0E94180905C0E5E0C2
:10169000DE1202C00E94CC09C0922B01D0922C0114
:1016A0000F900F900F900F90DF91CF911F910F919E
:1016B000FF90EF90DF90CF9008951F93CF93DF932B
:1016C000182FC82FD0E0FE01EC5DFE4F80810E94F4
:1016D000DC16FE01EA5CFC4F90819817E9F09091CE
:1016E0002E01813061F4808321E030E0012E01C0C1
:1016F000220F0A94EAF7292B20932E0111C01082A1
:1017000021E030E0012E01C0220F0A94EAF7209573
:10171000292320932E0103C081E0913009F080E05D
:10172000DF91CF911F9108951F93CF93DF93C4E270
:10173000D1E010E08991833619F0812F0E945D0B72
:101740001F5F1630B9F7DF91CF911F910895CF92A7
:10175000EF92FF920F931F93CF93DF9300D000D0AF
:10176000CDB7DEB7882351F049835A836B837C83DE
:101770000E94940B7C816B815A8149818091360152
:1017800090913701A0913801B0913901481759075C
:101790006A077B0729F125E0880F991FAA1FBB1F45
:1017A0002A95D1F7842B952BA62BB72B32E0C32E8D
:1017B0004AE2E42E41E0F42E08E020E0AC01BD0155
:1017C00080E593E00E9466050F900F900F900F90B8
:1017D000DF91CF911F910F91FF90EF90CF900895DF
:1017E0004091320150913301609134017091350183
:1017F0002AE030E086E993E00E941F1A60E571E07C
:1018000086E993E00E943D190AE211E0F1E002331B
:101810001F0781F0F80161918F014AE050E086E9ED
:1018200093E00E942C1A60E571E086E993E00E9443
:101830003D19ECCF86E993E00F900F900F900F9039
:10184000DF91CF911F910F91FF90EF90CF900C946B
:101850004619EF920F9390911A0180911B019130DC
:1018600029F5882309F487C0609175037091760388
:101870008091770390917803E0903D0100E021E0B2
:1018800040E00E9418096091690370916A03809199
:101890006B0390916C03E0903D0121E040E00E94D9
:1018A000180910921B011092F10265C0923019F5CF
:1018B000882309F460C010921B011092F1028091FC
:1018C000EC029091ED0201969093ED028093EC0270
:1018D000809331018091EA0280933001409132017E
:1018E00050913301609134017091350180E00F9186
:1018F000EF900C94A70B9730E1F48823E1F140912D
:10190000320150913301609134017091350180E0D2
:101910000E94A70B60916103709162038091630341
:101920009091640300913D0120E040E00E948B090A
:1019300020C0882301F11092EB021092EA0210926B
:10194000ED021092EC021092310110923001609180
:10195000610370916203809163039091640300912D
:101960003D0120E040E00E948B091092F3020E94AA
:10197000940B10921B010F91EF900895EF920F932B
:1019800090911A0180911B01913029F5882309F467
:101990008AC060917503709176038091770390916E
:1019A0007803E0903D0100E021E040E00E9418094A
:1019B000609165037091660380916703909168035D
:1019C000E0903D0121E040E00E94180910921B01C7
:1019D0001092F10268C0923031F5882321F0109204
:1019E0001B011092F1028091EC029091ED028F3F69
:1019F00091050CF058C001969093ED028093EC0293
:101A0000809331018091EA0280933001409132014C
:101A100050913301609134017091350180E00F9154
:101A2000EF900C94A70B9730E1F48823E1F14091FB
:101A3000320150913301609134017091350180E0A1
:101A40000E94A70B60916103709162038091630310
:101A50009091640300913D0120E040E00E948B09D9
:101A600020C0882301F11092EB021092EA0210923A
:101A7000ED021092EC02109231011092300160914F
:101A800061037091620380916303909164030091FC
:101A90003D0120E040E00E948B091092F3020E9479
:101AA000940B10921B010F91EF9008950F9380916A
:101AB0001B01882309F446C06091610370916203A1
:101AC000809163039091640300913D0120E040E028
:101AD0000E948B091092F3020E94940B10921B013A
:101AE0001092E6021092E5021092E4021092E302D4
:101AF0001092E2021092E1021092E0021092DF02D4
:101B00001092E8021092E9021092E70280913601E9
:101B100090913701A0913801B0913901833091053E
:101B2000A105B10521F00897A105B10559F460E0C0
:101B3000809121010E94A61660E0809120010F9102
:101B40000C94A6160F9108950F931F9300913601E0
:101B500010913701209138013091390180913C0377
:101B600090913D03A0913E03B0913F0380179107F0
:101B7000A207B30761F080E593E00E947905F5E0E4
:101B80009695879577956795FA95D1F702C0BC0130
:101B9000CD011F910F910895EF920F93CF93C82F0E
:101BA00062E571E086E993E00E943D196C2F80E5C3
:101BB00093E00E94BF04811121C000913C01000FFD
:101BC000609171037091720380917303909174031B
:101BD000B8E1EB2E20E040E00E9418094AE050E016
:101BE0006C2F86E993E00E942C1A64E671E086E986
:101BF00093E0CF910F91EF900C944A196AE671E04F
:101C000086E993E00E944A1900913C01000F60911F
:101C10006503709166038091670390916803A8E162
:101C2000EA2E20E040E00E941809CF910F91EF903A
:101C30000895CF93DF9380E00E945D0B811109C06E
:101C400064E670E080E090E00E946515CAE5D0E0AF
:101C500020C0C8ECD0E060E0809110010E94A61680
:101C600061E080910E010E94A61663E070E080E0C2
:101C700090E00E94651560E080910E010E94A6161A
:101C800063E070E080E090E00E946515219719F70D
:101C9000D7CF80E00E945D0B811120C061E0809170
:101CA00010010E94A61661E080910E010E94A61606
:101CB00063E070E080E090E00E94651560E0809154
:101CC0000E010E94A61663E070E080E090E00E94A2
:101CD0006515D093E602C093E502DBCF64EF71E0B7
:101CE00080E090E00E9465158091E5029091E60207
:101CF000892B29F161E0809110010E94A61661E014
:101D000080910E010E94A6166AE070E080E090E0EB
:101D10000E94651560E080910E010E94A6166AE09F
:101D200070E080E090E00E9465158091E50290915E
:101D3000E60201979093E6028093E502D5CF64E92D
:101D400071E086E993E0DF91CF910C944A19EF920C
:101D50000F931F93CF93DF9326E040E052EC61E0B6
:101D600070E086E993E00E94E81740E855E260E001
:101D700070E084EF92E00E9467076AEA71E086E90A
:101D800093E00E943D1940913601509137016091D6
:101D90003801709139012AE030E086E993E00E9431
:101DA000331A61E0809123010E946D1661E08091F9
:101DB00023010E94A61664EB71E086E993E00E947D
:101DC0004A19C4E2D1E010E08881833609F453C097
:101DD00062E00E946D1664EC71E086E993E00E9477
:101DE0003D194AE050E0688186E993E00E942C1A90
:101DF0006DE672E086E993E00E943D19812F0E9412
:101E00005D0B682F70E04AE050E086E993E00E94A5
:101E1000FF19812F0E945D0B811112C06091710327
:101E200070917203809173039091740328E0E22E05
:101E300000E020E040E00E94180964E671E011C073
:101E400060916503709166038091670390916803C8
:101E500008E0E02E00E020E040E00E94180969EC74
:101E600071E086E993E00E944A196AEF70E080E031
:101E700090E00E94651521961F5F163009F0A4CFEF
:101E800064ED71E086E993E00E944A1963EE71E027
:101E900084EF92E00E944A196AEE71E086E993E0CD
:101EA0000E944A1961E0809110010E946D1661E064
:101EB00080910E010E946D1661E0809122010E94C6
:101EC0006D1661E0809122010E94A61668EE73E013
:101ED00080E090E00E94651560E0809122010E9400
:101EE000A61668EE73E080E090E00E94651561E060
:101EF000809122010E94A61668EE73E080E090E0D7
:101F00000E94651560E0809122010E94A61660E0A3
:101F100072E086E993E00E944A190E94190E65E179
:101F200072E086E993E0DF91CF911F910F91EF90DE
:101F30000C944A19AF92BF92CF92DF92EF92FF9228
:101F40000F931F9380911A01813069F580911B01D5
:101F5000882309F428C260916D0370916E0380910B
:101F60006F0390917003E0903D0100E021E040E0BC
:101F70000E9418096091610370916203809163036C
:101F800090916403E0903D0121E040E00E94180937
:101F900010921B0110923503109230011092310102
:101FA0001092F10200C2823051F41F910F91FF9004
:101FB000EF90DF90CF90BF90AF900C94190E8330CC
:101FC00081F480911B01882309F4EDC110921B015B
:101FD0001092F102109235031092300110923101EB
:101FE000E2C19CEF980F933008F4DDC18730C9F54A
:101FF00080911B01882309F4D6C16091610370911F
:102000006203809163039091640300913D0120E09D
:1020100040E00E948B0910921B0180913601909143
:102020003701A0913801B091390183309105A105A4
:10203000B10529F00897A105B10509F0B4C160E028
:10204000809121010E94A61660E0809120011F91DD
:102050000F91FF90EF90DF90CF90BF90AF900C94D6
:10206000A616883009F07DC180911B01882381F17B
:102070006EE272E086E993E00E944A1961E0809185
:1020800022010E94A61664EF71E080E090E00E94B9
:10209000651560E0809122010E94A61664EF71E050
:1020A00080E090E00E94651561E0809122010E942D
:1020B000A61664EF71E080E090E00E94651560E094
:1020C000809122010E94A61610921B011092F1022B
:1020D0008091F102811167C180910C010E94C815A5
:1020E0009093DE028093DD0280910A010E94C81560
:1020F0008C019093DC028093DB02825C91408536F8
:10210000910520F40091DD021091DE02073282E099
:1021100018070CF463C061E0809110010E94A616BC
:10212000013283E0180714F008EE13E0A0901201CA
:10213000B0901301CC24B7FCC094DC2CB8018827E4
:1021400077FD8095982F40911401509115018A01D7
:10215000222717FD2095322F3F932F931F930F9324
:1021600018EEE12E13E0F12E00E010E026E232E05E
:1021700040E050E00E94451A6B017C0161E08091D3
:102180000E010E94A616EE24D7FCE094FE2CC70197
:10219000B6010E94651560E080910E010E94A616AE
:1021A000C701B6010E9465158091E5029091E60293
:1021B00001969093E6028093E5020F900F900F90A6
:1021C0000F902091180130911901281739070CF050
:1021D00067C01092E6021092E50262C0023C81E004
:1021E00018070CF05DC060E0809110010E94A616F7
:1021F000083C110514F400E010E0A0901201B0902A
:102200001301CC24B7FCC094DC2CB801882777FDDF
:102210008095982F40911401509115018A01222731
:1022200017FD2095322F3F932F931F930F93E12C8F
:10223000F12C870122EC31E040E050E00E94451A89
:102240006B017C0161E080910E010E94A616EE24D4
:10225000D7FCE094FE2CC701B6010E94651560E032
:1022600080910E010E94A616C701B6010E94651555
:102270008091E5029091E60201979093E6028093A7
:10228000E5020F900F900F900F9097FF09C080917B
:1022900018019091190101979093E6028093E5024D
:1022A0002091E1023091E202E0901601F0901701D6
:1022B000A9014E0D5F1DF901EE19FF09609118018A
:1022C000709119018091E5029091E60264177507FB
:1022D00094F4461B570B841795074CF40027F7FC22
:1022E0000095102F680F791F621B730B14C0E8173D
:1022F000F90724F409C0E817F9071CF060E070E062
:1023000024C084179507D4F70027F7FC0095102FF9
:10231000B901681B790B77FF03C07195619571094D
:10232000882777FD8095982F1F921F921F921F92EA
:10233000A12CB12C6501AA9420E030E0A9010E94F3
:10234000451A0F900F900F900F90809122011F91CE
:102350000F91FF90EF90DF90CF90BF90AF900C94D3
:10236000E5150E94560D80911B018823E1F0109223
:10237000EB021092EA021092ED021092EC026091D0
:1023800061037091620380916303909164030091F3
:102390003D0120E040E00E948B091092F3020E9470
:1023A000940B10921B011F910F91FF90EF90DF9003
:1023B000CF90BF90AF900895CF93DF93EC010E9430
:1023C000190EC130D10519F486E295E033C0C23050
:1023D000D10519F48AEA95E02DC0C330D10529F45E
:1023E0001092E2021092E10229C0C430D10519F422
:1023F00086E990E01FC0C530D10519F48AE191E06B
:1024000019C0C630D10519F486E092E013C0C73078
:10241000D10519F48AE892E00DC0C830D10519F44D
:1024200080E293E007C0299719F486EB93E002C09D
:102430008AE394E09093E2028093E10269E372E020
:1024400086E993E00E943D196091E1027091E202F9
:102450004AE050E086E993E00E94071AC091E10249
:10246000D091E202C03283E0D8071CF0C052D340C2
:1024700002C0C05EDC4F69E472E086E993E00E942E
:102480003D194AE050E0BE0186E993E00E94071A38
:102490008091E5029091E6028C179D0781F160E042
:1024A000809110010E94A61661E080910E010E94A9
:1024B000A61662E070E080E090E00E94651560E0A2
:1024C00080910E010E94A61662E070E080E090E02C
:1024D0000E9465158091E5029091E6020197909324
:1024E000E6028093E50297FFD3CF80911801909187
:1024F000190101979093E6028093E502C9CF80917C
:10250000E1029091E202DF91CF910895EF920F9353
:10251000CF93DF938091400381110BC00E94A40DE3
:10252000AB01BC0181E0DF91CF910F91EF900C9452
:10253000A70B813031F4DF91CF910F91EF900C9484
:10254000ED0A823051F48091410380931A0191E0A9
:1025500090931B0180932D01E9C0833001F5809198
:102560004103811102C060E003C0813071F461E079
:10257000809121010E94A61660E080912001DF91E8
:10258000CF910F91EF900C94A616823009F0CEC037
:1025900061E0809121010E94A61661E0EECF8430B7
:1025A00009F4C4C0853061F50E94A40DAB01BC01E3
:1025B0002AE030E086E993E00E941F1A60E571E0AE
:1025C00086E993E00E943D19C0E4D3E083E0C8347B
:1025D000D80771F069914AE050E086E993E00E94E3
:1025E0002C1A60E571E086E993E00E943D19EECF78
:1025F00086E993E0DF91CF910F91EF900C9446190B
:102600008630C1F4909141039093F002809142038F
:102610008093EF02209143032093EE02963011F451
:102620000E94CC0D8091F002893009F085E0809302
:102630002A017CC0873009F079C080914103813044
:1026400009F072C08093F302809142038093F202FA
:102650008130A9F400913C01000F609165037091F5
:1026600066038091670390916803E0E2EE2E21E01B
:1026700040E00E94180981E08093E90257C082304F
:10268000A1F4609175037091760380917703909126
:10269000780350E1E52E00913C0121E040E00E94EA
:1026A000180981E08093E80241C0833031F4DF9162
:1026B000CF910F91EF900C94190E843049F48091D2
:1026C000430390E0DF91CF910F91EF900C94DC11D8
:1026D000893061F18091E902882389F01092E90242
:1026E00020913C01220F60916D0370916E038091E7
:1026F0006F039091700300E240E00E948B0980918B
:10270000E802882399F01092E80260916D037091BD
:102710006E0380916F039091700300E120913C0162
:1027200040E00E948B0902C01092F302DF91CF912A
:102730000F91EF90089560913D0170E023E040918A
:102740003E0189E793E00E94F30140E060E0809160
:102750003B010E946002609375037093760380933F
:1027600077039093780340E060913B0180E00E9402
:10277000600260937103709372038093730390936C
:10278000740340913B0160E080E00E94600260932E
:102790006D0370936E0380936F0390937003809129
:1027A0003B01482F682F0E94600260936903709379
:1027B0006A0380936B0390936C0380913B0140E02C
:1027C000682F0E9460026093650370936603809394
:1027D00067039093680340E060E080E00E9460023D
:1027E0006093610370936203809363039093640327
:1027F00060913A0180E593E00E94B10420E04091AD
:102800001C0160911E0184EF92E00C94370784EF65
:1028100092E00E94DE0689E793E00C949F00CF933C
:10282000DF9380911303882309F473C0109213037C
:1028300080913C0390913D03A0913E03B0913F03F2
:102840004091360150913701609138017091390102
:1028500084179507A607B707F1F5E8E4F3E0A0E4CD
:10286000B3E081918D9383E0E035F807D1F761E51E
:1028700072E086E993E00E943D1940913C0350913B
:102880003D0360913E0370913F032AE030E086E90A
:1028900093E00E941F1A63E672E086E993E00E94CB
:1028A0003D19C0E4D3E069914AE050E086E993E045
:1028B0000E942C1A61E772E086E993E00E943D19BC
:1028C00083E0C834D80779F786E993E00E94461977
:1028D0000E9486121EC040913201509133016091D6
:1028E00034017091350184179507A607B70789F45D
:1028F000C8E4D3E069914AE050E084EF92E00E949E
:102900002C1A83E0C035D807A9F784EF92E00E9423
:102910004619D4E2C1E086E993E00E940517892BAD
:1029200019F186E993E00E941E17843229F48093FE
:102930001403C0933403EFCFD09314038A3029F4E7
:102940000E942B08C0931303E6CFE0913403AE2F0F
:10295000B0E0AC5EBC4F8C93EF5FE0933403F0E0EB
:10296000EC5EFC4F1082D7CFD4E2C1E084EF92E05E
:102970000E940D06892B19F184EF92E00E947F05D9
:10298000843229F480931403C0933403EFCFD0939F
:1029900014038A3029F40E942B08C0931303E6CF56
:1029A000E0913403AE2FB0E0AC5EBC4F8C93EF5F90
:1029B000E0933403F0E0EC5EFC4F1082D7CF8091BF
:1029C000F002893071F48091EF02853021F4DF91BB
:1029D000CF910C94290C863041F4DF91CF910C9467
:1029E000BE0CDF91CF910C949A0FDF91CF91089597
:1029F0001F920F920FB60F9211242F933F938F9334
:102A00009F93AF93BF9380918E0390918F03A0917A
:102A10009003B091910330918D0323E0230F2D3764
:102A200020F40196A11DB11D05C026E8230F0296D2
:102A3000A11DB11D20938D0380938E0390938F036E
:102A4000A0939003B093910380919203909193038C
:102A5000A0919403B09195030196A11DB11D80939F
:102A6000920390939303A0939403B0939503BF9123
:102A7000AF919F918F913F912F910F900FBE0F902B
:102A80001F9018953FB7F89480919203909193030B
:102A9000A0919403B091950326B5A89B05C02F3F44
:102AA00019F00196A11DB11D3FBF6627782F892F10
:102AB0009A2F620F711D811D911D42E0660F771FD5
:102AC000881F991F4A95D1F70895CF92DF92EF9210
:102AD000FF92CF93DF936B017C010E944215EB01C3
:102AE000C114D104E104F10489F00E948C1A0E94FF
:102AF00042156C1B7D0B683E734090F381E0C81A51
:102B0000D108E108F108C851DC4FEACFDF91CF913D
:102B1000FF90EF90DF90CF900895789484B5826015
:102B200084BD84B5816084BD85B5826085BD85B571
:102B3000816085BDEEE6F0E0808181608083E1E820
:102B4000F0E0108280818260808380818160808358
:102B5000E0E8F0E0808181608083E1EBF0E080815B
:102B600084608083E0EBF0E0808181608083EAE72D
:102B7000F0E08081846080838081826080838081B6
:102B8000816080838081806880831092C100089575
:102B90008E3008F08E50877020913F0190E4299F7D
:102BA00090011124822B80937C0080917A008064B4
:102BB00080937A0080917A0086FDFCCF8091780026
:102BC0002091790090E0922B08951F93CF93DF938B
:102BD000182FEB0161E00E946D16209711F460E060
:102BE00004C0CF3FD10539F461E0812FDF91CF914F
:102BF0001F910C94A616E12FF0E0E657FF4FE491E9
:102C0000E330F9F048F4E130B9F0E230A1F584B5F1
:102C1000806284BDC8BD34C0E730E9F0E83019F106
:102C2000E43049F580918000806280938000D093E9
:102C30008B00C0938A0024C084B5806884BDC7BD62
:102C40001FC080918000806880938000D0938900AD
:102C5000C093880015C08091B00080688093B00058
:102C6000C093B3000DC08091B00080628093B0002B
:102C7000C093B40005C0C038D1050CF0B5CFAFCFBC
:102C8000DF91CF911F910895833081F028F4813036
:102C900099F08230A1F008958730A9F08830B9F01A
:102CA0008430D1F4809180008F7D03C080918000BA
:102CB0008F7780938000089584B58F7702C084B5A4
:102CC0008F7D84BD08958091B0008F7703C080917F
:102CD000B0008F7D8093B0000895CF93DF9390E094
:102CE000FC01E256FF4F2491FC01EE54FF4F84910A
:102CF000882349F190E0880F991FFC01E652FF4FAD
:102D0000A591B49180539F4FFC01C591D4919FB779
:102D1000611108C0F8948C91209582238C9388814E
:102D200082230AC0623051F4F8948C91322F30958E
:102D300083238C938881822B888304C0F8948C91A0
:102D4000822B8C939FBFDF91CF9108950F931F9398
:102D5000CF93DF931F92CDB7DEB7282F30E0F90174
:102D6000E657FF4F8491F901E256FF4F1491F901A4
:102D7000EE54FF4F04910023C9F0882321F06983AA
:102D80000E9444166981E02FF0E0EE0FFF1FE05330
:102D9000FF4FA591B4919FB7F8948C91611103C036
:102DA0001095812301C0812B8C939FBF0F90DF91E1
:102DB000CF911F910F910895CF93DF93282F30E08B
:102DC000F901E657FF4F8491F901E256FF4FD49184
:102DD000F901EE54FF4FC491CC2391F081110E9470
:102DE0004416EC2FF0E0EE0FFF1FEA53FF4FA591C2
:102DF000B4912C912D2381E090E021F480E002C079
:102E000080E090E0DF91CF910895FC01818D228DCB
:102E100090E0805C9F4F821B91098F7399270895E2
:102E2000FC01918D828D981731F0828DE80FF11D94
:102E3000858D90E008958FEF9FEF0895FC01918DAF
:102E4000828D981761F0828DDF01A80FB11D5D960C
:102E50008C91928D9F5F9F73928F90E008958FEF7A
:102E60009FEF089582EA98E1892B49F080E090E095
:102E7000892B29F00E94A21881110C94000008955A
:102E8000FC01848DDF01A80FB11DA35ABF4F2C9107
:102E9000848D90E001968F739927848FA689B789D6
:102EA0002C93A089B1898C9180648C93938D848DAF
:102EB000981306C00288F389E02D80818F7D80837E
:102EC0000895CF93DF93EC01888D8823C9F0EA89B8
:102ED000FB89808185FD05C0A889B9898C9186FD13
:102EE0000FC00FB607FCF5CF808185FFF2CFA88910
:102EF000B9898C9185FFEDCFCE010E944017E7CFB5
:102F0000DF91CF910895CF92DF92FF920F931F939D
:102F1000CF93DF931F92CDB7DEB76C0181E0D6016E
:102F200058968C9358975B969C915B975C968C9186
:102F30005C97981307C05096ED91FC915197808152
:102F400085FD2EC0F601038D10E00F5F1F4F0F733C
:102F50001127F02EF601848DF81211C00FB607FC70
:102F6000F9CFD6015096ED91FC915197808185FF64
:102F7000F1CFC60169830E9440176981EBCF838D31
:102F8000E80FF11DE35AFF4F6083D6015B960C9367
:102F90005B975296ED91FC915397808180620CC0B3
:102FA000D6015696ED91FC91579760835096ED911E
:102FB000FC91519780818064808381E090E00F9044
:102FC000DF91CF911F910F91FF90DF90CF900895E7
:102FD000BF92CF92DF92EF92FF92CF93DF93EC01FB
:102FE0006A017B01B22EE889F98982E0808341156C
:102FF00081EE580761057105A1F060E079E08DE38D
:1030000090E0A70196010E94C51A2150310941099B
:1030100051095695479537952795211580E1380731
:1030200098F0E889F989108260E874E88EE190E010
:10303000A70196010E94C51A215031094109510981
:103040005695479537952795EC85FD853083EE8518
:10305000FF852083188EEC89FD89B082EA89FB897F
:10306000808180618083EA89FB8980818860808398
:10307000EA89FB89808180688083EA89FB89808175
:103080008F7D8083DF91CF91FF90EF90DF90CF9085
:10309000BF9008951F920F920FB60F9211242F9395
:1030A0008F939F93EF93FF93E091A603F091A70373
:1030B0008081E091AC03F091AD0382FD12C090815C
:1030C0008091AF038F5F8F732091B003821751F00F
:1030D000E091AF03F0E0EA56FC4F958F8093AF0389
:1030E00001C08081FF91EF919F918F912F910F905F
:1030F0000FBE0F901F9018951F920F920FB60F9250
:1031000011242F933F934F935F936F937F938F93EC
:103110009F93AF93BF93EF93FF9386E993E00E9451
:103120004017FF91EF91BF91AF919F918F917F9148
:103130006F915F914F913F912F910F900FBE0F9024
:103140001F90189586E993E00E94051721E0892BCE
:1031500009F420E0822F08951092990310929803A9
:1031600088EE93E0A0E0B0E080939A0390939B03F5
:10317000A0939C03B0939D0387E792E090939703FD
:103180008093960385EC90E09093A3038093A20331
:1031900084EC90E09093A5038093A40380EC90E0EE
:1031A0009093A7038093A60381EC90E09093A903EA
:1031B0008093A80382EC90E09093AB038093AA03E2
:1031C00086EC90E09093AD038093AC031092AF0334
:1031D0001092B0031092B1031092B20308950895B3
:1031E0000E948D150E94EF180E94A70EC2E3D7E13E
:1031F0000E940F142097E1F30E943217F9CFCF926B
:10320000DF92EF92FF920F931F93CF93DF937C0196
:103210006A01EB0100E010E00C151D0571F06991E9
:10322000D701ED91FC910190F081E02DC701099546
:10323000892B19F00F5F1F4FEFCFC801DF91CF919E
:103240001F910F91FF90EF90DF90CF90089561153F
:10325000710581F0DB010D900020E9F7AD014150CF
:103260005109461B570BDC01ED91FC910280F38163
:10327000E02D099480E090E008950C942719DC017A
:10328000ED91FC910190F081E02D099463E872E0EA
:103290000C9427190F931F93CF93DF93EC010E9497
:1032A00027198C01CE010E944619800F911FDF91D2
:1032B000CF911F910F9108958F929F92AF92BF92DD
:1032C000CF92DF92EF92FF920F931F93CF93DF93F2
:1032D000CDB7DEB7A1970FB6F894DEBF0FBECDBF56
:1032E0007C01C42EE52FCB01D22E19A221E02D1591
:1032F00010F02AE0D22E8E010F5D1F4F8D2C912CE5
:10330000A12CB12C6C2D7E2FA50194010E94C51A11
:103310008C2DD29E80191124015011098A3014F489
:10332000805D01C0895CF80180832115310541056C
:10333000510521F0C22EE32FCA01E4CFB801C70125
:103340000E942719A1960FB6F894DEBF0FBECDBF1D
:10335000DF91CF911F910F91FF90EF90DF90CF9071
:10336000BF90AF909F908F900895CF92DF92EF9291
:10337000FF920F931F93CF93DF93EC016A017B01C0
:103380002115310579F4E881F9810190F081E02D72
:10339000642FDF91CF911F910F91FF90EF90DF90FD
:1033A000CF9009942A303105E9F477FF1AC06DE215
:1033B0000E943F198C0144275527BA014C195D0919
:1033C0006E097F092AE0CE010E945C19800F911FCF
:1033D000DF91CF911F910F91FF90EF90DF90CF90F1
:1033E00008952AE0B701A601CE01DF91CF911F9188
:1033F0000F91FF90EF90DF90CF900C945C199A01A1
:10340000AB01662757FD6095762F0C94B5190F9385
:103410001F93CF93DF93EC019A01AB01662757FD11
:103420006095762F0E94B5198C01CE010E94461935
:10343000800F911FDF91CF911F910F91089521155A
:10344000310541F4DC01ED91FC910190F081E02D1A
:10345000642F09940C945C199A01462F50E060E0A7
:1034600070E00C941F1A0F931F93CF93DF93EC011E
:103470000E941F1A8C01CE010E944619800F911FD5
:10348000DF91CF911F910F9108954F925F926F92AC
:103490007F92AF92BF92CF92DF92EF92FF920F9303
:1034A0001F93CF93DF93CDB7DEB729013A01621B9B
:1034B000730B840B950B29893A894B895C892A19EE
:1034C0003B094C095D09298B3A8B4B8B5C8B9B012B
:1034D000AC0169897A898B899C890E948D1AE418CC
:1034E000F50806091709A80197010E94E71A2A0D95
:1034F0003B1D4C1D5D1DCA01B901DF91CF911F918C
:103500000F91FF90EF90DF90CF90BF90AF907F90A2
:103510006F905F904F9008950895DB018F939F9374
:103520000E940C1BBF91AF91A29F800D911DA39F84
:10353000900DB29F900D11240895AA1BBB1B51E161
:1035400007C0AA1FBB1FA617B70710F0A61BB70B13
:10355000881F991F5A95A9F780959095BC01CD01B8
:10356000089597FB072E16F4009407D077FD09D035
:103570000E949D1A07FC05D03EF4909581959F4FBF
:103580000895709561957F4F0895A1E21A2EAA1BA8
:10359000BB1BFD010DC0AA1FBB1FEE1FFF1FA21703
:1035A000B307E407F50720F0A21BB30BE40BF50B00
:1035B000661F771F881F991F1A9469F76095709589
:1035C000809590959B01AC01BD01CF010895052E1A
:1035D00097FB1EF400940E94FE1A57FD07D00E942C
:1035E000C51A07FC03D04EF40C94FE1A5095409572
:1035F000309521953F4F4F4F5F4F0895909580959F
:10360000709561957F4F8F4F9F4F0895EE0FFF1F6D
:103610000590F491E02D09940E94171BA59F900D31
:10362000B49F900DA49F800D911D11240895A29F19
:10363000B001B39FC001A39F700D811D1124911D86
:10364000B29F700D811D1124911D0895CF93DF93BA
:103650008230910510F482E090E0E0913504F09121
:10366000360420E030E0A0E0B0E0309739F140814E
:10367000518148175907B8F04817590771F48281EA
:103680009381109729F013969C938E9312972CC0D8
:10369000909336048093350427C02115310531F00D
:1036A0004217530718F0A901DB0101C0EF019A018D
:1036B000BD01DF010280F381E02DD7CF2115310557
:1036C000F9F0281B390B2430310580F48A819B8165
:1036D0006115710521F0FB019383828304C09093EF
:1036E000360480933504FE01329644C0FE01E20F99
:1036F000F31F8193919322503109398328833AC073
:103700002091330430913404232B41F420910201A1
:10371000309103013093340420933304209100014D
:10372000309101012115310541F42DB73EB740918B
:10373000040150910501241B350BE0913304F091F5
:103740003404E217F307A0F42E1B3F0B28173907A8
:1037500078F0AC014E5F5F4F2417350748F04E0FED
:103760005F1F50933404409333048193919302C0BC
:10377000E0E0F0E0CF01DF91CF910895CF93DF93A8
:10378000009709F487C0FC01329713821282C0911E
:103790003504D0913604209781F420813181280F9F
:1037A000391F80913304909134048217930779F57F
:1037B000F0933404E09333046DC0DE0120E030E088
:1037C000AE17BF0750F412964D915C9113979D016F
:1037D0004115510509F1DA01F3CFB383A28340818A
:1037E0005181840F951F8A179B0771F48D919C91CD
:1037F0001197840F951F02969183808312968D9165
:103800009C911397938382832115310529F4F093BA
:103810003604E09335043EC0D9011396FC93EE9331
:1038200012974D915D91A40FB51FEA17FB0779F42C
:1038300080819181840F951F0296D90111969C93E6
:103840008E938281938113969C938E931297E0E0DE
:10385000F0E08A819B81009719F0FE01EC01F9CF1D
:10386000CE01029628813981820F931F2091330463
:10387000309134042817390769F4309729F41092ED
:1038800036041092350402C013821282D09334049D
:10389000C0933304DF91CF910895FC0188279927C5
:1038A000E89421912032E9F3293010F02E30C8F34A
:1038B0002B3241F02D3239F4689404C00E949E1CD2
:1038C000820F911D219120532A30C0F31EF4909550
:1038D00081959F4F089544E952E00E94771C089516
:1038E000DC0101C06D9341505040E0F70895FA01AA
:1038F000A191B081009719F41097E1F0CD01DC019E
:10390000CD010D90002011F4C00113C0FB012191E5
:10391000222319F02015D9F7F3CFFB0121912015AF
:1039200019F41E92119606C02223C1F70D900020B3
:10393000A1F7D001FA01A193B08308957AE0979F8F
:10394000902D879F802D910D1124089510E0C8EED1
:10395000D0E004C0FE010E94081B2296CA3ED10797
:06396000C9F7F894FFCF47
:10396600000037048000010000000E0010000A006D
:103976000B00320002002C00400608010200030082
:103986000605090D08636363636305000000000014
:1039960000001F000000150000000419082008019F
:1039A60000000000A005FF180D067F05F305F205CF
:1039B6002C0043414E2D4255532053746172747549
:1039C600703A2000202D204F4B004E6F7420476F19
:1039D6006F642C20636865636B20796F7572207045
:1039E600696E2320616E6420636F6E6E6563746911
:1039F6006F6E73002D2D2D2D2D50616E656C204838
:103A06006F6D65642D2D2D2D2D004E6F646520493B
:103A1600443A20002D2D2D2D2D496E707574732D71
:103A26002D2D2D0050696E2300202D205052455318
:103A3600534544002D2D2D2D2D584265652D2D2DD8
:103A46002D2D0033312C302C30002D2D2D2D2D53C6
:103A56006F6C61722050616E656C2D2D2D2D2D00C1
:103A66002D2D2D2D2D486F6D652050616E656C2DA9
:103A76002D2D2D2D002D2D2D2D2D5365747570207A
:103A8600436F6D706C6574652D2D2D2D2D0044458D
:103A9600425547204D4F44450053756E204C6F6389
:103AA6006174696F6E203D200048616C66203D2080
:103AB6000044657374696E6174696F6E204E6F643D
:103AC600652300203A204D657373616765203D20AC
:103AD600007C00000000008317FF1805171E171052
:103AE6001761170D0A006E616E00696E66006F76CB
:043AF60066002E0038
:00000001FF
