:100000000C9475000C949D000C949D000C94640657
:100010000C9464060C9464060C949D000C949D0052
:100020000C949D000C949D000C949D000C949D00DC
:100030000C949D000C949D000C949D000C949D00CC
:100040000C942E150C949D000C9480180C94B218EE
:100050000C949D000C949D000C949D000C949D00AC
:100060000C949D000C949D0089038D03530356034B
:1000700059035D036103640368036B036E0371033B
:10008000740378037C0380038303000000080002EC
:10009000010000030407000000000000000001024E
:1000A0000408102040800102040810200102040806
:1000B00010200404040404040404020202020202E4
:1000C00003030303030300000000230026002900AC
:1000D00000000000250028002B0000000000240084
:1000E00027002A00CB13E218371411241FBECFEFCC
:1000F000D8E0DEBFCDBF12E0A0E0B1E0E2EDF9E371
:1001000002C005900D92AE39B107D9F724E0AEE9EF
:10011000B2E001C01D92A133B207E1F710E0C8EED2
:10012000D0E004C02297FE010E943E1BC43ED107CE
:10013000C9F70E9426190C94DC1C0C940000CF9384
:10014000DF93EC0188859985009711F00E94F41BDC
:100150008D8187FD05C060E0DF91CF910C94A316DF
:10016000DF91CF910895EF92FF920F931F93CF935A
:10017000DF93EC017B0188859985009711F00E943F
:10018000F41B8701000F111F0E0D1F1D1C830B8315
:10019000C8010E945C1B99878887009741F0A801DD
:1001A00060E070E00E94A61CFA82E98204C01C8212
:1001B0001B821A821982DF91CF911F910F91FF90BC
:1001C000EF900895FC01668360FF04C081E08287A0
:1001D000138611C062FF06C081E0828782E08387B8
:1001E00014860895128663FF04C082E0838781E04D
:1001F00003C081E0838782E084870895CF92DF92F5
:10020000EF92FF920F931F93CF93DF93CDB7DEB79B
:1002100029970FB6F894DEBF0FBECDBF8C01DC016D
:1002200018968D919C911997892B09F49BC00E9477
:100230007815F801C584D684E784F0886C197D09A7
:100240008E099F09623371058105910580F3F89449
:10025000838194819A838983A085B1857D01EFEFA5
:10026000EE1AFE0A8C918987D80116969C911697F2
:1002700051960D90BC91A02DF801838991FF2EC05D
:100280009C91982B98879C91809589238F838F814F
:100290008E8388E08D8358856F8149853D812E81CD
:1002A00089819A81F7015C9347FD252F3A952C931C
:1002B000262F39F0441F00C000006C93000000C0DE
:1002C000F2CF38E041916C930000019761F7F8019B
:1002D000B28BA18B49873D832E8338C09C91982B8C
:1002E00098879C91809589238F838F818C8388E068
:1002F0008B8358856F8149853B812C8189819A81C7
:10030000F7015C9347FD252F00C000C02C9300C06F
:1003100000C000C000C000C06C930000262F3A95BA
:1003200041F0441F000000C000C000C000C000C079
:10033000E8CF38E0419100C06C9300C0019709F705
:10034000F801B28BA18B49873B832C839A838983E5
:1003500078940E947815D8011D966D937D938D93A6
:100360009C93509729960FB6F894DEBF0FBECDBF71
:10037000DF91CF911F910F91FF90EF90DF90CF9081
:1003800008951F93CF93DF93EC01162F8881882364
:1003900031F08D8187FD03C060E00E94A3161D83AC
:1003A0008881882341F061E0812F0E94A31660E0DC
:1003B000812F0E94DC16812F90E0FC01EE54FF4F4C
:1003C000E491F0E0EE0FFF1FE053FF4F25913491D1
:1003D0003A8B298BFC01E256FF4F84918B8BDF9186
:1003E000CF911F9108950F931F93CF93DF9300D068
:1003F000CDB7DEB78C01FC01108217821186108602
:10040000158616861786108A2A8349830E94B300B0
:100410004981642FC8010E94C1012A81622FC8014D
:100420000F900F90DF91CF911F910F910C94E200EC
:10043000CF92DF92EF92FF920F931F93CF93DF93B0
:10044000FC01818192816817790788F5CA01AA2782
:10045000BB27082FC32ED42EE52EFF241C2DD22F10
:10046000C781CC2361F08C9FC0011124092FCC9E41
:10047000600111241D2D2C9F90011124D32F9B016D
:10048000220F331F260F371F80859185820F931F00
:100490002285DC01A20FB11D0C932385DC01A20F84
:1004A000B11D1C932485FC01E20FF11DD083DF9167
:1004B000CF911F910F91FF90EF90DF90CF90089513
:1004C000962F50E060E070E0592B682BCB01BA0109
:1004D00008958EBD00000DB407FEFDCF8EB50895C2
:1004E000CF93DF93EC0160E088890E94DC1680ECFA
:1004F0000E94690261E088890E94DC166AE070E06F
:1005000080E090E0DF91CF910C949B151F93CF93E7
:10051000DF93EC01162F60E088890E94DC1683E0EF
:100520000E946902812F0E94690280E00E94690294
:10053000182F61E088890E94DC16812FDF91CF910E
:100540001F910895EF92FF921F93CF93DF931F9215
:10055000CDB7DEB77C01162F60E0FC0180894983AE
:100560000E94DC1682E00E946902812F0E946902CB
:100570004981842F0E94690261E0F70180890F9010
:10058000DF91CF911F91FF90EF900C94DC16CF92EA
:10059000DF92EF92FF920F931F93CF93DF9300D0E0
:1005A000CDB7DEB78C01E62EF22E60E0FC0180892B
:1005B00049835A830E94DC1682E00E9469028E2DD4
:1005C0000E9469024981E42EC42E5A81D52E8C2DB9
:1005D0008E198F1530F4F60181916F010E94690226
:1005E000F6CF61E0F80180890F900F90DF91CF91F5
:1005F0001F910F91FF90EF90DF90CF900C94DC163D
:10060000EF92FF921F93CF93DF9300D0CDB7DEB769
:100610007C01162F60E0FC0180892A8349830E94B7
:10062000DC1685E00E946902812F0E9469024981DF
:10063000842F0E9469022A81822F0E94690261E050
:10064000F70180890F900F90DF91CF911F91FF905C
:10065000EF900C94DC161F93CF93DF93EC01162FD1
:10066000262F40EE6FE00E9400036FE0CE010E9453
:100670008602982F907E81E0911301C080E0DF9187
:10068000CF911F9108950F931F93CF93DF93EC01A8
:10069000462F50E0FA013197E131F105C0F5EC5CED
:1006A000FF4F0C943C1B17E80FEF05C017E00AEB57
:1006B00002C015E801EF4FE033C017E00EEB49E050
:1006C0002FC017E80FEF02C017E80AEF47E028C075
:1006D00017E80FEF0BC017E00EEB08C017E00DEAAC
:1006E00005C017E80AEF02C016E800EF43E018C0A3
:1006F00017E80AEF41E014C015E801EF41E410C02B
:1007000016E800EF02C012E800ED40E009C081E009
:1007100016C017E80FEF4FE303C017E80FEF4FE1E4
:100720006AE2CE010E94A202402F69E2CE010E943D
:10073000A202412F68E2CE010E94A20280E0DF9176
:10074000CF911F910F9108951F93CF93DF93EC01E9
:1007500010E340E0612FCE010E94A20260E1610F30
:1007600040E0CE010E94A20260E2610F40E0CE01B3
:100770000E94A2021F5F1E3361F740E060E6CE01D7
:100780000E94A20240E060E7CE01DF91CF911F916D
:100790000C94A2020F931F93CF93DF93EC01062FCB
:1007A0000E94700260E8CE010E942B03182F6AE0BD
:1007B00070E080E090E011110CC00E949B15602F4A
:1007C000CE010E944303882339F06AE070E080E0A4
:1007D00090E00E949B1528C06AE070E080E090E005
:1007E0000E949B15CE010E94A40343E06BE2CE0160
:1007F0000E94A20224E044E660E6CE010E940003CB
:1008000020E040E660E7CE010E94000360E0CE01F8
:100810000E942B03C82F8823C1F26AE070E080E0B9
:1008200090E00E949B151C2F812FDF91CF911F918B
:100830000F9108950F931F93CF93DF9300D000D0B3
:10084000CDB7DEB74130B1F40C831B838901222779
:100850003327502F5C71402F437078E0579F400D35
:10086000112448604A8355E0169507955A95E1F79B
:1008700009830DC0A80123E0569547952A95E1F715
:1008800049830295000F007E0A831C821B8224E0AC
:10089000AE014F5F5F4F0E94C7020F900F900F9005
:1008A0000F90DF91CF911F910F910895FF920F93B9
:1008B0001F93CF93DF93EC01F62EAC014A5F5F4F9D
:1008C00065E06F0D2D810E94C7028E85813019F47D
:1008D0008D8180648D8364E06F0D4D81CE010E9417
:1008E000A20209811A812B813C8148816F2DCE01A2
:1008F0000E941A04DF91CF911F910F91FF900895EC
:10090000615028E048E00C940003FF920F931F937E
:10091000CF93DF9300D01F92CDB7DEB78B0120E3DA
:10092000298320E42A8320E52B83FB011082FE012A
:10093000E40FF11DF1806F2D0E948602982F9870B0
:1009400083FD04C0F394F801F08201C092E0892F86
:100950000F900F900F90DF91CF911F910F91FF900B
:100960000895CF93DF93EC01862F688B61E00E949E
:10097000A31661E08889DF91CF910C94DC16CF93A8
:10098000DF9300D01F92CDB7DEB76B8389839A8344
:100990000E94F5076B8189819A810E94CA0391E0C8
:1009A000811101C090E0892F0F900F900F90DF917F
:1009B000CF910895CF92DF92EF920F931F93CF9331
:1009C000DF93FC0120834183528363837483093066
:1009D00008F008E00583E686D60180E090E010E0AC
:1009E000801791073CF42D91EF01C80FD91F2E837A
:1009F0000196F6CF80E0DF91CF911F910F91EF909C
:100A0000DF90CF900895CF92DF92EF92FF920F93F5
:100A10006701E12C0E94DA040F91FF90EF90DF90C4
:100A2000CF900895DF92EF92FF920F931F93CF9391
:100A3000DF931F92CDB7DEB78C01D62EE12CF12CBF
:100A40004D2DBE016F5F7F4FC8010E9485049FEF4F
:100A5000E91AF90A823029F482E3E816F10481F7F1
:100A60002BC092E3E916F10439F16981C8010E94B3
:100A700056046981C8010E948004E12CF12C8FEF9B
:100A8000E81AF80A69816150C8010E948602D82ECE
:100A900061E070E080E090E00E949B15D3FE06C00C
:100AA00092E3E916F10459F787E007C082E3E816FC
:100AB000F104D1F380E001C086E00F90DF91CF9187
:100AC0001F910F91FF90EF90DF900895CF92EF92DA
:100AD000FF920F93CF93DF93EC010E9403056C2DDF
:100AE000CE01DF91CF910F91FF90EF90CF900C94BA
:100AF0001205FC01618172818381948108952091A6
:100B0000E2023091E30228173907B9F49091A0026C
:100B10008091A102981789F0E091A002F0E0EE55D3
:100B2000FD4F80812091A00230E02F5F3F4F2F7357
:100B300033272093A00290E008958FEF9FEF089550
:100B40001F93CF93DF93DC015C968D919C915D9711
:100B5000009749F481E090E013969C938E9312974E
:100B600080E090E03BC05196ED91FC9152975096F9
:100B70002C915097322F30951FB75E964C915E970F
:100B800041FB772770F941FD6095F8944081772308
:100B900011F0422B01C043234083EC012197F1F770
:100BA00048E0508160FF02C0522B01C053235083A4
:100BB000EC012197F1F76695415099F780817723F1
:100BC00011F0832301C0822B80831FBF5C968D911F
:100BD0009C915D970197F1F781E090E0DF91CF91D3
:100BE0001F91089508952091E2023091E3022817A1
:100BF000390781F49091A0028091A102981751F0D9
:100C0000E091A002F0E0EE55FD4F8081992787FD2D
:100C1000909508958FEF9FEF08952091E202309113
:100C2000E3022817390771F48091A1022091A002F4
:100C300090E0805C9F4F821B910960E470E00E940D
:100C4000E71A089580E090E00895E091E202F091C3
:100C5000E302E817F90769F4A389B4899C918589AF
:100C6000809589238C931092E3021092E20281E036
:100C7000089580E00895CF93DF93EC018A8D9B8DDA
:100C8000892BF1F08091E2029091E3028C179D078D
:100C9000B9F0009711F00E9425068E8D8E7F8E8F01
:100CA0001092A1021092A002D093E302C093E2023C
:100CB000EB89FC8980819D89892B808381E001C03B
:100CC00080E0DF91CF9108951F920F920FB60F929F
:100CD00011242F933F934F935F936F937F938F9341
:100CE0009F93AF93BF93EF93FF93E091E202F09154
:100CF000E302309709F451C0868DA685B7859585A6
:100D000081FF04C08C91892329F447C08C918923E9
:100D100009F043C0A389B4899C9185898095892372
:100D20008C93868997890197F1F7208D318DA6855F
:100D3000B785758558E040E0C9010197F1F7842F28
:100D400090E095958795482F6C91672309F040684E
:100D5000515091F7868D81FD40958091A10290E0E0
:100D600001968F7399272091A002281749F0A0912E
:100D7000A102B0E0AE55BD4F4C938093A10203C0D9
:100D8000868D8160868F828D938D0197F1F7A3897F
:100D9000B4898C919589892B8C93FF91EF91BF91A8
:100DA000AF919F918F917F916F915F914F913F9103
:100DB0002F910F900FBE0F901F90189524E431E0F3
:100DC000FC01318320830C9425061F93CF93DF937E
:100DD000EC01162F6E8D6695617081E06827812F7A
:100DE0000E94DC1661E0812F0E94A316812F90E003
:100DF000FC01E256FF4FE491E88BFC01EE54FF4FFB
:100E0000E491F0E0EE0FFF1FE053FF4F85919491C6
:100E10009A8B898BDF91CF911F9108951F93CF9368
:100E2000DF93EC01162F60E0812F0E94A3168E8DB8
:100E300081FD04C061E0812F0E94DC161C87812F98
:100E400090E0FC01E256FF4FE491ED87FC01EE5487
:100E5000FF4FE491F0E0EE0FFF1FEA53FF4F859143
:100E600094919F878E87DF91CF911F910895FF9274
:100E70000F931F93CF93DF93EC01F62E522F1B821B
:100E80001A8208EE13E020E030E00C831D832E83ED
:100E90003F8384E491E0998388831F8A1E8A198E98
:100EA000188E1B8E1A8E1D8E1C8E8E8D8E7F50FB83
:100EB00081F98E8F642FCE010E94E5066F2DCE0141
:100EC000DF91CF911F910F91FF900C940E07CF935C
:100ED000DF93EC019A01AB011B8E1A8E198E188ECE
:100EE0001F8A1E8A60E079E08DE390E00E941D1B5E
:100EF000C9012430310520F0B9016350710902C0E5
:100F000061E070E07D8F6C8FEC85E63108F068C0A1
:100F1000B901769567956431710518F063517109CF
:100F200002C061E070E07F8B6E8B069718F0C901FC
:100F3000059702C081E090E0998F888FC901880FE2
:100F4000991F820F931F96958795969587958D305B
:100F5000910510F00C9702C081E090E09B8F8A8F82
:100F600020916800E83050F091E0EE3008F490E015
:100F700081E001C0880F9A95EAF701C084E0822BD6
:100F8000809368002C85283038F02E3040F02631D0
:100F900048F48CE690E008C08DE690E005C08BE652
:100FA00090E002C080E090E09C8B8B8B283030F486
:100FB00081E001C0880F2A95EAF70DC0822F90E0EA
:100FC0002E3010F4089701C00E9791E001C0990FE0
:100FD0008A95EAF7892F8D8B8C8D9D8D0197F1F77E
:100FE000CE01DF91CF910C943B06CF93CFB7F8940D
:100FF0008091E402811127C0ECEBF0E08491E8EAF3
:10100000F0E09491E82FF0E0EE0FFF1FE652FF4F63
:10101000A591B4918C91892321F461E08AE00E942A
:10102000DC1661E08AE00E94A3168CB580618CBD5D
:101030008CB580648CBD61E08DE00E94A31661E0F8
:101040008BE00E94A3168091E4028F5F8093E402FC
:10105000CFBFCF910895CF93DF9380911E03843249
:1010600009F065C060E571E08EE193E00E94A11C8B
:1010700060E571E080E090E00E94A11C0E94831C6A
:10108000AA2797FDA095BA2F809336039093370334
:10109000A0933803B093390360E571E080E090E0FD
:1010A0000E94A11CC2E4D3E0009751F00E94831C6F
:1010B000888360E571E080E090E00E94A11C01C09F
:1010C0001882219623E0CA34D20771F762E571E0F5
:1010D00080E993E00E9473194091360350913703E1
:1010E00060913803709139032AE030E080E993E0A1
:1010F0000E94551A64E671E080E993E00E9473193A
:10110000C2E4D3E069914AE050E080E993E00E94B4
:10111000621A62E771E080E993E00E94731983E04C
:10112000CA34D80779F780E993E00E947C191092BD
:101130002E03EEE1F3E0119223E0EE32F207D9F74D
:10114000DF91CF910895813049F460916F037091E0
:10115000700380917103909172030895823049F475
:1011600060916B0370916C0380916D0390916E039D
:101170000895833049F460915F037091600380911A
:101180006103909162030895843049F4609167038C
:10119000709168038091690390916A030895853086
:1011A00049F46091630370916403809165039091A9
:1011B0006603089560915B0370915C0380915D0309
:1011C00090915E0308950F931F9300916F03109108
:1011D00070032091710330917203601771078207C9
:1011E0009307D1F100916B0310916C0320916D0373
:1011F00030916E03601771078207930779F10091B0
:101200005F031091600320916103309162036017C6
:1012100071078207930721F100916703109168031A
:101220002091690330916A03601771078207930761
:1012300079F000916303109164032091650330916C
:101240006603601771078207930721F485E009C0E0
:1012500084E007C080E005C081E003C082E001C0F7
:1012600083E01F910F910895882339F08150909168
:101270003C01899F802D1124089580E008958823E2
:1012800021F0880F880F880F089580913D010895FF
:101290005F926F927F928F929F92AF92BF92CF9206
:1012A000DF92EF92FF920F931F93CF93DF931F92E2
:1012B000CDB7DEB74B015C01622E7E2C49830E94C4
:1012C000E30880932B0184E080932C014981411134
:1012D00001C044E1611002C06624639410E0C42E92
:1012E000D12CE12CF12C81E0861510F0502E1BC082
:1012F000502E5714D8F720915B0330915C03409136
:101300005D0350915E03652D70E083E793E00E94DA
:10131000180283E793E00E94FE00C701B6010E9415
:101320009B155394E6CF571490F4652D70E0A501FA
:10133000940183E793E00E94180283E793E00E9400
:10134000FE00C701B6010E949B155394ECCF1F5FAE
:101350001611C9CF0F90DF91CF911F910F91FF9080
:10136000EF90DF90CF90BF90AF909F908F907F9045
:101370006F905F9008959F92AF92BF92CF92DF924D
:10138000EF92FF920F931F93CF93DF936B017C013A
:10139000942EA22E0E94E30880932B0181E080937B
:1013A0002C01911002C08AE0982EB12CC0E0D0E050
:1013B00010E0BE016A0D7B1D6017710740F4A701A4
:1013C000960183E793E00E9418022196F2CF83E70B
:1013D00093E00E94FE00692D70E080E090E0DF91D4
:1013E000CF911F910F91FF90EF90DF90CF90BF9022
:1013F000AF909F900C949B150F9386E080932B01E8
:1014000085E080932C016091630370916403809167
:1014100065039091660300913D0120E044EF0E9436
:10142000BB0964E670E080E090E00E949B1560914B
:101430006F0370917003809171039091720300911A
:101440003D0120E044EF0E94BB0964E670E080E0CB
:1014500090E00E949B1560916B0370916C038091EA
:101460006D0390916E0300913D0120E044EF0E94D6
:10147000BB0964E670E080E090E00E949B156091FB
:101480005F0370916003809161039091620300910A
:101490003D0120E044EF0E94BB0964E670E080E07B
:1014A00090E00E949B1560916703709168038091A2
:1014B000690390916A0300913D0120E044EF0E948E
:1014C000BB0964E670E080E090E00E949B156091AB
:1014D0005B0370915C0380915D0390915E030091CA
:1014E0003D0120E044EF0E94BB090F9108956F92E7
:1014F0007F928F929F92AF92BF92CF92DF92EF92A4
:10150000FF920F931F93CF93DF931F92CDB7DEB758
:101510004B015C01142FF02E29830E94E308809375
:101520002B0183E080932C012981111101C01EE55C
:10153000211101C021E0612C712CC22ED12C6C1420
:101540007D04BCF40E2D2F2D412FC501B4010E9446
:10155000BB0960915B0370915C0380915D03909186
:101560005E032F2D412F0E94BB098FEF681A780A66
:10157000E6CF0F90DF91CF911F910F91FF90EF90E9
:10158000DF90CF90BF90AF909F908F907F906F90A3
:1015900008956F927F928F929F92AF92BF92CF9257
:1015A000DF92EF92FF920F931F93CF93DF931F92DF
:1015B000CDB7DEB74B015C01142FF02E29830E94BA
:1015C000E30880932B0182E080932C012981111183
:1015D00001C01EE5211101C021E0612C712CC22E39
:1015E000D12C0E2D2F2D412FC501B4016C147D047B
:1015F00094F40E94BB0960915B0370915C0380913D
:101600005D0390915E032F2D412F0E94BB098FEF48
:10161000681A780AE6CF0E94BB090F90DF91CF913C
:101620001F910F91FF90EF90DF90CF90BF90AF9000
:101630009F908F907F906F900895CF92DF92EF925E
:10164000FF920F931F93CF93DF9300D000D0CDB7BD
:10165000DEB780913B030E94A308C62E182F00918D
:101660003D01D0903C0320913E0340913F03E09028
:101670003D03EE2089F08E2D29834A837B839C8352
:101680000E943409F82E8E2D0E943F09E82E2981F0
:101690004A817B819C8102C0E02EF12CD11002C0D6
:1016A00020E005C081E0D81207C00E2D2F2D6C2D33
:1016B000812F0E94BB0920C0E2E0DE1206C00F2D80
:1016C0006C2D812F0E94C90A17C0F3E0DF1206C0FB
:1016D0000F2D6C2D812F0E94770A0EC084E0D81246
:1016E00006C00F2D6C2D812F0E94480905C0E5E032
:1016F000DE1202C00E94FC09C0922B01D0922C0184
:101700000F900F900F900F90DF91CF911F910F913D
:10171000FF90EF90DF90CF9008951F93CF93DF93CA
:10172000182FC82FD0E0FE01EC5DFE4F80810E9493
:101730001217FE01E05DFC4F90819817E9F090913F
:101740002E01813061F4808321E030E0012E01C060
:10175000220F0A94EAF7292B20932E0111C0108240
:1017600021E030E0012E01C0220F0A94EAF7209513
:10177000292320932E0103C081E0913009F080E0FD
:10178000DF91CF911F9108951F93CF93DF93C4E210
:10179000D1E010E08991833619F0812F0E948D0BE2
:1017A0001F5F1630B9F7DF91CF911F910895CF9247
:1017B000EF92FF920F931F93CF93DF9300D000D04F
:1017C000CDB7DEB7882351F049835A836B837C837E
:1017D0000E94C40B7C816B815A81498180913601C2
:1017E00090913701A0913801B091390148175907FC
:1017F0006A077B0729F125E0880F991FAA1FBB1FE5
:101800002A95D1F7842B952BA62BB72B32E0C32E2C
:101810004AE2E42E41E0F42E08E020E0AC01BD01F4
:101820008AE493E00E9466050F900F900F900F904E
:10183000DF91CF911F910F91FF90EF90CF9008957E
:101840004091320150913301609134017091350122
:101850002AE030E080E993E00E94551A60E571E0EB
:1018600080E993E00E9473190AE211E0F1E002338B
:101870001F0781F0F80161918F014AE050E080E993
:1018800093E00E94621A60E571E080E993E00E94B3
:101890007319ECCF80E993E00F900F900F900F90A9
:1018A000DF91CF911F910F91FF90EF90CF900C940B
:1018B0007C19EF920F9390911A0180911B01913046
:1018C00029F5882309F487C060916F037091700334
:1018D0008091710390917203E0903D0100E021E05E
:1018E00040E00E9448096091630370916403809115
:1018F000650390916603E0903D0121E040E00E9485
:10190000480910921B011092FB0265C0923019F534
:10191000882309F460C010921B011092FB02809191
:10192000F6029091F70201969093F7028093F602E7
:10193000809331018091F402809330014091320113
:1019400050913301609134017091350180E00F9125
:10195000EF900C94D70B9730E1F48823E1F140919C
:10196000320150913301609134017091350180E072
:101970000E94D70B60915B0370915C0380915D03C3
:1019800090915E0300913D0120E040E00E94BB0980
:1019900020C0882301F11092F5021092F4021092F7
:1019A000F7021092F602109231011092300160910C
:1019B0005B0370915C0380915D0390915E030091E5
:1019C0003D0120E040E00E94BB091092FD020E9410
:1019D000C40B10921B010F91EF900895EF920F939B
:1019E00090911A0180911B01913029F5882309F407
:1019F0008AC060916F037091700380917103909120
:101A00007203E0903D0100E021E040E00E944809BF
:101A100060915F0370916003809161039091620314
:101A2000E0903D0121E040E00E94480910921B0136
:101A30001092FB0268C0923031F5882321F0109299
:101A40001B011092FB028091F6029091F7028F3FEA
:101A500091050CF058C001969093F7028093F6021E
:101A6000809331018091F4028093300140913201E2
:101A700050913301609134017091350180E00F91F4
:101A8000EF900C94D70B9730E1F48823E1F140916B
:101A9000320150913301609134017091350180E041
:101AA0000E94D70B60915B0370915C0380915D0392
:101AB00090915E0300913D0120E040E00E94BB094F
:101AC00020C0882301F11092F5021092F4021092C6
:101AD000F7021092F60210923101109230016091DB
:101AE0005B0370915C0380915D0390915E030091B4
:101AF0003D0120E040E00E94BB091092FD020E94DF
:101B0000C40B10921B010F91EF9008950F938091D9
:101B10001B01882309F446C060915B0370915C034C
:101B200080915D0390915E0300913D0120E040E0D3
:101B30000E94BB091092FD020E94C40B10921B016F
:101B40001092F0021092EF021092EE021092ED024B
:101B50001092EC021092EB021092EA021092E9024B
:101B60001092F2021092F3021092F102809136016B
:101B700090913701A0913801B091390183309105DE
:101B8000A105B10521F00897A105B10559F460E060
:101B9000809121010E94DC1660E0809120010F916C
:101BA0000C94DC160F9108950F931F93009136014A
:101BB000109137012091380130913901809136031D
:101BC00090913703A0913803B091390380179107A2
:101BD000A207B30761F08AE493E00E947905F5E07B
:101BE0009695879577956795FA95D1F702C0BC01D0
:101BF000CD011F910F910895EF920F93CF93C82FAE
:101C000064E771E080E993E00E9473196C2F8AE425
:101C100093E00E94BF04811121C000913C01000F9C
:101C200060916B0370916C0380916D0390916E03D2
:101C3000B8E1EB2E20E040E00E9448094AE050E085
:101C40006C2F80E993E00E94621A66E871E080E9F7
:101C500093E0CF910F91EF900C9480196CE871E0B4
:101C600080E993E00E94801900913C01000F60918F
:101C70005F03709160038091610390916203A8E11A
:101C8000EA2E20E040E00E944809CF910F91EF90AA
:101C90000895CF93DF9380E00E948D0B811109C0DE
:101CA00064E670E080E090E00E949B15CAE5D0E019
:101CB00020C0C8ECD0E060E0809110010E94DC16EA
:101CC00061E080910E010E94DC1663E070E080E02C
:101CD00090E00E949B1560E080910E010E94DC164E
:101CE00063E070E080E090E00E949B15219719F777
:101CF000D7CF80E00E948D0B811120C061E08091E0
:101D000010010E94DC1661E080910E010E94DC1639
:101D100063E070E080E090E00E949B1560E08091BD
:101D20000E010E94DC1663E070E080E090E00E940B
:101D30009B15D093F002C093EF02DBCF64EF71E00C
:101D400080E090E00E949B158091EF029091F0025C
:101D5000892B29F161E0809110010E94DC1661E07D
:101D600080910E010E94DC166AE070E080E090E055
:101D70000E949B1560E080910E010E94DC166AE0D3
:101D800070E080E090E00E949B158091EF029091BE
:101D9000F00201979093F0028093EF02D5CF66EBAB
:101DA00071E080E993E0DF91CF910C948019EF927C
:101DB0000F931F93CF93DF9326E040E052EC61E056
:101DC00070E080E993E00E941E1840E855E260E070
:101DD00070E08EEF92E00E9467076CEC71E080E9A2
:101DE00093E00E9473194091360150913701609140
:101DF0003801709139012AE030E080E993E00E94D7
:101E0000691A61E0809123010E94A31661E080912C
:101E100023010E94DC1666ED71E080E993E00E94E8
:101E20008019C4E2D1E010E08881833609F453C000
:101E300062E00E94A31666EE71E080E993E00E94E2
:101E400073194AE050E0688180E993E00E94621AC9
:101E50006EE671E080E993E00E947319812F0E9481
:101E60008D0B682F70E04AE050E080E993E00E941B
:101E7000351A812F0E948D0B811112C060916B0366
:101E800070916C0380916D0390916E0328E0E22EB7
:101E900000E020E040E00E94480966E871E011C0DF
:101EA00060915F0370916003809161039091620380
:101EB00008E0E02E00E020E040E00E9448096BEEE0
:101EC00071E080E993E00E9480196AEF70E080E0A1
:101ED00090E00E949B1521961F5F163009F0A4CF59
:101EE00066EF71E080E993E00E94801965E072E09E
:101EF0008EEF92E00E9480196CE072E080E993E03E
:101F00000E94801961E0809110010E94A31661E097
:101F100080910E010E94A31661E0809122010E942F
:101F2000A31661E0809122010E94DC1668EE73E046
:101F300080E090E00E949B1560E0809122010E9469
:101F4000DC1668EE73E080E090E00E949B1561E093
:101F5000809122010E94DC1668EE73E080E090E040
:101F60000E949B1560E0809122010E94DC1662E2D3
:101F700072E080E993E00E9480190E94490E67E3B5
:101F800072E080E993E0DF91CF911F910F91EF9084
:101F90000C948019AF92BF92CF92DF92EF92FF9292
:101FA0000F931F9380911A01813069F580911B0175
:101FB000882309F428C260916703709168038091B7
:101FC000690390916A03E0903D0100E021E040E068
:101FD0000E94480960915B0370915C0380915D03EE
:101FE00090915E03E0903D0121E040E00E944809AD
:101FF00010921B0110922F031092300110923101A8
:102000001092FB0200C2823051F41F910F91FF9099
:10201000EF90DF90CF90BF90AF900C94490E83303B
:1020200081F480911B01882309F4EDC110921B01FA
:102030001092FB0210922F03109230011092310186
:10204000E2C19CEF980F933008F4DDC18730C9F5E9
:1020500080911B01882309F4D6C160915B037091C4
:102060005C0380915D0390915E0300913D0120E04F
:1020700040E00E94BB0910921B01809136019091B3
:102080003701A0913801B091390183309105A10544
:10209000B10529F00897A105B10509F0B4C160E0C8
:1020A000809121010E94DC1660E0809120011F9147
:1020B0000F91FF90EF90DF90CF90BF90AF900C9476
:1020C000DC16883009F07DC180911B01882381F1E5
:1020D00060E572E080E993E00E94801961E0809100
:1020E00022010E94DC1664EF71E080E090E00E9423
:1020F0009B1560E0809122010E94DC1664EF71E084
:1021000080E090E00E949B1561E0809122010E9496
:10211000DC1664EF71E080E090E00E949B1560E0C7
:10212000809122010E94DC1610921B011092FB028A
:102130008091FB02811167C180910C010E94FE1504
:102140009093E8028093E70280910A010E94FE15B5
:102150008C019093E6028093E502825C9140853683
:10216000910520F40091E7021091E802073282E025
:1021700018070CF463C061E0809110010E94DC1626
:10218000013283E0180714F008EE13E0A09012016A
:10219000B0901301CC24B7FCC094DC2CB801882784
:1021A00077FD8095982F40911401509115018A0177
:1021B000222717FD2095322F3F932F931F930F93C4
:1021C00018EEE12E13E0F12E00E010E026E232E0FE
:1021D00040E050E00E947B1A6B017C0161E080913D
:1021E0000E010E94DC16EE24D7FCE094FE2CC70101
:1021F000B6010E949B1560E080910E010E94DC16E2
:10220000C701B6010E949B158091EF029091F002E8
:1022100001969093F0028093EF020F900F900F9031
:102220000F902091180130911901281739070CF0EF
:1022300067C01092F0021092EF0262C0023C81E08F
:1022400018070CF05DC060E0809110010E94DC1660
:10225000083C110514F400E010E0A0901201B090C9
:102260001301CC24B7FCC094DC2CB801882777FD7F
:102270008095982F40911401509115018A012227D1
:1022800017FD2095322F3F932F931F930F93E12C2F
:10229000F12C870122EC31E040E050E00E947B1AF3
:1022A0006B017C0161E080910E010E94DC16EE243E
:1022B000D7FCE094FE2CC701B6010E949B1560E09C
:1022C00080910E010E94DC16C701B6010E949B1589
:1022D0008091EF029091F00201979093F002809329
:1022E000EF020F900F900F900F9097FF09C0809111
:1022F00018019091190101979093F0028093EF02D9
:102300002091EB023091EC02E0901601F090170161
:10231000A9014E0D5F1DF901EE19FF096091180129
:10232000709119018091EF029091F0026417750786
:1023300094F4461B570B841795074CF40027F7FCC1
:102340000095102F680F791F621B730B14C0E817DC
:10235000F90724F409C0E817F9071CF060E070E001
:1023600024C084179507D4F70027F7FC0095102F99
:10237000B901681B790B77FF03C0719561957109ED
:10238000882777FD8095982F1F921F921F921F928A
:10239000A12CB12C6501AA9420E030E0A9010E9493
:1023A0007B1A0F900F900F900F90809122011F9138
:1023B0000F91FF90EF90DF90CF90BF90AF900C9473
:1023C0001B160E94860D80911B018823E1F010925C
:1023D000F5021092F4021092F7021092F602609148
:1023E0005B0370915C0380915D0390915E030091AB
:1023F0003D0120E040E00E94BB091092FD020E94D6
:10240000C40B10921B011F910F91FF90EF90DF9072
:10241000CF90BF90AF900895CF93DF93EC010E94CF
:10242000490EC130D10519F486E295E033C0C230BF
:10243000D10519F48AEA95E02DC0C330D10529F4FD
:102440001092EC021092EB0229C0C430D10519F4AD
:1024500086E990E01FC0C530D10519F48AE191E00A
:1024600019C0C630D10519F486E092E013C0C73018
:10247000D10519F48AE892E00DC0C830D10519F4ED
:1024800080E293E007C0299719F486EB93E002C03D
:102490008AE394E09093EC028093EB026BE572E0A8
:1024A00080E993E00E9473196091EB027091EC0255
:1024B0004AE050E080E993E00E943D1AC091EB02AF
:1024C000D091EC02C03283E0D8071CF0C052D34058
:1024D00002C0C05EDC4F6BE672E080E993E00E94D0
:1024E00073194AE050E0BE0180E993E00E943D1A72
:1024F0008091EF029091F0028C179D0781F160E0CE
:10250000809110010E94DC1661E080910E010E9412
:10251000DC1662E070E080E090E00E949B1560E0D5
:1025200080910E010E94DC1662E070E080E090E095
:102530000E949B158091EF029091F0020197909379
:10254000F0028093EF0297FFD3CF80911801909112
:10255000190101979093F0028093EF02C9CF809107
:10256000EB029091EC02DF91CF910895EF920F93DF
:10257000CF93DF9380913A0381110BC00E94D40D59
:10258000AB01BC0181E0DF91CF910F91EF900C94F2
:10259000D70B813031F4DF91CF910F91EF900C94F4
:1025A0001D0B823051F480913B0380931A0191E01E
:1025B00090931B0180932D01E9C0833001F5809138
:1025C0003B03811102C060E003C0813071F461E01F
:1025D000809121010E94DC1660E080912001DF9152
:1025E000CF910F91EF900C94DC16823009F0CEC0A1
:1025F00061E0809121010E94DC1661E0EECF843021
:1026000009F4C4C0853061F50E94D40DAB01BC0152
:102610002AE030E080E993E00E94551A60E571E01D
:1026200080E993E00E947319CAE3D3E083E0C234E7
:10263000D80771F069914AE050E080E993E00E9488
:10264000621A60E571E080E993E00E947319EECFB1
:1026500080E993E0DF91CF910F91EF900C947C197A
:102660008630C1F490913B039093FA0280913C0331
:102670008093F90220913D032093F802963011F4E3
:102680000E94FC0D8091FA02893009F085E0809368
:102690002A017CC0873009F079C080913B038130EA
:1026A00009F072C08093FD0280913C038093FC028C
:1026B0008130A9F400913C01000F60915F0370919B
:1026C00060038091610390916203E0E2EE2E21E0CD
:1026D00040E00E94480981E08093F30257C08230B5
:1026E000A1F460916F0370917003809171039091D8
:1026F000720350E1E52E00913C0121E040E00E9490
:10270000480981E08093F20241C0833031F4DF91C7
:10271000CF910F91EF900C94490E843049F4809141
:102720003D0390E0DF91CF910F91EF900C940C124C
:10273000893061F18091F302882389F01092F302CD
:1027400020913C01220F6091670370916803809192
:10275000690390916A0300E240E00E94BB09809106
:10276000F202882399F01092F2026091670370914F
:1027700068038091690390916A0300E120913C0114
:1027800040E00E94BB0902C01092FD02DF91CF9190
:102790000F91EF90089560913D0170E023E040912A
:1027A0003E0183E793E00E94F30140E060E0809106
:1027B0003B010E94600260936F03709370038093EB
:1027C00071039093720340E060913B0180E00E94AE
:1027D000600260936B0370936C0380936D0390931E
:1027E0006E0340913B0160E080E00E9460026093D4
:1027F0006703709368038093690390936A038091E1
:102800003B01482F682F0E9460026093630370931E
:102810006403809365039093660380913B0140E0DD
:10282000682F0E94600260935F037093600380933F
:1028300061039093620340E060E080E00E946002E8
:1028400060935B0370935C0380935D0390935E03DE
:1028500060913A018AE493E00E94B10420E0409143
:102860001C0160911E018EEF92E00C9437078EEFF1
:1028700092E00E94DE0683E793E00C949F00CF93E2
:10288000DF9380911D03882309F473C010921D0308
:102890008091360390913703A0913803B0913903AA
:1028A00040913601509137016091380170913901A2
:1028B00084179507A607B707F1F5E2E4F3E0AAE36A
:1028C000B3E081918D9383E0EA34F807D1F762E5B4
:1028D00071E080E993E00E947319409136035091B2
:1028E000370360913803709139032AE030E080E9C2
:1028F00093E00E94551A64E671E080E993E00E943B
:102900007319CAE3D3E069914AE050E080E993E0AB
:102910000E94621A62E771E080E993E00E947319F5
:1029200083E0C234D80779F780E993E00E947C19EC
:102930000E94B6121EC04091320150913301609145
:1029400034017091350184179507A607B70789F4FC
:10295000C2E4D3E069914AE050E08EEF92E00E9439
:10296000621A83E0CA34D807A9F78EEF92E00E947A
:102970007C19D4E2C1E080E993E00E943B17892BE7
:1029800019F180E993E00E945417843229F480936E
:102990001E03C0932E03EFCFD0931E038A3029F479
:1029A0000E942B08C0931D03E6CFE0912E03AE2FAB
:1029B000B0E0A25EBC4F8C93EF5FE0932E03F0E09B
:1029C000E25EFC4F1082D7CFD4E2C1E08EEF92E0FE
:1029D0000E940D06892B49F163E772E080E993E0DC
:1029E0000E9480198EEF92E00E947F05843229F4C4
:1029F00080931E03C0932E03E9CFD0931E038A3029
:102A000029F40E942B08C0931D03E0CFE0912E0310
:102A1000AE2FB0E0A25EBC4F8C93EF5FE0932E032D
:102A2000F0E0E25EFC4F1082D1CF8091FA02893053
:102A300071F48091F902853021F4DF91CF910C94EB
:102A4000590C863041F4DF91CF910C94EE0CDF915C
:102A5000CF910C94CA0FDF91CF9108951F920F92DE
:102A60000FB60F9211242F933F938F939F93AF93A1
:102A7000BF938091880390918903A0918A03B091BC
:102A80008B033091870323E0230F2D3720F4019629
:102A9000A11DB11D05C026E8230F0296A11DB11D81
:102AA000209387038093880390938903A0938A03DC
:102AB000B0938B0380918C0390918D03A0918E0332
:102AC000B0918F030196A11DB11D80938C0390934B
:102AD0008D03A0938E03B0938F03BF91AF919F910D
:102AE0008F913F912F910F900FBE0F901F901895CF
:102AF0003FB7F89480918C0390918D03A0918E0341
:102B0000B0918F0326B5A89B05C02F3F19F0019601
:102B1000A11DB11D3FBF6627782F892F9A2F620F05
:102B2000711D811D911D42E0660F771F881F991F3F
:102B30004A95D1F70895CF92DF92EF92FF92CF930B
:102B4000DF936B017C010E947815EB01C114D10465
:102B5000E104F10489F00E94C21A0E9478156C1BEE
:102B60007D0B683E734090F381E0C81AD108E108FC
:102B7000F108C851DC4FEACFDF91CF91FF90EF9081
:102B8000DF90CF900895789484B5826084BD84B539
:102B9000816084BD85B5826085BD85B5816085BD58
:102BA000EEE6F0E0808181608083E1E8F0E0108271
:102BB000808182608083808181608083E0E8F0E0B2
:102BC000808181608083E1EBF0E08081846080839C
:102BD000E0EBF0E0808181608083EAE7F0E08081D3
:102BE0008460808380818260808380818160808333
:102BF0008081806880831092C10008958E3008F033
:102C00008E50877020913F0190E4299F90011124FC
:102C1000822B80937C0080917A00806480937A007C
:102C200080917A0086FDFCCF809178002091790018
:102C300090E0922B08951F93CF93DF93182FEB0111
:102C400061E00E94A316209711F460E004C0CF3F1A
:102C5000D10539F461E0812FDF91CF911F910C9460
:102C6000DC16E12FF0E0E657FF4FE491E330F9F096
:102C700048F4E130B9F0E230A1F584B5806284BD5A
:102C8000C8BD34C0E730E9F0E83019F1E43049F567
:102C900080918000806280938000D0938B00C093ED
:102CA0008A0024C084B5806884BDC7BD1FC08091E0
:102CB0008000806880938000D0938900C093880052
:102CC00015C08091B00080688093B000C093B300BD
:102CD0000DC08091B00080628093B000C093B400BA
:102CE00005C0C038D1050CF0B5CFAFCFDF91CF9183
:102CF0001F910895833081F028F4813099F082305B
:102D0000A1F008958730A9F08830B9F08430D1F46B
:102D1000809180008F7D03C0809180008F778093A9
:102D20008000089584B58F7702C084B58F7D84BDFF
:102D300008958091B0008F7703C08091B0008F7D9F
:102D40008093B0000895CF93DF9390E0FC01E256AA
:102D5000FF4F2491FC01EE54FF4F8491882349F1E9
:102D600090E0880F991FFC01E652FF4FA591B491A6
:102D700080539F4FFC01C591D4919FB7611108C04A
:102D8000F8948C91209582238C93888182230AC0A9
:102D9000623051F4F8948C91322F309583238C93C8
:102DA0008881822B888304C0F8948C91822B8C9329
:102DB0009FBFDF91CF9108950F931F93CF93DF9320
:102DC0001F92CDB7DEB7282F30E0F901E657FF4F4D
:102DD0008491F901E256FF4F1491F901EE54FF4F2F
:102DE00004910023C9F0882321F069830E947A1698
:102DF0006981E02FF0E0EE0FFF1FE053FF4FA59138
:102E0000B4919FB7F8948C91611103C01095812300
:102E100001C0812B8C939FBF0F90DF91CF911F91A9
:102E20000F910895CF93DF93282F30E0F901E657F3
:102E3000FF4F8491F901E256FF4FD491F901EE540E
:102E4000FF4FC491CC2391F081110E947A16EC2F90
:102E5000F0E0EE0FFF1FEA53FF4FA591B4912C91C4
:102E60002D2381E090E021F480E002C080E090E03A
:102E7000DF91CF910895FC01818D228D90E0805CDF
:102E80009F4F821B91098F7399270895FC01918DA3
:102E9000828D981731F0828DE80FF11D858D90E0BD
:102EA00008958FEF9FEF0895FC01918D828D981703
:102EB00061F0828DDF01A80FB11D5D968C91928D1E
:102EC0009F5F9F73928F90E008958FEF9FEF08951B
:102ED00088ED98E1892B49F080E090E0892B29F07A
:102EE0000E94D81881110C9400000895FC01848D73
:102EF000DF01A80FB11DA35ABF4F2C91848D90E024
:102F000001968F739927848FA689B7892C93A089FE
:102F1000B1898C9180648C93938D848D981306C0B5
:102F20000288F389E02D80818F7D80830895CF937F
:102F3000DF93EC01888D8823C9F0EA89FB898081C1
:102F400085FD05C0A889B9898C9186FD0FC00FB693
:102F500007FCF5CF808185FFF2CFA889B9898C91D4
:102F600085FFEDCFCE010E947617E7CFDF91CF919D
:102F70000895CF92DF92FF920F931F93CF93DF9329
:102F80001F92CDB7DEB76C0181E0D60158968C93C5
:102F900058975B969C915B975C968C915C97981385
:102FA00007C05096ED91FC915197808185FD2EC010
:102FB000F601038D10E00F5F1F4F0F731127F02EE6
:102FC000F601848DF81211C00FB607FCF9CFD601B7
:102FD0005096ED91FC915197808185FFF1CFC6010C
:102FE00069830E9476176981EBCF838DE80FF11D0D
:102FF000E35AFF4F6083D6015B960C935B97529622
:10300000ED91FC915397808180620CC0D601569659
:10301000ED91FC91579760835096ED91FC915197FB
:1030200080818064808381E090E00F90DF91CF9178
:103030001F910F91FF90DF90CF900895BF92CF9294
:10304000DF92EF92FF92CF93DF93EC016A017B0155
:10305000B22EE889F98982E08083411581EE580714
:1030600061057105A1F060E079E08DE390E0A701D2
:1030700096010E94FB1A21503109410951095695C8
:10308000479537952795211580E1380798F0E8890D
:10309000F989108260E874E88EE190E0A70196015A
:1030A0000E94FB1A21503109410951095695479553
:1030B00037952795EC85FD853083EE85FF85208348
:1030C000188EEC89FD89B082EA89FB898081806154
:1030D0008083EA89FB89808188608083EA89FB8913
:1030E000808180688083EA89FB8980818F7D8083ED
:1030F000DF91CF91FF90EF90DF90CF90BF90089538
:103100001F920F920FB60F9211242F938F939F93BC
:10311000EF93FF93E091A003F091A1038081E091F0
:10312000A603F091A70382FD12C090818091A903AC
:103130008F5F8F732091AA03821751F0E091A9034A
:10314000F0E0E057FC4F958F8093A90301C0808188
:10315000FF91EF919F918F912F910F900FBE0F9044
:103160001F9018951F920F920FB60F9211242F9354
:103170003F934F935F936F937F938F939F93AF93FF
:10318000BF93EF93FF9380E993E00E947617FF913E
:10319000EF91BF91AF919F918F917F916F915F91CF
:1031A0004F913F912F910F900FBE0F901F90189548
:1031B00080E993E00E943B1721E0892B09F420E08D
:1031C000822F0895109293031092920388EE93E059
:1031D000A0E0B0E08093940390939503A0939603AE
:1031E000B093970380E892E09093910380939003CB
:1031F00085EC90E090939D0380939C0384EC90E099
:1032000090939F0380939E0380EC90E09093A103A2
:103210008093A00381EC90E09093A3038093A2039A
:1032200082EC90E09093A5038093A40386EC90E059
:103230009093A7038093A6031092A9031092AA0368
:103240001092AB031092AC03089508950E94C31529
:103250000E9425190E94D70EC8E6D7E10E943F14AC
:103260002097E1F30E946817F9CFCF92DF92EF9297
:10327000FF920F931F93CF93DF937C016A01EB01C1
:1032800000E010E00C151D0571F06991D701ED917A
:10329000FC910190F081E02DC7010995892B19F06F
:1032A0000F5F1F4FEFCFC801DF91CF911F910F919B
:1032B000FF90EF90DF90CF9008956115710581F038
:1032C000DB010D900020E9F7AD0141505109461B8B
:1032D000570BDC01ED91FC910280F381E02D099404
:1032E00080E090E008950C945D19DC01ED91FC9173
:1032F0000190F081E02D09946CE872E00C945D1966
:103300000F931F93CF93DF93EC010E945D198C0103
:10331000CE010E947C19800F911FDF91CF911F91E8
:103320000F9108958F929F92AF92BF92CF92DF92AA
:10333000EF92FF920F931F93CF93DF93CDB7DEB73A
:10334000A1970FB6F894DEBF0FBECDBF7C01C42E8F
:10335000E52FCB01D22E19A221E02D1510F02AE085
:10336000D22E8E010F5D1F4F8D2C912CA12CB12CD4
:103370006C2D7E2FA50194010E94FB1A8C2DD29EEC
:1033800080191124015011098A3014F4805D01C0A4
:10339000895CF8018083211531054105510521F033
:1033A000C22EE32FCA01E4CFB801C7010E945D1904
:1033B000A1960FB6F894DEBF0FBECDBFDF91CF91BF
:1033C0001F910F91FF90EF90DF90CF90BF90AF9043
:1033D0009F908F900895CF92DF92EF92FF920F937C
:1033E0001F93CF93DF93EC016A017B012115310517
:1033F00079F4E881F9810190F081E02D642FDF916B
:10340000CF911F910F91FF90EF90DF90CF90099493
:103410002A303105E9F477FF1AC06DE20E94751970
:103420008C0144275527BA014C195D096E097F09A3
:103430002AE0CE010E949219800F911FDF91CF9157
:103440001F910F91FF90EF90DF90CF9008952AE0A9
:10345000B701A601CE01DF91CF911F910F91FF908F
:10346000EF90DF90CF900C9492199A01AB016627F0
:1034700057FD6095762F0C94EB190F931F93CF9304
:10348000DF93EC019A01AB01662757FD6095762F1B
:103490000E94EB198C01CE010E947C19800F911FB4
:1034A000DF91CF911F910F9108952115310541F4BE
:1034B000DC01ED91FC910190F081E02D642F0994E5
:1034C0000C9492199A01462F50E060E070E00C9441
:1034D000551A0F931F93CF93DF93EC010E94551A57
:1034E0008C01CE010E947C19800F911FDF91CF913A
:1034F0001F910F9108954F925F926F927F92AF92BA
:10350000BF92CF92DF92EF92FF920F931F93CF93D0
:10351000DF93CDB7DEB729013A01621B730B840B31
:10352000950B29893A894B895C892A193B094C09F1
:103530005D09298B3A8B4B8B5C8B9B01AC016989B4
:103540007A898B899C890E94C31AE418F5080609B8
:103550001709A80197010E941D1B2A0D3B1D4C1D38
:103560005D1DCA01B901DF91CF911F910F91FF90AD
:10357000EF90DF90CF90BF90AF907F906F905F9073
:103580004F9008950895DB018F939F930E94421BF3
:10359000BF91AF91A29F800D911DA39F900DB29FEF
:1035A000900D11240895AA1BBB1B51E107C0AA1F4F
:1035B000BB1FA617B70710F0A61BB70B881F991FD4
:1035C0005A95A9F780959095BC01CD01089597FB78
:1035D000072E16F4009407D077FD09D00E94D31A65
:1035E00007FC05D03EF4909581959F4F0895709506
:1035F00061957F4F0895A1E21A2EAA1BBB1BFD0106
:103600000DC0AA1FBB1FEE1FFF1FA217B307E407C1
:10361000F50720F0A21BB30BE40BF50B661F771F19
:10362000881F991F1A9469F76095709580959095F9
:103630009B01AC01BD01CF010895052E97FB1EF43F
:1036400000940E94341B57FD07D00E94FB1A07FC10
:1036500003D04EF40C94341B509540953095219531
:103660003F4F4F4F5F4F08959095809570956195AE
:103670007F4F8F4F9F4F0895EE0FFF1F0590F491DE
:10368000E02D09940E944D1BA59F900DB49F900DB5
:10369000A49F800D911D11240895A29FB001B39F96
:1036A000C001A39F700D811D1124911DB29F700D4B
:1036B000811D1124911D0895CF93DF9382309105D0
:1036C00010F482E090E0E0912F04F091300420E0CB
:1036D00030E0A0E0B0E0309739F1408151814817E7
:1036E0005907B8F04817590771F4828193811097F0
:1036F00029F013969C938E9312972CC090933004CC
:1037000080932F0427C02115310531F0421753074C
:1037100018F0A901DB0101C0EF019A01BD01DF0131
:103720000280F381E02DD7CF21153105F9F0281B58
:10373000390B2430310580F48A819B816115710534
:1037400021F0FB019383828304C090933004809323
:103750002F04FE01329644C0FE01E20FF31F819355
:10376000919322503109398328833AC020912D0446
:1037700030912E04232B41F420910201309103015A
:1037800030932E0420932D042091000130910101EB
:103790002115310541F42DB73EB7409104015091F8
:1037A0000501241B350BE0912D04F0912E04E21746
:1037B000F307A0F42E1B3F0B2817390778F0AC0154
:1037C0004E5F5F4F2417350748F04E0F5F1F509331
:1037D0002E0440932D048193919302C0E0E0F0E029
:1037E000CF01DF91CF910895CF93DF93009709F434
:1037F00087C0FC01329713821282C0912F04D091AE
:103800003004209781F420813181280F391F809165
:103810002D0490912E048217930779F5F0932E04CE
:10382000E0932D046DC0DE0120E030E0AE17BF074D
:1038300050F412964D915C9113979D0141155105DD
:1038400009F1DA01F3CFB383A28340815181840F60
:10385000951F8A179B0771F48D919C911197840F86
:10386000951F02969183808312968D919C91139758
:10387000938382832115310529F4F0933004E0937A
:103880002F043EC0D9011396FC93EE9312974D91ED
:103890005D91A40FB51FEA17FB0779F48081918130
:1038A000840F951F0296D90111969C938E93828165
:1038B000938113969C938E931297E0E0F0E08A81B7
:1038C0009B81009719F0FE01EC01F9CFCE01029621
:1038D00028813981820F931F20912D0430912E046D
:1038E0002817390769F4309729F4109230041092A0
:1038F0002F0402C013821282D0932E04C0932D0491
:10390000DF91CF910895FC0188279927E8942191B0
:103910002032E9F3293010F02E30C8F32B3241F079
:103920002D3239F4689404C00E94D41C820F911D7A
:10393000219120532A30C0F31EF4909581959F4F1A
:1039400008954EE952E00E94AD1C0895DC0101C0CB
:103950006D9341505040E0F70895FA01A191B08174
:10396000009719F41097E1F0CD01DC01CD010D9025
:10397000002011F4C00113C0FB012191222319F092
:103980002015D9F7F3CFFB012191201519F41E92D0
:10399000119606C02223C1F70D900020A1F7D00197
:1039A000FA01A193B08308957AE0979F902D879FA5
:1039B000802D910D1124089510E0C8EED0E004C0D0
:1039C000FE010E943E1B2296CA3ED107C9F7F89419
:0239D000FFCF27
:1039D200000031048000010000000E0010000A0007
:1039E2000B00320002002C00400608010200030016
:1039F2000605090D086363636363050000000000A8
:103A020000001F0000001500000004190820080132
:103A120000000000A00535190D067F05F305F2052B
:103A22002C0044657374696E6174696F6E204E6F09
:103A320064652300203A204D657373616765203DFC
:103A420020007C0043414E2D425553205374617235
:103A52007475703A2000202D204F4B004E6F742059
:103A6200476F6F642C20636865636B20796F757292
:103A72002070696E2320616E6420636F6E6E6563D1
:103A820074696F6E73002D2D2D2D2D50616E656C36
:103A920020486F6D65642D2D2D2D2D004E6F6465B0
:103AA2002049443A20002D2D2D2D2D496E7075741C
:103AB200732D2D2D2D0050696E2300202D20505284
:103AC2004553534544002D2D2D2D2D584265652D0E
:103AD2002D2D2D2D0033312C302C30002D2D2D2D60
:103AE2002D536F6C61722050616E656C2D2D2D2DE2
:103AF2002D002D2D2D2D2D486F6D652050616E6589
:103B02006C2D2D2D2D2D002D2D2D2D2D53657475E4
:103B12007020436F6D706C6574652D2D2D2D2D00F9
:103B22004445425547204D4F44450053756E204C45
:103B32006F636174696F6E203D200048616C66207E
:103B42003D2000456E74657220584200000000005E
:103B5200B91735193B175417461797170D0A006EF8
:0E3B6200616E00696E66006F7666002E0000D0
:00000001FF
