:100000000C9474000C94A0080C9479080C949C0037
:100010000C949C000C949C000C949C000C949C00F0
:100020000C949C000C949C000C949C000C949C00E0
:100030000C949C000C949C000C949C000C949C00D0
:100040000C942F080C949C000C94BC060C949606FF
:100050000C949C000C949C000C949C000C949C00B0
:100060000C949C000C949C00ED03B9033704BD0371
:10007000C003C303C703CA03CE03D103D403D7030A
:10008000DA03DE03E203E603E903010204081020B9
:100090004080010204081020010204081020000022
:1000A0000000250028002B000404040404040404B8
:1000B0000202020202020303030303030000000022
:1000C00023002600290000000000240027002A0049
:1000D0000000000800020100000304070000000007
:1000E000000000004C16381711241FBECFEFD8E0D7
:1000F000DEBFCDBF12E0A0E0B1E0E6EBF2E302C06C
:1001000005900D92AE34B107D9F723E0AEE4B2E02A
:1001100001C01D92A936B207E1F710E0C3E7D0E0B5
:1001200004C02197FE010E944817C237D107C9F7C2
:100130000E94A40B0C944E190C940000EF92FF92B5
:100140000F931F93CF93DF931F92CDB7DEB7182F76
:10015000F62EE42E60E08091230379830E94EE0660
:1001600083E00E94700B812F0E94700B0F2D79810C
:10017000172FF12CFE1459F0F8E0FF1641F080E043
:100180000E94700BF80181938F01F394F3CF61E02B
:10019000809123030F90DF91CF911F910F91FF90DA
:1001A000EF900C94EE061F93CF93DF93182FC3E1CB
:1001B000D3E060E088890E94EE0683E00E94700B25
:1001C000812F0E94700B80E00E94700B182F61E05D
:1001D00088890E94EE06812FDF91CF911F910895AB
:1001E0000F931F93CF93DF9300D000D0CDB7DEB72E
:1001F000182F1092130310921403109215031092EB
:1002000016031092170344E0BE016F5F7F4F0E94F8
:100210009E008A819981482F50E065E05595479569
:100220006A95E1F728E0929F400D511D1124052E9B
:10023000000C660B770B40931403509315036093E7
:1002400016037093170383FF29C092E0440F551FD4
:10025000661F771F9A95D1F78370480F511D611D56
:10026000711D762F652F542F44278B81480F511D08
:10027000611D711D762F652F542F44278C81480FE7
:10028000511D611D711D409314035093150360931C
:1002900016037093170381E0809313038FEF810F90
:1002A0000E94D300082F84E0810F0E94D300482FC2
:1002B00003FF04C081E08093210302C01092210358
:1002C0004F704093180369E173E085E0810F0E944D
:1002D0009E000F900F900F900F90DF91CF911F9184
:1002E0000F910895EF92FF920F931F93CF93DF9397
:1002F0001F92CDB7DEB7082F162F83E1E82E83E0DB
:10030000F82E60E0F701808949830E94EE0685E0BF
:100310000E94700B802F0E94700B812F0E94700B27
:100320004981842F0E94700B61E0F70180890F9052
:10033000DF91CF911F910F91FF90EF900C94EE06FB
:10034000CF93C82F482F60EE8FE00E9472018FE09C
:100350000E94D300807E91E08C1301C090E0892F31
:10036000CF9108950F931F93CF93DF93082F162FEC
:10037000C3E1D3E060E088890E94EE0682E00E943B
:10038000700B802F0E94700B812F0E94700B61E018
:100390008889DF91CF911F910F910C94EE06CF9237
:1003A000DF92FF920F931F93CF93DF931F92CDB7EE
:1003B000DEB7F82E162F042F60E080912303798397
:1003C0000E94EE0682E00E94700B8F2D0E94700B3F
:1003D000F12EC12E7981D72E8C2D8F19801730F4F4
:1003E000F60181916F010E94700BF6CF61E0809160
:1003F00023030F90DF91CF911F910F91FF90DF901A
:10040000CF900C94EE060F931F93CF93DF9300D001
:1004100000D0CDB7DEB76130B9F42C833B838A01BD
:1004200022273327602F6C71902F937048E0649FD0
:10043000900D112498609A83980175E03695279560
:100440007A95E1F729830DC0B90193E07695679518
:100450009A95E1F769832295220F207E2A831C82D8
:100460001B8244E0BE016F5F7F4F0E94CF010F905F
:100470000F900F900F90DF91CF911F910F910895E2
:100480000F931F93CF93DF93CDB7DEB729970FB6A6
:10049000F894DEBF0FBECDBF809144039091450319
:1004A000892B09F4A0C00E94D00700914903109144
:1004B0004A0320914B0330914C03DC01CB01801B9C
:1004C000910BA20BB30BC297A105B10560F3F89491
:1004D00080913F03909140039A838983E091440384
:1004E000F0914503DF011196808189879091420345
:1004F000E0914D03F0914E0380914F0391FF2EC088
:100500009081982B98879081809589238F838F8104
:100510008C8388E08B8358856F8149853B812C8152
:1005200089819A81508347FD252F3A952083262F74
:1005300039F0441F00C000006083000000C0F2CF0B
:1005400038E04D9160830000019761F7F0934E030E
:10055000E0934D0349873B832C8338C09081982BCF
:1005600098879081809589238F838F818E8388E0FF
:100570008D8358856F8149853D812E8189819A813E
:10058000508347FD252F00C000C0208300C000C05D
:1005900000C000C000C060830000262F3A9541F0E3
:1005A000441F000000C000C000C000C000C0E8CF71
:1005B00038E04D9100C0608300C0019709F7F093C7
:1005C0004E03E0934D0349873D832E839A838983AD
:1005D00078940E94D0076093490370934A038093F4
:1005E0004B0390934C0329960FB6F894DEBF0FBED1
:1005F000CDBFDF91CF911F910F9108958F929F9260
:10060000AF92BF92CF92DF92EF92FF924B01AA245A
:10061000BB24F82DC52ED62EE72EFF24EC2D342F2B
:1006200020914303222361F0829E40011124F92D81
:10063000C29E60011124ED2D429FA0011124352F8F
:10064000AC01440F551F840F951F409144035091F6
:100650004503840F951F20914603DC01A20FB11DB5
:10066000FC9320914703DC01A20FB11DEC93209174
:100670004803FC01E20FF11D3083FF90EF90DF9003
:10068000CF90BF90AF909F908F9008951F93CF937E
:10069000DF93C3E1D3E060E088890E94EE0680EA40
:1006A0000E94700B80E00E94700B182F61E0888917
:1006B0000E94EE06812FDF91CF911F9108950E9435
:1006C000460380FF06C081E60E94F00040E061E042
:1006D00007C081FF1CC081E70E94F00040E062E09B
:1006E0008CE20E9472018091180380937502A9E147
:1006F000B3E0EDE6F2E090E09F012D56324028177E
:1007000039071CF42D912193F7CF80E008951092C2
:10071000750284E00895CF93DF93C82F60E0809145
:1007200023030E94EE0680EC0E94700B61E0809132
:1007300023030E94EE066AE070E080E090E00E94F1
:10074000F50780E80E94A001D82F6AE070E080E001
:1007500090E0D11186C00E94F5074C2F50E0FA01BD
:100760003197E131F10508F078C0EC5CFF4F0C9453
:100770004817C7E8DFEF6FE133C0C7E0DAEB79C0B5
:10078000C5E8D1EF76C0C7E0DEEB69E029C0C7E875
:10079000DFEF02C0C7E8DAEF67E022C0C7E8DFEFAB
:1007A0000BC0C7E0DEEB08C0C7E0DDEA05C0C7E864
:1007B000DAEF02C0C6E8D0EF63E012C0C7E8DAEFB4
:1007C00061E00EC0C5E8D1EF61E40AC0C6E8D0EF31
:1007D00002C0C2E8D0ED60E003C0C7E8DFEF6FE31E
:1007E0008AE20E94B2016D2F89E20E94B2016C2F51
:1007F00088E20E94B2016AE070E080E090E00E942E
:10080000F507C0E360E08C2F0E94B20160E080E158
:100810008C0F0E94B20160E080E28C0F0E94B20156
:10082000CF5FCE3379F760E080E60E94B20160E0EE
:1008300080E70E94B20163E08BE20E94B20144E0D3
:1008400064E680E60E94720140E060E680E70E9474
:10085000720180E00E94A001D82F6AE070E080E081
:1008600090E00E94F5078D2FDF91CF910895C7E8A2
:10087000DFEF6FE0B5CFCF93DF93D82F6AE070E062
:1008800080E090E00E94F50780E80E94A001C82F58
:10089000882329F06AE070E080E090E01DC0D1116B
:1008A00007C02FE130E040E050E060E080E208C0A7
:1008B000D13041F42FE130E040E050E060E084E2EC
:1008C0000E94030280E00E94A001C82F6AE070E04D
:1008D00080E090E0CC2321F00E94F5078C2F03C02C
:1008E0000E94F50780E0DF91CF9108950F931F9349
:1008F000CF93DF9300D000D0CDB7DEB7082F9A0199
:10090000AB016AE070E080E090E029833A834B839A
:100910005C830E94F50780E80E94A001182F2981BE
:100920003A814B815C81882329F06AE070E080E0A5
:1009300090E029C0023099F038F4002369F00130CA
:10094000C1F460E084E013C0043079F058F0053061
:1009500081F460E088E10BC060E080E008C060E006
:1009600088E005C060E080E102C060E084E10E94B0
:10097000030280E00E94A001182F6AE070E080E08E
:1009800090E0112321F00E94F507812F03C00E94FF
:10099000F50780E00F900F900F900F90DF91CF91AF
:1009A0001F910F9108950F931F93CF93DF9300E052
:1009B00010E080E50E94D300982F987083FD02C05C
:1009C000C1E502C0C0E092E00F5F1F4F923021F4FA
:1009D0000233110571F747C00233110509F443C012
:1009E0004091180369E173E085E08C0F0E94CF010C
:1009F00080912103813029F48091180380648093D1
:100A000018036091180384E08C0F0E94B2012091BA
:100A10001403309115034091160350911703609110
:100A200013038C2F0E940302C15048E068E08C2F12
:100A30000E94720100E010E00F5F1F4F8C2F0E9498
:100A4000D300D82F61E070E080E090E00E94F507CD
:100A5000D3FF04C00233110579F707C00233110533
:100A600021F080E003C086E001C087E0DF91CF91F4
:100A70001F910F910895009769F0FC0101900020EB
:100A8000E9F73197AF01481B590BBC0186E792E0AB
:100A90000C94770B80E090E008958F929F92AF9234
:100AA000BF920F931F93CF93DF93CDB7DEB7A1977C
:100AB0000FB6F894DEBF0FBECDBF19A2423008F4C6
:100AC0004AE08E010F5D1F4F842E912CA12CB12C7A
:100AD000A50194010E941D19E62FB901CA01015018
:100AE0001109EA3014F4E05D01C0E95CD801EC932F
:100AF000232B242B252B61F7C8010E943B05A196CF
:100B00000FB6F894DEBF0FBECDBFDF91CF911F911E
:100B10000F91BF90AF909F908F900895CF93DF93E8
:100B20000E943B05EC018AE491E00E943B058C0F9A
:100B30009D1FDF91CF910895FC01918D828D9817B3
:100B400061F0828DDF01A80FB11D5D968C91928DB1
:100B50009F5F9F73928F90E008958FEF9FEF0895AE
:100B6000FC01918D828D981731F0828DE80FF11D77
:100B7000858D90E008958FEF9FEF0895FC01918D92
:100B8000228D892F90E0805C9F4F821B91098F738B
:100B90009927089586E792E00E94BE0521E0892BFF
:100BA00009F420E0822F0895FC01848DDF01A80F55
:100BB000B11DA35ABF4F2C91848D90E001968F7385
:100BC0009927848FA689B7892C93A089B1898C91A4
:100BD00080648C93938D848D981306C00288F3896A
:100BE000E02D80818F7D80830895EF92FF920F9397
:100BF0001F93CF93DF93EC0181E0888F9B8D8C8DC9
:100C0000981305C0E889F989808185FD24C0F62EF6
:100C10000B8D10E00F5F1F4F0F731127E02E8C8D8F
:100C2000E8120CC00FB607FCFACFE889F989808179
:100C300085FFF5CFCE010E94D405F1CF8B8DFE014B
:100C4000E80FF11DE35AFF4FF0820B8FEA89FB8911
:100C50008081806207C0EE89FF896083E889F98915
:100C600080818064808381E090E0DF91CF911F914B
:100C70000F91FF90EF900895CF93DF93EC01888D53
:100C80008823C9F0EA89FB89808185FD05C0A88990
:100C9000B9898C9186FD0FC00FB607FCF5CF808116
:100CA00085FFF2CFA889B9898C9185FFEDCFCE0160
:100CB0000E94D405E7CFDF91CF91089580E090E0C6
:100CC000892B29F00E94CA0581110C940000089517
:100CD000833081F028F4813099F08230A1F00895BA
:100CE0008730A9F08830B9F08430D1F48091800049
:100CF0008F7D03C0809180008F778093800008955E
:100D000084B58F7702C084B58F7D84BD08958091AE
:100D1000B0008F7703C08091B0008F7D8093B000CA
:100D20000895089581E080934E0208951F920F92D6
:100D30000FB60F9211242F933F934F935F936F93AE
:100D40007F938F939F93AF93BF93EF93FF9386E728
:100D500092E00E94D405FF91EF91BF91AF919F91D6
:100D60008F917F916F915F914F913F912F910F9054
:100D70000FBE0F901F9018951F920F920FB60F92F3
:100D800011242F938F939F93EF93FF93E09186020B
:100D9000F09187028081E0918C02F0918D0282FDBA
:100DA00012C0908180918F028F5F8F73209190028B
:100DB000821751F0E0918F02F0E0EA58FD4F958FD5
:100DC00080938F0201C08081FF91EF919F918F915D
:100DD0002F910F900FBE0F901F9018951F93CF93D8
:100DE000DF93282F30E0F901E053FF4F8491F901A0
:100DF000E657FF4FD491F901E855FF4FC491CC233A
:100E0000C9F0162F81110E946806EC2FF0E0EE0F5A
:100E1000FF1FE256FF4FA591B4918FB7F8941111BF
:100E200005C09C91ED2FE095E92302C0EC91ED2BDC
:100E3000EC938FBFDF91CF911F910895CF93DF93F4
:100E400090E0FC01E657FF4F2491FC01E855FF4F6D
:100E50008491882361F190E0880F991FFC01EA5387
:100E6000FF4FC591D491FC01E256FF4FA591B4917B
:100E7000611109C09FB7F8948881209582238883E7
:100E8000EC912E230BC0623061F49FB7F894388147
:100E9000822F809583238883EC912E2B2C939FBFE8
:100EA00006C08FB7F894E8812E2B28838FBFDF917F
:100EB000CF9108951F93CF93DF93182FEB0161E03B
:100EC0000E941E07209711F460E004C0CF3FD105B7
:100ED00039F461E0812FDF91CF911F910C94EE06E0
:100EE000E12FF0E0E053FF4FE491E330F9F048F4F4
:100EF000E130B9F0E230A1F584B5806284BDC8BDAF
:100F000034C0E730E9F0E83019F1E43049F5809178
:100F10008000806280938000D0938B00C0938A0011
:100F200024C084B5806884BDC7BD1FC08091800087
:100F3000806880938000D0938900C093880015C09A
:100F40008091B00080688093B000C093B3000DC062
:100F50008091B00080628093B000C093B40005C05F
:100F6000C038D1050CF0B5CFAFCFDF91CF911F9135
:100F700008958E3008F08E508770806480937C00D6
:100F800080917A00806480937A0080917A0086FD57
:100F9000FCCF809178002091790090E0922B089509
:100FA0003FB7F8948091610390916203A09163032D
:100FB000B091640326B5A89B05C02F3F19F0019698
:100FC000A11DB11D3FBFBA2FA92F982F8827820FCF
:100FD000911DA11DB11DBC01CD0142E0660F771F1F
:100FE000881F991F4A95D1F708958F929F92AF92CB
:100FF000BF92CF92DF92EF92FF926B017C010E9431
:10100000D0074B015C01C114D104E104F104F1F0FB
:101010000E94D007DC01CB0188199909AA09BB09F4
:10102000883E9340A105B10570F321E0C21AD108B2
:10103000E108F10888EE880E83E0981EA11CB11C1F
:10104000C114D104E104F10419F7DDCFFF90EF9052
:10105000DF90CF90BF90AF909F908F9008951F9298
:101060000F920FB60F9211242F933F938F939F935C
:10107000AF93BF9380915D0390915E03A0915F0356
:10108000B091600330915C0323E0230F2D3720F4EF
:101090000196A11DB11D05C026E8230F0296A11DD2
:1010A000B11D20935C0380935D0390935E03A09336
:1010B0005F03B09360038091610390916203A091FC
:1010C0006303B09164030196A11DB11D8093610378
:1010D00090936203A0936303B0936403BF91AF91B5
:1010E0009F918F913F912F910F900FBE0F901F9066
:1010F00018951F920F920FB60F9211242F933F93C2
:101100004F935F936F937F938F939F93AF93BF930F
:10111000EF93FF93E0910201F09103010995FF9194
:10112000EF91BF91AF919F918F917F916F915F915F
:101130004F913F912F910F900FBE0F901F901895D8
:101140001F920F920FB60F9211242F933F934F933C
:101150005F936F937F938F939F93AF93BF93EF931F
:10116000FF93E0910001F09101010995FF91EF914A
:10117000BF91AF919F918F917F916F915F914F91AF
:101180003F912F910F900FBE0F901F901895FF92D7
:101190000F931F93CF93DF93D82F082F10E0F80100
:1011A000E85EFE4F208130E0F901E053FF4F84916B
:1011B000F901E657FF4FF490F901E855FF4FC4914C
:1011C000CC2379F081110E946806EC2FF0E0EE0F3D
:1011D000FF1FE454FF4FA591B491EC91EF2191E0F2
:1011E00009F490E0F801EF5AFC4F80818917F1F083
:1011F00040910801913061F4908321E030E001C01A
:10120000220FDA95EAF7242B2093080181E010C021
:10121000108221E030E0C90101C0880FDA95EAF7B9
:10122000809584238093080180E002C0892F81701B
:10123000DF91CF911F910F91FF9008950F931F930E
:10124000CF9308E111E0C0E0F80181918F0183366E
:1012500019F08C2F0E94C708CF5FC630A9F7CF9135
:101260001F910F910895CF92DF92EF92FF921F93FB
:10127000CF93DF93C82F6A017B010E94DD18C11153
:101280000E941E0980EAC82A6894D1F86091510230
:1012900070E080E090E00E94F507C5E0D0E018E043
:1012A00010921303C0921403D0921503E092160318
:1012B000F09217031093180310922103E4E0F1E079
:1012C000A9E1B3E081918D9381E0EC30F807D1F78B
:1012D0000E94D304882311F0219711F7DF91CF9159
:1012E0001F91FF90EF90DF90CF900895CF93DF9301
:1012F00080E00E94C708811109C064E670E080E0C8
:1013000090E00E94F507CAE5D0E01DC0C8ECD0E02F
:1013100060E087E00E94EE0661E086E00E94EE0653
:1013200063E070E080E090E00E94F50760E086E016
:101330000E94EE0663E070E080E090E00E94F50716
:10134000219731F7DACF80E00E94C70881111DC0D4
:1013500061E087E00E94EE0661E086E00E94EE0612
:1013600063E070E080E090E00E94F50760E086E0D6
:101370000E94EE0663E070E080E090E00E94F507D6
:10138000D0935602C0935502DECF64EF71E080E047
:1013900090E00E94F5078091550290915602892BAA
:1013A00011F161E087E00E94EE0661E086E00E94B4
:1013B000EE066AE070E080E090E00E94F50760E0F1
:1013C00086E00E94EE066AE070E080E090E00E9415
:1013D000F50780915502909156020197909356021D
:1013E00080935502D8CF89E080930A014FE150E005
:1013F00060E070E080E00E94330987E392E0DF91D3
:10140000CF910C948E050F931F9300913803109188
:10141000390320913A0330913B036017710782072B
:101420009307B1F1009134031091350320913603F5
:1014300030913703601771078207930759F10091C4
:1014400028031091290320912A0330912B03601760
:1014500071078207930701F1009130031091310366
:10146000209132033091330360177107820793078D
:10147000A9F000912C0310912D0320912E0330919F
:101480002F03601771078207930751F080E009C0AE
:1014900081E007C082E005C083E003C084E001C0B2
:1014A00085E01F910F9108958F929F92AF92BF9206
:1014B000EF92FF920F931F93CF93DF934B015C0149
:1014C000142FC22F0E94030A8093050181E08093AC
:1014D0000601111101C01AE0D0E0E02EF12CCE156A
:1014E000DF0570F480913D0390913E03C817D90742
:1014F00028F4B501A401CE010E94FE022196EFCF8F
:101500000E944002612F70E080E090E0DF91CF9177
:101510001F910F91FF90EF90BF90AF909F908F9091
:101520000C94F5070F9380910C01882349F1609189
:10153000240370912503809126039091270300E2F4
:1015400020E040E00E94540A109252020E941E09BC
:1015500010920C01109256021092550210925B03E9
:1015600010925A031092540210925302109259038F
:101570001092580310924F0210925002109257038B
:101580000F9108955F926F927F928F929F92AF9288
:10159000BF92CF92DF92EF92FF920F931F93CF9360
:1015A000DF931F92CDB7DEB74B015C01522E7E2C2C
:1015B00049830E94030A8093050184E08093060119
:1015C0004981411101C044E1511002C05524539496
:1015D00010E0C42ED12CE12CF12C81E08515F0F423
:1015E000602E1AC040912403509125036091260378
:1015F00070912703862D90E020913D0330913E03AA
:101600008217930710F40E94FE020E944002C70155
:10161000B6010E94F5076394671420F3602E14C08E
:10162000862D90E020913D0330913E038217930771
:1016300020F4B501A4010E94FE020E944002C701ED
:10164000B6010E94F5076394671450F31F5F1511EC
:10165000C4CF0F90DF91CF911F910F91FF90EF902A
:10166000DF90CF90BF90AF909F908F907F906F90C2
:101670005F900895CF93CFB7F89480915003811174
:1016800027C0E2EBF0E08491E4E9F0E09491E82FE8
:10169000F0E0EE0FFF1FEA53FF4FA591B491EC91DC
:1016A000E92321F461E08AE00E94EE0661E08AE02D
:1016B0000E941E078CB580618CBD8CB580648CBD8A
:1016C00061E08DE00E941E0761E08BE00E941E0732
:1016D000809150038F5F80935003CFBFCF910895C7
:1016E0008EBD00000DB407FEFDCF8EB50895CF92DC
:1016F000DF92EF92FF920F931F93CF93DF936C01D2
:101700007A018B01C0E0D0E0CE15DF0589F0D80169
:101710006D918D01D601ED91FC910190F081E02D4C
:10172000C6010995892B11F47E0102C02196ECCFE8
:10173000C701DF91CF911F910F91FF90EF90DF9044
:10174000CF9008950E948A18789484B5826084BDF1
:1017500084B5816084BD85B5826085BD85B58160B5
:1017600085BD80916E00816080936E001092810033
:1017700080918100826080938100809181008160EE
:1017800080938100809180008160809380008091AF
:10179000B10084608093B1008091B000816080933B
:1017A000B00080917A00846080937A0080917A0002
:1017B000826080937A0080917A00816080937A00C1
:1017C00080917A00806880937A001092C100E09145
:1017D0008602F091870282E08083E0918202F0919C
:1017E00083021082E0918402F091850280E180837F
:1017F00010928E02E0918A02F0918B0286E0808343
:10180000E0918802F0918902808180618083E0917B
:101810008802F0918902808188608083E09188024B
:10182000F0918902808180688083E0918802F09144
:10183000890280818F7D808380E491E00E943B0556
:101840004AE065E170E080E090E00E944D058AE4A6
:1018500091E00E943B0561E08DE00E941E0761E07F
:101860008DE00E94EE068DE491E00E948E0508E175
:1018700011E0C0E0F801D1918F01D33679F160E039
:101880008D2F0E941E078DE591E00E943B056D2F74
:1018900070E080E090E04AE00E944D0582E691E031
:1018A0000E943B058C2F0E94C708682F70E080E0E3
:1018B00090E04AE00E944D058C2F0E94C7088111DC
:1018C00003C086E691E002C08CE691E00E948E059E
:1018D0006AEF70E080E090E00E94F507CF5FC630CD
:1018E00049F687E791E00E948E0588E891E00E9422
:1018F0003B050E943A0B88E00E948B03882319F075
:101900008AE991E0F0CF89E691E00E948E0582E9B4
:1019100096E09093010180930001809169008C7F93
:10192000826080936900E89A80E00E943B0481E035
:101930000E943B0445E150E060E070E080E00E94DE
:10194000760440E050E0BA0181E00E94760445E16F
:1019500050E060E070E082E00E94760440E050E0F9
:10196000BA0183E00E94760440E050E0BA0184E0CE
:101970000E94760445E150E060E070E085E00E945E
:1019800076046AEF70E080E090E00E94F507109224
:1019900013038FEB92E0A0E0B0E0809314039093E8
:1019A0001503A0931603B093170388E080931803E0
:1019B00010922103E7E5F2E0A9E1B3E081918D9374
:1019C00022E0EF35F207D1F70E94D30464E670E01D
:1019D00080E090E00E94F50780914E02882351F04C
:1019E00010924E020E944603837009F453C00E9475
:1019F0005F03F8CF84EC91E00E948E0585ED91E0C5
:101A00000E948E0561E087E00E941E0761E086E08B
:101A10000E941E0761E085E00E941E0761E085E0EC
:101A20000E94EE0668EE73E080E090E00E94F50709
:101A300060E085E00E94EE0668EE73E080E090E0F2
:101A40000E94F50761E085E00E94EE0668EE73E013
:101A500080E090E00E94F50760E085E00E94EE06DD
:101A60008BEE91E00E948E050E94760980E092E064
:101A70000E948E055FE3452E56E0552E8824839400
:101A800046E2242E45E0342E0E944603837009F47A
:101A900026C303C086E292E0AFCF0E945F0380912D
:101AA0006B0290916C02019690936C0280936B0292
:101AB00080916D02811113C0409114035091150360
:101AC000609116037091170335E0769567955795E9
:101AD00047953A95D1F781E00E943309D5CF8130FF
:101AE00009F052C180916E02813049F4C0913803EF
:101AF000F090390310913A03D0913B0334C0823007
:101B000049F4C0913403F090350310913603D0911D
:101B1000370329C0833049F4C0912803F09029038A
:101B200010912A03D0912B031EC0843049F4C09138
:101B30003003F090310310913203D091330313C07E
:101B4000853049F4C0912C03F0902D0310912E03A1
:101B5000D0912F0308C0C0912403F0902503109169
:101B60002603D0912703C0906F02A0907102D090FD
:101B70007202E0907002EE2049F08E2D880F880FDF
:101B8000880F28EF922E980EE82E03C090E2E92EDF
:101B9000912CC11003C000E220E005C041E0C41256
:101BA00008C00E2D292D4D2D6C2F7F2D812F9D2F9F
:101BB000E4C052E0C51232C06C2F7F2D812F9D2FC3
:101BC0000E94030A80930501C0920601D11002C051
:101BD0008EE5D82EA11002C0AA24A394612C712CEA
:101BE000B12C0E2D292D4D2D6C2F7F2D812F9D2F4A
:101BF0006A147B040CF0C1C00E94540A6091240353
:101C0000709125038091260390912703292D4D2D56
:101C10000E94540A8FEF681A780AE3CF93E0C91242
:101C200032C06C2F7F2D812F9D2F0E94030A80933D
:101C30000501C0920601D11002C00EE5D02EA11000
:101C400002C0AA24A394612C712CB12C6A147B04C9
:101C50000CF095C00E2D292D4D2D6C2F7F2D812F31
:101C60009D2F0E94540A6091240370912503809156
:101C7000260390912703292D4D2D0E94540AEFEF42
:101C80006E1A7E0AE3CFF4E0CF120AC0092D2A2D86
:101C90004D2D6C2F7F2D812F9D2F0E94C20A6FC06A
:101CA00025E0C2126CC086E080930501C092060157
:101CB00060912C0370912D0380912E0390912F033E
:101CC00000E220E044EF0E94540A64E670E080E005
:101CD00090E00E94F507609138037091390380917C
:101CE0003A0390913B0320E044EF0E94540A64E6DB
:101CF00070E080E090E00E94F507609134037091FD
:101D00003503809136039091370320E044EF0E9421
:101D1000540A64E670E080E090E00E94F50760916C
:101D200028037091290380912A0390912B0320E0CE
:101D300044EF0E94540A64E670E080E090E00E9464
:101D4000F5076091300370913103809132039091D7
:101D5000330320E044EF0E94540A64E670E080E020
:101D600090E00E94F5076091240370912503809113
:101D700026039091270320E044EF0E94540AC09369
:101D80000501C092060180CE823049F480916E0236
:101D900080930D0180920C018093070175CE8330F2
:101DA000D1F480916E02811102C060E003C08130E5
:101DB00049F461E085E00E94EE0660E086E00E9462
:101DC000EE0662CE823009F05FCE61E085E00E94CF
:101DD000EE0661E0F3CF843009F456CE853079F514
:101DE0008091140390911503A0911603B0911703ED
:101DF000BC01CD0115E096958795779567951A9565
:101E0000D1F74AE00E944D0589E192E00E943B052E
:101E1000CDE6D2E042E0C537D40761F0699170E0C9
:101E200080E090E04AE00E944D0589E192E00E9446
:101E30003B05F0CF8AE491E00E943B0525CE863039
:101E400009F040C080916E0280936A02C0916F02D7
:101E5000C093690290917002992319F090935102F6
:101E600002C010925102863029F588E891E00E9464
:101E70003B050E943A0B8C2F0E948B0381111BC1E2
:101E8000609134037091350380913603909137034C
:101E900038E1E32E00E120E040E00E94C20A6C2F0E
:101EA00070E080E090E04AE00E944D0586E691E017
:101EB0000E948E0580916A02893009F085E0809346
:101EC0000401E2CD873009F0DFCD80916E028130D0
:101ED00009F0EEC080925202C0916F02C0935F027F
:101EE000C13091F4609128037091290380912A03F5
:101EF00090912B03D0E2ED2E00E121E040E00E9422
:101F0000C20AC0935002C0CDC23091F46091380330
:101F10007091390380913A0390913B03B0E1EB2E2D
:101F200008E021E040E00E94C20A80924F02ACCD5E
:101F3000C33019F40E947609A7CDC43009F08DC0D2
:101F40008091700290E08130910529F43092540222
:101F5000209253023FC08230910519F48AEA95E03D
:101F600019C08330910529F4109254021092530243
:101F700031C08430910519F4E6E9F0E027C08530DE
:101F8000910519F44AE151E015C08630910539F404
:101F900086E092E090935402809353021BC08730F6
:101FA000910519F4EAE8F2E011C08830910539F49E
:101FB00040E253E050935402409353020BC0099700
:101FC00019F486EB93E0E6CFEAE3F4E0F0935402F1
:101FD000E0935302C0915302D0915402C032F3E017
:101FE000DF071CF0C052D3402AC0C05EDC4F27C0C0
:101FF00060E087E00E94EE0661E086E00E94EE0667
:1020000062E070E080E090E00E94F50760E086E02A
:102010000E94EE0662E070E080E090E00E94F5072A
:1020200021E0E21AF108F0925602E0925502F7FE22
:1020300006C04FE356E05093560240935502E0909D
:102040005502F0905602EC16FD0691F610920A0128
:10205000109266021092670217CDC93009F414CDB0
:1020600080915002882379F01092500260913003E1
:1020700070913103809132039091330300E220E1AB
:1020800040E00E94540A80914F02882309F4FCCC5E
:1020900010924F02609130037091310380913203AE
:1020A0009091330300E128E040E00E94540AECCC18
:1020B00010925202E9CC8AE991E00E948E0560916B
:1020C00028037091290380912A0390912B0328E122
:1020D000E22E00E120E040E00E94C20AEBCE8091B7
:1020E0006A02883009F0E6C280916902813009F005
:1020F000A3C080910D01813071F480910C0188237F
:1021000009F4D8C2609128037091290380912A03B1
:1021100090912B032AC0823009F4CCC2833071F431
:1021200080910C01882309F4C5C26091300370913D
:102130003103809132039091330346C0843031F4EF
:1021400080910C01882309F4B5C222C0853029F59D
:1021500080910C01882309F4ADC260913003709125
:1021600031038091320390913303A0E2EA2E00E024
:1021700021E040E00E94C20A60912403709125038F
:10218000809126039091270321E040E00E94C20A3B
:1021900010920C01109267028DC2863031F480914A
:1021A0000C01882309F486C244C0873099F48091D9
:1021B0000C01882309F47EC26091240370912503E9
:1021C000809126039091270300E220E040E00E94E6
:1021D000540A2FC0883009F04AC080910C0188232E
:1021E00009F468C260913003709131038091320329
:1021F00090913303F0E2EF2E00E021E040E00E94F6
:10220000C20A609128037091290380912A0390915A
:102210002B0321E040E00E94C20A609124037091E8
:102220002503809126039091270321E040E00E943E
:10223000C20A10920C013EC2823009F03BC280916A
:102240000D018130B9F0823009F434C2833021F1BC
:10225000843009F475CF853009F48CC0863009F4D8
:102260009ECF873009F4A3CF883009F402C10E94C1
:10227000920A20C280910C01882309F41BC210929B
:102280000C011092680210920A0110920B01109238
:102290006702109266020EC280910C01882389F0B9
:1022A0006091300370913103809132039091330338
:1022B00000E220E040E00E94540A10920C011092CB
:1022C0006602809167028111F5C11092660261E099
:1022D00087E00E94EE0661E086E00E94EE0662E082
:1022E00070E080E090E00E94F50760E086E00E94E8
:1022F000EE0662E070E080E090E00E94F5078091D9
:102300005502909156020196813456E095072CF4BF
:10231000909356028093550204C010925602109278
:1023200055021092540210925302809155029091DE
:1023300056029C01255D3F4F2735310508F088C0C6
:10234000863191050CF078C08B3EEFEF9E073CF094
:1023500062E370E085E00E945A0782E076C0893D22
:102360009F4F0CF46CC066E970E085E00E945A074C
:1023700083E06BC080910C018823F9F060913003F9
:10238000709131038091320390913303E0E2EE2E9D
:1023900000E021E040E00E94C20A609124037091B5
:1023A0002503809126039091270321E040E00E94BD
:1023B000C20A10920C01109267028091670281118B
:1023C00079C11092660261E087E00E94EE0661E04A
:1023D00086E00E94EE0662E070E080E090E00E94FD
:1023E000F50760E086E00E94EE0662E070E080E0C3
:1023F00090E00E94F5078091550290915602019657
:1024000090935602809355028134964024F01092A6
:10241000560210925502109254021092530280916B
:102420005502909156029C01255D3F4F273531059D
:1024300078F486319105A4F088970CF494CF6EE17E
:1024400070E085E00E945A0781E080930A0132C162
:1024500060E070E085E00E945A0710920A012AC1EC
:102460008B3E4FEF94070CF073CF893D9F4F3CF3A9
:102470007ACF80910C01882351F18BE192E00E9488
:102480008E0561E085E00E94EE0664EF71E080E079
:1024900090E00E94F50760E085E00E94EE0664EFA0
:1024A00071E080E090E00E94F50761E085E00E9425
:1024B000EE0664EF71E080E090E00E94F50760E0D6
:1024C00085E00E94EE0610920C0110926702809146
:1024D00067028111EFC080E10E94B907EC0190937F
:1024E0006502809364028EE00E94B90790936302B4
:1024F000809362029C01225C31402536310508F050
:10250000EC01C73282E0D8070CF447C061E087E0F5
:102510000E94EE06C13293E0D90714F0C8EED3E072
:1025200061E086E00E94EE06CE01DD0FAA0BBB0B38
:102530009C01AD012652324041095109A0EDBFEF87
:102540000E94181922EC31E040E050E00E94EB18A4
:1025500069017A01E2E3CE0ED11CE11CF11CC70136
:10256000B6010E94F50760E086E00E94EE06C70112
:10257000B6010E94F507809155029091560201968E
:102580009093560280935502813496400CF44DC0CE
:10259000109256021092550248C0C23C21E0D20768
:1025A0000CF043C060E087E00E94EE06C83CD10515
:1025B00014F4C0E0D0E061E086E00E94EE06CE01B7
:1025C000DD0FAA0BBB0B9C01AD01225C3140410920
:1025D0005109A0EDBFEF0E9418192EE33EEF4FEF17
:1025E0005FEF0E94EB1869017A0182E3C80ED11CEB
:1025F000E11CF11CC701B6010E94F50760E086E00E
:102600000E94EE06C701B6010E94F50780915502AF
:10261000909156020197909356028093550297FF2E
:1026200004C05092560240925502209153023091BC
:102630005402A901445D5F4FB9016C527109809148
:102640005502909156024134E6E05E0784F0405412
:102650005640841795073CF4805C994FAC01421BAF
:10266000530B9A010FC06817790724F409C0681743
:1026700079071CF060E070E01AC084179507D4F762
:10268000281B390B37FF03C0319521953109A1E093
:10269000BFEF0E944E172CE230E040E050E00E9475
:1026A000EB18CA01B90161507F4F8F4F9F4F85E0F2
:1026B0000E945A0780916A02893009F0A4C0809173
:1026C0006902813079F580910D0190910C01813082
:1026D000D9F4992309F4DCC260913803709139036D
:1026E00080913A0390913B0350E2E52E00E021E017
:1026F00040E00E94C20A60912C0370912D038091EA
:102700002E0390912F0355C08230C1F4992309F410
:10271000BFC210920C0110926702809160029091EA
:1027200061025EC0823009F0B3C280910D019091C8
:102730000C01813021F1823009F444C0873069F402
:1027400080910C01882309F4A3C24FE150E060E0BE
:1027500070E080E00E94330942C180910C0188231F
:1027600009F496C210926C0210926B0210926102F0
:102770001092600210920B0110920A0176C2992306
:1027800009F486C2609138037091390380913A034D
:1027900090913B0340E2E42E00E021E040E00E9403
:1027A000C20A609128037091290380912A039091B5
:1027B0002B0321E040E00E94C20A10920C0110920B
:1027C000670266C2992321F010920C0110926702F1
:1027D00080916002909161028F3F91050CF058C288
:1027E0000196909361028093600280930B01809127
:1027F0006B0280930A014FE150E060E070E080E0FE
:102800000E94330945C280910D01813091F480917D
:102810000C01882309F43CC210920C01109268024A
:1028200010920A0110920B01109267021092660238
:102830002FC2823009F42CC2833009F079C0809114
:102840000C01882371F010920C0110926602109214
:1028500067021092680210920A0110920B01109206
:10286000080180916702811113C280E10E94B907BB
:10287000EC0190936502809364028EE00E94B90798
:1028800090936302809362029C01225C3140253662
:10289000310508F0EC01C73252E0D5070CF442C014
:1028A0001092660261E087E00E94EE06C13283E08A
:1028B000D80714F0C8EED3E061E086E00E94EE068F
:1028C000CE01DD0FAA0BBB0B9C01AD01265232409D
:1028D00041095109A0EDBFEF0E94181922EC31E027
:1028E00040E050E00E94EB1869017A0192E3C90EC2
:1028F000D11CE11CF11CC701B6010E94F50760E084
:1029000086E00E94EE06C701B6010E94F50780919D
:1029100055029091560201968134E6E09E070CF034
:10292000FBC03FC1C23CF1E0DF070CF040C03CC03F
:102930008430A9F0853009F048C080910C018823CB
:1029400071F010920C0110926602109267021092C0
:10295000680210920A0110920B01109208018091F6
:102960006702811195C180E10E94B907EC01909343
:102970006502809364028EE00E94B907909363021F
:10298000809362029C01225C31402536310508F0BB
:10299000EC01C73292E0D9071CF0109266027DC0AC
:1029A000C23C41E0D4071CF410926602BFC0809183
:1029B00066028111FFC04FE150E060E070E00E94CC
:1029C000330981E080936602F5C0863009F460C166
:1029D000873099F480910C01882309F459C16091E2
:1029E000240370912503809126039091270300E230
:1029F00020E040E00E94540A49C1883009F027C114
:102A000080910C01882351F18BE192E00E948E05A8
:102A100061E085E00E94EE0664EF71E080E090E006
:102A20000E94F50760E085E00E94EE0664EF71E029
:102A300080E090E00E94F50761E085E00E94EE06EC
:102A400064EF71E080E090E00E94F50760E085E0CF
:102A50000E94EE0610920C011092670280916702AC
:102A6000811116C180E10E94B907EC0190936502C3
:102A7000809364028EE00E94B90790936302809372
:102A800062029C01225C31402536310508F0EC01E0
:102A9000C73292E0D9070CF444C061E087E00E949D
:102AA000EE06C132E3E0DE0714F0C8EED3E061E0E9
:102AB00086E00E94EE06CE01DD0FAA0BBB0B9C0147
:102AC000AD012652324041095109A0EDBFEF0E94ED
:102AD000181922EC31E040E050E00E94EB18690147
:102AE0007A01F2E3CF0ED11CE11CF11CC701B60143
:102AF0000E94F50760E086E00E94EE06C701B6017D
:102B00000E94F507809155029091560201968134FA
:102B100026E092070CF445C010925602109255021E
:102B200049C0C23C41E0D4070CF044C060E087E0FB
:102B30000E94EE06C83CD10514F4C0E0D0E061E08C
:102B400086E00E94EE06CE01DD0FAA0BBB0B9C01B6
:102B5000AD01225C314041095109A0EDBFEF0E9457
:102B600018192EE33EEF4FEF5FEF0E94EB1869015B
:102B70007A0182E3C80ED11CE11CF11CC701B60129
:102B80000E94F50760E086E00E94EE06C701B601EC
:102B90000E94F5078091550290915602019797FD8A
:102BA00005C0909356028093550204C0509256027D
:102BB000409255028091530290915402009709F07F
:102BC00041C084E196E04CE250E020915502309102
:102BD00056022417350774F5821793075CF5BC017C
:102BE0006A5E7F4FFA0176972E173F07E4F462176B
:102BF0007307CCF448525109241735075CF48896C2
:102C0000821793073CF466E970E085E00E945A075A
:102C100083E006C062E370E085E00E945A0782E02C
:102C200080930A0135C06EE170E085E00E945A078A
:102C300081E0F6CF60E070E085E00E945A071092D4
:102C40000A0126C0AC01445D5F4F8C97BECF0E9445
:102C5000920A80910C018823D9F010926C02109294
:102C60006B021092610210926002609124037091D5
:102C70002503809126039091270300E220E040E0A5
:102C80000E94540A109252020E941E0910920C01D6
:102C90000E945E060C943E0D10927902109278020A
:102CA00088EE93E0A0E0B0E080937A0290937B02FC
:102CB000A0937C02B0937D0280E391E09093770231
:102CC0008093760285EC90E0909383028093820259
:102CD00084EC90E0909385028093840280EC90E0F5
:102CE000909387028093860281EC90E09093890212
:102CF0008093880282EC90E090938B0280938A020A
:102D000086EC90E090938D0280938C0210928F025B
:102D100010929002109291021092920210923C0333
:102D2000109243031092490310924A0310924B03EE
:102D300010924C0380E690E09093400380933F0311
:102D40000E945D179093450380934403009761F0C0
:102D500020E6FC0111922A95E9F780E290E0909339
:102D60003E0380933D0308C01092400310923F033E
:102D700010923E0310923D0388E0809341038091BE
:102D80003C03882341F061E088E00E941E0760E078
:102D900088E00E94EE06E0EBF0E0E491F0E0EE0F58
:102DA000FF1FE256FF4F8591949190934E038093BD
:102DB0004D03E2E9F0E0E491E0934F0383E0809378
:102DC000420381E0809346031092470382E08093A0
:102DD000480380E090E0A9E1B0E08093380390934D
:102DE0003903A0933A03B0933B0380E099E1A0E05C
:102DF000B0E08093340390933503A0933603B093EF
:102E0000370389E190E0A0E0B0E080933003909335
:102E10003103A0933203B093330389E199E1A9E12F
:102E2000B0E080932C0390932D03A0932E03B093D6
:102E30002F0380E099E1A9E1B0E08093280390930B
:102E40002903A0932A03B0932B031092240310921A
:102E50002503109226031092270389E08093230311
:102E600061E00E941E0761E0809123030C94EE064E
:102E70008091440390914503009711F00E94F2174E
:102E80008091410387FD03C060E00C941E07089504
:102E9000EE0FFF1F0590F491E02D09940E943F1959
:102EA000332312F48A1B9B0B0C9458170E943F1972
:102EB000B7FF0895821B930B0895CF93DF93823061
:102EC000910510F482E090E0E0916703F0916803CF
:102ED00020E030E0C0E0D0E0309711F14081518136
:102EE00048175907C0F04817590761F48281938148
:102EF000209719F09B838A832BC09093680380935B
:102F0000670326C02115310519F04217530718F43D
:102F10009A01BE01DF01EF010280F381E02DDCCFD9
:102F20002115310509F1281B390B2430310590F4A6
:102F300012968D919C9113976115710521F0FB01FB
:102F40009383828304C09093680380936703FD0199
:102F5000329644C0FD01E20FF31F819391932250FA
:102F600031092D933C933AC020916503309166035B
:102F7000232B41F42091100130911101309366030D
:102F80002093650320910E0130910F012115310529
:102F900041F42DB73EB74091120150911301241B0B
:102FA000350BE0916503F0916603E217F307A0F497
:102FB0002E1B3F0B2817390778F0AC014E5F5F4F8F
:102FC0002417350748F04E0F5F1F50936603409358
:102FD00065038193919302C0E0E0F0E0CF01DF91BF
:102FE000CF9108950F931F93CF93DF93009709F428
:102FF0008CC0FC01329713821282009167031091FA
:1030000068030115110581F420813181820F931F1E
:1030100020916503309166032817390779F5F093FD
:103020006603E093650371C0D80140E050E0AE173D
:10303000BF0750F412962D913C911397AD012115C5
:10304000310509F1D901F3CF9D01DA0133832283E0
:1030500060817181860F971F8217930769F4EC01D5
:1030600028813981260F371F2E5F3F4F3183208300
:103070008A819B8193838283452B29F4F093680393
:10308000E093670342C01396FC93EE931297ED0111
:10309000499159919E01240F351FE217F30771F4EE
:1030A00080819181840F951F029611969C938E9337
:1030B0008281938113969C938E931297E0E0F0E0C7
:1030C000D80112968D919C911397009719F0F801F1
:1030D0008C01F6CF8D919C9198012E5F3F4F820F0E
:1030E000931F20916503309166032817390769F40F
:1030F000309729F4109268031092670302C013827C
:1031000012821093660300936503DF91CF911F91A4
:103110000F91089581E090E0F8940C944E198F92ED
:103120009F92AF92BF92CF92DF92EF92FF92CF9396
:10313000DF93EC01688179818A819B81611571053A
:103140008105910521F464E279ED8BE597E02DE1AD
:1031500033EF41E050E00E94EB1849015A019B0116
:10316000AC01A7EAB1E40E940A196B017C01ACEE44
:10317000B4EFA50194010E941819DC01CB018C0D5C
:103180009D1DAE1DBF1DB7FF03C00197A109B0482B
:1031900088839983AA83BB83BC01CD019F77DF918C
:1031A000CF91FF90EF90DF90CF90BF90AF909F9026
:1031B0008F9008950E948F18089584E191E00E94F5
:1031C0008F18089560931401709315018093160170
:1031D000909317010895052E97FB1EF400940E940A
:1031E000021957FD07D00E941D1907FC03D04EF4A9
:1031F0000C94021950954095309521953F4F4F4FB3
:103200005F4F089590958095709561957F4F8F4F92
:103210009F4F08950E943F19A59F900DB49F900D58
:10322000A49F800D911D11240895B7FF0C940A19D5
:103230000E940A19821B930B0895A1E21A2EAA1B61
:10324000BB1BFD010DC0AA1FBB1FEE1FFF1FA21756
:10325000B307E407F50720F0A21BB30BE40BF50B53
:10326000661F771F881F991F1A9469F760957095DC
:10327000809590959B01AC01BD01CF010895A29F5F
:10328000B001B39FC001A39F700D811D1124911D3A
:10329000B29F700D811D1124911D089510E0C3E7A8
:1032A000D0E004C0FE010E9448172196C437D10720
:0632B000C9F7F894FFCFFE
:1032B60091069106050000000000000001080000CC
:1032C6006903800001000000086363636363060509
:1032D600150000001F0000000600070000000000A7
:1032E600F505770BBE059C05B0053C0609192008B7
:1032F6004E6F64652049443A20000D0A002D2D2D9D
:103306002D2D496E707574732D2D2D2D0050696EFF
:103316002300203D2000202D204F4B00202D205043
:10332600524553534544002D2D2D2D2D43616E20BE
:103336004275732D2D2D2D0043414E2D42555320A0
:10334600537461727475703A20004E6F7420476F23
:103356006F642C20636865636B20796F75722070CB
:10336600696E2320616E6420636F6E6E6563746997
:103376006F6E73004E6F7468696E67205265636581
:1033860069766564002D2D2D2D2D536F6C6172208D
:1033960050616E656C2D2D2D2D2D002D2D2D2D2D75
:1033A600486F6D652050616E656C2D2D2D2D2D009D
:1033B6002D2D2D2D2D536574757020436F6D706CFA
:1033C6006574652D2D2D2D2D002C00444542554745
:1033D600204D4F4445004D65737361676520526506
:1033E600636569766564002D2D2D2D2D50616E6502
:0E33F6006C20486F6D65642D2D2D2D2D00006F
:00000001FF
